{
	"data": {
		"bytecode": {
			"linkReferences": {},
			"object": "6080604052348015600e575f80fd5b5061080e8061001c5f395ff3fe608060405234801561000f575f80fd5b5060043610610060575f3560e01c806306fdde031461006457806322f3e2d414610082578063262a9dff146100a05780632cefeb07146100be5780636e424d5a146100da578063dd685918146100f6575b5f80fd5b61006c610112565b604051610079919061025d565b60405180910390f35b61008a61019d565b6040516100979190610297565b60405180910390f35b6100a86101af565b6040516100b591906102c8565b60405180910390f35b6100d860048036038101906100d3919061041e565b6101b5565b005b6100f460048036038101906100ef919061048f565b6101c7565b005b610110600480360381019061010b91906104e4565b6101d1565b005b5f805461011e9061053c565b80601f016020809104026020016040519081016040528092919081815260200182805461014a9061053c565b80156101955780601f1061016c57610100808354040283529160200191610195565b820191905f5260205f20905b81548152906001019060200180831161017857829003601f168201915b505050505081565b60025f9054906101000a900460ff1681565b60015481565b805f90816101c39190610709565b5050565b8060018190555050565b8060025f6101000a81548160ff02191690831515021790555050565b5f81519050919050565b5f82825260208201905092915050565b8281835e5f83830152505050565b5f601f19601f8301169050919050565b5f61022f826101ed565b61023981856101f7565b9350610249818560208601610207565b61025281610215565b840191505092915050565b5f6020820190508181035f8301526102758184610225565b905092915050565b5f8115159050919050565b6102918161027d565b82525050565b5f6020820190506102aa5f830184610288565b92915050565b5f819050919050565b6102c2816102b0565b82525050565b5f6020820190506102db5f8301846102b9565b92915050565b5f604051905090565b5f80fd5b5f80fd5b5f80fd5b5f80fd5b7f4e487b71000000000000000000000000000000000000000000000000000000005f52604160045260245ffd5b61033082610215565b810181811067ffffffffffffffff8211171561034f5761034e6102fa565b5b80604052505050565b5f6103616102e1565b905061036d8282610327565b919050565b5f67ffffffffffffffff82111561038c5761038b6102fa565b5b61039582610215565b9050602081019050919050565b828183375f83830152505050565b5f6103c26103bd84610372565b610358565b9050828152602081018484840111156103de576103dd6102f6565b5b6103e98482856103a2565b509392505050565b5f82601f830112610405576104046102f2565b5b81356104158482602086016103b0565b91505092915050565b5f60208284031215610433576104326102ea565b5b5f82013567ffffffffffffffff8111156104505761044f6102ee565b5b61045c848285016103f1565b91505092915050565b61046e816102b0565b8114610478575f80fd5b50565b5f8135905061048981610465565b92915050565b5f602082840312156104a4576104a36102ea565b5b5f6104b18482850161047b565b91505092915050565b6104c38161027d565b81146104cd575f80fd5b50565b5f813590506104de816104ba565b92915050565b5f602082840312156104f9576104f86102ea565b5b5f610506848285016104d0565b91505092915050565b7f4e487b71000000000000000000000000000000000000000000000000000000005f52602260045260245ffd5b5f600282049050600182168061055357607f821691505b6020821081036105665761056561050f565b5b50919050565b5f819050815f5260205f209050919050565b5f6020601f8301049050919050565b5f82821b905092915050565b5f600883026105c87fffffffffffffffffffffffffffffffffffffffffffffffffffffffffffffffff8261058d565b6105d2868361058d565b95508019841693508086168417925050509392505050565b5f819050919050565b5f61060d610608610603846102b0565b6105ea565b6102b0565b9050919050565b5f819050919050565b610626836105f3565b61063a61063282610614565b848454610599565b825550505050565b5f90565b61064e610642565b61065981848461061d565b505050565b5b8181101561067c576106715f82610646565b60018101905061065f565b5050565b601f8211156106c1576106928161056c565b61069b8461057e565b810160208510156106aa578190505b6106be6106b68561057e565b83018261065e565b50505b505050565b5f82821c905092915050565b5f6106e15f19846008026106c6565b1980831691505092915050565b5f6106f983836106d2565b9150826002028217905092915050565b610712826101ed565b67ffffffffffffffff81111561072b5761072a6102fa565b5b610735825461053c565b610740828285610680565b5f60209050601f831160018114610771575f841561075f578287015190505b61076985826106ee565b8655506107d0565b601f19841661077f8661056c565b5f5b828110156107a657848901518255600182019150602085019450602081019050610781565b868310156107c357848901516107bf601f8916826106d2565b8355505b6001600288020188555050505b50505050505056fea26469706673582212203583c21edb5a48623a18c36627e39cea36cfe7ea86cb33dc03b0a45bfcd4cebb64736f6c63430008190033",
			"opcodes": "PUSH1 0x80 PUSH1 0x40 MSTORE CALLVALUE DUP1 ISZERO PUSH1 0xE JUMPI PUSH0 DUP1 REVERT JUMPDEST POP PUSH2 0x80E DUP1 PUSH2 0x1C PUSH0 CODECOPY PUSH0 RETURN INVALID PUSH1 0x80 PUSH1 0x40 MSTORE CALLVALUE DUP1 ISZERO PUSH2 0xF JUMPI PUSH0 DUP1 REVERT JUMPDEST POP PUSH1 0x4 CALLDATASIZE LT PUSH2 0x60 JUMPI PUSH0 CALLDATALOAD PUSH1 0xE0 SHR DUP1 PUSH4 0x6FDDE03 EQ PUSH2 0x64 JUMPI DUP1 PUSH4 0x22F3E2D4 EQ PUSH2 0x82 JUMPI DUP1 PUSH4 0x262A9DFF EQ PUSH2 0xA0 JUMPI DUP1 PUSH4 0x2CEFEB07 EQ PUSH2 0xBE JUMPI DUP1 PUSH4 0x6E424D5A EQ PUSH2 0xDA JUMPI DUP1 PUSH4 0xDD685918 EQ PUSH2 0xF6 JUMPI JUMPDEST PUSH0 DUP1 REVERT JUMPDEST PUSH2 0x6C PUSH2 0x112 JUMP JUMPDEST PUSH1 0x40 MLOAD PUSH2 0x79 SWAP2 SWAP1 PUSH2 0x25D JUMP JUMPDEST PUSH1 0x40 MLOAD DUP1 SWAP2 SUB SWAP1 RETURN JUMPDEST PUSH2 0x8A PUSH2 0x19D JUMP JUMPDEST PUSH1 0x40 MLOAD PUSH2 0x97 SWAP2 SWAP1 PUSH2 0x297 JUMP JUMPDEST PUSH1 0x40 MLOAD DUP1 SWAP2 SUB SWAP1 RETURN JUMPDEST PUSH2 0xA8 PUSH2 0x1AF JUMP JUMPDEST PUSH1 0x40 MLOAD PUSH2 0xB5 SWAP2 SWAP1 PUSH2 0x2C8 JUMP JUMPDEST PUSH1 0x40 MLOAD DUP1 SWAP2 SUB SWAP1 RETURN JUMPDEST PUSH2 0xD8 PUSH1 0x4 DUP1 CALLDATASIZE SUB DUP2 ADD SWAP1 PUSH2 0xD3 SWAP2 SWAP1 PUSH2 0x41E JUMP JUMPDEST PUSH2 0x1B5 JUMP JUMPDEST STOP JUMPDEST PUSH2 0xF4 PUSH1 0x4 DUP1 CALLDATASIZE SUB DUP2 ADD SWAP1 PUSH2 0xEF SWAP2 SWAP1 PUSH2 0x48F JUMP JUMPDEST PUSH2 0x1C7 JUMP JUMPDEST STOP JUMPDEST PUSH2 0x110 PUSH1 0x4 DUP1 CALLDATASIZE SUB DUP2 ADD SWAP1 PUSH2 0x10B SWAP2 SWAP1 PUSH2 0x4E4 JUMP JUMPDEST PUSH2 0x1D1 JUMP JUMPDEST STOP JUMPDEST PUSH0 DUP1 SLOAD PUSH2 0x11E SWAP1 PUSH2 0x53C JUMP JUMPDEST DUP1 PUSH1 0x1F ADD PUSH1 0x20 DUP1 SWAP2 DIV MUL PUSH1 0x20 ADD PUSH1 0x40 MLOAD SWAP1 DUP2 ADD PUSH1 0x40 MSTORE DUP1 SWAP3 SWAP2 SWAP1 DUP2 DUP2 MSTORE PUSH1 0x20 ADD DUP3 DUP1 SLOAD PUSH2 0x14A SWAP1 PUSH2 0x53C JUMP JUMPDEST DUP1 ISZERO PUSH2 0x195 JUMPI DUP1 PUSH1 0x1F LT PUSH2 0x16C JUMPI PUSH2 0x100 DUP1 DUP4 SLOAD DIV MUL DUP4 MSTORE SWAP2 PUSH1 0x20 ADD SWAP2 PUSH2 0x195 JUMP JUMPDEST DUP3 ADD SWAP2 SWAP1 PUSH0 MSTORE PUSH1 0x20 PUSH0 KECCAK256 SWAP1 JUMPDEST DUP2 SLOAD DUP2 MSTORE SWAP1 PUSH1 0x1 ADD SWAP1 PUSH1 0x20 ADD DUP1 DUP4 GT PUSH2 0x178 JUMPI DUP3 SWAP1 SUB PUSH1 0x1F AND DUP3 ADD SWAP2 JUMPDEST POP POP POP POP POP DUP2 JUMP JUMPDEST PUSH1 0x2 PUSH0 SWAP1 SLOAD SWAP1 PUSH2 0x100 EXP SWAP1 DIV PUSH1 0xFF AND DUP2 JUMP JUMPDEST PUSH1 0x1 SLOAD DUP2 JUMP JUMPDEST DUP1 PUSH0 SWAP1 DUP2 PUSH2 0x1C3 SWAP2 SWAP1 PUSH2 0x709 JUMP JUMPDEST POP POP JUMP JUMPDEST DUP1 PUSH1 0x1 DUP2 SWAP1 SSTORE POP POP JUMP JUMPDEST DUP1 PUSH1 0x2 PUSH0 PUSH2 0x100 EXP DUP2 SLOAD DUP2 PUSH1 0xFF MUL NOT AND SWAP1 DUP4 ISZERO ISZERO MUL OR SWAP1 SSTORE POP POP JUMP JUMPDEST PUSH0 DUP2 MLOAD SWAP1 POP SWAP2 SWAP1 POP JUMP JUMPDEST PUSH0 DUP3 DUP3 MSTORE PUSH1 0x20 DUP3 ADD SWAP1 POP SWAP3 SWAP2 POP POP JUMP JUMPDEST DUP3 DUP2 DUP4 MCOPY PUSH0 DUP4 DUP4 ADD MSTORE POP POP POP JUMP JUMPDEST PUSH0 PUSH1 0x1F NOT PUSH1 0x1F DUP4 ADD AND SWAP1 POP SWAP2 SWAP1 POP JUMP JUMPDEST PUSH0 PUSH2 0x22F DUP3 PUSH2 0x1ED JUMP JUMPDEST PUSH2 0x239 DUP2 DUP6 PUSH2 0x1F7 JUMP JUMPDEST SWAP4 POP PUSH2 0x249 DUP2 DUP6 PUSH1 0x20 DUP7 ADD PUSH2 0x207 JUMP JUMPDEST PUSH2 0x252 DUP2 PUSH2 0x215 JUMP JUMPDEST DUP5 ADD SWAP2 POP POP SWAP3 SWAP2 POP POP JUMP JUMPDEST PUSH0 PUSH1 0x20 DUP3 ADD SWAP1 POP DUP2 DUP2 SUB PUSH0 DUP4 ADD MSTORE PUSH2 0x275 DUP2 DUP5 PUSH2 0x225 JUMP JUMPDEST SWAP1 POP SWAP3 SWAP2 POP POP JUMP JUMPDEST PUSH0 DUP2 ISZERO ISZERO SWAP1 POP SWAP2 SWAP1 POP JUMP JUMPDEST PUSH2 0x291 DUP2 PUSH2 0x27D JUMP JUMPDEST DUP3 MSTORE POP POP JUMP JUMPDEST PUSH0 PUSH1 0x20 DUP3 ADD SWAP1 POP PUSH2 0x2AA PUSH0 DUP4 ADD DUP5 PUSH2 0x288 JUMP JUMPDEST SWAP3 SWAP2 POP POP JUMP JUMPDEST PUSH0 DUP2 SWAP1 POP SWAP2 SWAP1 POP JUMP JUMPDEST PUSH2 0x2C2 DUP2 PUSH2 0x2B0 JUMP JUMPDEST DUP3 MSTORE POP POP JUMP JUMPDEST PUSH0 PUSH1 0x20 DUP3 ADD SWAP1 POP PUSH2 0x2DB PUSH0 DUP4 ADD DUP5 PUSH2 0x2B9 JUMP JUMPDEST SWAP3 SWAP2 POP POP JUMP JUMPDEST PUSH0 PUSH1 0x40 MLOAD SWAP1 POP SWAP1 JUMP JUMPDEST PUSH0 DUP1 REVERT JUMPDEST PUSH0 DUP1 REVERT JUMPDEST PUSH0 DUP1 REVERT JUMPDEST PUSH0 DUP1 REVERT JUMPDEST PUSH32 0x4E487B7100000000000000000000000000000000000000000000000000000000 PUSH0 MSTORE PUSH1 0x41 PUSH1 0x4 MSTORE PUSH1 0x24 PUSH0 REVERT JUMPDEST PUSH2 0x330 DUP3 PUSH2 0x215 JUMP JUMPDEST DUP2 ADD DUP2 DUP2 LT PUSH8 0xFFFFFFFFFFFFFFFF DUP3 GT OR ISZERO PUSH2 0x34F JUMPI PUSH2 0x34E PUSH2 0x2FA JUMP JUMPDEST JUMPDEST DUP1 PUSH1 0x40 MSTORE POP POP POP JUMP JUMPDEST PUSH0 PUSH2 0x361 PUSH2 0x2E1 JUMP JUMPDEST SWAP1 POP PUSH2 0x36D DUP3 DUP3 PUSH2 0x327 JUMP JUMPDEST SWAP2 SWAP1 POP JUMP JUMPDEST PUSH0 PUSH8 0xFFFFFFFFFFFFFFFF DUP3 GT ISZERO PUSH2 0x38C JUMPI PUSH2 0x38B PUSH2 0x2FA JUMP JUMPDEST JUMPDEST PUSH2 0x395 DUP3 PUSH2 0x215 JUMP JUMPDEST SWAP1 POP PUSH1 0x20 DUP2 ADD SWAP1 POP SWAP2 SWAP1 POP JUMP JUMPDEST DUP3 DUP2 DUP4 CALLDATACOPY PUSH0 DUP4 DUP4 ADD MSTORE POP POP POP JUMP JUMPDEST PUSH0 PUSH2 0x3C2 PUSH2 0x3BD DUP5 PUSH2 0x372 JUMP JUMPDEST PUSH2 0x358 JUMP JUMPDEST SWAP1 POP DUP3 DUP2 MSTORE PUSH1 0x20 DUP2 ADD DUP5 DUP5 DUP5 ADD GT ISZERO PUSH2 0x3DE JUMPI PUSH2 0x3DD PUSH2 0x2F6 JUMP JUMPDEST JUMPDEST PUSH2 0x3E9 DUP5 DUP3 DUP6 PUSH2 0x3A2 JUMP JUMPDEST POP SWAP4 SWAP3 POP POP POP JUMP JUMPDEST PUSH0 DUP3 PUSH1 0x1F DUP4 ADD SLT PUSH2 0x405 JUMPI PUSH2 0x404 PUSH2 0x2F2 JUMP JUMPDEST JUMPDEST DUP2 CALLDATALOAD PUSH2 0x415 DUP5 DUP3 PUSH1 0x20 DUP7 ADD PUSH2 0x3B0 JUMP JUMPDEST SWAP2 POP POP SWAP3 SWAP2 POP POP JUMP JUMPDEST PUSH0 PUSH1 0x20 DUP3 DUP5 SUB SLT ISZERO PUSH2 0x433 JUMPI PUSH2 0x432 PUSH2 0x2EA JUMP JUMPDEST JUMPDEST PUSH0 DUP3 ADD CALLDATALOAD PUSH8 0xFFFFFFFFFFFFFFFF DUP2 GT ISZERO PUSH2 0x450 JUMPI PUSH2 0x44F PUSH2 0x2EE JUMP JUMPDEST JUMPDEST PUSH2 0x45C DUP5 DUP3 DUP6 ADD PUSH2 0x3F1 JUMP JUMPDEST SWAP2 POP POP SWAP3 SWAP2 POP POP JUMP JUMPDEST PUSH2 0x46E DUP2 PUSH2 0x2B0 JUMP JUMPDEST DUP2 EQ PUSH2 0x478 JUMPI PUSH0 DUP1 REVERT JUMPDEST POP JUMP JUMPDEST PUSH0 DUP2 CALLDATALOAD SWAP1 POP PUSH2 0x489 DUP2 PUSH2 0x465 JUMP JUMPDEST SWAP3 SWAP2 POP POP JUMP JUMPDEST PUSH0 PUSH1 0x20 DUP3 DUP5 SUB SLT ISZERO PUSH2 0x4A4 JUMPI PUSH2 0x4A3 PUSH2 0x2EA JUMP JUMPDEST JUMPDEST PUSH0 PUSH2 0x4B1 DUP5 DUP3 DUP6 ADD PUSH2 0x47B JUMP JUMPDEST SWAP2 POP POP SWAP3 SWAP2 POP POP JUMP JUMPDEST PUSH2 0x4C3 DUP2 PUSH2 0x27D JUMP JUMPDEST DUP2 EQ PUSH2 0x4CD JUMPI PUSH0 DUP1 REVERT JUMPDEST POP JUMP JUMPDEST PUSH0 DUP2 CALLDATALOAD SWAP1 POP PUSH2 0x4DE DUP2 PUSH2 0x4BA JUMP JUMPDEST SWAP3 SWAP2 POP POP JUMP JUMPDEST PUSH0 PUSH1 0x20 DUP3 DUP5 SUB SLT ISZERO PUSH2 0x4F9 JUMPI PUSH2 0x4F8 PUSH2 0x2EA JUMP JUMPDEST JUMPDEST PUSH0 PUSH2 0x506 DUP5 DUP3 DUP6 ADD PUSH2 0x4D0 JUMP JUMPDEST SWAP2 POP POP SWAP3 SWAP2 POP POP JUMP JUMPDEST PUSH32 0x4E487B7100000000000000000000000000000000000000000000000000000000 PUSH0 MSTORE PUSH1 0x22 PUSH1 0x4 MSTORE PUSH1 0x24 PUSH0 REVERT JUMPDEST PUSH0 PUSH1 0x2 DUP3 DIV SWAP1 POP PUSH1 0x1 DUP3 AND DUP1 PUSH2 0x553 JUMPI PUSH1 0x7F DUP3 AND SWAP2 POP JUMPDEST PUSH1 0x20 DUP3 LT DUP2 SUB PUSH2 0x566 JUMPI PUSH2 0x565 PUSH2 0x50F JUMP JUMPDEST JUMPDEST POP SWAP2 SWAP1 POP JUMP JUMPDEST PUSH0 DUP2 SWAP1 POP DUP2 PUSH0 MSTORE PUSH1 0x20 PUSH0 KECCAK256 SWAP1 POP SWAP2 SWAP1 POP JUMP JUMPDEST PUSH0 PUSH1 0x20 PUSH1 0x1F DUP4 ADD DIV SWAP1 POP SWAP2 SWAP1 POP JUMP JUMPDEST PUSH0 DUP3 DUP3 SHL SWAP1 POP SWAP3 SWAP2 POP POP JUMP JUMPDEST PUSH0 PUSH1 0x8 DUP4 MUL PUSH2 0x5C8 PUSH32 0xFFFFFFFFFFFFFFFFFFFFFFFFFFFFFFFFFFFFFFFFFFFFFFFFFFFFFFFFFFFFFFFF DUP3 PUSH2 0x58D JUMP JUMPDEST PUSH2 0x5D2 DUP7 DUP4 PUSH2 0x58D JUMP JUMPDEST SWAP6 POP DUP1 NOT DUP5 AND SWAP4 POP DUP1 DUP7 AND DUP5 OR SWAP3 POP POP POP SWAP4 SWAP3 POP POP POP JUMP JUMPDEST PUSH0 DUP2 SWAP1 POP SWAP2 SWAP1 POP JUMP JUMPDEST PUSH0 PUSH2 0x60D PUSH2 0x608 PUSH2 0x603 DUP5 PUSH2 0x2B0 JUMP JUMPDEST PUSH2 0x5EA JUMP JUMPDEST PUSH2 0x2B0 JUMP JUMPDEST SWAP1 POP SWAP2 SWAP1 POP JUMP JUMPDEST PUSH0 DUP2 SWAP1 POP SWAP2 SWAP1 POP JUMP JUMPDEST PUSH2 0x626 DUP4 PUSH2 0x5F3 JUMP JUMPDEST PUSH2 0x63A PUSH2 0x632 DUP3 PUSH2 0x614 JUMP JUMPDEST DUP5 DUP5 SLOAD PUSH2 0x599 JUMP JUMPDEST DUP3 SSTORE POP POP POP POP JUMP JUMPDEST PUSH0 SWAP1 JUMP JUMPDEST PUSH2 0x64E PUSH2 0x642 JUMP JUMPDEST PUSH2 0x659 DUP2 DUP5 DUP5 PUSH2 0x61D JUMP JUMPDEST POP POP POP JUMP JUMPDEST JUMPDEST DUP2 DUP2 LT ISZERO PUSH2 0x67C JUMPI PUSH2 0x671 PUSH0 DUP3 PUSH2 0x646 JUMP JUMPDEST PUSH1 0x1 DUP2 ADD SWAP1 POP PUSH2 0x65F JUMP JUMPDEST POP POP JUMP JUMPDEST PUSH1 0x1F DUP3 GT ISZERO PUSH2 0x6C1 JUMPI PUSH2 0x692 DUP2 PUSH2 0x56C JUMP JUMPDEST PUSH2 0x69B DUP5 PUSH2 0x57E JUMP JUMPDEST DUP2 ADD PUSH1 0x20 DUP6 LT ISZERO PUSH2 0x6AA JUMPI DUP2 SWAP1 POP JUMPDEST PUSH2 0x6BE PUSH2 0x6B6 DUP6 PUSH2 0x57E JUMP JUMPDEST DUP4 ADD DUP3 PUSH2 0x65E JUMP JUMPDEST POP POP JUMPDEST POP POP POP JUMP JUMPDEST PUSH0 DUP3 DUP3 SHR SWAP1 POP SWAP3 SWAP2 POP POP JUMP JUMPDEST PUSH0 PUSH2 0x6E1 PUSH0 NOT DUP5 PUSH1 0x8 MUL PUSH2 0x6C6 JUMP JUMPDEST NOT DUP1 DUP4 AND SWAP2 POP POP SWAP3 SWAP2 POP POP JUMP JUMPDEST PUSH0 PUSH2 0x6F9 DUP4 DUP4 PUSH2 0x6D2 JUMP JUMPDEST SWAP2 POP DUP3 PUSH1 0x2 MUL DUP3 OR SWAP1 POP SWAP3 SWAP2 POP POP JUMP JUMPDEST PUSH2 0x712 DUP3 PUSH2 0x1ED JUMP JUMPDEST PUSH8 0xFFFFFFFFFFFFFFFF DUP2 GT ISZERO PUSH2 0x72B JUMPI PUSH2 0x72A PUSH2 0x2FA JUMP JUMPDEST JUMPDEST PUSH2 0x735 DUP3 SLOAD PUSH2 0x53C JUMP JUMPDEST PUSH2 0x740 DUP3 DUP3 DUP6 PUSH2 0x680 JUMP JUMPDEST PUSH0 PUSH1 0x20 SWAP1 POP PUSH1 0x1F DUP4 GT PUSH1 0x1 DUP2 EQ PUSH2 0x771 JUMPI PUSH0 DUP5 ISZERO PUSH2 0x75F JUMPI DUP3 DUP8 ADD MLOAD SWAP1 POP JUMPDEST PUSH2 0x769 DUP6 DUP3 PUSH2 0x6EE JUMP JUMPDEST DUP7 SSTORE POP PUSH2 0x7D0 JUMP JUMPDEST PUSH1 0x1F NOT DUP5 AND PUSH2 0x77F DUP7 PUSH2 0x56C JUMP JUMPDEST PUSH0 JUMPDEST DUP3 DUP2 LT ISZERO PUSH2 0x7A6 JUMPI DUP5 DUP10 ADD MLOAD DUP3 SSTORE PUSH1 0x1 DUP3 ADD SWAP2 POP PUSH1 0x20 DUP6 ADD SWAP5 POP PUSH1 0x20 DUP2 ADD SWAP1 POP PUSH2 0x781 JUMP JUMPDEST DUP7 DUP4 LT ISZERO PUSH2 0x7C3 JUMPI DUP5 DUP10 ADD MLOAD PUSH2 0x7BF PUSH1 0x1F DUP10 AND DUP3 PUSH2 0x6D2 JUMP JUMPDEST DUP4 SSTORE POP JUMPDEST PUSH1 0x1 PUSH1 0x2 DUP9 MUL ADD DUP9 SSTORE POP POP POP JUMPDEST POP POP POP POP POP POP JUMP INVALID LOG2 PUSH5 0x6970667358 0x22 SLT KECCAK256 CALLDATALOAD DUP4 0xC2 0x1E 0xDB GAS BASEFEE PUSH3 0x3A18C3 PUSH7 0x27E39CEA36CFE7 0xEA DUP7 0xCB CALLER 0xDC SUB 0xB0 LOG4 JUMPDEST 0xFC 0xD4 0xCE 0xBB PUSH5 0x736F6C6343 STOP ADDMOD NOT STOP CALLER "
		},
		"gasEstimates": {
			"creation": {
				"codeDepositCost": "412400",
				"executionCost": "447",
				"totalCost": "412847"
			},
			"external": {
				"age()": "2447",
				"isActive()": "2466",
				"name()": "infinite",
				"setage(uint256)": "22581",
				"setname(string)": "infinite",
				"setstatus(bool)": "24761"
			}
		},
		"methodIdentifiers": {
			"age()": "262a9dff",
			"isActive()": "22f3e2d4",
			"name()": "06fdde03",
			"setage(uint256)": "6e424d5a",
			"setname(string)": "2cefeb07",
			"setstatus(bool)": "dd685918"
		}
	},
	"abi": [
		{
			"inputs": [],
			"name": "age",
			"outputs": [
				{
					"internalType": "uint256",
					"name": "",
					"type": "uint256"
				}
			],
			"stateMutability": "view",
			"type": "function"
		},
		{
			"inputs": [],
			"name": "isActive",
			"outputs": [
				{
					"internalType": "bool",
					"name": "",
					"type": "bool"
				}
			],
			"stateMutability": "view",
			"type": "function"
		},
		{
			"inputs": [],
			"name": "name",
			"outputs": [
				{
					"internalType": "string",
					"name": "",
					"type": "string"
				}
			],
			"stateMutability": "view",
			"type": "function"
		},
		{
			"inputs": [
				{
					"internalType": "uint256",
					"name": "_age",
					"type": "uint256"
				}
			],
			"name": "setage",
			"outputs": [],
			"stateMutability": "nonpayable",
			"type": "function"
		},
		{
			"inputs": [
				{
					"internalType": "string",
					"name": "_name",
					"type": "string"
				}
			],
			"name": "setname",
			"outputs": [],
			"stateMutability": "nonpayable",
			"type": "function"
		},
		{
			"inputs": [
				{
					"internalType": "bool",
					"name": "_status",
					"type": "bool"
				}
			],
			"name": "setstatus",
			"outputs": [],
			"stateMutability": "nonpayable",
			"type": "function"
		}
	]
}