{
	"data": {
		"bytecode": {
			"linkReferences": {},
			"object": "608060405234801561000f575f80fd5b506104558061001d5f395ff3fe608060405234801561000f575f80fd5b506004361061003f575f3560e01c80633eed4aa0146100435780639f0cf99314610073578063e02954f21461008f575b5f80fd5b61005d60048036038101906100589190610191565b6100ab565b60405161006a91906101cb565b60405180910390f35b61008d60048036038101906100889190610245565b6100ca565b005b6100a960048036038101906100a491906103d8565b6100df565b005b5f81815481106100b9575f80fd5b905f5260205f20015f915090505481565b81815f91906100da9291906100e7565b505050565b5f8190505050565b828054828255905f5260205f20908101928215610121579160200282015b82811115610120578235825591602001919060010190610105565b5b50905061012e9190610132565b5090565b5b80821115610149575f815f905550600101610133565b5090565b5f604051905090565b5f80fd5b5f80fd5b5f819050919050565b6101708161015e565b811461017a575f80fd5b50565b5f8135905061018b81610167565b92915050565b5f602082840312156101a6576101a5610156565b5b5f6101b38482850161017d565b91505092915050565b6101c58161015e565b82525050565b5f6020820190506101de5f8301846101bc565b92915050565b5f80fd5b5f80fd5b5f80fd5b5f8083601f840112610205576102046101e4565b5b8235905067ffffffffffffffff811115610222576102216101e8565b5b60208301915083602082028301111561023e5761023d6101ec565b5b9250929050565b5f806020838503121561025b5761025a610156565b5b5f83013567ffffffffffffffff8111156102785761027761015a565b5b610284858286016101f0565b92509250509250929050565b5f601f19601f8301169050919050565b7f4e487b71000000000000000000000000000000000000000000000000000000005f52604160045260245ffd5b6102d682610290565b810181811067ffffffffffffffff821117156102f5576102f46102a0565b5b80604052505050565b5f61030761014d565b905061031382826102cd565b919050565b5f67ffffffffffffffff821115610332576103316102a0565b5b602082029050602081019050919050565b5f61035561035084610318565b6102fe565b90508083825260208201905060208402830185811115610378576103776101ec565b5b835b818110156103a1578061038d888261017d565b84526020840193505060208101905061037a565b5050509392505050565b5f82601f8301126103bf576103be6101e4565b5b81356103cf848260208601610343565b91505092915050565b5f602082840312156103ed576103ec610156565b5b5f82013567ffffffffffffffff81111561040a5761040961015a565b5b610416848285016103ab565b9150509291505056fea26469706673582212201d0275cd5db26752a442f388c64ba0e001c143e0464652cfc98f4b8152cd914664736f6c63430008180033",
			"opcodes": "PUSH1 0x80 PUSH1 0x40 MSTORE CALLVALUE DUP1 ISZERO PUSH2 0xF JUMPI PUSH0 DUP1 REVERT JUMPDEST POP PUSH2 0x455 DUP1 PUSH2 0x1D PUSH0 CODECOPY PUSH0 RETURN INVALID PUSH1 0x80 PUSH1 0x40 MSTORE CALLVALUE DUP1 ISZERO PUSH2 0xF JUMPI PUSH0 DUP1 REVERT JUMPDEST POP PUSH1 0x4 CALLDATASIZE LT PUSH2 0x3F JUMPI PUSH0 CALLDATALOAD PUSH1 0xE0 SHR DUP1 PUSH4 0x3EED4AA0 EQ PUSH2 0x43 JUMPI DUP1 PUSH4 0x9F0CF993 EQ PUSH2 0x73 JUMPI DUP1 PUSH4 0xE02954F2 EQ PUSH2 0x8F JUMPI JUMPDEST PUSH0 DUP1 REVERT JUMPDEST PUSH2 0x5D PUSH1 0x4 DUP1 CALLDATASIZE SUB DUP2 ADD SWAP1 PUSH2 0x58 SWAP2 SWAP1 PUSH2 0x191 JUMP JUMPDEST PUSH2 0xAB JUMP JUMPDEST PUSH1 0x40 MLOAD PUSH2 0x6A SWAP2 SWAP1 PUSH2 0x1CB JUMP JUMPDEST PUSH1 0x40 MLOAD DUP1 SWAP2 SUB SWAP1 RETURN JUMPDEST PUSH2 0x8D PUSH1 0x4 DUP1 CALLDATASIZE SUB DUP2 ADD SWAP1 PUSH2 0x88 SWAP2 SWAP1 PUSH2 0x245 JUMP JUMPDEST PUSH2 0xCA JUMP JUMPDEST STOP JUMPDEST PUSH2 0xA9 PUSH1 0x4 DUP1 CALLDATASIZE SUB DUP2 ADD SWAP1 PUSH2 0xA4 SWAP2 SWAP1 PUSH2 0x3D8 JUMP JUMPDEST PUSH2 0xDF JUMP JUMPDEST STOP JUMPDEST PUSH0 DUP2 DUP2 SLOAD DUP2 LT PUSH2 0xB9 JUMPI PUSH0 DUP1 REVERT JUMPDEST SWAP1 PUSH0 MSTORE PUSH1 0x20 PUSH0 KECCAK256 ADD PUSH0 SWAP2 POP SWAP1 POP SLOAD DUP2 JUMP JUMPDEST DUP2 DUP2 PUSH0 SWAP2 SWAP1 PUSH2 0xDA SWAP3 SWAP2 SWAP1 PUSH2 0xE7 JUMP JUMPDEST POP POP POP JUMP JUMPDEST PUSH0 DUP2 SWAP1 POP POP POP JUMP JUMPDEST DUP3 DUP1 SLOAD DUP3 DUP3 SSTORE SWAP1 PUSH0 MSTORE PUSH1 0x20 PUSH0 KECCAK256 SWAP1 DUP2 ADD SWAP3 DUP3 ISZERO PUSH2 0x121 JUMPI SWAP2 PUSH1 0x20 MUL DUP3 ADD JUMPDEST DUP3 DUP2 GT ISZERO PUSH2 0x120 JUMPI DUP3 CALLDATALOAD DUP3 SSTORE SWAP2 PUSH1 0x20 ADD SWAP2 SWAP1 PUSH1 0x1 ADD SWAP1 PUSH2 0x105 JUMP JUMPDEST JUMPDEST POP SWAP1 POP PUSH2 0x12E SWAP2 SWAP1 PUSH2 0x132 JUMP JUMPDEST POP SWAP1 JUMP JUMPDEST JUMPDEST DUP1 DUP3 GT ISZERO PUSH2 0x149 JUMPI PUSH0 DUP2 PUSH0 SWAP1 SSTORE POP PUSH1 0x1 ADD PUSH2 0x133 JUMP JUMPDEST POP SWAP1 JUMP JUMPDEST PUSH0 PUSH1 0x40 MLOAD SWAP1 POP SWAP1 JUMP JUMPDEST PUSH0 DUP1 REVERT JUMPDEST PUSH0 DUP1 REVERT JUMPDEST PUSH0 DUP2 SWAP1 POP SWAP2 SWAP1 POP JUMP JUMPDEST PUSH2 0x170 DUP2 PUSH2 0x15E JUMP JUMPDEST DUP2 EQ PUSH2 0x17A JUMPI PUSH0 DUP1 REVERT JUMPDEST POP JUMP JUMPDEST PUSH0 DUP2 CALLDATALOAD SWAP1 POP PUSH2 0x18B DUP2 PUSH2 0x167 JUMP JUMPDEST SWAP3 SWAP2 POP POP JUMP JUMPDEST PUSH0 PUSH1 0x20 DUP3 DUP5 SUB SLT ISZERO PUSH2 0x1A6 JUMPI PUSH2 0x1A5 PUSH2 0x156 JUMP JUMPDEST JUMPDEST PUSH0 PUSH2 0x1B3 DUP5 DUP3 DUP6 ADD PUSH2 0x17D JUMP JUMPDEST SWAP2 POP POP SWAP3 SWAP2 POP POP JUMP JUMPDEST PUSH2 0x1C5 DUP2 PUSH2 0x15E JUMP JUMPDEST DUP3 MSTORE POP POP JUMP JUMPDEST PUSH0 PUSH1 0x20 DUP3 ADD SWAP1 POP PUSH2 0x1DE PUSH0 DUP4 ADD DUP5 PUSH2 0x1BC JUMP JUMPDEST SWAP3 SWAP2 POP POP JUMP JUMPDEST PUSH0 DUP1 REVERT JUMPDEST PUSH0 DUP1 REVERT JUMPDEST PUSH0 DUP1 REVERT JUMPDEST PUSH0 DUP1 DUP4 PUSH1 0x1F DUP5 ADD SLT PUSH2 0x205 JUMPI PUSH2 0x204 PUSH2 0x1E4 JUMP JUMPDEST JUMPDEST DUP3 CALLDATALOAD SWAP1 POP PUSH8 0xFFFFFFFFFFFFFFFF DUP2 GT ISZERO PUSH2 0x222 JUMPI PUSH2 0x221 PUSH2 0x1E8 JUMP JUMPDEST JUMPDEST PUSH1 0x20 DUP4 ADD SWAP2 POP DUP4 PUSH1 0x20 DUP3 MUL DUP4 ADD GT ISZERO PUSH2 0x23E JUMPI PUSH2 0x23D PUSH2 0x1EC JUMP JUMPDEST JUMPDEST SWAP3 POP SWAP3 SWAP1 POP JUMP JUMPDEST PUSH0 DUP1 PUSH1 0x20 DUP4 DUP6 SUB SLT ISZERO PUSH2 0x25B JUMPI PUSH2 0x25A PUSH2 0x156 JUMP JUMPDEST JUMPDEST PUSH0 DUP4 ADD CALLDATALOAD PUSH8 0xFFFFFFFFFFFFFFFF DUP2 GT ISZERO PUSH2 0x278 JUMPI PUSH2 0x277 PUSH2 0x15A JUMP JUMPDEST JUMPDEST PUSH2 0x284 DUP6 DUP3 DUP7 ADD PUSH2 0x1F0 JUMP JUMPDEST SWAP3 POP SWAP3 POP POP SWAP3 POP SWAP3 SWAP1 POP JUMP JUMPDEST PUSH0 PUSH1 0x1F NOT PUSH1 0x1F DUP4 ADD AND SWAP1 POP SWAP2 SWAP1 POP JUMP JUMPDEST PUSH32 0x4E487B7100000000000000000000000000000000000000000000000000000000 PUSH0 MSTORE PUSH1 0x41 PUSH1 0x4 MSTORE PUSH1 0x24 PUSH0 REVERT JUMPDEST PUSH2 0x2D6 DUP3 PUSH2 0x290 JUMP JUMPDEST DUP2 ADD DUP2 DUP2 LT PUSH8 0xFFFFFFFFFFFFFFFF DUP3 GT OR ISZERO PUSH2 0x2F5 JUMPI PUSH2 0x2F4 PUSH2 0x2A0 JUMP JUMPDEST JUMPDEST DUP1 PUSH1 0x40 MSTORE POP POP POP JUMP JUMPDEST PUSH0 PUSH2 0x307 PUSH2 0x14D JUMP JUMPDEST SWAP1 POP PUSH2 0x313 DUP3 DUP3 PUSH2 0x2CD JUMP JUMPDEST SWAP2 SWAP1 POP JUMP JUMPDEST PUSH0 PUSH8 0xFFFFFFFFFFFFFFFF DUP3 GT ISZERO PUSH2 0x332 JUMPI PUSH2 0x331 PUSH2 0x2A0 JUMP JUMPDEST JUMPDEST PUSH1 0x20 DUP3 MUL SWAP1 POP PUSH1 0x20 DUP2 ADD SWAP1 POP SWAP2 SWAP1 POP JUMP JUMPDEST PUSH0 PUSH2 0x355 PUSH2 0x350 DUP5 PUSH2 0x318 JUMP JUMPDEST PUSH2 0x2FE JUMP JUMPDEST SWAP1 POP DUP1 DUP4 DUP3 MSTORE PUSH1 0x20 DUP3 ADD SWAP1 POP PUSH1 0x20 DUP5 MUL DUP4 ADD DUP6 DUP2 GT ISZERO PUSH2 0x378 JUMPI PUSH2 0x377 PUSH2 0x1EC JUMP JUMPDEST JUMPDEST DUP4 JUMPDEST DUP2 DUP2 LT ISZERO PUSH2 0x3A1 JUMPI DUP1 PUSH2 0x38D DUP9 DUP3 PUSH2 0x17D JUMP JUMPDEST DUP5 MSTORE PUSH1 0x20 DUP5 ADD SWAP4 POP POP PUSH1 0x20 DUP2 ADD SWAP1 POP PUSH2 0x37A JUMP JUMPDEST POP POP POP SWAP4 SWAP3 POP POP POP JUMP JUMPDEST PUSH0 DUP3 PUSH1 0x1F DUP4 ADD SLT PUSH2 0x3BF JUMPI PUSH2 0x3BE PUSH2 0x1E4 JUMP JUMPDEST JUMPDEST DUP2 CALLDATALOAD PUSH2 0x3CF DUP5 DUP3 PUSH1 0x20 DUP7 ADD PUSH2 0x343 JUMP JUMPDEST SWAP2 POP POP SWAP3 SWAP2 POP POP JUMP JUMPDEST PUSH0 PUSH1 0x20 DUP3 DUP5 SUB SLT ISZERO PUSH2 0x3ED JUMPI PUSH2 0x3EC PUSH2 0x156 JUMP JUMPDEST JUMPDEST PUSH0 DUP3 ADD CALLDATALOAD PUSH8 0xFFFFFFFFFFFFFFFF DUP2 GT ISZERO PUSH2 0x40A JUMPI PUSH2 0x409 PUSH2 0x15A JUMP JUMPDEST JUMPDEST PUSH2 0x416 DUP5 DUP3 DUP6 ADD PUSH2 0x3AB JUMP JUMPDEST SWAP2 POP POP SWAP3 SWAP2 POP POP JUMP INVALID LOG2 PUSH5 0x6970667358 0x22 SLT KECCAK256 SAR MUL PUSH22 0xCD5DB26752A442F388C64BA0E001C143E0464652CFC9 DUP16 0x4B DUP2 MSTORE 0xCD SWAP2 CHAINID PUSH5 0x736F6C6343 STOP ADDMOD XOR STOP CALLER "
		},
		"gasEstimates": {
			"creation": {
				"codeDepositCost": "221800",
				"executionCost": "261",
				"totalCost": "222061"
			},
			"external": {
				"dataStoredInStorage(uint256)": "infinite",
				"storeDataInMemory(uint256[])": "infinite",
				"storeDataInStorage(uint256[])": "infinite"
			}
		},
		"methodIdentifiers": {
			"dataStoredInStorage(uint256)": "3eed4aa0",
			"storeDataInMemory(uint256[])": "e02954f2",
			"storeDataInStorage(uint256[])": "9f0cf993"
		}
	},
	"abi": [
		{
			"inputs": [
				{
					"internalType": "uint256",
					"name": "",
					"type": "uint256"
				}
			],
			"name": "dataStoredInStorage",
			"outputs": [
				{
					"internalType": "uint256",
					"name": "",
					"type": "uint256"
				}
			],
			"stateMutability": "view",
			"type": "function"
		},
		{
			"inputs": [
				{
					"internalType": "uint256[]",
					"name": "_data",
					"type": "uint256[]"
				}
			],
			"name": "storeDataInMemory",
			"outputs": [],
			"stateMutability": "pure",
			"type": "function"
		},
		{
			"inputs": [
				{
					"internalType": "uint256[]",
					"name": "_data",
					"type": "uint256[]"
				}
			],
			"name": "storeDataInStorage",
			"outputs": [],
			"stateMutability": "nonpayable",
			"type": "function"
		}
	]
}