{
	"contracts/ClassWork/classwork8.sol": {
		"UpdatePrice": {
			"abi": [
				{
					"inputs": [
						{
							"internalType": "uint256",
							"name": "productId",
							"type": "uint256"
						},
						{
							"internalType": "string",
							"name": "productName",
							"type": "string"
						},
						{
							"internalType": "uint256",
							"name": "price",
							"type": "uint256"
						}
					],
					"name": "addproductdetails",
					"outputs": [],
					"stateMutability": "nonpayable",
					"type": "function"
				},
				{
					"inputs": [
						{
							"internalType": "uint256",
							"name": "",
							"type": "uint256"
						}
					],
					"name": "products",
					"outputs": [
						{
							"internalType": "string",
							"name": "productName",
							"type": "string"
						},
						{
							"internalType": "uint256",
							"name": "price",
							"type": "uint256"
						}
					],
					"stateMutability": "view",
					"type": "function"
				},
				{
					"inputs": [
						{
							"internalType": "uint256",
							"name": "Pid",
							"type": "uint256"
						},
						{
							"internalType": "uint256",
							"name": "newPrice",
							"type": "uint256"
						}
					],
					"name": "updateProductPrice",
					"outputs": [],
					"stateMutability": "nonpayable",
					"type": "function"
				}
			],
			"devdoc": {
				"kind": "dev",
				"methods": {},
				"version": 1
			},
			"evm": {
				"assembly": "    /* \"contracts/ClassWork/classwork8.sol\":244:742  contract UpdatePrice{... */\n  mstore(0x40, 0x80)\n  callvalue\n  dup1\n  iszero\n  tag_1\n  jumpi\n  0x00\n  dup1\n  revert\ntag_1:\n  pop\n  dataSize(sub_0)\n  dup1\n  dataOffset(sub_0)\n  0x00\n  codecopy\n  0x00\n  return\nstop\n\nsub_0: assembly {\n        /* \"contracts/ClassWork/classwork8.sol\":244:742  contract UpdatePrice{... */\n      mstore(0x40, 0x80)\n      callvalue\n      dup1\n      iszero\n      tag_1\n      jumpi\n      0x00\n      dup1\n      revert\n    tag_1:\n      pop\n      jumpi(tag_2, lt(calldatasize, 0x04))\n      shr(0xe0, calldataload(0x00))\n      dup1\n      0x7acc0b20\n      eq\n      tag_3\n      jumpi\n      dup1\n      0x8986cfc9\n      eq\n      tag_4\n      jumpi\n      dup1\n      0x9c3bddb2\n      eq\n      tag_5\n      jumpi\n    tag_2:\n      0x00\n      dup1\n      revert\n        /* \"contracts/ClassWork/classwork8.sol\":361:403  mapping (uint => product ) public products */\n    tag_3:\n      tag_6\n      0x04\n      dup1\n      calldatasize\n      sub\n      dup2\n      add\n      swap1\n      tag_7\n      swap2\n      swap1\n      tag_8\n      jump\t// in\n    tag_7:\n      tag_9\n      jump\t// in\n    tag_6:\n      mload(0x40)\n      tag_10\n      swap3\n      swap2\n      swap1\n      tag_11\n      jump\t// in\n    tag_10:\n      mload(0x40)\n      dup1\n      swap2\n      sub\n      swap1\n      return\n        /* \"contracts/ClassWork/classwork8.sol\":412:621  function addproductdetails(uint productId, string memory productName,uint price)public {... */\n    tag_4:\n      tag_12\n      0x04\n      dup1\n      calldatasize\n      sub\n      dup2\n      add\n      swap1\n      tag_13\n      swap2\n      swap1\n      tag_14\n      jump\t// in\n    tag_13:\n      tag_15\n      jump\t// in\n    tag_12:\n      stop\n        /* \"contracts/ClassWork/classwork8.sol\":629:739  function updateProductPrice(uint Pid,uint newPrice) public {... */\n    tag_5:\n      tag_16\n      0x04\n      dup1\n      calldatasize\n      sub\n      dup2\n      add\n      swap1\n      tag_17\n      swap2\n      swap1\n      tag_18\n      jump\t// in\n    tag_17:\n      tag_19\n      jump\t// in\n    tag_16:\n      stop\n        /* \"contracts/ClassWork/classwork8.sol\":361:403  mapping (uint => product ) public products */\n    tag_9:\n      mstore(0x20, 0x00)\n      dup1\n      0x00\n      mstore\n      keccak256(0x00, 0x40)\n      0x00\n      swap2\n      pop\n      swap1\n      pop\n      dup1\n      0x00\n      add\n      dup1\n      sload\n      tag_20\n      swap1\n      tag_21\n      jump\t// in\n    tag_20:\n      dup1\n      0x1f\n      add\n      0x20\n      dup1\n      swap2\n      div\n      mul\n      0x20\n      add\n      mload(0x40)\n      swap1\n      dup2\n      add\n      0x40\n      mstore\n      dup1\n      swap3\n      swap2\n      swap1\n      dup2\n      dup2\n      mstore\n      0x20\n      add\n      dup3\n      dup1\n      sload\n      tag_22\n      swap1\n      tag_21\n      jump\t// in\n    tag_22:\n      dup1\n      iszero\n      tag_23\n      jumpi\n      dup1\n      0x1f\n      lt\n      tag_24\n      jumpi\n      0x0100\n      dup1\n      dup4\n      sload\n      div\n      mul\n      dup4\n      mstore\n      swap2\n      0x20\n      add\n      swap2\n      jump(tag_23)\n    tag_24:\n      dup3\n      add\n      swap2\n      swap1\n      0x00\n      mstore\n      keccak256(0x00, 0x20)\n      swap1\n    tag_25:\n      dup2\n      sload\n      dup2\n      mstore\n      swap1\n      0x01\n      add\n      swap1\n      0x20\n      add\n      dup1\n      dup4\n      gt\n      tag_25\n      jumpi\n      dup3\n      swap1\n      sub\n      0x1f\n      and\n      dup3\n      add\n      swap2\n    tag_23:\n      pop\n      pop\n      pop\n      pop\n      pop\n      swap1\n      dup1\n      0x01\n      add\n      sload\n      swap1\n      pop\n      dup3\n      jump\t// out\n        /* \"contracts/ClassWork/classwork8.sol\":412:621  function addproductdetails(uint productId, string memory productName,uint price)public {... */\n    tag_15:\n        /* \"contracts/ClassWork/classwork8.sol\":514:539  product memory newProduct */\n      0x00\n        /* \"contracts/ClassWork/classwork8.sol\":542:568  product(productName,price) */\n      mload(0x40)\n      dup1\n      0x40\n      add\n      0x40\n      mstore\n      dup1\n        /* \"contracts/ClassWork/classwork8.sol\":550:561  productName */\n      dup5\n        /* \"contracts/ClassWork/classwork8.sol\":542:568  product(productName,price) */\n      dup2\n      mstore\n      0x20\n      add\n        /* \"contracts/ClassWork/classwork8.sol\":562:567  price */\n      dup4\n        /* \"contracts/ClassWork/classwork8.sol\":542:568  product(productName,price) */\n      dup2\n      mstore\n      pop\n        /* \"contracts/ClassWork/classwork8.sol\":514:568  product memory newProduct = product(productName,price) */\n      swap1\n      pop\n        /* \"contracts/ClassWork/classwork8.sol\":603:613  newProduct */\n      dup1\n        /* \"contracts/ClassWork/classwork8.sol\":583:591  products */\n      0x00\n        /* \"contracts/ClassWork/classwork8.sol\":583:602  products[productId] */\n      dup1\n        /* \"contracts/ClassWork/classwork8.sol\":592:601  productId */\n      dup7\n        /* \"contracts/ClassWork/classwork8.sol\":583:602  products[productId] */\n      dup2\n      mstore\n      0x20\n      add\n      swap1\n      dup2\n      mstore\n      0x20\n      add\n      0x00\n      keccak256\n        /* \"contracts/ClassWork/classwork8.sol\":583:613  products[productId]=newProduct */\n      0x00\n      dup3\n      add\n      mload\n      dup2\n      0x00\n      add\n      swap1\n      dup2\n      tag_27\n      swap2\n      swap1\n      tag_28\n      jump\t// in\n    tag_27:\n      pop\n      0x20\n      dup3\n      add\n      mload\n      dup2\n      0x01\n      add\n      sstore\n      swap1\n      pop\n      pop\n        /* \"contracts/ClassWork/classwork8.sol\":499:621  {... */\n      pop\n        /* \"contracts/ClassWork/classwork8.sol\":412:621  function addproductdetails(uint productId, string memory productName,uint price)public {... */\n      pop\n      pop\n      pop\n      jump\t// out\n        /* \"contracts/ClassWork/classwork8.sol\":629:739  function updateProductPrice(uint Pid,uint newPrice) public {... */\n    tag_19:\n        /* \"contracts/ClassWork/classwork8.sol\":723:731  newPrice */\n      dup1\n        /* \"contracts/ClassWork/classwork8.sol\":703:711  products */\n      0x00\n        /* \"contracts/ClassWork/classwork8.sol\":703:716  products[Pid] */\n      dup1\n        /* \"contracts/ClassWork/classwork8.sol\":712:715  Pid */\n      dup5\n        /* \"contracts/ClassWork/classwork8.sol\":703:716  products[Pid] */\n      dup2\n      mstore\n      0x20\n      add\n      swap1\n      dup2\n      mstore\n      0x20\n      add\n      0x00\n      keccak256\n        /* \"contracts/ClassWork/classwork8.sol\":703:722  products[Pid].price */\n      0x01\n      add\n        /* \"contracts/ClassWork/classwork8.sol\":703:731  products[Pid].price=newPrice */\n      dup2\n      swap1\n      sstore\n      pop\n        /* \"contracts/ClassWork/classwork8.sol\":629:739  function updateProductPrice(uint Pid,uint newPrice) public {... */\n      pop\n      pop\n      jump\t// out\n        /* \"#utility.yul\":7:82   */\n    tag_30:\n        /* \"#utility.yul\":40:46   */\n      0x00\n        /* \"#utility.yul\":73:75   */\n      0x40\n        /* \"#utility.yul\":67:76   */\n      mload\n        /* \"#utility.yul\":57:76   */\n      swap1\n      pop\n        /* \"#utility.yul\":7:82   */\n      swap1\n      jump\t// out\n        /* \"#utility.yul\":88:205   */\n    tag_31:\n        /* \"#utility.yul\":197:198   */\n      0x00\n        /* \"#utility.yul\":194:195   */\n      dup1\n        /* \"#utility.yul\":187:199   */\n      revert\n        /* \"#utility.yul\":211:328   */\n    tag_32:\n        /* \"#utility.yul\":320:321   */\n      0x00\n        /* \"#utility.yul\":317:318   */\n      dup1\n        /* \"#utility.yul\":310:322   */\n      revert\n        /* \"#utility.yul\":334:411   */\n    tag_33:\n        /* \"#utility.yul\":371:378   */\n      0x00\n        /* \"#utility.yul\":400:405   */\n      dup2\n        /* \"#utility.yul\":389:405   */\n      swap1\n      pop\n        /* \"#utility.yul\":334:411   */\n      swap2\n      swap1\n      pop\n      jump\t// out\n        /* \"#utility.yul\":417:539   */\n    tag_34:\n        /* \"#utility.yul\":490:514   */\n      tag_73\n        /* \"#utility.yul\":508:513   */\n      dup2\n        /* \"#utility.yul\":490:514   */\n      tag_33\n      jump\t// in\n    tag_73:\n        /* \"#utility.yul\":483:488   */\n      dup2\n        /* \"#utility.yul\":480:515   */\n      eq\n        /* \"#utility.yul\":470:533   */\n      tag_74\n      jumpi\n        /* \"#utility.yul\":529:530   */\n      0x00\n        /* \"#utility.yul\":526:527   */\n      dup1\n        /* \"#utility.yul\":519:531   */\n      revert\n        /* \"#utility.yul\":470:533   */\n    tag_74:\n        /* \"#utility.yul\":417:539   */\n      pop\n      jump\t// out\n        /* \"#utility.yul\":545:684   */\n    tag_35:\n        /* \"#utility.yul\":591:596   */\n      0x00\n        /* \"#utility.yul\":629:635   */\n      dup2\n        /* \"#utility.yul\":616:636   */\n      calldataload\n        /* \"#utility.yul\":607:636   */\n      swap1\n      pop\n        /* \"#utility.yul\":645:678   */\n      tag_76\n        /* \"#utility.yul\":672:677   */\n      dup2\n        /* \"#utility.yul\":645:678   */\n      tag_34\n      jump\t// in\n    tag_76:\n        /* \"#utility.yul\":545:684   */\n      swap3\n      swap2\n      pop\n      pop\n      jump\t// out\n        /* \"#utility.yul\":690:1019   */\n    tag_8:\n        /* \"#utility.yul\":749:755   */\n      0x00\n        /* \"#utility.yul\":798:800   */\n      0x20\n        /* \"#utility.yul\":786:795   */\n      dup3\n        /* \"#utility.yul\":777:784   */\n      dup5\n        /* \"#utility.yul\":773:796   */\n      sub\n        /* \"#utility.yul\":769:801   */\n      slt\n        /* \"#utility.yul\":766:885   */\n      iszero\n      tag_78\n      jumpi\n        /* \"#utility.yul\":804:883   */\n      tag_79\n      tag_31\n      jump\t// in\n    tag_79:\n        /* \"#utility.yul\":766:885   */\n    tag_78:\n        /* \"#utility.yul\":924:925   */\n      0x00\n        /* \"#utility.yul\":949:1002   */\n      tag_80\n        /* \"#utility.yul\":994:1001   */\n      dup5\n        /* \"#utility.yul\":985:991   */\n      dup3\n        /* \"#utility.yul\":974:983   */\n      dup6\n        /* \"#utility.yul\":970:992   */\n      add\n        /* \"#utility.yul\":949:1002   */\n      tag_35\n      jump\t// in\n    tag_80:\n        /* \"#utility.yul\":939:1002   */\n      swap2\n      pop\n        /* \"#utility.yul\":895:1012   */\n      pop\n        /* \"#utility.yul\":690:1019   */\n      swap3\n      swap2\n      pop\n      pop\n      jump\t// out\n        /* \"#utility.yul\":1025:1124   */\n    tag_36:\n        /* \"#utility.yul\":1077:1083   */\n      0x00\n        /* \"#utility.yul\":1111:1116   */\n      dup2\n        /* \"#utility.yul\":1105:1117   */\n      mload\n        /* \"#utility.yul\":1095:1117   */\n      swap1\n      pop\n        /* \"#utility.yul\":1025:1124   */\n      swap2\n      swap1\n      pop\n      jump\t// out\n        /* \"#utility.yul\":1130:1299   */\n    tag_37:\n        /* \"#utility.yul\":1214:1225   */\n      0x00\n        /* \"#utility.yul\":1248:1254   */\n      dup3\n        /* \"#utility.yul\":1243:1246   */\n      dup3\n        /* \"#utility.yul\":1236:1255   */\n      mstore\n        /* \"#utility.yul\":1288:1292   */\n      0x20\n        /* \"#utility.yul\":1283:1286   */\n      dup3\n        /* \"#utility.yul\":1279:1293   */\n      add\n        /* \"#utility.yul\":1264:1293   */\n      swap1\n      pop\n        /* \"#utility.yul\":1130:1299   */\n      swap3\n      swap2\n      pop\n      pop\n      jump\t// out\n        /* \"#utility.yul\":1305:1551   */\n    tag_38:\n        /* \"#utility.yul\":1386:1387   */\n      0x00\n        /* \"#utility.yul\":1396:1509   */\n    tag_84:\n        /* \"#utility.yul\":1410:1416   */\n      dup4\n        /* \"#utility.yul\":1407:1408   */\n      dup2\n        /* \"#utility.yul\":1404:1417   */\n      lt\n        /* \"#utility.yul\":1396:1509   */\n      iszero\n      tag_86\n      jumpi\n        /* \"#utility.yul\":1495:1496   */\n      dup1\n        /* \"#utility.yul\":1490:1493   */\n      dup3\n        /* \"#utility.yul\":1486:1497   */\n      add\n        /* \"#utility.yul\":1480:1498   */\n      mload\n        /* \"#utility.yul\":1476:1477   */\n      dup2\n        /* \"#utility.yul\":1471:1474   */\n      dup5\n        /* \"#utility.yul\":1467:1478   */\n      add\n        /* \"#utility.yul\":1460:1499   */\n      mstore\n        /* \"#utility.yul\":1432:1434   */\n      0x20\n        /* \"#utility.yul\":1429:1430   */\n      dup2\n        /* \"#utility.yul\":1425:1435   */\n      add\n        /* \"#utility.yul\":1420:1435   */\n      swap1\n      pop\n        /* \"#utility.yul\":1396:1509   */\n      jump(tag_84)\n    tag_86:\n        /* \"#utility.yul\":1543:1544   */\n      0x00\n        /* \"#utility.yul\":1534:1540   */\n      dup5\n        /* \"#utility.yul\":1529:1532   */\n      dup5\n        /* \"#utility.yul\":1525:1541   */\n      add\n        /* \"#utility.yul\":1518:1545   */\n      mstore\n        /* \"#utility.yul\":1367:1551   */\n      pop\n        /* \"#utility.yul\":1305:1551   */\n      pop\n      pop\n      pop\n      jump\t// out\n        /* \"#utility.yul\":1557:1659   */\n    tag_39:\n        /* \"#utility.yul\":1598:1604   */\n      0x00\n        /* \"#utility.yul\":1649:1651   */\n      0x1f\n        /* \"#utility.yul\":1645:1652   */\n      not\n        /* \"#utility.yul\":1640:1642   */\n      0x1f\n        /* \"#utility.yul\":1633:1638   */\n      dup4\n        /* \"#utility.yul\":1629:1643   */\n      add\n        /* \"#utility.yul\":1625:1653   */\n      and\n        /* \"#utility.yul\":1615:1653   */\n      swap1\n      pop\n        /* \"#utility.yul\":1557:1659   */\n      swap2\n      swap1\n      pop\n      jump\t// out\n        /* \"#utility.yul\":1665:2042   */\n    tag_40:\n        /* \"#utility.yul\":1753:1756   */\n      0x00\n        /* \"#utility.yul\":1781:1820   */\n      tag_89\n        /* \"#utility.yul\":1814:1819   */\n      dup3\n        /* \"#utility.yul\":1781:1820   */\n      tag_36\n      jump\t// in\n    tag_89:\n        /* \"#utility.yul\":1836:1907   */\n      tag_90\n        /* \"#utility.yul\":1900:1906   */\n      dup2\n        /* \"#utility.yul\":1895:1898   */\n      dup6\n        /* \"#utility.yul\":1836:1907   */\n      tag_37\n      jump\t// in\n    tag_90:\n        /* \"#utility.yul\":1829:1907   */\n      swap4\n      pop\n        /* \"#utility.yul\":1916:1981   */\n      tag_91\n        /* \"#utility.yul\":1974:1980   */\n      dup2\n        /* \"#utility.yul\":1969:1972   */\n      dup6\n        /* \"#utility.yul\":1962:1966   */\n      0x20\n        /* \"#utility.yul\":1955:1960   */\n      dup7\n        /* \"#utility.yul\":1951:1967   */\n      add\n        /* \"#utility.yul\":1916:1981   */\n      tag_38\n      jump\t// in\n    tag_91:\n        /* \"#utility.yul\":2006:2035   */\n      tag_92\n        /* \"#utility.yul\":2028:2034   */\n      dup2\n        /* \"#utility.yul\":2006:2035   */\n      tag_39\n      jump\t// in\n    tag_92:\n        /* \"#utility.yul\":2001:2004   */\n      dup5\n        /* \"#utility.yul\":1997:2036   */\n      add\n        /* \"#utility.yul\":1990:2036   */\n      swap2\n      pop\n        /* \"#utility.yul\":1757:2042   */\n      pop\n        /* \"#utility.yul\":1665:2042   */\n      swap3\n      swap2\n      pop\n      pop\n      jump\t// out\n        /* \"#utility.yul\":2048:2166   */\n    tag_41:\n        /* \"#utility.yul\":2135:2159   */\n      tag_94\n        /* \"#utility.yul\":2153:2158   */\n      dup2\n        /* \"#utility.yul\":2135:2159   */\n      tag_33\n      jump\t// in\n    tag_94:\n        /* \"#utility.yul\":2130:2133   */\n      dup3\n        /* \"#utility.yul\":2123:2160   */\n      mstore\n        /* \"#utility.yul\":2048:2166   */\n      pop\n      pop\n      jump\t// out\n        /* \"#utility.yul\":2172:2595   */\n    tag_11:\n        /* \"#utility.yul\":2313:2317   */\n      0x00\n        /* \"#utility.yul\":2351:2353   */\n      0x40\n        /* \"#utility.yul\":2340:2349   */\n      dup3\n        /* \"#utility.yul\":2336:2354   */\n      add\n        /* \"#utility.yul\":2328:2354   */\n      swap1\n      pop\n        /* \"#utility.yul\":2400:2409   */\n      dup2\n        /* \"#utility.yul\":2394:2398   */\n      dup2\n        /* \"#utility.yul\":2390:2410   */\n      sub\n        /* \"#utility.yul\":2386:2387   */\n      0x00\n        /* \"#utility.yul\":2375:2384   */\n      dup4\n        /* \"#utility.yul\":2371:2388   */\n      add\n        /* \"#utility.yul\":2364:2411   */\n      mstore\n        /* \"#utility.yul\":2428:2506   */\n      tag_96\n        /* \"#utility.yul\":2501:2505   */\n      dup2\n        /* \"#utility.yul\":2492:2498   */\n      dup6\n        /* \"#utility.yul\":2428:2506   */\n      tag_40\n      jump\t// in\n    tag_96:\n        /* \"#utility.yul\":2420:2506   */\n      swap1\n      pop\n        /* \"#utility.yul\":2516:2588   */\n      tag_97\n        /* \"#utility.yul\":2584:2586   */\n      0x20\n        /* \"#utility.yul\":2573:2582   */\n      dup4\n        /* \"#utility.yul\":2569:2587   */\n      add\n        /* \"#utility.yul\":2560:2566   */\n      dup5\n        /* \"#utility.yul\":2516:2588   */\n      tag_41\n      jump\t// in\n    tag_97:\n        /* \"#utility.yul\":2172:2595   */\n      swap4\n      swap3\n      pop\n      pop\n      pop\n      jump\t// out\n        /* \"#utility.yul\":2601:2718   */\n    tag_42:\n        /* \"#utility.yul\":2710:2711   */\n      0x00\n        /* \"#utility.yul\":2707:2708   */\n      dup1\n        /* \"#utility.yul\":2700:2712   */\n      revert\n        /* \"#utility.yul\":2724:2841   */\n    tag_43:\n        /* \"#utility.yul\":2833:2834   */\n      0x00\n        /* \"#utility.yul\":2830:2831   */\n      dup1\n        /* \"#utility.yul\":2823:2835   */\n      revert\n        /* \"#utility.yul\":2847:3027   */\n    tag_44:\n        /* \"#utility.yul\":2895:2972   */\n      0x4e487b7100000000000000000000000000000000000000000000000000000000\n        /* \"#utility.yul\":2892:2893   */\n      0x00\n        /* \"#utility.yul\":2885:2973   */\n      mstore\n        /* \"#utility.yul\":2992:2996   */\n      0x41\n        /* \"#utility.yul\":2989:2990   */\n      0x04\n        /* \"#utility.yul\":2982:2997   */\n      mstore\n        /* \"#utility.yul\":3016:3020   */\n      0x24\n        /* \"#utility.yul\":3013:3014   */\n      0x00\n        /* \"#utility.yul\":3006:3021   */\n      revert\n        /* \"#utility.yul\":3033:3314   */\n    tag_45:\n        /* \"#utility.yul\":3116:3143   */\n      tag_102\n        /* \"#utility.yul\":3138:3142   */\n      dup3\n        /* \"#utility.yul\":3116:3143   */\n      tag_39\n      jump\t// in\n    tag_102:\n        /* \"#utility.yul\":3108:3114   */\n      dup2\n        /* \"#utility.yul\":3104:3144   */\n      add\n        /* \"#utility.yul\":3246:3252   */\n      dup2\n        /* \"#utility.yul\":3234:3244   */\n      dup2\n        /* \"#utility.yul\":3231:3253   */\n      lt\n        /* \"#utility.yul\":3210:3228   */\n      0xffffffffffffffff\n        /* \"#utility.yul\":3198:3208   */\n      dup3\n        /* \"#utility.yul\":3195:3229   */\n      gt\n        /* \"#utility.yul\":3192:3254   */\n      or\n        /* \"#utility.yul\":3189:3277   */\n      iszero\n      tag_103\n      jumpi\n        /* \"#utility.yul\":3257:3275   */\n      tag_104\n      tag_44\n      jump\t// in\n    tag_104:\n        /* \"#utility.yul\":3189:3277   */\n    tag_103:\n        /* \"#utility.yul\":3297:3307   */\n      dup1\n        /* \"#utility.yul\":3293:3295   */\n      0x40\n        /* \"#utility.yul\":3286:3308   */\n      mstore\n        /* \"#utility.yul\":3076:3314   */\n      pop\n        /* \"#utility.yul\":3033:3314   */\n      pop\n      pop\n      jump\t// out\n        /* \"#utility.yul\":3320:3449   */\n    tag_46:\n        /* \"#utility.yul\":3354:3360   */\n      0x00\n        /* \"#utility.yul\":3381:3401   */\n      tag_106\n      tag_30\n      jump\t// in\n    tag_106:\n        /* \"#utility.yul\":3371:3401   */\n      swap1\n      pop\n        /* \"#utility.yul\":3410:3443   */\n      tag_107\n        /* \"#utility.yul\":3438:3442   */\n      dup3\n        /* \"#utility.yul\":3430:3436   */\n      dup3\n        /* \"#utility.yul\":3410:3443   */\n      tag_45\n      jump\t// in\n    tag_107:\n        /* \"#utility.yul\":3320:3449   */\n      swap2\n      swap1\n      pop\n      jump\t// out\n        /* \"#utility.yul\":3455:3763   */\n    tag_47:\n        /* \"#utility.yul\":3517:3521   */\n      0x00\n        /* \"#utility.yul\":3607:3625   */\n      0xffffffffffffffff\n        /* \"#utility.yul\":3599:3605   */\n      dup3\n        /* \"#utility.yul\":3596:3626   */\n      gt\n        /* \"#utility.yul\":3593:3649   */\n      iszero\n      tag_109\n      jumpi\n        /* \"#utility.yul\":3629:3647   */\n      tag_110\n      tag_44\n      jump\t// in\n    tag_110:\n        /* \"#utility.yul\":3593:3649   */\n    tag_109:\n        /* \"#utility.yul\":3667:3696   */\n      tag_111\n        /* \"#utility.yul\":3689:3695   */\n      dup3\n        /* \"#utility.yul\":3667:3696   */\n      tag_39\n      jump\t// in\n    tag_111:\n        /* \"#utility.yul\":3659:3696   */\n      swap1\n      pop\n        /* \"#utility.yul\":3751:3755   */\n      0x20\n        /* \"#utility.yul\":3745:3749   */\n      dup2\n        /* \"#utility.yul\":3741:3756   */\n      add\n        /* \"#utility.yul\":3733:3756   */\n      swap1\n      pop\n        /* \"#utility.yul\":3455:3763   */\n      swap2\n      swap1\n      pop\n      jump\t// out\n        /* \"#utility.yul\":3769:3915   */\n    tag_48:\n        /* \"#utility.yul\":3866:3872   */\n      dup3\n        /* \"#utility.yul\":3861:3864   */\n      dup2\n        /* \"#utility.yul\":3856:3859   */\n      dup4\n        /* \"#utility.yul\":3843:3873   */\n      calldatacopy\n        /* \"#utility.yul\":3907:3908   */\n      0x00\n        /* \"#utility.yul\":3898:3904   */\n      dup4\n        /* \"#utility.yul\":3893:3896   */\n      dup4\n        /* \"#utility.yul\":3889:3905   */\n      add\n        /* \"#utility.yul\":3882:3909   */\n      mstore\n        /* \"#utility.yul\":3769:3915   */\n      pop\n      pop\n      pop\n      jump\t// out\n        /* \"#utility.yul\":3921:4346   */\n    tag_49:\n        /* \"#utility.yul\":3999:4004   */\n      0x00\n        /* \"#utility.yul\":4024:4090   */\n      tag_114\n        /* \"#utility.yul\":4040:4089   */\n      tag_115\n        /* \"#utility.yul\":4082:4088   */\n      dup5\n        /* \"#utility.yul\":4040:4089   */\n      tag_47\n      jump\t// in\n    tag_115:\n        /* \"#utility.yul\":4024:4090   */\n      tag_46\n      jump\t// in\n    tag_114:\n        /* \"#utility.yul\":4015:4090   */\n      swap1\n      pop\n        /* \"#utility.yul\":4113:4119   */\n      dup3\n        /* \"#utility.yul\":4106:4111   */\n      dup2\n        /* \"#utility.yul\":4099:4120   */\n      mstore\n        /* \"#utility.yul\":4151:4155   */\n      0x20\n        /* \"#utility.yul\":4144:4149   */\n      dup2\n        /* \"#utility.yul\":4140:4156   */\n      add\n        /* \"#utility.yul\":4189:4192   */\n      dup5\n        /* \"#utility.yul\":4180:4186   */\n      dup5\n        /* \"#utility.yul\":4175:4178   */\n      dup5\n        /* \"#utility.yul\":4171:4187   */\n      add\n        /* \"#utility.yul\":4168:4193   */\n      gt\n        /* \"#utility.yul\":4165:4277   */\n      iszero\n      tag_116\n      jumpi\n        /* \"#utility.yul\":4196:4275   */\n      tag_117\n      tag_43\n      jump\t// in\n    tag_117:\n        /* \"#utility.yul\":4165:4277   */\n    tag_116:\n        /* \"#utility.yul\":4286:4340   */\n      tag_118\n        /* \"#utility.yul\":4333:4339   */\n      dup5\n        /* \"#utility.yul\":4328:4331   */\n      dup3\n        /* \"#utility.yul\":4323:4326   */\n      dup6\n        /* \"#utility.yul\":4286:4340   */\n      tag_48\n      jump\t// in\n    tag_118:\n        /* \"#utility.yul\":4005:4346   */\n      pop\n        /* \"#utility.yul\":3921:4346   */\n      swap4\n      swap3\n      pop\n      pop\n      pop\n      jump\t// out\n        /* \"#utility.yul\":4366:4706   */\n    tag_50:\n        /* \"#utility.yul\":4422:4427   */\n      0x00\n        /* \"#utility.yul\":4471:4474   */\n      dup3\n        /* \"#utility.yul\":4464:4468   */\n      0x1f\n        /* \"#utility.yul\":4456:4462   */\n      dup4\n        /* \"#utility.yul\":4452:4469   */\n      add\n        /* \"#utility.yul\":4448:4475   */\n      slt\n        /* \"#utility.yul\":4438:4560   */\n      tag_120\n      jumpi\n        /* \"#utility.yul\":4479:4558   */\n      tag_121\n      tag_42\n      jump\t// in\n    tag_121:\n        /* \"#utility.yul\":4438:4560   */\n    tag_120:\n        /* \"#utility.yul\":4596:4602   */\n      dup2\n        /* \"#utility.yul\":4583:4603   */\n      calldataload\n        /* \"#utility.yul\":4621:4700   */\n      tag_122\n        /* \"#utility.yul\":4696:4699   */\n      dup5\n        /* \"#utility.yul\":4688:4694   */\n      dup3\n        /* \"#utility.yul\":4681:4685   */\n      0x20\n        /* \"#utility.yul\":4673:4679   */\n      dup7\n        /* \"#utility.yul\":4669:4686   */\n      add\n        /* \"#utility.yul\":4621:4700   */\n      tag_49\n      jump\t// in\n    tag_122:\n        /* \"#utility.yul\":4612:4700   */\n      swap2\n      pop\n        /* \"#utility.yul\":4428:4706   */\n      pop\n        /* \"#utility.yul\":4366:4706   */\n      swap3\n      swap2\n      pop\n      pop\n      jump\t// out\n        /* \"#utility.yul\":4712:5511   */\n    tag_14:\n        /* \"#utility.yul\":4799:4805   */\n      0x00\n        /* \"#utility.yul\":4807:4813   */\n      dup1\n        /* \"#utility.yul\":4815:4821   */\n      0x00\n        /* \"#utility.yul\":4864:4866   */\n      0x60\n        /* \"#utility.yul\":4852:4861   */\n      dup5\n        /* \"#utility.yul\":4843:4850   */\n      dup7\n        /* \"#utility.yul\":4839:4862   */\n      sub\n        /* \"#utility.yul\":4835:4867   */\n      slt\n        /* \"#utility.yul\":4832:4951   */\n      iszero\n      tag_124\n      jumpi\n        /* \"#utility.yul\":4870:4949   */\n      tag_125\n      tag_31\n      jump\t// in\n    tag_125:\n        /* \"#utility.yul\":4832:4951   */\n    tag_124:\n        /* \"#utility.yul\":4990:4991   */\n      0x00\n        /* \"#utility.yul\":5015:5068   */\n      tag_126\n        /* \"#utility.yul\":5060:5067   */\n      dup7\n        /* \"#utility.yul\":5051:5057   */\n      dup3\n        /* \"#utility.yul\":5040:5049   */\n      dup8\n        /* \"#utility.yul\":5036:5058   */\n      add\n        /* \"#utility.yul\":5015:5068   */\n      tag_35\n      jump\t// in\n    tag_126:\n        /* \"#utility.yul\":5005:5068   */\n      swap4\n      pop\n        /* \"#utility.yul\":4961:5078   */\n      pop\n        /* \"#utility.yul\":5145:5147   */\n      0x20\n        /* \"#utility.yul\":5134:5143   */\n      dup5\n        /* \"#utility.yul\":5130:5148   */\n      add\n        /* \"#utility.yul\":5117:5149   */\n      calldataload\n        /* \"#utility.yul\":5176:5194   */\n      0xffffffffffffffff\n        /* \"#utility.yul\":5168:5174   */\n      dup2\n        /* \"#utility.yul\":5165:5195   */\n      gt\n        /* \"#utility.yul\":5162:5279   */\n      iszero\n      tag_127\n      jumpi\n        /* \"#utility.yul\":5198:5277   */\n      tag_128\n      tag_32\n      jump\t// in\n    tag_128:\n        /* \"#utility.yul\":5162:5279   */\n    tag_127:\n        /* \"#utility.yul\":5303:5366   */\n      tag_129\n        /* \"#utility.yul\":5358:5365   */\n      dup7\n        /* \"#utility.yul\":5349:5355   */\n      dup3\n        /* \"#utility.yul\":5338:5347   */\n      dup8\n        /* \"#utility.yul\":5334:5356   */\n      add\n        /* \"#utility.yul\":5303:5366   */\n      tag_50\n      jump\t// in\n    tag_129:\n        /* \"#utility.yul\":5293:5366   */\n      swap3\n      pop\n        /* \"#utility.yul\":5088:5376   */\n      pop\n        /* \"#utility.yul\":5415:5417   */\n      0x40\n        /* \"#utility.yul\":5441:5494   */\n      tag_130\n        /* \"#utility.yul\":5486:5493   */\n      dup7\n        /* \"#utility.yul\":5477:5483   */\n      dup3\n        /* \"#utility.yul\":5466:5475   */\n      dup8\n        /* \"#utility.yul\":5462:5484   */\n      add\n        /* \"#utility.yul\":5441:5494   */\n      tag_35\n      jump\t// in\n    tag_130:\n        /* \"#utility.yul\":5431:5494   */\n      swap2\n      pop\n        /* \"#utility.yul\":5386:5504   */\n      pop\n        /* \"#utility.yul\":4712:5511   */\n      swap3\n      pop\n      swap3\n      pop\n      swap3\n      jump\t// out\n        /* \"#utility.yul\":5517:5991   */\n    tag_18:\n        /* \"#utility.yul\":5585:5591   */\n      0x00\n        /* \"#utility.yul\":5593:5599   */\n      dup1\n        /* \"#utility.yul\":5642:5644   */\n      0x40\n        /* \"#utility.yul\":5630:5639   */\n      dup4\n        /* \"#utility.yul\":5621:5628   */\n      dup6\n        /* \"#utility.yul\":5617:5640   */\n      sub\n        /* \"#utility.yul\":5613:5645   */\n      slt\n        /* \"#utility.yul\":5610:5729   */\n      iszero\n      tag_132\n      jumpi\n        /* \"#utility.yul\":5648:5727   */\n      tag_133\n      tag_31\n      jump\t// in\n    tag_133:\n        /* \"#utility.yul\":5610:5729   */\n    tag_132:\n        /* \"#utility.yul\":5768:5769   */\n      0x00\n        /* \"#utility.yul\":5793:5846   */\n      tag_134\n        /* \"#utility.yul\":5838:5845   */\n      dup6\n        /* \"#utility.yul\":5829:5835   */\n      dup3\n        /* \"#utility.yul\":5818:5827   */\n      dup7\n        /* \"#utility.yul\":5814:5836   */\n      add\n        /* \"#utility.yul\":5793:5846   */\n      tag_35\n      jump\t// in\n    tag_134:\n        /* \"#utility.yul\":5783:5846   */\n      swap3\n      pop\n        /* \"#utility.yul\":5739:5856   */\n      pop\n        /* \"#utility.yul\":5895:5897   */\n      0x20\n        /* \"#utility.yul\":5921:5974   */\n      tag_135\n        /* \"#utility.yul\":5966:5973   */\n      dup6\n        /* \"#utility.yul\":5957:5963   */\n      dup3\n        /* \"#utility.yul\":5946:5955   */\n      dup7\n        /* \"#utility.yul\":5942:5964   */\n      add\n        /* \"#utility.yul\":5921:5974   */\n      tag_35\n      jump\t// in\n    tag_135:\n        /* \"#utility.yul\":5911:5974   */\n      swap2\n      pop\n        /* \"#utility.yul\":5866:5984   */\n      pop\n        /* \"#utility.yul\":5517:5991   */\n      swap3\n      pop\n      swap3\n      swap1\n      pop\n      jump\t// out\n        /* \"#utility.yul\":5997:6177   */\n    tag_51:\n        /* \"#utility.yul\":6045:6122   */\n      0x4e487b7100000000000000000000000000000000000000000000000000000000\n        /* \"#utility.yul\":6042:6043   */\n      0x00\n        /* \"#utility.yul\":6035:6123   */\n      mstore\n        /* \"#utility.yul\":6142:6146   */\n      0x22\n        /* \"#utility.yul\":6139:6140   */\n      0x04\n        /* \"#utility.yul\":6132:6147   */\n      mstore\n        /* \"#utility.yul\":6166:6170   */\n      0x24\n        /* \"#utility.yul\":6163:6164   */\n      0x00\n        /* \"#utility.yul\":6156:6171   */\n      revert\n        /* \"#utility.yul\":6183:6503   */\n    tag_21:\n        /* \"#utility.yul\":6227:6233   */\n      0x00\n        /* \"#utility.yul\":6264:6265   */\n      0x02\n        /* \"#utility.yul\":6258:6262   */\n      dup3\n        /* \"#utility.yul\":6254:6266   */\n      div\n        /* \"#utility.yul\":6244:6266   */\n      swap1\n      pop\n        /* \"#utility.yul\":6311:6312   */\n      0x01\n        /* \"#utility.yul\":6305:6309   */\n      dup3\n        /* \"#utility.yul\":6301:6313   */\n      and\n        /* \"#utility.yul\":6332:6350   */\n      dup1\n        /* \"#utility.yul\":6322:6403   */\n      tag_138\n      jumpi\n        /* \"#utility.yul\":6388:6392   */\n      0x7f\n        /* \"#utility.yul\":6380:6386   */\n      dup3\n        /* \"#utility.yul\":6376:6393   */\n      and\n        /* \"#utility.yul\":6366:6393   */\n      swap2\n      pop\n        /* \"#utility.yul\":6322:6403   */\n    tag_138:\n        /* \"#utility.yul\":6450:6452   */\n      0x20\n        /* \"#utility.yul\":6442:6448   */\n      dup3\n        /* \"#utility.yul\":6439:6453   */\n      lt\n        /* \"#utility.yul\":6419:6437   */\n      dup2\n        /* \"#utility.yul\":6416:6454   */\n      sub\n        /* \"#utility.yul\":6413:6497   */\n      tag_139\n      jumpi\n        /* \"#utility.yul\":6469:6487   */\n      tag_140\n      tag_51\n      jump\t// in\n    tag_140:\n        /* \"#utility.yul\":6413:6497   */\n    tag_139:\n        /* \"#utility.yul\":6234:6503   */\n      pop\n        /* \"#utility.yul\":6183:6503   */\n      swap2\n      swap1\n      pop\n      jump\t// out\n        /* \"#utility.yul\":6509:6650   */\n    tag_52:\n        /* \"#utility.yul\":6558:6562   */\n      0x00\n        /* \"#utility.yul\":6581:6584   */\n      dup2\n        /* \"#utility.yul\":6573:6584   */\n      swap1\n      pop\n        /* \"#utility.yul\":6604:6607   */\n      dup2\n        /* \"#utility.yul\":6601:6602   */\n      0x00\n        /* \"#utility.yul\":6594:6608   */\n      mstore\n        /* \"#utility.yul\":6638:6642   */\n      0x20\n        /* \"#utility.yul\":6635:6636   */\n      0x00\n        /* \"#utility.yul\":6625:6643   */\n      keccak256\n        /* \"#utility.yul\":6617:6643   */\n      swap1\n      pop\n        /* \"#utility.yul\":6509:6650   */\n      swap2\n      swap1\n      pop\n      jump\t// out\n        /* \"#utility.yul\":6656:6749   */\n    tag_53:\n        /* \"#utility.yul\":6693:6699   */\n      0x00\n        /* \"#utility.yul\":6740:6742   */\n      0x20\n        /* \"#utility.yul\":6735:6737   */\n      0x1f\n        /* \"#utility.yul\":6728:6733   */\n      dup4\n        /* \"#utility.yul\":6724:6738   */\n      add\n        /* \"#utility.yul\":6720:6743   */\n      div\n        /* \"#utility.yul\":6710:6743   */\n      swap1\n      pop\n        /* \"#utility.yul\":6656:6749   */\n      swap2\n      swap1\n      pop\n      jump\t// out\n        /* \"#utility.yul\":6755:6862   */\n    tag_54:\n        /* \"#utility.yul\":6799:6807   */\n      0x00\n        /* \"#utility.yul\":6849:6854   */\n      dup3\n        /* \"#utility.yul\":6843:6847   */\n      dup3\n        /* \"#utility.yul\":6839:6855   */\n      shl\n        /* \"#utility.yul\":6818:6855   */\n      swap1\n      pop\n        /* \"#utility.yul\":6755:6862   */\n      swap3\n      swap2\n      pop\n      pop\n      jump\t// out\n        /* \"#utility.yul\":6868:7261   */\n    tag_55:\n        /* \"#utility.yul\":6937:6943   */\n      0x00\n        /* \"#utility.yul\":6987:6988   */\n      0x08\n        /* \"#utility.yul\":6975:6985   */\n      dup4\n        /* \"#utility.yul\":6971:6989   */\n      mul\n        /* \"#utility.yul\":7010:7107   */\n      tag_145\n        /* \"#utility.yul\":7040:7106   */\n      0xffffffffffffffffffffffffffffffffffffffffffffffffffffffffffffffff\n        /* \"#utility.yul\":7029:7038   */\n      dup3\n        /* \"#utility.yul\":7010:7107   */\n      tag_54\n      jump\t// in\n    tag_145:\n        /* \"#utility.yul\":7128:7167   */\n      tag_146\n        /* \"#utility.yul\":7158:7166   */\n      dup7\n        /* \"#utility.yul\":7147:7156   */\n      dup4\n        /* \"#utility.yul\":7128:7167   */\n      tag_54\n      jump\t// in\n    tag_146:\n        /* \"#utility.yul\":7116:7167   */\n      swap6\n      pop\n        /* \"#utility.yul\":7200:7204   */\n      dup1\n        /* \"#utility.yul\":7196:7205   */\n      not\n        /* \"#utility.yul\":7189:7194   */\n      dup5\n        /* \"#utility.yul\":7185:7206   */\n      and\n        /* \"#utility.yul\":7176:7206   */\n      swap4\n      pop\n        /* \"#utility.yul\":7249:7253   */\n      dup1\n        /* \"#utility.yul\":7239:7247   */\n      dup7\n        /* \"#utility.yul\":7235:7254   */\n      and\n        /* \"#utility.yul\":7228:7233   */\n      dup5\n        /* \"#utility.yul\":7225:7255   */\n      or\n        /* \"#utility.yul\":7215:7255   */\n      swap3\n      pop\n        /* \"#utility.yul\":6944:7261   */\n      pop\n      pop\n        /* \"#utility.yul\":6868:7261   */\n      swap4\n      swap3\n      pop\n      pop\n      pop\n      jump\t// out\n        /* \"#utility.yul\":7267:7327   */\n    tag_56:\n        /* \"#utility.yul\":7295:7298   */\n      0x00\n        /* \"#utility.yul\":7316:7321   */\n      dup2\n        /* \"#utility.yul\":7309:7321   */\n      swap1\n      pop\n        /* \"#utility.yul\":7267:7327   */\n      swap2\n      swap1\n      pop\n      jump\t// out\n        /* \"#utility.yul\":7333:7475   */\n    tag_57:\n        /* \"#utility.yul\":7383:7392   */\n      0x00\n        /* \"#utility.yul\":7416:7469   */\n      tag_149\n        /* \"#utility.yul\":7434:7468   */\n      tag_150\n        /* \"#utility.yul\":7443:7467   */\n      tag_151\n        /* \"#utility.yul\":7461:7466   */\n      dup5\n        /* \"#utility.yul\":7443:7467   */\n      tag_33\n      jump\t// in\n    tag_151:\n        /* \"#utility.yul\":7434:7468   */\n      tag_56\n      jump\t// in\n    tag_150:\n        /* \"#utility.yul\":7416:7469   */\n      tag_33\n      jump\t// in\n    tag_149:\n        /* \"#utility.yul\":7403:7469   */\n      swap1\n      pop\n        /* \"#utility.yul\":7333:7475   */\n      swap2\n      swap1\n      pop\n      jump\t// out\n        /* \"#utility.yul\":7481:7556   */\n    tag_58:\n        /* \"#utility.yul\":7524:7527   */\n      0x00\n        /* \"#utility.yul\":7545:7550   */\n      dup2\n        /* \"#utility.yul\":7538:7550   */\n      swap1\n      pop\n        /* \"#utility.yul\":7481:7556   */\n      swap2\n      swap1\n      pop\n      jump\t// out\n        /* \"#utility.yul\":7562:7831   */\n    tag_59:\n        /* \"#utility.yul\":7672:7711   */\n      tag_154\n        /* \"#utility.yul\":7703:7710   */\n      dup4\n        /* \"#utility.yul\":7672:7711   */\n      tag_57\n      jump\t// in\n    tag_154:\n        /* \"#utility.yul\":7733:7824   */\n      tag_155\n        /* \"#utility.yul\":7782:7823   */\n      tag_156\n        /* \"#utility.yul\":7806:7822   */\n      dup3\n        /* \"#utility.yul\":7782:7823   */\n      tag_58\n      jump\t// in\n    tag_156:\n        /* \"#utility.yul\":7774:7780   */\n      dup5\n        /* \"#utility.yul\":7767:7771   */\n      dup5\n        /* \"#utility.yul\":7761:7772   */\n      sload\n        /* \"#utility.yul\":7733:7824   */\n      tag_55\n      jump\t// in\n    tag_155:\n        /* \"#utility.yul\":7727:7731   */\n      dup3\n        /* \"#utility.yul\":7720:7825   */\n      sstore\n        /* \"#utility.yul\":7638:7831   */\n      pop\n        /* \"#utility.yul\":7562:7831   */\n      pop\n      pop\n      pop\n      jump\t// out\n        /* \"#utility.yul\":7837:7910   */\n    tag_60:\n        /* \"#utility.yul\":7882:7885   */\n      0x00\n        /* \"#utility.yul\":7837:7910   */\n      swap1\n      jump\t// out\n        /* \"#utility.yul\":7916:8105   */\n    tag_61:\n        /* \"#utility.yul\":7993:8025   */\n      tag_159\n      tag_60\n      jump\t// in\n    tag_159:\n        /* \"#utility.yul\":8034:8099   */\n      tag_160\n        /* \"#utility.yul\":8092:8098   */\n      dup2\n        /* \"#utility.yul\":8084:8090   */\n      dup5\n        /* \"#utility.yul\":8078:8082   */\n      dup5\n        /* \"#utility.yul\":8034:8099   */\n      tag_59\n      jump\t// in\n    tag_160:\n        /* \"#utility.yul\":7969:8105   */\n      pop\n        /* \"#utility.yul\":7916:8105   */\n      pop\n      pop\n      jump\t// out\n        /* \"#utility.yul\":8111:8297   */\n    tag_62:\n        /* \"#utility.yul\":8171:8291   */\n    tag_162:\n        /* \"#utility.yul\":8188:8191   */\n      dup2\n        /* \"#utility.yul\":8181:8186   */\n      dup2\n        /* \"#utility.yul\":8178:8192   */\n      lt\n        /* \"#utility.yul\":8171:8291   */\n      iszero\n      tag_164\n      jumpi\n        /* \"#utility.yul\":8242:8281   */\n      tag_165\n        /* \"#utility.yul\":8279:8280   */\n      0x00\n        /* \"#utility.yul\":8272:8277   */\n      dup3\n        /* \"#utility.yul\":8242:8281   */\n      tag_61\n      jump\t// in\n    tag_165:\n        /* \"#utility.yul\":8215:8216   */\n      0x01\n        /* \"#utility.yul\":8208:8213   */\n      dup2\n        /* \"#utility.yul\":8204:8217   */\n      add\n        /* \"#utility.yul\":8195:8217   */\n      swap1\n      pop\n        /* \"#utility.yul\":8171:8291   */\n      jump(tag_162)\n    tag_164:\n        /* \"#utility.yul\":8111:8297   */\n      pop\n      pop\n      jump\t// out\n        /* \"#utility.yul\":8303:8846   */\n    tag_63:\n        /* \"#utility.yul\":8404:8406   */\n      0x1f\n        /* \"#utility.yul\":8399:8402   */\n      dup3\n        /* \"#utility.yul\":8396:8407   */\n      gt\n        /* \"#utility.yul\":8393:8839   */\n      iszero\n      tag_167\n      jumpi\n        /* \"#utility.yul\":8438:8476   */\n      tag_168\n        /* \"#utility.yul\":8470:8475   */\n      dup2\n        /* \"#utility.yul\":8438:8476   */\n      tag_52\n      jump\t// in\n    tag_168:\n        /* \"#utility.yul\":8522:8551   */\n      tag_169\n        /* \"#utility.yul\":8540:8550   */\n      dup5\n        /* \"#utility.yul\":8522:8551   */\n      tag_53\n      jump\t// in\n    tag_169:\n        /* \"#utility.yul\":8512:8520   */\n      dup2\n        /* \"#utility.yul\":8508:8552   */\n      add\n        /* \"#utility.yul\":8705:8707   */\n      0x20\n        /* \"#utility.yul\":8693:8703   */\n      dup6\n        /* \"#utility.yul\":8690:8708   */\n      lt\n        /* \"#utility.yul\":8687:8736   */\n      iszero\n      tag_170\n      jumpi\n        /* \"#utility.yul\":8726:8734   */\n      dup2\n        /* \"#utility.yul\":8711:8734   */\n      swap1\n      pop\n        /* \"#utility.yul\":8687:8736   */\n    tag_170:\n        /* \"#utility.yul\":8749:8829   */\n      tag_171\n        /* \"#utility.yul\":8805:8827   */\n      tag_172\n        /* \"#utility.yul\":8823:8826   */\n      dup6\n        /* \"#utility.yul\":8805:8827   */\n      tag_53\n      jump\t// in\n    tag_172:\n        /* \"#utility.yul\":8795:8803   */\n      dup4\n        /* \"#utility.yul\":8791:8828   */\n      add\n        /* \"#utility.yul\":8778:8789   */\n      dup3\n        /* \"#utility.yul\":8749:8829   */\n      tag_62\n      jump\t// in\n    tag_171:\n        /* \"#utility.yul\":8408:8839   */\n      pop\n      pop\n        /* \"#utility.yul\":8393:8839   */\n    tag_167:\n        /* \"#utility.yul\":8303:8846   */\n      pop\n      pop\n      pop\n      jump\t// out\n        /* \"#utility.yul\":8852:8969   */\n    tag_64:\n        /* \"#utility.yul\":8906:8914   */\n      0x00\n        /* \"#utility.yul\":8956:8961   */\n      dup3\n        /* \"#utility.yul\":8950:8954   */\n      dup3\n        /* \"#utility.yul\":8946:8962   */\n      shr\n        /* \"#utility.yul\":8925:8962   */\n      swap1\n      pop\n        /* \"#utility.yul\":8852:8969   */\n      swap3\n      swap2\n      pop\n      pop\n      jump\t// out\n        /* \"#utility.yul\":8975:9144   */\n    tag_65:\n        /* \"#utility.yul\":9019:9025   */\n      0x00\n        /* \"#utility.yul\":9052:9103   */\n      tag_175\n        /* \"#utility.yul\":9100:9101   */\n      0x00\n        /* \"#utility.yul\":9096:9102   */\n      not\n        /* \"#utility.yul\":9088:9093   */\n      dup5\n        /* \"#utility.yul\":9085:9086   */\n      0x08\n        /* \"#utility.yul\":9081:9094   */\n      mul\n        /* \"#utility.yul\":9052:9103   */\n      tag_64\n      jump\t// in\n    tag_175:\n        /* \"#utility.yul\":9048:9104   */\n      not\n        /* \"#utility.yul\":9133:9137   */\n      dup1\n        /* \"#utility.yul\":9127:9131   */\n      dup4\n        /* \"#utility.yul\":9123:9138   */\n      and\n        /* \"#utility.yul\":9113:9138   */\n      swap2\n      pop\n        /* \"#utility.yul\":9026:9144   */\n      pop\n        /* \"#utility.yul\":8975:9144   */\n      swap3\n      swap2\n      pop\n      pop\n      jump\t// out\n        /* \"#utility.yul\":9149:9444   */\n    tag_66:\n        /* \"#utility.yul\":9225:9229   */\n      0x00\n        /* \"#utility.yul\":9371:9400   */\n      tag_177\n        /* \"#utility.yul\":9396:9399   */\n      dup4\n        /* \"#utility.yul\":9390:9394   */\n      dup4\n        /* \"#utility.yul\":9371:9400   */\n      tag_65\n      jump\t// in\n    tag_177:\n        /* \"#utility.yul\":9363:9400   */\n      swap2\n      pop\n        /* \"#utility.yul\":9433:9436   */\n      dup3\n        /* \"#utility.yul\":9430:9431   */\n      0x02\n        /* \"#utility.yul\":9426:9437   */\n      mul\n        /* \"#utility.yul\":9420:9424   */\n      dup3\n        /* \"#utility.yul\":9417:9438   */\n      or\n        /* \"#utility.yul\":9409:9438   */\n      swap1\n      pop\n        /* \"#utility.yul\":9149:9444   */\n      swap3\n      swap2\n      pop\n      pop\n      jump\t// out\n        /* \"#utility.yul\":9449:10844   */\n    tag_28:\n        /* \"#utility.yul\":9566:9603   */\n      tag_179\n        /* \"#utility.yul\":9599:9602   */\n      dup3\n        /* \"#utility.yul\":9566:9603   */\n      tag_36\n      jump\t// in\n    tag_179:\n        /* \"#utility.yul\":9668:9686   */\n      0xffffffffffffffff\n        /* \"#utility.yul\":9660:9666   */\n      dup2\n        /* \"#utility.yul\":9657:9687   */\n      gt\n        /* \"#utility.yul\":9654:9710   */\n      iszero\n      tag_180\n      jumpi\n        /* \"#utility.yul\":9690:9708   */\n      tag_181\n      tag_44\n      jump\t// in\n    tag_181:\n        /* \"#utility.yul\":9654:9710   */\n    tag_180:\n        /* \"#utility.yul\":9734:9772   */\n      tag_182\n        /* \"#utility.yul\":9766:9770   */\n      dup3\n        /* \"#utility.yul\":9760:9771   */\n      sload\n        /* \"#utility.yul\":9734:9772   */\n      tag_21\n      jump\t// in\n    tag_182:\n        /* \"#utility.yul\":9819:9886   */\n      tag_183\n        /* \"#utility.yul\":9879:9885   */\n      dup3\n        /* \"#utility.yul\":9871:9877   */\n      dup3\n        /* \"#utility.yul\":9865:9869   */\n      dup6\n        /* \"#utility.yul\":9819:9886   */\n      tag_63\n      jump\t// in\n    tag_183:\n        /* \"#utility.yul\":9913:9914   */\n      0x00\n        /* \"#utility.yul\":9937:9941   */\n      0x20\n        /* \"#utility.yul\":9924:9941   */\n      swap1\n      pop\n        /* \"#utility.yul\":9969:9971   */\n      0x1f\n        /* \"#utility.yul\":9961:9967   */\n      dup4\n        /* \"#utility.yul\":9958:9972   */\n      gt\n        /* \"#utility.yul\":9986:9987   */\n      0x01\n        /* \"#utility.yul\":9981:10599   */\n      dup2\n      eq\n      tag_185\n      jumpi\n        /* \"#utility.yul\":10643:10644   */\n      0x00\n        /* \"#utility.yul\":10660:10666   */\n      dup5\n        /* \"#utility.yul\":10657:10734   */\n      iszero\n      tag_186\n      jumpi\n        /* \"#utility.yul\":10709:10718   */\n      dup3\n        /* \"#utility.yul\":10704:10707   */\n      dup8\n        /* \"#utility.yul\":10700:10719   */\n      add\n        /* \"#utility.yul\":10694:10720   */\n      mload\n        /* \"#utility.yul\":10685:10720   */\n      swap1\n      pop\n        /* \"#utility.yul\":10657:10734   */\n    tag_186:\n        /* \"#utility.yul\":10760:10827   */\n      tag_187\n        /* \"#utility.yul\":10820:10826   */\n      dup6\n        /* \"#utility.yul\":10813:10818   */\n      dup3\n        /* \"#utility.yul\":10760:10827   */\n      tag_66\n      jump\t// in\n    tag_187:\n        /* \"#utility.yul\":10754:10758   */\n      dup7\n        /* \"#utility.yul\":10747:10828   */\n      sstore\n        /* \"#utility.yul\":10616:10838   */\n      pop\n        /* \"#utility.yul\":9951:10838   */\n      jump(tag_184)\n        /* \"#utility.yul\":9981:10599   */\n    tag_185:\n        /* \"#utility.yul\":10033:10037   */\n      0x1f\n        /* \"#utility.yul\":10029:10038   */\n      not\n        /* \"#utility.yul\":10021:10027   */\n      dup5\n        /* \"#utility.yul\":10017:10039   */\n      and\n        /* \"#utility.yul\":10067:10104   */\n      tag_188\n        /* \"#utility.yul\":10099:10103   */\n      dup7\n        /* \"#utility.yul\":10067:10104   */\n      tag_52\n      jump\t// in\n    tag_188:\n        /* \"#utility.yul\":10126:10127   */\n      0x00\n        /* \"#utility.yul\":10140:10348   */\n    tag_189:\n        /* \"#utility.yul\":10154:10161   */\n      dup3\n        /* \"#utility.yul\":10151:10152   */\n      dup2\n        /* \"#utility.yul\":10148:10162   */\n      lt\n        /* \"#utility.yul\":10140:10348   */\n      iszero\n      tag_191\n      jumpi\n        /* \"#utility.yul\":10233:10242   */\n      dup5\n        /* \"#utility.yul\":10228:10231   */\n      dup10\n        /* \"#utility.yul\":10224:10243   */\n      add\n        /* \"#utility.yul\":10218:10244   */\n      mload\n        /* \"#utility.yul\":10210:10216   */\n      dup3\n        /* \"#utility.yul\":10203:10245   */\n      sstore\n        /* \"#utility.yul\":10284:10285   */\n      0x01\n        /* \"#utility.yul\":10276:10282   */\n      dup3\n        /* \"#utility.yul\":10272:10286   */\n      add\n        /* \"#utility.yul\":10262:10286   */\n      swap2\n      pop\n        /* \"#utility.yul\":10331:10333   */\n      0x20\n        /* \"#utility.yul\":10320:10329   */\n      dup6\n        /* \"#utility.yul\":10316:10334   */\n      add\n        /* \"#utility.yul\":10303:10334   */\n      swap5\n      pop\n        /* \"#utility.yul\":10177:10181   */\n      0x20\n        /* \"#utility.yul\":10174:10175   */\n      dup2\n        /* \"#utility.yul\":10170:10182   */\n      add\n        /* \"#utility.yul\":10165:10182   */\n      swap1\n      pop\n        /* \"#utility.yul\":10140:10348   */\n      jump(tag_189)\n    tag_191:\n        /* \"#utility.yul\":10376:10382   */\n      dup7\n        /* \"#utility.yul\":10367:10374   */\n      dup4\n        /* \"#utility.yul\":10364:10383   */\n      lt\n        /* \"#utility.yul\":10361:10540   */\n      iszero\n      tag_192\n      jumpi\n        /* \"#utility.yul\":10434:10443   */\n      dup5\n        /* \"#utility.yul\":10429:10432   */\n      dup10\n        /* \"#utility.yul\":10425:10444   */\n      add\n        /* \"#utility.yul\":10419:10445   */\n      mload\n        /* \"#utility.yul\":10477:10525   */\n      tag_193\n        /* \"#utility.yul\":10519:10523   */\n      0x1f\n        /* \"#utility.yul\":10511:10517   */\n      dup10\n        /* \"#utility.yul\":10507:10524   */\n      and\n        /* \"#utility.yul\":10496:10505   */\n      dup3\n        /* \"#utility.yul\":10477:10525   */\n      tag_65\n      jump\t// in\n    tag_193:\n        /* \"#utility.yul\":10469:10475   */\n      dup4\n        /* \"#utility.yul\":10462:10526   */\n      sstore\n        /* \"#utility.yul\":10384:10540   */\n      pop\n        /* \"#utility.yul\":10361:10540   */\n    tag_192:\n        /* \"#utility.yul\":10586:10587   */\n      0x01\n        /* \"#utility.yul\":10582:10583   */\n      0x02\n        /* \"#utility.yul\":10574:10580   */\n      dup9\n        /* \"#utility.yul\":10570:10584   */\n      mul\n        /* \"#utility.yul\":10566:10588   */\n      add\n        /* \"#utility.yul\":10560:10564   */\n      dup9\n        /* \"#utility.yul\":10553:10589   */\n      sstore\n        /* \"#utility.yul\":9988:10599   */\n      pop\n      pop\n      pop\n        /* \"#utility.yul\":9951:10838   */\n    tag_184:\n      pop\n        /* \"#utility.yul\":9541:10844   */\n      pop\n      pop\n      pop\n        /* \"#utility.yul\":9449:10844   */\n      pop\n      pop\n      jump\t// out\n\n    auxdata: 0xa26469706673582212201666ffe70f9b81998904bb9949a2f123ebca088323f67db40e9c7cfaaf30eb0064736f6c63430008180033\n}\n",
				"bytecode": {
					"linkReferences": {},
					"object": "608060405234801561000f575f80fd5b506107c88061001d5f395ff3fe608060405234801561000f575f80fd5b506004361061003f575f3560e01c80637acc0b20146100435780638986cfc9146100745780639c3bddb214610090575b5f80fd5b61005d60048036038101906100589190610201565b6100ac565b60405161006b9291906102c5565b60405180910390f35b61008e6004803603810190610089919061041f565b610151565b005b6100aa60048036038101906100a5919061048b565b6101a1565b005b5f602052805f5260405f205f91509050805f0180546100ca906104f6565b80601f01602080910402602001604051908101604052809291908181526020018280546100f6906104f6565b80156101415780601f1061011857610100808354040283529160200191610141565b820191905f5260205f20905b81548152906001019060200180831161012457829003601f168201915b5050505050908060010154905082565b5f6040518060400160405280848152602001838152509050805f808681526020019081526020015f205f820151815f01908161018d91906106c3565b506020820151816001015590505050505050565b805f808481526020019081526020015f20600101819055505050565b5f604051905090565b5f80fd5b5f80fd5b5f819050919050565b6101e0816101ce565b81146101ea575f80fd5b50565b5f813590506101fb816101d7565b92915050565b5f60208284031215610216576102156101c6565b5b5f610223848285016101ed565b91505092915050565b5f81519050919050565b5f82825260208201905092915050565b5f5b83811015610263578082015181840152602081019050610248565b5f8484015250505050565b5f601f19601f8301169050919050565b5f6102888261022c565b6102928185610236565b93506102a2818560208601610246565b6102ab8161026e565b840191505092915050565b6102bf816101ce565b82525050565b5f6040820190508181035f8301526102dd818561027e565b90506102ec60208301846102b6565b9392505050565b5f80fd5b5f80fd5b7f4e487b71000000000000000000000000000000000000000000000000000000005f52604160045260245ffd5b6103318261026e565b810181811067ffffffffffffffff821117156103505761034f6102fb565b5b80604052505050565b5f6103626101bd565b905061036e8282610328565b919050565b5f67ffffffffffffffff82111561038d5761038c6102fb565b5b6103968261026e565b9050602081019050919050565b828183375f83830152505050565b5f6103c36103be84610373565b610359565b9050828152602081018484840111156103df576103de6102f7565b5b6103ea8482856103a3565b509392505050565b5f82601f830112610406576104056102f3565b5b81356104168482602086016103b1565b91505092915050565b5f805f60608486031215610436576104356101c6565b5b5f610443868287016101ed565b935050602084013567ffffffffffffffff811115610464576104636101ca565b5b610470868287016103f2565b9250506040610481868287016101ed565b9150509250925092565b5f80604083850312156104a1576104a06101c6565b5b5f6104ae858286016101ed565b92505060206104bf858286016101ed565b9150509250929050565b7f4e487b71000000000000000000000000000000000000000000000000000000005f52602260045260245ffd5b5f600282049050600182168061050d57607f821691505b6020821081036105205761051f6104c9565b5b50919050565b5f819050815f5260205f209050919050565b5f6020601f8301049050919050565b5f82821b905092915050565b5f600883026105827fffffffffffffffffffffffffffffffffffffffffffffffffffffffffffffffff82610547565b61058c8683610547565b95508019841693508086168417925050509392505050565b5f819050919050565b5f6105c76105c26105bd846101ce565b6105a4565b6101ce565b9050919050565b5f819050919050565b6105e0836105ad565b6105f46105ec826105ce565b848454610553565b825550505050565b5f90565b6106086105fc565b6106138184846105d7565b505050565b5b818110156106365761062b5f82610600565b600181019050610619565b5050565b601f82111561067b5761064c81610526565b61065584610538565b81016020851015610664578190505b61067861067085610538565b830182610618565b50505b505050565b5f82821c905092915050565b5f61069b5f1984600802610680565b1980831691505092915050565b5f6106b3838361068c565b9150826002028217905092915050565b6106cc8261022c565b67ffffffffffffffff8111156106e5576106e46102fb565b5b6106ef82546104f6565b6106fa82828561063a565b5f60209050601f83116001811461072b575f8415610719578287015190505b61072385826106a8565b86555061078a565b601f19841661073986610526565b5f5b828110156107605784890151825560018201915060208501945060208101905061073b565b8683101561077d5784890151610779601f89168261068c565b8355505b6001600288020188555050505b50505050505056fea26469706673582212201666ffe70f9b81998904bb9949a2f123ebca088323f67db40e9c7cfaaf30eb0064736f6c63430008180033",
					"opcodes": "PUSH1 0x80 PUSH1 0x40 MSTORE CALLVALUE DUP1 ISZERO PUSH2 0xF JUMPI PUSH0 DUP1 REVERT JUMPDEST POP PUSH2 0x7C8 DUP1 PUSH2 0x1D PUSH0 CODECOPY PUSH0 RETURN INVALID PUSH1 0x80 PUSH1 0x40 MSTORE CALLVALUE DUP1 ISZERO PUSH2 0xF JUMPI PUSH0 DUP1 REVERT JUMPDEST POP PUSH1 0x4 CALLDATASIZE LT PUSH2 0x3F JUMPI PUSH0 CALLDATALOAD PUSH1 0xE0 SHR DUP1 PUSH4 0x7ACC0B20 EQ PUSH2 0x43 JUMPI DUP1 PUSH4 0x8986CFC9 EQ PUSH2 0x74 JUMPI DUP1 PUSH4 0x9C3BDDB2 EQ PUSH2 0x90 JUMPI JUMPDEST PUSH0 DUP1 REVERT JUMPDEST PUSH2 0x5D PUSH1 0x4 DUP1 CALLDATASIZE SUB DUP2 ADD SWAP1 PUSH2 0x58 SWAP2 SWAP1 PUSH2 0x201 JUMP JUMPDEST PUSH2 0xAC JUMP JUMPDEST PUSH1 0x40 MLOAD PUSH2 0x6B SWAP3 SWAP2 SWAP1 PUSH2 0x2C5 JUMP JUMPDEST PUSH1 0x40 MLOAD DUP1 SWAP2 SUB SWAP1 RETURN JUMPDEST PUSH2 0x8E PUSH1 0x4 DUP1 CALLDATASIZE SUB DUP2 ADD SWAP1 PUSH2 0x89 SWAP2 SWAP1 PUSH2 0x41F JUMP JUMPDEST PUSH2 0x151 JUMP JUMPDEST STOP JUMPDEST PUSH2 0xAA PUSH1 0x4 DUP1 CALLDATASIZE SUB DUP2 ADD SWAP1 PUSH2 0xA5 SWAP2 SWAP1 PUSH2 0x48B JUMP JUMPDEST PUSH2 0x1A1 JUMP JUMPDEST STOP JUMPDEST PUSH0 PUSH1 0x20 MSTORE DUP1 PUSH0 MSTORE PUSH1 0x40 PUSH0 KECCAK256 PUSH0 SWAP2 POP SWAP1 POP DUP1 PUSH0 ADD DUP1 SLOAD PUSH2 0xCA SWAP1 PUSH2 0x4F6 JUMP JUMPDEST DUP1 PUSH1 0x1F ADD PUSH1 0x20 DUP1 SWAP2 DIV MUL PUSH1 0x20 ADD PUSH1 0x40 MLOAD SWAP1 DUP2 ADD PUSH1 0x40 MSTORE DUP1 SWAP3 SWAP2 SWAP1 DUP2 DUP2 MSTORE PUSH1 0x20 ADD DUP3 DUP1 SLOAD PUSH2 0xF6 SWAP1 PUSH2 0x4F6 JUMP JUMPDEST DUP1 ISZERO PUSH2 0x141 JUMPI DUP1 PUSH1 0x1F LT PUSH2 0x118 JUMPI PUSH2 0x100 DUP1 DUP4 SLOAD DIV MUL DUP4 MSTORE SWAP2 PUSH1 0x20 ADD SWAP2 PUSH2 0x141 JUMP JUMPDEST DUP3 ADD SWAP2 SWAP1 PUSH0 MSTORE PUSH1 0x20 PUSH0 KECCAK256 SWAP1 JUMPDEST DUP2 SLOAD DUP2 MSTORE SWAP1 PUSH1 0x1 ADD SWAP1 PUSH1 0x20 ADD DUP1 DUP4 GT PUSH2 0x124 JUMPI DUP3 SWAP1 SUB PUSH1 0x1F AND DUP3 ADD SWAP2 JUMPDEST POP POP POP POP POP SWAP1 DUP1 PUSH1 0x1 ADD SLOAD SWAP1 POP DUP3 JUMP JUMPDEST PUSH0 PUSH1 0x40 MLOAD DUP1 PUSH1 0x40 ADD PUSH1 0x40 MSTORE DUP1 DUP5 DUP2 MSTORE PUSH1 0x20 ADD DUP4 DUP2 MSTORE POP SWAP1 POP DUP1 PUSH0 DUP1 DUP7 DUP2 MSTORE PUSH1 0x20 ADD SWAP1 DUP2 MSTORE PUSH1 0x20 ADD PUSH0 KECCAK256 PUSH0 DUP3 ADD MLOAD DUP2 PUSH0 ADD SWAP1 DUP2 PUSH2 0x18D SWAP2 SWAP1 PUSH2 0x6C3 JUMP JUMPDEST POP PUSH1 0x20 DUP3 ADD MLOAD DUP2 PUSH1 0x1 ADD SSTORE SWAP1 POP POP POP POP POP POP JUMP JUMPDEST DUP1 PUSH0 DUP1 DUP5 DUP2 MSTORE PUSH1 0x20 ADD SWAP1 DUP2 MSTORE PUSH1 0x20 ADD PUSH0 KECCAK256 PUSH1 0x1 ADD DUP2 SWAP1 SSTORE POP POP POP JUMP JUMPDEST PUSH0 PUSH1 0x40 MLOAD SWAP1 POP SWAP1 JUMP JUMPDEST PUSH0 DUP1 REVERT JUMPDEST PUSH0 DUP1 REVERT JUMPDEST PUSH0 DUP2 SWAP1 POP SWAP2 SWAP1 POP JUMP JUMPDEST PUSH2 0x1E0 DUP2 PUSH2 0x1CE JUMP JUMPDEST DUP2 EQ PUSH2 0x1EA JUMPI PUSH0 DUP1 REVERT JUMPDEST POP JUMP JUMPDEST PUSH0 DUP2 CALLDATALOAD SWAP1 POP PUSH2 0x1FB DUP2 PUSH2 0x1D7 JUMP JUMPDEST SWAP3 SWAP2 POP POP JUMP JUMPDEST PUSH0 PUSH1 0x20 DUP3 DUP5 SUB SLT ISZERO PUSH2 0x216 JUMPI PUSH2 0x215 PUSH2 0x1C6 JUMP JUMPDEST JUMPDEST PUSH0 PUSH2 0x223 DUP5 DUP3 DUP6 ADD PUSH2 0x1ED JUMP JUMPDEST SWAP2 POP POP SWAP3 SWAP2 POP POP JUMP JUMPDEST PUSH0 DUP2 MLOAD SWAP1 POP SWAP2 SWAP1 POP JUMP JUMPDEST PUSH0 DUP3 DUP3 MSTORE PUSH1 0x20 DUP3 ADD SWAP1 POP SWAP3 SWAP2 POP POP JUMP JUMPDEST PUSH0 JUMPDEST DUP4 DUP2 LT ISZERO PUSH2 0x263 JUMPI DUP1 DUP3 ADD MLOAD DUP2 DUP5 ADD MSTORE PUSH1 0x20 DUP2 ADD SWAP1 POP PUSH2 0x248 JUMP JUMPDEST PUSH0 DUP5 DUP5 ADD MSTORE POP POP POP POP JUMP JUMPDEST PUSH0 PUSH1 0x1F NOT PUSH1 0x1F DUP4 ADD AND SWAP1 POP SWAP2 SWAP1 POP JUMP JUMPDEST PUSH0 PUSH2 0x288 DUP3 PUSH2 0x22C JUMP JUMPDEST PUSH2 0x292 DUP2 DUP6 PUSH2 0x236 JUMP JUMPDEST SWAP4 POP PUSH2 0x2A2 DUP2 DUP6 PUSH1 0x20 DUP7 ADD PUSH2 0x246 JUMP JUMPDEST PUSH2 0x2AB DUP2 PUSH2 0x26E JUMP JUMPDEST DUP5 ADD SWAP2 POP POP SWAP3 SWAP2 POP POP JUMP JUMPDEST PUSH2 0x2BF DUP2 PUSH2 0x1CE JUMP JUMPDEST DUP3 MSTORE POP POP JUMP JUMPDEST PUSH0 PUSH1 0x40 DUP3 ADD SWAP1 POP DUP2 DUP2 SUB PUSH0 DUP4 ADD MSTORE PUSH2 0x2DD DUP2 DUP6 PUSH2 0x27E JUMP JUMPDEST SWAP1 POP PUSH2 0x2EC PUSH1 0x20 DUP4 ADD DUP5 PUSH2 0x2B6 JUMP JUMPDEST SWAP4 SWAP3 POP POP POP JUMP JUMPDEST PUSH0 DUP1 REVERT JUMPDEST PUSH0 DUP1 REVERT JUMPDEST PUSH32 0x4E487B7100000000000000000000000000000000000000000000000000000000 PUSH0 MSTORE PUSH1 0x41 PUSH1 0x4 MSTORE PUSH1 0x24 PUSH0 REVERT JUMPDEST PUSH2 0x331 DUP3 PUSH2 0x26E JUMP JUMPDEST DUP2 ADD DUP2 DUP2 LT PUSH8 0xFFFFFFFFFFFFFFFF DUP3 GT OR ISZERO PUSH2 0x350 JUMPI PUSH2 0x34F PUSH2 0x2FB JUMP JUMPDEST JUMPDEST DUP1 PUSH1 0x40 MSTORE POP POP POP JUMP JUMPDEST PUSH0 PUSH2 0x362 PUSH2 0x1BD JUMP JUMPDEST SWAP1 POP PUSH2 0x36E DUP3 DUP3 PUSH2 0x328 JUMP JUMPDEST SWAP2 SWAP1 POP JUMP JUMPDEST PUSH0 PUSH8 0xFFFFFFFFFFFFFFFF DUP3 GT ISZERO PUSH2 0x38D JUMPI PUSH2 0x38C PUSH2 0x2FB JUMP JUMPDEST JUMPDEST PUSH2 0x396 DUP3 PUSH2 0x26E JUMP JUMPDEST SWAP1 POP PUSH1 0x20 DUP2 ADD SWAP1 POP SWAP2 SWAP1 POP JUMP JUMPDEST DUP3 DUP2 DUP4 CALLDATACOPY PUSH0 DUP4 DUP4 ADD MSTORE POP POP POP JUMP JUMPDEST PUSH0 PUSH2 0x3C3 PUSH2 0x3BE DUP5 PUSH2 0x373 JUMP JUMPDEST PUSH2 0x359 JUMP JUMPDEST SWAP1 POP DUP3 DUP2 MSTORE PUSH1 0x20 DUP2 ADD DUP5 DUP5 DUP5 ADD GT ISZERO PUSH2 0x3DF JUMPI PUSH2 0x3DE PUSH2 0x2F7 JUMP JUMPDEST JUMPDEST PUSH2 0x3EA DUP5 DUP3 DUP6 PUSH2 0x3A3 JUMP JUMPDEST POP SWAP4 SWAP3 POP POP POP JUMP JUMPDEST PUSH0 DUP3 PUSH1 0x1F DUP4 ADD SLT PUSH2 0x406 JUMPI PUSH2 0x405 PUSH2 0x2F3 JUMP JUMPDEST JUMPDEST DUP2 CALLDATALOAD PUSH2 0x416 DUP5 DUP3 PUSH1 0x20 DUP7 ADD PUSH2 0x3B1 JUMP JUMPDEST SWAP2 POP POP SWAP3 SWAP2 POP POP JUMP JUMPDEST PUSH0 DUP1 PUSH0 PUSH1 0x60 DUP5 DUP7 SUB SLT ISZERO PUSH2 0x436 JUMPI PUSH2 0x435 PUSH2 0x1C6 JUMP JUMPDEST JUMPDEST PUSH0 PUSH2 0x443 DUP7 DUP3 DUP8 ADD PUSH2 0x1ED JUMP JUMPDEST SWAP4 POP POP PUSH1 0x20 DUP5 ADD CALLDATALOAD PUSH8 0xFFFFFFFFFFFFFFFF DUP2 GT ISZERO PUSH2 0x464 JUMPI PUSH2 0x463 PUSH2 0x1CA JUMP JUMPDEST JUMPDEST PUSH2 0x470 DUP7 DUP3 DUP8 ADD PUSH2 0x3F2 JUMP JUMPDEST SWAP3 POP POP PUSH1 0x40 PUSH2 0x481 DUP7 DUP3 DUP8 ADD PUSH2 0x1ED JUMP JUMPDEST SWAP2 POP POP SWAP3 POP SWAP3 POP SWAP3 JUMP JUMPDEST PUSH0 DUP1 PUSH1 0x40 DUP4 DUP6 SUB SLT ISZERO PUSH2 0x4A1 JUMPI PUSH2 0x4A0 PUSH2 0x1C6 JUMP JUMPDEST JUMPDEST PUSH0 PUSH2 0x4AE DUP6 DUP3 DUP7 ADD PUSH2 0x1ED JUMP JUMPDEST SWAP3 POP POP PUSH1 0x20 PUSH2 0x4BF DUP6 DUP3 DUP7 ADD PUSH2 0x1ED JUMP JUMPDEST SWAP2 POP POP SWAP3 POP SWAP3 SWAP1 POP JUMP JUMPDEST PUSH32 0x4E487B7100000000000000000000000000000000000000000000000000000000 PUSH0 MSTORE PUSH1 0x22 PUSH1 0x4 MSTORE PUSH1 0x24 PUSH0 REVERT JUMPDEST PUSH0 PUSH1 0x2 DUP3 DIV SWAP1 POP PUSH1 0x1 DUP3 AND DUP1 PUSH2 0x50D JUMPI PUSH1 0x7F DUP3 AND SWAP2 POP JUMPDEST PUSH1 0x20 DUP3 LT DUP2 SUB PUSH2 0x520 JUMPI PUSH2 0x51F PUSH2 0x4C9 JUMP JUMPDEST JUMPDEST POP SWAP2 SWAP1 POP JUMP JUMPDEST PUSH0 DUP2 SWAP1 POP DUP2 PUSH0 MSTORE PUSH1 0x20 PUSH0 KECCAK256 SWAP1 POP SWAP2 SWAP1 POP JUMP JUMPDEST PUSH0 PUSH1 0x20 PUSH1 0x1F DUP4 ADD DIV SWAP1 POP SWAP2 SWAP1 POP JUMP JUMPDEST PUSH0 DUP3 DUP3 SHL SWAP1 POP SWAP3 SWAP2 POP POP JUMP JUMPDEST PUSH0 PUSH1 0x8 DUP4 MUL PUSH2 0x582 PUSH32 0xFFFFFFFFFFFFFFFFFFFFFFFFFFFFFFFFFFFFFFFFFFFFFFFFFFFFFFFFFFFFFFFF DUP3 PUSH2 0x547 JUMP JUMPDEST PUSH2 0x58C DUP7 DUP4 PUSH2 0x547 JUMP JUMPDEST SWAP6 POP DUP1 NOT DUP5 AND SWAP4 POP DUP1 DUP7 AND DUP5 OR SWAP3 POP POP POP SWAP4 SWAP3 POP POP POP JUMP JUMPDEST PUSH0 DUP2 SWAP1 POP SWAP2 SWAP1 POP JUMP JUMPDEST PUSH0 PUSH2 0x5C7 PUSH2 0x5C2 PUSH2 0x5BD DUP5 PUSH2 0x1CE JUMP JUMPDEST PUSH2 0x5A4 JUMP JUMPDEST PUSH2 0x1CE JUMP JUMPDEST SWAP1 POP SWAP2 SWAP1 POP JUMP JUMPDEST PUSH0 DUP2 SWAP1 POP SWAP2 SWAP1 POP JUMP JUMPDEST PUSH2 0x5E0 DUP4 PUSH2 0x5AD JUMP JUMPDEST PUSH2 0x5F4 PUSH2 0x5EC DUP3 PUSH2 0x5CE JUMP JUMPDEST DUP5 DUP5 SLOAD PUSH2 0x553 JUMP JUMPDEST DUP3 SSTORE POP POP POP POP JUMP JUMPDEST PUSH0 SWAP1 JUMP JUMPDEST PUSH2 0x608 PUSH2 0x5FC JUMP JUMPDEST PUSH2 0x613 DUP2 DUP5 DUP5 PUSH2 0x5D7 JUMP JUMPDEST POP POP POP JUMP JUMPDEST JUMPDEST DUP2 DUP2 LT ISZERO PUSH2 0x636 JUMPI PUSH2 0x62B PUSH0 DUP3 PUSH2 0x600 JUMP JUMPDEST PUSH1 0x1 DUP2 ADD SWAP1 POP PUSH2 0x619 JUMP JUMPDEST POP POP JUMP JUMPDEST PUSH1 0x1F DUP3 GT ISZERO PUSH2 0x67B JUMPI PUSH2 0x64C DUP2 PUSH2 0x526 JUMP JUMPDEST PUSH2 0x655 DUP5 PUSH2 0x538 JUMP JUMPDEST DUP2 ADD PUSH1 0x20 DUP6 LT ISZERO PUSH2 0x664 JUMPI DUP2 SWAP1 POP JUMPDEST PUSH2 0x678 PUSH2 0x670 DUP6 PUSH2 0x538 JUMP JUMPDEST DUP4 ADD DUP3 PUSH2 0x618 JUMP JUMPDEST POP POP JUMPDEST POP POP POP JUMP JUMPDEST PUSH0 DUP3 DUP3 SHR SWAP1 POP SWAP3 SWAP2 POP POP JUMP JUMPDEST PUSH0 PUSH2 0x69B PUSH0 NOT DUP5 PUSH1 0x8 MUL PUSH2 0x680 JUMP JUMPDEST NOT DUP1 DUP4 AND SWAP2 POP POP SWAP3 SWAP2 POP POP JUMP JUMPDEST PUSH0 PUSH2 0x6B3 DUP4 DUP4 PUSH2 0x68C JUMP JUMPDEST SWAP2 POP DUP3 PUSH1 0x2 MUL DUP3 OR SWAP1 POP SWAP3 SWAP2 POP POP JUMP JUMPDEST PUSH2 0x6CC DUP3 PUSH2 0x22C JUMP JUMPDEST PUSH8 0xFFFFFFFFFFFFFFFF DUP2 GT ISZERO PUSH2 0x6E5 JUMPI PUSH2 0x6E4 PUSH2 0x2FB JUMP JUMPDEST JUMPDEST PUSH2 0x6EF DUP3 SLOAD PUSH2 0x4F6 JUMP JUMPDEST PUSH2 0x6FA DUP3 DUP3 DUP6 PUSH2 0x63A JUMP JUMPDEST PUSH0 PUSH1 0x20 SWAP1 POP PUSH1 0x1F DUP4 GT PUSH1 0x1 DUP2 EQ PUSH2 0x72B JUMPI PUSH0 DUP5 ISZERO PUSH2 0x719 JUMPI DUP3 DUP8 ADD MLOAD SWAP1 POP JUMPDEST PUSH2 0x723 DUP6 DUP3 PUSH2 0x6A8 JUMP JUMPDEST DUP7 SSTORE POP PUSH2 0x78A JUMP JUMPDEST PUSH1 0x1F NOT DUP5 AND PUSH2 0x739 DUP7 PUSH2 0x526 JUMP JUMPDEST PUSH0 JUMPDEST DUP3 DUP2 LT ISZERO PUSH2 0x760 JUMPI DUP5 DUP10 ADD MLOAD DUP3 SSTORE PUSH1 0x1 DUP3 ADD SWAP2 POP PUSH1 0x20 DUP6 ADD SWAP5 POP PUSH1 0x20 DUP2 ADD SWAP1 POP PUSH2 0x73B JUMP JUMPDEST DUP7 DUP4 LT ISZERO PUSH2 0x77D JUMPI DUP5 DUP10 ADD MLOAD PUSH2 0x779 PUSH1 0x1F DUP10 AND DUP3 PUSH2 0x68C JUMP JUMPDEST DUP4 SSTORE POP JUMPDEST PUSH1 0x1 PUSH1 0x2 DUP9 MUL ADD DUP9 SSTORE POP POP POP JUMPDEST POP POP POP POP POP POP JUMP INVALID LOG2 PUSH5 0x6970667358 0x22 SLT KECCAK256 AND PUSH7 0xFFE70F9B819989 DIV 0xBB SWAP10 BLOBHASH LOG2 CALL 0x23 0xEB 0xCA ADDMOD DUP4 0x23 0xF6 PUSH30 0xB40E9C7CFAAF30EB0064736F6C6343000818003300000000000000000000 "
				},
				"gasEstimates": {
					"creation": {
						"codeDepositCost": "398400",
						"executionCost": "434",
						"totalCost": "398834"
					},
					"external": {
						"addproductdetails(uint256,string,uint256)": "infinite",
						"products(uint256)": "infinite",
						"updateProductPrice(uint256,uint256)": "infinite"
					}
				},
				"methodIdentifiers": {
					"addproductdetails(uint256,string,uint256)": "8986cfc9",
					"products(uint256)": "7acc0b20",
					"updateProductPrice(uint256,uint256)": "9c3bddb2"
				}
			},
			"storageLayout": {
				"storage": [
					{
						"astId": 11,
						"contract": "contracts/ClassWork/classwork8.sol:UpdatePrice",
						"label": "products",
						"offset": 0,
						"slot": "0",
						"type": "t_mapping(t_uint256,t_struct(product)6_storage)"
					}
				],
				"types": {
					"t_mapping(t_uint256,t_struct(product)6_storage)": {
						"encoding": "mapping",
						"key": "t_uint256",
						"label": "mapping(uint256 => struct UpdatePrice.product)",
						"numberOfBytes": "32",
						"value": "t_struct(product)6_storage"
					},
					"t_string_storage": {
						"encoding": "bytes",
						"label": "string",
						"numberOfBytes": "32"
					},
					"t_struct(product)6_storage": {
						"encoding": "inplace",
						"label": "struct UpdatePrice.product",
						"members": [
							{
								"astId": 3,
								"contract": "contracts/ClassWork/classwork8.sol:UpdatePrice",
								"label": "productName",
								"offset": 0,
								"slot": "0",
								"type": "t_string_storage"
							},
							{
								"astId": 5,
								"contract": "contracts/ClassWork/classwork8.sol:UpdatePrice",
								"label": "price",
								"offset": 0,
								"slot": "1",
								"type": "t_uint256"
							}
						],
						"numberOfBytes": "64"
					},
					"t_uint256": {
						"encoding": "inplace",
						"label": "uint256",
						"numberOfBytes": "32"
					}
				}
			},
			"userdoc": {
				"kind": "user",
				"methods": {},
				"version": 1
			}
		}
	}
}