{
	"contracts/ClassWork/1_contactList.sol": {
		"ContactList": {
			"abi": [
				{
					"inputs": [
						{
							"internalType": "string",
							"name": "name",
							"type": "string"
						},
						{
							"internalType": "string",
							"name": "PhoneNo",
							"type": "string"
						}
					],
					"name": "AddContact",
					"outputs": [],
					"stateMutability": "nonpayable",
					"type": "function"
				},
				{
					"inputs": [],
					"name": "Getcontact",
					"outputs": [
						{
							"internalType": "string",
							"name": "",
							"type": "string"
						},
						{
							"internalType": "string",
							"name": "",
							"type": "string"
						}
					],
					"stateMutability": "view",
					"type": "function"
				},
				{
					"inputs": [
						{
							"internalType": "address",
							"name": "",
							"type": "address"
						}
					],
					"name": "contactdetails",
					"outputs": [
						{
							"internalType": "string",
							"name": "Name",
							"type": "string"
						},
						{
							"internalType": "string",
							"name": "PhoneNo",
							"type": "string"
						}
					],
					"stateMutability": "view",
					"type": "function"
				}
			],
			"devdoc": {
				"kind": "dev",
				"methods": {},
				"version": 1
			},
			"evm": {
				"assembly": "    /* \"contracts/ClassWork/1_contactList.sol\":556:1120  contract ContactList{... */\n  mstore(0x40, 0x80)\n  callvalue\n  dup1\n  iszero\n  tag_1\n  jumpi\n  0x00\n  dup1\n  revert\ntag_1:\n  pop\n  dataSize(sub_0)\n  dup1\n  dataOffset(sub_0)\n  0x00\n  codecopy\n  0x00\n  return\nstop\n\nsub_0: assembly {\n        /* \"contracts/ClassWork/1_contactList.sol\":556:1120  contract ContactList{... */\n      mstore(0x40, 0x80)\n      callvalue\n      dup1\n      iszero\n      tag_1\n      jumpi\n      0x00\n      dup1\n      revert\n    tag_1:\n      pop\n      jumpi(tag_2, lt(calldatasize, 0x04))\n      shr(0xe0, calldataload(0x00))\n      dup1\n      0x045930ee\n      eq\n      tag_3\n      jumpi\n      dup1\n      0x6203a83b\n      eq\n      tag_4\n      jumpi\n      dup1\n      0xfe4aefbd\n      eq\n      tag_5\n      jumpi\n    tag_2:\n      0x00\n      dup1\n      revert\n        /* \"contracts/ClassWork/1_contactList.sol\":717:915  function AddContact(string memory name,string memory PhoneNo ) public {... */\n    tag_3:\n      tag_6\n      0x04\n      dup1\n      calldatasize\n      sub\n      dup2\n      add\n      swap1\n      tag_7\n      swap2\n      swap1\n      tag_8\n      jump\t// in\n    tag_7:\n      tag_9\n      jump\t// in\n    tag_6:\n      stop\n        /* \"contracts/ClassWork/1_contactList.sol\":923:1117  function Getcontact()public view returns(string memory,string memory){... */\n    tag_4:\n      tag_10\n      tag_11\n      jump\t// in\n    tag_10:\n      mload(0x40)\n      tag_12\n      swap3\n      swap2\n      swap1\n      tag_13\n      jump\t// in\n    tag_12:\n      mload(0x40)\n      dup1\n      swap2\n      sub\n      swap1\n      return\n        /* \"contracts/ClassWork/1_contactList.sol\":660:708  mapping (address=>contact) public contactdetails */\n    tag_5:\n      tag_14\n      0x04\n      dup1\n      calldatasize\n      sub\n      dup2\n      add\n      swap1\n      tag_15\n      swap2\n      swap1\n      tag_16\n      jump\t// in\n    tag_15:\n      tag_17\n      jump\t// in\n    tag_14:\n      mload(0x40)\n      tag_18\n      swap3\n      swap2\n      swap1\n      tag_13\n      jump\t// in\n    tag_18:\n      mload(0x40)\n      dup1\n      swap2\n      sub\n      swap1\n      return\n        /* \"contracts/ClassWork/1_contactList.sol\":717:915  function AddContact(string memory name,string memory PhoneNo ) public {... */\n    tag_9:\n        /* \"contracts/ClassWork/1_contactList.sol\":886:907  contact(name,PhoneNo) */\n      mload(0x40)\n      dup1\n      0x40\n      add\n      0x40\n      mstore\n      dup1\n        /* \"contracts/ClassWork/1_contactList.sol\":894:898  name */\n      dup4\n        /* \"contracts/ClassWork/1_contactList.sol\":886:907  contact(name,PhoneNo) */\n      dup2\n      mstore\n      0x20\n      add\n        /* \"contracts/ClassWork/1_contactList.sol\":899:906  PhoneNo */\n      dup3\n        /* \"contracts/ClassWork/1_contactList.sol\":886:907  contact(name,PhoneNo) */\n      dup2\n      mstore\n      pop\n        /* \"contracts/ClassWork/1_contactList.sol\":859:873  contactdetails */\n      0x00\n        /* \"contracts/ClassWork/1_contactList.sol\":859:885  contactdetails[msg.sender] */\n      dup1\n        /* \"contracts/ClassWork/1_contactList.sol\":874:884  msg.sender */\n      caller\n        /* \"contracts/ClassWork/1_contactList.sol\":859:885  contactdetails[msg.sender] */\n      0xffffffffffffffffffffffffffffffffffffffff\n      and\n      0xffffffffffffffffffffffffffffffffffffffff\n      and\n      dup2\n      mstore\n      0x20\n      add\n      swap1\n      dup2\n      mstore\n      0x20\n      add\n      0x00\n      keccak256\n        /* \"contracts/ClassWork/1_contactList.sol\":859:907  contactdetails[msg.sender]=contact(name,PhoneNo) */\n      0x00\n      dup3\n      add\n      mload\n      dup2\n      0x00\n      add\n      swap1\n      dup2\n      tag_20\n      swap2\n      swap1\n      tag_21\n      jump\t// in\n    tag_20:\n      pop\n      0x20\n      dup3\n      add\n      mload\n      dup2\n      0x01\n      add\n      swap1\n      dup2\n      tag_22\n      swap2\n      swap1\n      tag_21\n      jump\t// in\n    tag_22:\n      pop\n      swap1\n      pop\n      pop\n        /* \"contracts/ClassWork/1_contactList.sol\":717:915  function AddContact(string memory name,string memory PhoneNo ) public {... */\n      pop\n      pop\n      jump\t// out\n        /* \"contracts/ClassWork/1_contactList.sol\":923:1117  function Getcontact()public view returns(string memory,string memory){... */\n    tag_11:\n        /* \"contracts/ClassWork/1_contactList.sol\":964:977  string memory */\n      0x60\n        /* \"contracts/ClassWork/1_contactList.sol\":978:991  string memory */\n      dup1\n        /* \"contracts/ClassWork/1_contactList.sol\":1003:1028  contact memory newcontact */\n      0x00\n        /* \"contracts/ClassWork/1_contactList.sol\":1029:1043  contactdetails */\n      dup1\n        /* \"contracts/ClassWork/1_contactList.sol\":1029:1055  contactdetails[msg.sender] */\n      0x00\n        /* \"contracts/ClassWork/1_contactList.sol\":1044:1054  msg.sender */\n      caller\n        /* \"contracts/ClassWork/1_contactList.sol\":1029:1055  contactdetails[msg.sender] */\n      0xffffffffffffffffffffffffffffffffffffffff\n      and\n      0xffffffffffffffffffffffffffffffffffffffff\n      and\n      dup2\n      mstore\n      0x20\n      add\n      swap1\n      dup2\n      mstore\n      0x20\n      add\n      0x00\n      keccak256\n        /* \"contracts/ClassWork/1_contactList.sol\":1003:1055  contact memory newcontact=contactdetails[msg.sender] */\n      mload(0x40)\n      dup1\n      0x40\n      add\n      0x40\n      mstore\n      swap1\n      dup2\n      0x00\n      dup3\n      add\n      dup1\n      sload\n      tag_24\n      swap1\n      tag_25\n      jump\t// in\n    tag_24:\n      dup1\n      0x1f\n      add\n      0x20\n      dup1\n      swap2\n      div\n      mul\n      0x20\n      add\n      mload(0x40)\n      swap1\n      dup2\n      add\n      0x40\n      mstore\n      dup1\n      swap3\n      swap2\n      swap1\n      dup2\n      dup2\n      mstore\n      0x20\n      add\n      dup3\n      dup1\n      sload\n      tag_26\n      swap1\n      tag_25\n      jump\t// in\n    tag_26:\n      dup1\n      iszero\n      tag_27\n      jumpi\n      dup1\n      0x1f\n      lt\n      tag_28\n      jumpi\n      0x0100\n      dup1\n      dup4\n      sload\n      div\n      mul\n      dup4\n      mstore\n      swap2\n      0x20\n      add\n      swap2\n      jump(tag_27)\n    tag_28:\n      dup3\n      add\n      swap2\n      swap1\n      0x00\n      mstore\n      keccak256(0x00, 0x20)\n      swap1\n    tag_29:\n      dup2\n      sload\n      dup2\n      mstore\n      swap1\n      0x01\n      add\n      swap1\n      0x20\n      add\n      dup1\n      dup4\n      gt\n      tag_29\n      jumpi\n      dup3\n      swap1\n      sub\n      0x1f\n      and\n      dup3\n      add\n      swap2\n    tag_27:\n      pop\n      pop\n      pop\n      pop\n      pop\n      dup2\n      mstore\n      0x20\n      add\n      0x01\n      dup3\n      add\n      dup1\n      sload\n      tag_30\n      swap1\n      tag_25\n      jump\t// in\n    tag_30:\n      dup1\n      0x1f\n      add\n      0x20\n      dup1\n      swap2\n      div\n      mul\n      0x20\n      add\n      mload(0x40)\n      swap1\n      dup2\n      add\n      0x40\n      mstore\n      dup1\n      swap3\n      swap2\n      swap1\n      dup2\n      dup2\n      mstore\n      0x20\n      add\n      dup3\n      dup1\n      sload\n      tag_31\n      swap1\n      tag_25\n      jump\t// in\n    tag_31:\n      dup1\n      iszero\n      tag_32\n      jumpi\n      dup1\n      0x1f\n      lt\n      tag_33\n      jumpi\n      0x0100\n      dup1\n      dup4\n      sload\n      div\n      mul\n      dup4\n      mstore\n      swap2\n      0x20\n      add\n      swap2\n      jump(tag_32)\n    tag_33:\n      dup3\n      add\n      swap2\n      swap1\n      0x00\n      mstore\n      keccak256(0x00, 0x20)\n      swap1\n    tag_34:\n      dup2\n      sload\n      dup2\n      mstore\n      swap1\n      0x01\n      add\n      swap1\n      0x20\n      add\n      dup1\n      dup4\n      gt\n      tag_34\n      jumpi\n      dup3\n      swap1\n      sub\n      0x1f\n      and\n      dup3\n      add\n      swap2\n    tag_32:\n      pop\n      pop\n      pop\n      pop\n      pop\n      dup2\n      mstore\n      pop\n      pop\n      swap1\n      pop\n        /* \"contracts/ClassWork/1_contactList.sol\":1074:1084  newcontact */\n      dup1\n        /* \"contracts/ClassWork/1_contactList.sol\":1074:1089  newcontact.Name */\n      0x00\n      add\n      mload\n        /* \"contracts/ClassWork/1_contactList.sol\":1090:1100  newcontact */\n      dup2\n        /* \"contracts/ClassWork/1_contactList.sol\":1090:1108  newcontact.PhoneNo */\n      0x20\n      add\n      mload\n        /* \"contracts/ClassWork/1_contactList.sol\":1066:1109  return (newcontact.Name,newcontact.PhoneNo) */\n      swap3\n      pop\n      swap3\n      pop\n      pop\n        /* \"contracts/ClassWork/1_contactList.sol\":923:1117  function Getcontact()public view returns(string memory,string memory){... */\n      swap1\n      swap2\n      jump\t// out\n        /* \"contracts/ClassWork/1_contactList.sol\":660:708  mapping (address=>contact) public contactdetails */\n    tag_17:\n      mstore(0x20, 0x00)\n      dup1\n      0x00\n      mstore\n      keccak256(0x00, 0x40)\n      0x00\n      swap2\n      pop\n      swap1\n      pop\n      dup1\n      0x00\n      add\n      dup1\n      sload\n      tag_35\n      swap1\n      tag_25\n      jump\t// in\n    tag_35:\n      dup1\n      0x1f\n      add\n      0x20\n      dup1\n      swap2\n      div\n      mul\n      0x20\n      add\n      mload(0x40)\n      swap1\n      dup2\n      add\n      0x40\n      mstore\n      dup1\n      swap3\n      swap2\n      swap1\n      dup2\n      dup2\n      mstore\n      0x20\n      add\n      dup3\n      dup1\n      sload\n      tag_36\n      swap1\n      tag_25\n      jump\t// in\n    tag_36:\n      dup1\n      iszero\n      tag_37\n      jumpi\n      dup1\n      0x1f\n      lt\n      tag_38\n      jumpi\n      0x0100\n      dup1\n      dup4\n      sload\n      div\n      mul\n      dup4\n      mstore\n      swap2\n      0x20\n      add\n      swap2\n      jump(tag_37)\n    tag_38:\n      dup3\n      add\n      swap2\n      swap1\n      0x00\n      mstore\n      keccak256(0x00, 0x20)\n      swap1\n    tag_39:\n      dup2\n      sload\n      dup2\n      mstore\n      swap1\n      0x01\n      add\n      swap1\n      0x20\n      add\n      dup1\n      dup4\n      gt\n      tag_39\n      jumpi\n      dup3\n      swap1\n      sub\n      0x1f\n      and\n      dup3\n      add\n      swap2\n    tag_37:\n      pop\n      pop\n      pop\n      pop\n      pop\n      swap1\n      dup1\n      0x01\n      add\n      dup1\n      sload\n      tag_40\n      swap1\n      tag_25\n      jump\t// in\n    tag_40:\n      dup1\n      0x1f\n      add\n      0x20\n      dup1\n      swap2\n      div\n      mul\n      0x20\n      add\n      mload(0x40)\n      swap1\n      dup2\n      add\n      0x40\n      mstore\n      dup1\n      swap3\n      swap2\n      swap1\n      dup2\n      dup2\n      mstore\n      0x20\n      add\n      dup3\n      dup1\n      sload\n      tag_41\n      swap1\n      tag_25\n      jump\t// in\n    tag_41:\n      dup1\n      iszero\n      tag_42\n      jumpi\n      dup1\n      0x1f\n      lt\n      tag_43\n      jumpi\n      0x0100\n      dup1\n      dup4\n      sload\n      div\n      mul\n      dup4\n      mstore\n      swap2\n      0x20\n      add\n      swap2\n      jump(tag_42)\n    tag_43:\n      dup3\n      add\n      swap2\n      swap1\n      0x00\n      mstore\n      keccak256(0x00, 0x20)\n      swap1\n    tag_44:\n      dup2\n      sload\n      dup2\n      mstore\n      swap1\n      0x01\n      add\n      swap1\n      0x20\n      add\n      dup1\n      dup4\n      gt\n      tag_44\n      jumpi\n      dup3\n      swap1\n      sub\n      0x1f\n      and\n      dup3\n      add\n      swap2\n    tag_42:\n      pop\n      pop\n      pop\n      pop\n      pop\n      swap1\n      pop\n      dup3\n      jump\t// out\n        /* \"#utility.yul\":7:82   */\n    tag_45:\n        /* \"#utility.yul\":40:46   */\n      0x00\n        /* \"#utility.yul\":73:75   */\n      0x40\n        /* \"#utility.yul\":67:76   */\n      mload\n        /* \"#utility.yul\":57:76   */\n      swap1\n      pop\n        /* \"#utility.yul\":7:82   */\n      swap1\n      jump\t// out\n        /* \"#utility.yul\":88:205   */\n    tag_46:\n        /* \"#utility.yul\":197:198   */\n      0x00\n        /* \"#utility.yul\":194:195   */\n      dup1\n        /* \"#utility.yul\":187:199   */\n      revert\n        /* \"#utility.yul\":211:328   */\n    tag_47:\n        /* \"#utility.yul\":320:321   */\n      0x00\n        /* \"#utility.yul\":317:318   */\n      dup1\n        /* \"#utility.yul\":310:322   */\n      revert\n        /* \"#utility.yul\":334:451   */\n    tag_48:\n        /* \"#utility.yul\":443:444   */\n      0x00\n        /* \"#utility.yul\":440:441   */\n      dup1\n        /* \"#utility.yul\":433:445   */\n      revert\n        /* \"#utility.yul\":457:574   */\n    tag_49:\n        /* \"#utility.yul\":566:567   */\n      0x00\n        /* \"#utility.yul\":563:564   */\n      dup1\n        /* \"#utility.yul\":556:568   */\n      revert\n        /* \"#utility.yul\":580:682   */\n    tag_50:\n        /* \"#utility.yul\":621:627   */\n      0x00\n        /* \"#utility.yul\":672:674   */\n      0x1f\n        /* \"#utility.yul\":668:675   */\n      not\n        /* \"#utility.yul\":663:665   */\n      0x1f\n        /* \"#utility.yul\":656:661   */\n      dup4\n        /* \"#utility.yul\":652:666   */\n      add\n        /* \"#utility.yul\":648:676   */\n      and\n        /* \"#utility.yul\":638:676   */\n      swap1\n      pop\n        /* \"#utility.yul\":580:682   */\n      swap2\n      swap1\n      pop\n      jump\t// out\n        /* \"#utility.yul\":688:868   */\n    tag_51:\n        /* \"#utility.yul\":736:813   */\n      0x4e487b7100000000000000000000000000000000000000000000000000000000\n        /* \"#utility.yul\":733:734   */\n      0x00\n        /* \"#utility.yul\":726:814   */\n      mstore\n        /* \"#utility.yul\":833:837   */\n      0x41\n        /* \"#utility.yul\":830:831   */\n      0x04\n        /* \"#utility.yul\":823:838   */\n      mstore\n        /* \"#utility.yul\":857:861   */\n      0x24\n        /* \"#utility.yul\":854:855   */\n      0x00\n        /* \"#utility.yul\":847:862   */\n      revert\n        /* \"#utility.yul\":874:1155   */\n    tag_52:\n        /* \"#utility.yul\":957:984   */\n      tag_92\n        /* \"#utility.yul\":979:983   */\n      dup3\n        /* \"#utility.yul\":957:984   */\n      tag_50\n      jump\t// in\n    tag_92:\n        /* \"#utility.yul\":949:955   */\n      dup2\n        /* \"#utility.yul\":945:985   */\n      add\n        /* \"#utility.yul\":1087:1093   */\n      dup2\n        /* \"#utility.yul\":1075:1085   */\n      dup2\n        /* \"#utility.yul\":1072:1094   */\n      lt\n        /* \"#utility.yul\":1051:1069   */\n      0xffffffffffffffff\n        /* \"#utility.yul\":1039:1049   */\n      dup3\n        /* \"#utility.yul\":1036:1070   */\n      gt\n        /* \"#utility.yul\":1033:1095   */\n      or\n        /* \"#utility.yul\":1030:1118   */\n      iszero\n      tag_93\n      jumpi\n        /* \"#utility.yul\":1098:1116   */\n      tag_94\n      tag_51\n      jump\t// in\n    tag_94:\n        /* \"#utility.yul\":1030:1118   */\n    tag_93:\n        /* \"#utility.yul\":1138:1148   */\n      dup1\n        /* \"#utility.yul\":1134:1136   */\n      0x40\n        /* \"#utility.yul\":1127:1149   */\n      mstore\n        /* \"#utility.yul\":917:1155   */\n      pop\n        /* \"#utility.yul\":874:1155   */\n      pop\n      pop\n      jump\t// out\n        /* \"#utility.yul\":1161:1290   */\n    tag_53:\n        /* \"#utility.yul\":1195:1201   */\n      0x00\n        /* \"#utility.yul\":1222:1242   */\n      tag_96\n      tag_45\n      jump\t// in\n    tag_96:\n        /* \"#utility.yul\":1212:1242   */\n      swap1\n      pop\n        /* \"#utility.yul\":1251:1284   */\n      tag_97\n        /* \"#utility.yul\":1279:1283   */\n      dup3\n        /* \"#utility.yul\":1271:1277   */\n      dup3\n        /* \"#utility.yul\":1251:1284   */\n      tag_52\n      jump\t// in\n    tag_97:\n        /* \"#utility.yul\":1161:1290   */\n      swap2\n      swap1\n      pop\n      jump\t// out\n        /* \"#utility.yul\":1296:1604   */\n    tag_54:\n        /* \"#utility.yul\":1358:1362   */\n      0x00\n        /* \"#utility.yul\":1448:1466   */\n      0xffffffffffffffff\n        /* \"#utility.yul\":1440:1446   */\n      dup3\n        /* \"#utility.yul\":1437:1467   */\n      gt\n        /* \"#utility.yul\":1434:1490   */\n      iszero\n      tag_99\n      jumpi\n        /* \"#utility.yul\":1470:1488   */\n      tag_100\n      tag_51\n      jump\t// in\n    tag_100:\n        /* \"#utility.yul\":1434:1490   */\n    tag_99:\n        /* \"#utility.yul\":1508:1537   */\n      tag_101\n        /* \"#utility.yul\":1530:1536   */\n      dup3\n        /* \"#utility.yul\":1508:1537   */\n      tag_50\n      jump\t// in\n    tag_101:\n        /* \"#utility.yul\":1500:1537   */\n      swap1\n      pop\n        /* \"#utility.yul\":1592:1596   */\n      0x20\n        /* \"#utility.yul\":1586:1590   */\n      dup2\n        /* \"#utility.yul\":1582:1597   */\n      add\n        /* \"#utility.yul\":1574:1597   */\n      swap1\n      pop\n        /* \"#utility.yul\":1296:1604   */\n      swap2\n      swap1\n      pop\n      jump\t// out\n        /* \"#utility.yul\":1610:1758   */\n    tag_55:\n        /* \"#utility.yul\":1708:1714   */\n      dup3\n        /* \"#utility.yul\":1703:1706   */\n      dup2\n        /* \"#utility.yul\":1698:1701   */\n      dup4\n        /* \"#utility.yul\":1685:1715   */\n      calldatacopy\n        /* \"#utility.yul\":1749:1750   */\n      0x00\n        /* \"#utility.yul\":1740:1746   */\n      dup4\n        /* \"#utility.yul\":1735:1738   */\n      dup4\n        /* \"#utility.yul\":1731:1747   */\n      add\n        /* \"#utility.yul\":1724:1751   */\n      mstore\n        /* \"#utility.yul\":1610:1758   */\n      pop\n      pop\n      pop\n      jump\t// out\n        /* \"#utility.yul\":1764:2189   */\n    tag_56:\n        /* \"#utility.yul\":1842:1847   */\n      0x00\n        /* \"#utility.yul\":1867:1933   */\n      tag_104\n        /* \"#utility.yul\":1883:1932   */\n      tag_105\n        /* \"#utility.yul\":1925:1931   */\n      dup5\n        /* \"#utility.yul\":1883:1932   */\n      tag_54\n      jump\t// in\n    tag_105:\n        /* \"#utility.yul\":1867:1933   */\n      tag_53\n      jump\t// in\n    tag_104:\n        /* \"#utility.yul\":1858:1933   */\n      swap1\n      pop\n        /* \"#utility.yul\":1956:1962   */\n      dup3\n        /* \"#utility.yul\":1949:1954   */\n      dup2\n        /* \"#utility.yul\":1942:1963   */\n      mstore\n        /* \"#utility.yul\":1994:1998   */\n      0x20\n        /* \"#utility.yul\":1987:1992   */\n      dup2\n        /* \"#utility.yul\":1983:1999   */\n      add\n        /* \"#utility.yul\":2032:2035   */\n      dup5\n        /* \"#utility.yul\":2023:2029   */\n      dup5\n        /* \"#utility.yul\":2018:2021   */\n      dup5\n        /* \"#utility.yul\":2014:2030   */\n      add\n        /* \"#utility.yul\":2011:2036   */\n      gt\n        /* \"#utility.yul\":2008:2120   */\n      iszero\n      tag_106\n      jumpi\n        /* \"#utility.yul\":2039:2118   */\n      tag_107\n      tag_49\n      jump\t// in\n    tag_107:\n        /* \"#utility.yul\":2008:2120   */\n    tag_106:\n        /* \"#utility.yul\":2129:2183   */\n      tag_108\n        /* \"#utility.yul\":2176:2182   */\n      dup5\n        /* \"#utility.yul\":2171:2174   */\n      dup3\n        /* \"#utility.yul\":2166:2169   */\n      dup6\n        /* \"#utility.yul\":2129:2183   */\n      tag_55\n      jump\t// in\n    tag_108:\n        /* \"#utility.yul\":1848:2189   */\n      pop\n        /* \"#utility.yul\":1764:2189   */\n      swap4\n      swap3\n      pop\n      pop\n      pop\n      jump\t// out\n        /* \"#utility.yul\":2209:2549   */\n    tag_57:\n        /* \"#utility.yul\":2265:2270   */\n      0x00\n        /* \"#utility.yul\":2314:2317   */\n      dup3\n        /* \"#utility.yul\":2307:2311   */\n      0x1f\n        /* \"#utility.yul\":2299:2305   */\n      dup4\n        /* \"#utility.yul\":2295:2312   */\n      add\n        /* \"#utility.yul\":2291:2318   */\n      slt\n        /* \"#utility.yul\":2281:2403   */\n      tag_110\n      jumpi\n        /* \"#utility.yul\":2322:2401   */\n      tag_111\n      tag_48\n      jump\t// in\n    tag_111:\n        /* \"#utility.yul\":2281:2403   */\n    tag_110:\n        /* \"#utility.yul\":2439:2445   */\n      dup2\n        /* \"#utility.yul\":2426:2446   */\n      calldataload\n        /* \"#utility.yul\":2464:2543   */\n      tag_112\n        /* \"#utility.yul\":2539:2542   */\n      dup5\n        /* \"#utility.yul\":2531:2537   */\n      dup3\n        /* \"#utility.yul\":2524:2528   */\n      0x20\n        /* \"#utility.yul\":2516:2522   */\n      dup7\n        /* \"#utility.yul\":2512:2529   */\n      add\n        /* \"#utility.yul\":2464:2543   */\n      tag_56\n      jump\t// in\n    tag_112:\n        /* \"#utility.yul\":2455:2543   */\n      swap2\n      pop\n        /* \"#utility.yul\":2271:2549   */\n      pop\n        /* \"#utility.yul\":2209:2549   */\n      swap3\n      swap2\n      pop\n      pop\n      jump\t// out\n        /* \"#utility.yul\":2555:3389   */\n    tag_8:\n        /* \"#utility.yul\":2643:2649   */\n      0x00\n        /* \"#utility.yul\":2651:2657   */\n      dup1\n        /* \"#utility.yul\":2700:2702   */\n      0x40\n        /* \"#utility.yul\":2688:2697   */\n      dup4\n        /* \"#utility.yul\":2679:2686   */\n      dup6\n        /* \"#utility.yul\":2675:2698   */\n      sub\n        /* \"#utility.yul\":2671:2703   */\n      slt\n        /* \"#utility.yul\":2668:2787   */\n      iszero\n      tag_114\n      jumpi\n        /* \"#utility.yul\":2706:2785   */\n      tag_115\n      tag_46\n      jump\t// in\n    tag_115:\n        /* \"#utility.yul\":2668:2787   */\n    tag_114:\n        /* \"#utility.yul\":2854:2855   */\n      0x00\n        /* \"#utility.yul\":2843:2852   */\n      dup4\n        /* \"#utility.yul\":2839:2856   */\n      add\n        /* \"#utility.yul\":2826:2857   */\n      calldataload\n        /* \"#utility.yul\":2884:2902   */\n      0xffffffffffffffff\n        /* \"#utility.yul\":2876:2882   */\n      dup2\n        /* \"#utility.yul\":2873:2903   */\n      gt\n        /* \"#utility.yul\":2870:2987   */\n      iszero\n      tag_116\n      jumpi\n        /* \"#utility.yul\":2906:2985   */\n      tag_117\n      tag_47\n      jump\t// in\n    tag_117:\n        /* \"#utility.yul\":2870:2987   */\n    tag_116:\n        /* \"#utility.yul\":3011:3074   */\n      tag_118\n        /* \"#utility.yul\":3066:3073   */\n      dup6\n        /* \"#utility.yul\":3057:3063   */\n      dup3\n        /* \"#utility.yul\":3046:3055   */\n      dup7\n        /* \"#utility.yul\":3042:3064   */\n      add\n        /* \"#utility.yul\":3011:3074   */\n      tag_57\n      jump\t// in\n    tag_118:\n        /* \"#utility.yul\":3001:3074   */\n      swap3\n      pop\n        /* \"#utility.yul\":2797:3084   */\n      pop\n        /* \"#utility.yul\":3151:3153   */\n      0x20\n        /* \"#utility.yul\":3140:3149   */\n      dup4\n        /* \"#utility.yul\":3136:3154   */\n      add\n        /* \"#utility.yul\":3123:3155   */\n      calldataload\n        /* \"#utility.yul\":3182:3200   */\n      0xffffffffffffffff\n        /* \"#utility.yul\":3174:3180   */\n      dup2\n        /* \"#utility.yul\":3171:3201   */\n      gt\n        /* \"#utility.yul\":3168:3285   */\n      iszero\n      tag_119\n      jumpi\n        /* \"#utility.yul\":3204:3283   */\n      tag_120\n      tag_47\n      jump\t// in\n    tag_120:\n        /* \"#utility.yul\":3168:3285   */\n    tag_119:\n        /* \"#utility.yul\":3309:3372   */\n      tag_121\n        /* \"#utility.yul\":3364:3371   */\n      dup6\n        /* \"#utility.yul\":3355:3361   */\n      dup3\n        /* \"#utility.yul\":3344:3353   */\n      dup7\n        /* \"#utility.yul\":3340:3362   */\n      add\n        /* \"#utility.yul\":3309:3372   */\n      tag_57\n      jump\t// in\n    tag_121:\n        /* \"#utility.yul\":3299:3372   */\n      swap2\n      pop\n        /* \"#utility.yul\":3094:3382   */\n      pop\n        /* \"#utility.yul\":2555:3389   */\n      swap3\n      pop\n      swap3\n      swap1\n      pop\n      jump\t// out\n        /* \"#utility.yul\":3395:3494   */\n    tag_58:\n        /* \"#utility.yul\":3447:3453   */\n      0x00\n        /* \"#utility.yul\":3481:3486   */\n      dup2\n        /* \"#utility.yul\":3475:3487   */\n      mload\n        /* \"#utility.yul\":3465:3487   */\n      swap1\n      pop\n        /* \"#utility.yul\":3395:3494   */\n      swap2\n      swap1\n      pop\n      jump\t// out\n        /* \"#utility.yul\":3500:3669   */\n    tag_59:\n        /* \"#utility.yul\":3584:3595   */\n      0x00\n        /* \"#utility.yul\":3618:3624   */\n      dup3\n        /* \"#utility.yul\":3613:3616   */\n      dup3\n        /* \"#utility.yul\":3606:3625   */\n      mstore\n        /* \"#utility.yul\":3658:3662   */\n      0x20\n        /* \"#utility.yul\":3653:3656   */\n      dup3\n        /* \"#utility.yul\":3649:3663   */\n      add\n        /* \"#utility.yul\":3634:3663   */\n      swap1\n      pop\n        /* \"#utility.yul\":3500:3669   */\n      swap3\n      swap2\n      pop\n      pop\n      jump\t// out\n        /* \"#utility.yul\":3675:3814   */\n    tag_60:\n        /* \"#utility.yul\":3764:3770   */\n      dup3\n        /* \"#utility.yul\":3759:3762   */\n      dup2\n        /* \"#utility.yul\":3754:3757   */\n      dup4\n        /* \"#utility.yul\":3748:3771   */\n      mcopy\n        /* \"#utility.yul\":3805:3806   */\n      0x00\n        /* \"#utility.yul\":3796:3802   */\n      dup4\n        /* \"#utility.yul\":3791:3794   */\n      dup4\n        /* \"#utility.yul\":3787:3803   */\n      add\n        /* \"#utility.yul\":3780:3807   */\n      mstore\n        /* \"#utility.yul\":3675:3814   */\n      pop\n      pop\n      pop\n      jump\t// out\n        /* \"#utility.yul\":3820:4197   */\n    tag_61:\n        /* \"#utility.yul\":3908:3911   */\n      0x00\n        /* \"#utility.yul\":3936:3975   */\n      tag_126\n        /* \"#utility.yul\":3969:3974   */\n      dup3\n        /* \"#utility.yul\":3936:3975   */\n      tag_58\n      jump\t// in\n    tag_126:\n        /* \"#utility.yul\":3991:4062   */\n      tag_127\n        /* \"#utility.yul\":4055:4061   */\n      dup2\n        /* \"#utility.yul\":4050:4053   */\n      dup6\n        /* \"#utility.yul\":3991:4062   */\n      tag_59\n      jump\t// in\n    tag_127:\n        /* \"#utility.yul\":3984:4062   */\n      swap4\n      pop\n        /* \"#utility.yul\":4071:4136   */\n      tag_128\n        /* \"#utility.yul\":4129:4135   */\n      dup2\n        /* \"#utility.yul\":4124:4127   */\n      dup6\n        /* \"#utility.yul\":4117:4121   */\n      0x20\n        /* \"#utility.yul\":4110:4115   */\n      dup7\n        /* \"#utility.yul\":4106:4122   */\n      add\n        /* \"#utility.yul\":4071:4136   */\n      tag_60\n      jump\t// in\n    tag_128:\n        /* \"#utility.yul\":4161:4190   */\n      tag_129\n        /* \"#utility.yul\":4183:4189   */\n      dup2\n        /* \"#utility.yul\":4161:4190   */\n      tag_50\n      jump\t// in\n    tag_129:\n        /* \"#utility.yul\":4156:4159   */\n      dup5\n        /* \"#utility.yul\":4152:4191   */\n      add\n        /* \"#utility.yul\":4145:4191   */\n      swap2\n      pop\n        /* \"#utility.yul\":3912:4197   */\n      pop\n        /* \"#utility.yul\":3820:4197   */\n      swap3\n      swap2\n      pop\n      pop\n      jump\t// out\n        /* \"#utility.yul\":4203:4717   */\n    tag_13:\n        /* \"#utility.yul\":4364:4368   */\n      0x00\n        /* \"#utility.yul\":4402:4404   */\n      0x40\n        /* \"#utility.yul\":4391:4400   */\n      dup3\n        /* \"#utility.yul\":4387:4405   */\n      add\n        /* \"#utility.yul\":4379:4405   */\n      swap1\n      pop\n        /* \"#utility.yul\":4451:4460   */\n      dup2\n        /* \"#utility.yul\":4445:4449   */\n      dup2\n        /* \"#utility.yul\":4441:4461   */\n      sub\n        /* \"#utility.yul\":4437:4438   */\n      0x00\n        /* \"#utility.yul\":4426:4435   */\n      dup4\n        /* \"#utility.yul\":4422:4439   */\n      add\n        /* \"#utility.yul\":4415:4462   */\n      mstore\n        /* \"#utility.yul\":4479:4557   */\n      tag_131\n        /* \"#utility.yul\":4552:4556   */\n      dup2\n        /* \"#utility.yul\":4543:4549   */\n      dup6\n        /* \"#utility.yul\":4479:4557   */\n      tag_61\n      jump\t// in\n    tag_131:\n        /* \"#utility.yul\":4471:4557   */\n      swap1\n      pop\n        /* \"#utility.yul\":4604:4613   */\n      dup2\n        /* \"#utility.yul\":4598:4602   */\n      dup2\n        /* \"#utility.yul\":4594:4614   */\n      sub\n        /* \"#utility.yul\":4589:4591   */\n      0x20\n        /* \"#utility.yul\":4578:4587   */\n      dup4\n        /* \"#utility.yul\":4574:4592   */\n      add\n        /* \"#utility.yul\":4567:4615   */\n      mstore\n        /* \"#utility.yul\":4632:4710   */\n      tag_132\n        /* \"#utility.yul\":4705:4709   */\n      dup2\n        /* \"#utility.yul\":4696:4702   */\n      dup5\n        /* \"#utility.yul\":4632:4710   */\n      tag_61\n      jump\t// in\n    tag_132:\n        /* \"#utility.yul\":4624:4710   */\n      swap1\n      pop\n        /* \"#utility.yul\":4203:4717   */\n      swap4\n      swap3\n      pop\n      pop\n      pop\n      jump\t// out\n        /* \"#utility.yul\":4723:4849   */\n    tag_62:\n        /* \"#utility.yul\":4760:4767   */\n      0x00\n        /* \"#utility.yul\":4800:4842   */\n      0xffffffffffffffffffffffffffffffffffffffff\n        /* \"#utility.yul\":4793:4798   */\n      dup3\n        /* \"#utility.yul\":4789:4843   */\n      and\n        /* \"#utility.yul\":4778:4843   */\n      swap1\n      pop\n        /* \"#utility.yul\":4723:4849   */\n      swap2\n      swap1\n      pop\n      jump\t// out\n        /* \"#utility.yul\":4855:4951   */\n    tag_63:\n        /* \"#utility.yul\":4892:4899   */\n      0x00\n        /* \"#utility.yul\":4921:4945   */\n      tag_135\n        /* \"#utility.yul\":4939:4944   */\n      dup3\n        /* \"#utility.yul\":4921:4945   */\n      tag_62\n      jump\t// in\n    tag_135:\n        /* \"#utility.yul\":4910:4945   */\n      swap1\n      pop\n        /* \"#utility.yul\":4855:4951   */\n      swap2\n      swap1\n      pop\n      jump\t// out\n        /* \"#utility.yul\":4957:5079   */\n    tag_64:\n        /* \"#utility.yul\":5030:5054   */\n      tag_137\n        /* \"#utility.yul\":5048:5053   */\n      dup2\n        /* \"#utility.yul\":5030:5054   */\n      tag_63\n      jump\t// in\n    tag_137:\n        /* \"#utility.yul\":5023:5028   */\n      dup2\n        /* \"#utility.yul\":5020:5055   */\n      eq\n        /* \"#utility.yul\":5010:5073   */\n      tag_138\n      jumpi\n        /* \"#utility.yul\":5069:5070   */\n      0x00\n        /* \"#utility.yul\":5066:5067   */\n      dup1\n        /* \"#utility.yul\":5059:5071   */\n      revert\n        /* \"#utility.yul\":5010:5073   */\n    tag_138:\n        /* \"#utility.yul\":4957:5079   */\n      pop\n      jump\t// out\n        /* \"#utility.yul\":5085:5224   */\n    tag_65:\n        /* \"#utility.yul\":5131:5136   */\n      0x00\n        /* \"#utility.yul\":5169:5175   */\n      dup2\n        /* \"#utility.yul\":5156:5176   */\n      calldataload\n        /* \"#utility.yul\":5147:5176   */\n      swap1\n      pop\n        /* \"#utility.yul\":5185:5218   */\n      tag_140\n        /* \"#utility.yul\":5212:5217   */\n      dup2\n        /* \"#utility.yul\":5185:5218   */\n      tag_64\n      jump\t// in\n    tag_140:\n        /* \"#utility.yul\":5085:5224   */\n      swap3\n      swap2\n      pop\n      pop\n      jump\t// out\n        /* \"#utility.yul\":5230:5559   */\n    tag_16:\n        /* \"#utility.yul\":5289:5295   */\n      0x00\n        /* \"#utility.yul\":5338:5340   */\n      0x20\n        /* \"#utility.yul\":5326:5335   */\n      dup3\n        /* \"#utility.yul\":5317:5324   */\n      dup5\n        /* \"#utility.yul\":5313:5336   */\n      sub\n        /* \"#utility.yul\":5309:5341   */\n      slt\n        /* \"#utility.yul\":5306:5425   */\n      iszero\n      tag_142\n      jumpi\n        /* \"#utility.yul\":5344:5423   */\n      tag_143\n      tag_46\n      jump\t// in\n    tag_143:\n        /* \"#utility.yul\":5306:5425   */\n    tag_142:\n        /* \"#utility.yul\":5464:5465   */\n      0x00\n        /* \"#utility.yul\":5489:5542   */\n      tag_144\n        /* \"#utility.yul\":5534:5541   */\n      dup5\n        /* \"#utility.yul\":5525:5531   */\n      dup3\n        /* \"#utility.yul\":5514:5523   */\n      dup6\n        /* \"#utility.yul\":5510:5532   */\n      add\n        /* \"#utility.yul\":5489:5542   */\n      tag_65\n      jump\t// in\n    tag_144:\n        /* \"#utility.yul\":5479:5542   */\n      swap2\n      pop\n        /* \"#utility.yul\":5435:5552   */\n      pop\n        /* \"#utility.yul\":5230:5559   */\n      swap3\n      swap2\n      pop\n      pop\n      jump\t// out\n        /* \"#utility.yul\":5565:5745   */\n    tag_66:\n        /* \"#utility.yul\":5613:5690   */\n      0x4e487b7100000000000000000000000000000000000000000000000000000000\n        /* \"#utility.yul\":5610:5611   */\n      0x00\n        /* \"#utility.yul\":5603:5691   */\n      mstore\n        /* \"#utility.yul\":5710:5714   */\n      0x22\n        /* \"#utility.yul\":5707:5708   */\n      0x04\n        /* \"#utility.yul\":5700:5715   */\n      mstore\n        /* \"#utility.yul\":5734:5738   */\n      0x24\n        /* \"#utility.yul\":5731:5732   */\n      0x00\n        /* \"#utility.yul\":5724:5739   */\n      revert\n        /* \"#utility.yul\":5751:6071   */\n    tag_25:\n        /* \"#utility.yul\":5795:5801   */\n      0x00\n        /* \"#utility.yul\":5832:5833   */\n      0x02\n        /* \"#utility.yul\":5826:5830   */\n      dup3\n        /* \"#utility.yul\":5822:5834   */\n      div\n        /* \"#utility.yul\":5812:5834   */\n      swap1\n      pop\n        /* \"#utility.yul\":5879:5880   */\n      0x01\n        /* \"#utility.yul\":5873:5877   */\n      dup3\n        /* \"#utility.yul\":5869:5881   */\n      and\n        /* \"#utility.yul\":5900:5918   */\n      dup1\n        /* \"#utility.yul\":5890:5971   */\n      tag_147\n      jumpi\n        /* \"#utility.yul\":5956:5960   */\n      0x7f\n        /* \"#utility.yul\":5948:5954   */\n      dup3\n        /* \"#utility.yul\":5944:5961   */\n      and\n        /* \"#utility.yul\":5934:5961   */\n      swap2\n      pop\n        /* \"#utility.yul\":5890:5971   */\n    tag_147:\n        /* \"#utility.yul\":6018:6020   */\n      0x20\n        /* \"#utility.yul\":6010:6016   */\n      dup3\n        /* \"#utility.yul\":6007:6021   */\n      lt\n        /* \"#utility.yul\":5987:6005   */\n      dup2\n        /* \"#utility.yul\":5984:6022   */\n      sub\n        /* \"#utility.yul\":5981:6065   */\n      tag_148\n      jumpi\n        /* \"#utility.yul\":6037:6055   */\n      tag_149\n      tag_66\n      jump\t// in\n    tag_149:\n        /* \"#utility.yul\":5981:6065   */\n    tag_148:\n        /* \"#utility.yul\":5802:6071   */\n      pop\n        /* \"#utility.yul\":5751:6071   */\n      swap2\n      swap1\n      pop\n      jump\t// out\n        /* \"#utility.yul\":6077:6218   */\n    tag_67:\n        /* \"#utility.yul\":6126:6130   */\n      0x00\n        /* \"#utility.yul\":6149:6152   */\n      dup2\n        /* \"#utility.yul\":6141:6152   */\n      swap1\n      pop\n        /* \"#utility.yul\":6172:6175   */\n      dup2\n        /* \"#utility.yul\":6169:6170   */\n      0x00\n        /* \"#utility.yul\":6162:6176   */\n      mstore\n        /* \"#utility.yul\":6206:6210   */\n      0x20\n        /* \"#utility.yul\":6203:6204   */\n      0x00\n        /* \"#utility.yul\":6193:6211   */\n      keccak256\n        /* \"#utility.yul\":6185:6211   */\n      swap1\n      pop\n        /* \"#utility.yul\":6077:6218   */\n      swap2\n      swap1\n      pop\n      jump\t// out\n        /* \"#utility.yul\":6224:6317   */\n    tag_68:\n        /* \"#utility.yul\":6261:6267   */\n      0x00\n        /* \"#utility.yul\":6308:6310   */\n      0x20\n        /* \"#utility.yul\":6303:6305   */\n      0x1f\n        /* \"#utility.yul\":6296:6301   */\n      dup4\n        /* \"#utility.yul\":6292:6306   */\n      add\n        /* \"#utility.yul\":6288:6311   */\n      div\n        /* \"#utility.yul\":6278:6311   */\n      swap1\n      pop\n        /* \"#utility.yul\":6224:6317   */\n      swap2\n      swap1\n      pop\n      jump\t// out\n        /* \"#utility.yul\":6323:6430   */\n    tag_69:\n        /* \"#utility.yul\":6367:6375   */\n      0x00\n        /* \"#utility.yul\":6417:6422   */\n      dup3\n        /* \"#utility.yul\":6411:6415   */\n      dup3\n        /* \"#utility.yul\":6407:6423   */\n      shl\n        /* \"#utility.yul\":6386:6423   */\n      swap1\n      pop\n        /* \"#utility.yul\":6323:6430   */\n      swap3\n      swap2\n      pop\n      pop\n      jump\t// out\n        /* \"#utility.yul\":6436:6829   */\n    tag_70:\n        /* \"#utility.yul\":6505:6511   */\n      0x00\n        /* \"#utility.yul\":6555:6556   */\n      0x08\n        /* \"#utility.yul\":6543:6553   */\n      dup4\n        /* \"#utility.yul\":6539:6557   */\n      mul\n        /* \"#utility.yul\":6578:6675   */\n      tag_154\n        /* \"#utility.yul\":6608:6674   */\n      0xffffffffffffffffffffffffffffffffffffffffffffffffffffffffffffffff\n        /* \"#utility.yul\":6597:6606   */\n      dup3\n        /* \"#utility.yul\":6578:6675   */\n      tag_69\n      jump\t// in\n    tag_154:\n        /* \"#utility.yul\":6696:6735   */\n      tag_155\n        /* \"#utility.yul\":6726:6734   */\n      dup7\n        /* \"#utility.yul\":6715:6724   */\n      dup4\n        /* \"#utility.yul\":6696:6735   */\n      tag_69\n      jump\t// in\n    tag_155:\n        /* \"#utility.yul\":6684:6735   */\n      swap6\n      pop\n        /* \"#utility.yul\":6768:6772   */\n      dup1\n        /* \"#utility.yul\":6764:6773   */\n      not\n        /* \"#utility.yul\":6757:6762   */\n      dup5\n        /* \"#utility.yul\":6753:6774   */\n      and\n        /* \"#utility.yul\":6744:6774   */\n      swap4\n      pop\n        /* \"#utility.yul\":6817:6821   */\n      dup1\n        /* \"#utility.yul\":6807:6815   */\n      dup7\n        /* \"#utility.yul\":6803:6822   */\n      and\n        /* \"#utility.yul\":6796:6801   */\n      dup5\n        /* \"#utility.yul\":6793:6823   */\n      or\n        /* \"#utility.yul\":6783:6823   */\n      swap3\n      pop\n        /* \"#utility.yul\":6512:6829   */\n      pop\n      pop\n        /* \"#utility.yul\":6436:6829   */\n      swap4\n      swap3\n      pop\n      pop\n      pop\n      jump\t// out\n        /* \"#utility.yul\":6835:6912   */\n    tag_71:\n        /* \"#utility.yul\":6872:6879   */\n      0x00\n        /* \"#utility.yul\":6901:6906   */\n      dup2\n        /* \"#utility.yul\":6890:6906   */\n      swap1\n      pop\n        /* \"#utility.yul\":6835:6912   */\n      swap2\n      swap1\n      pop\n      jump\t// out\n        /* \"#utility.yul\":6918:6978   */\n    tag_72:\n        /* \"#utility.yul\":6946:6949   */\n      0x00\n        /* \"#utility.yul\":6967:6972   */\n      dup2\n        /* \"#utility.yul\":6960:6972   */\n      swap1\n      pop\n        /* \"#utility.yul\":6918:6978   */\n      swap2\n      swap1\n      pop\n      jump\t// out\n        /* \"#utility.yul\":6984:7126   */\n    tag_73:\n        /* \"#utility.yul\":7034:7043   */\n      0x00\n        /* \"#utility.yul\":7067:7120   */\n      tag_159\n        /* \"#utility.yul\":7085:7119   */\n      tag_160\n        /* \"#utility.yul\":7094:7118   */\n      tag_161\n        /* \"#utility.yul\":7112:7117   */\n      dup5\n        /* \"#utility.yul\":7094:7118   */\n      tag_71\n      jump\t// in\n    tag_161:\n        /* \"#utility.yul\":7085:7119   */\n      tag_72\n      jump\t// in\n    tag_160:\n        /* \"#utility.yul\":7067:7120   */\n      tag_71\n      jump\t// in\n    tag_159:\n        /* \"#utility.yul\":7054:7120   */\n      swap1\n      pop\n        /* \"#utility.yul\":6984:7126   */\n      swap2\n      swap1\n      pop\n      jump\t// out\n        /* \"#utility.yul\":7132:7207   */\n    tag_74:\n        /* \"#utility.yul\":7175:7178   */\n      0x00\n        /* \"#utility.yul\":7196:7201   */\n      dup2\n        /* \"#utility.yul\":7189:7201   */\n      swap1\n      pop\n        /* \"#utility.yul\":7132:7207   */\n      swap2\n      swap1\n      pop\n      jump\t// out\n        /* \"#utility.yul\":7213:7482   */\n    tag_75:\n        /* \"#utility.yul\":7323:7362   */\n      tag_164\n        /* \"#utility.yul\":7354:7361   */\n      dup4\n        /* \"#utility.yul\":7323:7362   */\n      tag_73\n      jump\t// in\n    tag_164:\n        /* \"#utility.yul\":7384:7475   */\n      tag_165\n        /* \"#utility.yul\":7433:7474   */\n      tag_166\n        /* \"#utility.yul\":7457:7473   */\n      dup3\n        /* \"#utility.yul\":7433:7474   */\n      tag_74\n      jump\t// in\n    tag_166:\n        /* \"#utility.yul\":7425:7431   */\n      dup5\n        /* \"#utility.yul\":7418:7422   */\n      dup5\n        /* \"#utility.yul\":7412:7423   */\n      sload\n        /* \"#utility.yul\":7384:7475   */\n      tag_70\n      jump\t// in\n    tag_165:\n        /* \"#utility.yul\":7378:7382   */\n      dup3\n        /* \"#utility.yul\":7371:7476   */\n      sstore\n        /* \"#utility.yul\":7289:7482   */\n      pop\n        /* \"#utility.yul\":7213:7482   */\n      pop\n      pop\n      pop\n      jump\t// out\n        /* \"#utility.yul\":7488:7561   */\n    tag_76:\n        /* \"#utility.yul\":7533:7536   */\n      0x00\n        /* \"#utility.yul\":7488:7561   */\n      swap1\n      jump\t// out\n        /* \"#utility.yul\":7567:7756   */\n    tag_77:\n        /* \"#utility.yul\":7644:7676   */\n      tag_169\n      tag_76\n      jump\t// in\n    tag_169:\n        /* \"#utility.yul\":7685:7750   */\n      tag_170\n        /* \"#utility.yul\":7743:7749   */\n      dup2\n        /* \"#utility.yul\":7735:7741   */\n      dup5\n        /* \"#utility.yul\":7729:7733   */\n      dup5\n        /* \"#utility.yul\":7685:7750   */\n      tag_75\n      jump\t// in\n    tag_170:\n        /* \"#utility.yul\":7620:7756   */\n      pop\n        /* \"#utility.yul\":7567:7756   */\n      pop\n      pop\n      jump\t// out\n        /* \"#utility.yul\":7762:7948   */\n    tag_78:\n        /* \"#utility.yul\":7822:7942   */\n    tag_172:\n        /* \"#utility.yul\":7839:7842   */\n      dup2\n        /* \"#utility.yul\":7832:7837   */\n      dup2\n        /* \"#utility.yul\":7829:7843   */\n      lt\n        /* \"#utility.yul\":7822:7942   */\n      iszero\n      tag_174\n      jumpi\n        /* \"#utility.yul\":7893:7932   */\n      tag_175\n        /* \"#utility.yul\":7930:7931   */\n      0x00\n        /* \"#utility.yul\":7923:7928   */\n      dup3\n        /* \"#utility.yul\":7893:7932   */\n      tag_77\n      jump\t// in\n    tag_175:\n        /* \"#utility.yul\":7866:7867   */\n      0x01\n        /* \"#utility.yul\":7859:7864   */\n      dup2\n        /* \"#utility.yul\":7855:7868   */\n      add\n        /* \"#utility.yul\":7846:7868   */\n      swap1\n      pop\n        /* \"#utility.yul\":7822:7942   */\n      jump(tag_172)\n    tag_174:\n        /* \"#utility.yul\":7762:7948   */\n      pop\n      pop\n      jump\t// out\n        /* \"#utility.yul\":7954:8497   */\n    tag_79:\n        /* \"#utility.yul\":8055:8057   */\n      0x1f\n        /* \"#utility.yul\":8050:8053   */\n      dup3\n        /* \"#utility.yul\":8047:8058   */\n      gt\n        /* \"#utility.yul\":8044:8490   */\n      iszero\n      tag_177\n      jumpi\n        /* \"#utility.yul\":8089:8127   */\n      tag_178\n        /* \"#utility.yul\":8121:8126   */\n      dup2\n        /* \"#utility.yul\":8089:8127   */\n      tag_67\n      jump\t// in\n    tag_178:\n        /* \"#utility.yul\":8173:8202   */\n      tag_179\n        /* \"#utility.yul\":8191:8201   */\n      dup5\n        /* \"#utility.yul\":8173:8202   */\n      tag_68\n      jump\t// in\n    tag_179:\n        /* \"#utility.yul\":8163:8171   */\n      dup2\n        /* \"#utility.yul\":8159:8203   */\n      add\n        /* \"#utility.yul\":8356:8358   */\n      0x20\n        /* \"#utility.yul\":8344:8354   */\n      dup6\n        /* \"#utility.yul\":8341:8359   */\n      lt\n        /* \"#utility.yul\":8338:8387   */\n      iszero\n      tag_180\n      jumpi\n        /* \"#utility.yul\":8377:8385   */\n      dup2\n        /* \"#utility.yul\":8362:8385   */\n      swap1\n      pop\n        /* \"#utility.yul\":8338:8387   */\n    tag_180:\n        /* \"#utility.yul\":8400:8480   */\n      tag_181\n        /* \"#utility.yul\":8456:8478   */\n      tag_182\n        /* \"#utility.yul\":8474:8477   */\n      dup6\n        /* \"#utility.yul\":8456:8478   */\n      tag_68\n      jump\t// in\n    tag_182:\n        /* \"#utility.yul\":8446:8454   */\n      dup4\n        /* \"#utility.yul\":8442:8479   */\n      add\n        /* \"#utility.yul\":8429:8440   */\n      dup3\n        /* \"#utility.yul\":8400:8480   */\n      tag_78\n      jump\t// in\n    tag_181:\n        /* \"#utility.yul\":8059:8490   */\n      pop\n      pop\n        /* \"#utility.yul\":8044:8490   */\n    tag_177:\n        /* \"#utility.yul\":7954:8497   */\n      pop\n      pop\n      pop\n      jump\t// out\n        /* \"#utility.yul\":8503:8620   */\n    tag_80:\n        /* \"#utility.yul\":8557:8565   */\n      0x00\n        /* \"#utility.yul\":8607:8612   */\n      dup3\n        /* \"#utility.yul\":8601:8605   */\n      dup3\n        /* \"#utility.yul\":8597:8613   */\n      shr\n        /* \"#utility.yul\":8576:8613   */\n      swap1\n      pop\n        /* \"#utility.yul\":8503:8620   */\n      swap3\n      swap2\n      pop\n      pop\n      jump\t// out\n        /* \"#utility.yul\":8626:8795   */\n    tag_81:\n        /* \"#utility.yul\":8670:8676   */\n      0x00\n        /* \"#utility.yul\":8703:8754   */\n      tag_185\n        /* \"#utility.yul\":8751:8752   */\n      0x00\n        /* \"#utility.yul\":8747:8753   */\n      not\n        /* \"#utility.yul\":8739:8744   */\n      dup5\n        /* \"#utility.yul\":8736:8737   */\n      0x08\n        /* \"#utility.yul\":8732:8745   */\n      mul\n        /* \"#utility.yul\":8703:8754   */\n      tag_80\n      jump\t// in\n    tag_185:\n        /* \"#utility.yul\":8699:8755   */\n      not\n        /* \"#utility.yul\":8784:8788   */\n      dup1\n        /* \"#utility.yul\":8778:8782   */\n      dup4\n        /* \"#utility.yul\":8774:8789   */\n      and\n        /* \"#utility.yul\":8764:8789   */\n      swap2\n      pop\n        /* \"#utility.yul\":8677:8795   */\n      pop\n        /* \"#utility.yul\":8626:8795   */\n      swap3\n      swap2\n      pop\n      pop\n      jump\t// out\n        /* \"#utility.yul\":8800:9095   */\n    tag_82:\n        /* \"#utility.yul\":8876:8880   */\n      0x00\n        /* \"#utility.yul\":9022:9051   */\n      tag_187\n        /* \"#utility.yul\":9047:9050   */\n      dup4\n        /* \"#utility.yul\":9041:9045   */\n      dup4\n        /* \"#utility.yul\":9022:9051   */\n      tag_81\n      jump\t// in\n    tag_187:\n        /* \"#utility.yul\":9014:9051   */\n      swap2\n      pop\n        /* \"#utility.yul\":9084:9087   */\n      dup3\n        /* \"#utility.yul\":9081:9082   */\n      0x02\n        /* \"#utility.yul\":9077:9088   */\n      mul\n        /* \"#utility.yul\":9071:9075   */\n      dup3\n        /* \"#utility.yul\":9068:9089   */\n      or\n        /* \"#utility.yul\":9060:9089   */\n      swap1\n      pop\n        /* \"#utility.yul\":8800:9095   */\n      swap3\n      swap2\n      pop\n      pop\n      jump\t// out\n        /* \"#utility.yul\":9100:10495   */\n    tag_21:\n        /* \"#utility.yul\":9217:9254   */\n      tag_189\n        /* \"#utility.yul\":9250:9253   */\n      dup3\n        /* \"#utility.yul\":9217:9254   */\n      tag_58\n      jump\t// in\n    tag_189:\n        /* \"#utility.yul\":9319:9337   */\n      0xffffffffffffffff\n        /* \"#utility.yul\":9311:9317   */\n      dup2\n        /* \"#utility.yul\":9308:9338   */\n      gt\n        /* \"#utility.yul\":9305:9361   */\n      iszero\n      tag_190\n      jumpi\n        /* \"#utility.yul\":9341:9359   */\n      tag_191\n      tag_51\n      jump\t// in\n    tag_191:\n        /* \"#utility.yul\":9305:9361   */\n    tag_190:\n        /* \"#utility.yul\":9385:9423   */\n      tag_192\n        /* \"#utility.yul\":9417:9421   */\n      dup3\n        /* \"#utility.yul\":9411:9422   */\n      sload\n        /* \"#utility.yul\":9385:9423   */\n      tag_25\n      jump\t// in\n    tag_192:\n        /* \"#utility.yul\":9470:9537   */\n      tag_193\n        /* \"#utility.yul\":9530:9536   */\n      dup3\n        /* \"#utility.yul\":9522:9528   */\n      dup3\n        /* \"#utility.yul\":9516:9520   */\n      dup6\n        /* \"#utility.yul\":9470:9537   */\n      tag_79\n      jump\t// in\n    tag_193:\n        /* \"#utility.yul\":9564:9565   */\n      0x00\n        /* \"#utility.yul\":9588:9592   */\n      0x20\n        /* \"#utility.yul\":9575:9592   */\n      swap1\n      pop\n        /* \"#utility.yul\":9620:9622   */\n      0x1f\n        /* \"#utility.yul\":9612:9618   */\n      dup4\n        /* \"#utility.yul\":9609:9623   */\n      gt\n        /* \"#utility.yul\":9637:9638   */\n      0x01\n        /* \"#utility.yul\":9632:10250   */\n      dup2\n      eq\n      tag_195\n      jumpi\n        /* \"#utility.yul\":10294:10295   */\n      0x00\n        /* \"#utility.yul\":10311:10317   */\n      dup5\n        /* \"#utility.yul\":10308:10385   */\n      iszero\n      tag_196\n      jumpi\n        /* \"#utility.yul\":10360:10369   */\n      dup3\n        /* \"#utility.yul\":10355:10358   */\n      dup8\n        /* \"#utility.yul\":10351:10370   */\n      add\n        /* \"#utility.yul\":10345:10371   */\n      mload\n        /* \"#utility.yul\":10336:10371   */\n      swap1\n      pop\n        /* \"#utility.yul\":10308:10385   */\n    tag_196:\n        /* \"#utility.yul\":10411:10478   */\n      tag_197\n        /* \"#utility.yul\":10471:10477   */\n      dup6\n        /* \"#utility.yul\":10464:10469   */\n      dup3\n        /* \"#utility.yul\":10411:10478   */\n      tag_82\n      jump\t// in\n    tag_197:\n        /* \"#utility.yul\":10405:10409   */\n      dup7\n        /* \"#utility.yul\":10398:10479   */\n      sstore\n        /* \"#utility.yul\":10267:10489   */\n      pop\n        /* \"#utility.yul\":9602:10489   */\n      jump(tag_194)\n        /* \"#utility.yul\":9632:10250   */\n    tag_195:\n        /* \"#utility.yul\":9684:9688   */\n      0x1f\n        /* \"#utility.yul\":9680:9689   */\n      not\n        /* \"#utility.yul\":9672:9678   */\n      dup5\n        /* \"#utility.yul\":9668:9690   */\n      and\n        /* \"#utility.yul\":9718:9755   */\n      tag_198\n        /* \"#utility.yul\":9750:9754   */\n      dup7\n        /* \"#utility.yul\":9718:9755   */\n      tag_67\n      jump\t// in\n    tag_198:\n        /* \"#utility.yul\":9777:9778   */\n      0x00\n        /* \"#utility.yul\":9791:9999   */\n    tag_199:\n        /* \"#utility.yul\":9805:9812   */\n      dup3\n        /* \"#utility.yul\":9802:9803   */\n      dup2\n        /* \"#utility.yul\":9799:9813   */\n      lt\n        /* \"#utility.yul\":9791:9999   */\n      iszero\n      tag_201\n      jumpi\n        /* \"#utility.yul\":9884:9893   */\n      dup5\n        /* \"#utility.yul\":9879:9882   */\n      dup10\n        /* \"#utility.yul\":9875:9894   */\n      add\n        /* \"#utility.yul\":9869:9895   */\n      mload\n        /* \"#utility.yul\":9861:9867   */\n      dup3\n        /* \"#utility.yul\":9854:9896   */\n      sstore\n        /* \"#utility.yul\":9935:9936   */\n      0x01\n        /* \"#utility.yul\":9927:9933   */\n      dup3\n        /* \"#utility.yul\":9923:9937   */\n      add\n        /* \"#utility.yul\":9913:9937   */\n      swap2\n      pop\n        /* \"#utility.yul\":9982:9984   */\n      0x20\n        /* \"#utility.yul\":9971:9980   */\n      dup6\n        /* \"#utility.yul\":9967:9985   */\n      add\n        /* \"#utility.yul\":9954:9985   */\n      swap5\n      pop\n        /* \"#utility.yul\":9828:9832   */\n      0x20\n        /* \"#utility.yul\":9825:9826   */\n      dup2\n        /* \"#utility.yul\":9821:9833   */\n      add\n        /* \"#utility.yul\":9816:9833   */\n      swap1\n      pop\n        /* \"#utility.yul\":9791:9999   */\n      jump(tag_199)\n    tag_201:\n        /* \"#utility.yul\":10027:10033   */\n      dup7\n        /* \"#utility.yul\":10018:10025   */\n      dup4\n        /* \"#utility.yul\":10015:10034   */\n      lt\n        /* \"#utility.yul\":10012:10191   */\n      iszero\n      tag_202\n      jumpi\n        /* \"#utility.yul\":10085:10094   */\n      dup5\n        /* \"#utility.yul\":10080:10083   */\n      dup10\n        /* \"#utility.yul\":10076:10095   */\n      add\n        /* \"#utility.yul\":10070:10096   */\n      mload\n        /* \"#utility.yul\":10128:10176   */\n      tag_203\n        /* \"#utility.yul\":10170:10174   */\n      0x1f\n        /* \"#utility.yul\":10162:10168   */\n      dup10\n        /* \"#utility.yul\":10158:10175   */\n      and\n        /* \"#utility.yul\":10147:10156   */\n      dup3\n        /* \"#utility.yul\":10128:10176   */\n      tag_81\n      jump\t// in\n    tag_203:\n        /* \"#utility.yul\":10120:10126   */\n      dup4\n        /* \"#utility.yul\":10113:10177   */\n      sstore\n        /* \"#utility.yul\":10035:10191   */\n      pop\n        /* \"#utility.yul\":10012:10191   */\n    tag_202:\n        /* \"#utility.yul\":10237:10238   */\n      0x01\n        /* \"#utility.yul\":10233:10234   */\n      0x02\n        /* \"#utility.yul\":10225:10231   */\n      dup9\n        /* \"#utility.yul\":10221:10235   */\n      mul\n        /* \"#utility.yul\":10217:10239   */\n      add\n        /* \"#utility.yul\":10211:10215   */\n      dup9\n        /* \"#utility.yul\":10204:10240   */\n      sstore\n        /* \"#utility.yul\":9639:10250   */\n      pop\n      pop\n      pop\n        /* \"#utility.yul\":9602:10489   */\n    tag_194:\n      pop\n        /* \"#utility.yul\":9192:10495   */\n      pop\n      pop\n      pop\n        /* \"#utility.yul\":9100:10495   */\n      pop\n      pop\n      jump\t// out\n\n    auxdata: 0xa26469706673582212201027643bb059e605b2f46d5a1fbd47bfc27762846b841aa8c2d99c89d0994dbb64736f6c63430008190033\n}\n",
				"bytecode": {
					"linkReferences": {},
					"object": "6080604052348015600e575f80fd5b506109bf8061001c5f395ff3fe608060405234801561000f575f80fd5b506004361061003f575f3560e01c8063045930ee146100435780636203a83b1461005f578063fe4aefbd1461007e575b5f80fd5b61005d60048036038101906100589190610527565b6100af565b005b610067610131565b6040516100759291906105fd565b60405180910390f35b6100986004803603810190610093919061068c565b6102af565b6040516100a69291906105fd565b60405180910390f35b6040518060400160405280838152602001828152505f803373ffffffffffffffffffffffffffffffffffffffff1673ffffffffffffffffffffffffffffffffffffffff1681526020019081526020015f205f820151815f01908161011391906108ba565b50602082015181600101908161012991906108ba565b509050505050565b6060805f805f3373ffffffffffffffffffffffffffffffffffffffff1673ffffffffffffffffffffffffffffffffffffffff1681526020019081526020015f206040518060400160405290815f8201805461018b906106e4565b80601f01602080910402602001604051908101604052809291908181526020018280546101b7906106e4565b80156102025780601f106101d957610100808354040283529160200191610202565b820191905f5260205f20905b8154815290600101906020018083116101e557829003601f168201915b5050505050815260200160018201805461021b906106e4565b80601f0160208091040260200160405190810160405280929190818152602001828054610247906106e4565b80156102925780601f1061026957610100808354040283529160200191610292565b820191905f5260205f20905b81548152906001019060200180831161027557829003601f168201915b5050505050815250509050805f0151816020015192509250509091565b5f602052805f5260405f205f91509050805f0180546102cd906106e4565b80601f01602080910402602001604051908101604052809291908181526020018280546102f9906106e4565b80156103445780601f1061031b57610100808354040283529160200191610344565b820191905f5260205f20905b81548152906001019060200180831161032757829003601f168201915b505050505090806001018054610359906106e4565b80601f0160208091040260200160405190810160405280929190818152602001828054610385906106e4565b80156103d05780601f106103a7576101008083540402835291602001916103d0565b820191905f5260205f20905b8154815290600101906020018083116103b357829003601f168201915b5050505050905082565b5f604051905090565b5f80fd5b5f80fd5b5f80fd5b5f80fd5b5f601f19601f8301169050919050565b7f4e487b71000000000000000000000000000000000000000000000000000000005f52604160045260245ffd5b610439826103f3565b810181811067ffffffffffffffff8211171561045857610457610403565b5b80604052505050565b5f61046a6103da565b90506104768282610430565b919050565b5f67ffffffffffffffff82111561049557610494610403565b5b61049e826103f3565b9050602081019050919050565b828183375f83830152505050565b5f6104cb6104c68461047b565b610461565b9050828152602081018484840111156104e7576104e66103ef565b5b6104f28482856104ab565b509392505050565b5f82601f83011261050e5761050d6103eb565b5b813561051e8482602086016104b9565b91505092915050565b5f806040838503121561053d5761053c6103e3565b5b5f83013567ffffffffffffffff81111561055a576105596103e7565b5b610566858286016104fa565b925050602083013567ffffffffffffffff811115610587576105866103e7565b5b610593858286016104fa565b9150509250929050565b5f81519050919050565b5f82825260208201905092915050565b8281835e5f83830152505050565b5f6105cf8261059d565b6105d981856105a7565b93506105e98185602086016105b7565b6105f2816103f3565b840191505092915050565b5f6040820190508181035f83015261061581856105c5565b9050818103602083015261062981846105c5565b90509392505050565b5f73ffffffffffffffffffffffffffffffffffffffff82169050919050565b5f61065b82610632565b9050919050565b61066b81610651565b8114610675575f80fd5b50565b5f8135905061068681610662565b92915050565b5f602082840312156106a1576106a06103e3565b5b5f6106ae84828501610678565b91505092915050565b7f4e487b71000000000000000000000000000000000000000000000000000000005f52602260045260245ffd5b5f60028204905060018216806106fb57607f821691505b60208210810361070e5761070d6106b7565b5b50919050565b5f819050815f5260205f209050919050565b5f6020601f8301049050919050565b5f82821b905092915050565b5f600883026107707fffffffffffffffffffffffffffffffffffffffffffffffffffffffffffffffff82610735565b61077a8683610735565b95508019841693508086168417925050509392505050565b5f819050919050565b5f819050919050565b5f6107be6107b96107b484610792565b61079b565b610792565b9050919050565b5f819050919050565b6107d7836107a4565b6107eb6107e3826107c5565b848454610741565b825550505050565b5f90565b6107ff6107f3565b61080a8184846107ce565b505050565b5b8181101561082d576108225f826107f7565b600181019050610810565b5050565b601f8211156108725761084381610714565b61084c84610726565b8101602085101561085b578190505b61086f61086785610726565b83018261080f565b50505b505050565b5f82821c905092915050565b5f6108925f1984600802610877565b1980831691505092915050565b5f6108aa8383610883565b9150826002028217905092915050565b6108c38261059d565b67ffffffffffffffff8111156108dc576108db610403565b5b6108e682546106e4565b6108f1828285610831565b5f60209050601f831160018114610922575f8415610910578287015190505b61091a858261089f565b865550610981565b601f19841661093086610714565b5f5b8281101561095757848901518255600182019150602085019450602081019050610932565b868310156109745784890151610970601f891682610883565b8355505b6001600288020188555050505b50505050505056fea26469706673582212201027643bb059e605b2f46d5a1fbd47bfc27762846b841aa8c2d99c89d0994dbb64736f6c63430008190033",
					"opcodes": "PUSH1 0x80 PUSH1 0x40 MSTORE CALLVALUE DUP1 ISZERO PUSH1 0xE JUMPI PUSH0 DUP1 REVERT JUMPDEST POP PUSH2 0x9BF DUP1 PUSH2 0x1C PUSH0 CODECOPY PUSH0 RETURN INVALID PUSH1 0x80 PUSH1 0x40 MSTORE CALLVALUE DUP1 ISZERO PUSH2 0xF JUMPI PUSH0 DUP1 REVERT JUMPDEST POP PUSH1 0x4 CALLDATASIZE LT PUSH2 0x3F JUMPI PUSH0 CALLDATALOAD PUSH1 0xE0 SHR DUP1 PUSH4 0x45930EE EQ PUSH2 0x43 JUMPI DUP1 PUSH4 0x6203A83B EQ PUSH2 0x5F JUMPI DUP1 PUSH4 0xFE4AEFBD EQ PUSH2 0x7E JUMPI JUMPDEST PUSH0 DUP1 REVERT JUMPDEST PUSH2 0x5D PUSH1 0x4 DUP1 CALLDATASIZE SUB DUP2 ADD SWAP1 PUSH2 0x58 SWAP2 SWAP1 PUSH2 0x527 JUMP JUMPDEST PUSH2 0xAF JUMP JUMPDEST STOP JUMPDEST PUSH2 0x67 PUSH2 0x131 JUMP JUMPDEST PUSH1 0x40 MLOAD PUSH2 0x75 SWAP3 SWAP2 SWAP1 PUSH2 0x5FD JUMP JUMPDEST PUSH1 0x40 MLOAD DUP1 SWAP2 SUB SWAP1 RETURN JUMPDEST PUSH2 0x98 PUSH1 0x4 DUP1 CALLDATASIZE SUB DUP2 ADD SWAP1 PUSH2 0x93 SWAP2 SWAP1 PUSH2 0x68C JUMP JUMPDEST PUSH2 0x2AF JUMP JUMPDEST PUSH1 0x40 MLOAD PUSH2 0xA6 SWAP3 SWAP2 SWAP1 PUSH2 0x5FD JUMP JUMPDEST PUSH1 0x40 MLOAD DUP1 SWAP2 SUB SWAP1 RETURN JUMPDEST PUSH1 0x40 MLOAD DUP1 PUSH1 0x40 ADD PUSH1 0x40 MSTORE DUP1 DUP4 DUP2 MSTORE PUSH1 0x20 ADD DUP3 DUP2 MSTORE POP PUSH0 DUP1 CALLER PUSH20 0xFFFFFFFFFFFFFFFFFFFFFFFFFFFFFFFFFFFFFFFF AND PUSH20 0xFFFFFFFFFFFFFFFFFFFFFFFFFFFFFFFFFFFFFFFF AND DUP2 MSTORE PUSH1 0x20 ADD SWAP1 DUP2 MSTORE PUSH1 0x20 ADD PUSH0 KECCAK256 PUSH0 DUP3 ADD MLOAD DUP2 PUSH0 ADD SWAP1 DUP2 PUSH2 0x113 SWAP2 SWAP1 PUSH2 0x8BA JUMP JUMPDEST POP PUSH1 0x20 DUP3 ADD MLOAD DUP2 PUSH1 0x1 ADD SWAP1 DUP2 PUSH2 0x129 SWAP2 SWAP1 PUSH2 0x8BA JUMP JUMPDEST POP SWAP1 POP POP POP POP JUMP JUMPDEST PUSH1 0x60 DUP1 PUSH0 DUP1 PUSH0 CALLER PUSH20 0xFFFFFFFFFFFFFFFFFFFFFFFFFFFFFFFFFFFFFFFF AND PUSH20 0xFFFFFFFFFFFFFFFFFFFFFFFFFFFFFFFFFFFFFFFF AND DUP2 MSTORE PUSH1 0x20 ADD SWAP1 DUP2 MSTORE PUSH1 0x20 ADD PUSH0 KECCAK256 PUSH1 0x40 MLOAD DUP1 PUSH1 0x40 ADD PUSH1 0x40 MSTORE SWAP1 DUP2 PUSH0 DUP3 ADD DUP1 SLOAD PUSH2 0x18B SWAP1 PUSH2 0x6E4 JUMP JUMPDEST DUP1 PUSH1 0x1F ADD PUSH1 0x20 DUP1 SWAP2 DIV MUL PUSH1 0x20 ADD PUSH1 0x40 MLOAD SWAP1 DUP2 ADD PUSH1 0x40 MSTORE DUP1 SWAP3 SWAP2 SWAP1 DUP2 DUP2 MSTORE PUSH1 0x20 ADD DUP3 DUP1 SLOAD PUSH2 0x1B7 SWAP1 PUSH2 0x6E4 JUMP JUMPDEST DUP1 ISZERO PUSH2 0x202 JUMPI DUP1 PUSH1 0x1F LT PUSH2 0x1D9 JUMPI PUSH2 0x100 DUP1 DUP4 SLOAD DIV MUL DUP4 MSTORE SWAP2 PUSH1 0x20 ADD SWAP2 PUSH2 0x202 JUMP JUMPDEST DUP3 ADD SWAP2 SWAP1 PUSH0 MSTORE PUSH1 0x20 PUSH0 KECCAK256 SWAP1 JUMPDEST DUP2 SLOAD DUP2 MSTORE SWAP1 PUSH1 0x1 ADD SWAP1 PUSH1 0x20 ADD DUP1 DUP4 GT PUSH2 0x1E5 JUMPI DUP3 SWAP1 SUB PUSH1 0x1F AND DUP3 ADD SWAP2 JUMPDEST POP POP POP POP POP DUP2 MSTORE PUSH1 0x20 ADD PUSH1 0x1 DUP3 ADD DUP1 SLOAD PUSH2 0x21B SWAP1 PUSH2 0x6E4 JUMP JUMPDEST DUP1 PUSH1 0x1F ADD PUSH1 0x20 DUP1 SWAP2 DIV MUL PUSH1 0x20 ADD PUSH1 0x40 MLOAD SWAP1 DUP2 ADD PUSH1 0x40 MSTORE DUP1 SWAP3 SWAP2 SWAP1 DUP2 DUP2 MSTORE PUSH1 0x20 ADD DUP3 DUP1 SLOAD PUSH2 0x247 SWAP1 PUSH2 0x6E4 JUMP JUMPDEST DUP1 ISZERO PUSH2 0x292 JUMPI DUP1 PUSH1 0x1F LT PUSH2 0x269 JUMPI PUSH2 0x100 DUP1 DUP4 SLOAD DIV MUL DUP4 MSTORE SWAP2 PUSH1 0x20 ADD SWAP2 PUSH2 0x292 JUMP JUMPDEST DUP3 ADD SWAP2 SWAP1 PUSH0 MSTORE PUSH1 0x20 PUSH0 KECCAK256 SWAP1 JUMPDEST DUP2 SLOAD DUP2 MSTORE SWAP1 PUSH1 0x1 ADD SWAP1 PUSH1 0x20 ADD DUP1 DUP4 GT PUSH2 0x275 JUMPI DUP3 SWAP1 SUB PUSH1 0x1F AND DUP3 ADD SWAP2 JUMPDEST POP POP POP POP POP DUP2 MSTORE POP POP SWAP1 POP DUP1 PUSH0 ADD MLOAD DUP2 PUSH1 0x20 ADD MLOAD SWAP3 POP SWAP3 POP POP SWAP1 SWAP2 JUMP JUMPDEST PUSH0 PUSH1 0x20 MSTORE DUP1 PUSH0 MSTORE PUSH1 0x40 PUSH0 KECCAK256 PUSH0 SWAP2 POP SWAP1 POP DUP1 PUSH0 ADD DUP1 SLOAD PUSH2 0x2CD SWAP1 PUSH2 0x6E4 JUMP JUMPDEST DUP1 PUSH1 0x1F ADD PUSH1 0x20 DUP1 SWAP2 DIV MUL PUSH1 0x20 ADD PUSH1 0x40 MLOAD SWAP1 DUP2 ADD PUSH1 0x40 MSTORE DUP1 SWAP3 SWAP2 SWAP1 DUP2 DUP2 MSTORE PUSH1 0x20 ADD DUP3 DUP1 SLOAD PUSH2 0x2F9 SWAP1 PUSH2 0x6E4 JUMP JUMPDEST DUP1 ISZERO PUSH2 0x344 JUMPI DUP1 PUSH1 0x1F LT PUSH2 0x31B JUMPI PUSH2 0x100 DUP1 DUP4 SLOAD DIV MUL DUP4 MSTORE SWAP2 PUSH1 0x20 ADD SWAP2 PUSH2 0x344 JUMP JUMPDEST DUP3 ADD SWAP2 SWAP1 PUSH0 MSTORE PUSH1 0x20 PUSH0 KECCAK256 SWAP1 JUMPDEST DUP2 SLOAD DUP2 MSTORE SWAP1 PUSH1 0x1 ADD SWAP1 PUSH1 0x20 ADD DUP1 DUP4 GT PUSH2 0x327 JUMPI DUP3 SWAP1 SUB PUSH1 0x1F AND DUP3 ADD SWAP2 JUMPDEST POP POP POP POP POP SWAP1 DUP1 PUSH1 0x1 ADD DUP1 SLOAD PUSH2 0x359 SWAP1 PUSH2 0x6E4 JUMP JUMPDEST DUP1 PUSH1 0x1F ADD PUSH1 0x20 DUP1 SWAP2 DIV MUL PUSH1 0x20 ADD PUSH1 0x40 MLOAD SWAP1 DUP2 ADD PUSH1 0x40 MSTORE DUP1 SWAP3 SWAP2 SWAP1 DUP2 DUP2 MSTORE PUSH1 0x20 ADD DUP3 DUP1 SLOAD PUSH2 0x385 SWAP1 PUSH2 0x6E4 JUMP JUMPDEST DUP1 ISZERO PUSH2 0x3D0 JUMPI DUP1 PUSH1 0x1F LT PUSH2 0x3A7 JUMPI PUSH2 0x100 DUP1 DUP4 SLOAD DIV MUL DUP4 MSTORE SWAP2 PUSH1 0x20 ADD SWAP2 PUSH2 0x3D0 JUMP JUMPDEST DUP3 ADD SWAP2 SWAP1 PUSH0 MSTORE PUSH1 0x20 PUSH0 KECCAK256 SWAP1 JUMPDEST DUP2 SLOAD DUP2 MSTORE SWAP1 PUSH1 0x1 ADD SWAP1 PUSH1 0x20 ADD DUP1 DUP4 GT PUSH2 0x3B3 JUMPI DUP3 SWAP1 SUB PUSH1 0x1F AND DUP3 ADD SWAP2 JUMPDEST POP POP POP POP POP SWAP1 POP DUP3 JUMP JUMPDEST PUSH0 PUSH1 0x40 MLOAD SWAP1 POP SWAP1 JUMP JUMPDEST PUSH0 DUP1 REVERT JUMPDEST PUSH0 DUP1 REVERT JUMPDEST PUSH0 DUP1 REVERT JUMPDEST PUSH0 DUP1 REVERT JUMPDEST PUSH0 PUSH1 0x1F NOT PUSH1 0x1F DUP4 ADD AND SWAP1 POP SWAP2 SWAP1 POP JUMP JUMPDEST PUSH32 0x4E487B7100000000000000000000000000000000000000000000000000000000 PUSH0 MSTORE PUSH1 0x41 PUSH1 0x4 MSTORE PUSH1 0x24 PUSH0 REVERT JUMPDEST PUSH2 0x439 DUP3 PUSH2 0x3F3 JUMP JUMPDEST DUP2 ADD DUP2 DUP2 LT PUSH8 0xFFFFFFFFFFFFFFFF DUP3 GT OR ISZERO PUSH2 0x458 JUMPI PUSH2 0x457 PUSH2 0x403 JUMP JUMPDEST JUMPDEST DUP1 PUSH1 0x40 MSTORE POP POP POP JUMP JUMPDEST PUSH0 PUSH2 0x46A PUSH2 0x3DA JUMP JUMPDEST SWAP1 POP PUSH2 0x476 DUP3 DUP3 PUSH2 0x430 JUMP JUMPDEST SWAP2 SWAP1 POP JUMP JUMPDEST PUSH0 PUSH8 0xFFFFFFFFFFFFFFFF DUP3 GT ISZERO PUSH2 0x495 JUMPI PUSH2 0x494 PUSH2 0x403 JUMP JUMPDEST JUMPDEST PUSH2 0x49E DUP3 PUSH2 0x3F3 JUMP JUMPDEST SWAP1 POP PUSH1 0x20 DUP2 ADD SWAP1 POP SWAP2 SWAP1 POP JUMP JUMPDEST DUP3 DUP2 DUP4 CALLDATACOPY PUSH0 DUP4 DUP4 ADD MSTORE POP POP POP JUMP JUMPDEST PUSH0 PUSH2 0x4CB PUSH2 0x4C6 DUP5 PUSH2 0x47B JUMP JUMPDEST PUSH2 0x461 JUMP JUMPDEST SWAP1 POP DUP3 DUP2 MSTORE PUSH1 0x20 DUP2 ADD DUP5 DUP5 DUP5 ADD GT ISZERO PUSH2 0x4E7 JUMPI PUSH2 0x4E6 PUSH2 0x3EF JUMP JUMPDEST JUMPDEST PUSH2 0x4F2 DUP5 DUP3 DUP6 PUSH2 0x4AB JUMP JUMPDEST POP SWAP4 SWAP3 POP POP POP JUMP JUMPDEST PUSH0 DUP3 PUSH1 0x1F DUP4 ADD SLT PUSH2 0x50E JUMPI PUSH2 0x50D PUSH2 0x3EB JUMP JUMPDEST JUMPDEST DUP2 CALLDATALOAD PUSH2 0x51E DUP5 DUP3 PUSH1 0x20 DUP7 ADD PUSH2 0x4B9 JUMP JUMPDEST SWAP2 POP POP SWAP3 SWAP2 POP POP JUMP JUMPDEST PUSH0 DUP1 PUSH1 0x40 DUP4 DUP6 SUB SLT ISZERO PUSH2 0x53D JUMPI PUSH2 0x53C PUSH2 0x3E3 JUMP JUMPDEST JUMPDEST PUSH0 DUP4 ADD CALLDATALOAD PUSH8 0xFFFFFFFFFFFFFFFF DUP2 GT ISZERO PUSH2 0x55A JUMPI PUSH2 0x559 PUSH2 0x3E7 JUMP JUMPDEST JUMPDEST PUSH2 0x566 DUP6 DUP3 DUP7 ADD PUSH2 0x4FA JUMP JUMPDEST SWAP3 POP POP PUSH1 0x20 DUP4 ADD CALLDATALOAD PUSH8 0xFFFFFFFFFFFFFFFF DUP2 GT ISZERO PUSH2 0x587 JUMPI PUSH2 0x586 PUSH2 0x3E7 JUMP JUMPDEST JUMPDEST PUSH2 0x593 DUP6 DUP3 DUP7 ADD PUSH2 0x4FA JUMP JUMPDEST SWAP2 POP POP SWAP3 POP SWAP3 SWAP1 POP JUMP JUMPDEST PUSH0 DUP2 MLOAD SWAP1 POP SWAP2 SWAP1 POP JUMP JUMPDEST PUSH0 DUP3 DUP3 MSTORE PUSH1 0x20 DUP3 ADD SWAP1 POP SWAP3 SWAP2 POP POP JUMP JUMPDEST DUP3 DUP2 DUP4 MCOPY PUSH0 DUP4 DUP4 ADD MSTORE POP POP POP JUMP JUMPDEST PUSH0 PUSH2 0x5CF DUP3 PUSH2 0x59D JUMP JUMPDEST PUSH2 0x5D9 DUP2 DUP6 PUSH2 0x5A7 JUMP JUMPDEST SWAP4 POP PUSH2 0x5E9 DUP2 DUP6 PUSH1 0x20 DUP7 ADD PUSH2 0x5B7 JUMP JUMPDEST PUSH2 0x5F2 DUP2 PUSH2 0x3F3 JUMP JUMPDEST DUP5 ADD SWAP2 POP POP SWAP3 SWAP2 POP POP JUMP JUMPDEST PUSH0 PUSH1 0x40 DUP3 ADD SWAP1 POP DUP2 DUP2 SUB PUSH0 DUP4 ADD MSTORE PUSH2 0x615 DUP2 DUP6 PUSH2 0x5C5 JUMP JUMPDEST SWAP1 POP DUP2 DUP2 SUB PUSH1 0x20 DUP4 ADD MSTORE PUSH2 0x629 DUP2 DUP5 PUSH2 0x5C5 JUMP JUMPDEST SWAP1 POP SWAP4 SWAP3 POP POP POP JUMP JUMPDEST PUSH0 PUSH20 0xFFFFFFFFFFFFFFFFFFFFFFFFFFFFFFFFFFFFFFFF DUP3 AND SWAP1 POP SWAP2 SWAP1 POP JUMP JUMPDEST PUSH0 PUSH2 0x65B DUP3 PUSH2 0x632 JUMP JUMPDEST SWAP1 POP SWAP2 SWAP1 POP JUMP JUMPDEST PUSH2 0x66B DUP2 PUSH2 0x651 JUMP JUMPDEST DUP2 EQ PUSH2 0x675 JUMPI PUSH0 DUP1 REVERT JUMPDEST POP JUMP JUMPDEST PUSH0 DUP2 CALLDATALOAD SWAP1 POP PUSH2 0x686 DUP2 PUSH2 0x662 JUMP JUMPDEST SWAP3 SWAP2 POP POP JUMP JUMPDEST PUSH0 PUSH1 0x20 DUP3 DUP5 SUB SLT ISZERO PUSH2 0x6A1 JUMPI PUSH2 0x6A0 PUSH2 0x3E3 JUMP JUMPDEST JUMPDEST PUSH0 PUSH2 0x6AE DUP5 DUP3 DUP6 ADD PUSH2 0x678 JUMP JUMPDEST SWAP2 POP POP SWAP3 SWAP2 POP POP JUMP JUMPDEST PUSH32 0x4E487B7100000000000000000000000000000000000000000000000000000000 PUSH0 MSTORE PUSH1 0x22 PUSH1 0x4 MSTORE PUSH1 0x24 PUSH0 REVERT JUMPDEST PUSH0 PUSH1 0x2 DUP3 DIV SWAP1 POP PUSH1 0x1 DUP3 AND DUP1 PUSH2 0x6FB JUMPI PUSH1 0x7F DUP3 AND SWAP2 POP JUMPDEST PUSH1 0x20 DUP3 LT DUP2 SUB PUSH2 0x70E JUMPI PUSH2 0x70D PUSH2 0x6B7 JUMP JUMPDEST JUMPDEST POP SWAP2 SWAP1 POP JUMP JUMPDEST PUSH0 DUP2 SWAP1 POP DUP2 PUSH0 MSTORE PUSH1 0x20 PUSH0 KECCAK256 SWAP1 POP SWAP2 SWAP1 POP JUMP JUMPDEST PUSH0 PUSH1 0x20 PUSH1 0x1F DUP4 ADD DIV SWAP1 POP SWAP2 SWAP1 POP JUMP JUMPDEST PUSH0 DUP3 DUP3 SHL SWAP1 POP SWAP3 SWAP2 POP POP JUMP JUMPDEST PUSH0 PUSH1 0x8 DUP4 MUL PUSH2 0x770 PUSH32 0xFFFFFFFFFFFFFFFFFFFFFFFFFFFFFFFFFFFFFFFFFFFFFFFFFFFFFFFFFFFFFFFF DUP3 PUSH2 0x735 JUMP JUMPDEST PUSH2 0x77A DUP7 DUP4 PUSH2 0x735 JUMP JUMPDEST SWAP6 POP DUP1 NOT DUP5 AND SWAP4 POP DUP1 DUP7 AND DUP5 OR SWAP3 POP POP POP SWAP4 SWAP3 POP POP POP JUMP JUMPDEST PUSH0 DUP2 SWAP1 POP SWAP2 SWAP1 POP JUMP JUMPDEST PUSH0 DUP2 SWAP1 POP SWAP2 SWAP1 POP JUMP JUMPDEST PUSH0 PUSH2 0x7BE PUSH2 0x7B9 PUSH2 0x7B4 DUP5 PUSH2 0x792 JUMP JUMPDEST PUSH2 0x79B JUMP JUMPDEST PUSH2 0x792 JUMP JUMPDEST SWAP1 POP SWAP2 SWAP1 POP JUMP JUMPDEST PUSH0 DUP2 SWAP1 POP SWAP2 SWAP1 POP JUMP JUMPDEST PUSH2 0x7D7 DUP4 PUSH2 0x7A4 JUMP JUMPDEST PUSH2 0x7EB PUSH2 0x7E3 DUP3 PUSH2 0x7C5 JUMP JUMPDEST DUP5 DUP5 SLOAD PUSH2 0x741 JUMP JUMPDEST DUP3 SSTORE POP POP POP POP JUMP JUMPDEST PUSH0 SWAP1 JUMP JUMPDEST PUSH2 0x7FF PUSH2 0x7F3 JUMP JUMPDEST PUSH2 0x80A DUP2 DUP5 DUP5 PUSH2 0x7CE JUMP JUMPDEST POP POP POP JUMP JUMPDEST JUMPDEST DUP2 DUP2 LT ISZERO PUSH2 0x82D JUMPI PUSH2 0x822 PUSH0 DUP3 PUSH2 0x7F7 JUMP JUMPDEST PUSH1 0x1 DUP2 ADD SWAP1 POP PUSH2 0x810 JUMP JUMPDEST POP POP JUMP JUMPDEST PUSH1 0x1F DUP3 GT ISZERO PUSH2 0x872 JUMPI PUSH2 0x843 DUP2 PUSH2 0x714 JUMP JUMPDEST PUSH2 0x84C DUP5 PUSH2 0x726 JUMP JUMPDEST DUP2 ADD PUSH1 0x20 DUP6 LT ISZERO PUSH2 0x85B JUMPI DUP2 SWAP1 POP JUMPDEST PUSH2 0x86F PUSH2 0x867 DUP6 PUSH2 0x726 JUMP JUMPDEST DUP4 ADD DUP3 PUSH2 0x80F JUMP JUMPDEST POP POP JUMPDEST POP POP POP JUMP JUMPDEST PUSH0 DUP3 DUP3 SHR SWAP1 POP SWAP3 SWAP2 POP POP JUMP JUMPDEST PUSH0 PUSH2 0x892 PUSH0 NOT DUP5 PUSH1 0x8 MUL PUSH2 0x877 JUMP JUMPDEST NOT DUP1 DUP4 AND SWAP2 POP POP SWAP3 SWAP2 POP POP JUMP JUMPDEST PUSH0 PUSH2 0x8AA DUP4 DUP4 PUSH2 0x883 JUMP JUMPDEST SWAP2 POP DUP3 PUSH1 0x2 MUL DUP3 OR SWAP1 POP SWAP3 SWAP2 POP POP JUMP JUMPDEST PUSH2 0x8C3 DUP3 PUSH2 0x59D JUMP JUMPDEST PUSH8 0xFFFFFFFFFFFFFFFF DUP2 GT ISZERO PUSH2 0x8DC JUMPI PUSH2 0x8DB PUSH2 0x403 JUMP JUMPDEST JUMPDEST PUSH2 0x8E6 DUP3 SLOAD PUSH2 0x6E4 JUMP JUMPDEST PUSH2 0x8F1 DUP3 DUP3 DUP6 PUSH2 0x831 JUMP JUMPDEST PUSH0 PUSH1 0x20 SWAP1 POP PUSH1 0x1F DUP4 GT PUSH1 0x1 DUP2 EQ PUSH2 0x922 JUMPI PUSH0 DUP5 ISZERO PUSH2 0x910 JUMPI DUP3 DUP8 ADD MLOAD SWAP1 POP JUMPDEST PUSH2 0x91A DUP6 DUP3 PUSH2 0x89F JUMP JUMPDEST DUP7 SSTORE POP PUSH2 0x981 JUMP JUMPDEST PUSH1 0x1F NOT DUP5 AND PUSH2 0x930 DUP7 PUSH2 0x714 JUMP JUMPDEST PUSH0 JUMPDEST DUP3 DUP2 LT ISZERO PUSH2 0x957 JUMPI DUP5 DUP10 ADD MLOAD DUP3 SSTORE PUSH1 0x1 DUP3 ADD SWAP2 POP PUSH1 0x20 DUP6 ADD SWAP5 POP PUSH1 0x20 DUP2 ADD SWAP1 POP PUSH2 0x932 JUMP JUMPDEST DUP7 DUP4 LT ISZERO PUSH2 0x974 JUMPI DUP5 DUP10 ADD MLOAD PUSH2 0x970 PUSH1 0x1F DUP10 AND DUP3 PUSH2 0x883 JUMP JUMPDEST DUP4 SSTORE POP JUMPDEST PUSH1 0x1 PUSH1 0x2 DUP9 MUL ADD DUP9 SSTORE POP POP POP JUMPDEST POP POP POP POP POP POP JUMP INVALID LOG2 PUSH5 0x6970667358 0x22 SLT KECCAK256 LT 0x27 PUSH5 0x3BB059E605 0xB2 DELEGATECALL PUSH14 0x5A1FBD47BFC27762846B841AA8C2 0xD9 SWAP13 DUP10 0xD0 SWAP10 0x4D 0xBB PUSH5 0x736F6C6343 STOP ADDMOD NOT STOP CALLER "
				},
				"gasEstimates": {
					"creation": {
						"codeDepositCost": "499000",
						"executionCost": "528",
						"totalCost": "499528"
					},
					"external": {
						"AddContact(string,string)": "infinite",
						"Getcontact()": "infinite",
						"contactdetails(address)": "infinite"
					}
				},
				"methodIdentifiers": {
					"AddContact(string,string)": "045930ee",
					"Getcontact()": "6203a83b",
					"contactdetails(address)": "fe4aefbd"
				}
			},
			"storageLayout": {
				"storage": [
					{
						"astId": 11,
						"contract": "contracts/ClassWork/1_contactList.sol:ContactList",
						"label": "contactdetails",
						"offset": 0,
						"slot": "0",
						"type": "t_mapping(t_address,t_struct(contact)6_storage)"
					}
				],
				"types": {
					"t_address": {
						"encoding": "inplace",
						"label": "address",
						"numberOfBytes": "20"
					},
					"t_mapping(t_address,t_struct(contact)6_storage)": {
						"encoding": "mapping",
						"key": "t_address",
						"label": "mapping(address => struct ContactList.contact)",
						"numberOfBytes": "32",
						"value": "t_struct(contact)6_storage"
					},
					"t_string_storage": {
						"encoding": "bytes",
						"label": "string",
						"numberOfBytes": "32"
					},
					"t_struct(contact)6_storage": {
						"encoding": "inplace",
						"label": "struct ContactList.contact",
						"members": [
							{
								"astId": 3,
								"contract": "contracts/ClassWork/1_contactList.sol:ContactList",
								"label": "Name",
								"offset": 0,
								"slot": "0",
								"type": "t_string_storage"
							},
							{
								"astId": 5,
								"contract": "contracts/ClassWork/1_contactList.sol:ContactList",
								"label": "PhoneNo",
								"offset": 0,
								"slot": "1",
								"type": "t_string_storage"
							}
						],
						"numberOfBytes": "64"
					}
				}
			},
			"userdoc": {
				"kind": "user",
				"methods": {},
				"version": 1
			}
		}
	}
}