{
	"contracts/ClassWork/Library.sol": {
		"MyLibrary": {
			"abi": [
				{
					"inputs": [],
					"stateMutability": "nonpayable",
					"type": "constructor"
				},
				{
					"inputs": [],
					"name": "No_of_Members",
					"outputs": [
						{
							"internalType": "uint256",
							"name": "",
							"type": "uint256"
						}
					],
					"stateMutability": "view",
					"type": "function"
				},
				{
					"inputs": [],
					"name": "No_of_books",
					"outputs": [
						{
							"internalType": "uint256",
							"name": "",
							"type": "uint256"
						}
					],
					"stateMutability": "view",
					"type": "function"
				},
				{
					"inputs": [
						{
							"internalType": "uint256",
							"name": "uid",
							"type": "uint256"
						},
						{
							"internalType": "string",
							"name": "_name",
							"type": "string"
						},
						{
							"internalType": "string",
							"name": "_joinDate",
							"type": "string"
						},
						{
							"internalType": "string",
							"name": "_Gender",
							"type": "string"
						}
					],
					"name": "RegisterMember",
					"outputs": [],
					"stateMutability": "nonpayable",
					"type": "function"
				},
				{
					"inputs": [
						{
							"internalType": "uint256",
							"name": "bookid",
							"type": "uint256"
						},
						{
							"internalType": "string",
							"name": "bName",
							"type": "string"
						},
						{
							"internalType": "string",
							"name": "genre",
							"type": "string"
						}
					],
					"name": "addBook",
					"outputs": [],
					"stateMutability": "nonpayable",
					"type": "function"
				},
				{
					"inputs": [
						{
							"internalType": "uint256",
							"name": "",
							"type": "uint256"
						}
					],
					"name": "books",
					"outputs": [
						{
							"internalType": "bool",
							"name": "isAvailable",
							"type": "bool"
						},
						{
							"internalType": "string",
							"name": "BName",
							"type": "string"
						},
						{
							"internalType": "string",
							"name": "issuerperson",
							"type": "string"
						},
						{
							"internalType": "address",
							"name": "Borrower",
							"type": "address"
						},
						{
							"internalType": "string",
							"name": "genre",
							"type": "string"
						}
					],
					"stateMutability": "view",
					"type": "function"
				},
				{
					"inputs": [
						{
							"internalType": "uint256",
							"name": "bookid",
							"type": "uint256"
						},
						{
							"internalType": "uint256",
							"name": "uid",
							"type": "uint256"
						}
					],
					"name": "borrowBook",
					"outputs": [],
					"stateMutability": "nonpayable",
					"type": "function"
				},
				{
					"inputs": [],
					"name": "librarian",
					"outputs": [
						{
							"internalType": "address",
							"name": "",
							"type": "address"
						}
					],
					"stateMutability": "view",
					"type": "function"
				},
				{
					"inputs": [
						{
							"internalType": "uint256",
							"name": "",
							"type": "uint256"
						}
					],
					"name": "members",
					"outputs": [
						{
							"internalType": "bool",
							"name": "isMember",
							"type": "bool"
						},
						{
							"components": [
								{
									"internalType": "string",
									"name": "MName",
									"type": "string"
								},
								{
									"internalType": "string",
									"name": "joinDate",
									"type": "string"
								},
								{
									"internalType": "string",
									"name": "MGender",
									"type": "string"
								}
							],
							"internalType": "struct MyLibrary.MemberDetails",
							"name": "details",
							"type": "tuple"
						},
						{
							"internalType": "uint256",
							"name": "OwnedbookBook",
							"type": "uint256"
						}
					],
					"stateMutability": "view",
					"type": "function"
				},
				{
					"inputs": [
						{
							"internalType": "uint256",
							"name": "bookid",
							"type": "uint256"
						},
						{
							"internalType": "uint256",
							"name": "uid",
							"type": "uint256"
						}
					],
					"name": "returnbook",
					"outputs": [],
					"stateMutability": "nonpayable",
					"type": "function"
				}
			],
			"devdoc": {
				"kind": "dev",
				"methods": {},
				"version": 1
			},
			"evm": {
				"assembly": "    /* \"contracts/ClassWork/Library.sol\":57:2301  contract MyLibrary {... */\n  mstore(0x40, 0x80)\n    /* \"contracts/ClassWork/Library.sol\":648:701  constructor() {... */\n  callvalue\n  dup1\n  iszero\n  tag_1\n  jumpi\n  0x00\n  dup1\n  revert\ntag_1:\n  pop\n    /* \"contracts/ClassWork/Library.sol\":684:694  msg.sender */\n  caller\n    /* \"contracts/ClassWork/Library.sol\":672:681  librarian */\n  0x00\n  dup1\n    /* \"contracts/ClassWork/Library.sol\":672:694  librarian = msg.sender */\n  0x0100\n  exp\n  dup2\n  sload\n  dup2\n  0xffffffffffffffffffffffffffffffffffffffff\n  mul\n  not\n  and\n  swap1\n  dup4\n  0xffffffffffffffffffffffffffffffffffffffff\n  and\n  mul\n  or\n  swap1\n  sstore\n  pop\n    /* \"contracts/ClassWork/Library.sol\":57:2301  contract MyLibrary {... */\n  dataSize(sub_0)\n  dup1\n  dataOffset(sub_0)\n  0x00\n  codecopy\n  0x00\n  return\nstop\n\nsub_0: assembly {\n        /* \"contracts/ClassWork/Library.sol\":57:2301  contract MyLibrary {... */\n      mstore(0x40, 0x80)\n      callvalue\n      dup1\n      iszero\n      tag_1\n      jumpi\n      0x00\n      dup1\n      revert\n    tag_1:\n      pop\n      jumpi(tag_2, lt(calldatasize, 0x04))\n      shr(0xe0, calldataload(0x00))\n      dup1\n      0x7930bd8b\n      gt\n      tag_12\n      jumpi\n      dup1\n      0x7930bd8b\n      eq\n      tag_7\n      jumpi\n      dup1\n      0x8f8261f8\n      eq\n      tag_8\n      jumpi\n      dup1\n      0xa437d45f\n      eq\n      tag_9\n      jumpi\n      dup1\n      0xa9ddc241\n      eq\n      tag_10\n      jumpi\n      dup1\n      0xc2870ca0\n      eq\n      tag_11\n      jumpi\n      jump(tag_2)\n    tag_12:\n      dup1\n      0x028414f2\n      eq\n      tag_3\n      jumpi\n      dup1\n      0x51f87964\n      eq\n      tag_4\n      jumpi\n      dup1\n      0x5daf08ca\n      eq\n      tag_5\n      jumpi\n      dup1\n      0x68744046\n      eq\n      tag_6\n      jumpi\n    tag_2:\n      0x00\n      dup1\n      revert\n        /* \"contracts/ClassWork/Library.sol\":1169:1549  function addBook(uint256 bookid, string memory bName,string memory genre) public {... */\n    tag_3:\n      tag_13\n      0x04\n      dup1\n      calldatasize\n      sub\n      dup2\n      add\n      swap1\n      tag_14\n      swap2\n      swap1\n      tag_15\n      jump\t// in\n    tag_14:\n      tag_16\n      jump\t// in\n    tag_13:\n      stop\n        /* \"contracts/ClassWork/Library.sol\":1555:1877  function borrowBook(uint256 bookid, uint256 uid) public {... */\n    tag_4:\n      tag_17\n      0x04\n      dup1\n      calldatasize\n      sub\n      dup2\n      add\n      swap1\n      tag_18\n      swap2\n      swap1\n      tag_19\n      jump\t// in\n    tag_18:\n      tag_20\n      jump\t// in\n    tag_17:\n      stop\n        /* \"contracts/ClassWork/Library.sol\":600:641  mapping(uint256 => member) public members */\n    tag_5:\n      tag_21\n      0x04\n      dup1\n      calldatasize\n      sub\n      dup2\n      add\n      swap1\n      tag_22\n      swap2\n      swap1\n      tag_23\n      jump\t// in\n    tag_22:\n      tag_24\n      jump\t// in\n    tag_21:\n      mload(0x40)\n      tag_25\n      swap4\n      swap3\n      swap2\n      swap1\n      tag_26\n      jump\t// in\n    tag_25:\n      mload(0x40)\n      dup1\n      swap2\n      sub\n      swap1\n      return\n        /* \"contracts/ClassWork/Library.sol\":551:594  mapping(uint256 => bookDetail) public books */\n    tag_6:\n      tag_27\n      0x04\n      dup1\n      calldatasize\n      sub\n      dup2\n      add\n      swap1\n      tag_28\n      swap2\n      swap1\n      tag_23\n      jump\t// in\n    tag_28:\n      tag_29\n      jump\t// in\n    tag_27:\n      mload(0x40)\n      tag_30\n      swap6\n      swap5\n      swap4\n      swap3\n      swap2\n      swap1\n      tag_31\n      jump\t// in\n    tag_30:\n      mload(0x40)\n      dup1\n      swap2\n      sub\n      swap1\n      return\n        /* \"contracts/ClassWork/Library.sol\":1883:2299  function returnbook(uint256 bookid, uint256 uid) public {... */\n    tag_7:\n      tag_32\n      0x04\n      dup1\n      calldatasize\n      sub\n      dup2\n      add\n      swap1\n      tag_33\n      swap2\n      swap1\n      tag_19\n      jump\t// in\n    tag_33:\n      tag_34\n      jump\t// in\n    tag_32:\n      stop\n        /* \"contracts/ClassWork/Library.sol\":707:1163  function RegisterMember(... */\n    tag_8:\n      tag_35\n      0x04\n      dup1\n      calldatasize\n      sub\n      dup2\n      add\n      swap1\n      tag_36\n      swap2\n      swap1\n      tag_37\n      jump\t// in\n    tag_36:\n      tag_38\n      jump\t// in\n    tag_35:\n      stop\n        /* \"contracts/ClassWork/Library.sol\":82:106  address public librarian */\n    tag_9:\n      tag_39\n      tag_40\n      jump\t// in\n    tag_39:\n      mload(0x40)\n      tag_41\n      swap2\n      swap1\n      tag_42\n      jump\t// in\n    tag_41:\n      mload(0x40)\n      dup1\n      swap2\n      sub\n      swap1\n      return\n        /* \"contracts/ClassWork/Library.sol\":112:137  uint public No_of_Members */\n    tag_10:\n      tag_43\n      tag_44\n      jump\t// in\n    tag_43:\n      mload(0x40)\n      tag_45\n      swap2\n      swap1\n      tag_46\n      jump\t// in\n    tag_45:\n      mload(0x40)\n      dup1\n      swap2\n      sub\n      swap1\n      return\n        /* \"contracts/ClassWork/Library.sol\":143:166  uint public No_of_books */\n    tag_11:\n      tag_47\n      tag_48\n      jump\t// in\n    tag_47:\n      mload(0x40)\n      tag_49\n      swap2\n      swap1\n      tag_46\n      jump\t// in\n    tag_49:\n      mload(0x40)\n      dup1\n      swap2\n      sub\n      swap1\n      return\n        /* \"contracts/ClassWork/Library.sol\":1169:1549  function addBook(uint256 bookid, string memory bName,string memory genre) public {... */\n    tag_16:\n        /* \"contracts/ClassWork/Library.sol\":1282:1291  librarian */\n      0x00\n      dup1\n      sload\n      swap1\n      0x0100\n      exp\n      swap1\n      div\n      0xffffffffffffffffffffffffffffffffffffffff\n      and\n        /* \"contracts/ClassWork/Library.sol\":1268:1291  msg.sender == librarian */\n      0xffffffffffffffffffffffffffffffffffffffff\n      and\n        /* \"contracts/ClassWork/Library.sol\":1268:1278  msg.sender */\n      caller\n        /* \"contracts/ClassWork/Library.sol\":1268:1291  msg.sender == librarian */\n      0xffffffffffffffffffffffffffffffffffffffff\n      and\n      eq\n        /* \"contracts/ClassWork/Library.sol\":1260:1317  require(msg.sender == librarian, \"You are not Librarian\") */\n      tag_51\n      jumpi\n      mload(0x40)\n      0x08c379a000000000000000000000000000000000000000000000000000000000\n      dup2\n      mstore\n      0x04\n      add\n      tag_52\n      swap1\n      tag_53\n      jump\t// in\n    tag_52:\n      mload(0x40)\n      dup1\n      swap2\n      sub\n      swap1\n      revert\n    tag_51:\n        /* \"contracts/ClassWork/Library.sol\":1327:1352  bookDetail memory newBook */\n      0x00\n        /* \"contracts/ClassWork/Library.sol\":1355:1509  bookDetail(... */\n      mload(0x40)\n      dup1\n      0xa0\n      add\n      0x40\n      mstore\n      dup1\n        /* \"contracts/ClassWork/Library.sol\":1379:1383  true */\n      0x01\n        /* \"contracts/ClassWork/Library.sol\":1355:1509  bookDetail(... */\n      iszero\n      iszero\n      dup2\n      mstore\n      0x20\n      add\n        /* \"contracts/ClassWork/Library.sol\":1397:1402  bName */\n      dup5\n        /* \"contracts/ClassWork/Library.sol\":1355:1509  bookDetail(... */\n      dup2\n      mstore\n      0x20\n      add\n      mload(0x40)\n      dup1\n      0x40\n      add\n      0x40\n      mstore\n      dup1\n      0x06\n      dup2\n      mstore\n      0x20\n      add\n      0x4e6f626f64790000000000000000000000000000000000000000000000000000\n      dup2\n      mstore\n      pop\n      dup2\n      mstore\n      0x20\n      add\n        /* \"contracts/ClassWork/Library.sol\":1438:1480  0x0000000000000000000000000000000000000000 */\n      0x00\n        /* \"contracts/ClassWork/Library.sol\":1355:1509  bookDetail(... */\n      0xffffffffffffffffffffffffffffffffffffffff\n      and\n      dup2\n      mstore\n      0x20\n      add\n        /* \"contracts/ClassWork/Library.sol\":1494:1499  genre */\n      dup4\n        /* \"contracts/ClassWork/Library.sol\":1355:1509  bookDetail(... */\n      dup2\n      mstore\n      pop\n        /* \"contracts/ClassWork/Library.sol\":1327:1509  bookDetail memory newBook = bookDetail(... */\n      swap1\n      pop\n        /* \"contracts/ClassWork/Library.sol\":1535:1542  newBook */\n      dup1\n        /* \"contracts/ClassWork/Library.sol\":1519:1524  books */\n      0x03\n        /* \"contracts/ClassWork/Library.sol\":1519:1532  books[bookid] */\n      0x00\n        /* \"contracts/ClassWork/Library.sol\":1525:1531  bookid */\n      dup7\n        /* \"contracts/ClassWork/Library.sol\":1519:1532  books[bookid] */\n      dup2\n      mstore\n      0x20\n      add\n      swap1\n      dup2\n      mstore\n      0x20\n      add\n      0x00\n      keccak256\n        /* \"contracts/ClassWork/Library.sol\":1519:1542  books[bookid] = newBook */\n      0x00\n      dup3\n      add\n      mload\n      dup2\n      0x00\n      add\n      exp(0x0100, 0x00)\n      dup2\n      sload\n      dup2\n      0xff\n      mul\n      not\n      and\n      swap1\n      dup4\n      iszero\n      iszero\n      mul\n      or\n      swap1\n      sstore\n      pop\n      0x20\n      dup3\n      add\n      mload\n      dup2\n      0x01\n      add\n      swap1\n      dup2\n      tag_54\n      swap2\n      swap1\n      tag_55\n      jump\t// in\n    tag_54:\n      pop\n      0x40\n      dup3\n      add\n      mload\n      dup2\n      0x02\n      add\n      swap1\n      dup2\n      tag_56\n      swap2\n      swap1\n      tag_55\n      jump\t// in\n    tag_56:\n      pop\n      0x60\n      dup3\n      add\n      mload\n      dup2\n      0x03\n      add\n      exp(0x0100, 0x00)\n      dup2\n      sload\n      dup2\n      0xffffffffffffffffffffffffffffffffffffffff\n      mul\n      not\n      and\n      swap1\n      dup4\n      0xffffffffffffffffffffffffffffffffffffffff\n      and\n      mul\n      or\n      swap1\n      sstore\n      pop\n      0x80\n      dup3\n      add\n      mload\n      dup2\n      0x04\n      add\n      swap1\n      dup2\n      tag_57\n      swap2\n      swap1\n      tag_55\n      jump\t// in\n    tag_57:\n      pop\n      swap1\n      pop\n      pop\n        /* \"contracts/ClassWork/Library.sol\":1250:1549  {... */\n      pop\n        /* \"contracts/ClassWork/Library.sol\":1169:1549  function addBook(uint256 bookid, string memory bName,string memory genre) public {... */\n      pop\n      pop\n      pop\n      jump\t// out\n        /* \"contracts/ClassWork/Library.sol\":1555:1877  function borrowBook(uint256 bookid, uint256 uid) public {... */\n    tag_20:\n        /* \"contracts/ClassWork/Library.sol\":1643:1652  librarian */\n      0x00\n      dup1\n      sload\n      swap1\n      0x0100\n      exp\n      swap1\n      div\n      0xffffffffffffffffffffffffffffffffffffffff\n      and\n        /* \"contracts/ClassWork/Library.sol\":1629:1652  msg.sender != librarian */\n      0xffffffffffffffffffffffffffffffffffffffff\n      and\n        /* \"contracts/ClassWork/Library.sol\":1629:1639  msg.sender */\n      caller\n        /* \"contracts/ClassWork/Library.sol\":1629:1652  msg.sender != librarian */\n      0xffffffffffffffffffffffffffffffffffffffff\n      and\n      sub\n        /* \"contracts/ClassWork/Library.sol\":1621:1678  require(msg.sender != librarian, \"you are not permitted\") */\n      tag_59\n      jumpi\n      mload(0x40)\n      0x08c379a000000000000000000000000000000000000000000000000000000000\n      dup2\n      mstore\n      0x04\n      add\n      tag_60\n      swap1\n      tag_61\n      jump\t// in\n    tag_60:\n      mload(0x40)\n      dup1\n      swap2\n      sub\n      swap1\n      revert\n    tag_59:\n        /* \"contracts/ClassWork/Library.sol\":1716:1721  false */\n      0x00\n        /* \"contracts/ClassWork/Library.sol\":1688:1693  books */\n      0x03\n        /* \"contracts/ClassWork/Library.sol\":1688:1701  books[bookid] */\n      0x00\n        /* \"contracts/ClassWork/Library.sol\":1694:1700  bookid */\n      dup5\n        /* \"contracts/ClassWork/Library.sol\":1688:1701  books[bookid] */\n      dup2\n      mstore\n      0x20\n      add\n      swap1\n      dup2\n      mstore\n      0x20\n      add\n      0x00\n      keccak256\n        /* \"contracts/ClassWork/Library.sol\":1688:1713  books[bookid].isAvailable */\n      0x00\n      add\n      0x00\n        /* \"contracts/ClassWork/Library.sol\":1688:1721  books[bookid].isAvailable = false */\n      0x0100\n      exp\n      dup2\n      sload\n      dup2\n      0xff\n      mul\n      not\n      and\n      swap1\n      dup4\n      iszero\n      iszero\n      mul\n      or\n      swap1\n      sstore\n      pop\n        /* \"contracts/ClassWork/Library.sol\":1756:1766  msg.sender */\n      caller\n        /* \"contracts/ClassWork/Library.sol\":1731:1736  books */\n      0x03\n        /* \"contracts/ClassWork/Library.sol\":1731:1744  books[bookid] */\n      0x00\n        /* \"contracts/ClassWork/Library.sol\":1737:1743  bookid */\n      dup5\n        /* \"contracts/ClassWork/Library.sol\":1731:1744  books[bookid] */\n      dup2\n      mstore\n      0x20\n      add\n      swap1\n      dup2\n      mstore\n      0x20\n      add\n      0x00\n      keccak256\n        /* \"contracts/ClassWork/Library.sol\":1731:1753  books[bookid].Borrower */\n      0x03\n      add\n      0x00\n        /* \"contracts/ClassWork/Library.sol\":1731:1766  books[bookid].Borrower = msg.sender */\n      0x0100\n      exp\n      dup2\n      sload\n      dup2\n      0xffffffffffffffffffffffffffffffffffffffff\n      mul\n      not\n      and\n      swap1\n      dup4\n      0xffffffffffffffffffffffffffffffffffffffff\n      and\n      mul\n      or\n      swap1\n      sstore\n      pop\n        /* \"contracts/ClassWork/Library.sol\":1803:1810  members */\n      0x04\n        /* \"contracts/ClassWork/Library.sol\":1803:1815  members[uid] */\n      0x00\n        /* \"contracts/ClassWork/Library.sol\":1811:1814  uid */\n      dup3\n        /* \"contracts/ClassWork/Library.sol\":1803:1815  members[uid] */\n      dup2\n      mstore\n      0x20\n      add\n      swap1\n      dup2\n      mstore\n      0x20\n      add\n      0x00\n      keccak256\n        /* \"contracts/ClassWork/Library.sol\":1803:1823  members[uid].details */\n      0x01\n      add\n        /* \"contracts/ClassWork/Library.sol\":1803:1829  members[uid].details.MName */\n      0x00\n      add\n        /* \"contracts/ClassWork/Library.sol\":1776:1781  books */\n      0x03\n        /* \"contracts/ClassWork/Library.sol\":1776:1789  books[bookid] */\n      0x00\n        /* \"contracts/ClassWork/Library.sol\":1782:1788  bookid */\n      dup5\n        /* \"contracts/ClassWork/Library.sol\":1776:1789  books[bookid] */\n      dup2\n      mstore\n      0x20\n      add\n      swap1\n      dup2\n      mstore\n      0x20\n      add\n      0x00\n      keccak256\n        /* \"contracts/ClassWork/Library.sol\":1776:1802  books[bookid].issuerperson */\n      0x02\n      add\n        /* \"contracts/ClassWork/Library.sol\":1776:1829  books[bookid].issuerperson=members[uid].details.MName */\n      swap1\n      dup2\n      tag_62\n      swap2\n      swap1\n      tag_63\n      jump\t// in\n    tag_62:\n      pop\n        /* \"contracts/ClassWork/Library.sol\":1869:1870  1 */\n      0x01\n        /* \"contracts/ClassWork/Library.sol\":1839:1846  members */\n      0x04\n        /* \"contracts/ClassWork/Library.sol\":1839:1851  members[uid] */\n      0x00\n        /* \"contracts/ClassWork/Library.sol\":1847:1850  uid */\n      dup4\n        /* \"contracts/ClassWork/Library.sol\":1839:1851  members[uid] */\n      dup2\n      mstore\n      0x20\n      add\n      swap1\n      dup2\n      mstore\n      0x20\n      add\n      0x00\n      keccak256\n        /* \"contracts/ClassWork/Library.sol\":1839:1865  members[uid].OwnedbookBook */\n      0x04\n      add\n      0x00\n        /* \"contracts/ClassWork/Library.sol\":1839:1870  members[uid].OwnedbookBook += 1 */\n      dup3\n      dup3\n      sload\n      tag_64\n      swap2\n      swap1\n      tag_65\n      jump\t// in\n    tag_64:\n      swap3\n      pop\n      pop\n      dup2\n      swap1\n      sstore\n      pop\n        /* \"contracts/ClassWork/Library.sol\":1555:1877  function borrowBook(uint256 bookid, uint256 uid) public {... */\n      pop\n      pop\n      jump\t// out\n        /* \"contracts/ClassWork/Library.sol\":600:641  mapping(uint256 => member) public members */\n    tag_24:\n      mstore(0x20, 0x04)\n      dup1\n      0x00\n      mstore\n      keccak256(0x00, 0x40)\n      0x00\n      swap2\n      pop\n      swap1\n      pop\n      dup1\n      0x00\n      add\n      0x00\n      swap1\n      sload\n      swap1\n      0x0100\n      exp\n      swap1\n      div\n      0xff\n      and\n      swap1\n      dup1\n      0x01\n      add\n      mload(0x40)\n      dup1\n      0x60\n      add\n      0x40\n      mstore\n      swap1\n      dup2\n      0x00\n      dup3\n      add\n      dup1\n      sload\n      tag_66\n      swap1\n      tag_67\n      jump\t// in\n    tag_66:\n      dup1\n      0x1f\n      add\n      0x20\n      dup1\n      swap2\n      div\n      mul\n      0x20\n      add\n      mload(0x40)\n      swap1\n      dup2\n      add\n      0x40\n      mstore\n      dup1\n      swap3\n      swap2\n      swap1\n      dup2\n      dup2\n      mstore\n      0x20\n      add\n      dup3\n      dup1\n      sload\n      tag_68\n      swap1\n      tag_67\n      jump\t// in\n    tag_68:\n      dup1\n      iszero\n      tag_69\n      jumpi\n      dup1\n      0x1f\n      lt\n      tag_70\n      jumpi\n      0x0100\n      dup1\n      dup4\n      sload\n      div\n      mul\n      dup4\n      mstore\n      swap2\n      0x20\n      add\n      swap2\n      jump(tag_69)\n    tag_70:\n      dup3\n      add\n      swap2\n      swap1\n      0x00\n      mstore\n      keccak256(0x00, 0x20)\n      swap1\n    tag_71:\n      dup2\n      sload\n      dup2\n      mstore\n      swap1\n      0x01\n      add\n      swap1\n      0x20\n      add\n      dup1\n      dup4\n      gt\n      tag_71\n      jumpi\n      dup3\n      swap1\n      sub\n      0x1f\n      and\n      dup3\n      add\n      swap2\n    tag_69:\n      pop\n      pop\n      pop\n      pop\n      pop\n      dup2\n      mstore\n      0x20\n      add\n      0x01\n      dup3\n      add\n      dup1\n      sload\n      tag_72\n      swap1\n      tag_67\n      jump\t// in\n    tag_72:\n      dup1\n      0x1f\n      add\n      0x20\n      dup1\n      swap2\n      div\n      mul\n      0x20\n      add\n      mload(0x40)\n      swap1\n      dup2\n      add\n      0x40\n      mstore\n      dup1\n      swap3\n      swap2\n      swap1\n      dup2\n      dup2\n      mstore\n      0x20\n      add\n      dup3\n      dup1\n      sload\n      tag_73\n      swap1\n      tag_67\n      jump\t// in\n    tag_73:\n      dup1\n      iszero\n      tag_74\n      jumpi\n      dup1\n      0x1f\n      lt\n      tag_75\n      jumpi\n      0x0100\n      dup1\n      dup4\n      sload\n      div\n      mul\n      dup4\n      mstore\n      swap2\n      0x20\n      add\n      swap2\n      jump(tag_74)\n    tag_75:\n      dup3\n      add\n      swap2\n      swap1\n      0x00\n      mstore\n      keccak256(0x00, 0x20)\n      swap1\n    tag_76:\n      dup2\n      sload\n      dup2\n      mstore\n      swap1\n      0x01\n      add\n      swap1\n      0x20\n      add\n      dup1\n      dup4\n      gt\n      tag_76\n      jumpi\n      dup3\n      swap1\n      sub\n      0x1f\n      and\n      dup3\n      add\n      swap2\n    tag_74:\n      pop\n      pop\n      pop\n      pop\n      pop\n      dup2\n      mstore\n      0x20\n      add\n      0x02\n      dup3\n      add\n      dup1\n      sload\n      tag_77\n      swap1\n      tag_67\n      jump\t// in\n    tag_77:\n      dup1\n      0x1f\n      add\n      0x20\n      dup1\n      swap2\n      div\n      mul\n      0x20\n      add\n      mload(0x40)\n      swap1\n      dup2\n      add\n      0x40\n      mstore\n      dup1\n      swap3\n      swap2\n      swap1\n      dup2\n      dup2\n      mstore\n      0x20\n      add\n      dup3\n      dup1\n      sload\n      tag_78\n      swap1\n      tag_67\n      jump\t// in\n    tag_78:\n      dup1\n      iszero\n      tag_79\n      jumpi\n      dup1\n      0x1f\n      lt\n      tag_80\n      jumpi\n      0x0100\n      dup1\n      dup4\n      sload\n      div\n      mul\n      dup4\n      mstore\n      swap2\n      0x20\n      add\n      swap2\n      jump(tag_79)\n    tag_80:\n      dup3\n      add\n      swap2\n      swap1\n      0x00\n      mstore\n      keccak256(0x00, 0x20)\n      swap1\n    tag_81:\n      dup2\n      sload\n      dup2\n      mstore\n      swap1\n      0x01\n      add\n      swap1\n      0x20\n      add\n      dup1\n      dup4\n      gt\n      tag_81\n      jumpi\n      dup3\n      swap1\n      sub\n      0x1f\n      and\n      dup3\n      add\n      swap2\n    tag_79:\n      pop\n      pop\n      pop\n      pop\n      pop\n      dup2\n      mstore\n      pop\n      pop\n      swap1\n      dup1\n      0x04\n      add\n      sload\n      swap1\n      pop\n      dup4\n      jump\t// out\n        /* \"contracts/ClassWork/Library.sol\":551:594  mapping(uint256 => bookDetail) public books */\n    tag_29:\n      mstore(0x20, 0x03)\n      dup1\n      0x00\n      mstore\n      keccak256(0x00, 0x40)\n      0x00\n      swap2\n      pop\n      swap1\n      pop\n      dup1\n      0x00\n      add\n      0x00\n      swap1\n      sload\n      swap1\n      0x0100\n      exp\n      swap1\n      div\n      0xff\n      and\n      swap1\n      dup1\n      0x01\n      add\n      dup1\n      sload\n      tag_82\n      swap1\n      tag_67\n      jump\t// in\n    tag_82:\n      dup1\n      0x1f\n      add\n      0x20\n      dup1\n      swap2\n      div\n      mul\n      0x20\n      add\n      mload(0x40)\n      swap1\n      dup2\n      add\n      0x40\n      mstore\n      dup1\n      swap3\n      swap2\n      swap1\n      dup2\n      dup2\n      mstore\n      0x20\n      add\n      dup3\n      dup1\n      sload\n      tag_83\n      swap1\n      tag_67\n      jump\t// in\n    tag_83:\n      dup1\n      iszero\n      tag_84\n      jumpi\n      dup1\n      0x1f\n      lt\n      tag_85\n      jumpi\n      0x0100\n      dup1\n      dup4\n      sload\n      div\n      mul\n      dup4\n      mstore\n      swap2\n      0x20\n      add\n      swap2\n      jump(tag_84)\n    tag_85:\n      dup3\n      add\n      swap2\n      swap1\n      0x00\n      mstore\n      keccak256(0x00, 0x20)\n      swap1\n    tag_86:\n      dup2\n      sload\n      dup2\n      mstore\n      swap1\n      0x01\n      add\n      swap1\n      0x20\n      add\n      dup1\n      dup4\n      gt\n      tag_86\n      jumpi\n      dup3\n      swap1\n      sub\n      0x1f\n      and\n      dup3\n      add\n      swap2\n    tag_84:\n      pop\n      pop\n      pop\n      pop\n      pop\n      swap1\n      dup1\n      0x02\n      add\n      dup1\n      sload\n      tag_87\n      swap1\n      tag_67\n      jump\t// in\n    tag_87:\n      dup1\n      0x1f\n      add\n      0x20\n      dup1\n      swap2\n      div\n      mul\n      0x20\n      add\n      mload(0x40)\n      swap1\n      dup2\n      add\n      0x40\n      mstore\n      dup1\n      swap3\n      swap2\n      swap1\n      dup2\n      dup2\n      mstore\n      0x20\n      add\n      dup3\n      dup1\n      sload\n      tag_88\n      swap1\n      tag_67\n      jump\t// in\n    tag_88:\n      dup1\n      iszero\n      tag_89\n      jumpi\n      dup1\n      0x1f\n      lt\n      tag_90\n      jumpi\n      0x0100\n      dup1\n      dup4\n      sload\n      div\n      mul\n      dup4\n      mstore\n      swap2\n      0x20\n      add\n      swap2\n      jump(tag_89)\n    tag_90:\n      dup3\n      add\n      swap2\n      swap1\n      0x00\n      mstore\n      keccak256(0x00, 0x20)\n      swap1\n    tag_91:\n      dup2\n      sload\n      dup2\n      mstore\n      swap1\n      0x01\n      add\n      swap1\n      0x20\n      add\n      dup1\n      dup4\n      gt\n      tag_91\n      jumpi\n      dup3\n      swap1\n      sub\n      0x1f\n      and\n      dup3\n      add\n      swap2\n    tag_89:\n      pop\n      pop\n      pop\n      pop\n      pop\n      swap1\n      dup1\n      0x03\n      add\n      0x00\n      swap1\n      sload\n      swap1\n      0x0100\n      exp\n      swap1\n      div\n      0xffffffffffffffffffffffffffffffffffffffff\n      and\n      swap1\n      dup1\n      0x04\n      add\n      dup1\n      sload\n      tag_92\n      swap1\n      tag_67\n      jump\t// in\n    tag_92:\n      dup1\n      0x1f\n      add\n      0x20\n      dup1\n      swap2\n      div\n      mul\n      0x20\n      add\n      mload(0x40)\n      swap1\n      dup2\n      add\n      0x40\n      mstore\n      dup1\n      swap3\n      swap2\n      swap1\n      dup2\n      dup2\n      mstore\n      0x20\n      add\n      dup3\n      dup1\n      sload\n      tag_93\n      swap1\n      tag_67\n      jump\t// in\n    tag_93:\n      dup1\n      iszero\n      tag_94\n      jumpi\n      dup1\n      0x1f\n      lt\n      tag_95\n      jumpi\n      0x0100\n      dup1\n      dup4\n      sload\n      div\n      mul\n      dup4\n      mstore\n      swap2\n      0x20\n      add\n      swap2\n      jump(tag_94)\n    tag_95:\n      dup3\n      add\n      swap2\n      swap1\n      0x00\n      mstore\n      keccak256(0x00, 0x20)\n      swap1\n    tag_96:\n      dup2\n      sload\n      dup2\n      mstore\n      swap1\n      0x01\n      add\n      swap1\n      0x20\n      add\n      dup1\n      dup4\n      gt\n      tag_96\n      jumpi\n      dup3\n      swap1\n      sub\n      0x1f\n      and\n      dup3\n      add\n      swap2\n    tag_94:\n      pop\n      pop\n      pop\n      pop\n      pop\n      swap1\n      pop\n      dup6\n      jump\t// out\n        /* \"contracts/ClassWork/Library.sol\":1883:2299  function returnbook(uint256 bookid, uint256 uid) public {... */\n    tag_34:\n        /* \"contracts/ClassWork/Library.sol\":1971:1980  librarian */\n      0x00\n      dup1\n      sload\n      swap1\n      0x0100\n      exp\n      swap1\n      div\n      0xffffffffffffffffffffffffffffffffffffffff\n      and\n        /* \"contracts/ClassWork/Library.sol\":1957:1980  msg.sender != librarian */\n      0xffffffffffffffffffffffffffffffffffffffff\n      and\n        /* \"contracts/ClassWork/Library.sol\":1957:1967  msg.sender */\n      caller\n        /* \"contracts/ClassWork/Library.sol\":1957:1980  msg.sender != librarian */\n      0xffffffffffffffffffffffffffffffffffffffff\n      and\n      sub\n        /* \"contracts/ClassWork/Library.sol\":1949:2006  require(msg.sender != librarian, \"you are not permitted\") */\n      tag_98\n      jumpi\n      mload(0x40)\n      0x08c379a000000000000000000000000000000000000000000000000000000000\n      dup2\n      mstore\n      0x04\n      add\n      tag_99\n      swap1\n      tag_61\n      jump\t// in\n    tag_99:\n      mload(0x40)\n      dup1\n      swap2\n      sub\n      swap1\n      revert\n    tag_98:\n        /* \"contracts/ClassWork/Library.sol\":2050:2060  msg.sender */\n      caller\n        /* \"contracts/ClassWork/Library.sol\":2024:2060  books[bookid].Borrower == msg.sender */\n      0xffffffffffffffffffffffffffffffffffffffff\n      and\n        /* \"contracts/ClassWork/Library.sol\":2024:2029  books */\n      0x03\n        /* \"contracts/ClassWork/Library.sol\":2024:2037  books[bookid] */\n      0x00\n        /* \"contracts/ClassWork/Library.sol\":2030:2036  bookid */\n      dup5\n        /* \"contracts/ClassWork/Library.sol\":2024:2037  books[bookid] */\n      dup2\n      mstore\n      0x20\n      add\n      swap1\n      dup2\n      mstore\n      0x20\n      add\n      0x00\n      keccak256\n        /* \"contracts/ClassWork/Library.sol\":2024:2046  books[bookid].Borrower */\n      0x03\n      add\n      0x00\n      swap1\n      sload\n      swap1\n      0x0100\n      exp\n      swap1\n      div\n      0xffffffffffffffffffffffffffffffffffffffff\n      and\n        /* \"contracts/ClassWork/Library.sol\":2024:2060  books[bookid].Borrower == msg.sender */\n      0xffffffffffffffffffffffffffffffffffffffff\n      and\n      eq\n        /* \"contracts/ClassWork/Library.sol\":2016:2086  require(books[bookid].Borrower == msg.sender, \"you have no real book\") */\n      tag_100\n      jumpi\n      mload(0x40)\n      0x08c379a000000000000000000000000000000000000000000000000000000000\n      dup2\n      mstore\n      0x04\n      add\n      tag_101\n      swap1\n      tag_102\n      jump\t// in\n    tag_101:\n      mload(0x40)\n      dup1\n      swap2\n      sub\n      swap1\n      revert\n    tag_100:\n        /* \"contracts/ClassWork/Library.sol\":2124:2128  true */\n      0x01\n        /* \"contracts/ClassWork/Library.sol\":2096:2101  books */\n      0x03\n        /* \"contracts/ClassWork/Library.sol\":2096:2109  books[bookid] */\n      0x00\n        /* \"contracts/ClassWork/Library.sol\":2102:2108  bookid */\n      dup5\n        /* \"contracts/ClassWork/Library.sol\":2096:2109  books[bookid] */\n      dup2\n      mstore\n      0x20\n      add\n      swap1\n      dup2\n      mstore\n      0x20\n      add\n      0x00\n      keccak256\n        /* \"contracts/ClassWork/Library.sol\":2096:2121  books[bookid].isAvailable */\n      0x00\n      add\n      0x00\n        /* \"contracts/ClassWork/Library.sol\":2096:2128  books[bookid].isAvailable = true */\n      0x0100\n      exp\n      dup2\n      sload\n      dup2\n      0xff\n      mul\n      not\n      and\n      swap1\n      dup4\n      iszero\n      iszero\n      mul\n      or\n      swap1\n      sstore\n      pop\n        /* \"contracts/ClassWork/Library.sol\":2139:2174  books[bookid].issuerperson=\"Nobody\" */\n      mload(0x40)\n      dup1\n      0x40\n      add\n      0x40\n      mstore\n      dup1\n      0x06\n      dup2\n      mstore\n      0x20\n      add\n      0x4e6f626f64790000000000000000000000000000000000000000000000000000\n      dup2\n      mstore\n      pop\n        /* \"contracts/ClassWork/Library.sol\":2139:2144  books */\n      0x03\n        /* \"contracts/ClassWork/Library.sol\":2139:2152  books[bookid] */\n      0x00\n        /* \"contracts/ClassWork/Library.sol\":2145:2151  bookid */\n      dup5\n        /* \"contracts/ClassWork/Library.sol\":2139:2152  books[bookid] */\n      dup2\n      mstore\n      0x20\n      add\n      swap1\n      dup2\n      mstore\n      0x20\n      add\n      0x00\n      keccak256\n        /* \"contracts/ClassWork/Library.sol\":2139:2165  books[bookid].issuerperson */\n      0x02\n      add\n        /* \"contracts/ClassWork/Library.sol\":2139:2174  books[bookid].issuerperson=\"Nobody\" */\n      swap1\n      dup2\n      tag_103\n      swap2\n      swap1\n      tag_55\n      jump\t// in\n    tag_103:\n      pop\n        /* \"contracts/ClassWork/Library.sol\":2209:2251  0x0000000000000000000000000000000000000000 */\n      0x00\n        /* \"contracts/ClassWork/Library.sol\":2184:2189  books */\n      0x03\n        /* \"contracts/ClassWork/Library.sol\":2184:2197  books[bookid] */\n      0x00\n        /* \"contracts/ClassWork/Library.sol\":2190:2196  bookid */\n      dup5\n        /* \"contracts/ClassWork/Library.sol\":2184:2197  books[bookid] */\n      dup2\n      mstore\n      0x20\n      add\n      swap1\n      dup2\n      mstore\n      0x20\n      add\n      0x00\n      keccak256\n        /* \"contracts/ClassWork/Library.sol\":2184:2206  books[bookid].Borrower */\n      0x03\n      add\n      0x00\n        /* \"contracts/ClassWork/Library.sol\":2184:2251  books[bookid].Borrower = 0x0000000000000000000000000000000000000000 */\n      0x0100\n      exp\n      dup2\n      sload\n      dup2\n      0xffffffffffffffffffffffffffffffffffffffff\n      mul\n      not\n      and\n      swap1\n      dup4\n      0xffffffffffffffffffffffffffffffffffffffff\n      and\n      mul\n      or\n      swap1\n      sstore\n      pop\n        /* \"contracts/ClassWork/Library.sol\":2291:2292  1 */\n      0x01\n        /* \"contracts/ClassWork/Library.sol\":2261:2268  members */\n      0x04\n        /* \"contracts/ClassWork/Library.sol\":2261:2273  members[uid] */\n      0x00\n        /* \"contracts/ClassWork/Library.sol\":2269:2272  uid */\n      dup4\n        /* \"contracts/ClassWork/Library.sol\":2261:2273  members[uid] */\n      dup2\n      mstore\n      0x20\n      add\n      swap1\n      dup2\n      mstore\n      0x20\n      add\n      0x00\n      keccak256\n        /* \"contracts/ClassWork/Library.sol\":2261:2287  members[uid].OwnedbookBook */\n      0x04\n      add\n      0x00\n        /* \"contracts/ClassWork/Library.sol\":2261:2292  members[uid].OwnedbookBook -= 1 */\n      dup3\n      dup3\n      sload\n      tag_104\n      swap2\n      swap1\n      tag_105\n      jump\t// in\n    tag_104:\n      swap3\n      pop\n      pop\n      dup2\n      swap1\n      sstore\n      pop\n        /* \"contracts/ClassWork/Library.sol\":1883:2299  function returnbook(uint256 bookid, uint256 uid) public {... */\n      pop\n      pop\n      jump\t// out\n        /* \"contracts/ClassWork/Library.sol\":707:1163  function RegisterMember(... */\n    tag_38:\n        /* \"contracts/ClassWork/Library.sol\":890:899  librarian */\n      0x00\n      dup1\n      sload\n      swap1\n      0x0100\n      exp\n      swap1\n      div\n      0xffffffffffffffffffffffffffffffffffffffff\n      and\n        /* \"contracts/ClassWork/Library.sol\":876:899  msg.sender != librarian */\n      0xffffffffffffffffffffffffffffffffffffffff\n      and\n        /* \"contracts/ClassWork/Library.sol\":876:886  msg.sender */\n      caller\n        /* \"contracts/ClassWork/Library.sol\":876:899  msg.sender != librarian */\n      0xffffffffffffffffffffffffffffffffffffffff\n      and\n      sub\n        /* \"contracts/ClassWork/Library.sol\":868:923  require(msg.sender != librarian, \"you are not allowed\") */\n      tag_107\n      jumpi\n      mload(0x40)\n      0x08c379a000000000000000000000000000000000000000000000000000000000\n      dup2\n      mstore\n      0x04\n      add\n      tag_108\n      swap1\n      tag_109\n      jump\t// in\n    tag_108:\n      mload(0x40)\n      dup1\n      swap2\n      sub\n      swap1\n      revert\n    tag_107:\n        /* \"contracts/ClassWork/Library.sol\":933:967  MemberDetails memory memberdetails */\n      0x00\n        /* \"contracts/ClassWork/Library.sol\":970:1056  MemberDetails(... */\n      mload(0x40)\n      dup1\n      0x60\n      add\n      0x40\n      mstore\n      dup1\n        /* \"contracts/ClassWork/Library.sol\":997:1002  _name */\n      dup6\n        /* \"contracts/ClassWork/Library.sol\":970:1056  MemberDetails(... */\n      dup2\n      mstore\n      0x20\n      add\n        /* \"contracts/ClassWork/Library.sol\":1016:1025  _joinDate */\n      dup5\n        /* \"contracts/ClassWork/Library.sol\":970:1056  MemberDetails(... */\n      dup2\n      mstore\n      0x20\n      add\n        /* \"contracts/ClassWork/Library.sol\":1039:1046  _Gender */\n      dup4\n        /* \"contracts/ClassWork/Library.sol\":970:1056  MemberDetails(... */\n      dup2\n      mstore\n      pop\n        /* \"contracts/ClassWork/Library.sol\":933:1056  MemberDetails memory memberdetails = MemberDetails(... */\n      swap1\n      pop\n        /* \"contracts/ClassWork/Library.sol\":1066:1089  member memory newmember */\n      0x00\n        /* \"contracts/ClassWork/Library.sol\":1092:1122  member(true, memberdetails, 0) */\n      mload(0x40)\n      dup1\n      0x60\n      add\n      0x40\n      mstore\n      dup1\n        /* \"contracts/ClassWork/Library.sol\":1099:1103  true */\n      0x01\n        /* \"contracts/ClassWork/Library.sol\":1092:1122  member(true, memberdetails, 0) */\n      iszero\n      iszero\n      dup2\n      mstore\n      0x20\n      add\n        /* \"contracts/ClassWork/Library.sol\":1105:1118  memberdetails */\n      dup4\n        /* \"contracts/ClassWork/Library.sol\":1092:1122  member(true, memberdetails, 0) */\n      dup2\n      mstore\n      0x20\n      add\n        /* \"contracts/ClassWork/Library.sol\":1120:1121  0 */\n      0x00\n        /* \"contracts/ClassWork/Library.sol\":1092:1122  member(true, memberdetails, 0) */\n      dup2\n      mstore\n      pop\n        /* \"contracts/ClassWork/Library.sol\":1066:1122  member memory newmember = member(true, memberdetails, 0) */\n      swap1\n      pop\n        /* \"contracts/ClassWork/Library.sol\":1147:1156  newmember */\n      dup1\n        /* \"contracts/ClassWork/Library.sol\":1132:1139  members */\n      0x04\n        /* \"contracts/ClassWork/Library.sol\":1132:1144  members[uid] */\n      0x00\n        /* \"contracts/ClassWork/Library.sol\":1140:1143  uid */\n      dup9\n        /* \"contracts/ClassWork/Library.sol\":1132:1144  members[uid] */\n      dup2\n      mstore\n      0x20\n      add\n      swap1\n      dup2\n      mstore\n      0x20\n      add\n      0x00\n      keccak256\n        /* \"contracts/ClassWork/Library.sol\":1132:1156  members[uid] = newmember */\n      0x00\n      dup3\n      add\n      mload\n      dup2\n      0x00\n      add\n      exp(0x0100, 0x00)\n      dup2\n      sload\n      dup2\n      0xff\n      mul\n      not\n      and\n      swap1\n      dup4\n      iszero\n      iszero\n      mul\n      or\n      swap1\n      sstore\n      pop\n      0x20\n      dup3\n      add\n      mload\n      dup2\n      0x01\n      add\n      0x00\n      dup3\n      add\n      mload\n      dup2\n      0x00\n      add\n      swap1\n      dup2\n      tag_110\n      swap2\n      swap1\n      tag_55\n      jump\t// in\n    tag_110:\n      pop\n      0x20\n      dup3\n      add\n      mload\n      dup2\n      0x01\n      add\n      swap1\n      dup2\n      tag_111\n      swap2\n      swap1\n      tag_55\n      jump\t// in\n    tag_111:\n      pop\n      0x40\n      dup3\n      add\n      mload\n      dup2\n      0x02\n      add\n      swap1\n      dup2\n      tag_112\n      swap2\n      swap1\n      tag_55\n      jump\t// in\n    tag_112:\n      pop\n      pop\n      pop\n      0x40\n      dup3\n      add\n      mload\n      dup2\n      0x04\n      add\n      sstore\n      swap1\n      pop\n      pop\n        /* \"contracts/ClassWork/Library.sol\":858:1163  {... */\n      pop\n      pop\n        /* \"contracts/ClassWork/Library.sol\":707:1163  function RegisterMember(... */\n      pop\n      pop\n      pop\n      pop\n      jump\t// out\n        /* \"contracts/ClassWork/Library.sol\":82:106  address public librarian */\n    tag_40:\n      0x00\n      dup1\n      sload\n      swap1\n      0x0100\n      exp\n      swap1\n      div\n      0xffffffffffffffffffffffffffffffffffffffff\n      and\n      dup2\n      jump\t// out\n        /* \"contracts/ClassWork/Library.sol\":112:137  uint public No_of_Members */\n    tag_44:\n      sload(0x01)\n      dup2\n      jump\t// out\n        /* \"contracts/ClassWork/Library.sol\":143:166  uint public No_of_books */\n    tag_48:\n      sload(0x02)\n      dup2\n      jump\t// out\n        /* \"#utility.yul\":7:82   */\n    tag_113:\n        /* \"#utility.yul\":40:46   */\n      0x00\n        /* \"#utility.yul\":73:75   */\n      0x40\n        /* \"#utility.yul\":67:76   */\n      mload\n        /* \"#utility.yul\":57:76   */\n      swap1\n      pop\n        /* \"#utility.yul\":7:82   */\n      swap1\n      jump\t// out\n        /* \"#utility.yul\":88:205   */\n    tag_114:\n        /* \"#utility.yul\":197:198   */\n      0x00\n        /* \"#utility.yul\":194:195   */\n      dup1\n        /* \"#utility.yul\":187:199   */\n      revert\n        /* \"#utility.yul\":211:328   */\n    tag_115:\n        /* \"#utility.yul\":320:321   */\n      0x00\n        /* \"#utility.yul\":317:318   */\n      dup1\n        /* \"#utility.yul\":310:322   */\n      revert\n        /* \"#utility.yul\":334:411   */\n    tag_116:\n        /* \"#utility.yul\":371:378   */\n      0x00\n        /* \"#utility.yul\":400:405   */\n      dup2\n        /* \"#utility.yul\":389:405   */\n      swap1\n      pop\n        /* \"#utility.yul\":334:411   */\n      swap2\n      swap1\n      pop\n      jump\t// out\n        /* \"#utility.yul\":417:539   */\n    tag_117:\n        /* \"#utility.yul\":490:514   */\n      tag_175\n        /* \"#utility.yul\":508:513   */\n      dup2\n        /* \"#utility.yul\":490:514   */\n      tag_116\n      jump\t// in\n    tag_175:\n        /* \"#utility.yul\":483:488   */\n      dup2\n        /* \"#utility.yul\":480:515   */\n      eq\n        /* \"#utility.yul\":470:533   */\n      tag_176\n      jumpi\n        /* \"#utility.yul\":529:530   */\n      0x00\n        /* \"#utility.yul\":526:527   */\n      dup1\n        /* \"#utility.yul\":519:531   */\n      revert\n        /* \"#utility.yul\":470:533   */\n    tag_176:\n        /* \"#utility.yul\":417:539   */\n      pop\n      jump\t// out\n        /* \"#utility.yul\":545:684   */\n    tag_118:\n        /* \"#utility.yul\":591:596   */\n      0x00\n        /* \"#utility.yul\":629:635   */\n      dup2\n        /* \"#utility.yul\":616:636   */\n      calldataload\n        /* \"#utility.yul\":607:636   */\n      swap1\n      pop\n        /* \"#utility.yul\":645:678   */\n      tag_178\n        /* \"#utility.yul\":672:677   */\n      dup2\n        /* \"#utility.yul\":645:678   */\n      tag_117\n      jump\t// in\n    tag_178:\n        /* \"#utility.yul\":545:684   */\n      swap3\n      swap2\n      pop\n      pop\n      jump\t// out\n        /* \"#utility.yul\":690:807   */\n    tag_119:\n        /* \"#utility.yul\":799:800   */\n      0x00\n        /* \"#utility.yul\":796:797   */\n      dup1\n        /* \"#utility.yul\":789:801   */\n      revert\n        /* \"#utility.yul\":813:930   */\n    tag_120:\n        /* \"#utility.yul\":922:923   */\n      0x00\n        /* \"#utility.yul\":919:920   */\n      dup1\n        /* \"#utility.yul\":912:924   */\n      revert\n        /* \"#utility.yul\":936:1038   */\n    tag_121:\n        /* \"#utility.yul\":977:983   */\n      0x00\n        /* \"#utility.yul\":1028:1030   */\n      0x1f\n        /* \"#utility.yul\":1024:1031   */\n      not\n        /* \"#utility.yul\":1019:1021   */\n      0x1f\n        /* \"#utility.yul\":1012:1017   */\n      dup4\n        /* \"#utility.yul\":1008:1022   */\n      add\n        /* \"#utility.yul\":1004:1032   */\n      and\n        /* \"#utility.yul\":994:1032   */\n      swap1\n      pop\n        /* \"#utility.yul\":936:1038   */\n      swap2\n      swap1\n      pop\n      jump\t// out\n        /* \"#utility.yul\":1044:1224   */\n    tag_122:\n        /* \"#utility.yul\":1092:1169   */\n      0x4e487b7100000000000000000000000000000000000000000000000000000000\n        /* \"#utility.yul\":1089:1090   */\n      0x00\n        /* \"#utility.yul\":1082:1170   */\n      mstore\n        /* \"#utility.yul\":1189:1193   */\n      0x41\n        /* \"#utility.yul\":1186:1187   */\n      0x04\n        /* \"#utility.yul\":1179:1194   */\n      mstore\n        /* \"#utility.yul\":1213:1217   */\n      0x24\n        /* \"#utility.yul\":1210:1211   */\n      0x00\n        /* \"#utility.yul\":1203:1218   */\n      revert\n        /* \"#utility.yul\":1230:1511   */\n    tag_123:\n        /* \"#utility.yul\":1313:1340   */\n      tag_184\n        /* \"#utility.yul\":1335:1339   */\n      dup3\n        /* \"#utility.yul\":1313:1340   */\n      tag_121\n      jump\t// in\n    tag_184:\n        /* \"#utility.yul\":1305:1311   */\n      dup2\n        /* \"#utility.yul\":1301:1341   */\n      add\n        /* \"#utility.yul\":1443:1449   */\n      dup2\n        /* \"#utility.yul\":1431:1441   */\n      dup2\n        /* \"#utility.yul\":1428:1450   */\n      lt\n        /* \"#utility.yul\":1407:1425   */\n      0xffffffffffffffff\n        /* \"#utility.yul\":1395:1405   */\n      dup3\n        /* \"#utility.yul\":1392:1426   */\n      gt\n        /* \"#utility.yul\":1389:1451   */\n      or\n        /* \"#utility.yul\":1386:1474   */\n      iszero\n      tag_185\n      jumpi\n        /* \"#utility.yul\":1454:1472   */\n      tag_186\n      tag_122\n      jump\t// in\n    tag_186:\n        /* \"#utility.yul\":1386:1474   */\n    tag_185:\n        /* \"#utility.yul\":1494:1504   */\n      dup1\n        /* \"#utility.yul\":1490:1492   */\n      0x40\n        /* \"#utility.yul\":1483:1505   */\n      mstore\n        /* \"#utility.yul\":1273:1511   */\n      pop\n        /* \"#utility.yul\":1230:1511   */\n      pop\n      pop\n      jump\t// out\n        /* \"#utility.yul\":1517:1646   */\n    tag_124:\n        /* \"#utility.yul\":1551:1557   */\n      0x00\n        /* \"#utility.yul\":1578:1598   */\n      tag_188\n      tag_113\n      jump\t// in\n    tag_188:\n        /* \"#utility.yul\":1568:1598   */\n      swap1\n      pop\n        /* \"#utility.yul\":1607:1640   */\n      tag_189\n        /* \"#utility.yul\":1635:1639   */\n      dup3\n        /* \"#utility.yul\":1627:1633   */\n      dup3\n        /* \"#utility.yul\":1607:1640   */\n      tag_123\n      jump\t// in\n    tag_189:\n        /* \"#utility.yul\":1517:1646   */\n      swap2\n      swap1\n      pop\n      jump\t// out\n        /* \"#utility.yul\":1652:1960   */\n    tag_125:\n        /* \"#utility.yul\":1714:1718   */\n      0x00\n        /* \"#utility.yul\":1804:1822   */\n      0xffffffffffffffff\n        /* \"#utility.yul\":1796:1802   */\n      dup3\n        /* \"#utility.yul\":1793:1823   */\n      gt\n        /* \"#utility.yul\":1790:1846   */\n      iszero\n      tag_191\n      jumpi\n        /* \"#utility.yul\":1826:1844   */\n      tag_192\n      tag_122\n      jump\t// in\n    tag_192:\n        /* \"#utility.yul\":1790:1846   */\n    tag_191:\n        /* \"#utility.yul\":1864:1893   */\n      tag_193\n        /* \"#utility.yul\":1886:1892   */\n      dup3\n        /* \"#utility.yul\":1864:1893   */\n      tag_121\n      jump\t// in\n    tag_193:\n        /* \"#utility.yul\":1856:1893   */\n      swap1\n      pop\n        /* \"#utility.yul\":1948:1952   */\n      0x20\n        /* \"#utility.yul\":1942:1946   */\n      dup2\n        /* \"#utility.yul\":1938:1953   */\n      add\n        /* \"#utility.yul\":1930:1953   */\n      swap1\n      pop\n        /* \"#utility.yul\":1652:1960   */\n      swap2\n      swap1\n      pop\n      jump\t// out\n        /* \"#utility.yul\":1966:2112   */\n    tag_126:\n        /* \"#utility.yul\":2063:2069   */\n      dup3\n        /* \"#utility.yul\":2058:2061   */\n      dup2\n        /* \"#utility.yul\":2053:2056   */\n      dup4\n        /* \"#utility.yul\":2040:2070   */\n      calldatacopy\n        /* \"#utility.yul\":2104:2105   */\n      0x00\n        /* \"#utility.yul\":2095:2101   */\n      dup4\n        /* \"#utility.yul\":2090:2093   */\n      dup4\n        /* \"#utility.yul\":2086:2102   */\n      add\n        /* \"#utility.yul\":2079:2106   */\n      mstore\n        /* \"#utility.yul\":1966:2112   */\n      pop\n      pop\n      pop\n      jump\t// out\n        /* \"#utility.yul\":2118:2543   */\n    tag_127:\n        /* \"#utility.yul\":2196:2201   */\n      0x00\n        /* \"#utility.yul\":2221:2287   */\n      tag_196\n        /* \"#utility.yul\":2237:2286   */\n      tag_197\n        /* \"#utility.yul\":2279:2285   */\n      dup5\n        /* \"#utility.yul\":2237:2286   */\n      tag_125\n      jump\t// in\n    tag_197:\n        /* \"#utility.yul\":2221:2287   */\n      tag_124\n      jump\t// in\n    tag_196:\n        /* \"#utility.yul\":2212:2287   */\n      swap1\n      pop\n        /* \"#utility.yul\":2310:2316   */\n      dup3\n        /* \"#utility.yul\":2303:2308   */\n      dup2\n        /* \"#utility.yul\":2296:2317   */\n      mstore\n        /* \"#utility.yul\":2348:2352   */\n      0x20\n        /* \"#utility.yul\":2341:2346   */\n      dup2\n        /* \"#utility.yul\":2337:2353   */\n      add\n        /* \"#utility.yul\":2386:2389   */\n      dup5\n        /* \"#utility.yul\":2377:2383   */\n      dup5\n        /* \"#utility.yul\":2372:2375   */\n      dup5\n        /* \"#utility.yul\":2368:2384   */\n      add\n        /* \"#utility.yul\":2365:2390   */\n      gt\n        /* \"#utility.yul\":2362:2474   */\n      iszero\n      tag_198\n      jumpi\n        /* \"#utility.yul\":2393:2472   */\n      tag_199\n      tag_120\n      jump\t// in\n    tag_199:\n        /* \"#utility.yul\":2362:2474   */\n    tag_198:\n        /* \"#utility.yul\":2483:2537   */\n      tag_200\n        /* \"#utility.yul\":2530:2536   */\n      dup5\n        /* \"#utility.yul\":2525:2528   */\n      dup3\n        /* \"#utility.yul\":2520:2523   */\n      dup6\n        /* \"#utility.yul\":2483:2537   */\n      tag_126\n      jump\t// in\n    tag_200:\n        /* \"#utility.yul\":2202:2543   */\n      pop\n        /* \"#utility.yul\":2118:2543   */\n      swap4\n      swap3\n      pop\n      pop\n      pop\n      jump\t// out\n        /* \"#utility.yul\":2563:2903   */\n    tag_128:\n        /* \"#utility.yul\":2619:2624   */\n      0x00\n        /* \"#utility.yul\":2668:2671   */\n      dup3\n        /* \"#utility.yul\":2661:2665   */\n      0x1f\n        /* \"#utility.yul\":2653:2659   */\n      dup4\n        /* \"#utility.yul\":2649:2666   */\n      add\n        /* \"#utility.yul\":2645:2672   */\n      slt\n        /* \"#utility.yul\":2635:2757   */\n      tag_202\n      jumpi\n        /* \"#utility.yul\":2676:2755   */\n      tag_203\n      tag_119\n      jump\t// in\n    tag_203:\n        /* \"#utility.yul\":2635:2757   */\n    tag_202:\n        /* \"#utility.yul\":2793:2799   */\n      dup2\n        /* \"#utility.yul\":2780:2800   */\n      calldataload\n        /* \"#utility.yul\":2818:2897   */\n      tag_204\n        /* \"#utility.yul\":2893:2896   */\n      dup5\n        /* \"#utility.yul\":2885:2891   */\n      dup3\n        /* \"#utility.yul\":2878:2882   */\n      0x20\n        /* \"#utility.yul\":2870:2876   */\n      dup7\n        /* \"#utility.yul\":2866:2883   */\n      add\n        /* \"#utility.yul\":2818:2897   */\n      tag_127\n      jump\t// in\n    tag_204:\n        /* \"#utility.yul\":2809:2897   */\n      swap2\n      pop\n        /* \"#utility.yul\":2625:2903   */\n      pop\n        /* \"#utility.yul\":2563:2903   */\n      swap3\n      swap2\n      pop\n      pop\n      jump\t// out\n        /* \"#utility.yul\":2909:3888   */\n    tag_15:\n        /* \"#utility.yul\":3006:3012   */\n      0x00\n        /* \"#utility.yul\":3014:3020   */\n      dup1\n        /* \"#utility.yul\":3022:3028   */\n      0x00\n        /* \"#utility.yul\":3071:3073   */\n      0x60\n        /* \"#utility.yul\":3059:3068   */\n      dup5\n        /* \"#utility.yul\":3050:3057   */\n      dup7\n        /* \"#utility.yul\":3046:3069   */\n      sub\n        /* \"#utility.yul\":3042:3074   */\n      slt\n        /* \"#utility.yul\":3039:3158   */\n      iszero\n      tag_206\n      jumpi\n        /* \"#utility.yul\":3077:3156   */\n      tag_207\n      tag_114\n      jump\t// in\n    tag_207:\n        /* \"#utility.yul\":3039:3158   */\n    tag_206:\n        /* \"#utility.yul\":3197:3198   */\n      0x00\n        /* \"#utility.yul\":3222:3275   */\n      tag_208\n        /* \"#utility.yul\":3267:3274   */\n      dup7\n        /* \"#utility.yul\":3258:3264   */\n      dup3\n        /* \"#utility.yul\":3247:3256   */\n      dup8\n        /* \"#utility.yul\":3243:3265   */\n      add\n        /* \"#utility.yul\":3222:3275   */\n      tag_118\n      jump\t// in\n    tag_208:\n        /* \"#utility.yul\":3212:3275   */\n      swap4\n      pop\n        /* \"#utility.yul\":3168:3285   */\n      pop\n        /* \"#utility.yul\":3352:3354   */\n      0x20\n        /* \"#utility.yul\":3341:3350   */\n      dup5\n        /* \"#utility.yul\":3337:3355   */\n      add\n        /* \"#utility.yul\":3324:3356   */\n      calldataload\n        /* \"#utility.yul\":3383:3401   */\n      0xffffffffffffffff\n        /* \"#utility.yul\":3375:3381   */\n      dup2\n        /* \"#utility.yul\":3372:3402   */\n      gt\n        /* \"#utility.yul\":3369:3486   */\n      iszero\n      tag_209\n      jumpi\n        /* \"#utility.yul\":3405:3484   */\n      tag_210\n      tag_115\n      jump\t// in\n    tag_210:\n        /* \"#utility.yul\":3369:3486   */\n    tag_209:\n        /* \"#utility.yul\":3510:3573   */\n      tag_211\n        /* \"#utility.yul\":3565:3572   */\n      dup7\n        /* \"#utility.yul\":3556:3562   */\n      dup3\n        /* \"#utility.yul\":3545:3554   */\n      dup8\n        /* \"#utility.yul\":3541:3563   */\n      add\n        /* \"#utility.yul\":3510:3573   */\n      tag_128\n      jump\t// in\n    tag_211:\n        /* \"#utility.yul\":3500:3573   */\n      swap3\n      pop\n        /* \"#utility.yul\":3295:3583   */\n      pop\n        /* \"#utility.yul\":3650:3652   */\n      0x40\n        /* \"#utility.yul\":3639:3648   */\n      dup5\n        /* \"#utility.yul\":3635:3653   */\n      add\n        /* \"#utility.yul\":3622:3654   */\n      calldataload\n        /* \"#utility.yul\":3681:3699   */\n      0xffffffffffffffff\n        /* \"#utility.yul\":3673:3679   */\n      dup2\n        /* \"#utility.yul\":3670:3700   */\n      gt\n        /* \"#utility.yul\":3667:3784   */\n      iszero\n      tag_212\n      jumpi\n        /* \"#utility.yul\":3703:3782   */\n      tag_213\n      tag_115\n      jump\t// in\n    tag_213:\n        /* \"#utility.yul\":3667:3784   */\n    tag_212:\n        /* \"#utility.yul\":3808:3871   */\n      tag_214\n        /* \"#utility.yul\":3863:3870   */\n      dup7\n        /* \"#utility.yul\":3854:3860   */\n      dup3\n        /* \"#utility.yul\":3843:3852   */\n      dup8\n        /* \"#utility.yul\":3839:3861   */\n      add\n        /* \"#utility.yul\":3808:3871   */\n      tag_128\n      jump\t// in\n    tag_214:\n        /* \"#utility.yul\":3798:3871   */\n      swap2\n      pop\n        /* \"#utility.yul\":3593:3881   */\n      pop\n        /* \"#utility.yul\":2909:3888   */\n      swap3\n      pop\n      swap3\n      pop\n      swap3\n      jump\t// out\n        /* \"#utility.yul\":3894:4368   */\n    tag_19:\n        /* \"#utility.yul\":3962:3968   */\n      0x00\n        /* \"#utility.yul\":3970:3976   */\n      dup1\n        /* \"#utility.yul\":4019:4021   */\n      0x40\n        /* \"#utility.yul\":4007:4016   */\n      dup4\n        /* \"#utility.yul\":3998:4005   */\n      dup6\n        /* \"#utility.yul\":3994:4017   */\n      sub\n        /* \"#utility.yul\":3990:4022   */\n      slt\n        /* \"#utility.yul\":3987:4106   */\n      iszero\n      tag_216\n      jumpi\n        /* \"#utility.yul\":4025:4104   */\n      tag_217\n      tag_114\n      jump\t// in\n    tag_217:\n        /* \"#utility.yul\":3987:4106   */\n    tag_216:\n        /* \"#utility.yul\":4145:4146   */\n      0x00\n        /* \"#utility.yul\":4170:4223   */\n      tag_218\n        /* \"#utility.yul\":4215:4222   */\n      dup6\n        /* \"#utility.yul\":4206:4212   */\n      dup3\n        /* \"#utility.yul\":4195:4204   */\n      dup7\n        /* \"#utility.yul\":4191:4213   */\n      add\n        /* \"#utility.yul\":4170:4223   */\n      tag_118\n      jump\t// in\n    tag_218:\n        /* \"#utility.yul\":4160:4223   */\n      swap3\n      pop\n        /* \"#utility.yul\":4116:4233   */\n      pop\n        /* \"#utility.yul\":4272:4274   */\n      0x20\n        /* \"#utility.yul\":4298:4351   */\n      tag_219\n        /* \"#utility.yul\":4343:4350   */\n      dup6\n        /* \"#utility.yul\":4334:4340   */\n      dup3\n        /* \"#utility.yul\":4323:4332   */\n      dup7\n        /* \"#utility.yul\":4319:4341   */\n      add\n        /* \"#utility.yul\":4298:4351   */\n      tag_118\n      jump\t// in\n    tag_219:\n        /* \"#utility.yul\":4288:4351   */\n      swap2\n      pop\n        /* \"#utility.yul\":4243:4361   */\n      pop\n        /* \"#utility.yul\":3894:4368   */\n      swap3\n      pop\n      swap3\n      swap1\n      pop\n      jump\t// out\n        /* \"#utility.yul\":4374:4703   */\n    tag_23:\n        /* \"#utility.yul\":4433:4439   */\n      0x00\n        /* \"#utility.yul\":4482:4484   */\n      0x20\n        /* \"#utility.yul\":4470:4479   */\n      dup3\n        /* \"#utility.yul\":4461:4468   */\n      dup5\n        /* \"#utility.yul\":4457:4480   */\n      sub\n        /* \"#utility.yul\":4453:4485   */\n      slt\n        /* \"#utility.yul\":4450:4569   */\n      iszero\n      tag_221\n      jumpi\n        /* \"#utility.yul\":4488:4567   */\n      tag_222\n      tag_114\n      jump\t// in\n    tag_222:\n        /* \"#utility.yul\":4450:4569   */\n    tag_221:\n        /* \"#utility.yul\":4608:4609   */\n      0x00\n        /* \"#utility.yul\":4633:4686   */\n      tag_223\n        /* \"#utility.yul\":4678:4685   */\n      dup5\n        /* \"#utility.yul\":4669:4675   */\n      dup3\n        /* \"#utility.yul\":4658:4667   */\n      dup6\n        /* \"#utility.yul\":4654:4676   */\n      add\n        /* \"#utility.yul\":4633:4686   */\n      tag_118\n      jump\t// in\n    tag_223:\n        /* \"#utility.yul\":4623:4686   */\n      swap2\n      pop\n        /* \"#utility.yul\":4579:4696   */\n      pop\n        /* \"#utility.yul\":4374:4703   */\n      swap3\n      swap2\n      pop\n      pop\n      jump\t// out\n        /* \"#utility.yul\":4709:4799   */\n    tag_129:\n        /* \"#utility.yul\":4743:4750   */\n      0x00\n        /* \"#utility.yul\":4786:4791   */\n      dup2\n        /* \"#utility.yul\":4779:4792   */\n      iszero\n        /* \"#utility.yul\":4772:4793   */\n      iszero\n        /* \"#utility.yul\":4761:4793   */\n      swap1\n      pop\n        /* \"#utility.yul\":4709:4799   */\n      swap2\n      swap1\n      pop\n      jump\t// out\n        /* \"#utility.yul\":4805:4914   */\n    tag_130:\n        /* \"#utility.yul\":4886:4907   */\n      tag_226\n        /* \"#utility.yul\":4901:4906   */\n      dup2\n        /* \"#utility.yul\":4886:4907   */\n      tag_129\n      jump\t// in\n    tag_226:\n        /* \"#utility.yul\":4881:4884   */\n      dup3\n        /* \"#utility.yul\":4874:4908   */\n      mstore\n        /* \"#utility.yul\":4805:4914   */\n      pop\n      pop\n      jump\t// out\n        /* \"#utility.yul\":4920:5019   */\n    tag_131:\n        /* \"#utility.yul\":4972:4978   */\n      0x00\n        /* \"#utility.yul\":5006:5011   */\n      dup2\n        /* \"#utility.yul\":5000:5012   */\n      mload\n        /* \"#utility.yul\":4990:5012   */\n      swap1\n      pop\n        /* \"#utility.yul\":4920:5019   */\n      swap2\n      swap1\n      pop\n      jump\t// out\n        /* \"#utility.yul\":5025:5184   */\n    tag_132:\n        /* \"#utility.yul\":5099:5110   */\n      0x00\n        /* \"#utility.yul\":5133:5139   */\n      dup3\n        /* \"#utility.yul\":5128:5131   */\n      dup3\n        /* \"#utility.yul\":5121:5140   */\n      mstore\n        /* \"#utility.yul\":5173:5177   */\n      0x20\n        /* \"#utility.yul\":5168:5171   */\n      dup3\n        /* \"#utility.yul\":5164:5178   */\n      add\n        /* \"#utility.yul\":5149:5178   */\n      swap1\n      pop\n        /* \"#utility.yul\":5025:5184   */\n      swap3\n      swap2\n      pop\n      pop\n      jump\t// out\n        /* \"#utility.yul\":5190:5436   */\n    tag_133:\n        /* \"#utility.yul\":5271:5272   */\n      0x00\n        /* \"#utility.yul\":5281:5394   */\n    tag_230:\n        /* \"#utility.yul\":5295:5301   */\n      dup4\n        /* \"#utility.yul\":5292:5293   */\n      dup2\n        /* \"#utility.yul\":5289:5302   */\n      lt\n        /* \"#utility.yul\":5281:5394   */\n      iszero\n      tag_232\n      jumpi\n        /* \"#utility.yul\":5380:5381   */\n      dup1\n        /* \"#utility.yul\":5375:5378   */\n      dup3\n        /* \"#utility.yul\":5371:5382   */\n      add\n        /* \"#utility.yul\":5365:5383   */\n      mload\n        /* \"#utility.yul\":5361:5362   */\n      dup2\n        /* \"#utility.yul\":5356:5359   */\n      dup5\n        /* \"#utility.yul\":5352:5363   */\n      add\n        /* \"#utility.yul\":5345:5384   */\n      mstore\n        /* \"#utility.yul\":5317:5319   */\n      0x20\n        /* \"#utility.yul\":5314:5315   */\n      dup2\n        /* \"#utility.yul\":5310:5320   */\n      add\n        /* \"#utility.yul\":5305:5320   */\n      swap1\n      pop\n        /* \"#utility.yul\":5281:5394   */\n      jump(tag_230)\n    tag_232:\n        /* \"#utility.yul\":5428:5429   */\n      0x00\n        /* \"#utility.yul\":5419:5425   */\n      dup5\n        /* \"#utility.yul\":5414:5417   */\n      dup5\n        /* \"#utility.yul\":5410:5426   */\n      add\n        /* \"#utility.yul\":5403:5430   */\n      mstore\n        /* \"#utility.yul\":5252:5436   */\n      pop\n        /* \"#utility.yul\":5190:5436   */\n      pop\n      pop\n      pop\n      jump\t// out\n        /* \"#utility.yul\":5442:5799   */\n    tag_134:\n        /* \"#utility.yul\":5520:5523   */\n      0x00\n        /* \"#utility.yul\":5548:5587   */\n      tag_234\n        /* \"#utility.yul\":5581:5586   */\n      dup3\n        /* \"#utility.yul\":5548:5587   */\n      tag_131\n      jump\t// in\n    tag_234:\n        /* \"#utility.yul\":5603:5664   */\n      tag_235\n        /* \"#utility.yul\":5657:5663   */\n      dup2\n        /* \"#utility.yul\":5652:5655   */\n      dup6\n        /* \"#utility.yul\":5603:5664   */\n      tag_132\n      jump\t// in\n    tag_235:\n        /* \"#utility.yul\":5596:5664   */\n      swap4\n      pop\n        /* \"#utility.yul\":5673:5738   */\n      tag_236\n        /* \"#utility.yul\":5731:5737   */\n      dup2\n        /* \"#utility.yul\":5726:5729   */\n      dup6\n        /* \"#utility.yul\":5719:5723   */\n      0x20\n        /* \"#utility.yul\":5712:5717   */\n      dup7\n        /* \"#utility.yul\":5708:5724   */\n      add\n        /* \"#utility.yul\":5673:5738   */\n      tag_133\n      jump\t// in\n    tag_236:\n        /* \"#utility.yul\":5763:5792   */\n      tag_237\n        /* \"#utility.yul\":5785:5791   */\n      dup2\n        /* \"#utility.yul\":5763:5792   */\n      tag_121\n      jump\t// in\n    tag_237:\n        /* \"#utility.yul\":5758:5761   */\n      dup5\n        /* \"#utility.yul\":5754:5793   */\n      add\n        /* \"#utility.yul\":5747:5793   */\n      swap2\n      pop\n        /* \"#utility.yul\":5524:5799   */\n      pop\n        /* \"#utility.yul\":5442:5799   */\n      swap3\n      swap2\n      pop\n      pop\n      jump\t// out\n        /* \"#utility.yul\":5877:6815   */\n    tag_135:\n        /* \"#utility.yul\":6004:6007   */\n      0x00\n        /* \"#utility.yul\":6040:6044   */\n      0x60\n        /* \"#utility.yul\":6035:6038   */\n      dup4\n        /* \"#utility.yul\":6031:6045   */\n      add\n        /* \"#utility.yul\":6128:6132   */\n      0x00\n        /* \"#utility.yul\":6121:6126   */\n      dup4\n        /* \"#utility.yul\":6117:6133   */\n      add\n        /* \"#utility.yul\":6111:6134   */\n      mload\n        /* \"#utility.yul\":6181:6184   */\n      dup5\n        /* \"#utility.yul\":6175:6179   */\n      dup3\n        /* \"#utility.yul\":6171:6185   */\n      sub\n        /* \"#utility.yul\":6164:6168   */\n      0x00\n        /* \"#utility.yul\":6159:6162   */\n      dup7\n        /* \"#utility.yul\":6155:6169   */\n      add\n        /* \"#utility.yul\":6148:6186   */\n      mstore\n        /* \"#utility.yul\":6207:6280   */\n      tag_239\n        /* \"#utility.yul\":6275:6279   */\n      dup3\n        /* \"#utility.yul\":6261:6273   */\n      dup3\n        /* \"#utility.yul\":6207:6280   */\n      tag_134\n      jump\t// in\n    tag_239:\n        /* \"#utility.yul\":6199:6280   */\n      swap2\n      pop\n        /* \"#utility.yul\":6055:6291   */\n      pop\n        /* \"#utility.yul\":6377:6381   */\n      0x20\n        /* \"#utility.yul\":6370:6375   */\n      dup4\n        /* \"#utility.yul\":6366:6382   */\n      add\n        /* \"#utility.yul\":6360:6383   */\n      mload\n        /* \"#utility.yul\":6430:6433   */\n      dup5\n        /* \"#utility.yul\":6424:6428   */\n      dup3\n        /* \"#utility.yul\":6420:6434   */\n      sub\n        /* \"#utility.yul\":6413:6417   */\n      0x20\n        /* \"#utility.yul\":6408:6411   */\n      dup7\n        /* \"#utility.yul\":6404:6418   */\n      add\n        /* \"#utility.yul\":6397:6435   */\n      mstore\n        /* \"#utility.yul\":6456:6529   */\n      tag_240\n        /* \"#utility.yul\":6524:6528   */\n      dup3\n        /* \"#utility.yul\":6510:6522   */\n      dup3\n        /* \"#utility.yul\":6456:6529   */\n      tag_134\n      jump\t// in\n    tag_240:\n        /* \"#utility.yul\":6448:6529   */\n      swap2\n      pop\n        /* \"#utility.yul\":6301:6540   */\n      pop\n        /* \"#utility.yul\":6625:6629   */\n      0x40\n        /* \"#utility.yul\":6618:6623   */\n      dup4\n        /* \"#utility.yul\":6614:6630   */\n      add\n        /* \"#utility.yul\":6608:6631   */\n      mload\n        /* \"#utility.yul\":6678:6681   */\n      dup5\n        /* \"#utility.yul\":6672:6676   */\n      dup3\n        /* \"#utility.yul\":6668:6682   */\n      sub\n        /* \"#utility.yul\":6661:6665   */\n      0x40\n        /* \"#utility.yul\":6656:6659   */\n      dup7\n        /* \"#utility.yul\":6652:6666   */\n      add\n        /* \"#utility.yul\":6645:6683   */\n      mstore\n        /* \"#utility.yul\":6704:6777   */\n      tag_241\n        /* \"#utility.yul\":6772:6776   */\n      dup3\n        /* \"#utility.yul\":6758:6770   */\n      dup3\n        /* \"#utility.yul\":6704:6777   */\n      tag_134\n      jump\t// in\n    tag_241:\n        /* \"#utility.yul\":6696:6777   */\n      swap2\n      pop\n        /* \"#utility.yul\":6550:6788   */\n      pop\n        /* \"#utility.yul\":6805:6809   */\n      dup1\n        /* \"#utility.yul\":6798:6809   */\n      swap2\n      pop\n        /* \"#utility.yul\":6009:6815   */\n      pop\n        /* \"#utility.yul\":5877:6815   */\n      swap3\n      swap2\n      pop\n      pop\n      jump\t// out\n        /* \"#utility.yul\":6821:6939   */\n    tag_136:\n        /* \"#utility.yul\":6908:6932   */\n      tag_243\n        /* \"#utility.yul\":6926:6931   */\n      dup2\n        /* \"#utility.yul\":6908:6932   */\n      tag_116\n      jump\t// in\n    tag_243:\n        /* \"#utility.yul\":6903:6906   */\n      dup3\n        /* \"#utility.yul\":6896:6933   */\n      mstore\n        /* \"#utility.yul\":6821:6939   */\n      pop\n      pop\n      jump\t// out\n        /* \"#utility.yul\":6945:7542   */\n    tag_26:\n        /* \"#utility.yul\":7146:7150   */\n      0x00\n        /* \"#utility.yul\":7184:7186   */\n      0x60\n        /* \"#utility.yul\":7173:7182   */\n      dup3\n        /* \"#utility.yul\":7169:7187   */\n      add\n        /* \"#utility.yul\":7161:7187   */\n      swap1\n      pop\n        /* \"#utility.yul\":7197:7262   */\n      tag_245\n        /* \"#utility.yul\":7259:7260   */\n      0x00\n        /* \"#utility.yul\":7248:7257   */\n      dup4\n        /* \"#utility.yul\":7244:7261   */\n      add\n        /* \"#utility.yul\":7235:7241   */\n      dup7\n        /* \"#utility.yul\":7197:7262   */\n      tag_130\n      jump\t// in\n    tag_245:\n        /* \"#utility.yul\":7309:7318   */\n      dup2\n        /* \"#utility.yul\":7303:7307   */\n      dup2\n        /* \"#utility.yul\":7299:7319   */\n      sub\n        /* \"#utility.yul\":7294:7296   */\n      0x20\n        /* \"#utility.yul\":7283:7292   */\n      dup4\n        /* \"#utility.yul\":7279:7297   */\n      add\n        /* \"#utility.yul\":7272:7320   */\n      mstore\n        /* \"#utility.yul\":7337:7453   */\n      tag_246\n        /* \"#utility.yul\":7448:7452   */\n      dup2\n        /* \"#utility.yul\":7439:7445   */\n      dup6\n        /* \"#utility.yul\":7337:7453   */\n      tag_135\n      jump\t// in\n    tag_246:\n        /* \"#utility.yul\":7329:7453   */\n      swap1\n      pop\n        /* \"#utility.yul\":7463:7535   */\n      tag_247\n        /* \"#utility.yul\":7531:7533   */\n      0x40\n        /* \"#utility.yul\":7520:7529   */\n      dup4\n        /* \"#utility.yul\":7516:7534   */\n      add\n        /* \"#utility.yul\":7507:7513   */\n      dup5\n        /* \"#utility.yul\":7463:7535   */\n      tag_136\n      jump\t// in\n    tag_247:\n        /* \"#utility.yul\":6945:7542   */\n      swap5\n      swap4\n      pop\n      pop\n      pop\n      pop\n      jump\t// out\n        /* \"#utility.yul\":7548:7717   */\n    tag_137:\n        /* \"#utility.yul\":7632:7643   */\n      0x00\n        /* \"#utility.yul\":7666:7672   */\n      dup3\n        /* \"#utility.yul\":7661:7664   */\n      dup3\n        /* \"#utility.yul\":7654:7673   */\n      mstore\n        /* \"#utility.yul\":7706:7710   */\n      0x20\n        /* \"#utility.yul\":7701:7704   */\n      dup3\n        /* \"#utility.yul\":7697:7711   */\n      add\n        /* \"#utility.yul\":7682:7711   */\n      swap1\n      pop\n        /* \"#utility.yul\":7548:7717   */\n      swap3\n      swap2\n      pop\n      pop\n      jump\t// out\n        /* \"#utility.yul\":7723:8100   */\n    tag_138:\n        /* \"#utility.yul\":7811:7814   */\n      0x00\n        /* \"#utility.yul\":7839:7878   */\n      tag_250\n        /* \"#utility.yul\":7872:7877   */\n      dup3\n        /* \"#utility.yul\":7839:7878   */\n      tag_131\n      jump\t// in\n    tag_250:\n        /* \"#utility.yul\":7894:7965   */\n      tag_251\n        /* \"#utility.yul\":7958:7964   */\n      dup2\n        /* \"#utility.yul\":7953:7956   */\n      dup6\n        /* \"#utility.yul\":7894:7965   */\n      tag_137\n      jump\t// in\n    tag_251:\n        /* \"#utility.yul\":7887:7965   */\n      swap4\n      pop\n        /* \"#utility.yul\":7974:8039   */\n      tag_252\n        /* \"#utility.yul\":8032:8038   */\n      dup2\n        /* \"#utility.yul\":8027:8030   */\n      dup6\n        /* \"#utility.yul\":8020:8024   */\n      0x20\n        /* \"#utility.yul\":8013:8018   */\n      dup7\n        /* \"#utility.yul\":8009:8025   */\n      add\n        /* \"#utility.yul\":7974:8039   */\n      tag_133\n      jump\t// in\n    tag_252:\n        /* \"#utility.yul\":8064:8093   */\n      tag_253\n        /* \"#utility.yul\":8086:8092   */\n      dup2\n        /* \"#utility.yul\":8064:8093   */\n      tag_121\n      jump\t// in\n    tag_253:\n        /* \"#utility.yul\":8059:8062   */\n      dup5\n        /* \"#utility.yul\":8055:8094   */\n      add\n        /* \"#utility.yul\":8048:8094   */\n      swap2\n      pop\n        /* \"#utility.yul\":7815:8100   */\n      pop\n        /* \"#utility.yul\":7723:8100   */\n      swap3\n      swap2\n      pop\n      pop\n      jump\t// out\n        /* \"#utility.yul\":8106:8232   */\n    tag_139:\n        /* \"#utility.yul\":8143:8150   */\n      0x00\n        /* \"#utility.yul\":8183:8225   */\n      0xffffffffffffffffffffffffffffffffffffffff\n        /* \"#utility.yul\":8176:8181   */\n      dup3\n        /* \"#utility.yul\":8172:8226   */\n      and\n        /* \"#utility.yul\":8161:8226   */\n      swap1\n      pop\n        /* \"#utility.yul\":8106:8232   */\n      swap2\n      swap1\n      pop\n      jump\t// out\n        /* \"#utility.yul\":8238:8334   */\n    tag_140:\n        /* \"#utility.yul\":8275:8282   */\n      0x00\n        /* \"#utility.yul\":8304:8328   */\n      tag_256\n        /* \"#utility.yul\":8322:8327   */\n      dup3\n        /* \"#utility.yul\":8304:8328   */\n      tag_139\n      jump\t// in\n    tag_256:\n        /* \"#utility.yul\":8293:8328   */\n      swap1\n      pop\n        /* \"#utility.yul\":8238:8334   */\n      swap2\n      swap1\n      pop\n      jump\t// out\n        /* \"#utility.yul\":8340:8458   */\n    tag_141:\n        /* \"#utility.yul\":8427:8451   */\n      tag_258\n        /* \"#utility.yul\":8445:8450   */\n      dup2\n        /* \"#utility.yul\":8427:8451   */\n      tag_140\n      jump\t// in\n    tag_258:\n        /* \"#utility.yul\":8422:8425   */\n      dup3\n        /* \"#utility.yul\":8415:8452   */\n      mstore\n        /* \"#utility.yul\":8340:8458   */\n      pop\n      pop\n      jump\t// out\n        /* \"#utility.yul\":8464:9389   */\n    tag_31:\n        /* \"#utility.yul\":8723:8727   */\n      0x00\n        /* \"#utility.yul\":8761:8764   */\n      0xa0\n        /* \"#utility.yul\":8750:8759   */\n      dup3\n        /* \"#utility.yul\":8746:8765   */\n      add\n        /* \"#utility.yul\":8738:8765   */\n      swap1\n      pop\n        /* \"#utility.yul\":8775:8840   */\n      tag_260\n        /* \"#utility.yul\":8837:8838   */\n      0x00\n        /* \"#utility.yul\":8826:8835   */\n      dup4\n        /* \"#utility.yul\":8822:8839   */\n      add\n        /* \"#utility.yul\":8813:8819   */\n      dup9\n        /* \"#utility.yul\":8775:8840   */\n      tag_130\n      jump\t// in\n    tag_260:\n        /* \"#utility.yul\":8887:8896   */\n      dup2\n        /* \"#utility.yul\":8881:8885   */\n      dup2\n        /* \"#utility.yul\":8877:8897   */\n      sub\n        /* \"#utility.yul\":8872:8874   */\n      0x20\n        /* \"#utility.yul\":8861:8870   */\n      dup4\n        /* \"#utility.yul\":8857:8875   */\n      add\n        /* \"#utility.yul\":8850:8898   */\n      mstore\n        /* \"#utility.yul\":8915:8993   */\n      tag_261\n        /* \"#utility.yul\":8988:8992   */\n      dup2\n        /* \"#utility.yul\":8979:8985   */\n      dup8\n        /* \"#utility.yul\":8915:8993   */\n      tag_138\n      jump\t// in\n    tag_261:\n        /* \"#utility.yul\":8907:8993   */\n      swap1\n      pop\n        /* \"#utility.yul\":9040:9049   */\n      dup2\n        /* \"#utility.yul\":9034:9038   */\n      dup2\n        /* \"#utility.yul\":9030:9050   */\n      sub\n        /* \"#utility.yul\":9025:9027   */\n      0x40\n        /* \"#utility.yul\":9014:9023   */\n      dup4\n        /* \"#utility.yul\":9010:9028   */\n      add\n        /* \"#utility.yul\":9003:9051   */\n      mstore\n        /* \"#utility.yul\":9068:9146   */\n      tag_262\n        /* \"#utility.yul\":9141:9145   */\n      dup2\n        /* \"#utility.yul\":9132:9138   */\n      dup7\n        /* \"#utility.yul\":9068:9146   */\n      tag_138\n      jump\t// in\n    tag_262:\n        /* \"#utility.yul\":9060:9146   */\n      swap1\n      pop\n        /* \"#utility.yul\":9156:9228   */\n      tag_263\n        /* \"#utility.yul\":9224:9226   */\n      0x60\n        /* \"#utility.yul\":9213:9222   */\n      dup4\n        /* \"#utility.yul\":9209:9227   */\n      add\n        /* \"#utility.yul\":9200:9206   */\n      dup6\n        /* \"#utility.yul\":9156:9228   */\n      tag_141\n      jump\t// in\n    tag_263:\n        /* \"#utility.yul\":9276:9285   */\n      dup2\n        /* \"#utility.yul\":9270:9274   */\n      dup2\n        /* \"#utility.yul\":9266:9286   */\n      sub\n        /* \"#utility.yul\":9260:9263   */\n      0x80\n        /* \"#utility.yul\":9249:9258   */\n      dup4\n        /* \"#utility.yul\":9245:9264   */\n      add\n        /* \"#utility.yul\":9238:9287   */\n      mstore\n        /* \"#utility.yul\":9304:9382   */\n      tag_264\n        /* \"#utility.yul\":9377:9381   */\n      dup2\n        /* \"#utility.yul\":9368:9374   */\n      dup5\n        /* \"#utility.yul\":9304:9382   */\n      tag_138\n      jump\t// in\n    tag_264:\n        /* \"#utility.yul\":9296:9382   */\n      swap1\n      pop\n        /* \"#utility.yul\":8464:9389   */\n      swap7\n      swap6\n      pop\n      pop\n      pop\n      pop\n      pop\n      pop\n      jump\t// out\n        /* \"#utility.yul\":9395:10700   */\n    tag_37:\n        /* \"#utility.yul\":9511:9517   */\n      0x00\n        /* \"#utility.yul\":9519:9525   */\n      dup1\n        /* \"#utility.yul\":9527:9533   */\n      0x00\n        /* \"#utility.yul\":9535:9541   */\n      dup1\n        /* \"#utility.yul\":9584:9587   */\n      0x80\n        /* \"#utility.yul\":9572:9581   */\n      dup6\n        /* \"#utility.yul\":9563:9570   */\n      dup8\n        /* \"#utility.yul\":9559:9582   */\n      sub\n        /* \"#utility.yul\":9555:9588   */\n      slt\n        /* \"#utility.yul\":9552:9672   */\n      iszero\n      tag_266\n      jumpi\n        /* \"#utility.yul\":9591:9670   */\n      tag_267\n      tag_114\n      jump\t// in\n    tag_267:\n        /* \"#utility.yul\":9552:9672   */\n    tag_266:\n        /* \"#utility.yul\":9711:9712   */\n      0x00\n        /* \"#utility.yul\":9736:9789   */\n      tag_268\n        /* \"#utility.yul\":9781:9788   */\n      dup8\n        /* \"#utility.yul\":9772:9778   */\n      dup3\n        /* \"#utility.yul\":9761:9770   */\n      dup9\n        /* \"#utility.yul\":9757:9779   */\n      add\n        /* \"#utility.yul\":9736:9789   */\n      tag_118\n      jump\t// in\n    tag_268:\n        /* \"#utility.yul\":9726:9789   */\n      swap5\n      pop\n        /* \"#utility.yul\":9682:9799   */\n      pop\n        /* \"#utility.yul\":9866:9868   */\n      0x20\n        /* \"#utility.yul\":9855:9864   */\n      dup6\n        /* \"#utility.yul\":9851:9869   */\n      add\n        /* \"#utility.yul\":9838:9870   */\n      calldataload\n        /* \"#utility.yul\":9897:9915   */\n      0xffffffffffffffff\n        /* \"#utility.yul\":9889:9895   */\n      dup2\n        /* \"#utility.yul\":9886:9916   */\n      gt\n        /* \"#utility.yul\":9883:10000   */\n      iszero\n      tag_269\n      jumpi\n        /* \"#utility.yul\":9919:9998   */\n      tag_270\n      tag_115\n      jump\t// in\n    tag_270:\n        /* \"#utility.yul\":9883:10000   */\n    tag_269:\n        /* \"#utility.yul\":10024:10087   */\n      tag_271\n        /* \"#utility.yul\":10079:10086   */\n      dup8\n        /* \"#utility.yul\":10070:10076   */\n      dup3\n        /* \"#utility.yul\":10059:10068   */\n      dup9\n        /* \"#utility.yul\":10055:10077   */\n      add\n        /* \"#utility.yul\":10024:10087   */\n      tag_128\n      jump\t// in\n    tag_271:\n        /* \"#utility.yul\":10014:10087   */\n      swap4\n      pop\n        /* \"#utility.yul\":9809:10097   */\n      pop\n        /* \"#utility.yul\":10164:10166   */\n      0x40\n        /* \"#utility.yul\":10153:10162   */\n      dup6\n        /* \"#utility.yul\":10149:10167   */\n      add\n        /* \"#utility.yul\":10136:10168   */\n      calldataload\n        /* \"#utility.yul\":10195:10213   */\n      0xffffffffffffffff\n        /* \"#utility.yul\":10187:10193   */\n      dup2\n        /* \"#utility.yul\":10184:10214   */\n      gt\n        /* \"#utility.yul\":10181:10298   */\n      iszero\n      tag_272\n      jumpi\n        /* \"#utility.yul\":10217:10296   */\n      tag_273\n      tag_115\n      jump\t// in\n    tag_273:\n        /* \"#utility.yul\":10181:10298   */\n    tag_272:\n        /* \"#utility.yul\":10322:10385   */\n      tag_274\n        /* \"#utility.yul\":10377:10384   */\n      dup8\n        /* \"#utility.yul\":10368:10374   */\n      dup3\n        /* \"#utility.yul\":10357:10366   */\n      dup9\n        /* \"#utility.yul\":10353:10375   */\n      add\n        /* \"#utility.yul\":10322:10385   */\n      tag_128\n      jump\t// in\n    tag_274:\n        /* \"#utility.yul\":10312:10385   */\n      swap3\n      pop\n        /* \"#utility.yul\":10107:10395   */\n      pop\n        /* \"#utility.yul\":10462:10464   */\n      0x60\n        /* \"#utility.yul\":10451:10460   */\n      dup6\n        /* \"#utility.yul\":10447:10465   */\n      add\n        /* \"#utility.yul\":10434:10466   */\n      calldataload\n        /* \"#utility.yul\":10493:10511   */\n      0xffffffffffffffff\n        /* \"#utility.yul\":10485:10491   */\n      dup2\n        /* \"#utility.yul\":10482:10512   */\n      gt\n        /* \"#utility.yul\":10479:10596   */\n      iszero\n      tag_275\n      jumpi\n        /* \"#utility.yul\":10515:10594   */\n      tag_276\n      tag_115\n      jump\t// in\n    tag_276:\n        /* \"#utility.yul\":10479:10596   */\n    tag_275:\n        /* \"#utility.yul\":10620:10683   */\n      tag_277\n        /* \"#utility.yul\":10675:10682   */\n      dup8\n        /* \"#utility.yul\":10666:10672   */\n      dup3\n        /* \"#utility.yul\":10655:10664   */\n      dup9\n        /* \"#utility.yul\":10651:10673   */\n      add\n        /* \"#utility.yul\":10620:10683   */\n      tag_128\n      jump\t// in\n    tag_277:\n        /* \"#utility.yul\":10610:10683   */\n      swap2\n      pop\n        /* \"#utility.yul\":10405:10693   */\n      pop\n        /* \"#utility.yul\":9395:10700   */\n      swap3\n      swap6\n      swap2\n      swap5\n      pop\n      swap3\n      pop\n      jump\t// out\n        /* \"#utility.yul\":10706:10928   */\n    tag_42:\n        /* \"#utility.yul\":10799:10803   */\n      0x00\n        /* \"#utility.yul\":10837:10839   */\n      0x20\n        /* \"#utility.yul\":10826:10835   */\n      dup3\n        /* \"#utility.yul\":10822:10840   */\n      add\n        /* \"#utility.yul\":10814:10840   */\n      swap1\n      pop\n        /* \"#utility.yul\":10850:10921   */\n      tag_279\n        /* \"#utility.yul\":10918:10919   */\n      0x00\n        /* \"#utility.yul\":10907:10916   */\n      dup4\n        /* \"#utility.yul\":10903:10920   */\n      add\n        /* \"#utility.yul\":10894:10900   */\n      dup5\n        /* \"#utility.yul\":10850:10921   */\n      tag_141\n      jump\t// in\n    tag_279:\n        /* \"#utility.yul\":10706:10928   */\n      swap3\n      swap2\n      pop\n      pop\n      jump\t// out\n        /* \"#utility.yul\":10934:11156   */\n    tag_46:\n        /* \"#utility.yul\":11027:11031   */\n      0x00\n        /* \"#utility.yul\":11065:11067   */\n      0x20\n        /* \"#utility.yul\":11054:11063   */\n      dup3\n        /* \"#utility.yul\":11050:11068   */\n      add\n        /* \"#utility.yul\":11042:11068   */\n      swap1\n      pop\n        /* \"#utility.yul\":11078:11149   */\n      tag_281\n        /* \"#utility.yul\":11146:11147   */\n      0x00\n        /* \"#utility.yul\":11135:11144   */\n      dup4\n        /* \"#utility.yul\":11131:11148   */\n      add\n        /* \"#utility.yul\":11122:11128   */\n      dup5\n        /* \"#utility.yul\":11078:11149   */\n      tag_136\n      jump\t// in\n    tag_281:\n        /* \"#utility.yul\":10934:11156   */\n      swap3\n      swap2\n      pop\n      pop\n      jump\t// out\n        /* \"#utility.yul\":11162:11333   */\n    tag_142:\n        /* \"#utility.yul\":11302:11325   */\n      0x596f7520617265206e6f74204c696272617269616e0000000000000000000000\n        /* \"#utility.yul\":11298:11299   */\n      0x00\n        /* \"#utility.yul\":11290:11296   */\n      dup3\n        /* \"#utility.yul\":11286:11300   */\n      add\n        /* \"#utility.yul\":11279:11326   */\n      mstore\n        /* \"#utility.yul\":11162:11333   */\n      pop\n      jump\t// out\n        /* \"#utility.yul\":11339:11705   */\n    tag_143:\n        /* \"#utility.yul\":11481:11484   */\n      0x00\n        /* \"#utility.yul\":11502:11569   */\n      tag_284\n        /* \"#utility.yul\":11566:11568   */\n      0x15\n        /* \"#utility.yul\":11561:11564   */\n      dup4\n        /* \"#utility.yul\":11502:11569   */\n      tag_137\n      jump\t// in\n    tag_284:\n        /* \"#utility.yul\":11495:11569   */\n      swap2\n      pop\n        /* \"#utility.yul\":11578:11671   */\n      tag_285\n        /* \"#utility.yul\":11667:11670   */\n      dup3\n        /* \"#utility.yul\":11578:11671   */\n      tag_142\n      jump\t// in\n    tag_285:\n        /* \"#utility.yul\":11696:11698   */\n      0x20\n        /* \"#utility.yul\":11691:11694   */\n      dup3\n        /* \"#utility.yul\":11687:11699   */\n      add\n        /* \"#utility.yul\":11680:11699   */\n      swap1\n      pop\n        /* \"#utility.yul\":11339:11705   */\n      swap2\n      swap1\n      pop\n      jump\t// out\n        /* \"#utility.yul\":11711:12130   */\n    tag_53:\n        /* \"#utility.yul\":11877:11881   */\n      0x00\n        /* \"#utility.yul\":11915:11917   */\n      0x20\n        /* \"#utility.yul\":11904:11913   */\n      dup3\n        /* \"#utility.yul\":11900:11918   */\n      add\n        /* \"#utility.yul\":11892:11918   */\n      swap1\n      pop\n        /* \"#utility.yul\":11964:11973   */\n      dup2\n        /* \"#utility.yul\":11958:11962   */\n      dup2\n        /* \"#utility.yul\":11954:11974   */\n      sub\n        /* \"#utility.yul\":11950:11951   */\n      0x00\n        /* \"#utility.yul\":11939:11948   */\n      dup4\n        /* \"#utility.yul\":11935:11952   */\n      add\n        /* \"#utility.yul\":11928:11975   */\n      mstore\n        /* \"#utility.yul\":11992:12123   */\n      tag_287\n        /* \"#utility.yul\":12118:12122   */\n      dup2\n        /* \"#utility.yul\":11992:12123   */\n      tag_143\n      jump\t// in\n    tag_287:\n        /* \"#utility.yul\":11984:12123   */\n      swap1\n      pop\n        /* \"#utility.yul\":11711:12130   */\n      swap2\n      swap1\n      pop\n      jump\t// out\n        /* \"#utility.yul\":12136:12316   */\n    tag_144:\n        /* \"#utility.yul\":12184:12261   */\n      0x4e487b7100000000000000000000000000000000000000000000000000000000\n        /* \"#utility.yul\":12181:12182   */\n      0x00\n        /* \"#utility.yul\":12174:12262   */\n      mstore\n        /* \"#utility.yul\":12281:12285   */\n      0x22\n        /* \"#utility.yul\":12278:12279   */\n      0x04\n        /* \"#utility.yul\":12271:12286   */\n      mstore\n        /* \"#utility.yul\":12305:12309   */\n      0x24\n        /* \"#utility.yul\":12302:12303   */\n      0x00\n        /* \"#utility.yul\":12295:12310   */\n      revert\n        /* \"#utility.yul\":12322:12642   */\n    tag_67:\n        /* \"#utility.yul\":12366:12372   */\n      0x00\n        /* \"#utility.yul\":12403:12404   */\n      0x02\n        /* \"#utility.yul\":12397:12401   */\n      dup3\n        /* \"#utility.yul\":12393:12405   */\n      div\n        /* \"#utility.yul\":12383:12405   */\n      swap1\n      pop\n        /* \"#utility.yul\":12450:12451   */\n      0x01\n        /* \"#utility.yul\":12444:12448   */\n      dup3\n        /* \"#utility.yul\":12440:12452   */\n      and\n        /* \"#utility.yul\":12471:12489   */\n      dup1\n        /* \"#utility.yul\":12461:12542   */\n      tag_290\n      jumpi\n        /* \"#utility.yul\":12527:12531   */\n      0x7f\n        /* \"#utility.yul\":12519:12525   */\n      dup3\n        /* \"#utility.yul\":12515:12532   */\n      and\n        /* \"#utility.yul\":12505:12532   */\n      swap2\n      pop\n        /* \"#utility.yul\":12461:12542   */\n    tag_290:\n        /* \"#utility.yul\":12589:12591   */\n      0x20\n        /* \"#utility.yul\":12581:12587   */\n      dup3\n        /* \"#utility.yul\":12578:12592   */\n      lt\n        /* \"#utility.yul\":12558:12576   */\n      dup2\n        /* \"#utility.yul\":12555:12593   */\n      sub\n        /* \"#utility.yul\":12552:12636   */\n      tag_291\n      jumpi\n        /* \"#utility.yul\":12608:12626   */\n      tag_292\n      tag_144\n      jump\t// in\n    tag_292:\n        /* \"#utility.yul\":12552:12636   */\n    tag_291:\n        /* \"#utility.yul\":12373:12642   */\n      pop\n        /* \"#utility.yul\":12322:12642   */\n      swap2\n      swap1\n      pop\n      jump\t// out\n        /* \"#utility.yul\":12648:12789   */\n    tag_145:\n        /* \"#utility.yul\":12697:12701   */\n      0x00\n        /* \"#utility.yul\":12720:12723   */\n      dup2\n        /* \"#utility.yul\":12712:12723   */\n      swap1\n      pop\n        /* \"#utility.yul\":12743:12746   */\n      dup2\n        /* \"#utility.yul\":12740:12741   */\n      0x00\n        /* \"#utility.yul\":12733:12747   */\n      mstore\n        /* \"#utility.yul\":12777:12781   */\n      0x20\n        /* \"#utility.yul\":12774:12775   */\n      0x00\n        /* \"#utility.yul\":12764:12782   */\n      keccak256\n        /* \"#utility.yul\":12756:12782   */\n      swap1\n      pop\n        /* \"#utility.yul\":12648:12789   */\n      swap2\n      swap1\n      pop\n      jump\t// out\n        /* \"#utility.yul\":12795:12888   */\n    tag_146:\n        /* \"#utility.yul\":12832:12838   */\n      0x00\n        /* \"#utility.yul\":12879:12881   */\n      0x20\n        /* \"#utility.yul\":12874:12876   */\n      0x1f\n        /* \"#utility.yul\":12867:12872   */\n      dup4\n        /* \"#utility.yul\":12863:12877   */\n      add\n        /* \"#utility.yul\":12859:12882   */\n      div\n        /* \"#utility.yul\":12849:12882   */\n      swap1\n      pop\n        /* \"#utility.yul\":12795:12888   */\n      swap2\n      swap1\n      pop\n      jump\t// out\n        /* \"#utility.yul\":12894:13001   */\n    tag_147:\n        /* \"#utility.yul\":12938:12946   */\n      0x00\n        /* \"#utility.yul\":12988:12993   */\n      dup3\n        /* \"#utility.yul\":12982:12986   */\n      dup3\n        /* \"#utility.yul\":12978:12994   */\n      shl\n        /* \"#utility.yul\":12957:12994   */\n      swap1\n      pop\n        /* \"#utility.yul\":12894:13001   */\n      swap3\n      swap2\n      pop\n      pop\n      jump\t// out\n        /* \"#utility.yul\":13007:13400   */\n    tag_148:\n        /* \"#utility.yul\":13076:13082   */\n      0x00\n        /* \"#utility.yul\":13126:13127   */\n      0x08\n        /* \"#utility.yul\":13114:13124   */\n      dup4\n        /* \"#utility.yul\":13110:13128   */\n      mul\n        /* \"#utility.yul\":13149:13246   */\n      tag_297\n        /* \"#utility.yul\":13179:13245   */\n      0xffffffffffffffffffffffffffffffffffffffffffffffffffffffffffffffff\n        /* \"#utility.yul\":13168:13177   */\n      dup3\n        /* \"#utility.yul\":13149:13246   */\n      tag_147\n      jump\t// in\n    tag_297:\n        /* \"#utility.yul\":13267:13306   */\n      tag_298\n        /* \"#utility.yul\":13297:13305   */\n      dup7\n        /* \"#utility.yul\":13286:13295   */\n      dup4\n        /* \"#utility.yul\":13267:13306   */\n      tag_147\n      jump\t// in\n    tag_298:\n        /* \"#utility.yul\":13255:13306   */\n      swap6\n      pop\n        /* \"#utility.yul\":13339:13343   */\n      dup1\n        /* \"#utility.yul\":13335:13344   */\n      not\n        /* \"#utility.yul\":13328:13333   */\n      dup5\n        /* \"#utility.yul\":13324:13345   */\n      and\n        /* \"#utility.yul\":13315:13345   */\n      swap4\n      pop\n        /* \"#utility.yul\":13388:13392   */\n      dup1\n        /* \"#utility.yul\":13378:13386   */\n      dup7\n        /* \"#utility.yul\":13374:13393   */\n      and\n        /* \"#utility.yul\":13367:13372   */\n      dup5\n        /* \"#utility.yul\":13364:13394   */\n      or\n        /* \"#utility.yul\":13354:13394   */\n      swap3\n      pop\n        /* \"#utility.yul\":13083:13400   */\n      pop\n      pop\n        /* \"#utility.yul\":13007:13400   */\n      swap4\n      swap3\n      pop\n      pop\n      pop\n      jump\t// out\n        /* \"#utility.yul\":13406:13466   */\n    tag_149:\n        /* \"#utility.yul\":13434:13437   */\n      0x00\n        /* \"#utility.yul\":13455:13460   */\n      dup2\n        /* \"#utility.yul\":13448:13460   */\n      swap1\n      pop\n        /* \"#utility.yul\":13406:13466   */\n      swap2\n      swap1\n      pop\n      jump\t// out\n        /* \"#utility.yul\":13472:13614   */\n    tag_150:\n        /* \"#utility.yul\":13522:13531   */\n      0x00\n        /* \"#utility.yul\":13555:13608   */\n      tag_301\n        /* \"#utility.yul\":13573:13607   */\n      tag_302\n        /* \"#utility.yul\":13582:13606   */\n      tag_303\n        /* \"#utility.yul\":13600:13605   */\n      dup5\n        /* \"#utility.yul\":13582:13606   */\n      tag_116\n      jump\t// in\n    tag_303:\n        /* \"#utility.yul\":13573:13607   */\n      tag_149\n      jump\t// in\n    tag_302:\n        /* \"#utility.yul\":13555:13608   */\n      tag_116\n      jump\t// in\n    tag_301:\n        /* \"#utility.yul\":13542:13608   */\n      swap1\n      pop\n        /* \"#utility.yul\":13472:13614   */\n      swap2\n      swap1\n      pop\n      jump\t// out\n        /* \"#utility.yul\":13620:13695   */\n    tag_151:\n        /* \"#utility.yul\":13663:13666   */\n      0x00\n        /* \"#utility.yul\":13684:13689   */\n      dup2\n        /* \"#utility.yul\":13677:13689   */\n      swap1\n      pop\n        /* \"#utility.yul\":13620:13695   */\n      swap2\n      swap1\n      pop\n      jump\t// out\n        /* \"#utility.yul\":13701:13970   */\n    tag_152:\n        /* \"#utility.yul\":13811:13850   */\n      tag_306\n        /* \"#utility.yul\":13842:13849   */\n      dup4\n        /* \"#utility.yul\":13811:13850   */\n      tag_150\n      jump\t// in\n    tag_306:\n        /* \"#utility.yul\":13872:13963   */\n      tag_307\n        /* \"#utility.yul\":13921:13962   */\n      tag_308\n        /* \"#utility.yul\":13945:13961   */\n      dup3\n        /* \"#utility.yul\":13921:13962   */\n      tag_151\n      jump\t// in\n    tag_308:\n        /* \"#utility.yul\":13913:13919   */\n      dup5\n        /* \"#utility.yul\":13906:13910   */\n      dup5\n        /* \"#utility.yul\":13900:13911   */\n      sload\n        /* \"#utility.yul\":13872:13963   */\n      tag_148\n      jump\t// in\n    tag_307:\n        /* \"#utility.yul\":13866:13870   */\n      dup3\n        /* \"#utility.yul\":13859:13964   */\n      sstore\n        /* \"#utility.yul\":13777:13970   */\n      pop\n        /* \"#utility.yul\":13701:13970   */\n      pop\n      pop\n      pop\n      jump\t// out\n        /* \"#utility.yul\":13976:14049   */\n    tag_153:\n        /* \"#utility.yul\":14021:14024   */\n      0x00\n        /* \"#utility.yul\":13976:14049   */\n      swap1\n      jump\t// out\n        /* \"#utility.yul\":14055:14244   */\n    tag_154:\n        /* \"#utility.yul\":14132:14164   */\n      tag_311\n      tag_153\n      jump\t// in\n    tag_311:\n        /* \"#utility.yul\":14173:14238   */\n      tag_312\n        /* \"#utility.yul\":14231:14237   */\n      dup2\n        /* \"#utility.yul\":14223:14229   */\n      dup5\n        /* \"#utility.yul\":14217:14221   */\n      dup5\n        /* \"#utility.yul\":14173:14238   */\n      tag_152\n      jump\t// in\n    tag_312:\n        /* \"#utility.yul\":14108:14244   */\n      pop\n        /* \"#utility.yul\":14055:14244   */\n      pop\n      pop\n      jump\t// out\n        /* \"#utility.yul\":14250:14436   */\n    tag_155:\n        /* \"#utility.yul\":14310:14430   */\n    tag_314:\n        /* \"#utility.yul\":14327:14330   */\n      dup2\n        /* \"#utility.yul\":14320:14325   */\n      dup2\n        /* \"#utility.yul\":14317:14331   */\n      lt\n        /* \"#utility.yul\":14310:14430   */\n      iszero\n      tag_316\n      jumpi\n        /* \"#utility.yul\":14381:14420   */\n      tag_317\n        /* \"#utility.yul\":14418:14419   */\n      0x00\n        /* \"#utility.yul\":14411:14416   */\n      dup3\n        /* \"#utility.yul\":14381:14420   */\n      tag_154\n      jump\t// in\n    tag_317:\n        /* \"#utility.yul\":14354:14355   */\n      0x01\n        /* \"#utility.yul\":14347:14352   */\n      dup2\n        /* \"#utility.yul\":14343:14356   */\n      add\n        /* \"#utility.yul\":14334:14356   */\n      swap1\n      pop\n        /* \"#utility.yul\":14310:14430   */\n      jump(tag_314)\n    tag_316:\n        /* \"#utility.yul\":14250:14436   */\n      pop\n      pop\n      jump\t// out\n        /* \"#utility.yul\":14442:14985   */\n    tag_156:\n        /* \"#utility.yul\":14543:14545   */\n      0x1f\n        /* \"#utility.yul\":14538:14541   */\n      dup3\n        /* \"#utility.yul\":14535:14546   */\n      gt\n        /* \"#utility.yul\":14532:14978   */\n      iszero\n      tag_319\n      jumpi\n        /* \"#utility.yul\":14577:14615   */\n      tag_320\n        /* \"#utility.yul\":14609:14614   */\n      dup2\n        /* \"#utility.yul\":14577:14615   */\n      tag_145\n      jump\t// in\n    tag_320:\n        /* \"#utility.yul\":14661:14690   */\n      tag_321\n        /* \"#utility.yul\":14679:14689   */\n      dup5\n        /* \"#utility.yul\":14661:14690   */\n      tag_146\n      jump\t// in\n    tag_321:\n        /* \"#utility.yul\":14651:14659   */\n      dup2\n        /* \"#utility.yul\":14647:14691   */\n      add\n        /* \"#utility.yul\":14844:14846   */\n      0x20\n        /* \"#utility.yul\":14832:14842   */\n      dup6\n        /* \"#utility.yul\":14829:14847   */\n      lt\n        /* \"#utility.yul\":14826:14875   */\n      iszero\n      tag_322\n      jumpi\n        /* \"#utility.yul\":14865:14873   */\n      dup2\n        /* \"#utility.yul\":14850:14873   */\n      swap1\n      pop\n        /* \"#utility.yul\":14826:14875   */\n    tag_322:\n        /* \"#utility.yul\":14888:14968   */\n      tag_323\n        /* \"#utility.yul\":14944:14966   */\n      tag_324\n        /* \"#utility.yul\":14962:14965   */\n      dup6\n        /* \"#utility.yul\":14944:14966   */\n      tag_146\n      jump\t// in\n    tag_324:\n        /* \"#utility.yul\":14934:14942   */\n      dup4\n        /* \"#utility.yul\":14930:14967   */\n      add\n        /* \"#utility.yul\":14917:14928   */\n      dup3\n        /* \"#utility.yul\":14888:14968   */\n      tag_155\n      jump\t// in\n    tag_323:\n        /* \"#utility.yul\":14547:14978   */\n      pop\n      pop\n        /* \"#utility.yul\":14532:14978   */\n    tag_319:\n        /* \"#utility.yul\":14442:14985   */\n      pop\n      pop\n      pop\n      jump\t// out\n        /* \"#utility.yul\":14991:15108   */\n    tag_157:\n        /* \"#utility.yul\":15045:15053   */\n      0x00\n        /* \"#utility.yul\":15095:15100   */\n      dup3\n        /* \"#utility.yul\":15089:15093   */\n      dup3\n        /* \"#utility.yul\":15085:15101   */\n      shr\n        /* \"#utility.yul\":15064:15101   */\n      swap1\n      pop\n        /* \"#utility.yul\":14991:15108   */\n      swap3\n      swap2\n      pop\n      pop\n      jump\t// out\n        /* \"#utility.yul\":15114:15283   */\n    tag_158:\n        /* \"#utility.yul\":15158:15164   */\n      0x00\n        /* \"#utility.yul\":15191:15242   */\n      tag_327\n        /* \"#utility.yul\":15239:15240   */\n      0x00\n        /* \"#utility.yul\":15235:15241   */\n      not\n        /* \"#utility.yul\":15227:15232   */\n      dup5\n        /* \"#utility.yul\":15224:15225   */\n      0x08\n        /* \"#utility.yul\":15220:15233   */\n      mul\n        /* \"#utility.yul\":15191:15242   */\n      tag_157\n      jump\t// in\n    tag_327:\n        /* \"#utility.yul\":15187:15243   */\n      not\n        /* \"#utility.yul\":15272:15276   */\n      dup1\n        /* \"#utility.yul\":15266:15270   */\n      dup4\n        /* \"#utility.yul\":15262:15277   */\n      and\n        /* \"#utility.yul\":15252:15277   */\n      swap2\n      pop\n        /* \"#utility.yul\":15165:15283   */\n      pop\n        /* \"#utility.yul\":15114:15283   */\n      swap3\n      swap2\n      pop\n      pop\n      jump\t// out\n        /* \"#utility.yul\":15288:15583   */\n    tag_159:\n        /* \"#utility.yul\":15364:15368   */\n      0x00\n        /* \"#utility.yul\":15510:15539   */\n      tag_329\n        /* \"#utility.yul\":15535:15538   */\n      dup4\n        /* \"#utility.yul\":15529:15533   */\n      dup4\n        /* \"#utility.yul\":15510:15539   */\n      tag_158\n      jump\t// in\n    tag_329:\n        /* \"#utility.yul\":15502:15539   */\n      swap2\n      pop\n        /* \"#utility.yul\":15572:15575   */\n      dup3\n        /* \"#utility.yul\":15569:15570   */\n      0x02\n        /* \"#utility.yul\":15565:15576   */\n      mul\n        /* \"#utility.yul\":15559:15563   */\n      dup3\n        /* \"#utility.yul\":15556:15577   */\n      or\n        /* \"#utility.yul\":15548:15577   */\n      swap1\n      pop\n        /* \"#utility.yul\":15288:15583   */\n      swap3\n      swap2\n      pop\n      pop\n      jump\t// out\n        /* \"#utility.yul\":15588:16983   */\n    tag_55:\n        /* \"#utility.yul\":15705:15742   */\n      tag_331\n        /* \"#utility.yul\":15738:15741   */\n      dup3\n        /* \"#utility.yul\":15705:15742   */\n      tag_131\n      jump\t// in\n    tag_331:\n        /* \"#utility.yul\":15807:15825   */\n      0xffffffffffffffff\n        /* \"#utility.yul\":15799:15805   */\n      dup2\n        /* \"#utility.yul\":15796:15826   */\n      gt\n        /* \"#utility.yul\":15793:15849   */\n      iszero\n      tag_332\n      jumpi\n        /* \"#utility.yul\":15829:15847   */\n      tag_333\n      tag_122\n      jump\t// in\n    tag_333:\n        /* \"#utility.yul\":15793:15849   */\n    tag_332:\n        /* \"#utility.yul\":15873:15911   */\n      tag_334\n        /* \"#utility.yul\":15905:15909   */\n      dup3\n        /* \"#utility.yul\":15899:15910   */\n      sload\n        /* \"#utility.yul\":15873:15911   */\n      tag_67\n      jump\t// in\n    tag_334:\n        /* \"#utility.yul\":15958:16025   */\n      tag_335\n        /* \"#utility.yul\":16018:16024   */\n      dup3\n        /* \"#utility.yul\":16010:16016   */\n      dup3\n        /* \"#utility.yul\":16004:16008   */\n      dup6\n        /* \"#utility.yul\":15958:16025   */\n      tag_156\n      jump\t// in\n    tag_335:\n        /* \"#utility.yul\":16052:16053   */\n      0x00\n        /* \"#utility.yul\":16076:16080   */\n      0x20\n        /* \"#utility.yul\":16063:16080   */\n      swap1\n      pop\n        /* \"#utility.yul\":16108:16110   */\n      0x1f\n        /* \"#utility.yul\":16100:16106   */\n      dup4\n        /* \"#utility.yul\":16097:16111   */\n      gt\n        /* \"#utility.yul\":16125:16126   */\n      0x01\n        /* \"#utility.yul\":16120:16738   */\n      dup2\n      eq\n      tag_337\n      jumpi\n        /* \"#utility.yul\":16782:16783   */\n      0x00\n        /* \"#utility.yul\":16799:16805   */\n      dup5\n        /* \"#utility.yul\":16796:16873   */\n      iszero\n      tag_338\n      jumpi\n        /* \"#utility.yul\":16848:16857   */\n      dup3\n        /* \"#utility.yul\":16843:16846   */\n      dup8\n        /* \"#utility.yul\":16839:16858   */\n      add\n        /* \"#utility.yul\":16833:16859   */\n      mload\n        /* \"#utility.yul\":16824:16859   */\n      swap1\n      pop\n        /* \"#utility.yul\":16796:16873   */\n    tag_338:\n        /* \"#utility.yul\":16899:16966   */\n      tag_339\n        /* \"#utility.yul\":16959:16965   */\n      dup6\n        /* \"#utility.yul\":16952:16957   */\n      dup3\n        /* \"#utility.yul\":16899:16966   */\n      tag_159\n      jump\t// in\n    tag_339:\n        /* \"#utility.yul\":16893:16897   */\n      dup7\n        /* \"#utility.yul\":16886:16967   */\n      sstore\n        /* \"#utility.yul\":16755:16977   */\n      pop\n        /* \"#utility.yul\":16090:16977   */\n      jump(tag_336)\n        /* \"#utility.yul\":16120:16738   */\n    tag_337:\n        /* \"#utility.yul\":16172:16176   */\n      0x1f\n        /* \"#utility.yul\":16168:16177   */\n      not\n        /* \"#utility.yul\":16160:16166   */\n      dup5\n        /* \"#utility.yul\":16156:16178   */\n      and\n        /* \"#utility.yul\":16206:16243   */\n      tag_340\n        /* \"#utility.yul\":16238:16242   */\n      dup7\n        /* \"#utility.yul\":16206:16243   */\n      tag_145\n      jump\t// in\n    tag_340:\n        /* \"#utility.yul\":16265:16266   */\n      0x00\n        /* \"#utility.yul\":16279:16487   */\n    tag_341:\n        /* \"#utility.yul\":16293:16300   */\n      dup3\n        /* \"#utility.yul\":16290:16291   */\n      dup2\n        /* \"#utility.yul\":16287:16301   */\n      lt\n        /* \"#utility.yul\":16279:16487   */\n      iszero\n      tag_343\n      jumpi\n        /* \"#utility.yul\":16372:16381   */\n      dup5\n        /* \"#utility.yul\":16367:16370   */\n      dup10\n        /* \"#utility.yul\":16363:16382   */\n      add\n        /* \"#utility.yul\":16357:16383   */\n      mload\n        /* \"#utility.yul\":16349:16355   */\n      dup3\n        /* \"#utility.yul\":16342:16384   */\n      sstore\n        /* \"#utility.yul\":16423:16424   */\n      0x01\n        /* \"#utility.yul\":16415:16421   */\n      dup3\n        /* \"#utility.yul\":16411:16425   */\n      add\n        /* \"#utility.yul\":16401:16425   */\n      swap2\n      pop\n        /* \"#utility.yul\":16470:16472   */\n      0x20\n        /* \"#utility.yul\":16459:16468   */\n      dup6\n        /* \"#utility.yul\":16455:16473   */\n      add\n        /* \"#utility.yul\":16442:16473   */\n      swap5\n      pop\n        /* \"#utility.yul\":16316:16320   */\n      0x20\n        /* \"#utility.yul\":16313:16314   */\n      dup2\n        /* \"#utility.yul\":16309:16321   */\n      add\n        /* \"#utility.yul\":16304:16321   */\n      swap1\n      pop\n        /* \"#utility.yul\":16279:16487   */\n      jump(tag_341)\n    tag_343:\n        /* \"#utility.yul\":16515:16521   */\n      dup7\n        /* \"#utility.yul\":16506:16513   */\n      dup4\n        /* \"#utility.yul\":16503:16522   */\n      lt\n        /* \"#utility.yul\":16500:16679   */\n      iszero\n      tag_344\n      jumpi\n        /* \"#utility.yul\":16573:16582   */\n      dup5\n        /* \"#utility.yul\":16568:16571   */\n      dup10\n        /* \"#utility.yul\":16564:16583   */\n      add\n        /* \"#utility.yul\":16558:16584   */\n      mload\n        /* \"#utility.yul\":16616:16664   */\n      tag_345\n        /* \"#utility.yul\":16658:16662   */\n      0x1f\n        /* \"#utility.yul\":16650:16656   */\n      dup10\n        /* \"#utility.yul\":16646:16663   */\n      and\n        /* \"#utility.yul\":16635:16644   */\n      dup3\n        /* \"#utility.yul\":16616:16664   */\n      tag_158\n      jump\t// in\n    tag_345:\n        /* \"#utility.yul\":16608:16614   */\n      dup4\n        /* \"#utility.yul\":16601:16665   */\n      sstore\n        /* \"#utility.yul\":16523:16679   */\n      pop\n        /* \"#utility.yul\":16500:16679   */\n    tag_344:\n        /* \"#utility.yul\":16725:16726   */\n      0x01\n        /* \"#utility.yul\":16721:16722   */\n      0x02\n        /* \"#utility.yul\":16713:16719   */\n      dup9\n        /* \"#utility.yul\":16709:16723   */\n      mul\n        /* \"#utility.yul\":16705:16727   */\n      add\n        /* \"#utility.yul\":16699:16703   */\n      dup9\n        /* \"#utility.yul\":16692:16728   */\n      sstore\n        /* \"#utility.yul\":16127:16738   */\n      pop\n      pop\n      pop\n        /* \"#utility.yul\":16090:16977   */\n    tag_336:\n      pop\n        /* \"#utility.yul\":15680:16983   */\n      pop\n      pop\n      pop\n        /* \"#utility.yul\":15588:16983   */\n      pop\n      pop\n      jump\t// out\n        /* \"#utility.yul\":16989:17160   */\n    tag_160:\n        /* \"#utility.yul\":17129:17152   */\n      0x796f7520617265206e6f74207065726d69747465640000000000000000000000\n        /* \"#utility.yul\":17125:17126   */\n      0x00\n        /* \"#utility.yul\":17117:17123   */\n      dup3\n        /* \"#utility.yul\":17113:17127   */\n      add\n        /* \"#utility.yul\":17106:17153   */\n      mstore\n        /* \"#utility.yul\":16989:17160   */\n      pop\n      jump\t// out\n        /* \"#utility.yul\":17166:17532   */\n    tag_161:\n        /* \"#utility.yul\":17308:17311   */\n      0x00\n        /* \"#utility.yul\":17329:17396   */\n      tag_348\n        /* \"#utility.yul\":17393:17395   */\n      0x15\n        /* \"#utility.yul\":17388:17391   */\n      dup4\n        /* \"#utility.yul\":17329:17396   */\n      tag_137\n      jump\t// in\n    tag_348:\n        /* \"#utility.yul\":17322:17396   */\n      swap2\n      pop\n        /* \"#utility.yul\":17405:17498   */\n      tag_349\n        /* \"#utility.yul\":17494:17497   */\n      dup3\n        /* \"#utility.yul\":17405:17498   */\n      tag_160\n      jump\t// in\n    tag_349:\n        /* \"#utility.yul\":17523:17525   */\n      0x20\n        /* \"#utility.yul\":17518:17521   */\n      dup3\n        /* \"#utility.yul\":17514:17526   */\n      add\n        /* \"#utility.yul\":17507:17526   */\n      swap1\n      pop\n        /* \"#utility.yul\":17166:17532   */\n      swap2\n      swap1\n      pop\n      jump\t// out\n        /* \"#utility.yul\":17538:17957   */\n    tag_61:\n        /* \"#utility.yul\":17704:17708   */\n      0x00\n        /* \"#utility.yul\":17742:17744   */\n      0x20\n        /* \"#utility.yul\":17731:17740   */\n      dup3\n        /* \"#utility.yul\":17727:17745   */\n      add\n        /* \"#utility.yul\":17719:17745   */\n      swap1\n      pop\n        /* \"#utility.yul\":17791:17800   */\n      dup2\n        /* \"#utility.yul\":17785:17789   */\n      dup2\n        /* \"#utility.yul\":17781:17801   */\n      sub\n        /* \"#utility.yul\":17777:17778   */\n      0x00\n        /* \"#utility.yul\":17766:17775   */\n      dup4\n        /* \"#utility.yul\":17762:17779   */\n      add\n        /* \"#utility.yul\":17755:17802   */\n      mstore\n        /* \"#utility.yul\":17819:17950   */\n      tag_351\n        /* \"#utility.yul\":17945:17949   */\n      dup2\n        /* \"#utility.yul\":17819:17950   */\n      tag_161\n      jump\t// in\n    tag_351:\n        /* \"#utility.yul\":17811:17950   */\n      swap1\n      pop\n        /* \"#utility.yul\":17538:17957   */\n      swap2\n      swap1\n      pop\n      jump\t// out\n        /* \"#utility.yul\":17963:18116   */\n    tag_162:\n        /* \"#utility.yul\":18016:18022   */\n      0x00\n        /* \"#utility.yul\":18050:18055   */\n      dup2\n        /* \"#utility.yul\":18044:18056   */\n      sload\n        /* \"#utility.yul\":18034:18056   */\n      swap1\n      pop\n        /* \"#utility.yul\":18076:18109   */\n      tag_353\n        /* \"#utility.yul\":18102:18108   */\n      dup2\n        /* \"#utility.yul\":18076:18109   */\n      tag_67\n      jump\t// in\n    tag_353:\n        /* \"#utility.yul\":18066:18109   */\n      swap1\n      pop\n        /* \"#utility.yul\":17963:18116   */\n      swap2\n      swap1\n      pop\n      jump\t// out\n        /* \"#utility.yul\":18122:18267   */\n    tag_163:\n        /* \"#utility.yul\":18175:18179   */\n      0x00\n        /* \"#utility.yul\":18198:18201   */\n      dup2\n        /* \"#utility.yul\":18190:18201   */\n      swap1\n      pop\n        /* \"#utility.yul\":18221:18224   */\n      dup2\n        /* \"#utility.yul\":18218:18219   */\n      0x00\n        /* \"#utility.yul\":18211:18225   */\n      mstore\n        /* \"#utility.yul\":18255:18259   */\n      0x20\n        /* \"#utility.yul\":18252:18253   */\n      0x00\n        /* \"#utility.yul\":18242:18260   */\n      keccak256\n        /* \"#utility.yul\":18234:18260   */\n      swap1\n      pop\n        /* \"#utility.yul\":18122:18267   */\n      swap2\n      swap1\n      pop\n      jump\t// out\n        /* \"#utility.yul\":18273:19736   */\n    tag_63:\n        /* \"#utility.yul\":18388:18391   */\n      dup2\n        /* \"#utility.yul\":18382:18386   */\n      dup2\n        /* \"#utility.yul\":18379:18392   */\n      sub\n        /* \"#utility.yul\":18376:18402   */\n      tag_356\n      jumpi\n        /* \"#utility.yul\":18395:18400   */\n      pop\n      pop\n      jump(tag_355)\n        /* \"#utility.yul\":18376:18402   */\n    tag_356:\n        /* \"#utility.yul\":18426:18464   */\n      tag_357\n        /* \"#utility.yul\":18460:18463   */\n      dup3\n        /* \"#utility.yul\":18426:18464   */\n      tag_162\n      jump\t// in\n    tag_357:\n        /* \"#utility.yul\":18529:18547   */\n      0xffffffffffffffff\n        /* \"#utility.yul\":18521:18527   */\n      dup2\n        /* \"#utility.yul\":18518:18548   */\n      gt\n        /* \"#utility.yul\":18515:18571   */\n      iszero\n      tag_358\n      jumpi\n        /* \"#utility.yul\":18551:18569   */\n      tag_359\n      tag_122\n      jump\t// in\n    tag_359:\n        /* \"#utility.yul\":18515:18571   */\n    tag_358:\n        /* \"#utility.yul\":18595:18633   */\n      tag_360\n        /* \"#utility.yul\":18627:18631   */\n      dup3\n        /* \"#utility.yul\":18621:18632   */\n      sload\n        /* \"#utility.yul\":18595:18633   */\n      tag_67\n      jump\t// in\n    tag_360:\n        /* \"#utility.yul\":18680:18747   */\n      tag_361\n        /* \"#utility.yul\":18740:18746   */\n      dup3\n        /* \"#utility.yul\":18732:18738   */\n      dup3\n        /* \"#utility.yul\":18726:18730   */\n      dup6\n        /* \"#utility.yul\":18680:18747   */\n      tag_156\n      jump\t// in\n    tag_361:\n        /* \"#utility.yul\":18774:18775   */\n      0x00\n        /* \"#utility.yul\":18803:18805   */\n      0x1f\n        /* \"#utility.yul\":18795:18801   */\n      dup4\n        /* \"#utility.yul\":18792:18806   */\n      gt\n        /* \"#utility.yul\":18820:18821   */\n      0x01\n        /* \"#utility.yul\":18815:19491   */\n      dup2\n      eq\n      tag_363\n      jumpi\n        /* \"#utility.yul\":19535:19536   */\n      0x00\n        /* \"#utility.yul\":19552:19558   */\n      dup5\n        /* \"#utility.yul\":19549:19626   */\n      iszero\n      tag_364\n      jumpi\n        /* \"#utility.yul\":19601:19610   */\n      dup3\n        /* \"#utility.yul\":19596:19599   */\n      dup8\n        /* \"#utility.yul\":19592:19611   */\n      add\n        /* \"#utility.yul\":19586:19612   */\n      sload\n        /* \"#utility.yul\":19577:19612   */\n      swap1\n      pop\n        /* \"#utility.yul\":19549:19626   */\n    tag_364:\n        /* \"#utility.yul\":19652:19719   */\n      tag_365\n        /* \"#utility.yul\":19712:19718   */\n      dup6\n        /* \"#utility.yul\":19705:19710   */\n      dup3\n        /* \"#utility.yul\":19652:19719   */\n      tag_159\n      jump\t// in\n    tag_365:\n        /* \"#utility.yul\":19646:19650   */\n      dup7\n        /* \"#utility.yul\":19639:19720   */\n      sstore\n        /* \"#utility.yul\":19508:19730   */\n      pop\n        /* \"#utility.yul\":18785:19730   */\n      jump(tag_362)\n        /* \"#utility.yul\":18815:19491   */\n    tag_363:\n        /* \"#utility.yul\":18867:18871   */\n      0x1f\n        /* \"#utility.yul\":18863:18872   */\n      not\n        /* \"#utility.yul\":18855:18861   */\n      dup5\n        /* \"#utility.yul\":18851:18873   */\n      and\n        /* \"#utility.yul\":18893:18933   */\n      tag_366\n        /* \"#utility.yul\":18929:18932   */\n      dup8\n        /* \"#utility.yul\":18893:18933   */\n      tag_163\n      jump\t// in\n    tag_366:\n        /* \"#utility.yul\":18886:18933   */\n      swap7\n      pop\n        /* \"#utility.yul\":18960:18997   */\n      tag_367\n        /* \"#utility.yul\":18992:18996   */\n      dup7\n        /* \"#utility.yul\":18960:18997   */\n      tag_145\n      jump\t// in\n    tag_367:\n        /* \"#utility.yul\":19019:19020   */\n      0x00\n        /* \"#utility.yul\":19033:19240   */\n    tag_368:\n        /* \"#utility.yul\":19047:19054   */\n      dup3\n        /* \"#utility.yul\":19044:19045   */\n      dup2\n        /* \"#utility.yul\":19041:19055   */\n      lt\n        /* \"#utility.yul\":19033:19240   */\n      iszero\n      tag_370\n      jumpi\n        /* \"#utility.yul\":19126:19135   */\n      dup5\n        /* \"#utility.yul\":19121:19124   */\n      dup10\n        /* \"#utility.yul\":19117:19136   */\n      add\n        /* \"#utility.yul\":19111:19137   */\n      sload\n        /* \"#utility.yul\":19103:19109   */\n      dup3\n        /* \"#utility.yul\":19096:19138   */\n      sstore\n        /* \"#utility.yul\":19177:19178   */\n      0x01\n        /* \"#utility.yul\":19169:19175   */\n      dup3\n        /* \"#utility.yul\":19165:19179   */\n      add\n        /* \"#utility.yul\":19155:19179   */\n      swap2\n      pop\n        /* \"#utility.yul\":19224:19225   */\n      0x01\n        /* \"#utility.yul\":19213:19222   */\n      dup6\n        /* \"#utility.yul\":19209:19226   */\n      add\n        /* \"#utility.yul\":19196:19226   */\n      swap5\n      pop\n        /* \"#utility.yul\":19070:19074   */\n      0x20\n        /* \"#utility.yul\":19067:19068   */\n      dup2\n        /* \"#utility.yul\":19063:19075   */\n      add\n        /* \"#utility.yul\":19058:19075   */\n      swap1\n      pop\n        /* \"#utility.yul\":19033:19240   */\n      jump(tag_368)\n    tag_370:\n        /* \"#utility.yul\":19268:19274   */\n      dup7\n        /* \"#utility.yul\":19259:19266   */\n      dup4\n        /* \"#utility.yul\":19256:19275   */\n      lt\n        /* \"#utility.yul\":19253:19432   */\n      iszero\n      tag_371\n      jumpi\n        /* \"#utility.yul\":19326:19335   */\n      dup5\n        /* \"#utility.yul\":19321:19324   */\n      dup10\n        /* \"#utility.yul\":19317:19336   */\n      add\n        /* \"#utility.yul\":19311:19337   */\n      sload\n        /* \"#utility.yul\":19369:19417   */\n      tag_372\n        /* \"#utility.yul\":19411:19415   */\n      0x1f\n        /* \"#utility.yul\":19403:19409   */\n      dup10\n        /* \"#utility.yul\":19399:19416   */\n      and\n        /* \"#utility.yul\":19388:19397   */\n      dup3\n        /* \"#utility.yul\":19369:19417   */\n      tag_158\n      jump\t// in\n    tag_372:\n        /* \"#utility.yul\":19361:19367   */\n      dup4\n        /* \"#utility.yul\":19354:19418   */\n      sstore\n        /* \"#utility.yul\":19276:19432   */\n      pop\n        /* \"#utility.yul\":19253:19432   */\n    tag_371:\n        /* \"#utility.yul\":19478:19479   */\n      0x01\n        /* \"#utility.yul\":19474:19475   */\n      0x02\n        /* \"#utility.yul\":19466:19472   */\n      dup9\n        /* \"#utility.yul\":19462:19476   */\n      mul\n        /* \"#utility.yul\":19458:19480   */\n      add\n        /* \"#utility.yul\":19452:19456   */\n      dup9\n        /* \"#utility.yul\":19445:19481   */\n      sstore\n        /* \"#utility.yul\":18822:19491   */\n      pop\n      pop\n      pop\n        /* \"#utility.yul\":18785:19730   */\n    tag_362:\n      pop\n        /* \"#utility.yul\":18366:19736   */\n      pop\n      pop\n      pop\n        /* \"#utility.yul\":18273:19736   */\n      pop\n      pop\n    tag_355:\n      jump\t// out\n        /* \"#utility.yul\":19742:19922   */\n    tag_164:\n        /* \"#utility.yul\":19790:19867   */\n      0x4e487b7100000000000000000000000000000000000000000000000000000000\n        /* \"#utility.yul\":19787:19788   */\n      0x00\n        /* \"#utility.yul\":19780:19868   */\n      mstore\n        /* \"#utility.yul\":19887:19891   */\n      0x11\n        /* \"#utility.yul\":19884:19885   */\n      0x04\n        /* \"#utility.yul\":19877:19892   */\n      mstore\n        /* \"#utility.yul\":19911:19915   */\n      0x24\n        /* \"#utility.yul\":19908:19909   */\n      0x00\n        /* \"#utility.yul\":19901:19916   */\n      revert\n        /* \"#utility.yul\":19928:20119   */\n    tag_65:\n        /* \"#utility.yul\":19968:19971   */\n      0x00\n        /* \"#utility.yul\":19987:20007   */\n      tag_375\n        /* \"#utility.yul\":20005:20006   */\n      dup3\n        /* \"#utility.yul\":19987:20007   */\n      tag_116\n      jump\t// in\n    tag_375:\n        /* \"#utility.yul\":19982:20007   */\n      swap2\n      pop\n        /* \"#utility.yul\":20021:20041   */\n      tag_376\n        /* \"#utility.yul\":20039:20040   */\n      dup4\n        /* \"#utility.yul\":20021:20041   */\n      tag_116\n      jump\t// in\n    tag_376:\n        /* \"#utility.yul\":20016:20041   */\n      swap3\n      pop\n        /* \"#utility.yul\":20064:20065   */\n      dup3\n        /* \"#utility.yul\":20061:20062   */\n      dup3\n        /* \"#utility.yul\":20057:20066   */\n      add\n        /* \"#utility.yul\":20050:20066   */\n      swap1\n      pop\n        /* \"#utility.yul\":20085:20088   */\n      dup1\n        /* \"#utility.yul\":20082:20083   */\n      dup3\n        /* \"#utility.yul\":20079:20089   */\n      gt\n        /* \"#utility.yul\":20076:20112   */\n      iszero\n      tag_377\n      jumpi\n        /* \"#utility.yul\":20092:20110   */\n      tag_378\n      tag_164\n      jump\t// in\n    tag_378:\n        /* \"#utility.yul\":20076:20112   */\n    tag_377:\n        /* \"#utility.yul\":19928:20119   */\n      swap3\n      swap2\n      pop\n      pop\n      jump\t// out\n        /* \"#utility.yul\":20125:20296   */\n    tag_165:\n        /* \"#utility.yul\":20265:20288   */\n      0x796f752068617665206e6f207265616c20626f6f6b0000000000000000000000\n        /* \"#utility.yul\":20261:20262   */\n      0x00\n        /* \"#utility.yul\":20253:20259   */\n      dup3\n        /* \"#utility.yul\":20249:20263   */\n      add\n        /* \"#utility.yul\":20242:20289   */\n      mstore\n        /* \"#utility.yul\":20125:20296   */\n      pop\n      jump\t// out\n        /* \"#utility.yul\":20302:20668   */\n    tag_166:\n        /* \"#utility.yul\":20444:20447   */\n      0x00\n        /* \"#utility.yul\":20465:20532   */\n      tag_381\n        /* \"#utility.yul\":20529:20531   */\n      0x15\n        /* \"#utility.yul\":20524:20527   */\n      dup4\n        /* \"#utility.yul\":20465:20532   */\n      tag_137\n      jump\t// in\n    tag_381:\n        /* \"#utility.yul\":20458:20532   */\n      swap2\n      pop\n        /* \"#utility.yul\":20541:20634   */\n      tag_382\n        /* \"#utility.yul\":20630:20633   */\n      dup3\n        /* \"#utility.yul\":20541:20634   */\n      tag_165\n      jump\t// in\n    tag_382:\n        /* \"#utility.yul\":20659:20661   */\n      0x20\n        /* \"#utility.yul\":20654:20657   */\n      dup3\n        /* \"#utility.yul\":20650:20662   */\n      add\n        /* \"#utility.yul\":20643:20662   */\n      swap1\n      pop\n        /* \"#utility.yul\":20302:20668   */\n      swap2\n      swap1\n      pop\n      jump\t// out\n        /* \"#utility.yul\":20674:21093   */\n    tag_102:\n        /* \"#utility.yul\":20840:20844   */\n      0x00\n        /* \"#utility.yul\":20878:20880   */\n      0x20\n        /* \"#utility.yul\":20867:20876   */\n      dup3\n        /* \"#utility.yul\":20863:20881   */\n      add\n        /* \"#utility.yul\":20855:20881   */\n      swap1\n      pop\n        /* \"#utility.yul\":20927:20936   */\n      dup2\n        /* \"#utility.yul\":20921:20925   */\n      dup2\n        /* \"#utility.yul\":20917:20937   */\n      sub\n        /* \"#utility.yul\":20913:20914   */\n      0x00\n        /* \"#utility.yul\":20902:20911   */\n      dup4\n        /* \"#utility.yul\":20898:20915   */\n      add\n        /* \"#utility.yul\":20891:20938   */\n      mstore\n        /* \"#utility.yul\":20955:21086   */\n      tag_384\n        /* \"#utility.yul\":21081:21085   */\n      dup2\n        /* \"#utility.yul\":20955:21086   */\n      tag_166\n      jump\t// in\n    tag_384:\n        /* \"#utility.yul\":20947:21086   */\n      swap1\n      pop\n        /* \"#utility.yul\":20674:21093   */\n      swap2\n      swap1\n      pop\n      jump\t// out\n        /* \"#utility.yul\":21099:21293   */\n    tag_105:\n        /* \"#utility.yul\":21139:21143   */\n      0x00\n        /* \"#utility.yul\":21159:21179   */\n      tag_386\n        /* \"#utility.yul\":21177:21178   */\n      dup3\n        /* \"#utility.yul\":21159:21179   */\n      tag_116\n      jump\t// in\n    tag_386:\n        /* \"#utility.yul\":21154:21179   */\n      swap2\n      pop\n        /* \"#utility.yul\":21193:21213   */\n      tag_387\n        /* \"#utility.yul\":21211:21212   */\n      dup4\n        /* \"#utility.yul\":21193:21213   */\n      tag_116\n      jump\t// in\n    tag_387:\n        /* \"#utility.yul\":21188:21213   */\n      swap3\n      pop\n        /* \"#utility.yul\":21237:21238   */\n      dup3\n        /* \"#utility.yul\":21234:21235   */\n      dup3\n        /* \"#utility.yul\":21230:21239   */\n      sub\n        /* \"#utility.yul\":21222:21239   */\n      swap1\n      pop\n        /* \"#utility.yul\":21261:21262   */\n      dup2\n        /* \"#utility.yul\":21255:21259   */\n      dup2\n        /* \"#utility.yul\":21252:21263   */\n      gt\n        /* \"#utility.yul\":21249:21286   */\n      iszero\n      tag_388\n      jumpi\n        /* \"#utility.yul\":21266:21284   */\n      tag_389\n      tag_164\n      jump\t// in\n    tag_389:\n        /* \"#utility.yul\":21249:21286   */\n    tag_388:\n        /* \"#utility.yul\":21099:21293   */\n      swap3\n      swap2\n      pop\n      pop\n      jump\t// out\n        /* \"#utility.yul\":21299:21468   */\n    tag_167:\n        /* \"#utility.yul\":21439:21460   */\n      0x796f7520617265206e6f7420616c6c6f77656400000000000000000000000000\n        /* \"#utility.yul\":21435:21436   */\n      0x00\n        /* \"#utility.yul\":21427:21433   */\n      dup3\n        /* \"#utility.yul\":21423:21437   */\n      add\n        /* \"#utility.yul\":21416:21461   */\n      mstore\n        /* \"#utility.yul\":21299:21468   */\n      pop\n      jump\t// out\n        /* \"#utility.yul\":21474:21840   */\n    tag_168:\n        /* \"#utility.yul\":21616:21619   */\n      0x00\n        /* \"#utility.yul\":21637:21704   */\n      tag_392\n        /* \"#utility.yul\":21701:21703   */\n      0x13\n        /* \"#utility.yul\":21696:21699   */\n      dup4\n        /* \"#utility.yul\":21637:21704   */\n      tag_137\n      jump\t// in\n    tag_392:\n        /* \"#utility.yul\":21630:21704   */\n      swap2\n      pop\n        /* \"#utility.yul\":21713:21806   */\n      tag_393\n        /* \"#utility.yul\":21802:21805   */\n      dup3\n        /* \"#utility.yul\":21713:21806   */\n      tag_167\n      jump\t// in\n    tag_393:\n        /* \"#utility.yul\":21831:21833   */\n      0x20\n        /* \"#utility.yul\":21826:21829   */\n      dup3\n        /* \"#utility.yul\":21822:21834   */\n      add\n        /* \"#utility.yul\":21815:21834   */\n      swap1\n      pop\n        /* \"#utility.yul\":21474:21840   */\n      swap2\n      swap1\n      pop\n      jump\t// out\n        /* \"#utility.yul\":21846:22265   */\n    tag_109:\n        /* \"#utility.yul\":22012:22016   */\n      0x00\n        /* \"#utility.yul\":22050:22052   */\n      0x20\n        /* \"#utility.yul\":22039:22048   */\n      dup3\n        /* \"#utility.yul\":22035:22053   */\n      add\n        /* \"#utility.yul\":22027:22053   */\n      swap1\n      pop\n        /* \"#utility.yul\":22099:22108   */\n      dup2\n        /* \"#utility.yul\":22093:22097   */\n      dup2\n        /* \"#utility.yul\":22089:22109   */\n      sub\n        /* \"#utility.yul\":22085:22086   */\n      0x00\n        /* \"#utility.yul\":22074:22083   */\n      dup4\n        /* \"#utility.yul\":22070:22087   */\n      add\n        /* \"#utility.yul\":22063:22110   */\n      mstore\n        /* \"#utility.yul\":22127:22258   */\n      tag_395\n        /* \"#utility.yul\":22253:22257   */\n      dup2\n        /* \"#utility.yul\":22127:22258   */\n      tag_168\n      jump\t// in\n    tag_395:\n        /* \"#utility.yul\":22119:22258   */\n      swap1\n      pop\n        /* \"#utility.yul\":21846:22265   */\n      swap2\n      swap1\n      pop\n      jump\t// out\n\n    auxdata: 0xa2646970667358221220def1e6de87d50c0578c39b882ecb869652fa50b282089bbcfe0feccdf9d798b464736f6c63430008180033\n}\n",
				"bytecode": {
					"linkReferences": {},
					"object": "608060405234801561000f575f80fd5b50335f806101000a81548173ffffffffffffffffffffffffffffffffffffffff021916908373ffffffffffffffffffffffffffffffffffffffff16021790555061184e8061005c5f395ff3fe608060405234801561000f575f80fd5b5060043610610091575f3560e01c80637930bd8b116100645780637930bd8b146101335780638f8261f81461014f578063a437d45f1461016b578063a9ddc24114610189578063c2870ca0146101a757610091565b8063028414f21461009557806351f87964146100b15780635daf08ca146100cd57806368744046146100ff575b5f80fd5b6100af60048036038101906100aa9190610e0e565b6101c5565b005b6100cb60048036038101906100c69190610e96565b61038a565b005b6100e760048036038101906100e29190610ed4565b6104f9565b6040516100f693929190610ffd565b60405180910390f35b61011960048036038101906101149190610ed4565b6106e4565b60405161012a9594939291906110c0565b60405180910390f35b61014d60048036038101906101489190610e96565b6108d3565b005b61016960048036038101906101649190611126565b610b04565b005b610173610c5f565b60405161018091906111de565b60405180910390f35b610191610c82565b60405161019e91906111f7565b60405180910390f35b6101af610c88565b6040516101bc91906111f7565b60405180910390f35b5f8054906101000a900473ffffffffffffffffffffffffffffffffffffffff1673ffffffffffffffffffffffffffffffffffffffff163373ffffffffffffffffffffffffffffffffffffffff1614610252576040517f08c379a00000000000000000000000000000000000000000000000000000000081526004016102499061125a565b60405180910390fd5b5f6040518060a001604052806001151581526020018481526020016040518060400160405280600681526020017f4e6f626f6479000000000000000000000000000000000000000000000000000081525081526020015f73ffffffffffffffffffffffffffffffffffffffff1681526020018381525090508060035f8681526020019081526020015f205f820151815f015f6101000a81548160ff021916908315150217905550602082015181600101908161030e9190611472565b5060408201518160020190816103249190611472565b506060820151816003015f6101000a81548173ffffffffffffffffffffffffffffffffffffffff021916908373ffffffffffffffffffffffffffffffffffffffff16021790555060808201518160040190816103809190611472565b5090505050505050565b5f8054906101000a900473ffffffffffffffffffffffffffffffffffffffff1673ffffffffffffffffffffffffffffffffffffffff163373ffffffffffffffffffffffffffffffffffffffff1603610417576040517f08c379a000000000000000000000000000000000000000000000000000000000815260040161040e9061158b565b60405180910390fd5b5f60035f8481526020019081526020015f205f015f6101000a81548160ff0219169083151502179055503360035f8481526020019081526020015f206003015f6101000a81548173ffffffffffffffffffffffffffffffffffffffff021916908373ffffffffffffffffffffffffffffffffffffffff16021790555060045f8281526020019081526020015f206001015f0160035f8481526020019081526020015f2060020190816104c991906115d0565b50600160045f8381526020019081526020015f206004015f8282546104ee91906116e2565b925050819055505050565b6004602052805f5260405f205f91509050805f015f9054906101000a900460ff1690806001016040518060600160405290815f82018054610539906112a5565b80601f0160208091040260200160405190810160405280929190818152602001828054610565906112a5565b80156105b05780601f10610587576101008083540402835291602001916105b0565b820191905f5260205f20905b81548152906001019060200180831161059357829003601f168201915b505050505081526020016001820180546105c9906112a5565b80601f01602080910402602001604051908101604052809291908181526020018280546105f5906112a5565b80156106405780601f1061061757610100808354040283529160200191610640565b820191905f5260205f20905b81548152906001019060200180831161062357829003601f168201915b50505050508152602001600282018054610659906112a5565b80601f0160208091040260200160405190810160405280929190818152602001828054610685906112a5565b80156106d05780601f106106a7576101008083540402835291602001916106d0565b820191905f5260205f20905b8154815290600101906020018083116106b357829003601f168201915b505050505081525050908060040154905083565b6003602052805f5260405f205f91509050805f015f9054906101000a900460ff1690806001018054610715906112a5565b80601f0160208091040260200160405190810160405280929190818152602001828054610741906112a5565b801561078c5780601f106107635761010080835404028352916020019161078c565b820191905f5260205f20905b81548152906001019060200180831161076f57829003601f168201915b5050505050908060020180546107a1906112a5565b80601f01602080910402602001604051908101604052809291908181526020018280546107cd906112a5565b80156108185780601f106107ef57610100808354040283529160200191610818565b820191905f5260205f20905b8154815290600101906020018083116107fb57829003601f168201915b505050505090806003015f9054906101000a900473ffffffffffffffffffffffffffffffffffffffff1690806004018054610852906112a5565b80601f016020809104026020016040519081016040528092919081815260200182805461087e906112a5565b80156108c95780601f106108a0576101008083540402835291602001916108c9565b820191905f5260205f20905b8154815290600101906020018083116108ac57829003601f168201915b5050505050905085565b5f8054906101000a900473ffffffffffffffffffffffffffffffffffffffff1673ffffffffffffffffffffffffffffffffffffffff163373ffffffffffffffffffffffffffffffffffffffff1603610960576040517f08c379a00000000000000000000000000000000000000000000000000000000081526004016109579061158b565b60405180910390fd5b3373ffffffffffffffffffffffffffffffffffffffff1660035f8481526020019081526020015f206003015f9054906101000a900473ffffffffffffffffffffffffffffffffffffffff1673ffffffffffffffffffffffffffffffffffffffff1614610a01576040517f08c379a00000000000000000000000000000000000000000000000000000000081526004016109f89061175f565b60405180910390fd5b600160035f8481526020019081526020015f205f015f6101000a81548160ff0219169083151502179055506040518060400160405280600681526020017f4e6f626f6479000000000000000000000000000000000000000000000000000081525060035f8481526020019081526020015f206002019081610a829190611472565b505f60035f8481526020019081526020015f206003015f6101000a81548173ffffffffffffffffffffffffffffffffffffffff021916908373ffffffffffffffffffffffffffffffffffffffff160217905550600160045f8381526020019081526020015f206004015f828254610af9919061177d565b925050819055505050565b5f8054906101000a900473ffffffffffffffffffffffffffffffffffffffff1673ffffffffffffffffffffffffffffffffffffffff163373ffffffffffffffffffffffffffffffffffffffff1603610b91576040517f08c379a0000000000000000000000000000000000000000000000000000000008152600401610b88906117fa565b60405180910390fd5b5f60405180606001604052808581526020018481526020018381525090505f60405180606001604052806001151581526020018381526020015f81525090508060045f8881526020019081526020015f205f820151815f015f6101000a81548160ff0219169083151502179055506020820151816001015f820151815f019081610c1b9190611472565b506020820151816001019081610c319190611472565b506040820151816002019081610c479190611472565b50505060408201518160040155905050505050505050565b5f8054906101000a900473ffffffffffffffffffffffffffffffffffffffff1681565b60015481565b60025481565b5f604051905090565b5f80fd5b5f80fd5b5f819050919050565b610cb181610c9f565b8114610cbb575f80fd5b50565b5f81359050610ccc81610ca8565b92915050565b5f80fd5b5f80fd5b5f601f19601f8301169050919050565b7f4e487b71000000000000000000000000000000000000000000000000000000005f52604160045260245ffd5b610d2082610cda565b810181811067ffffffffffffffff82111715610d3f57610d3e610cea565b5b80604052505050565b5f610d51610c8e565b9050610d5d8282610d17565b919050565b5f67ffffffffffffffff821115610d7c57610d7b610cea565b5b610d8582610cda565b9050602081019050919050565b828183375f83830152505050565b5f610db2610dad84610d62565b610d48565b905082815260208101848484011115610dce57610dcd610cd6565b5b610dd9848285610d92565b509392505050565b5f82601f830112610df557610df4610cd2565b5b8135610e05848260208601610da0565b91505092915050565b5f805f60608486031215610e2557610e24610c97565b5b5f610e3286828701610cbe565b935050602084013567ffffffffffffffff811115610e5357610e52610c9b565b5b610e5f86828701610de1565b925050604084013567ffffffffffffffff811115610e8057610e7f610c9b565b5b610e8c86828701610de1565b9150509250925092565b5f8060408385031215610eac57610eab610c97565b5b5f610eb985828601610cbe565b9250506020610eca85828601610cbe565b9150509250929050565b5f60208284031215610ee957610ee8610c97565b5b5f610ef684828501610cbe565b91505092915050565b5f8115159050919050565b610f1381610eff565b82525050565b5f81519050919050565b5f82825260208201905092915050565b5f5b83811015610f50578082015181840152602081019050610f35565b5f8484015250505050565b5f610f6582610f19565b610f6f8185610f23565b9350610f7f818560208601610f33565b610f8881610cda565b840191505092915050565b5f606083015f8301518482035f860152610fad8282610f5b565b91505060208301518482036020860152610fc78282610f5b565b91505060408301518482036040860152610fe18282610f5b565b9150508091505092915050565b610ff781610c9f565b82525050565b5f6060820190506110105f830186610f0a565b81810360208301526110228185610f93565b90506110316040830184610fee565b949350505050565b5f82825260208201905092915050565b5f61105382610f19565b61105d8185611039565b935061106d818560208601610f33565b61107681610cda565b840191505092915050565b5f73ffffffffffffffffffffffffffffffffffffffff82169050919050565b5f6110aa82611081565b9050919050565b6110ba816110a0565b82525050565b5f60a0820190506110d35f830188610f0a565b81810360208301526110e58187611049565b905081810360408301526110f98186611049565b905061110860608301856110b1565b818103608083015261111a8184611049565b90509695505050505050565b5f805f806080858703121561113e5761113d610c97565b5b5f61114b87828801610cbe565b945050602085013567ffffffffffffffff81111561116c5761116b610c9b565b5b61117887828801610de1565b935050604085013567ffffffffffffffff81111561119957611198610c9b565b5b6111a587828801610de1565b925050606085013567ffffffffffffffff8111156111c6576111c5610c9b565b5b6111d287828801610de1565b91505092959194509250565b5f6020820190506111f15f8301846110b1565b92915050565b5f60208201905061120a5f830184610fee565b92915050565b7f596f7520617265206e6f74204c696272617269616e00000000000000000000005f82015250565b5f611244601583611039565b915061124f82611210565b602082019050919050565b5f6020820190508181035f83015261127181611238565b9050919050565b7f4e487b71000000000000000000000000000000000000000000000000000000005f52602260045260245ffd5b5f60028204905060018216806112bc57607f821691505b6020821081036112cf576112ce611278565b5b50919050565b5f819050815f5260205f209050919050565b5f6020601f8301049050919050565b5f82821b905092915050565b5f600883026113317fffffffffffffffffffffffffffffffffffffffffffffffffffffffffffffffff826112f6565b61133b86836112f6565b95508019841693508086168417925050509392505050565b5f819050919050565b5f61137661137161136c84610c9f565b611353565b610c9f565b9050919050565b5f819050919050565b61138f8361135c565b6113a361139b8261137d565b848454611302565b825550505050565b5f90565b6113b76113ab565b6113c2818484611386565b505050565b5b818110156113e5576113da5f826113af565b6001810190506113c8565b5050565b601f82111561142a576113fb816112d5565b611404846112e7565b81016020851015611413578190505b61142761141f856112e7565b8301826113c7565b50505b505050565b5f82821c905092915050565b5f61144a5f198460080261142f565b1980831691505092915050565b5f611462838361143b565b9150826002028217905092915050565b61147b82610f19565b67ffffffffffffffff81111561149457611493610cea565b5b61149e82546112a5565b6114a98282856113e9565b5f60209050601f8311600181146114da575f84156114c8578287015190505b6114d28582611457565b865550611539565b601f1984166114e8866112d5565b5f5b8281101561150f578489015182556001820191506020850194506020810190506114ea565b8683101561152c5784890151611528601f89168261143b565b8355505b6001600288020188555050505b505050505050565b7f796f7520617265206e6f74207065726d697474656400000000000000000000005f82015250565b5f611575601583611039565b915061158082611541565b602082019050919050565b5f6020820190508181035f8301526115a281611569565b9050919050565b5f815490506115b7816112a5565b9050919050565b5f819050815f5260205f209050919050565b8181036115de5750506116b3565b6115e7826115a9565b67ffffffffffffffff811115611600576115ff610cea565b5b61160a82546112a5565b6116158282856113e9565b5f601f831160018114611642575f8415611630578287015490505b61163a8582611457565b8655506116ac565b601f198416611650876115be565b965061165b866112d5565b5f5b828110156116825784890154825560018201915060018501945060208101905061165d565b8683101561169f578489015461169b601f89168261143b565b8355505b6001600288020188555050505b5050505050505b565b7f4e487b71000000000000000000000000000000000000000000000000000000005f52601160045260245ffd5b5f6116ec82610c9f565b91506116f783610c9f565b925082820190508082111561170f5761170e6116b5565b5b92915050565b7f796f752068617665206e6f207265616c20626f6f6b00000000000000000000005f82015250565b5f611749601583611039565b915061175482611715565b602082019050919050565b5f6020820190508181035f8301526117768161173d565b9050919050565b5f61178782610c9f565b915061179283610c9f565b92508282039050818111156117aa576117a96116b5565b5b92915050565b7f796f7520617265206e6f7420616c6c6f776564000000000000000000000000005f82015250565b5f6117e4601383611039565b91506117ef826117b0565b602082019050919050565b5f6020820190508181035f830152611811816117d8565b905091905056fea2646970667358221220def1e6de87d50c0578c39b882ecb869652fa50b282089bbcfe0feccdf9d798b464736f6c63430008180033",
					"opcodes": "PUSH1 0x80 PUSH1 0x40 MSTORE CALLVALUE DUP1 ISZERO PUSH2 0xF JUMPI PUSH0 DUP1 REVERT JUMPDEST POP CALLER PUSH0 DUP1 PUSH2 0x100 EXP DUP2 SLOAD DUP2 PUSH20 0xFFFFFFFFFFFFFFFFFFFFFFFFFFFFFFFFFFFFFFFF MUL NOT AND SWAP1 DUP4 PUSH20 0xFFFFFFFFFFFFFFFFFFFFFFFFFFFFFFFFFFFFFFFF AND MUL OR SWAP1 SSTORE POP PUSH2 0x184E DUP1 PUSH2 0x5C PUSH0 CODECOPY PUSH0 RETURN INVALID PUSH1 0x80 PUSH1 0x40 MSTORE CALLVALUE DUP1 ISZERO PUSH2 0xF JUMPI PUSH0 DUP1 REVERT JUMPDEST POP PUSH1 0x4 CALLDATASIZE LT PUSH2 0x91 JUMPI PUSH0 CALLDATALOAD PUSH1 0xE0 SHR DUP1 PUSH4 0x7930BD8B GT PUSH2 0x64 JUMPI DUP1 PUSH4 0x7930BD8B EQ PUSH2 0x133 JUMPI DUP1 PUSH4 0x8F8261F8 EQ PUSH2 0x14F JUMPI DUP1 PUSH4 0xA437D45F EQ PUSH2 0x16B JUMPI DUP1 PUSH4 0xA9DDC241 EQ PUSH2 0x189 JUMPI DUP1 PUSH4 0xC2870CA0 EQ PUSH2 0x1A7 JUMPI PUSH2 0x91 JUMP JUMPDEST DUP1 PUSH4 0x28414F2 EQ PUSH2 0x95 JUMPI DUP1 PUSH4 0x51F87964 EQ PUSH2 0xB1 JUMPI DUP1 PUSH4 0x5DAF08CA EQ PUSH2 0xCD JUMPI DUP1 PUSH4 0x68744046 EQ PUSH2 0xFF JUMPI JUMPDEST PUSH0 DUP1 REVERT JUMPDEST PUSH2 0xAF PUSH1 0x4 DUP1 CALLDATASIZE SUB DUP2 ADD SWAP1 PUSH2 0xAA SWAP2 SWAP1 PUSH2 0xE0E JUMP JUMPDEST PUSH2 0x1C5 JUMP JUMPDEST STOP JUMPDEST PUSH2 0xCB PUSH1 0x4 DUP1 CALLDATASIZE SUB DUP2 ADD SWAP1 PUSH2 0xC6 SWAP2 SWAP1 PUSH2 0xE96 JUMP JUMPDEST PUSH2 0x38A JUMP JUMPDEST STOP JUMPDEST PUSH2 0xE7 PUSH1 0x4 DUP1 CALLDATASIZE SUB DUP2 ADD SWAP1 PUSH2 0xE2 SWAP2 SWAP1 PUSH2 0xED4 JUMP JUMPDEST PUSH2 0x4F9 JUMP JUMPDEST PUSH1 0x40 MLOAD PUSH2 0xF6 SWAP4 SWAP3 SWAP2 SWAP1 PUSH2 0xFFD JUMP JUMPDEST PUSH1 0x40 MLOAD DUP1 SWAP2 SUB SWAP1 RETURN JUMPDEST PUSH2 0x119 PUSH1 0x4 DUP1 CALLDATASIZE SUB DUP2 ADD SWAP1 PUSH2 0x114 SWAP2 SWAP1 PUSH2 0xED4 JUMP JUMPDEST PUSH2 0x6E4 JUMP JUMPDEST PUSH1 0x40 MLOAD PUSH2 0x12A SWAP6 SWAP5 SWAP4 SWAP3 SWAP2 SWAP1 PUSH2 0x10C0 JUMP JUMPDEST PUSH1 0x40 MLOAD DUP1 SWAP2 SUB SWAP1 RETURN JUMPDEST PUSH2 0x14D PUSH1 0x4 DUP1 CALLDATASIZE SUB DUP2 ADD SWAP1 PUSH2 0x148 SWAP2 SWAP1 PUSH2 0xE96 JUMP JUMPDEST PUSH2 0x8D3 JUMP JUMPDEST STOP JUMPDEST PUSH2 0x169 PUSH1 0x4 DUP1 CALLDATASIZE SUB DUP2 ADD SWAP1 PUSH2 0x164 SWAP2 SWAP1 PUSH2 0x1126 JUMP JUMPDEST PUSH2 0xB04 JUMP JUMPDEST STOP JUMPDEST PUSH2 0x173 PUSH2 0xC5F JUMP JUMPDEST PUSH1 0x40 MLOAD PUSH2 0x180 SWAP2 SWAP1 PUSH2 0x11DE JUMP JUMPDEST PUSH1 0x40 MLOAD DUP1 SWAP2 SUB SWAP1 RETURN JUMPDEST PUSH2 0x191 PUSH2 0xC82 JUMP JUMPDEST PUSH1 0x40 MLOAD PUSH2 0x19E SWAP2 SWAP1 PUSH2 0x11F7 JUMP JUMPDEST PUSH1 0x40 MLOAD DUP1 SWAP2 SUB SWAP1 RETURN JUMPDEST PUSH2 0x1AF PUSH2 0xC88 JUMP JUMPDEST PUSH1 0x40 MLOAD PUSH2 0x1BC SWAP2 SWAP1 PUSH2 0x11F7 JUMP JUMPDEST PUSH1 0x40 MLOAD DUP1 SWAP2 SUB SWAP1 RETURN JUMPDEST PUSH0 DUP1 SLOAD SWAP1 PUSH2 0x100 EXP SWAP1 DIV PUSH20 0xFFFFFFFFFFFFFFFFFFFFFFFFFFFFFFFFFFFFFFFF AND PUSH20 0xFFFFFFFFFFFFFFFFFFFFFFFFFFFFFFFFFFFFFFFF AND CALLER PUSH20 0xFFFFFFFFFFFFFFFFFFFFFFFFFFFFFFFFFFFFFFFF AND EQ PUSH2 0x252 JUMPI PUSH1 0x40 MLOAD PUSH32 0x8C379A000000000000000000000000000000000000000000000000000000000 DUP2 MSTORE PUSH1 0x4 ADD PUSH2 0x249 SWAP1 PUSH2 0x125A JUMP JUMPDEST PUSH1 0x40 MLOAD DUP1 SWAP2 SUB SWAP1 REVERT JUMPDEST PUSH0 PUSH1 0x40 MLOAD DUP1 PUSH1 0xA0 ADD PUSH1 0x40 MSTORE DUP1 PUSH1 0x1 ISZERO ISZERO DUP2 MSTORE PUSH1 0x20 ADD DUP5 DUP2 MSTORE PUSH1 0x20 ADD PUSH1 0x40 MLOAD DUP1 PUSH1 0x40 ADD PUSH1 0x40 MSTORE DUP1 PUSH1 0x6 DUP2 MSTORE PUSH1 0x20 ADD PUSH32 0x4E6F626F64790000000000000000000000000000000000000000000000000000 DUP2 MSTORE POP DUP2 MSTORE PUSH1 0x20 ADD PUSH0 PUSH20 0xFFFFFFFFFFFFFFFFFFFFFFFFFFFFFFFFFFFFFFFF AND DUP2 MSTORE PUSH1 0x20 ADD DUP4 DUP2 MSTORE POP SWAP1 POP DUP1 PUSH1 0x3 PUSH0 DUP7 DUP2 MSTORE PUSH1 0x20 ADD SWAP1 DUP2 MSTORE PUSH1 0x20 ADD PUSH0 KECCAK256 PUSH0 DUP3 ADD MLOAD DUP2 PUSH0 ADD PUSH0 PUSH2 0x100 EXP DUP2 SLOAD DUP2 PUSH1 0xFF MUL NOT AND SWAP1 DUP4 ISZERO ISZERO MUL OR SWAP1 SSTORE POP PUSH1 0x20 DUP3 ADD MLOAD DUP2 PUSH1 0x1 ADD SWAP1 DUP2 PUSH2 0x30E SWAP2 SWAP1 PUSH2 0x1472 JUMP JUMPDEST POP PUSH1 0x40 DUP3 ADD MLOAD DUP2 PUSH1 0x2 ADD SWAP1 DUP2 PUSH2 0x324 SWAP2 SWAP1 PUSH2 0x1472 JUMP JUMPDEST POP PUSH1 0x60 DUP3 ADD MLOAD DUP2 PUSH1 0x3 ADD PUSH0 PUSH2 0x100 EXP DUP2 SLOAD DUP2 PUSH20 0xFFFFFFFFFFFFFFFFFFFFFFFFFFFFFFFFFFFFFFFF MUL NOT AND SWAP1 DUP4 PUSH20 0xFFFFFFFFFFFFFFFFFFFFFFFFFFFFFFFFFFFFFFFF AND MUL OR SWAP1 SSTORE POP PUSH1 0x80 DUP3 ADD MLOAD DUP2 PUSH1 0x4 ADD SWAP1 DUP2 PUSH2 0x380 SWAP2 SWAP1 PUSH2 0x1472 JUMP JUMPDEST POP SWAP1 POP POP POP POP POP POP JUMP JUMPDEST PUSH0 DUP1 SLOAD SWAP1 PUSH2 0x100 EXP SWAP1 DIV PUSH20 0xFFFFFFFFFFFFFFFFFFFFFFFFFFFFFFFFFFFFFFFF AND PUSH20 0xFFFFFFFFFFFFFFFFFFFFFFFFFFFFFFFFFFFFFFFF AND CALLER PUSH20 0xFFFFFFFFFFFFFFFFFFFFFFFFFFFFFFFFFFFFFFFF AND SUB PUSH2 0x417 JUMPI PUSH1 0x40 MLOAD PUSH32 0x8C379A000000000000000000000000000000000000000000000000000000000 DUP2 MSTORE PUSH1 0x4 ADD PUSH2 0x40E SWAP1 PUSH2 0x158B JUMP JUMPDEST PUSH1 0x40 MLOAD DUP1 SWAP2 SUB SWAP1 REVERT JUMPDEST PUSH0 PUSH1 0x3 PUSH0 DUP5 DUP2 MSTORE PUSH1 0x20 ADD SWAP1 DUP2 MSTORE PUSH1 0x20 ADD PUSH0 KECCAK256 PUSH0 ADD PUSH0 PUSH2 0x100 EXP DUP2 SLOAD DUP2 PUSH1 0xFF MUL NOT AND SWAP1 DUP4 ISZERO ISZERO MUL OR SWAP1 SSTORE POP CALLER PUSH1 0x3 PUSH0 DUP5 DUP2 MSTORE PUSH1 0x20 ADD SWAP1 DUP2 MSTORE PUSH1 0x20 ADD PUSH0 KECCAK256 PUSH1 0x3 ADD PUSH0 PUSH2 0x100 EXP DUP2 SLOAD DUP2 PUSH20 0xFFFFFFFFFFFFFFFFFFFFFFFFFFFFFFFFFFFFFFFF MUL NOT AND SWAP1 DUP4 PUSH20 0xFFFFFFFFFFFFFFFFFFFFFFFFFFFFFFFFFFFFFFFF AND MUL OR SWAP1 SSTORE POP PUSH1 0x4 PUSH0 DUP3 DUP2 MSTORE PUSH1 0x20 ADD SWAP1 DUP2 MSTORE PUSH1 0x20 ADD PUSH0 KECCAK256 PUSH1 0x1 ADD PUSH0 ADD PUSH1 0x3 PUSH0 DUP5 DUP2 MSTORE PUSH1 0x20 ADD SWAP1 DUP2 MSTORE PUSH1 0x20 ADD PUSH0 KECCAK256 PUSH1 0x2 ADD SWAP1 DUP2 PUSH2 0x4C9 SWAP2 SWAP1 PUSH2 0x15D0 JUMP JUMPDEST POP PUSH1 0x1 PUSH1 0x4 PUSH0 DUP4 DUP2 MSTORE PUSH1 0x20 ADD SWAP1 DUP2 MSTORE PUSH1 0x20 ADD PUSH0 KECCAK256 PUSH1 0x4 ADD PUSH0 DUP3 DUP3 SLOAD PUSH2 0x4EE SWAP2 SWAP1 PUSH2 0x16E2 JUMP JUMPDEST SWAP3 POP POP DUP2 SWAP1 SSTORE POP POP POP JUMP JUMPDEST PUSH1 0x4 PUSH1 0x20 MSTORE DUP1 PUSH0 MSTORE PUSH1 0x40 PUSH0 KECCAK256 PUSH0 SWAP2 POP SWAP1 POP DUP1 PUSH0 ADD PUSH0 SWAP1 SLOAD SWAP1 PUSH2 0x100 EXP SWAP1 DIV PUSH1 0xFF AND SWAP1 DUP1 PUSH1 0x1 ADD PUSH1 0x40 MLOAD DUP1 PUSH1 0x60 ADD PUSH1 0x40 MSTORE SWAP1 DUP2 PUSH0 DUP3 ADD DUP1 SLOAD PUSH2 0x539 SWAP1 PUSH2 0x12A5 JUMP JUMPDEST DUP1 PUSH1 0x1F ADD PUSH1 0x20 DUP1 SWAP2 DIV MUL PUSH1 0x20 ADD PUSH1 0x40 MLOAD SWAP1 DUP2 ADD PUSH1 0x40 MSTORE DUP1 SWAP3 SWAP2 SWAP1 DUP2 DUP2 MSTORE PUSH1 0x20 ADD DUP3 DUP1 SLOAD PUSH2 0x565 SWAP1 PUSH2 0x12A5 JUMP JUMPDEST DUP1 ISZERO PUSH2 0x5B0 JUMPI DUP1 PUSH1 0x1F LT PUSH2 0x587 JUMPI PUSH2 0x100 DUP1 DUP4 SLOAD DIV MUL DUP4 MSTORE SWAP2 PUSH1 0x20 ADD SWAP2 PUSH2 0x5B0 JUMP JUMPDEST DUP3 ADD SWAP2 SWAP1 PUSH0 MSTORE PUSH1 0x20 PUSH0 KECCAK256 SWAP1 JUMPDEST DUP2 SLOAD DUP2 MSTORE SWAP1 PUSH1 0x1 ADD SWAP1 PUSH1 0x20 ADD DUP1 DUP4 GT PUSH2 0x593 JUMPI DUP3 SWAP1 SUB PUSH1 0x1F AND DUP3 ADD SWAP2 JUMPDEST POP POP POP POP POP DUP2 MSTORE PUSH1 0x20 ADD PUSH1 0x1 DUP3 ADD DUP1 SLOAD PUSH2 0x5C9 SWAP1 PUSH2 0x12A5 JUMP JUMPDEST DUP1 PUSH1 0x1F ADD PUSH1 0x20 DUP1 SWAP2 DIV MUL PUSH1 0x20 ADD PUSH1 0x40 MLOAD SWAP1 DUP2 ADD PUSH1 0x40 MSTORE DUP1 SWAP3 SWAP2 SWAP1 DUP2 DUP2 MSTORE PUSH1 0x20 ADD DUP3 DUP1 SLOAD PUSH2 0x5F5 SWAP1 PUSH2 0x12A5 JUMP JUMPDEST DUP1 ISZERO PUSH2 0x640 JUMPI DUP1 PUSH1 0x1F LT PUSH2 0x617 JUMPI PUSH2 0x100 DUP1 DUP4 SLOAD DIV MUL DUP4 MSTORE SWAP2 PUSH1 0x20 ADD SWAP2 PUSH2 0x640 JUMP JUMPDEST DUP3 ADD SWAP2 SWAP1 PUSH0 MSTORE PUSH1 0x20 PUSH0 KECCAK256 SWAP1 JUMPDEST DUP2 SLOAD DUP2 MSTORE SWAP1 PUSH1 0x1 ADD SWAP1 PUSH1 0x20 ADD DUP1 DUP4 GT PUSH2 0x623 JUMPI DUP3 SWAP1 SUB PUSH1 0x1F AND DUP3 ADD SWAP2 JUMPDEST POP POP POP POP POP DUP2 MSTORE PUSH1 0x20 ADD PUSH1 0x2 DUP3 ADD DUP1 SLOAD PUSH2 0x659 SWAP1 PUSH2 0x12A5 JUMP JUMPDEST DUP1 PUSH1 0x1F ADD PUSH1 0x20 DUP1 SWAP2 DIV MUL PUSH1 0x20 ADD PUSH1 0x40 MLOAD SWAP1 DUP2 ADD PUSH1 0x40 MSTORE DUP1 SWAP3 SWAP2 SWAP1 DUP2 DUP2 MSTORE PUSH1 0x20 ADD DUP3 DUP1 SLOAD PUSH2 0x685 SWAP1 PUSH2 0x12A5 JUMP JUMPDEST DUP1 ISZERO PUSH2 0x6D0 JUMPI DUP1 PUSH1 0x1F LT PUSH2 0x6A7 JUMPI PUSH2 0x100 DUP1 DUP4 SLOAD DIV MUL DUP4 MSTORE SWAP2 PUSH1 0x20 ADD SWAP2 PUSH2 0x6D0 JUMP JUMPDEST DUP3 ADD SWAP2 SWAP1 PUSH0 MSTORE PUSH1 0x20 PUSH0 KECCAK256 SWAP1 JUMPDEST DUP2 SLOAD DUP2 MSTORE SWAP1 PUSH1 0x1 ADD SWAP1 PUSH1 0x20 ADD DUP1 DUP4 GT PUSH2 0x6B3 JUMPI DUP3 SWAP1 SUB PUSH1 0x1F AND DUP3 ADD SWAP2 JUMPDEST POP POP POP POP POP DUP2 MSTORE POP POP SWAP1 DUP1 PUSH1 0x4 ADD SLOAD SWAP1 POP DUP4 JUMP JUMPDEST PUSH1 0x3 PUSH1 0x20 MSTORE DUP1 PUSH0 MSTORE PUSH1 0x40 PUSH0 KECCAK256 PUSH0 SWAP2 POP SWAP1 POP DUP1 PUSH0 ADD PUSH0 SWAP1 SLOAD SWAP1 PUSH2 0x100 EXP SWAP1 DIV PUSH1 0xFF AND SWAP1 DUP1 PUSH1 0x1 ADD DUP1 SLOAD PUSH2 0x715 SWAP1 PUSH2 0x12A5 JUMP JUMPDEST DUP1 PUSH1 0x1F ADD PUSH1 0x20 DUP1 SWAP2 DIV MUL PUSH1 0x20 ADD PUSH1 0x40 MLOAD SWAP1 DUP2 ADD PUSH1 0x40 MSTORE DUP1 SWAP3 SWAP2 SWAP1 DUP2 DUP2 MSTORE PUSH1 0x20 ADD DUP3 DUP1 SLOAD PUSH2 0x741 SWAP1 PUSH2 0x12A5 JUMP JUMPDEST DUP1 ISZERO PUSH2 0x78C JUMPI DUP1 PUSH1 0x1F LT PUSH2 0x763 JUMPI PUSH2 0x100 DUP1 DUP4 SLOAD DIV MUL DUP4 MSTORE SWAP2 PUSH1 0x20 ADD SWAP2 PUSH2 0x78C JUMP JUMPDEST DUP3 ADD SWAP2 SWAP1 PUSH0 MSTORE PUSH1 0x20 PUSH0 KECCAK256 SWAP1 JUMPDEST DUP2 SLOAD DUP2 MSTORE SWAP1 PUSH1 0x1 ADD SWAP1 PUSH1 0x20 ADD DUP1 DUP4 GT PUSH2 0x76F JUMPI DUP3 SWAP1 SUB PUSH1 0x1F AND DUP3 ADD SWAP2 JUMPDEST POP POP POP POP POP SWAP1 DUP1 PUSH1 0x2 ADD DUP1 SLOAD PUSH2 0x7A1 SWAP1 PUSH2 0x12A5 JUMP JUMPDEST DUP1 PUSH1 0x1F ADD PUSH1 0x20 DUP1 SWAP2 DIV MUL PUSH1 0x20 ADD PUSH1 0x40 MLOAD SWAP1 DUP2 ADD PUSH1 0x40 MSTORE DUP1 SWAP3 SWAP2 SWAP1 DUP2 DUP2 MSTORE PUSH1 0x20 ADD DUP3 DUP1 SLOAD PUSH2 0x7CD SWAP1 PUSH2 0x12A5 JUMP JUMPDEST DUP1 ISZERO PUSH2 0x818 JUMPI DUP1 PUSH1 0x1F LT PUSH2 0x7EF JUMPI PUSH2 0x100 DUP1 DUP4 SLOAD DIV MUL DUP4 MSTORE SWAP2 PUSH1 0x20 ADD SWAP2 PUSH2 0x818 JUMP JUMPDEST DUP3 ADD SWAP2 SWAP1 PUSH0 MSTORE PUSH1 0x20 PUSH0 KECCAK256 SWAP1 JUMPDEST DUP2 SLOAD DUP2 MSTORE SWAP1 PUSH1 0x1 ADD SWAP1 PUSH1 0x20 ADD DUP1 DUP4 GT PUSH2 0x7FB JUMPI DUP3 SWAP1 SUB PUSH1 0x1F AND DUP3 ADD SWAP2 JUMPDEST POP POP POP POP POP SWAP1 DUP1 PUSH1 0x3 ADD PUSH0 SWAP1 SLOAD SWAP1 PUSH2 0x100 EXP SWAP1 DIV PUSH20 0xFFFFFFFFFFFFFFFFFFFFFFFFFFFFFFFFFFFFFFFF AND SWAP1 DUP1 PUSH1 0x4 ADD DUP1 SLOAD PUSH2 0x852 SWAP1 PUSH2 0x12A5 JUMP JUMPDEST DUP1 PUSH1 0x1F ADD PUSH1 0x20 DUP1 SWAP2 DIV MUL PUSH1 0x20 ADD PUSH1 0x40 MLOAD SWAP1 DUP2 ADD PUSH1 0x40 MSTORE DUP1 SWAP3 SWAP2 SWAP1 DUP2 DUP2 MSTORE PUSH1 0x20 ADD DUP3 DUP1 SLOAD PUSH2 0x87E SWAP1 PUSH2 0x12A5 JUMP JUMPDEST DUP1 ISZERO PUSH2 0x8C9 JUMPI DUP1 PUSH1 0x1F LT PUSH2 0x8A0 JUMPI PUSH2 0x100 DUP1 DUP4 SLOAD DIV MUL DUP4 MSTORE SWAP2 PUSH1 0x20 ADD SWAP2 PUSH2 0x8C9 JUMP JUMPDEST DUP3 ADD SWAP2 SWAP1 PUSH0 MSTORE PUSH1 0x20 PUSH0 KECCAK256 SWAP1 JUMPDEST DUP2 SLOAD DUP2 MSTORE SWAP1 PUSH1 0x1 ADD SWAP1 PUSH1 0x20 ADD DUP1 DUP4 GT PUSH2 0x8AC JUMPI DUP3 SWAP1 SUB PUSH1 0x1F AND DUP3 ADD SWAP2 JUMPDEST POP POP POP POP POP SWAP1 POP DUP6 JUMP JUMPDEST PUSH0 DUP1 SLOAD SWAP1 PUSH2 0x100 EXP SWAP1 DIV PUSH20 0xFFFFFFFFFFFFFFFFFFFFFFFFFFFFFFFFFFFFFFFF AND PUSH20 0xFFFFFFFFFFFFFFFFFFFFFFFFFFFFFFFFFFFFFFFF AND CALLER PUSH20 0xFFFFFFFFFFFFFFFFFFFFFFFFFFFFFFFFFFFFFFFF AND SUB PUSH2 0x960 JUMPI PUSH1 0x40 MLOAD PUSH32 0x8C379A000000000000000000000000000000000000000000000000000000000 DUP2 MSTORE PUSH1 0x4 ADD PUSH2 0x957 SWAP1 PUSH2 0x158B JUMP JUMPDEST PUSH1 0x40 MLOAD DUP1 SWAP2 SUB SWAP1 REVERT JUMPDEST CALLER PUSH20 0xFFFFFFFFFFFFFFFFFFFFFFFFFFFFFFFFFFFFFFFF AND PUSH1 0x3 PUSH0 DUP5 DUP2 MSTORE PUSH1 0x20 ADD SWAP1 DUP2 MSTORE PUSH1 0x20 ADD PUSH0 KECCAK256 PUSH1 0x3 ADD PUSH0 SWAP1 SLOAD SWAP1 PUSH2 0x100 EXP SWAP1 DIV PUSH20 0xFFFFFFFFFFFFFFFFFFFFFFFFFFFFFFFFFFFFFFFF AND PUSH20 0xFFFFFFFFFFFFFFFFFFFFFFFFFFFFFFFFFFFFFFFF AND EQ PUSH2 0xA01 JUMPI PUSH1 0x40 MLOAD PUSH32 0x8C379A000000000000000000000000000000000000000000000000000000000 DUP2 MSTORE PUSH1 0x4 ADD PUSH2 0x9F8 SWAP1 PUSH2 0x175F JUMP JUMPDEST PUSH1 0x40 MLOAD DUP1 SWAP2 SUB SWAP1 REVERT JUMPDEST PUSH1 0x1 PUSH1 0x3 PUSH0 DUP5 DUP2 MSTORE PUSH1 0x20 ADD SWAP1 DUP2 MSTORE PUSH1 0x20 ADD PUSH0 KECCAK256 PUSH0 ADD PUSH0 PUSH2 0x100 EXP DUP2 SLOAD DUP2 PUSH1 0xFF MUL NOT AND SWAP1 DUP4 ISZERO ISZERO MUL OR SWAP1 SSTORE POP PUSH1 0x40 MLOAD DUP1 PUSH1 0x40 ADD PUSH1 0x40 MSTORE DUP1 PUSH1 0x6 DUP2 MSTORE PUSH1 0x20 ADD PUSH32 0x4E6F626F64790000000000000000000000000000000000000000000000000000 DUP2 MSTORE POP PUSH1 0x3 PUSH0 DUP5 DUP2 MSTORE PUSH1 0x20 ADD SWAP1 DUP2 MSTORE PUSH1 0x20 ADD PUSH0 KECCAK256 PUSH1 0x2 ADD SWAP1 DUP2 PUSH2 0xA82 SWAP2 SWAP1 PUSH2 0x1472 JUMP JUMPDEST POP PUSH0 PUSH1 0x3 PUSH0 DUP5 DUP2 MSTORE PUSH1 0x20 ADD SWAP1 DUP2 MSTORE PUSH1 0x20 ADD PUSH0 KECCAK256 PUSH1 0x3 ADD PUSH0 PUSH2 0x100 EXP DUP2 SLOAD DUP2 PUSH20 0xFFFFFFFFFFFFFFFFFFFFFFFFFFFFFFFFFFFFFFFF MUL NOT AND SWAP1 DUP4 PUSH20 0xFFFFFFFFFFFFFFFFFFFFFFFFFFFFFFFFFFFFFFFF AND MUL OR SWAP1 SSTORE POP PUSH1 0x1 PUSH1 0x4 PUSH0 DUP4 DUP2 MSTORE PUSH1 0x20 ADD SWAP1 DUP2 MSTORE PUSH1 0x20 ADD PUSH0 KECCAK256 PUSH1 0x4 ADD PUSH0 DUP3 DUP3 SLOAD PUSH2 0xAF9 SWAP2 SWAP1 PUSH2 0x177D JUMP JUMPDEST SWAP3 POP POP DUP2 SWAP1 SSTORE POP POP POP JUMP JUMPDEST PUSH0 DUP1 SLOAD SWAP1 PUSH2 0x100 EXP SWAP1 DIV PUSH20 0xFFFFFFFFFFFFFFFFFFFFFFFFFFFFFFFFFFFFFFFF AND PUSH20 0xFFFFFFFFFFFFFFFFFFFFFFFFFFFFFFFFFFFFFFFF AND CALLER PUSH20 0xFFFFFFFFFFFFFFFFFFFFFFFFFFFFFFFFFFFFFFFF AND SUB PUSH2 0xB91 JUMPI PUSH1 0x40 MLOAD PUSH32 0x8C379A000000000000000000000000000000000000000000000000000000000 DUP2 MSTORE PUSH1 0x4 ADD PUSH2 0xB88 SWAP1 PUSH2 0x17FA JUMP JUMPDEST PUSH1 0x40 MLOAD DUP1 SWAP2 SUB SWAP1 REVERT JUMPDEST PUSH0 PUSH1 0x40 MLOAD DUP1 PUSH1 0x60 ADD PUSH1 0x40 MSTORE DUP1 DUP6 DUP2 MSTORE PUSH1 0x20 ADD DUP5 DUP2 MSTORE PUSH1 0x20 ADD DUP4 DUP2 MSTORE POP SWAP1 POP PUSH0 PUSH1 0x40 MLOAD DUP1 PUSH1 0x60 ADD PUSH1 0x40 MSTORE DUP1 PUSH1 0x1 ISZERO ISZERO DUP2 MSTORE PUSH1 0x20 ADD DUP4 DUP2 MSTORE PUSH1 0x20 ADD PUSH0 DUP2 MSTORE POP SWAP1 POP DUP1 PUSH1 0x4 PUSH0 DUP9 DUP2 MSTORE PUSH1 0x20 ADD SWAP1 DUP2 MSTORE PUSH1 0x20 ADD PUSH0 KECCAK256 PUSH0 DUP3 ADD MLOAD DUP2 PUSH0 ADD PUSH0 PUSH2 0x100 EXP DUP2 SLOAD DUP2 PUSH1 0xFF MUL NOT AND SWAP1 DUP4 ISZERO ISZERO MUL OR SWAP1 SSTORE POP PUSH1 0x20 DUP3 ADD MLOAD DUP2 PUSH1 0x1 ADD PUSH0 DUP3 ADD MLOAD DUP2 PUSH0 ADD SWAP1 DUP2 PUSH2 0xC1B SWAP2 SWAP1 PUSH2 0x1472 JUMP JUMPDEST POP PUSH1 0x20 DUP3 ADD MLOAD DUP2 PUSH1 0x1 ADD SWAP1 DUP2 PUSH2 0xC31 SWAP2 SWAP1 PUSH2 0x1472 JUMP JUMPDEST POP PUSH1 0x40 DUP3 ADD MLOAD DUP2 PUSH1 0x2 ADD SWAP1 DUP2 PUSH2 0xC47 SWAP2 SWAP1 PUSH2 0x1472 JUMP JUMPDEST POP POP POP PUSH1 0x40 DUP3 ADD MLOAD DUP2 PUSH1 0x4 ADD SSTORE SWAP1 POP POP POP POP POP POP POP POP JUMP JUMPDEST PUSH0 DUP1 SLOAD SWAP1 PUSH2 0x100 EXP SWAP1 DIV PUSH20 0xFFFFFFFFFFFFFFFFFFFFFFFFFFFFFFFFFFFFFFFF AND DUP2 JUMP JUMPDEST PUSH1 0x1 SLOAD DUP2 JUMP JUMPDEST PUSH1 0x2 SLOAD DUP2 JUMP JUMPDEST PUSH0 PUSH1 0x40 MLOAD SWAP1 POP SWAP1 JUMP JUMPDEST PUSH0 DUP1 REVERT JUMPDEST PUSH0 DUP1 REVERT JUMPDEST PUSH0 DUP2 SWAP1 POP SWAP2 SWAP1 POP JUMP JUMPDEST PUSH2 0xCB1 DUP2 PUSH2 0xC9F JUMP JUMPDEST DUP2 EQ PUSH2 0xCBB JUMPI PUSH0 DUP1 REVERT JUMPDEST POP JUMP JUMPDEST PUSH0 DUP2 CALLDATALOAD SWAP1 POP PUSH2 0xCCC DUP2 PUSH2 0xCA8 JUMP JUMPDEST SWAP3 SWAP2 POP POP JUMP JUMPDEST PUSH0 DUP1 REVERT JUMPDEST PUSH0 DUP1 REVERT JUMPDEST PUSH0 PUSH1 0x1F NOT PUSH1 0x1F DUP4 ADD AND SWAP1 POP SWAP2 SWAP1 POP JUMP JUMPDEST PUSH32 0x4E487B7100000000000000000000000000000000000000000000000000000000 PUSH0 MSTORE PUSH1 0x41 PUSH1 0x4 MSTORE PUSH1 0x24 PUSH0 REVERT JUMPDEST PUSH2 0xD20 DUP3 PUSH2 0xCDA JUMP JUMPDEST DUP2 ADD DUP2 DUP2 LT PUSH8 0xFFFFFFFFFFFFFFFF DUP3 GT OR ISZERO PUSH2 0xD3F JUMPI PUSH2 0xD3E PUSH2 0xCEA JUMP JUMPDEST JUMPDEST DUP1 PUSH1 0x40 MSTORE POP POP POP JUMP JUMPDEST PUSH0 PUSH2 0xD51 PUSH2 0xC8E JUMP JUMPDEST SWAP1 POP PUSH2 0xD5D DUP3 DUP3 PUSH2 0xD17 JUMP JUMPDEST SWAP2 SWAP1 POP JUMP JUMPDEST PUSH0 PUSH8 0xFFFFFFFFFFFFFFFF DUP3 GT ISZERO PUSH2 0xD7C JUMPI PUSH2 0xD7B PUSH2 0xCEA JUMP JUMPDEST JUMPDEST PUSH2 0xD85 DUP3 PUSH2 0xCDA JUMP JUMPDEST SWAP1 POP PUSH1 0x20 DUP2 ADD SWAP1 POP SWAP2 SWAP1 POP JUMP JUMPDEST DUP3 DUP2 DUP4 CALLDATACOPY PUSH0 DUP4 DUP4 ADD MSTORE POP POP POP JUMP JUMPDEST PUSH0 PUSH2 0xDB2 PUSH2 0xDAD DUP5 PUSH2 0xD62 JUMP JUMPDEST PUSH2 0xD48 JUMP JUMPDEST SWAP1 POP DUP3 DUP2 MSTORE PUSH1 0x20 DUP2 ADD DUP5 DUP5 DUP5 ADD GT ISZERO PUSH2 0xDCE JUMPI PUSH2 0xDCD PUSH2 0xCD6 JUMP JUMPDEST JUMPDEST PUSH2 0xDD9 DUP5 DUP3 DUP6 PUSH2 0xD92 JUMP JUMPDEST POP SWAP4 SWAP3 POP POP POP JUMP JUMPDEST PUSH0 DUP3 PUSH1 0x1F DUP4 ADD SLT PUSH2 0xDF5 JUMPI PUSH2 0xDF4 PUSH2 0xCD2 JUMP JUMPDEST JUMPDEST DUP2 CALLDATALOAD PUSH2 0xE05 DUP5 DUP3 PUSH1 0x20 DUP7 ADD PUSH2 0xDA0 JUMP JUMPDEST SWAP2 POP POP SWAP3 SWAP2 POP POP JUMP JUMPDEST PUSH0 DUP1 PUSH0 PUSH1 0x60 DUP5 DUP7 SUB SLT ISZERO PUSH2 0xE25 JUMPI PUSH2 0xE24 PUSH2 0xC97 JUMP JUMPDEST JUMPDEST PUSH0 PUSH2 0xE32 DUP7 DUP3 DUP8 ADD PUSH2 0xCBE JUMP JUMPDEST SWAP4 POP POP PUSH1 0x20 DUP5 ADD CALLDATALOAD PUSH8 0xFFFFFFFFFFFFFFFF DUP2 GT ISZERO PUSH2 0xE53 JUMPI PUSH2 0xE52 PUSH2 0xC9B JUMP JUMPDEST JUMPDEST PUSH2 0xE5F DUP7 DUP3 DUP8 ADD PUSH2 0xDE1 JUMP JUMPDEST SWAP3 POP POP PUSH1 0x40 DUP5 ADD CALLDATALOAD PUSH8 0xFFFFFFFFFFFFFFFF DUP2 GT ISZERO PUSH2 0xE80 JUMPI PUSH2 0xE7F PUSH2 0xC9B JUMP JUMPDEST JUMPDEST PUSH2 0xE8C DUP7 DUP3 DUP8 ADD PUSH2 0xDE1 JUMP JUMPDEST SWAP2 POP POP SWAP3 POP SWAP3 POP SWAP3 JUMP JUMPDEST PUSH0 DUP1 PUSH1 0x40 DUP4 DUP6 SUB SLT ISZERO PUSH2 0xEAC JUMPI PUSH2 0xEAB PUSH2 0xC97 JUMP JUMPDEST JUMPDEST PUSH0 PUSH2 0xEB9 DUP6 DUP3 DUP7 ADD PUSH2 0xCBE JUMP JUMPDEST SWAP3 POP POP PUSH1 0x20 PUSH2 0xECA DUP6 DUP3 DUP7 ADD PUSH2 0xCBE JUMP JUMPDEST SWAP2 POP POP SWAP3 POP SWAP3 SWAP1 POP JUMP JUMPDEST PUSH0 PUSH1 0x20 DUP3 DUP5 SUB SLT ISZERO PUSH2 0xEE9 JUMPI PUSH2 0xEE8 PUSH2 0xC97 JUMP JUMPDEST JUMPDEST PUSH0 PUSH2 0xEF6 DUP5 DUP3 DUP6 ADD PUSH2 0xCBE JUMP JUMPDEST SWAP2 POP POP SWAP3 SWAP2 POP POP JUMP JUMPDEST PUSH0 DUP2 ISZERO ISZERO SWAP1 POP SWAP2 SWAP1 POP JUMP JUMPDEST PUSH2 0xF13 DUP2 PUSH2 0xEFF JUMP JUMPDEST DUP3 MSTORE POP POP JUMP JUMPDEST PUSH0 DUP2 MLOAD SWAP1 POP SWAP2 SWAP1 POP JUMP JUMPDEST PUSH0 DUP3 DUP3 MSTORE PUSH1 0x20 DUP3 ADD SWAP1 POP SWAP3 SWAP2 POP POP JUMP JUMPDEST PUSH0 JUMPDEST DUP4 DUP2 LT ISZERO PUSH2 0xF50 JUMPI DUP1 DUP3 ADD MLOAD DUP2 DUP5 ADD MSTORE PUSH1 0x20 DUP2 ADD SWAP1 POP PUSH2 0xF35 JUMP JUMPDEST PUSH0 DUP5 DUP5 ADD MSTORE POP POP POP POP JUMP JUMPDEST PUSH0 PUSH2 0xF65 DUP3 PUSH2 0xF19 JUMP JUMPDEST PUSH2 0xF6F DUP2 DUP6 PUSH2 0xF23 JUMP JUMPDEST SWAP4 POP PUSH2 0xF7F DUP2 DUP6 PUSH1 0x20 DUP7 ADD PUSH2 0xF33 JUMP JUMPDEST PUSH2 0xF88 DUP2 PUSH2 0xCDA JUMP JUMPDEST DUP5 ADD SWAP2 POP POP SWAP3 SWAP2 POP POP JUMP JUMPDEST PUSH0 PUSH1 0x60 DUP4 ADD PUSH0 DUP4 ADD MLOAD DUP5 DUP3 SUB PUSH0 DUP7 ADD MSTORE PUSH2 0xFAD DUP3 DUP3 PUSH2 0xF5B JUMP JUMPDEST SWAP2 POP POP PUSH1 0x20 DUP4 ADD MLOAD DUP5 DUP3 SUB PUSH1 0x20 DUP7 ADD MSTORE PUSH2 0xFC7 DUP3 DUP3 PUSH2 0xF5B JUMP JUMPDEST SWAP2 POP POP PUSH1 0x40 DUP4 ADD MLOAD DUP5 DUP3 SUB PUSH1 0x40 DUP7 ADD MSTORE PUSH2 0xFE1 DUP3 DUP3 PUSH2 0xF5B JUMP JUMPDEST SWAP2 POP POP DUP1 SWAP2 POP POP SWAP3 SWAP2 POP POP JUMP JUMPDEST PUSH2 0xFF7 DUP2 PUSH2 0xC9F JUMP JUMPDEST DUP3 MSTORE POP POP JUMP JUMPDEST PUSH0 PUSH1 0x60 DUP3 ADD SWAP1 POP PUSH2 0x1010 PUSH0 DUP4 ADD DUP7 PUSH2 0xF0A JUMP JUMPDEST DUP2 DUP2 SUB PUSH1 0x20 DUP4 ADD MSTORE PUSH2 0x1022 DUP2 DUP6 PUSH2 0xF93 JUMP JUMPDEST SWAP1 POP PUSH2 0x1031 PUSH1 0x40 DUP4 ADD DUP5 PUSH2 0xFEE JUMP JUMPDEST SWAP5 SWAP4 POP POP POP POP JUMP JUMPDEST PUSH0 DUP3 DUP3 MSTORE PUSH1 0x20 DUP3 ADD SWAP1 POP SWAP3 SWAP2 POP POP JUMP JUMPDEST PUSH0 PUSH2 0x1053 DUP3 PUSH2 0xF19 JUMP JUMPDEST PUSH2 0x105D DUP2 DUP6 PUSH2 0x1039 JUMP JUMPDEST SWAP4 POP PUSH2 0x106D DUP2 DUP6 PUSH1 0x20 DUP7 ADD PUSH2 0xF33 JUMP JUMPDEST PUSH2 0x1076 DUP2 PUSH2 0xCDA JUMP JUMPDEST DUP5 ADD SWAP2 POP POP SWAP3 SWAP2 POP POP JUMP JUMPDEST PUSH0 PUSH20 0xFFFFFFFFFFFFFFFFFFFFFFFFFFFFFFFFFFFFFFFF DUP3 AND SWAP1 POP SWAP2 SWAP1 POP JUMP JUMPDEST PUSH0 PUSH2 0x10AA DUP3 PUSH2 0x1081 JUMP JUMPDEST SWAP1 POP SWAP2 SWAP1 POP JUMP JUMPDEST PUSH2 0x10BA DUP2 PUSH2 0x10A0 JUMP JUMPDEST DUP3 MSTORE POP POP JUMP JUMPDEST PUSH0 PUSH1 0xA0 DUP3 ADD SWAP1 POP PUSH2 0x10D3 PUSH0 DUP4 ADD DUP9 PUSH2 0xF0A JUMP JUMPDEST DUP2 DUP2 SUB PUSH1 0x20 DUP4 ADD MSTORE PUSH2 0x10E5 DUP2 DUP8 PUSH2 0x1049 JUMP JUMPDEST SWAP1 POP DUP2 DUP2 SUB PUSH1 0x40 DUP4 ADD MSTORE PUSH2 0x10F9 DUP2 DUP7 PUSH2 0x1049 JUMP JUMPDEST SWAP1 POP PUSH2 0x1108 PUSH1 0x60 DUP4 ADD DUP6 PUSH2 0x10B1 JUMP JUMPDEST DUP2 DUP2 SUB PUSH1 0x80 DUP4 ADD MSTORE PUSH2 0x111A DUP2 DUP5 PUSH2 0x1049 JUMP JUMPDEST SWAP1 POP SWAP7 SWAP6 POP POP POP POP POP POP JUMP JUMPDEST PUSH0 DUP1 PUSH0 DUP1 PUSH1 0x80 DUP6 DUP8 SUB SLT ISZERO PUSH2 0x113E JUMPI PUSH2 0x113D PUSH2 0xC97 JUMP JUMPDEST JUMPDEST PUSH0 PUSH2 0x114B DUP8 DUP3 DUP9 ADD PUSH2 0xCBE JUMP JUMPDEST SWAP5 POP POP PUSH1 0x20 DUP6 ADD CALLDATALOAD PUSH8 0xFFFFFFFFFFFFFFFF DUP2 GT ISZERO PUSH2 0x116C JUMPI PUSH2 0x116B PUSH2 0xC9B JUMP JUMPDEST JUMPDEST PUSH2 0x1178 DUP8 DUP3 DUP9 ADD PUSH2 0xDE1 JUMP JUMPDEST SWAP4 POP POP PUSH1 0x40 DUP6 ADD CALLDATALOAD PUSH8 0xFFFFFFFFFFFFFFFF DUP2 GT ISZERO PUSH2 0x1199 JUMPI PUSH2 0x1198 PUSH2 0xC9B JUMP JUMPDEST JUMPDEST PUSH2 0x11A5 DUP8 DUP3 DUP9 ADD PUSH2 0xDE1 JUMP JUMPDEST SWAP3 POP POP PUSH1 0x60 DUP6 ADD CALLDATALOAD PUSH8 0xFFFFFFFFFFFFFFFF DUP2 GT ISZERO PUSH2 0x11C6 JUMPI PUSH2 0x11C5 PUSH2 0xC9B JUMP JUMPDEST JUMPDEST PUSH2 0x11D2 DUP8 DUP3 DUP9 ADD PUSH2 0xDE1 JUMP JUMPDEST SWAP2 POP POP SWAP3 SWAP6 SWAP2 SWAP5 POP SWAP3 POP JUMP JUMPDEST PUSH0 PUSH1 0x20 DUP3 ADD SWAP1 POP PUSH2 0x11F1 PUSH0 DUP4 ADD DUP5 PUSH2 0x10B1 JUMP JUMPDEST SWAP3 SWAP2 POP POP JUMP JUMPDEST PUSH0 PUSH1 0x20 DUP3 ADD SWAP1 POP PUSH2 0x120A PUSH0 DUP4 ADD DUP5 PUSH2 0xFEE JUMP JUMPDEST SWAP3 SWAP2 POP POP JUMP JUMPDEST PUSH32 0x596F7520617265206E6F74204C696272617269616E0000000000000000000000 PUSH0 DUP3 ADD MSTORE POP JUMP JUMPDEST PUSH0 PUSH2 0x1244 PUSH1 0x15 DUP4 PUSH2 0x1039 JUMP JUMPDEST SWAP2 POP PUSH2 0x124F DUP3 PUSH2 0x1210 JUMP JUMPDEST PUSH1 0x20 DUP3 ADD SWAP1 POP SWAP2 SWAP1 POP JUMP JUMPDEST PUSH0 PUSH1 0x20 DUP3 ADD SWAP1 POP DUP2 DUP2 SUB PUSH0 DUP4 ADD MSTORE PUSH2 0x1271 DUP2 PUSH2 0x1238 JUMP JUMPDEST SWAP1 POP SWAP2 SWAP1 POP JUMP JUMPDEST PUSH32 0x4E487B7100000000000000000000000000000000000000000000000000000000 PUSH0 MSTORE PUSH1 0x22 PUSH1 0x4 MSTORE PUSH1 0x24 PUSH0 REVERT JUMPDEST PUSH0 PUSH1 0x2 DUP3 DIV SWAP1 POP PUSH1 0x1 DUP3 AND DUP1 PUSH2 0x12BC JUMPI PUSH1 0x7F DUP3 AND SWAP2 POP JUMPDEST PUSH1 0x20 DUP3 LT DUP2 SUB PUSH2 0x12CF JUMPI PUSH2 0x12CE PUSH2 0x1278 JUMP JUMPDEST JUMPDEST POP SWAP2 SWAP1 POP JUMP JUMPDEST PUSH0 DUP2 SWAP1 POP DUP2 PUSH0 MSTORE PUSH1 0x20 PUSH0 KECCAK256 SWAP1 POP SWAP2 SWAP1 POP JUMP JUMPDEST PUSH0 PUSH1 0x20 PUSH1 0x1F DUP4 ADD DIV SWAP1 POP SWAP2 SWAP1 POP JUMP JUMPDEST PUSH0 DUP3 DUP3 SHL SWAP1 POP SWAP3 SWAP2 POP POP JUMP JUMPDEST PUSH0 PUSH1 0x8 DUP4 MUL PUSH2 0x1331 PUSH32 0xFFFFFFFFFFFFFFFFFFFFFFFFFFFFFFFFFFFFFFFFFFFFFFFFFFFFFFFFFFFFFFFF DUP3 PUSH2 0x12F6 JUMP JUMPDEST PUSH2 0x133B DUP7 DUP4 PUSH2 0x12F6 JUMP JUMPDEST SWAP6 POP DUP1 NOT DUP5 AND SWAP4 POP DUP1 DUP7 AND DUP5 OR SWAP3 POP POP POP SWAP4 SWAP3 POP POP POP JUMP JUMPDEST PUSH0 DUP2 SWAP1 POP SWAP2 SWAP1 POP JUMP JUMPDEST PUSH0 PUSH2 0x1376 PUSH2 0x1371 PUSH2 0x136C DUP5 PUSH2 0xC9F JUMP JUMPDEST PUSH2 0x1353 JUMP JUMPDEST PUSH2 0xC9F JUMP JUMPDEST SWAP1 POP SWAP2 SWAP1 POP JUMP JUMPDEST PUSH0 DUP2 SWAP1 POP SWAP2 SWAP1 POP JUMP JUMPDEST PUSH2 0x138F DUP4 PUSH2 0x135C JUMP JUMPDEST PUSH2 0x13A3 PUSH2 0x139B DUP3 PUSH2 0x137D JUMP JUMPDEST DUP5 DUP5 SLOAD PUSH2 0x1302 JUMP JUMPDEST DUP3 SSTORE POP POP POP POP JUMP JUMPDEST PUSH0 SWAP1 JUMP JUMPDEST PUSH2 0x13B7 PUSH2 0x13AB JUMP JUMPDEST PUSH2 0x13C2 DUP2 DUP5 DUP5 PUSH2 0x1386 JUMP JUMPDEST POP POP POP JUMP JUMPDEST JUMPDEST DUP2 DUP2 LT ISZERO PUSH2 0x13E5 JUMPI PUSH2 0x13DA PUSH0 DUP3 PUSH2 0x13AF JUMP JUMPDEST PUSH1 0x1 DUP2 ADD SWAP1 POP PUSH2 0x13C8 JUMP JUMPDEST POP POP JUMP JUMPDEST PUSH1 0x1F DUP3 GT ISZERO PUSH2 0x142A JUMPI PUSH2 0x13FB DUP2 PUSH2 0x12D5 JUMP JUMPDEST PUSH2 0x1404 DUP5 PUSH2 0x12E7 JUMP JUMPDEST DUP2 ADD PUSH1 0x20 DUP6 LT ISZERO PUSH2 0x1413 JUMPI DUP2 SWAP1 POP JUMPDEST PUSH2 0x1427 PUSH2 0x141F DUP6 PUSH2 0x12E7 JUMP JUMPDEST DUP4 ADD DUP3 PUSH2 0x13C7 JUMP JUMPDEST POP POP JUMPDEST POP POP POP JUMP JUMPDEST PUSH0 DUP3 DUP3 SHR SWAP1 POP SWAP3 SWAP2 POP POP JUMP JUMPDEST PUSH0 PUSH2 0x144A PUSH0 NOT DUP5 PUSH1 0x8 MUL PUSH2 0x142F JUMP JUMPDEST NOT DUP1 DUP4 AND SWAP2 POP POP SWAP3 SWAP2 POP POP JUMP JUMPDEST PUSH0 PUSH2 0x1462 DUP4 DUP4 PUSH2 0x143B JUMP JUMPDEST SWAP2 POP DUP3 PUSH1 0x2 MUL DUP3 OR SWAP1 POP SWAP3 SWAP2 POP POP JUMP JUMPDEST PUSH2 0x147B DUP3 PUSH2 0xF19 JUMP JUMPDEST PUSH8 0xFFFFFFFFFFFFFFFF DUP2 GT ISZERO PUSH2 0x1494 JUMPI PUSH2 0x1493 PUSH2 0xCEA JUMP JUMPDEST JUMPDEST PUSH2 0x149E DUP3 SLOAD PUSH2 0x12A5 JUMP JUMPDEST PUSH2 0x14A9 DUP3 DUP3 DUP6 PUSH2 0x13E9 JUMP JUMPDEST PUSH0 PUSH1 0x20 SWAP1 POP PUSH1 0x1F DUP4 GT PUSH1 0x1 DUP2 EQ PUSH2 0x14DA JUMPI PUSH0 DUP5 ISZERO PUSH2 0x14C8 JUMPI DUP3 DUP8 ADD MLOAD SWAP1 POP JUMPDEST PUSH2 0x14D2 DUP6 DUP3 PUSH2 0x1457 JUMP JUMPDEST DUP7 SSTORE POP PUSH2 0x1539 JUMP JUMPDEST PUSH1 0x1F NOT DUP5 AND PUSH2 0x14E8 DUP7 PUSH2 0x12D5 JUMP JUMPDEST PUSH0 JUMPDEST DUP3 DUP2 LT ISZERO PUSH2 0x150F JUMPI DUP5 DUP10 ADD MLOAD DUP3 SSTORE PUSH1 0x1 DUP3 ADD SWAP2 POP PUSH1 0x20 DUP6 ADD SWAP5 POP PUSH1 0x20 DUP2 ADD SWAP1 POP PUSH2 0x14EA JUMP JUMPDEST DUP7 DUP4 LT ISZERO PUSH2 0x152C JUMPI DUP5 DUP10 ADD MLOAD PUSH2 0x1528 PUSH1 0x1F DUP10 AND DUP3 PUSH2 0x143B JUMP JUMPDEST DUP4 SSTORE POP JUMPDEST PUSH1 0x1 PUSH1 0x2 DUP9 MUL ADD DUP9 SSTORE POP POP POP JUMPDEST POP POP POP POP POP POP JUMP JUMPDEST PUSH32 0x796F7520617265206E6F74207065726D69747465640000000000000000000000 PUSH0 DUP3 ADD MSTORE POP JUMP JUMPDEST PUSH0 PUSH2 0x1575 PUSH1 0x15 DUP4 PUSH2 0x1039 JUMP JUMPDEST SWAP2 POP PUSH2 0x1580 DUP3 PUSH2 0x1541 JUMP JUMPDEST PUSH1 0x20 DUP3 ADD SWAP1 POP SWAP2 SWAP1 POP JUMP JUMPDEST PUSH0 PUSH1 0x20 DUP3 ADD SWAP1 POP DUP2 DUP2 SUB PUSH0 DUP4 ADD MSTORE PUSH2 0x15A2 DUP2 PUSH2 0x1569 JUMP JUMPDEST SWAP1 POP SWAP2 SWAP1 POP JUMP JUMPDEST PUSH0 DUP2 SLOAD SWAP1 POP PUSH2 0x15B7 DUP2 PUSH2 0x12A5 JUMP JUMPDEST SWAP1 POP SWAP2 SWAP1 POP JUMP JUMPDEST PUSH0 DUP2 SWAP1 POP DUP2 PUSH0 MSTORE PUSH1 0x20 PUSH0 KECCAK256 SWAP1 POP SWAP2 SWAP1 POP JUMP JUMPDEST DUP2 DUP2 SUB PUSH2 0x15DE JUMPI POP POP PUSH2 0x16B3 JUMP JUMPDEST PUSH2 0x15E7 DUP3 PUSH2 0x15A9 JUMP JUMPDEST PUSH8 0xFFFFFFFFFFFFFFFF DUP2 GT ISZERO PUSH2 0x1600 JUMPI PUSH2 0x15FF PUSH2 0xCEA JUMP JUMPDEST JUMPDEST PUSH2 0x160A DUP3 SLOAD PUSH2 0x12A5 JUMP JUMPDEST PUSH2 0x1615 DUP3 DUP3 DUP6 PUSH2 0x13E9 JUMP JUMPDEST PUSH0 PUSH1 0x1F DUP4 GT PUSH1 0x1 DUP2 EQ PUSH2 0x1642 JUMPI PUSH0 DUP5 ISZERO PUSH2 0x1630 JUMPI DUP3 DUP8 ADD SLOAD SWAP1 POP JUMPDEST PUSH2 0x163A DUP6 DUP3 PUSH2 0x1457 JUMP JUMPDEST DUP7 SSTORE POP PUSH2 0x16AC JUMP JUMPDEST PUSH1 0x1F NOT DUP5 AND PUSH2 0x1650 DUP8 PUSH2 0x15BE JUMP JUMPDEST SWAP7 POP PUSH2 0x165B DUP7 PUSH2 0x12D5 JUMP JUMPDEST PUSH0 JUMPDEST DUP3 DUP2 LT ISZERO PUSH2 0x1682 JUMPI DUP5 DUP10 ADD SLOAD DUP3 SSTORE PUSH1 0x1 DUP3 ADD SWAP2 POP PUSH1 0x1 DUP6 ADD SWAP5 POP PUSH1 0x20 DUP2 ADD SWAP1 POP PUSH2 0x165D JUMP JUMPDEST DUP7 DUP4 LT ISZERO PUSH2 0x169F JUMPI DUP5 DUP10 ADD SLOAD PUSH2 0x169B PUSH1 0x1F DUP10 AND DUP3 PUSH2 0x143B JUMP JUMPDEST DUP4 SSTORE POP JUMPDEST PUSH1 0x1 PUSH1 0x2 DUP9 MUL ADD DUP9 SSTORE POP POP POP JUMPDEST POP POP POP POP POP POP JUMPDEST JUMP JUMPDEST PUSH32 0x4E487B7100000000000000000000000000000000000000000000000000000000 PUSH0 MSTORE PUSH1 0x11 PUSH1 0x4 MSTORE PUSH1 0x24 PUSH0 REVERT JUMPDEST PUSH0 PUSH2 0x16EC DUP3 PUSH2 0xC9F JUMP JUMPDEST SWAP2 POP PUSH2 0x16F7 DUP4 PUSH2 0xC9F JUMP JUMPDEST SWAP3 POP DUP3 DUP3 ADD SWAP1 POP DUP1 DUP3 GT ISZERO PUSH2 0x170F JUMPI PUSH2 0x170E PUSH2 0x16B5 JUMP JUMPDEST JUMPDEST SWAP3 SWAP2 POP POP JUMP JUMPDEST PUSH32 0x796F752068617665206E6F207265616C20626F6F6B0000000000000000000000 PUSH0 DUP3 ADD MSTORE POP JUMP JUMPDEST PUSH0 PUSH2 0x1749 PUSH1 0x15 DUP4 PUSH2 0x1039 JUMP JUMPDEST SWAP2 POP PUSH2 0x1754 DUP3 PUSH2 0x1715 JUMP JUMPDEST PUSH1 0x20 DUP3 ADD SWAP1 POP SWAP2 SWAP1 POP JUMP JUMPDEST PUSH0 PUSH1 0x20 DUP3 ADD SWAP1 POP DUP2 DUP2 SUB PUSH0 DUP4 ADD MSTORE PUSH2 0x1776 DUP2 PUSH2 0x173D JUMP JUMPDEST SWAP1 POP SWAP2 SWAP1 POP JUMP JUMPDEST PUSH0 PUSH2 0x1787 DUP3 PUSH2 0xC9F JUMP JUMPDEST SWAP2 POP PUSH2 0x1792 DUP4 PUSH2 0xC9F JUMP JUMPDEST SWAP3 POP DUP3 DUP3 SUB SWAP1 POP DUP2 DUP2 GT ISZERO PUSH2 0x17AA JUMPI PUSH2 0x17A9 PUSH2 0x16B5 JUMP JUMPDEST JUMPDEST SWAP3 SWAP2 POP POP JUMP JUMPDEST PUSH32 0x796F7520617265206E6F7420616C6C6F77656400000000000000000000000000 PUSH0 DUP3 ADD MSTORE POP JUMP JUMPDEST PUSH0 PUSH2 0x17E4 PUSH1 0x13 DUP4 PUSH2 0x1039 JUMP JUMPDEST SWAP2 POP PUSH2 0x17EF DUP3 PUSH2 0x17B0 JUMP JUMPDEST PUSH1 0x20 DUP3 ADD SWAP1 POP SWAP2 SWAP1 POP JUMP JUMPDEST PUSH0 PUSH1 0x20 DUP3 ADD SWAP1 POP DUP2 DUP2 SUB PUSH0 DUP4 ADD MSTORE PUSH2 0x1811 DUP2 PUSH2 0x17D8 JUMP JUMPDEST SWAP1 POP SWAP2 SWAP1 POP JUMP INVALID LOG2 PUSH5 0x6970667358 0x22 SLT KECCAK256 0xDE CALL 0xE6 0xDE DUP8 0xD5 0xC SDIV PUSH25 0xC39B882ECB869652FA50B282089BBCFE0FECCDF9D798B46473 PUSH16 0x6C634300081800330000000000000000 "
				},
				"gasEstimates": {
					"creation": {
						"codeDepositCost": "1244400",
						"executionCost": "25558",
						"totalCost": "1269958"
					},
					"external": {
						"No_of_Members()": "2491",
						"No_of_books()": "2513",
						"RegisterMember(uint256,string,string,string)": "infinite",
						"addBook(uint256,string,string)": "infinite",
						"books(uint256)": "infinite",
						"borrowBook(uint256,uint256)": "infinite",
						"librarian()": "2549",
						"members(uint256)": "infinite",
						"returnbook(uint256,uint256)": "infinite"
					}
				},
				"methodIdentifiers": {
					"No_of_Members()": "a9ddc241",
					"No_of_books()": "c2870ca0",
					"RegisterMember(uint256,string,string,string)": "8f8261f8",
					"addBook(uint256,string,string)": "028414f2",
					"books(uint256)": "68744046",
					"borrowBook(uint256,uint256)": "51f87964",
					"librarian()": "a437d45f",
					"members(uint256)": "5daf08ca",
					"returnbook(uint256,uint256)": "7930bd8b"
				}
			},
			"storageLayout": {
				"storage": [
					{
						"astId": 3,
						"contract": "contracts/ClassWork/Library.sol:MyLibrary",
						"label": "librarian",
						"offset": 0,
						"slot": "0",
						"type": "t_address"
					},
					{
						"astId": 5,
						"contract": "contracts/ClassWork/Library.sol:MyLibrary",
						"label": "No_of_Members",
						"offset": 0,
						"slot": "1",
						"type": "t_uint256"
					},
					{
						"astId": 7,
						"contract": "contracts/ClassWork/Library.sol:MyLibrary",
						"label": "No_of_books",
						"offset": 0,
						"slot": "2",
						"type": "t_uint256"
					},
					{
						"astId": 38,
						"contract": "contracts/ClassWork/Library.sol:MyLibrary",
						"label": "books",
						"offset": 0,
						"slot": "3",
						"type": "t_mapping(t_uint256,t_struct(bookDetail)33_storage)"
					},
					{
						"astId": 43,
						"contract": "contracts/ClassWork/Library.sol:MyLibrary",
						"label": "members",
						"offset": 0,
						"slot": "4",
						"type": "t_mapping(t_uint256,t_struct(member)22_storage)"
					}
				],
				"types": {
					"t_address": {
						"encoding": "inplace",
						"label": "address",
						"numberOfBytes": "20"
					},
					"t_bool": {
						"encoding": "inplace",
						"label": "bool",
						"numberOfBytes": "1"
					},
					"t_mapping(t_uint256,t_struct(bookDetail)33_storage)": {
						"encoding": "mapping",
						"key": "t_uint256",
						"label": "mapping(uint256 => struct MyLibrary.bookDetail)",
						"numberOfBytes": "32",
						"value": "t_struct(bookDetail)33_storage"
					},
					"t_mapping(t_uint256,t_struct(member)22_storage)": {
						"encoding": "mapping",
						"key": "t_uint256",
						"label": "mapping(uint256 => struct MyLibrary.member)",
						"numberOfBytes": "32",
						"value": "t_struct(member)22_storage"
					},
					"t_string_storage": {
						"encoding": "bytes",
						"label": "string",
						"numberOfBytes": "32"
					},
					"t_struct(MemberDetails)14_storage": {
						"encoding": "inplace",
						"label": "struct MyLibrary.MemberDetails",
						"members": [
							{
								"astId": 9,
								"contract": "contracts/ClassWork/Library.sol:MyLibrary",
								"label": "MName",
								"offset": 0,
								"slot": "0",
								"type": "t_string_storage"
							},
							{
								"astId": 11,
								"contract": "contracts/ClassWork/Library.sol:MyLibrary",
								"label": "joinDate",
								"offset": 0,
								"slot": "1",
								"type": "t_string_storage"
							},
							{
								"astId": 13,
								"contract": "contracts/ClassWork/Library.sol:MyLibrary",
								"label": "MGender",
								"offset": 0,
								"slot": "2",
								"type": "t_string_storage"
							}
						],
						"numberOfBytes": "96"
					},
					"t_struct(bookDetail)33_storage": {
						"encoding": "inplace",
						"label": "struct MyLibrary.bookDetail",
						"members": [
							{
								"astId": 24,
								"contract": "contracts/ClassWork/Library.sol:MyLibrary",
								"label": "isAvailable",
								"offset": 0,
								"slot": "0",
								"type": "t_bool"
							},
							{
								"astId": 26,
								"contract": "contracts/ClassWork/Library.sol:MyLibrary",
								"label": "BName",
								"offset": 0,
								"slot": "1",
								"type": "t_string_storage"
							},
							{
								"astId": 28,
								"contract": "contracts/ClassWork/Library.sol:MyLibrary",
								"label": "issuerperson",
								"offset": 0,
								"slot": "2",
								"type": "t_string_storage"
							},
							{
								"astId": 30,
								"contract": "contracts/ClassWork/Library.sol:MyLibrary",
								"label": "Borrower",
								"offset": 0,
								"slot": "3",
								"type": "t_address"
							},
							{
								"astId": 32,
								"contract": "contracts/ClassWork/Library.sol:MyLibrary",
								"label": "genre",
								"offset": 0,
								"slot": "4",
								"type": "t_string_storage"
							}
						],
						"numberOfBytes": "160"
					},
					"t_struct(member)22_storage": {
						"encoding": "inplace",
						"label": "struct MyLibrary.member",
						"members": [
							{
								"astId": 16,
								"contract": "contracts/ClassWork/Library.sol:MyLibrary",
								"label": "isMember",
								"offset": 0,
								"slot": "0",
								"type": "t_bool"
							},
							{
								"astId": 19,
								"contract": "contracts/ClassWork/Library.sol:MyLibrary",
								"label": "details",
								"offset": 0,
								"slot": "1",
								"type": "t_struct(MemberDetails)14_storage"
							},
							{
								"astId": 21,
								"contract": "contracts/ClassWork/Library.sol:MyLibrary",
								"label": "OwnedbookBook",
								"offset": 0,
								"slot": "4",
								"type": "t_uint256"
							}
						],
						"numberOfBytes": "160"
					},
					"t_uint256": {
						"encoding": "inplace",
						"label": "uint256",
						"numberOfBytes": "32"
					}
				}
			},
			"userdoc": {
				"kind": "user",
				"methods": {},
				"version": 1
			}
		}
	}
}