{
	"contracts/ClassWork/lottery.sol": {
		"LotterySystem": {
			"abi": [
				{
					"inputs": [],
					"stateMutability": "nonpayable",
					"type": "constructor"
				},
				{
					"inputs": [],
					"name": "Random",
					"outputs": [
						{
							"internalType": "uint256",
							"name": "",
							"type": "uint256"
						}
					],
					"stateMutability": "view",
					"type": "function"
				},
				{
					"inputs": [],
					"name": "getBalance",
					"outputs": [
						{
							"internalType": "uint256",
							"name": "",
							"type": "uint256"
						}
					],
					"stateMutability": "view",
					"type": "function"
				},
				{
					"inputs": [
						{
							"internalType": "uint256",
							"name": "",
							"type": "uint256"
						}
					],
					"name": "participants",
					"outputs": [
						{
							"internalType": "address payable",
							"name": "",
							"type": "address"
						}
					],
					"stateMutability": "view",
					"type": "function"
				},
				{
					"inputs": [],
					"name": "selectWinner",
					"outputs": [],
					"stateMutability": "nonpayable",
					"type": "function"
				},
				{
					"inputs": [],
					"name": "vijeta",
					"outputs": [
						{
							"internalType": "address",
							"name": "",
							"type": "address"
						}
					],
					"stateMutability": "view",
					"type": "function"
				},
				{
					"stateMutability": "payable",
					"type": "receive"
				}
			],
			"devdoc": {
				"kind": "dev",
				"methods": {},
				"version": 1
			},
			"evm": {
				"assembly": "    /* \"contracts/ClassWork/lottery.sol\":60:1361  contract LotterySystem{... */\n  mstore(0x40, 0x80)\n    /* \"contracts/ClassWork/lottery.sol\":197:257  constructor(){... */\n  callvalue\n  dup1\n  iszero\n  tag_1\n  jumpi\n  0x00\n  dup1\n  revert\ntag_1:\n  pop\n    /* \"contracts/ClassWork/lottery.sol\":238:248  msg.sender */\n  caller\n    /* \"contracts/ClassWork/lottery.sol\":221:228  manager */\n  0x00\n  dup1\n    /* \"contracts/ClassWork/lottery.sol\":221:249  manager=payable (msg.sender) */\n  0x0100\n  exp\n  dup2\n  sload\n  dup2\n  0xffffffffffffffffffffffffffffffffffffffff\n  mul\n  not\n  and\n  swap1\n  dup4\n  0xffffffffffffffffffffffffffffffffffffffff\n  and\n  mul\n  or\n  swap1\n  sstore\n  pop\n    /* \"contracts/ClassWork/lottery.sol\":60:1361  contract LotterySystem{... */\n  dataSize(sub_0)\n  dup1\n  dataOffset(sub_0)\n  0x00\n  codecopy\n  0x00\n  return\nstop\n\nsub_0: assembly {\n        /* \"contracts/ClassWork/lottery.sol\":60:1361  contract LotterySystem{... */\n      mstore(0x40, 0x80)\n      jumpi(tag_1, lt(calldatasize, 0x04))\n      shr(0xe0, calldataload(0x00))\n      dup1\n      0x12065fe0\n      eq\n      tag_3\n      jumpi\n      dup1\n      0x33a99e04\n      eq\n      tag_4\n      jumpi\n      dup1\n      0x35c1d349\n      eq\n      tag_5\n      jumpi\n      dup1\n      0x604a6fa9\n      eq\n      tag_6\n      jumpi\n      dup1\n      0xbd185f82\n      eq\n      tag_7\n      jumpi\n      jump(tag_2)\n    tag_1:\n      jumpi(tag_2, calldatasize)\n        /* \"contracts/ClassWork/lottery.sol\":322:329  1 ether */\n      0x0de0b6b3a7640000\n        /* \"contracts/ClassWork/lottery.sol\":311:320  msg.value */\n      callvalue\n        /* \"contracts/ClassWork/lottery.sol\":311:329  msg.value==1 ether */\n      eq\n        /* \"contracts/ClassWork/lottery.sol\":303:352  require(msg.value==1 ether,\"please give 1 ether\") */\n      tag_10\n      jumpi\n      mload(0x40)\n      0x08c379a000000000000000000000000000000000000000000000000000000000\n      dup2\n      mstore\n      0x04\n      add\n      tag_11\n      swap1\n      tag_12\n      jump\t// in\n    tag_11:\n      mload(0x40)\n      dup1\n      swap2\n      sub\n      swap1\n      revert\n    tag_10:\n        /* \"contracts/ClassWork/lottery.sol\":363:375  participants */\n      0x01\n        /* \"contracts/ClassWork/lottery.sol\":390:400  msg.sender */\n      caller\n        /* \"contracts/ClassWork/lottery.sol\":363:402  participants.push(payable (msg.sender)) */\n      swap1\n      dup1\n      0x01\n      dup2\n      sload\n      add\n      dup1\n      dup3\n      sstore\n      dup1\n      swap2\n      pop\n      pop\n      0x01\n      swap1\n      sub\n      swap1\n      0x00\n      mstore\n      keccak256(0x00, 0x20)\n      add\n      0x00\n      swap1\n      swap2\n      swap1\n      swap2\n      swap1\n      swap2\n      0x0100\n      exp\n      dup2\n      sload\n      dup2\n      0xffffffffffffffffffffffffffffffffffffffff\n      mul\n      not\n      and\n      swap1\n      dup4\n      0xffffffffffffffffffffffffffffffffffffffff\n      and\n      mul\n      or\n      swap1\n      sstore\n      stop\n        /* \"contracts/ClassWork/lottery.sol\":60:1361  contract LotterySystem{... */\n    tag_2:\n      0x00\n      dup1\n      revert\n        /* \"contracts/ClassWork/lottery.sol\":420:586  function getBalance() public view returns(uint ){... */\n    tag_3:\n      callvalue\n      dup1\n      iszero\n      tag_14\n      jumpi\n      0x00\n      dup1\n      revert\n    tag_14:\n      pop\n      tag_15\n      tag_16\n      jump\t// in\n    tag_15:\n      mload(0x40)\n      tag_17\n      swap2\n      swap1\n      tag_18\n      jump\t// in\n    tag_17:\n      mload(0x40)\n      dup1\n      swap2\n      sub\n      swap1\n      return\n        /* \"contracts/ClassWork/lottery.sol\":764:1358  function selectWinner() public{... */\n    tag_4:\n      callvalue\n      dup1\n      iszero\n      tag_19\n      jumpi\n      0x00\n      dup1\n      revert\n    tag_19:\n      pop\n      tag_20\n      tag_21\n      jump\t// in\n    tag_20:\n      stop\n        /* \"contracts/ClassWork/lottery.sol\":122:160  address payable [] public participants */\n    tag_5:\n      callvalue\n      dup1\n      iszero\n      tag_22\n      jumpi\n      0x00\n      dup1\n      revert\n    tag_22:\n      pop\n      tag_23\n      0x04\n      dup1\n      calldatasize\n      sub\n      dup2\n      add\n      swap1\n      tag_24\n      swap2\n      swap1\n      tag_25\n      jump\t// in\n    tag_24:\n      tag_26\n      jump\t// in\n    tag_23:\n      mload(0x40)\n      tag_27\n      swap2\n      swap1\n      tag_28\n      jump\t// in\n    tag_27:\n      mload(0x40)\n      dup1\n      swap2\n      sub\n      swap1\n      return\n        /* \"contracts/ClassWork/lottery.sol\":595:755  function Random() public view returns (uint )... */\n    tag_6:\n      callvalue\n      dup1\n      iszero\n      tag_29\n      jumpi\n      0x00\n      dup1\n      revert\n    tag_29:\n      pop\n      tag_30\n      tag_31\n      jump\t// in\n    tag_30:\n      mload(0x40)\n      tag_32\n      swap2\n      swap1\n      tag_18\n      jump\t// in\n    tag_32:\n      mload(0x40)\n      dup1\n      swap2\n      sub\n      swap1\n      return\n        /* \"contracts/ClassWork/lottery.sol\":167:188  address public vijeta */\n    tag_7:\n      callvalue\n      dup1\n      iszero\n      tag_33\n      jumpi\n      0x00\n      dup1\n      revert\n    tag_33:\n      pop\n      tag_34\n      tag_35\n      jump\t// in\n    tag_34:\n      mload(0x40)\n      tag_36\n      swap2\n      swap1\n      tag_37\n      jump\t// in\n    tag_36:\n      mload(0x40)\n      dup1\n      swap2\n      sub\n      swap1\n      return\n        /* \"contracts/ClassWork/lottery.sol\":420:586  function getBalance() public view returns(uint ){... */\n    tag_16:\n        /* \"contracts/ClassWork/lottery.sol\":462:466  uint */\n      0x00\n        /* \"contracts/ClassWork/lottery.sol\":496:506  msg.sender */\n      caller\n        /* \"contracts/ClassWork/lottery.sol\":487:506  manager==msg.sender */\n      0xffffffffffffffffffffffffffffffffffffffff\n      and\n        /* \"contracts/ClassWork/lottery.sol\":487:494  manager */\n      0x00\n      dup1\n      sload\n      swap1\n      0x0100\n      exp\n      swap1\n      div\n      0xffffffffffffffffffffffffffffffffffffffff\n      and\n        /* \"contracts/ClassWork/lottery.sol\":487:506  manager==msg.sender */\n      0xffffffffffffffffffffffffffffffffffffffff\n      and\n      eq\n        /* \"contracts/ClassWork/lottery.sol\":479:538  require(manager==msg.sender,\"ERROR ,YOU ARE NOT PERMITTED\") */\n      tag_39\n      jumpi\n      mload(0x40)\n      0x08c379a000000000000000000000000000000000000000000000000000000000\n      dup2\n      mstore\n      0x04\n      add\n      tag_40\n      swap1\n      tag_41\n      jump\t// in\n    tag_40:\n      mload(0x40)\n      dup1\n      swap2\n      sub\n      swap1\n      revert\n    tag_39:\n        /* \"contracts/ClassWork/lottery.sol\":556:577  address(this).balance */\n      selfbalance\n        /* \"contracts/ClassWork/lottery.sol\":549:577  return address(this).balance */\n      swap1\n      pop\n        /* \"contracts/ClassWork/lottery.sol\":420:586  function getBalance() public view returns(uint ){... */\n      swap1\n      jump\t// out\n        /* \"contracts/ClassWork/lottery.sol\":764:1358  function selectWinner() public{... */\n    tag_21:\n        /* \"contracts/ClassWork/lottery.sol\":824:834  msg.sender */\n      caller\n        /* \"contracts/ClassWork/lottery.sol\":813:834  manager == msg.sender */\n      0xffffffffffffffffffffffffffffffffffffffff\n      and\n        /* \"contracts/ClassWork/lottery.sol\":813:820  manager */\n      0x00\n      dup1\n      sload\n      swap1\n      0x0100\n      exp\n      swap1\n      div\n      0xffffffffffffffffffffffffffffffffffffffff\n      and\n        /* \"contracts/ClassWork/lottery.sol\":813:834  manager == msg.sender */\n      0xffffffffffffffffffffffffffffffffffffffff\n      and\n      eq\n        /* \"contracts/ClassWork/lottery.sol\":805:866  require(manager == msg.sender,\"ERROR ,YOU ARE NOT PERMITTED\") */\n      tag_43\n      jumpi\n      mload(0x40)\n      0x08c379a000000000000000000000000000000000000000000000000000000000\n      dup2\n      mstore\n      0x04\n      add\n      tag_44\n      swap1\n      tag_41\n      jump\t// in\n    tag_44:\n      mload(0x40)\n      dup1\n      swap2\n      sub\n      swap1\n      revert\n    tag_43:\n        /* \"contracts/ClassWork/lottery.sol\":906:907  3 */\n      0x03\n        /* \"contracts/ClassWork/lottery.sol\":885:897  participants */\n      0x01\n        /* \"contracts/ClassWork/lottery.sol\":885:904  participants.length */\n      dup1\n      sload\n      swap1\n      pop\n        /* \"contracts/ClassWork/lottery.sol\":885:907  participants.length>=3 */\n      lt\n      iszero\n        /* \"contracts/ClassWork/lottery.sol\":877:932  require(participants.length>=3,\"add more participants\") */\n      tag_45\n      jumpi\n      mload(0x40)\n      0x08c379a000000000000000000000000000000000000000000000000000000000\n      dup2\n      mstore\n      0x04\n      add\n      tag_46\n      swap1\n      tag_47\n      jump\t// in\n    tag_46:\n      mload(0x40)\n      dup1\n      swap2\n      sub\n      swap1\n      revert\n    tag_45:\n        /* \"contracts/ClassWork/lottery.sol\":943:965  address payable winner */\n      0x00\n        /* \"contracts/ClassWork/lottery.sol\":976:982  uint r */\n      dup1\n        /* \"contracts/ClassWork/lottery.sol\":983:991  Random() */\n      tag_48\n        /* \"contracts/ClassWork/lottery.sol\":983:989  Random */\n      tag_31\n        /* \"contracts/ClassWork/lottery.sol\":983:991  Random() */\n      jump\t// in\n    tag_48:\n        /* \"contracts/ClassWork/lottery.sol\":976:991  uint r=Random() */\n      swap1\n      pop\n        /* \"contracts/ClassWork/lottery.sol\":1002:1012  uint index */\n      0x00\n        /* \"contracts/ClassWork/lottery.sol\":1017:1029  participants */\n      0x01\n        /* \"contracts/ClassWork/lottery.sol\":1017:1036  participants.length */\n      dup1\n      sload\n      swap1\n      pop\n        /* \"contracts/ClassWork/lottery.sol\":1013:1014  r */\n      dup3\n        /* \"contracts/ClassWork/lottery.sol\":1013:1036  r % participants.length */\n      tag_49\n      swap2\n      swap1\n      tag_50\n      jump\t// in\n    tag_49:\n        /* \"contracts/ClassWork/lottery.sol\":1002:1036  uint index=r % participants.length */\n      swap1\n      pop\n        /* \"contracts/ClassWork/lottery.sol\":1054:1066  participants */\n      0x01\n        /* \"contracts/ClassWork/lottery.sol\":1067:1072  index */\n      dup2\n        /* \"contracts/ClassWork/lottery.sol\":1054:1073  participants[index] */\n      dup2\n      sload\n      dup2\n      lt\n      tag_51\n      jumpi\n      tag_52\n      tag_53\n      jump\t// in\n    tag_52:\n    tag_51:\n      swap1\n      0x00\n      mstore\n      keccak256(0x00, 0x20)\n      add\n      0x00\n      swap1\n      sload\n      swap1\n      0x0100\n      exp\n      swap1\n      div\n      0xffffffffffffffffffffffffffffffffffffffff\n      and\n        /* \"contracts/ClassWork/lottery.sol\":1047:1073  winner=participants[index] */\n      swap3\n      pop\n        /* \"contracts/ClassWork/lottery.sol\":1091:1097  winner */\n      dup3\n        /* \"contracts/ClassWork/lottery.sol\":1084:1090  vijeta */\n      0x02\n      0x00\n        /* \"contracts/ClassWork/lottery.sol\":1084:1097  vijeta=winner */\n      0x0100\n      exp\n      dup2\n      sload\n      dup2\n      0xffffffffffffffffffffffffffffffffffffffff\n      mul\n      not\n      and\n      swap1\n      dup4\n      0xffffffffffffffffffffffffffffffffffffffff\n      and\n      mul\n      or\n      swap1\n      sstore\n      pop\n        /* \"contracts/ClassWork/lottery.sol\":1108:1123  uint totalprice */\n      0x00\n        /* \"contracts/ClassWork/lottery.sol\":1124:1136  getBalance() */\n      tag_55\n        /* \"contracts/ClassWork/lottery.sol\":1124:1134  getBalance */\n      tag_16\n        /* \"contracts/ClassWork/lottery.sol\":1124:1136  getBalance() */\n      jump\t// in\n    tag_55:\n        /* \"contracts/ClassWork/lottery.sol\":1108:1136  uint totalprice=getBalance() */\n      swap1\n      pop\n        /* \"contracts/ClassWork/lottery.sol\":1147:1161  uint rewardcal */\n      0x00\n        /* \"contracts/ClassWork/lottery.sol\":1174:1176  10 */\n      0x0a\n        /* \"contracts/ClassWork/lottery.sol\":1163:1173  totalprice */\n      dup3\n        /* \"contracts/ClassWork/lottery.sol\":1163:1176  totalprice*10 */\n      tag_56\n      swap2\n      swap1\n      tag_57\n      jump\t// in\n    tag_56:\n        /* \"contracts/ClassWork/lottery.sol\":1147:1176  uint rewardcal =totalprice*10 */\n      swap1\n      pop\n        /* \"contracts/ClassWork/lottery.sol\":1187:1203  uint finalreward */\n      0x00\n        /* \"contracts/ClassWork/lottery.sol\":1215:1218  100 */\n      0x64\n        /* \"contracts/ClassWork/lottery.sol\":1205:1214  rewardcal */\n      dup3\n        /* \"contracts/ClassWork/lottery.sol\":1205:1218  rewardcal/100 */\n      tag_58\n      swap2\n      swap1\n      tag_59\n      jump\t// in\n    tag_58:\n        /* \"contracts/ClassWork/lottery.sol\":1187:1219  uint finalreward=(rewardcal/100) */\n      swap1\n      pop\n        /* \"contracts/ClassWork/lottery.sol\":1230:1237  manager */\n      0x00\n      dup1\n      sload\n      swap1\n      0x0100\n      exp\n      swap1\n      div\n      0xffffffffffffffffffffffffffffffffffffffff\n      and\n        /* \"contracts/ClassWork/lottery.sol\":1230:1246  manager.transfer */\n      0xffffffffffffffffffffffffffffffffffffffff\n      and\n        /* \"contracts/ClassWork/lottery.sol\":1230:1259  manager.transfer(finalreward) */\n      0x08fc\n        /* \"contracts/ClassWork/lottery.sol\":1247:1258  finalreward */\n      dup3\n        /* \"contracts/ClassWork/lottery.sol\":1230:1259  manager.transfer(finalreward) */\n      swap1\n      dup2\n      iszero\n      mul\n      swap1\n      mload(0x40)\n      0x00\n      mload(0x40)\n      dup1\n      dup4\n      sub\n      dup2\n      dup6\n      dup9\n      dup9\n      call\n      swap4\n      pop\n      pop\n      pop\n      pop\n      iszero\n      dup1\n      iszero\n      tag_61\n      jumpi\n      returndatasize\n      0x00\n      dup1\n      returndatacopy\n      revert(0x00, returndatasize)\n    tag_61:\n      pop\n        /* \"contracts/ClassWork/lottery.sol\":1270:1276  winner */\n      dup6\n        /* \"contracts/ClassWork/lottery.sol\":1270:1285  winner.transfer */\n      0xffffffffffffffffffffffffffffffffffffffff\n      and\n        /* \"contracts/ClassWork/lottery.sol\":1270:1299  winner.transfer(getBalance()) */\n      0x08fc\n        /* \"contracts/ClassWork/lottery.sol\":1286:1298  getBalance() */\n      tag_62\n        /* \"contracts/ClassWork/lottery.sol\":1286:1296  getBalance */\n      tag_16\n        /* \"contracts/ClassWork/lottery.sol\":1286:1298  getBalance() */\n      jump\t// in\n    tag_62:\n        /* \"contracts/ClassWork/lottery.sol\":1270:1299  winner.transfer(getBalance()) */\n      swap1\n      dup2\n      iszero\n      mul\n      swap1\n      mload(0x40)\n      0x00\n      mload(0x40)\n      dup1\n      dup4\n      sub\n      dup2\n      dup6\n      dup9\n      dup9\n      call\n      swap4\n      pop\n      pop\n      pop\n      pop\n      iszero\n      dup1\n      iszero\n      tag_64\n      jumpi\n      returndatasize\n      0x00\n      dup1\n      returndatacopy\n      revert(0x00, returndatasize)\n    tag_64:\n      pop\n        /* \"contracts/ClassWork/lottery.sol\":1347:1348  0 */\n      0x00\n        /* \"contracts/ClassWork/lottery.sol\":1324:1349  new address payable [](0) */\n      0xffffffffffffffff\n      dup2\n      gt\n      iszero\n      tag_65\n      jumpi\n      tag_66\n      tag_67\n      jump\t// in\n    tag_66:\n    tag_65:\n      mload(0x40)\n      swap1\n      dup1\n      dup3\n      mstore\n      dup1\n      0x20\n      mul\n      0x20\n      add\n      dup3\n      add\n      0x40\n      mstore\n      dup1\n      iszero\n      tag_68\n      jumpi\n      dup2\n      0x20\n      add\n      0x20\n      dup3\n      mul\n      dup1\n      calldatasize\n      dup4\n      calldatacopy\n      dup1\n      dup3\n      add\n      swap2\n      pop\n      pop\n      swap1\n      pop\n    tag_68:\n      pop\n        /* \"contracts/ClassWork/lottery.sol\":1311:1323  participants */\n      0x01\n        /* \"contracts/ClassWork/lottery.sol\":1311:1349  participants=new address payable [](0) */\n      swap1\n      dup1\n      mload\n      swap1\n      0x20\n      add\n      swap1\n      tag_69\n      swap3\n      swap2\n      swap1\n      tag_70\n      jump\t// in\n    tag_69:\n      pop\n        /* \"contracts/ClassWork/lottery.sol\":794:1358  {... */\n      pop\n      pop\n      pop\n      pop\n      pop\n      pop\n        /* \"contracts/ClassWork/lottery.sol\":764:1358  function selectWinner() public{... */\n      jump\t// out\n        /* \"contracts/ClassWork/lottery.sol\":122:160  address payable [] public participants */\n    tag_26:\n      0x01\n      dup2\n      dup2\n      sload\n      dup2\n      lt\n      tag_71\n      jumpi\n      0x00\n      dup1\n      revert\n    tag_71:\n      swap1\n      0x00\n      mstore\n      keccak256(0x00, 0x20)\n      add\n      0x00\n      swap2\n      pop\n      sload\n      swap1\n      0x0100\n      exp\n      swap1\n      div\n      0xffffffffffffffffffffffffffffffffffffffff\n      and\n      dup2\n      jump\t// out\n        /* \"contracts/ClassWork/lottery.sol\":595:755  function Random() public view returns (uint )... */\n    tag_31:\n        /* \"contracts/ClassWork/lottery.sol\":634:638  uint */\n      0x00\n        /* \"contracts/ClassWork/lottery.sol\":691:707  block.difficulty */\n      prevrandao\n        /* \"contracts/ClassWork/lottery.sol\":708:723  block.timestamp */\n      timestamp\n        /* \"contracts/ClassWork/lottery.sol\":724:736  participants */\n      0x01\n        /* \"contracts/ClassWork/lottery.sol\":724:743  participants.length */\n      dup1\n      sload\n      swap1\n      pop\n        /* \"contracts/ClassWork/lottery.sol\":680:744  abi.encode(block.difficulty,block.timestamp,participants.length) */\n      add(0x20, mload(0x40))\n      tag_74\n      swap4\n      swap3\n      swap2\n      swap1\n      tag_75\n      jump\t// in\n    tag_74:\n      mload(0x40)\n      0x20\n      dup2\n      dup4\n      sub\n      sub\n      dup2\n      mstore\n      swap1\n      0x40\n      mstore\n        /* \"contracts/ClassWork/lottery.sol\":670:745  keccak256(abi.encode(block.difficulty,block.timestamp,participants.length)) */\n      dup1\n      mload\n      swap1\n      0x20\n      add\n      keccak256\n        /* \"contracts/ClassWork/lottery.sol\":665:746  uint(keccak256(abi.encode(block.difficulty,block.timestamp,participants.length))) */\n      0x00\n      shr\n        /* \"contracts/ClassWork/lottery.sol\":658:746  return uint(keccak256(abi.encode(block.difficulty,block.timestamp,participants.length))) */\n      swap1\n      pop\n        /* \"contracts/ClassWork/lottery.sol\":595:755  function Random() public view returns (uint )... */\n      swap1\n      jump\t// out\n        /* \"contracts/ClassWork/lottery.sol\":167:188  address public vijeta */\n    tag_35:\n      0x02\n      0x00\n      swap1\n      sload\n      swap1\n      0x0100\n      exp\n      swap1\n      div\n      0xffffffffffffffffffffffffffffffffffffffff\n      and\n      dup2\n      jump\t// out\n    tag_70:\n      dup3\n      dup1\n      sload\n      dup3\n      dup3\n      sstore\n      swap1\n      0x00\n      mstore\n      keccak256(0x00, 0x20)\n      swap1\n      dup2\n      add\n      swap3\n      dup3\n      iszero\n      tag_76\n      jumpi\n      swap2\n      0x20\n      mul\n      dup3\n      add\n    tag_77:\n      dup3\n      dup2\n      gt\n      iszero\n      tag_78\n      jumpi\n      dup3\n      mload\n      dup3\n      exp(0x0100, 0x00)\n      dup2\n      sload\n      dup2\n      0xffffffffffffffffffffffffffffffffffffffff\n      mul\n      not\n      and\n      swap1\n      dup4\n      0xffffffffffffffffffffffffffffffffffffffff\n      and\n      mul\n      or\n      swap1\n      sstore\n      pop\n      swap2\n      0x20\n      add\n      swap2\n      swap1\n      0x01\n      add\n      swap1\n      jump(tag_77)\n    tag_78:\n    tag_76:\n      pop\n      swap1\n      pop\n      tag_79\n      swap2\n      swap1\n      tag_80\n      jump\t// in\n    tag_79:\n      pop\n      swap1\n      jump\t// out\n    tag_80:\n    tag_81:\n      dup1\n      dup3\n      gt\n      iszero\n      tag_82\n      jumpi\n      0x00\n      dup2\n      0x00\n      swap1\n      sstore\n      pop\n      0x01\n      add\n      jump(tag_81)\n    tag_82:\n      pop\n      swap1\n      jump\t// out\n        /* \"#utility.yul\":7:176   */\n    tag_83:\n        /* \"#utility.yul\":91:102   */\n      0x00\n        /* \"#utility.yul\":125:131   */\n      dup3\n        /* \"#utility.yul\":120:123   */\n      dup3\n        /* \"#utility.yul\":113:132   */\n      mstore\n        /* \"#utility.yul\":165:169   */\n      0x20\n        /* \"#utility.yul\":160:163   */\n      dup3\n        /* \"#utility.yul\":156:170   */\n      add\n        /* \"#utility.yul\":141:170   */\n      swap1\n      pop\n        /* \"#utility.yul\":7:176   */\n      swap3\n      swap2\n      pop\n      pop\n      jump\t// out\n        /* \"#utility.yul\":182:351   */\n    tag_84:\n        /* \"#utility.yul\":322:343   */\n      0x706c656173652067697665203120657468657200000000000000000000000000\n        /* \"#utility.yul\":318:319   */\n      0x00\n        /* \"#utility.yul\":310:316   */\n      dup3\n        /* \"#utility.yul\":306:320   */\n      add\n        /* \"#utility.yul\":299:344   */\n      mstore\n        /* \"#utility.yul\":182:351   */\n      pop\n      jump\t// out\n        /* \"#utility.yul\":357:723   */\n    tag_85:\n        /* \"#utility.yul\":499:502   */\n      0x00\n        /* \"#utility.yul\":520:587   */\n      tag_108\n        /* \"#utility.yul\":584:586   */\n      0x13\n        /* \"#utility.yul\":579:582   */\n      dup4\n        /* \"#utility.yul\":520:587   */\n      tag_83\n      jump\t// in\n    tag_108:\n        /* \"#utility.yul\":513:587   */\n      swap2\n      pop\n        /* \"#utility.yul\":596:689   */\n      tag_109\n        /* \"#utility.yul\":685:688   */\n      dup3\n        /* \"#utility.yul\":596:689   */\n      tag_84\n      jump\t// in\n    tag_109:\n        /* \"#utility.yul\":714:716   */\n      0x20\n        /* \"#utility.yul\":709:712   */\n      dup3\n        /* \"#utility.yul\":705:717   */\n      add\n        /* \"#utility.yul\":698:717   */\n      swap1\n      pop\n        /* \"#utility.yul\":357:723   */\n      swap2\n      swap1\n      pop\n      jump\t// out\n        /* \"#utility.yul\":729:1148   */\n    tag_12:\n        /* \"#utility.yul\":895:899   */\n      0x00\n        /* \"#utility.yul\":933:935   */\n      0x20\n        /* \"#utility.yul\":922:931   */\n      dup3\n        /* \"#utility.yul\":918:936   */\n      add\n        /* \"#utility.yul\":910:936   */\n      swap1\n      pop\n        /* \"#utility.yul\":982:991   */\n      dup2\n        /* \"#utility.yul\":976:980   */\n      dup2\n        /* \"#utility.yul\":972:992   */\n      sub\n        /* \"#utility.yul\":968:969   */\n      0x00\n        /* \"#utility.yul\":957:966   */\n      dup4\n        /* \"#utility.yul\":953:970   */\n      add\n        /* \"#utility.yul\":946:993   */\n      mstore\n        /* \"#utility.yul\":1010:1141   */\n      tag_111\n        /* \"#utility.yul\":1136:1140   */\n      dup2\n        /* \"#utility.yul\":1010:1141   */\n      tag_85\n      jump\t// in\n    tag_111:\n        /* \"#utility.yul\":1002:1141   */\n      swap1\n      pop\n        /* \"#utility.yul\":729:1148   */\n      swap2\n      swap1\n      pop\n      jump\t// out\n        /* \"#utility.yul\":1154:1231   */\n    tag_86:\n        /* \"#utility.yul\":1191:1198   */\n      0x00\n        /* \"#utility.yul\":1220:1225   */\n      dup2\n        /* \"#utility.yul\":1209:1225   */\n      swap1\n      pop\n        /* \"#utility.yul\":1154:1231   */\n      swap2\n      swap1\n      pop\n      jump\t// out\n        /* \"#utility.yul\":1237:1355   */\n    tag_87:\n        /* \"#utility.yul\":1324:1348   */\n      tag_114\n        /* \"#utility.yul\":1342:1347   */\n      dup2\n        /* \"#utility.yul\":1324:1348   */\n      tag_86\n      jump\t// in\n    tag_114:\n        /* \"#utility.yul\":1319:1322   */\n      dup3\n        /* \"#utility.yul\":1312:1349   */\n      mstore\n        /* \"#utility.yul\":1237:1355   */\n      pop\n      pop\n      jump\t// out\n        /* \"#utility.yul\":1361:1583   */\n    tag_18:\n        /* \"#utility.yul\":1454:1458   */\n      0x00\n        /* \"#utility.yul\":1492:1494   */\n      0x20\n        /* \"#utility.yul\":1481:1490   */\n      dup3\n        /* \"#utility.yul\":1477:1495   */\n      add\n        /* \"#utility.yul\":1469:1495   */\n      swap1\n      pop\n        /* \"#utility.yul\":1505:1576   */\n      tag_116\n        /* \"#utility.yul\":1573:1574   */\n      0x00\n        /* \"#utility.yul\":1562:1571   */\n      dup4\n        /* \"#utility.yul\":1558:1575   */\n      add\n        /* \"#utility.yul\":1549:1555   */\n      dup5\n        /* \"#utility.yul\":1505:1576   */\n      tag_87\n      jump\t// in\n    tag_116:\n        /* \"#utility.yul\":1361:1583   */\n      swap3\n      swap2\n      pop\n      pop\n      jump\t// out\n        /* \"#utility.yul\":1670:1787   */\n    tag_89:\n        /* \"#utility.yul\":1779:1780   */\n      0x00\n        /* \"#utility.yul\":1776:1777   */\n      dup1\n        /* \"#utility.yul\":1769:1781   */\n      revert\n        /* \"#utility.yul\":1916:2038   */\n    tag_91:\n        /* \"#utility.yul\":1989:2013   */\n      tag_121\n        /* \"#utility.yul\":2007:2012   */\n      dup2\n        /* \"#utility.yul\":1989:2013   */\n      tag_86\n      jump\t// in\n    tag_121:\n        /* \"#utility.yul\":1982:1987   */\n      dup2\n        /* \"#utility.yul\":1979:2014   */\n      eq\n        /* \"#utility.yul\":1969:2032   */\n      tag_122\n      jumpi\n        /* \"#utility.yul\":2028:2029   */\n      0x00\n        /* \"#utility.yul\":2025:2026   */\n      dup1\n        /* \"#utility.yul\":2018:2030   */\n      revert\n        /* \"#utility.yul\":1969:2032   */\n    tag_122:\n        /* \"#utility.yul\":1916:2038   */\n      pop\n      jump\t// out\n        /* \"#utility.yul\":2044:2183   */\n    tag_92:\n        /* \"#utility.yul\":2090:2095   */\n      0x00\n        /* \"#utility.yul\":2128:2134   */\n      dup2\n        /* \"#utility.yul\":2115:2135   */\n      calldataload\n        /* \"#utility.yul\":2106:2135   */\n      swap1\n      pop\n        /* \"#utility.yul\":2144:2177   */\n      tag_124\n        /* \"#utility.yul\":2171:2176   */\n      dup2\n        /* \"#utility.yul\":2144:2177   */\n      tag_91\n      jump\t// in\n    tag_124:\n        /* \"#utility.yul\":2044:2183   */\n      swap3\n      swap2\n      pop\n      pop\n      jump\t// out\n        /* \"#utility.yul\":2189:2518   */\n    tag_25:\n        /* \"#utility.yul\":2248:2254   */\n      0x00\n        /* \"#utility.yul\":2297:2299   */\n      0x20\n        /* \"#utility.yul\":2285:2294   */\n      dup3\n        /* \"#utility.yul\":2276:2283   */\n      dup5\n        /* \"#utility.yul\":2272:2295   */\n      sub\n        /* \"#utility.yul\":2268:2300   */\n      slt\n        /* \"#utility.yul\":2265:2384   */\n      iszero\n      tag_126\n      jumpi\n        /* \"#utility.yul\":2303:2382   */\n      tag_127\n      tag_89\n      jump\t// in\n    tag_127:\n        /* \"#utility.yul\":2265:2384   */\n    tag_126:\n        /* \"#utility.yul\":2423:2424   */\n      0x00\n        /* \"#utility.yul\":2448:2501   */\n      tag_128\n        /* \"#utility.yul\":2493:2500   */\n      dup5\n        /* \"#utility.yul\":2484:2490   */\n      dup3\n        /* \"#utility.yul\":2473:2482   */\n      dup6\n        /* \"#utility.yul\":2469:2491   */\n      add\n        /* \"#utility.yul\":2448:2501   */\n      tag_92\n      jump\t// in\n    tag_128:\n        /* \"#utility.yul\":2438:2501   */\n      swap2\n      pop\n        /* \"#utility.yul\":2394:2511   */\n      pop\n        /* \"#utility.yul\":2189:2518   */\n      swap3\n      swap2\n      pop\n      pop\n      jump\t// out\n        /* \"#utility.yul\":2524:2650   */\n    tag_93:\n        /* \"#utility.yul\":2561:2568   */\n      0x00\n        /* \"#utility.yul\":2601:2643   */\n      0xffffffffffffffffffffffffffffffffffffffff\n        /* \"#utility.yul\":2594:2599   */\n      dup3\n        /* \"#utility.yul\":2590:2644   */\n      and\n        /* \"#utility.yul\":2579:2644   */\n      swap1\n      pop\n        /* \"#utility.yul\":2524:2650   */\n      swap2\n      swap1\n      pop\n      jump\t// out\n        /* \"#utility.yul\":2656:2760   */\n    tag_94:\n        /* \"#utility.yul\":2701:2708   */\n      0x00\n        /* \"#utility.yul\":2730:2754   */\n      tag_131\n        /* \"#utility.yul\":2748:2753   */\n      dup3\n        /* \"#utility.yul\":2730:2754   */\n      tag_93\n      jump\t// in\n    tag_131:\n        /* \"#utility.yul\":2719:2754   */\n      swap1\n      pop\n        /* \"#utility.yul\":2656:2760   */\n      swap2\n      swap1\n      pop\n      jump\t// out\n        /* \"#utility.yul\":2766:2908   */\n    tag_95:\n        /* \"#utility.yul\":2869:2901   */\n      tag_133\n        /* \"#utility.yul\":2895:2900   */\n      dup2\n        /* \"#utility.yul\":2869:2901   */\n      tag_94\n      jump\t// in\n    tag_133:\n        /* \"#utility.yul\":2864:2867   */\n      dup3\n        /* \"#utility.yul\":2857:2902   */\n      mstore\n        /* \"#utility.yul\":2766:2908   */\n      pop\n      pop\n      jump\t// out\n        /* \"#utility.yul\":2914:3168   */\n    tag_28:\n        /* \"#utility.yul\":3023:3027   */\n      0x00\n        /* \"#utility.yul\":3061:3063   */\n      0x20\n        /* \"#utility.yul\":3050:3059   */\n      dup3\n        /* \"#utility.yul\":3046:3064   */\n      add\n        /* \"#utility.yul\":3038:3064   */\n      swap1\n      pop\n        /* \"#utility.yul\":3074:3161   */\n      tag_135\n        /* \"#utility.yul\":3158:3159   */\n      0x00\n        /* \"#utility.yul\":3147:3156   */\n      dup4\n        /* \"#utility.yul\":3143:3160   */\n      add\n        /* \"#utility.yul\":3134:3140   */\n      dup5\n        /* \"#utility.yul\":3074:3161   */\n      tag_95\n      jump\t// in\n    tag_135:\n        /* \"#utility.yul\":2914:3168   */\n      swap3\n      swap2\n      pop\n      pop\n      jump\t// out\n        /* \"#utility.yul\":3174:3270   */\n    tag_96:\n        /* \"#utility.yul\":3211:3218   */\n      0x00\n        /* \"#utility.yul\":3240:3264   */\n      tag_137\n        /* \"#utility.yul\":3258:3263   */\n      dup3\n        /* \"#utility.yul\":3240:3264   */\n      tag_93\n      jump\t// in\n    tag_137:\n        /* \"#utility.yul\":3229:3264   */\n      swap1\n      pop\n        /* \"#utility.yul\":3174:3270   */\n      swap2\n      swap1\n      pop\n      jump\t// out\n        /* \"#utility.yul\":3276:3394   */\n    tag_97:\n        /* \"#utility.yul\":3363:3387   */\n      tag_139\n        /* \"#utility.yul\":3381:3386   */\n      dup2\n        /* \"#utility.yul\":3363:3387   */\n      tag_96\n      jump\t// in\n    tag_139:\n        /* \"#utility.yul\":3358:3361   */\n      dup3\n        /* \"#utility.yul\":3351:3388   */\n      mstore\n        /* \"#utility.yul\":3276:3394   */\n      pop\n      pop\n      jump\t// out\n        /* \"#utility.yul\":3400:3622   */\n    tag_37:\n        /* \"#utility.yul\":3493:3497   */\n      0x00\n        /* \"#utility.yul\":3531:3533   */\n      0x20\n        /* \"#utility.yul\":3520:3529   */\n      dup3\n        /* \"#utility.yul\":3516:3534   */\n      add\n        /* \"#utility.yul\":3508:3534   */\n      swap1\n      pop\n        /* \"#utility.yul\":3544:3615   */\n      tag_141\n        /* \"#utility.yul\":3612:3613   */\n      0x00\n        /* \"#utility.yul\":3601:3610   */\n      dup4\n        /* \"#utility.yul\":3597:3614   */\n      add\n        /* \"#utility.yul\":3588:3594   */\n      dup5\n        /* \"#utility.yul\":3544:3615   */\n      tag_97\n      jump\t// in\n    tag_141:\n        /* \"#utility.yul\":3400:3622   */\n      swap3\n      swap2\n      pop\n      pop\n      jump\t// out\n        /* \"#utility.yul\":3628:3806   */\n    tag_98:\n        /* \"#utility.yul\":3768:3798   */\n      0x4552524f52202c594f5520415245204e4f54205045524d495454454400000000\n        /* \"#utility.yul\":3764:3765   */\n      0x00\n        /* \"#utility.yul\":3756:3762   */\n      dup3\n        /* \"#utility.yul\":3752:3766   */\n      add\n        /* \"#utility.yul\":3745:3799   */\n      mstore\n        /* \"#utility.yul\":3628:3806   */\n      pop\n      jump\t// out\n        /* \"#utility.yul\":3812:4178   */\n    tag_99:\n        /* \"#utility.yul\":3954:3957   */\n      0x00\n        /* \"#utility.yul\":3975:4042   */\n      tag_144\n        /* \"#utility.yul\":4039:4041   */\n      0x1c\n        /* \"#utility.yul\":4034:4037   */\n      dup4\n        /* \"#utility.yul\":3975:4042   */\n      tag_83\n      jump\t// in\n    tag_144:\n        /* \"#utility.yul\":3968:4042   */\n      swap2\n      pop\n        /* \"#utility.yul\":4051:4144   */\n      tag_145\n        /* \"#utility.yul\":4140:4143   */\n      dup3\n        /* \"#utility.yul\":4051:4144   */\n      tag_98\n      jump\t// in\n    tag_145:\n        /* \"#utility.yul\":4169:4171   */\n      0x20\n        /* \"#utility.yul\":4164:4167   */\n      dup3\n        /* \"#utility.yul\":4160:4172   */\n      add\n        /* \"#utility.yul\":4153:4172   */\n      swap1\n      pop\n        /* \"#utility.yul\":3812:4178   */\n      swap2\n      swap1\n      pop\n      jump\t// out\n        /* \"#utility.yul\":4184:4603   */\n    tag_41:\n        /* \"#utility.yul\":4350:4354   */\n      0x00\n        /* \"#utility.yul\":4388:4390   */\n      0x20\n        /* \"#utility.yul\":4377:4386   */\n      dup3\n        /* \"#utility.yul\":4373:4391   */\n      add\n        /* \"#utility.yul\":4365:4391   */\n      swap1\n      pop\n        /* \"#utility.yul\":4437:4446   */\n      dup2\n        /* \"#utility.yul\":4431:4435   */\n      dup2\n        /* \"#utility.yul\":4427:4447   */\n      sub\n        /* \"#utility.yul\":4423:4424   */\n      0x00\n        /* \"#utility.yul\":4412:4421   */\n      dup4\n        /* \"#utility.yul\":4408:4425   */\n      add\n        /* \"#utility.yul\":4401:4448   */\n      mstore\n        /* \"#utility.yul\":4465:4596   */\n      tag_147\n        /* \"#utility.yul\":4591:4595   */\n      dup2\n        /* \"#utility.yul\":4465:4596   */\n      tag_99\n      jump\t// in\n    tag_147:\n        /* \"#utility.yul\":4457:4596   */\n      swap1\n      pop\n        /* \"#utility.yul\":4184:4603   */\n      swap2\n      swap1\n      pop\n      jump\t// out\n        /* \"#utility.yul\":4609:4780   */\n    tag_100:\n        /* \"#utility.yul\":4749:4772   */\n      0x616464206d6f7265207061727469636970616e74730000000000000000000000\n        /* \"#utility.yul\":4745:4746   */\n      0x00\n        /* \"#utility.yul\":4737:4743   */\n      dup3\n        /* \"#utility.yul\":4733:4747   */\n      add\n        /* \"#utility.yul\":4726:4773   */\n      mstore\n        /* \"#utility.yul\":4609:4780   */\n      pop\n      jump\t// out\n        /* \"#utility.yul\":4786:5152   */\n    tag_101:\n        /* \"#utility.yul\":4928:4931   */\n      0x00\n        /* \"#utility.yul\":4949:5016   */\n      tag_150\n        /* \"#utility.yul\":5013:5015   */\n      0x15\n        /* \"#utility.yul\":5008:5011   */\n      dup4\n        /* \"#utility.yul\":4949:5016   */\n      tag_83\n      jump\t// in\n    tag_150:\n        /* \"#utility.yul\":4942:5016   */\n      swap2\n      pop\n        /* \"#utility.yul\":5025:5118   */\n      tag_151\n        /* \"#utility.yul\":5114:5117   */\n      dup3\n        /* \"#utility.yul\":5025:5118   */\n      tag_100\n      jump\t// in\n    tag_151:\n        /* \"#utility.yul\":5143:5145   */\n      0x20\n        /* \"#utility.yul\":5138:5141   */\n      dup3\n        /* \"#utility.yul\":5134:5146   */\n      add\n        /* \"#utility.yul\":5127:5146   */\n      swap1\n      pop\n        /* \"#utility.yul\":4786:5152   */\n      swap2\n      swap1\n      pop\n      jump\t// out\n        /* \"#utility.yul\":5158:5577   */\n    tag_47:\n        /* \"#utility.yul\":5324:5328   */\n      0x00\n        /* \"#utility.yul\":5362:5364   */\n      0x20\n        /* \"#utility.yul\":5351:5360   */\n      dup3\n        /* \"#utility.yul\":5347:5365   */\n      add\n        /* \"#utility.yul\":5339:5365   */\n      swap1\n      pop\n        /* \"#utility.yul\":5411:5420   */\n      dup2\n        /* \"#utility.yul\":5405:5409   */\n      dup2\n        /* \"#utility.yul\":5401:5421   */\n      sub\n        /* \"#utility.yul\":5397:5398   */\n      0x00\n        /* \"#utility.yul\":5386:5395   */\n      dup4\n        /* \"#utility.yul\":5382:5399   */\n      add\n        /* \"#utility.yul\":5375:5422   */\n      mstore\n        /* \"#utility.yul\":5439:5570   */\n      tag_153\n        /* \"#utility.yul\":5565:5569   */\n      dup2\n        /* \"#utility.yul\":5439:5570   */\n      tag_101\n      jump\t// in\n    tag_153:\n        /* \"#utility.yul\":5431:5570   */\n      swap1\n      pop\n        /* \"#utility.yul\":5158:5577   */\n      swap2\n      swap1\n      pop\n      jump\t// out\n        /* \"#utility.yul\":5583:5763   */\n    tag_102:\n        /* \"#utility.yul\":5631:5708   */\n      0x4e487b7100000000000000000000000000000000000000000000000000000000\n        /* \"#utility.yul\":5628:5629   */\n      0x00\n        /* \"#utility.yul\":5621:5709   */\n      mstore\n        /* \"#utility.yul\":5728:5732   */\n      0x12\n        /* \"#utility.yul\":5725:5726   */\n      0x04\n        /* \"#utility.yul\":5718:5733   */\n      mstore\n        /* \"#utility.yul\":5752:5756   */\n      0x24\n        /* \"#utility.yul\":5749:5750   */\n      0x00\n        /* \"#utility.yul\":5742:5757   */\n      revert\n        /* \"#utility.yul\":5769:5945   */\n    tag_50:\n        /* \"#utility.yul\":5801:5802   */\n      0x00\n        /* \"#utility.yul\":5818:5838   */\n      tag_156\n        /* \"#utility.yul\":5836:5837   */\n      dup3\n        /* \"#utility.yul\":5818:5838   */\n      tag_86\n      jump\t// in\n    tag_156:\n        /* \"#utility.yul\":5813:5838   */\n      swap2\n      pop\n        /* \"#utility.yul\":5852:5872   */\n      tag_157\n        /* \"#utility.yul\":5870:5871   */\n      dup4\n        /* \"#utility.yul\":5852:5872   */\n      tag_86\n      jump\t// in\n    tag_157:\n        /* \"#utility.yul\":5847:5872   */\n      swap3\n      pop\n        /* \"#utility.yul\":5891:5892   */\n      dup3\n        /* \"#utility.yul\":5881:5916   */\n      tag_158\n      jumpi\n        /* \"#utility.yul\":5896:5914   */\n      tag_159\n      tag_102\n      jump\t// in\n    tag_159:\n        /* \"#utility.yul\":5881:5916   */\n    tag_158:\n        /* \"#utility.yul\":5937:5938   */\n      dup3\n        /* \"#utility.yul\":5934:5935   */\n      dup3\n        /* \"#utility.yul\":5930:5939   */\n      mod\n        /* \"#utility.yul\":5925:5939   */\n      swap1\n      pop\n        /* \"#utility.yul\":5769:5945   */\n      swap3\n      swap2\n      pop\n      pop\n      jump\t// out\n        /* \"#utility.yul\":5951:6131   */\n    tag_53:\n        /* \"#utility.yul\":5999:6076   */\n      0x4e487b7100000000000000000000000000000000000000000000000000000000\n        /* \"#utility.yul\":5996:5997   */\n      0x00\n        /* \"#utility.yul\":5989:6077   */\n      mstore\n        /* \"#utility.yul\":6096:6100   */\n      0x32\n        /* \"#utility.yul\":6093:6094   */\n      0x04\n        /* \"#utility.yul\":6086:6101   */\n      mstore\n        /* \"#utility.yul\":6120:6124   */\n      0x24\n        /* \"#utility.yul\":6117:6118   */\n      0x00\n        /* \"#utility.yul\":6110:6125   */\n      revert\n        /* \"#utility.yul\":6137:6317   */\n    tag_103:\n        /* \"#utility.yul\":6185:6262   */\n      0x4e487b7100000000000000000000000000000000000000000000000000000000\n        /* \"#utility.yul\":6182:6183   */\n      0x00\n        /* \"#utility.yul\":6175:6263   */\n      mstore\n        /* \"#utility.yul\":6282:6286   */\n      0x11\n        /* \"#utility.yul\":6279:6280   */\n      0x04\n        /* \"#utility.yul\":6272:6287   */\n      mstore\n        /* \"#utility.yul\":6306:6310   */\n      0x24\n        /* \"#utility.yul\":6303:6304   */\n      0x00\n        /* \"#utility.yul\":6296:6311   */\n      revert\n        /* \"#utility.yul\":6323:6733   */\n    tag_57:\n        /* \"#utility.yul\":6363:6370   */\n      0x00\n        /* \"#utility.yul\":6386:6406   */\n      tag_163\n        /* \"#utility.yul\":6404:6405   */\n      dup3\n        /* \"#utility.yul\":6386:6406   */\n      tag_86\n      jump\t// in\n    tag_163:\n        /* \"#utility.yul\":6381:6406   */\n      swap2\n      pop\n        /* \"#utility.yul\":6420:6440   */\n      tag_164\n        /* \"#utility.yul\":6438:6439   */\n      dup4\n        /* \"#utility.yul\":6420:6440   */\n      tag_86\n      jump\t// in\n    tag_164:\n        /* \"#utility.yul\":6415:6440   */\n      swap3\n      pop\n        /* \"#utility.yul\":6475:6476   */\n      dup3\n        /* \"#utility.yul\":6472:6473   */\n      dup3\n        /* \"#utility.yul\":6468:6477   */\n      mul\n        /* \"#utility.yul\":6497:6527   */\n      tag_165\n        /* \"#utility.yul\":6515:6526   */\n      dup2\n        /* \"#utility.yul\":6497:6527   */\n      tag_86\n      jump\t// in\n    tag_165:\n        /* \"#utility.yul\":6486:6527   */\n      swap2\n      pop\n        /* \"#utility.yul\":6676:6677   */\n      dup3\n        /* \"#utility.yul\":6667:6674   */\n      dup3\n        /* \"#utility.yul\":6663:6678   */\n      div\n        /* \"#utility.yul\":6660:6661   */\n      dup5\n        /* \"#utility.yul\":6657:6679   */\n      eq\n        /* \"#utility.yul\":6637:6638   */\n      dup4\n        /* \"#utility.yul\":6630:6639   */\n      iszero\n        /* \"#utility.yul\":6610:6693   */\n      or\n        /* \"#utility.yul\":6587:6726   */\n      tag_166\n      jumpi\n        /* \"#utility.yul\":6706:6724   */\n      tag_167\n      tag_103\n      jump\t// in\n    tag_167:\n        /* \"#utility.yul\":6587:6726   */\n    tag_166:\n        /* \"#utility.yul\":6371:6733   */\n      pop\n        /* \"#utility.yul\":6323:6733   */\n      swap3\n      swap2\n      pop\n      pop\n      jump\t// out\n        /* \"#utility.yul\":6739:6924   */\n    tag_59:\n        /* \"#utility.yul\":6779:6780   */\n      0x00\n        /* \"#utility.yul\":6796:6816   */\n      tag_169\n        /* \"#utility.yul\":6814:6815   */\n      dup3\n        /* \"#utility.yul\":6796:6816   */\n      tag_86\n      jump\t// in\n    tag_169:\n        /* \"#utility.yul\":6791:6816   */\n      swap2\n      pop\n        /* \"#utility.yul\":6830:6850   */\n      tag_170\n        /* \"#utility.yul\":6848:6849   */\n      dup4\n        /* \"#utility.yul\":6830:6850   */\n      tag_86\n      jump\t// in\n    tag_170:\n        /* \"#utility.yul\":6825:6850   */\n      swap3\n      pop\n        /* \"#utility.yul\":6869:6870   */\n      dup3\n        /* \"#utility.yul\":6859:6894   */\n      tag_171\n      jumpi\n        /* \"#utility.yul\":6874:6892   */\n      tag_172\n      tag_102\n      jump\t// in\n    tag_172:\n        /* \"#utility.yul\":6859:6894   */\n    tag_171:\n        /* \"#utility.yul\":6916:6917   */\n      dup3\n        /* \"#utility.yul\":6913:6914   */\n      dup3\n        /* \"#utility.yul\":6909:6918   */\n      div\n        /* \"#utility.yul\":6904:6918   */\n      swap1\n      pop\n        /* \"#utility.yul\":6739:6924   */\n      swap3\n      swap2\n      pop\n      pop\n      jump\t// out\n        /* \"#utility.yul\":6930:7110   */\n    tag_67:\n        /* \"#utility.yul\":6978:7055   */\n      0x4e487b7100000000000000000000000000000000000000000000000000000000\n        /* \"#utility.yul\":6975:6976   */\n      0x00\n        /* \"#utility.yul\":6968:7056   */\n      mstore\n        /* \"#utility.yul\":7075:7079   */\n      0x41\n        /* \"#utility.yul\":7072:7073   */\n      0x04\n        /* \"#utility.yul\":7065:7080   */\n      mstore\n        /* \"#utility.yul\":7099:7103   */\n      0x24\n        /* \"#utility.yul\":7096:7097   */\n      0x00\n        /* \"#utility.yul\":7089:7104   */\n      revert\n        /* \"#utility.yul\":7116:7558   */\n    tag_75:\n        /* \"#utility.yul\":7265:7269   */\n      0x00\n        /* \"#utility.yul\":7303:7305   */\n      0x60\n        /* \"#utility.yul\":7292:7301   */\n      dup3\n        /* \"#utility.yul\":7288:7306   */\n      add\n        /* \"#utility.yul\":7280:7306   */\n      swap1\n      pop\n        /* \"#utility.yul\":7316:7387   */\n      tag_175\n        /* \"#utility.yul\":7384:7385   */\n      0x00\n        /* \"#utility.yul\":7373:7382   */\n      dup4\n        /* \"#utility.yul\":7369:7386   */\n      add\n        /* \"#utility.yul\":7360:7366   */\n      dup7\n        /* \"#utility.yul\":7316:7387   */\n      tag_87\n      jump\t// in\n    tag_175:\n        /* \"#utility.yul\":7397:7469   */\n      tag_176\n        /* \"#utility.yul\":7465:7467   */\n      0x20\n        /* \"#utility.yul\":7454:7463   */\n      dup4\n        /* \"#utility.yul\":7450:7468   */\n      add\n        /* \"#utility.yul\":7441:7447   */\n      dup6\n        /* \"#utility.yul\":7397:7469   */\n      tag_87\n      jump\t// in\n    tag_176:\n        /* \"#utility.yul\":7479:7551   */\n      tag_177\n        /* \"#utility.yul\":7547:7549   */\n      0x40\n        /* \"#utility.yul\":7536:7545   */\n      dup4\n        /* \"#utility.yul\":7532:7550   */\n      add\n        /* \"#utility.yul\":7523:7529   */\n      dup5\n        /* \"#utility.yul\":7479:7551   */\n      tag_87\n      jump\t// in\n    tag_177:\n        /* \"#utility.yul\":7116:7558   */\n      swap5\n      swap4\n      pop\n      pop\n      pop\n      pop\n      jump\t// out\n\n    auxdata: 0xa2646970667358221220a11c93a5be24a794574d01a94f031b4616a19a5ec67737f87a13829a58dac6fc64736f6c63430008180033\n}\n",
				"bytecode": {
					"linkReferences": {},
					"object": "608060405234801561000f575f80fd5b50335f806101000a81548173ffffffffffffffffffffffffffffffffffffffff021916908373ffffffffffffffffffffffffffffffffffffffff160217905550610a768061005c5f395ff3fe60806040526004361061004d575f3560e01c806312065fe01461010157806333a99e041461012b57806335c1d34914610141578063604a6fa91461017d578063bd185f82146101a7576100fd565b366100fd57670de0b6b3a7640000341461009c576040517f08c379a0000000000000000000000000000000000000000000000000000000008152600401610093906106ad565b60405180910390fd5b600133908060018154018082558091505060019003905f5260205f20015f9091909190916101000a81548173ffffffffffffffffffffffffffffffffffffffff021916908373ffffffffffffffffffffffffffffffffffffffff1602179055005b5f80fd5b34801561010c575f80fd5b506101156101d1565b60405161012291906106e3565b60405180910390f35b348015610136575f80fd5b5061013f610265565b005b34801561014c575f80fd5b506101676004803603810190610162919061072a565b610519565b6040516101749190610794565b60405180910390f35b348015610188575f80fd5b50610191610554565b60405161019e91906106e3565b60405180910390f35b3480156101b2575f80fd5b506101bb61058c565b6040516101c891906107cd565b60405180910390f35b5f3373ffffffffffffffffffffffffffffffffffffffff165f8054906101000a900473ffffffffffffffffffffffffffffffffffffffff1673ffffffffffffffffffffffffffffffffffffffff161461025f576040517f08c379a000000000000000000000000000000000000000000000000000000000815260040161025690610830565b60405180910390fd5b47905090565b3373ffffffffffffffffffffffffffffffffffffffff165f8054906101000a900473ffffffffffffffffffffffffffffffffffffffff1673ffffffffffffffffffffffffffffffffffffffff16146102f2576040517f08c379a00000000000000000000000000000000000000000000000000000000081526004016102e990610830565b60405180910390fd5b6003600180549050101561033b576040517f08c379a000000000000000000000000000000000000000000000000000000000815260040161033290610898565b60405180910390fd5b5f80610345610554565b90505f6001805490508261035991906108e3565b90506001818154811061036f5761036e610913565b5b905f5260205f20015f9054906101000a900473ffffffffffffffffffffffffffffffffffffffff1692508260025f6101000a81548173ffffffffffffffffffffffffffffffffffffffff021916908373ffffffffffffffffffffffffffffffffffffffff1602179055505f6103e26101d1565b90505f600a826103f2919061096d565b90505f60648261040291906109ae565b90505f8054906101000a900473ffffffffffffffffffffffffffffffffffffffff1673ffffffffffffffffffffffffffffffffffffffff166108fc8290811502906040515f60405180830381858888f19350505050158015610466573d5f803e3d5ffd5b508573ffffffffffffffffffffffffffffffffffffffff166108fc6104896101d1565b90811502906040515f60405180830381858888f193505050501580156104b1573d5f803e3d5ffd5b505f67ffffffffffffffff8111156104cc576104cb6109de565b5b6040519080825280602002602001820160405280156104fa5781602001602082028036833780820191505090505b50600190805190602001906105109291906105b1565b50505050505050565b60018181548110610528575f80fd5b905f5260205f20015f915054906101000a900473ffffffffffffffffffffffffffffffffffffffff1681565b5f444260018054905060405160200161056f93929190610a0b565b604051602081830303815290604052805190602001205f1c905090565b60025f9054906101000a900473ffffffffffffffffffffffffffffffffffffffff1681565b828054828255905f5260205f20908101928215610627579160200282015b82811115610626578251825f6101000a81548173ffffffffffffffffffffffffffffffffffffffff021916908373ffffffffffffffffffffffffffffffffffffffff160217905550916020019190600101906105cf565b5b5090506106349190610638565b5090565b5b8082111561064f575f815f905550600101610639565b5090565b5f82825260208201905092915050565b7f706c6561736520676976652031206574686572000000000000000000000000005f82015250565b5f610697601383610653565b91506106a282610663565b602082019050919050565b5f6020820190508181035f8301526106c48161068b565b9050919050565b5f819050919050565b6106dd816106cb565b82525050565b5f6020820190506106f65f8301846106d4565b92915050565b5f80fd5b610709816106cb565b8114610713575f80fd5b50565b5f8135905061072481610700565b92915050565b5f6020828403121561073f5761073e6106fc565b5b5f61074c84828501610716565b91505092915050565b5f73ffffffffffffffffffffffffffffffffffffffff82169050919050565b5f61077e82610755565b9050919050565b61078e81610774565b82525050565b5f6020820190506107a75f830184610785565b92915050565b5f6107b782610755565b9050919050565b6107c7816107ad565b82525050565b5f6020820190506107e05f8301846107be565b92915050565b7f4552524f52202c594f5520415245204e4f54205045524d4954544544000000005f82015250565b5f61081a601c83610653565b9150610825826107e6565b602082019050919050565b5f6020820190508181035f8301526108478161080e565b9050919050565b7f616464206d6f7265207061727469636970616e747300000000000000000000005f82015250565b5f610882601583610653565b915061088d8261084e565b602082019050919050565b5f6020820190508181035f8301526108af81610876565b9050919050565b7f4e487b71000000000000000000000000000000000000000000000000000000005f52601260045260245ffd5b5f6108ed826106cb565b91506108f8836106cb565b925082610908576109076108b6565b5b828206905092915050565b7f4e487b71000000000000000000000000000000000000000000000000000000005f52603260045260245ffd5b7f4e487b71000000000000000000000000000000000000000000000000000000005f52601160045260245ffd5b5f610977826106cb565b9150610982836106cb565b9250828202610990816106cb565b915082820484148315176109a7576109a6610940565b5b5092915050565b5f6109b8826106cb565b91506109c3836106cb565b9250826109d3576109d26108b6565b5b828204905092915050565b7f4e487b71000000000000000000000000000000000000000000000000000000005f52604160045260245ffd5b5f606082019050610a1e5f8301866106d4565b610a2b60208301856106d4565b610a3860408301846106d4565b94935050505056fea2646970667358221220a11c93a5be24a794574d01a94f031b4616a19a5ec67737f87a13829a58dac6fc64736f6c63430008180033",
					"opcodes": "PUSH1 0x80 PUSH1 0x40 MSTORE CALLVALUE DUP1 ISZERO PUSH2 0xF JUMPI PUSH0 DUP1 REVERT JUMPDEST POP CALLER PUSH0 DUP1 PUSH2 0x100 EXP DUP2 SLOAD DUP2 PUSH20 0xFFFFFFFFFFFFFFFFFFFFFFFFFFFFFFFFFFFFFFFF MUL NOT AND SWAP1 DUP4 PUSH20 0xFFFFFFFFFFFFFFFFFFFFFFFFFFFFFFFFFFFFFFFF AND MUL OR SWAP1 SSTORE POP PUSH2 0xA76 DUP1 PUSH2 0x5C PUSH0 CODECOPY PUSH0 RETURN INVALID PUSH1 0x80 PUSH1 0x40 MSTORE PUSH1 0x4 CALLDATASIZE LT PUSH2 0x4D JUMPI PUSH0 CALLDATALOAD PUSH1 0xE0 SHR DUP1 PUSH4 0x12065FE0 EQ PUSH2 0x101 JUMPI DUP1 PUSH4 0x33A99E04 EQ PUSH2 0x12B JUMPI DUP1 PUSH4 0x35C1D349 EQ PUSH2 0x141 JUMPI DUP1 PUSH4 0x604A6FA9 EQ PUSH2 0x17D JUMPI DUP1 PUSH4 0xBD185F82 EQ PUSH2 0x1A7 JUMPI PUSH2 0xFD JUMP JUMPDEST CALLDATASIZE PUSH2 0xFD JUMPI PUSH8 0xDE0B6B3A7640000 CALLVALUE EQ PUSH2 0x9C JUMPI PUSH1 0x40 MLOAD PUSH32 0x8C379A000000000000000000000000000000000000000000000000000000000 DUP2 MSTORE PUSH1 0x4 ADD PUSH2 0x93 SWAP1 PUSH2 0x6AD JUMP JUMPDEST PUSH1 0x40 MLOAD DUP1 SWAP2 SUB SWAP1 REVERT JUMPDEST PUSH1 0x1 CALLER SWAP1 DUP1 PUSH1 0x1 DUP2 SLOAD ADD DUP1 DUP3 SSTORE DUP1 SWAP2 POP POP PUSH1 0x1 SWAP1 SUB SWAP1 PUSH0 MSTORE PUSH1 0x20 PUSH0 KECCAK256 ADD PUSH0 SWAP1 SWAP2 SWAP1 SWAP2 SWAP1 SWAP2 PUSH2 0x100 EXP DUP2 SLOAD DUP2 PUSH20 0xFFFFFFFFFFFFFFFFFFFFFFFFFFFFFFFFFFFFFFFF MUL NOT AND SWAP1 DUP4 PUSH20 0xFFFFFFFFFFFFFFFFFFFFFFFFFFFFFFFFFFFFFFFF AND MUL OR SWAP1 SSTORE STOP JUMPDEST PUSH0 DUP1 REVERT JUMPDEST CALLVALUE DUP1 ISZERO PUSH2 0x10C JUMPI PUSH0 DUP1 REVERT JUMPDEST POP PUSH2 0x115 PUSH2 0x1D1 JUMP JUMPDEST PUSH1 0x40 MLOAD PUSH2 0x122 SWAP2 SWAP1 PUSH2 0x6E3 JUMP JUMPDEST PUSH1 0x40 MLOAD DUP1 SWAP2 SUB SWAP1 RETURN JUMPDEST CALLVALUE DUP1 ISZERO PUSH2 0x136 JUMPI PUSH0 DUP1 REVERT JUMPDEST POP PUSH2 0x13F PUSH2 0x265 JUMP JUMPDEST STOP JUMPDEST CALLVALUE DUP1 ISZERO PUSH2 0x14C JUMPI PUSH0 DUP1 REVERT JUMPDEST POP PUSH2 0x167 PUSH1 0x4 DUP1 CALLDATASIZE SUB DUP2 ADD SWAP1 PUSH2 0x162 SWAP2 SWAP1 PUSH2 0x72A JUMP JUMPDEST PUSH2 0x519 JUMP JUMPDEST PUSH1 0x40 MLOAD PUSH2 0x174 SWAP2 SWAP1 PUSH2 0x794 JUMP JUMPDEST PUSH1 0x40 MLOAD DUP1 SWAP2 SUB SWAP1 RETURN JUMPDEST CALLVALUE DUP1 ISZERO PUSH2 0x188 JUMPI PUSH0 DUP1 REVERT JUMPDEST POP PUSH2 0x191 PUSH2 0x554 JUMP JUMPDEST PUSH1 0x40 MLOAD PUSH2 0x19E SWAP2 SWAP1 PUSH2 0x6E3 JUMP JUMPDEST PUSH1 0x40 MLOAD DUP1 SWAP2 SUB SWAP1 RETURN JUMPDEST CALLVALUE DUP1 ISZERO PUSH2 0x1B2 JUMPI PUSH0 DUP1 REVERT JUMPDEST POP PUSH2 0x1BB PUSH2 0x58C JUMP JUMPDEST PUSH1 0x40 MLOAD PUSH2 0x1C8 SWAP2 SWAP1 PUSH2 0x7CD JUMP JUMPDEST PUSH1 0x40 MLOAD DUP1 SWAP2 SUB SWAP1 RETURN JUMPDEST PUSH0 CALLER PUSH20 0xFFFFFFFFFFFFFFFFFFFFFFFFFFFFFFFFFFFFFFFF AND PUSH0 DUP1 SLOAD SWAP1 PUSH2 0x100 EXP SWAP1 DIV PUSH20 0xFFFFFFFFFFFFFFFFFFFFFFFFFFFFFFFFFFFFFFFF AND PUSH20 0xFFFFFFFFFFFFFFFFFFFFFFFFFFFFFFFFFFFFFFFF AND EQ PUSH2 0x25F JUMPI PUSH1 0x40 MLOAD PUSH32 0x8C379A000000000000000000000000000000000000000000000000000000000 DUP2 MSTORE PUSH1 0x4 ADD PUSH2 0x256 SWAP1 PUSH2 0x830 JUMP JUMPDEST PUSH1 0x40 MLOAD DUP1 SWAP2 SUB SWAP1 REVERT JUMPDEST SELFBALANCE SWAP1 POP SWAP1 JUMP JUMPDEST CALLER PUSH20 0xFFFFFFFFFFFFFFFFFFFFFFFFFFFFFFFFFFFFFFFF AND PUSH0 DUP1 SLOAD SWAP1 PUSH2 0x100 EXP SWAP1 DIV PUSH20 0xFFFFFFFFFFFFFFFFFFFFFFFFFFFFFFFFFFFFFFFF AND PUSH20 0xFFFFFFFFFFFFFFFFFFFFFFFFFFFFFFFFFFFFFFFF AND EQ PUSH2 0x2F2 JUMPI PUSH1 0x40 MLOAD PUSH32 0x8C379A000000000000000000000000000000000000000000000000000000000 DUP2 MSTORE PUSH1 0x4 ADD PUSH2 0x2E9 SWAP1 PUSH2 0x830 JUMP JUMPDEST PUSH1 0x40 MLOAD DUP1 SWAP2 SUB SWAP1 REVERT JUMPDEST PUSH1 0x3 PUSH1 0x1 DUP1 SLOAD SWAP1 POP LT ISZERO PUSH2 0x33B JUMPI PUSH1 0x40 MLOAD PUSH32 0x8C379A000000000000000000000000000000000000000000000000000000000 DUP2 MSTORE PUSH1 0x4 ADD PUSH2 0x332 SWAP1 PUSH2 0x898 JUMP JUMPDEST PUSH1 0x40 MLOAD DUP1 SWAP2 SUB SWAP1 REVERT JUMPDEST PUSH0 DUP1 PUSH2 0x345 PUSH2 0x554 JUMP JUMPDEST SWAP1 POP PUSH0 PUSH1 0x1 DUP1 SLOAD SWAP1 POP DUP3 PUSH2 0x359 SWAP2 SWAP1 PUSH2 0x8E3 JUMP JUMPDEST SWAP1 POP PUSH1 0x1 DUP2 DUP2 SLOAD DUP2 LT PUSH2 0x36F JUMPI PUSH2 0x36E PUSH2 0x913 JUMP JUMPDEST JUMPDEST SWAP1 PUSH0 MSTORE PUSH1 0x20 PUSH0 KECCAK256 ADD PUSH0 SWAP1 SLOAD SWAP1 PUSH2 0x100 EXP SWAP1 DIV PUSH20 0xFFFFFFFFFFFFFFFFFFFFFFFFFFFFFFFFFFFFFFFF AND SWAP3 POP DUP3 PUSH1 0x2 PUSH0 PUSH2 0x100 EXP DUP2 SLOAD DUP2 PUSH20 0xFFFFFFFFFFFFFFFFFFFFFFFFFFFFFFFFFFFFFFFF MUL NOT AND SWAP1 DUP4 PUSH20 0xFFFFFFFFFFFFFFFFFFFFFFFFFFFFFFFFFFFFFFFF AND MUL OR SWAP1 SSTORE POP PUSH0 PUSH2 0x3E2 PUSH2 0x1D1 JUMP JUMPDEST SWAP1 POP PUSH0 PUSH1 0xA DUP3 PUSH2 0x3F2 SWAP2 SWAP1 PUSH2 0x96D JUMP JUMPDEST SWAP1 POP PUSH0 PUSH1 0x64 DUP3 PUSH2 0x402 SWAP2 SWAP1 PUSH2 0x9AE JUMP JUMPDEST SWAP1 POP PUSH0 DUP1 SLOAD SWAP1 PUSH2 0x100 EXP SWAP1 DIV PUSH20 0xFFFFFFFFFFFFFFFFFFFFFFFFFFFFFFFFFFFFFFFF AND PUSH20 0xFFFFFFFFFFFFFFFFFFFFFFFFFFFFFFFFFFFFFFFF AND PUSH2 0x8FC DUP3 SWAP1 DUP2 ISZERO MUL SWAP1 PUSH1 0x40 MLOAD PUSH0 PUSH1 0x40 MLOAD DUP1 DUP4 SUB DUP2 DUP6 DUP9 DUP9 CALL SWAP4 POP POP POP POP ISZERO DUP1 ISZERO PUSH2 0x466 JUMPI RETURNDATASIZE PUSH0 DUP1 RETURNDATACOPY RETURNDATASIZE PUSH0 REVERT JUMPDEST POP DUP6 PUSH20 0xFFFFFFFFFFFFFFFFFFFFFFFFFFFFFFFFFFFFFFFF AND PUSH2 0x8FC PUSH2 0x489 PUSH2 0x1D1 JUMP JUMPDEST SWAP1 DUP2 ISZERO MUL SWAP1 PUSH1 0x40 MLOAD PUSH0 PUSH1 0x40 MLOAD DUP1 DUP4 SUB DUP2 DUP6 DUP9 DUP9 CALL SWAP4 POP POP POP POP ISZERO DUP1 ISZERO PUSH2 0x4B1 JUMPI RETURNDATASIZE PUSH0 DUP1 RETURNDATACOPY RETURNDATASIZE PUSH0 REVERT JUMPDEST POP PUSH0 PUSH8 0xFFFFFFFFFFFFFFFF DUP2 GT ISZERO PUSH2 0x4CC JUMPI PUSH2 0x4CB PUSH2 0x9DE JUMP JUMPDEST JUMPDEST PUSH1 0x40 MLOAD SWAP1 DUP1 DUP3 MSTORE DUP1 PUSH1 0x20 MUL PUSH1 0x20 ADD DUP3 ADD PUSH1 0x40 MSTORE DUP1 ISZERO PUSH2 0x4FA JUMPI DUP2 PUSH1 0x20 ADD PUSH1 0x20 DUP3 MUL DUP1 CALLDATASIZE DUP4 CALLDATACOPY DUP1 DUP3 ADD SWAP2 POP POP SWAP1 POP JUMPDEST POP PUSH1 0x1 SWAP1 DUP1 MLOAD SWAP1 PUSH1 0x20 ADD SWAP1 PUSH2 0x510 SWAP3 SWAP2 SWAP1 PUSH2 0x5B1 JUMP JUMPDEST POP POP POP POP POP POP POP JUMP JUMPDEST PUSH1 0x1 DUP2 DUP2 SLOAD DUP2 LT PUSH2 0x528 JUMPI PUSH0 DUP1 REVERT JUMPDEST SWAP1 PUSH0 MSTORE PUSH1 0x20 PUSH0 KECCAK256 ADD PUSH0 SWAP2 POP SLOAD SWAP1 PUSH2 0x100 EXP SWAP1 DIV PUSH20 0xFFFFFFFFFFFFFFFFFFFFFFFFFFFFFFFFFFFFFFFF AND DUP2 JUMP JUMPDEST PUSH0 PREVRANDAO TIMESTAMP PUSH1 0x1 DUP1 SLOAD SWAP1 POP PUSH1 0x40 MLOAD PUSH1 0x20 ADD PUSH2 0x56F SWAP4 SWAP3 SWAP2 SWAP1 PUSH2 0xA0B JUMP JUMPDEST PUSH1 0x40 MLOAD PUSH1 0x20 DUP2 DUP4 SUB SUB DUP2 MSTORE SWAP1 PUSH1 0x40 MSTORE DUP1 MLOAD SWAP1 PUSH1 0x20 ADD KECCAK256 PUSH0 SHR SWAP1 POP SWAP1 JUMP JUMPDEST PUSH1 0x2 PUSH0 SWAP1 SLOAD SWAP1 PUSH2 0x100 EXP SWAP1 DIV PUSH20 0xFFFFFFFFFFFFFFFFFFFFFFFFFFFFFFFFFFFFFFFF AND DUP2 JUMP JUMPDEST DUP3 DUP1 SLOAD DUP3 DUP3 SSTORE SWAP1 PUSH0 MSTORE PUSH1 0x20 PUSH0 KECCAK256 SWAP1 DUP2 ADD SWAP3 DUP3 ISZERO PUSH2 0x627 JUMPI SWAP2 PUSH1 0x20 MUL DUP3 ADD JUMPDEST DUP3 DUP2 GT ISZERO PUSH2 0x626 JUMPI DUP3 MLOAD DUP3 PUSH0 PUSH2 0x100 EXP DUP2 SLOAD DUP2 PUSH20 0xFFFFFFFFFFFFFFFFFFFFFFFFFFFFFFFFFFFFFFFF MUL NOT AND SWAP1 DUP4 PUSH20 0xFFFFFFFFFFFFFFFFFFFFFFFFFFFFFFFFFFFFFFFF AND MUL OR SWAP1 SSTORE POP SWAP2 PUSH1 0x20 ADD SWAP2 SWAP1 PUSH1 0x1 ADD SWAP1 PUSH2 0x5CF JUMP JUMPDEST JUMPDEST POP SWAP1 POP PUSH2 0x634 SWAP2 SWAP1 PUSH2 0x638 JUMP JUMPDEST POP SWAP1 JUMP JUMPDEST JUMPDEST DUP1 DUP3 GT ISZERO PUSH2 0x64F JUMPI PUSH0 DUP2 PUSH0 SWAP1 SSTORE POP PUSH1 0x1 ADD PUSH2 0x639 JUMP JUMPDEST POP SWAP1 JUMP JUMPDEST PUSH0 DUP3 DUP3 MSTORE PUSH1 0x20 DUP3 ADD SWAP1 POP SWAP3 SWAP2 POP POP JUMP JUMPDEST PUSH32 0x706C656173652067697665203120657468657200000000000000000000000000 PUSH0 DUP3 ADD MSTORE POP JUMP JUMPDEST PUSH0 PUSH2 0x697 PUSH1 0x13 DUP4 PUSH2 0x653 JUMP JUMPDEST SWAP2 POP PUSH2 0x6A2 DUP3 PUSH2 0x663 JUMP JUMPDEST PUSH1 0x20 DUP3 ADD SWAP1 POP SWAP2 SWAP1 POP JUMP JUMPDEST PUSH0 PUSH1 0x20 DUP3 ADD SWAP1 POP DUP2 DUP2 SUB PUSH0 DUP4 ADD MSTORE PUSH2 0x6C4 DUP2 PUSH2 0x68B JUMP JUMPDEST SWAP1 POP SWAP2 SWAP1 POP JUMP JUMPDEST PUSH0 DUP2 SWAP1 POP SWAP2 SWAP1 POP JUMP JUMPDEST PUSH2 0x6DD DUP2 PUSH2 0x6CB JUMP JUMPDEST DUP3 MSTORE POP POP JUMP JUMPDEST PUSH0 PUSH1 0x20 DUP3 ADD SWAP1 POP PUSH2 0x6F6 PUSH0 DUP4 ADD DUP5 PUSH2 0x6D4 JUMP JUMPDEST SWAP3 SWAP2 POP POP JUMP JUMPDEST PUSH0 DUP1 REVERT JUMPDEST PUSH2 0x709 DUP2 PUSH2 0x6CB JUMP JUMPDEST DUP2 EQ PUSH2 0x713 JUMPI PUSH0 DUP1 REVERT JUMPDEST POP JUMP JUMPDEST PUSH0 DUP2 CALLDATALOAD SWAP1 POP PUSH2 0x724 DUP2 PUSH2 0x700 JUMP JUMPDEST SWAP3 SWAP2 POP POP JUMP JUMPDEST PUSH0 PUSH1 0x20 DUP3 DUP5 SUB SLT ISZERO PUSH2 0x73F JUMPI PUSH2 0x73E PUSH2 0x6FC JUMP JUMPDEST JUMPDEST PUSH0 PUSH2 0x74C DUP5 DUP3 DUP6 ADD PUSH2 0x716 JUMP JUMPDEST SWAP2 POP POP SWAP3 SWAP2 POP POP JUMP JUMPDEST PUSH0 PUSH20 0xFFFFFFFFFFFFFFFFFFFFFFFFFFFFFFFFFFFFFFFF DUP3 AND SWAP1 POP SWAP2 SWAP1 POP JUMP JUMPDEST PUSH0 PUSH2 0x77E DUP3 PUSH2 0x755 JUMP JUMPDEST SWAP1 POP SWAP2 SWAP1 POP JUMP JUMPDEST PUSH2 0x78E DUP2 PUSH2 0x774 JUMP JUMPDEST DUP3 MSTORE POP POP JUMP JUMPDEST PUSH0 PUSH1 0x20 DUP3 ADD SWAP1 POP PUSH2 0x7A7 PUSH0 DUP4 ADD DUP5 PUSH2 0x785 JUMP JUMPDEST SWAP3 SWAP2 POP POP JUMP JUMPDEST PUSH0 PUSH2 0x7B7 DUP3 PUSH2 0x755 JUMP JUMPDEST SWAP1 POP SWAP2 SWAP1 POP JUMP JUMPDEST PUSH2 0x7C7 DUP2 PUSH2 0x7AD JUMP JUMPDEST DUP3 MSTORE POP POP JUMP JUMPDEST PUSH0 PUSH1 0x20 DUP3 ADD SWAP1 POP PUSH2 0x7E0 PUSH0 DUP4 ADD DUP5 PUSH2 0x7BE JUMP JUMPDEST SWAP3 SWAP2 POP POP JUMP JUMPDEST PUSH32 0x4552524F52202C594F5520415245204E4F54205045524D495454454400000000 PUSH0 DUP3 ADD MSTORE POP JUMP JUMPDEST PUSH0 PUSH2 0x81A PUSH1 0x1C DUP4 PUSH2 0x653 JUMP JUMPDEST SWAP2 POP PUSH2 0x825 DUP3 PUSH2 0x7E6 JUMP JUMPDEST PUSH1 0x20 DUP3 ADD SWAP1 POP SWAP2 SWAP1 POP JUMP JUMPDEST PUSH0 PUSH1 0x20 DUP3 ADD SWAP1 POP DUP2 DUP2 SUB PUSH0 DUP4 ADD MSTORE PUSH2 0x847 DUP2 PUSH2 0x80E JUMP JUMPDEST SWAP1 POP SWAP2 SWAP1 POP JUMP JUMPDEST PUSH32 0x616464206D6F7265207061727469636970616E74730000000000000000000000 PUSH0 DUP3 ADD MSTORE POP JUMP JUMPDEST PUSH0 PUSH2 0x882 PUSH1 0x15 DUP4 PUSH2 0x653 JUMP JUMPDEST SWAP2 POP PUSH2 0x88D DUP3 PUSH2 0x84E JUMP JUMPDEST PUSH1 0x20 DUP3 ADD SWAP1 POP SWAP2 SWAP1 POP JUMP JUMPDEST PUSH0 PUSH1 0x20 DUP3 ADD SWAP1 POP DUP2 DUP2 SUB PUSH0 DUP4 ADD MSTORE PUSH2 0x8AF DUP2 PUSH2 0x876 JUMP JUMPDEST SWAP1 POP SWAP2 SWAP1 POP JUMP JUMPDEST PUSH32 0x4E487B7100000000000000000000000000000000000000000000000000000000 PUSH0 MSTORE PUSH1 0x12 PUSH1 0x4 MSTORE PUSH1 0x24 PUSH0 REVERT JUMPDEST PUSH0 PUSH2 0x8ED DUP3 PUSH2 0x6CB JUMP JUMPDEST SWAP2 POP PUSH2 0x8F8 DUP4 PUSH2 0x6CB JUMP JUMPDEST SWAP3 POP DUP3 PUSH2 0x908 JUMPI PUSH2 0x907 PUSH2 0x8B6 JUMP JUMPDEST JUMPDEST DUP3 DUP3 MOD SWAP1 POP SWAP3 SWAP2 POP POP JUMP JUMPDEST PUSH32 0x4E487B7100000000000000000000000000000000000000000000000000000000 PUSH0 MSTORE PUSH1 0x32 PUSH1 0x4 MSTORE PUSH1 0x24 PUSH0 REVERT JUMPDEST PUSH32 0x4E487B7100000000000000000000000000000000000000000000000000000000 PUSH0 MSTORE PUSH1 0x11 PUSH1 0x4 MSTORE PUSH1 0x24 PUSH0 REVERT JUMPDEST PUSH0 PUSH2 0x977 DUP3 PUSH2 0x6CB JUMP JUMPDEST SWAP2 POP PUSH2 0x982 DUP4 PUSH2 0x6CB JUMP JUMPDEST SWAP3 POP DUP3 DUP3 MUL PUSH2 0x990 DUP2 PUSH2 0x6CB JUMP JUMPDEST SWAP2 POP DUP3 DUP3 DIV DUP5 EQ DUP4 ISZERO OR PUSH2 0x9A7 JUMPI PUSH2 0x9A6 PUSH2 0x940 JUMP JUMPDEST JUMPDEST POP SWAP3 SWAP2 POP POP JUMP JUMPDEST PUSH0 PUSH2 0x9B8 DUP3 PUSH2 0x6CB JUMP JUMPDEST SWAP2 POP PUSH2 0x9C3 DUP4 PUSH2 0x6CB JUMP JUMPDEST SWAP3 POP DUP3 PUSH2 0x9D3 JUMPI PUSH2 0x9D2 PUSH2 0x8B6 JUMP JUMPDEST JUMPDEST DUP3 DUP3 DIV SWAP1 POP SWAP3 SWAP2 POP POP JUMP JUMPDEST PUSH32 0x4E487B7100000000000000000000000000000000000000000000000000000000 PUSH0 MSTORE PUSH1 0x41 PUSH1 0x4 MSTORE PUSH1 0x24 PUSH0 REVERT JUMPDEST PUSH0 PUSH1 0x60 DUP3 ADD SWAP1 POP PUSH2 0xA1E PUSH0 DUP4 ADD DUP7 PUSH2 0x6D4 JUMP JUMPDEST PUSH2 0xA2B PUSH1 0x20 DUP4 ADD DUP6 PUSH2 0x6D4 JUMP JUMPDEST PUSH2 0xA38 PUSH1 0x40 DUP4 ADD DUP5 PUSH2 0x6D4 JUMP JUMPDEST SWAP5 SWAP4 POP POP POP POP JUMP INVALID LOG2 PUSH5 0x6970667358 0x22 SLT KECCAK256 LOG1 SHR SWAP4 0xA5 0xBE 0x24 0xA7 SWAP5 JUMPI 0x4D ADD 0xA9 0x4F SUB SHL CHAINID AND LOG1 SWAP11 MCOPY 0xC6 PUSH24 0x37F87A13829A58DAC6FC64736F6C63430008180033000000 "
				},
				"gasEstimates": {
					"creation": {
						"codeDepositCost": "535600",
						"executionCost": "24831",
						"totalCost": "560431"
					},
					"external": {
						"Random()": "infinite",
						"getBalance()": "2573",
						"participants(uint256)": "4966",
						"selectWinner()": "infinite",
						"vijeta()": "2574"
					}
				},
				"methodIdentifiers": {
					"Random()": "604a6fa9",
					"getBalance()": "12065fe0",
					"participants(uint256)": "35c1d349",
					"selectWinner()": "33a99e04",
					"vijeta()": "bd185f82"
				}
			},
			"storageLayout": {
				"storage": [
					{
						"astId": 3,
						"contract": "contracts/ClassWork/lottery.sol:LotterySystem",
						"label": "manager",
						"offset": 0,
						"slot": "0",
						"type": "t_address_payable"
					},
					{
						"astId": 6,
						"contract": "contracts/ClassWork/lottery.sol:LotterySystem",
						"label": "participants",
						"offset": 0,
						"slot": "1",
						"type": "t_array(t_address_payable)dyn_storage"
					},
					{
						"astId": 8,
						"contract": "contracts/ClassWork/lottery.sol:LotterySystem",
						"label": "vijeta",
						"offset": 0,
						"slot": "2",
						"type": "t_address"
					}
				],
				"types": {
					"t_address": {
						"encoding": "inplace",
						"label": "address",
						"numberOfBytes": "20"
					},
					"t_address_payable": {
						"encoding": "inplace",
						"label": "address payable",
						"numberOfBytes": "20"
					},
					"t_array(t_address_payable)dyn_storage": {
						"base": "t_address_payable",
						"encoding": "dynamic_array",
						"label": "address payable[]",
						"numberOfBytes": "32"
					}
				}
			},
			"userdoc": {
				"kind": "user",
				"methods": {},
				"version": 1
			}
		}
	}
}