{
	"contracts/ClassWork/10_votingSystem.sol": {
		"SimpleVote": {
			"abi": [
				{
					"inputs": [],
					"name": "No",
					"outputs": [],
					"stateMutability": "nonpayable",
					"type": "function"
				},
				{
					"inputs": [
						{
							"internalType": "address",
							"name": "",
							"type": "address"
						}
					],
					"name": "Voters",
					"outputs": [
						{
							"internalType": "string",
							"name": "name",
							"type": "string"
						},
						{
							"internalType": "bool",
							"name": "isVoted",
							"type": "bool"
						}
					],
					"stateMutability": "view",
					"type": "function"
				},
				{
					"inputs": [],
					"name": "Yes",
					"outputs": [],
					"stateMutability": "nonpayable",
					"type": "function"
				},
				{
					"inputs": [],
					"name": "no",
					"outputs": [
						{
							"internalType": "uint256",
							"name": "",
							"type": "uint256"
						}
					],
					"stateMutability": "view",
					"type": "function"
				},
				{
					"inputs": [
						{
							"internalType": "string",
							"name": "_name",
							"type": "string"
						}
					],
					"name": "registerVoter",
					"outputs": [],
					"stateMutability": "nonpayable",
					"type": "function"
				},
				{
					"inputs": [],
					"name": "result",
					"outputs": [
						{
							"internalType": "string",
							"name": "",
							"type": "string"
						}
					],
					"stateMutability": "view",
					"type": "function"
				},
				{
					"inputs": [],
					"name": "yes",
					"outputs": [
						{
							"internalType": "uint256",
							"name": "",
							"type": "uint256"
						}
					],
					"stateMutability": "view",
					"type": "function"
				}
			],
			"devdoc": {
				"kind": "dev",
				"methods": {},
				"version": 1
			},
			"evm": {
				"assembly": "    /* \"contracts/ClassWork/10_votingSystem.sol\":438:1326  contract SimpleVote{... */\n  mstore(0x40, 0x80)\n  callvalue\n  dup1\n  iszero\n  tag_1\n  jumpi\n  0x00\n  dup1\n  revert\ntag_1:\n  pop\n  dataSize(sub_0)\n  dup1\n  dataOffset(sub_0)\n  0x00\n  codecopy\n  0x00\n  return\nstop\n\nsub_0: assembly {\n        /* \"contracts/ClassWork/10_votingSystem.sol\":438:1326  contract SimpleVote{... */\n      mstore(0x40, 0x80)\n      callvalue\n      dup1\n      iszero\n      tag_1\n      jumpi\n      0x00\n      dup1\n      revert\n    tag_1:\n      pop\n      jumpi(tag_2, lt(calldatasize, 0x04))\n      shr(0xe0, calldataload(0x00))\n      dup1\n      0x6f726dda\n      gt\n      tag_10\n      jumpi\n      dup1\n      0x6f726dda\n      eq\n      tag_6\n      jumpi\n      dup1\n      0xb6c52ae8\n      eq\n      tag_7\n      jumpi\n      dup1\n      0xdf66f294\n      eq\n      tag_8\n      jumpi\n      dup1\n      0xfdedaa8a\n      eq\n      tag_9\n      jumpi\n      jump(tag_2)\n    tag_10:\n      dup1\n      0x4c6c9b78\n      eq\n      tag_3\n      jumpi\n      dup1\n      0x6428a486\n      eq\n      tag_4\n      jumpi\n      dup1\n      0x65372147\n      eq\n      tag_5\n      jumpi\n    tag_2:\n      0x00\n      dup1\n      revert\n        /* \"contracts/ClassWork/10_votingSystem.sol\":466:481  uint public yes */\n    tag_3:\n      tag_11\n      tag_12\n      jump\t// in\n    tag_11:\n      mload(0x40)\n      tag_13\n      swap2\n      swap1\n      tag_14\n      jump\t// in\n    tag_13:\n      mload(0x40)\n      dup1\n      swap2\n      sub\n      swap1\n      return\n        /* \"contracts/ClassWork/10_votingSystem.sol\":626:768  function registerVoter(string memory _name) public{... */\n    tag_4:\n      tag_15\n      0x04\n      dup1\n      calldatasize\n      sub\n      dup2\n      add\n      swap1\n      tag_16\n      swap2\n      swap1\n      tag_17\n      jump\t// in\n    tag_16:\n      tag_18\n      jump\t// in\n    tag_15:\n      stop\n        /* \"contracts/ClassWork/10_votingSystem.sol\":1118:1319  function result() public view returns(string memory){... */\n    tag_5:\n      tag_19\n      tag_20\n      jump\t// in\n    tag_19:\n      mload(0x40)\n      tag_21\n      swap2\n      swap1\n      tag_22\n      jump\t// in\n    tag_21:\n      mload(0x40)\n      dup1\n      swap2\n      sub\n      swap1\n      return\n        /* \"contracts/ClassWork/10_votingSystem.sol\":949:1110  function No() public {... */\n    tag_6:\n      tag_23\n      tag_24\n      jump\t// in\n    tag_23:\n      stop\n        /* \"contracts/ClassWork/10_votingSystem.sol\":488:503  uint public  no */\n    tag_7:\n      tag_25\n      tag_26\n      jump\t// in\n    tag_25:\n      mload(0x40)\n      tag_27\n      swap2\n      swap1\n      tag_14\n      jump\t// in\n    tag_27:\n      mload(0x40)\n      dup1\n      swap2\n      sub\n      swap1\n      return\n        /* \"contracts/ClassWork/10_votingSystem.sol\":774:937  function Yes() public {... */\n    tag_8:\n      tag_28\n      tag_29\n      jump\t// in\n    tag_28:\n      stop\n        /* \"contracts/ClassWork/10_votingSystem.sol\":578:615  mapping(address=>Voter) public Voters */\n    tag_9:\n      tag_30\n      0x04\n      dup1\n      calldatasize\n      sub\n      dup2\n      add\n      swap1\n      tag_31\n      swap2\n      swap1\n      tag_32\n      jump\t// in\n    tag_31:\n      tag_33\n      jump\t// in\n    tag_30:\n      mload(0x40)\n      tag_34\n      swap3\n      swap2\n      swap1\n      tag_35\n      jump\t// in\n    tag_34:\n      mload(0x40)\n      dup1\n      swap2\n      sub\n      swap1\n      return\n        /* \"contracts/ClassWork/10_votingSystem.sol\":466:481  uint public yes */\n    tag_12:\n      sload(0x00)\n      dup2\n      jump\t// out\n        /* \"contracts/ClassWork/10_votingSystem.sol\":626:768  function registerVoter(string memory _name) public{... */\n    tag_18:\n        /* \"contracts/ClassWork/10_votingSystem.sol\":685:706  Voter memory newVoter */\n      0x00\n        /* \"contracts/ClassWork/10_votingSystem.sol\":707:725  Voter(_name,false) */\n      mload(0x40)\n      dup1\n      0x40\n      add\n      0x40\n      mstore\n      dup1\n        /* \"contracts/ClassWork/10_votingSystem.sol\":713:718  _name */\n      dup4\n        /* \"contracts/ClassWork/10_votingSystem.sol\":707:725  Voter(_name,false) */\n      dup2\n      mstore\n      0x20\n      add\n        /* \"contracts/ClassWork/10_votingSystem.sol\":719:724  false */\n      0x00\n        /* \"contracts/ClassWork/10_votingSystem.sol\":707:725  Voter(_name,false) */\n      iszero\n      iszero\n      dup2\n      mstore\n      pop\n        /* \"contracts/ClassWork/10_votingSystem.sol\":685:725  Voter memory newVoter=Voter(_name,false) */\n      swap1\n      pop\n        /* \"contracts/ClassWork/10_votingSystem.sol\":753:761  newVoter */\n      dup1\n        /* \"contracts/ClassWork/10_votingSystem.sol\":734:740  Voters */\n      0x02\n        /* \"contracts/ClassWork/10_votingSystem.sol\":734:752  Voters[msg.sender] */\n      0x00\n        /* \"contracts/ClassWork/10_votingSystem.sol\":741:751  msg.sender */\n      caller\n        /* \"contracts/ClassWork/10_votingSystem.sol\":734:752  Voters[msg.sender] */\n      0xffffffffffffffffffffffffffffffffffffffff\n      and\n      0xffffffffffffffffffffffffffffffffffffffff\n      and\n      dup2\n      mstore\n      0x20\n      add\n      swap1\n      dup2\n      mstore\n      0x20\n      add\n      0x00\n      keccak256\n        /* \"contracts/ClassWork/10_votingSystem.sol\":734:761  Voters[msg.sender]=newVoter */\n      0x00\n      dup3\n      add\n      mload\n      dup2\n      0x00\n      add\n      swap1\n      dup2\n      tag_37\n      swap2\n      swap1\n      tag_38\n      jump\t// in\n    tag_37:\n      pop\n      0x20\n      dup3\n      add\n      mload\n      dup2\n      0x01\n      add\n      exp(0x0100, 0x00)\n      dup2\n      sload\n      dup2\n      0xff\n      mul\n      not\n      and\n      swap1\n      dup4\n      iszero\n      iszero\n      mul\n      or\n      swap1\n      sstore\n      pop\n      swap1\n      pop\n      pop\n        /* \"contracts/ClassWork/10_votingSystem.sol\":676:768  {... */\n      pop\n        /* \"contracts/ClassWork/10_votingSystem.sol\":626:768  function registerVoter(string memory _name) public{... */\n      pop\n      jump\t// out\n        /* \"contracts/ClassWork/10_votingSystem.sol\":1118:1319  function result() public view returns(string memory){... */\n    tag_20:\n        /* \"contracts/ClassWork/10_votingSystem.sol\":1156:1169  string memory */\n      0x60\n        /* \"contracts/ClassWork/10_votingSystem.sol\":1186:1188  no */\n      sload(0x01)\n        /* \"contracts/ClassWork/10_votingSystem.sol\":1182:1185  yes */\n      sload(0x00)\n        /* \"contracts/ClassWork/10_votingSystem.sol\":1182:1188  yes>no */\n      gt\n        /* \"contracts/ClassWork/10_votingSystem.sol\":1179:1312  if(yes>no){... */\n      iszero\n      tag_40\n      jumpi\n        /* \"contracts/ClassWork/10_votingSystem.sol\":1201:1213  return \"yes\" */\n      mload(0x40)\n      dup1\n      0x40\n      add\n      0x40\n      mstore\n      dup1\n      0x03\n      dup2\n      mstore\n      0x20\n      add\n      0x7965730000000000000000000000000000000000000000000000000000000000\n      dup2\n      mstore\n      pop\n      swap1\n      pop\n      jump(tag_39)\n        /* \"contracts/ClassWork/10_votingSystem.sol\":1179:1312  if(yes>no){... */\n    tag_40:\n        /* \"contracts/ClassWork/10_votingSystem.sol\":1238:1240  no */\n      sload(0x01)\n        /* \"contracts/ClassWork/10_votingSystem.sol\":1232:1235  yes */\n      sload(0x00)\n        /* \"contracts/ClassWork/10_votingSystem.sol\":1232:1240  yes < no */\n      lt\n        /* \"contracts/ClassWork/10_votingSystem.sol\":1228:1312  if( yes < no){... */\n      iszero\n      tag_42\n      jumpi\n        /* \"contracts/ClassWork/10_votingSystem.sol\":1253:1264  return \"no\" */\n      mload(0x40)\n      dup1\n      0x40\n      add\n      0x40\n      mstore\n      dup1\n      0x02\n      dup2\n      mstore\n      0x20\n      add\n      0x6e6f000000000000000000000000000000000000000000000000000000000000\n      dup2\n      mstore\n      pop\n      swap1\n      pop\n      jump(tag_39)\n        /* \"contracts/ClassWork/10_votingSystem.sol\":1228:1312  if( yes < no){... */\n    tag_42:\n        /* \"contracts/ClassWork/10_votingSystem.sol\":1290:1302  return \"tie\" */\n      mload(0x40)\n      dup1\n      0x40\n      add\n      0x40\n      mstore\n      dup1\n      0x03\n      dup2\n      mstore\n      0x20\n      add\n      0x7469650000000000000000000000000000000000000000000000000000000000\n      dup2\n      mstore\n      pop\n      swap1\n      pop\n        /* \"contracts/ClassWork/10_votingSystem.sol\":1118:1319  function result() public view returns(string memory){... */\n    tag_39:\n      swap1\n      jump\t// out\n        /* \"contracts/ClassWork/10_votingSystem.sol\":949:1110  function No() public {... */\n    tag_24:\n        /* \"contracts/ClassWork/10_votingSystem.sol\":1018:1022  true */\n      0x01\n        /* \"contracts/ClassWork/10_votingSystem.sol\":988:1022  Voters[msg.sender].isVoted != true */\n      iszero\n      iszero\n        /* \"contracts/ClassWork/10_votingSystem.sol\":988:994  Voters */\n      0x02\n        /* \"contracts/ClassWork/10_votingSystem.sol\":988:1006  Voters[msg.sender] */\n      0x00\n        /* \"contracts/ClassWork/10_votingSystem.sol\":995:1005  msg.sender */\n      caller\n        /* \"contracts/ClassWork/10_votingSystem.sol\":988:1006  Voters[msg.sender] */\n      0xffffffffffffffffffffffffffffffffffffffff\n      and\n      0xffffffffffffffffffffffffffffffffffffffff\n      and\n      dup2\n      mstore\n      0x20\n      add\n      swap1\n      dup2\n      mstore\n      0x20\n      add\n      0x00\n      keccak256\n        /* \"contracts/ClassWork/10_votingSystem.sol\":988:1014  Voters[msg.sender].isVoted */\n      0x01\n      add\n      0x00\n      swap1\n      sload\n      swap1\n      0x0100\n      exp\n      swap1\n      div\n      0xff\n      and\n        /* \"contracts/ClassWork/10_votingSystem.sol\":988:1022  Voters[msg.sender].isVoted != true */\n      iszero\n      iszero\n      sub\n        /* \"contracts/ClassWork/10_votingSystem.sol\":980:1047  require(Voters[msg.sender].isVoted != true,\"you are already voted\") */\n      tag_45\n      jumpi\n      mload(0x40)\n      0x08c379a000000000000000000000000000000000000000000000000000000000\n      dup2\n      mstore\n      0x04\n      add\n      tag_46\n      swap1\n      tag_47\n      jump\t// in\n    tag_46:\n      mload(0x40)\n      dup1\n      swap2\n      sub\n      swap1\n      revert\n    tag_45:\n        /* \"contracts/ClassWork/10_votingSystem.sol\":1084:1088  true */\n      0x01\n        /* \"contracts/ClassWork/10_votingSystem.sol\":1057:1063  Voters */\n      0x02\n        /* \"contracts/ClassWork/10_votingSystem.sol\":1057:1075  Voters[msg.sender] */\n      0x00\n        /* \"contracts/ClassWork/10_votingSystem.sol\":1064:1074  msg.sender */\n      caller\n        /* \"contracts/ClassWork/10_votingSystem.sol\":1057:1075  Voters[msg.sender] */\n      0xffffffffffffffffffffffffffffffffffffffff\n      and\n      0xffffffffffffffffffffffffffffffffffffffff\n      and\n      dup2\n      mstore\n      0x20\n      add\n      swap1\n      dup2\n      mstore\n      0x20\n      add\n      0x00\n      keccak256\n        /* \"contracts/ClassWork/10_votingSystem.sol\":1057:1083  Voters[msg.sender].isVoted */\n      0x01\n      add\n      0x00\n        /* \"contracts/ClassWork/10_votingSystem.sol\":1057:1088  Voters[msg.sender].isVoted=true */\n      0x0100\n      exp\n      dup2\n      sload\n      dup2\n      0xff\n      mul\n      not\n      and\n      swap1\n      dup4\n      iszero\n      iszero\n      mul\n      or\n      swap1\n      sstore\n      pop\n        /* \"contracts/ClassWork/10_votingSystem.sol\":1098:1100  no */\n      0x01\n      0x00\n        /* \"contracts/ClassWork/10_votingSystem.sol\":1098:1102  no++ */\n      dup2\n      sload\n      dup1\n      swap3\n      swap2\n      swap1\n      tag_48\n      swap1\n      tag_49\n      jump\t// in\n    tag_48:\n      swap2\n      swap1\n      pop\n      sstore\n      pop\n        /* \"contracts/ClassWork/10_votingSystem.sol\":949:1110  function No() public {... */\n      jump\t// out\n        /* \"contracts/ClassWork/10_votingSystem.sol\":488:503  uint public  no */\n    tag_26:\n      sload(0x01)\n      dup2\n      jump\t// out\n        /* \"contracts/ClassWork/10_votingSystem.sol\":774:937  function Yes() public {... */\n    tag_29:\n        /* \"contracts/ClassWork/10_votingSystem.sol\":844:848  true */\n      0x01\n        /* \"contracts/ClassWork/10_votingSystem.sol\":814:848  Voters[msg.sender].isVoted != true */\n      iszero\n      iszero\n        /* \"contracts/ClassWork/10_votingSystem.sol\":814:820  Voters */\n      0x02\n        /* \"contracts/ClassWork/10_votingSystem.sol\":814:832  Voters[msg.sender] */\n      0x00\n        /* \"contracts/ClassWork/10_votingSystem.sol\":821:831  msg.sender */\n      caller\n        /* \"contracts/ClassWork/10_votingSystem.sol\":814:832  Voters[msg.sender] */\n      0xffffffffffffffffffffffffffffffffffffffff\n      and\n      0xffffffffffffffffffffffffffffffffffffffff\n      and\n      dup2\n      mstore\n      0x20\n      add\n      swap1\n      dup2\n      mstore\n      0x20\n      add\n      0x00\n      keccak256\n        /* \"contracts/ClassWork/10_votingSystem.sol\":814:840  Voters[msg.sender].isVoted */\n      0x01\n      add\n      0x00\n      swap1\n      sload\n      swap1\n      0x0100\n      exp\n      swap1\n      div\n      0xff\n      and\n        /* \"contracts/ClassWork/10_votingSystem.sol\":814:848  Voters[msg.sender].isVoted != true */\n      iszero\n      iszero\n      sub\n        /* \"contracts/ClassWork/10_votingSystem.sol\":806:873  require(Voters[msg.sender].isVoted != true,\"you are already voted\") */\n      tag_51\n      jumpi\n      mload(0x40)\n      0x08c379a000000000000000000000000000000000000000000000000000000000\n      dup2\n      mstore\n      0x04\n      add\n      tag_52\n      swap1\n      tag_47\n      jump\t// in\n    tag_52:\n      mload(0x40)\n      dup1\n      swap2\n      sub\n      swap1\n      revert\n    tag_51:\n        /* \"contracts/ClassWork/10_votingSystem.sol\":910:914  true */\n      0x01\n        /* \"contracts/ClassWork/10_votingSystem.sol\":883:889  Voters */\n      0x02\n        /* \"contracts/ClassWork/10_votingSystem.sol\":883:901  Voters[msg.sender] */\n      0x00\n        /* \"contracts/ClassWork/10_votingSystem.sol\":890:900  msg.sender */\n      caller\n        /* \"contracts/ClassWork/10_votingSystem.sol\":883:901  Voters[msg.sender] */\n      0xffffffffffffffffffffffffffffffffffffffff\n      and\n      0xffffffffffffffffffffffffffffffffffffffff\n      and\n      dup2\n      mstore\n      0x20\n      add\n      swap1\n      dup2\n      mstore\n      0x20\n      add\n      0x00\n      keccak256\n        /* \"contracts/ClassWork/10_votingSystem.sol\":883:909  Voters[msg.sender].isVoted */\n      0x01\n      add\n      0x00\n        /* \"contracts/ClassWork/10_votingSystem.sol\":883:914  Voters[msg.sender].isVoted=true */\n      0x0100\n      exp\n      dup2\n      sload\n      dup2\n      0xff\n      mul\n      not\n      and\n      swap1\n      dup4\n      iszero\n      iszero\n      mul\n      or\n      swap1\n      sstore\n      pop\n        /* \"contracts/ClassWork/10_votingSystem.sol\":924:927  yes */\n      0x00\n      dup1\n        /* \"contracts/ClassWork/10_votingSystem.sol\":924:929  yes++ */\n      dup2\n      sload\n      dup1\n      swap3\n      swap2\n      swap1\n      tag_53\n      swap1\n      tag_49\n      jump\t// in\n    tag_53:\n      swap2\n      swap1\n      pop\n      sstore\n      pop\n        /* \"contracts/ClassWork/10_votingSystem.sol\":774:937  function Yes() public {... */\n      jump\t// out\n        /* \"contracts/ClassWork/10_votingSystem.sol\":578:615  mapping(address=>Voter) public Voters */\n    tag_33:\n      mstore(0x20, 0x02)\n      dup1\n      0x00\n      mstore\n      keccak256(0x00, 0x40)\n      0x00\n      swap2\n      pop\n      swap1\n      pop\n      dup1\n      0x00\n      add\n      dup1\n      sload\n      tag_54\n      swap1\n      tag_55\n      jump\t// in\n    tag_54:\n      dup1\n      0x1f\n      add\n      0x20\n      dup1\n      swap2\n      div\n      mul\n      0x20\n      add\n      mload(0x40)\n      swap1\n      dup2\n      add\n      0x40\n      mstore\n      dup1\n      swap3\n      swap2\n      swap1\n      dup2\n      dup2\n      mstore\n      0x20\n      add\n      dup3\n      dup1\n      sload\n      tag_56\n      swap1\n      tag_55\n      jump\t// in\n    tag_56:\n      dup1\n      iszero\n      tag_57\n      jumpi\n      dup1\n      0x1f\n      lt\n      tag_58\n      jumpi\n      0x0100\n      dup1\n      dup4\n      sload\n      div\n      mul\n      dup4\n      mstore\n      swap2\n      0x20\n      add\n      swap2\n      jump(tag_57)\n    tag_58:\n      dup3\n      add\n      swap2\n      swap1\n      0x00\n      mstore\n      keccak256(0x00, 0x20)\n      swap1\n    tag_59:\n      dup2\n      sload\n      dup2\n      mstore\n      swap1\n      0x01\n      add\n      swap1\n      0x20\n      add\n      dup1\n      dup4\n      gt\n      tag_59\n      jumpi\n      dup3\n      swap1\n      sub\n      0x1f\n      and\n      dup3\n      add\n      swap2\n    tag_57:\n      pop\n      pop\n      pop\n      pop\n      pop\n      swap1\n      dup1\n      0x01\n      add\n      0x00\n      swap1\n      sload\n      swap1\n      0x0100\n      exp\n      swap1\n      div\n      0xff\n      and\n      swap1\n      pop\n      dup3\n      jump\t// out\n        /* \"#utility.yul\":7:84   */\n    tag_60:\n        /* \"#utility.yul\":44:51   */\n      0x00\n        /* \"#utility.yul\":73:78   */\n      dup2\n        /* \"#utility.yul\":62:78   */\n      swap1\n      pop\n        /* \"#utility.yul\":7:84   */\n      swap2\n      swap1\n      pop\n      jump\t// out\n        /* \"#utility.yul\":90:208   */\n    tag_61:\n        /* \"#utility.yul\":177:201   */\n      tag_107\n        /* \"#utility.yul\":195:200   */\n      dup2\n        /* \"#utility.yul\":177:201   */\n      tag_60\n      jump\t// in\n    tag_107:\n        /* \"#utility.yul\":172:175   */\n      dup3\n        /* \"#utility.yul\":165:202   */\n      mstore\n        /* \"#utility.yul\":90:208   */\n      pop\n      pop\n      jump\t// out\n        /* \"#utility.yul\":214:436   */\n    tag_14:\n        /* \"#utility.yul\":307:311   */\n      0x00\n        /* \"#utility.yul\":345:347   */\n      0x20\n        /* \"#utility.yul\":334:343   */\n      dup3\n        /* \"#utility.yul\":330:348   */\n      add\n        /* \"#utility.yul\":322:348   */\n      swap1\n      pop\n        /* \"#utility.yul\":358:429   */\n      tag_109\n        /* \"#utility.yul\":426:427   */\n      0x00\n        /* \"#utility.yul\":415:424   */\n      dup4\n        /* \"#utility.yul\":411:428   */\n      add\n        /* \"#utility.yul\":402:408   */\n      dup5\n        /* \"#utility.yul\":358:429   */\n      tag_61\n      jump\t// in\n    tag_109:\n        /* \"#utility.yul\":214:436   */\n      swap3\n      swap2\n      pop\n      pop\n      jump\t// out\n        /* \"#utility.yul\":442:517   */\n    tag_62:\n        /* \"#utility.yul\":475:481   */\n      0x00\n        /* \"#utility.yul\":508:510   */\n      0x40\n        /* \"#utility.yul\":502:511   */\n      mload\n        /* \"#utility.yul\":492:511   */\n      swap1\n      pop\n        /* \"#utility.yul\":442:517   */\n      swap1\n      jump\t// out\n        /* \"#utility.yul\":523:640   */\n    tag_63:\n        /* \"#utility.yul\":632:633   */\n      0x00\n        /* \"#utility.yul\":629:630   */\n      dup1\n        /* \"#utility.yul\":622:634   */\n      revert\n        /* \"#utility.yul\":646:763   */\n    tag_64:\n        /* \"#utility.yul\":755:756   */\n      0x00\n        /* \"#utility.yul\":752:753   */\n      dup1\n        /* \"#utility.yul\":745:757   */\n      revert\n        /* \"#utility.yul\":769:886   */\n    tag_65:\n        /* \"#utility.yul\":878:879   */\n      0x00\n        /* \"#utility.yul\":875:876   */\n      dup1\n        /* \"#utility.yul\":868:880   */\n      revert\n        /* \"#utility.yul\":892:1009   */\n    tag_66:\n        /* \"#utility.yul\":1001:1002   */\n      0x00\n        /* \"#utility.yul\":998:999   */\n      dup1\n        /* \"#utility.yul\":991:1003   */\n      revert\n        /* \"#utility.yul\":1015:1117   */\n    tag_67:\n        /* \"#utility.yul\":1056:1062   */\n      0x00\n        /* \"#utility.yul\":1107:1109   */\n      0x1f\n        /* \"#utility.yul\":1103:1110   */\n      not\n        /* \"#utility.yul\":1098:1100   */\n      0x1f\n        /* \"#utility.yul\":1091:1096   */\n      dup4\n        /* \"#utility.yul\":1087:1101   */\n      add\n        /* \"#utility.yul\":1083:1111   */\n      and\n        /* \"#utility.yul\":1073:1111   */\n      swap1\n      pop\n        /* \"#utility.yul\":1015:1117   */\n      swap2\n      swap1\n      pop\n      jump\t// out\n        /* \"#utility.yul\":1123:1303   */\n    tag_68:\n        /* \"#utility.yul\":1171:1248   */\n      0x4e487b7100000000000000000000000000000000000000000000000000000000\n        /* \"#utility.yul\":1168:1169   */\n      0x00\n        /* \"#utility.yul\":1161:1249   */\n      mstore\n        /* \"#utility.yul\":1268:1272   */\n      0x41\n        /* \"#utility.yul\":1265:1266   */\n      0x04\n        /* \"#utility.yul\":1258:1273   */\n      mstore\n        /* \"#utility.yul\":1292:1296   */\n      0x24\n        /* \"#utility.yul\":1289:1290   */\n      0x00\n        /* \"#utility.yul\":1282:1297   */\n      revert\n        /* \"#utility.yul\":1309:1590   */\n    tag_69:\n        /* \"#utility.yul\":1392:1419   */\n      tag_118\n        /* \"#utility.yul\":1414:1418   */\n      dup3\n        /* \"#utility.yul\":1392:1419   */\n      tag_67\n      jump\t// in\n    tag_118:\n        /* \"#utility.yul\":1384:1390   */\n      dup2\n        /* \"#utility.yul\":1380:1420   */\n      add\n        /* \"#utility.yul\":1522:1528   */\n      dup2\n        /* \"#utility.yul\":1510:1520   */\n      dup2\n        /* \"#utility.yul\":1507:1529   */\n      lt\n        /* \"#utility.yul\":1486:1504   */\n      0xffffffffffffffff\n        /* \"#utility.yul\":1474:1484   */\n      dup3\n        /* \"#utility.yul\":1471:1505   */\n      gt\n        /* \"#utility.yul\":1468:1530   */\n      or\n        /* \"#utility.yul\":1465:1553   */\n      iszero\n      tag_119\n      jumpi\n        /* \"#utility.yul\":1533:1551   */\n      tag_120\n      tag_68\n      jump\t// in\n    tag_120:\n        /* \"#utility.yul\":1465:1553   */\n    tag_119:\n        /* \"#utility.yul\":1573:1583   */\n      dup1\n        /* \"#utility.yul\":1569:1571   */\n      0x40\n        /* \"#utility.yul\":1562:1584   */\n      mstore\n        /* \"#utility.yul\":1352:1590   */\n      pop\n        /* \"#utility.yul\":1309:1590   */\n      pop\n      pop\n      jump\t// out\n        /* \"#utility.yul\":1596:1725   */\n    tag_70:\n        /* \"#utility.yul\":1630:1636   */\n      0x00\n        /* \"#utility.yul\":1657:1677   */\n      tag_122\n      tag_62\n      jump\t// in\n    tag_122:\n        /* \"#utility.yul\":1647:1677   */\n      swap1\n      pop\n        /* \"#utility.yul\":1686:1719   */\n      tag_123\n        /* \"#utility.yul\":1714:1718   */\n      dup3\n        /* \"#utility.yul\":1706:1712   */\n      dup3\n        /* \"#utility.yul\":1686:1719   */\n      tag_69\n      jump\t// in\n    tag_123:\n        /* \"#utility.yul\":1596:1725   */\n      swap2\n      swap1\n      pop\n      jump\t// out\n        /* \"#utility.yul\":1731:2039   */\n    tag_71:\n        /* \"#utility.yul\":1793:1797   */\n      0x00\n        /* \"#utility.yul\":1883:1901   */\n      0xffffffffffffffff\n        /* \"#utility.yul\":1875:1881   */\n      dup3\n        /* \"#utility.yul\":1872:1902   */\n      gt\n        /* \"#utility.yul\":1869:1925   */\n      iszero\n      tag_125\n      jumpi\n        /* \"#utility.yul\":1905:1923   */\n      tag_126\n      tag_68\n      jump\t// in\n    tag_126:\n        /* \"#utility.yul\":1869:1925   */\n    tag_125:\n        /* \"#utility.yul\":1943:1972   */\n      tag_127\n        /* \"#utility.yul\":1965:1971   */\n      dup3\n        /* \"#utility.yul\":1943:1972   */\n      tag_67\n      jump\t// in\n    tag_127:\n        /* \"#utility.yul\":1935:1972   */\n      swap1\n      pop\n        /* \"#utility.yul\":2027:2031   */\n      0x20\n        /* \"#utility.yul\":2021:2025   */\n      dup2\n        /* \"#utility.yul\":2017:2032   */\n      add\n        /* \"#utility.yul\":2009:2032   */\n      swap1\n      pop\n        /* \"#utility.yul\":1731:2039   */\n      swap2\n      swap1\n      pop\n      jump\t// out\n        /* \"#utility.yul\":2045:2193   */\n    tag_72:\n        /* \"#utility.yul\":2143:2149   */\n      dup3\n        /* \"#utility.yul\":2138:2141   */\n      dup2\n        /* \"#utility.yul\":2133:2136   */\n      dup4\n        /* \"#utility.yul\":2120:2150   */\n      calldatacopy\n        /* \"#utility.yul\":2184:2185   */\n      0x00\n        /* \"#utility.yul\":2175:2181   */\n      dup4\n        /* \"#utility.yul\":2170:2173   */\n      dup4\n        /* \"#utility.yul\":2166:2182   */\n      add\n        /* \"#utility.yul\":2159:2186   */\n      mstore\n        /* \"#utility.yul\":2045:2193   */\n      pop\n      pop\n      pop\n      jump\t// out\n        /* \"#utility.yul\":2199:2624   */\n    tag_73:\n        /* \"#utility.yul\":2277:2282   */\n      0x00\n        /* \"#utility.yul\":2302:2368   */\n      tag_130\n        /* \"#utility.yul\":2318:2367   */\n      tag_131\n        /* \"#utility.yul\":2360:2366   */\n      dup5\n        /* \"#utility.yul\":2318:2367   */\n      tag_71\n      jump\t// in\n    tag_131:\n        /* \"#utility.yul\":2302:2368   */\n      tag_70\n      jump\t// in\n    tag_130:\n        /* \"#utility.yul\":2293:2368   */\n      swap1\n      pop\n        /* \"#utility.yul\":2391:2397   */\n      dup3\n        /* \"#utility.yul\":2384:2389   */\n      dup2\n        /* \"#utility.yul\":2377:2398   */\n      mstore\n        /* \"#utility.yul\":2429:2433   */\n      0x20\n        /* \"#utility.yul\":2422:2427   */\n      dup2\n        /* \"#utility.yul\":2418:2434   */\n      add\n        /* \"#utility.yul\":2467:2470   */\n      dup5\n        /* \"#utility.yul\":2458:2464   */\n      dup5\n        /* \"#utility.yul\":2453:2456   */\n      dup5\n        /* \"#utility.yul\":2449:2465   */\n      add\n        /* \"#utility.yul\":2446:2471   */\n      gt\n        /* \"#utility.yul\":2443:2555   */\n      iszero\n      tag_132\n      jumpi\n        /* \"#utility.yul\":2474:2553   */\n      tag_133\n      tag_66\n      jump\t// in\n    tag_133:\n        /* \"#utility.yul\":2443:2555   */\n    tag_132:\n        /* \"#utility.yul\":2564:2618   */\n      tag_134\n        /* \"#utility.yul\":2611:2617   */\n      dup5\n        /* \"#utility.yul\":2606:2609   */\n      dup3\n        /* \"#utility.yul\":2601:2604   */\n      dup6\n        /* \"#utility.yul\":2564:2618   */\n      tag_72\n      jump\t// in\n    tag_134:\n        /* \"#utility.yul\":2283:2624   */\n      pop\n        /* \"#utility.yul\":2199:2624   */\n      swap4\n      swap3\n      pop\n      pop\n      pop\n      jump\t// out\n        /* \"#utility.yul\":2644:2984   */\n    tag_74:\n        /* \"#utility.yul\":2700:2705   */\n      0x00\n        /* \"#utility.yul\":2749:2752   */\n      dup3\n        /* \"#utility.yul\":2742:2746   */\n      0x1f\n        /* \"#utility.yul\":2734:2740   */\n      dup4\n        /* \"#utility.yul\":2730:2747   */\n      add\n        /* \"#utility.yul\":2726:2753   */\n      slt\n        /* \"#utility.yul\":2716:2838   */\n      tag_136\n      jumpi\n        /* \"#utility.yul\":2757:2836   */\n      tag_137\n      tag_65\n      jump\t// in\n    tag_137:\n        /* \"#utility.yul\":2716:2838   */\n    tag_136:\n        /* \"#utility.yul\":2874:2880   */\n      dup2\n        /* \"#utility.yul\":2861:2881   */\n      calldataload\n        /* \"#utility.yul\":2899:2978   */\n      tag_138\n        /* \"#utility.yul\":2974:2977   */\n      dup5\n        /* \"#utility.yul\":2966:2972   */\n      dup3\n        /* \"#utility.yul\":2959:2963   */\n      0x20\n        /* \"#utility.yul\":2951:2957   */\n      dup7\n        /* \"#utility.yul\":2947:2964   */\n      add\n        /* \"#utility.yul\":2899:2978   */\n      tag_73\n      jump\t// in\n    tag_138:\n        /* \"#utility.yul\":2890:2978   */\n      swap2\n      pop\n        /* \"#utility.yul\":2706:2984   */\n      pop\n        /* \"#utility.yul\":2644:2984   */\n      swap3\n      swap2\n      pop\n      pop\n      jump\t// out\n        /* \"#utility.yul\":2990:3499   */\n    tag_17:\n        /* \"#utility.yul\":3059:3065   */\n      0x00\n        /* \"#utility.yul\":3108:3110   */\n      0x20\n        /* \"#utility.yul\":3096:3105   */\n      dup3\n        /* \"#utility.yul\":3087:3094   */\n      dup5\n        /* \"#utility.yul\":3083:3106   */\n      sub\n        /* \"#utility.yul\":3079:3111   */\n      slt\n        /* \"#utility.yul\":3076:3195   */\n      iszero\n      tag_140\n      jumpi\n        /* \"#utility.yul\":3114:3193   */\n      tag_141\n      tag_63\n      jump\t// in\n    tag_141:\n        /* \"#utility.yul\":3076:3195   */\n    tag_140:\n        /* \"#utility.yul\":3262:3263   */\n      0x00\n        /* \"#utility.yul\":3251:3260   */\n      dup3\n        /* \"#utility.yul\":3247:3264   */\n      add\n        /* \"#utility.yul\":3234:3265   */\n      calldataload\n        /* \"#utility.yul\":3292:3310   */\n      0xffffffffffffffff\n        /* \"#utility.yul\":3284:3290   */\n      dup2\n        /* \"#utility.yul\":3281:3311   */\n      gt\n        /* \"#utility.yul\":3278:3395   */\n      iszero\n      tag_142\n      jumpi\n        /* \"#utility.yul\":3314:3393   */\n      tag_143\n      tag_64\n      jump\t// in\n    tag_143:\n        /* \"#utility.yul\":3278:3395   */\n    tag_142:\n        /* \"#utility.yul\":3419:3482   */\n      tag_144\n        /* \"#utility.yul\":3474:3481   */\n      dup5\n        /* \"#utility.yul\":3465:3471   */\n      dup3\n        /* \"#utility.yul\":3454:3463   */\n      dup6\n        /* \"#utility.yul\":3450:3472   */\n      add\n        /* \"#utility.yul\":3419:3482   */\n      tag_74\n      jump\t// in\n    tag_144:\n        /* \"#utility.yul\":3409:3482   */\n      swap2\n      pop\n        /* \"#utility.yul\":3205:3492   */\n      pop\n        /* \"#utility.yul\":2990:3499   */\n      swap3\n      swap2\n      pop\n      pop\n      jump\t// out\n        /* \"#utility.yul\":3505:3604   */\n    tag_75:\n        /* \"#utility.yul\":3557:3563   */\n      0x00\n        /* \"#utility.yul\":3591:3596   */\n      dup2\n        /* \"#utility.yul\":3585:3597   */\n      mload\n        /* \"#utility.yul\":3575:3597   */\n      swap1\n      pop\n        /* \"#utility.yul\":3505:3604   */\n      swap2\n      swap1\n      pop\n      jump\t// out\n        /* \"#utility.yul\":3610:3779   */\n    tag_76:\n        /* \"#utility.yul\":3694:3705   */\n      0x00\n        /* \"#utility.yul\":3728:3734   */\n      dup3\n        /* \"#utility.yul\":3723:3726   */\n      dup3\n        /* \"#utility.yul\":3716:3735   */\n      mstore\n        /* \"#utility.yul\":3768:3772   */\n      0x20\n        /* \"#utility.yul\":3763:3766   */\n      dup3\n        /* \"#utility.yul\":3759:3773   */\n      add\n        /* \"#utility.yul\":3744:3773   */\n      swap1\n      pop\n        /* \"#utility.yul\":3610:3779   */\n      swap3\n      swap2\n      pop\n      pop\n      jump\t// out\n        /* \"#utility.yul\":3785:3924   */\n    tag_77:\n        /* \"#utility.yul\":3874:3880   */\n      dup3\n        /* \"#utility.yul\":3869:3872   */\n      dup2\n        /* \"#utility.yul\":3864:3867   */\n      dup4\n        /* \"#utility.yul\":3858:3881   */\n      mcopy\n        /* \"#utility.yul\":3915:3916   */\n      0x00\n        /* \"#utility.yul\":3906:3912   */\n      dup4\n        /* \"#utility.yul\":3901:3904   */\n      dup4\n        /* \"#utility.yul\":3897:3913   */\n      add\n        /* \"#utility.yul\":3890:3917   */\n      mstore\n        /* \"#utility.yul\":3785:3924   */\n      pop\n      pop\n      pop\n      jump\t// out\n        /* \"#utility.yul\":3930:4307   */\n    tag_78:\n        /* \"#utility.yul\":4018:4021   */\n      0x00\n        /* \"#utility.yul\":4046:4085   */\n      tag_149\n        /* \"#utility.yul\":4079:4084   */\n      dup3\n        /* \"#utility.yul\":4046:4085   */\n      tag_75\n      jump\t// in\n    tag_149:\n        /* \"#utility.yul\":4101:4172   */\n      tag_150\n        /* \"#utility.yul\":4165:4171   */\n      dup2\n        /* \"#utility.yul\":4160:4163   */\n      dup6\n        /* \"#utility.yul\":4101:4172   */\n      tag_76\n      jump\t// in\n    tag_150:\n        /* \"#utility.yul\":4094:4172   */\n      swap4\n      pop\n        /* \"#utility.yul\":4181:4246   */\n      tag_151\n        /* \"#utility.yul\":4239:4245   */\n      dup2\n        /* \"#utility.yul\":4234:4237   */\n      dup6\n        /* \"#utility.yul\":4227:4231   */\n      0x20\n        /* \"#utility.yul\":4220:4225   */\n      dup7\n        /* \"#utility.yul\":4216:4232   */\n      add\n        /* \"#utility.yul\":4181:4246   */\n      tag_77\n      jump\t// in\n    tag_151:\n        /* \"#utility.yul\":4271:4300   */\n      tag_152\n        /* \"#utility.yul\":4293:4299   */\n      dup2\n        /* \"#utility.yul\":4271:4300   */\n      tag_67\n      jump\t// in\n    tag_152:\n        /* \"#utility.yul\":4266:4269   */\n      dup5\n        /* \"#utility.yul\":4262:4301   */\n      add\n        /* \"#utility.yul\":4255:4301   */\n      swap2\n      pop\n        /* \"#utility.yul\":4022:4307   */\n      pop\n        /* \"#utility.yul\":3930:4307   */\n      swap3\n      swap2\n      pop\n      pop\n      jump\t// out\n        /* \"#utility.yul\":4313:4626   */\n    tag_22:\n        /* \"#utility.yul\":4426:4430   */\n      0x00\n        /* \"#utility.yul\":4464:4466   */\n      0x20\n        /* \"#utility.yul\":4453:4462   */\n      dup3\n        /* \"#utility.yul\":4449:4467   */\n      add\n        /* \"#utility.yul\":4441:4467   */\n      swap1\n      pop\n        /* \"#utility.yul\":4513:4522   */\n      dup2\n        /* \"#utility.yul\":4507:4511   */\n      dup2\n        /* \"#utility.yul\":4503:4523   */\n      sub\n        /* \"#utility.yul\":4499:4500   */\n      0x00\n        /* \"#utility.yul\":4488:4497   */\n      dup4\n        /* \"#utility.yul\":4484:4501   */\n      add\n        /* \"#utility.yul\":4477:4524   */\n      mstore\n        /* \"#utility.yul\":4541:4619   */\n      tag_154\n        /* \"#utility.yul\":4614:4618   */\n      dup2\n        /* \"#utility.yul\":4605:4611   */\n      dup5\n        /* \"#utility.yul\":4541:4619   */\n      tag_78\n      jump\t// in\n    tag_154:\n        /* \"#utility.yul\":4533:4619   */\n      swap1\n      pop\n        /* \"#utility.yul\":4313:4626   */\n      swap3\n      swap2\n      pop\n      pop\n      jump\t// out\n        /* \"#utility.yul\":4632:4758   */\n    tag_79:\n        /* \"#utility.yul\":4669:4676   */\n      0x00\n        /* \"#utility.yul\":4709:4751   */\n      0xffffffffffffffffffffffffffffffffffffffff\n        /* \"#utility.yul\":4702:4707   */\n      dup3\n        /* \"#utility.yul\":4698:4752   */\n      and\n        /* \"#utility.yul\":4687:4752   */\n      swap1\n      pop\n        /* \"#utility.yul\":4632:4758   */\n      swap2\n      swap1\n      pop\n      jump\t// out\n        /* \"#utility.yul\":4764:4860   */\n    tag_80:\n        /* \"#utility.yul\":4801:4808   */\n      0x00\n        /* \"#utility.yul\":4830:4854   */\n      tag_157\n        /* \"#utility.yul\":4848:4853   */\n      dup3\n        /* \"#utility.yul\":4830:4854   */\n      tag_79\n      jump\t// in\n    tag_157:\n        /* \"#utility.yul\":4819:4854   */\n      swap1\n      pop\n        /* \"#utility.yul\":4764:4860   */\n      swap2\n      swap1\n      pop\n      jump\t// out\n        /* \"#utility.yul\":4866:4988   */\n    tag_81:\n        /* \"#utility.yul\":4939:4963   */\n      tag_159\n        /* \"#utility.yul\":4957:4962   */\n      dup2\n        /* \"#utility.yul\":4939:4963   */\n      tag_80\n      jump\t// in\n    tag_159:\n        /* \"#utility.yul\":4932:4937   */\n      dup2\n        /* \"#utility.yul\":4929:4964   */\n      eq\n        /* \"#utility.yul\":4919:4982   */\n      tag_160\n      jumpi\n        /* \"#utility.yul\":4978:4979   */\n      0x00\n        /* \"#utility.yul\":4975:4976   */\n      dup1\n        /* \"#utility.yul\":4968:4980   */\n      revert\n        /* \"#utility.yul\":4919:4982   */\n    tag_160:\n        /* \"#utility.yul\":4866:4988   */\n      pop\n      jump\t// out\n        /* \"#utility.yul\":4994:5133   */\n    tag_82:\n        /* \"#utility.yul\":5040:5045   */\n      0x00\n        /* \"#utility.yul\":5078:5084   */\n      dup2\n        /* \"#utility.yul\":5065:5085   */\n      calldataload\n        /* \"#utility.yul\":5056:5085   */\n      swap1\n      pop\n        /* \"#utility.yul\":5094:5127   */\n      tag_162\n        /* \"#utility.yul\":5121:5126   */\n      dup2\n        /* \"#utility.yul\":5094:5127   */\n      tag_81\n      jump\t// in\n    tag_162:\n        /* \"#utility.yul\":4994:5133   */\n      swap3\n      swap2\n      pop\n      pop\n      jump\t// out\n        /* \"#utility.yul\":5139:5468   */\n    tag_32:\n        /* \"#utility.yul\":5198:5204   */\n      0x00\n        /* \"#utility.yul\":5247:5249   */\n      0x20\n        /* \"#utility.yul\":5235:5244   */\n      dup3\n        /* \"#utility.yul\":5226:5233   */\n      dup5\n        /* \"#utility.yul\":5222:5245   */\n      sub\n        /* \"#utility.yul\":5218:5250   */\n      slt\n        /* \"#utility.yul\":5215:5334   */\n      iszero\n      tag_164\n      jumpi\n        /* \"#utility.yul\":5253:5332   */\n      tag_165\n      tag_63\n      jump\t// in\n    tag_165:\n        /* \"#utility.yul\":5215:5334   */\n    tag_164:\n        /* \"#utility.yul\":5373:5374   */\n      0x00\n        /* \"#utility.yul\":5398:5451   */\n      tag_166\n        /* \"#utility.yul\":5443:5450   */\n      dup5\n        /* \"#utility.yul\":5434:5440   */\n      dup3\n        /* \"#utility.yul\":5423:5432   */\n      dup6\n        /* \"#utility.yul\":5419:5441   */\n      add\n        /* \"#utility.yul\":5398:5451   */\n      tag_82\n      jump\t// in\n    tag_166:\n        /* \"#utility.yul\":5388:5451   */\n      swap2\n      pop\n        /* \"#utility.yul\":5344:5461   */\n      pop\n        /* \"#utility.yul\":5139:5468   */\n      swap3\n      swap2\n      pop\n      pop\n      jump\t// out\n        /* \"#utility.yul\":5474:5564   */\n    tag_83:\n        /* \"#utility.yul\":5508:5515   */\n      0x00\n        /* \"#utility.yul\":5551:5556   */\n      dup2\n        /* \"#utility.yul\":5544:5557   */\n      iszero\n        /* \"#utility.yul\":5537:5558   */\n      iszero\n        /* \"#utility.yul\":5526:5558   */\n      swap1\n      pop\n        /* \"#utility.yul\":5474:5564   */\n      swap2\n      swap1\n      pop\n      jump\t// out\n        /* \"#utility.yul\":5570:5679   */\n    tag_84:\n        /* \"#utility.yul\":5651:5672   */\n      tag_169\n        /* \"#utility.yul\":5666:5671   */\n      dup2\n        /* \"#utility.yul\":5651:5672   */\n      tag_83\n      jump\t// in\n    tag_169:\n        /* \"#utility.yul\":5646:5649   */\n      dup3\n        /* \"#utility.yul\":5639:5673   */\n      mstore\n        /* \"#utility.yul\":5570:5679   */\n      pop\n      pop\n      jump\t// out\n        /* \"#utility.yul\":5685:6096   */\n    tag_35:\n        /* \"#utility.yul\":5820:5824   */\n      0x00\n        /* \"#utility.yul\":5858:5860   */\n      0x40\n        /* \"#utility.yul\":5847:5856   */\n      dup3\n        /* \"#utility.yul\":5843:5861   */\n      add\n        /* \"#utility.yul\":5835:5861   */\n      swap1\n      pop\n        /* \"#utility.yul\":5907:5916   */\n      dup2\n        /* \"#utility.yul\":5901:5905   */\n      dup2\n        /* \"#utility.yul\":5897:5917   */\n      sub\n        /* \"#utility.yul\":5893:5894   */\n      0x00\n        /* \"#utility.yul\":5882:5891   */\n      dup4\n        /* \"#utility.yul\":5878:5895   */\n      add\n        /* \"#utility.yul\":5871:5918   */\n      mstore\n        /* \"#utility.yul\":5935:6013   */\n      tag_171\n        /* \"#utility.yul\":6008:6012   */\n      dup2\n        /* \"#utility.yul\":5999:6005   */\n      dup6\n        /* \"#utility.yul\":5935:6013   */\n      tag_78\n      jump\t// in\n    tag_171:\n        /* \"#utility.yul\":5927:6013   */\n      swap1\n      pop\n        /* \"#utility.yul\":6023:6089   */\n      tag_172\n        /* \"#utility.yul\":6085:6087   */\n      0x20\n        /* \"#utility.yul\":6074:6083   */\n      dup4\n        /* \"#utility.yul\":6070:6088   */\n      add\n        /* \"#utility.yul\":6061:6067   */\n      dup5\n        /* \"#utility.yul\":6023:6089   */\n      tag_84\n      jump\t// in\n    tag_172:\n        /* \"#utility.yul\":5685:6096   */\n      swap4\n      swap3\n      pop\n      pop\n      pop\n      jump\t// out\n        /* \"#utility.yul\":6102:6282   */\n    tag_85:\n        /* \"#utility.yul\":6150:6227   */\n      0x4e487b7100000000000000000000000000000000000000000000000000000000\n        /* \"#utility.yul\":6147:6148   */\n      0x00\n        /* \"#utility.yul\":6140:6228   */\n      mstore\n        /* \"#utility.yul\":6247:6251   */\n      0x22\n        /* \"#utility.yul\":6244:6245   */\n      0x04\n        /* \"#utility.yul\":6237:6252   */\n      mstore\n        /* \"#utility.yul\":6271:6275   */\n      0x24\n        /* \"#utility.yul\":6268:6269   */\n      0x00\n        /* \"#utility.yul\":6261:6276   */\n      revert\n        /* \"#utility.yul\":6288:6608   */\n    tag_55:\n        /* \"#utility.yul\":6332:6338   */\n      0x00\n        /* \"#utility.yul\":6369:6370   */\n      0x02\n        /* \"#utility.yul\":6363:6367   */\n      dup3\n        /* \"#utility.yul\":6359:6371   */\n      div\n        /* \"#utility.yul\":6349:6371   */\n      swap1\n      pop\n        /* \"#utility.yul\":6416:6417   */\n      0x01\n        /* \"#utility.yul\":6410:6414   */\n      dup3\n        /* \"#utility.yul\":6406:6418   */\n      and\n        /* \"#utility.yul\":6437:6455   */\n      dup1\n        /* \"#utility.yul\":6427:6508   */\n      tag_175\n      jumpi\n        /* \"#utility.yul\":6493:6497   */\n      0x7f\n        /* \"#utility.yul\":6485:6491   */\n      dup3\n        /* \"#utility.yul\":6481:6498   */\n      and\n        /* \"#utility.yul\":6471:6498   */\n      swap2\n      pop\n        /* \"#utility.yul\":6427:6508   */\n    tag_175:\n        /* \"#utility.yul\":6555:6557   */\n      0x20\n        /* \"#utility.yul\":6547:6553   */\n      dup3\n        /* \"#utility.yul\":6544:6558   */\n      lt\n        /* \"#utility.yul\":6524:6542   */\n      dup2\n        /* \"#utility.yul\":6521:6559   */\n      sub\n        /* \"#utility.yul\":6518:6602   */\n      tag_176\n      jumpi\n        /* \"#utility.yul\":6574:6592   */\n      tag_177\n      tag_85\n      jump\t// in\n    tag_177:\n        /* \"#utility.yul\":6518:6602   */\n    tag_176:\n        /* \"#utility.yul\":6339:6608   */\n      pop\n        /* \"#utility.yul\":6288:6608   */\n      swap2\n      swap1\n      pop\n      jump\t// out\n        /* \"#utility.yul\":6614:6755   */\n    tag_86:\n        /* \"#utility.yul\":6663:6667   */\n      0x00\n        /* \"#utility.yul\":6686:6689   */\n      dup2\n        /* \"#utility.yul\":6678:6689   */\n      swap1\n      pop\n        /* \"#utility.yul\":6709:6712   */\n      dup2\n        /* \"#utility.yul\":6706:6707   */\n      0x00\n        /* \"#utility.yul\":6699:6713   */\n      mstore\n        /* \"#utility.yul\":6743:6747   */\n      0x20\n        /* \"#utility.yul\":6740:6741   */\n      0x00\n        /* \"#utility.yul\":6730:6748   */\n      keccak256\n        /* \"#utility.yul\":6722:6748   */\n      swap1\n      pop\n        /* \"#utility.yul\":6614:6755   */\n      swap2\n      swap1\n      pop\n      jump\t// out\n        /* \"#utility.yul\":6761:6854   */\n    tag_87:\n        /* \"#utility.yul\":6798:6804   */\n      0x00\n        /* \"#utility.yul\":6845:6847   */\n      0x20\n        /* \"#utility.yul\":6840:6842   */\n      0x1f\n        /* \"#utility.yul\":6833:6838   */\n      dup4\n        /* \"#utility.yul\":6829:6843   */\n      add\n        /* \"#utility.yul\":6825:6848   */\n      div\n        /* \"#utility.yul\":6815:6848   */\n      swap1\n      pop\n        /* \"#utility.yul\":6761:6854   */\n      swap2\n      swap1\n      pop\n      jump\t// out\n        /* \"#utility.yul\":6860:6967   */\n    tag_88:\n        /* \"#utility.yul\":6904:6912   */\n      0x00\n        /* \"#utility.yul\":6954:6959   */\n      dup3\n        /* \"#utility.yul\":6948:6952   */\n      dup3\n        /* \"#utility.yul\":6944:6960   */\n      shl\n        /* \"#utility.yul\":6923:6960   */\n      swap1\n      pop\n        /* \"#utility.yul\":6860:6967   */\n      swap3\n      swap2\n      pop\n      pop\n      jump\t// out\n        /* \"#utility.yul\":6973:7366   */\n    tag_89:\n        /* \"#utility.yul\":7042:7048   */\n      0x00\n        /* \"#utility.yul\":7092:7093   */\n      0x08\n        /* \"#utility.yul\":7080:7090   */\n      dup4\n        /* \"#utility.yul\":7076:7094   */\n      mul\n        /* \"#utility.yul\":7115:7212   */\n      tag_182\n        /* \"#utility.yul\":7145:7211   */\n      0xffffffffffffffffffffffffffffffffffffffffffffffffffffffffffffffff\n        /* \"#utility.yul\":7134:7143   */\n      dup3\n        /* \"#utility.yul\":7115:7212   */\n      tag_88\n      jump\t// in\n    tag_182:\n        /* \"#utility.yul\":7233:7272   */\n      tag_183\n        /* \"#utility.yul\":7263:7271   */\n      dup7\n        /* \"#utility.yul\":7252:7261   */\n      dup4\n        /* \"#utility.yul\":7233:7272   */\n      tag_88\n      jump\t// in\n    tag_183:\n        /* \"#utility.yul\":7221:7272   */\n      swap6\n      pop\n        /* \"#utility.yul\":7305:7309   */\n      dup1\n        /* \"#utility.yul\":7301:7310   */\n      not\n        /* \"#utility.yul\":7294:7299   */\n      dup5\n        /* \"#utility.yul\":7290:7311   */\n      and\n        /* \"#utility.yul\":7281:7311   */\n      swap4\n      pop\n        /* \"#utility.yul\":7354:7358   */\n      dup1\n        /* \"#utility.yul\":7344:7352   */\n      dup7\n        /* \"#utility.yul\":7340:7359   */\n      and\n        /* \"#utility.yul\":7333:7338   */\n      dup5\n        /* \"#utility.yul\":7330:7360   */\n      or\n        /* \"#utility.yul\":7320:7360   */\n      swap3\n      pop\n        /* \"#utility.yul\":7049:7366   */\n      pop\n      pop\n        /* \"#utility.yul\":6973:7366   */\n      swap4\n      swap3\n      pop\n      pop\n      pop\n      jump\t// out\n        /* \"#utility.yul\":7372:7432   */\n    tag_90:\n        /* \"#utility.yul\":7400:7403   */\n      0x00\n        /* \"#utility.yul\":7421:7426   */\n      dup2\n        /* \"#utility.yul\":7414:7426   */\n      swap1\n      pop\n        /* \"#utility.yul\":7372:7432   */\n      swap2\n      swap1\n      pop\n      jump\t// out\n        /* \"#utility.yul\":7438:7580   */\n    tag_91:\n        /* \"#utility.yul\":7488:7497   */\n      0x00\n        /* \"#utility.yul\":7521:7574   */\n      tag_186\n        /* \"#utility.yul\":7539:7573   */\n      tag_187\n        /* \"#utility.yul\":7548:7572   */\n      tag_188\n        /* \"#utility.yul\":7566:7571   */\n      dup5\n        /* \"#utility.yul\":7548:7572   */\n      tag_60\n      jump\t// in\n    tag_188:\n        /* \"#utility.yul\":7539:7573   */\n      tag_90\n      jump\t// in\n    tag_187:\n        /* \"#utility.yul\":7521:7574   */\n      tag_60\n      jump\t// in\n    tag_186:\n        /* \"#utility.yul\":7508:7574   */\n      swap1\n      pop\n        /* \"#utility.yul\":7438:7580   */\n      swap2\n      swap1\n      pop\n      jump\t// out\n        /* \"#utility.yul\":7586:7661   */\n    tag_92:\n        /* \"#utility.yul\":7629:7632   */\n      0x00\n        /* \"#utility.yul\":7650:7655   */\n      dup2\n        /* \"#utility.yul\":7643:7655   */\n      swap1\n      pop\n        /* \"#utility.yul\":7586:7661   */\n      swap2\n      swap1\n      pop\n      jump\t// out\n        /* \"#utility.yul\":7667:7936   */\n    tag_93:\n        /* \"#utility.yul\":7777:7816   */\n      tag_191\n        /* \"#utility.yul\":7808:7815   */\n      dup4\n        /* \"#utility.yul\":7777:7816   */\n      tag_91\n      jump\t// in\n    tag_191:\n        /* \"#utility.yul\":7838:7929   */\n      tag_192\n        /* \"#utility.yul\":7887:7928   */\n      tag_193\n        /* \"#utility.yul\":7911:7927   */\n      dup3\n        /* \"#utility.yul\":7887:7928   */\n      tag_92\n      jump\t// in\n    tag_193:\n        /* \"#utility.yul\":7879:7885   */\n      dup5\n        /* \"#utility.yul\":7872:7876   */\n      dup5\n        /* \"#utility.yul\":7866:7877   */\n      sload\n        /* \"#utility.yul\":7838:7929   */\n      tag_89\n      jump\t// in\n    tag_192:\n        /* \"#utility.yul\":7832:7836   */\n      dup3\n        /* \"#utility.yul\":7825:7930   */\n      sstore\n        /* \"#utility.yul\":7743:7936   */\n      pop\n        /* \"#utility.yul\":7667:7936   */\n      pop\n      pop\n      pop\n      jump\t// out\n        /* \"#utility.yul\":7942:8015   */\n    tag_94:\n        /* \"#utility.yul\":7987:7990   */\n      0x00\n        /* \"#utility.yul\":7942:8015   */\n      swap1\n      jump\t// out\n        /* \"#utility.yul\":8021:8210   */\n    tag_95:\n        /* \"#utility.yul\":8098:8130   */\n      tag_196\n      tag_94\n      jump\t// in\n    tag_196:\n        /* \"#utility.yul\":8139:8204   */\n      tag_197\n        /* \"#utility.yul\":8197:8203   */\n      dup2\n        /* \"#utility.yul\":8189:8195   */\n      dup5\n        /* \"#utility.yul\":8183:8187   */\n      dup5\n        /* \"#utility.yul\":8139:8204   */\n      tag_93\n      jump\t// in\n    tag_197:\n        /* \"#utility.yul\":8074:8210   */\n      pop\n        /* \"#utility.yul\":8021:8210   */\n      pop\n      pop\n      jump\t// out\n        /* \"#utility.yul\":8216:8402   */\n    tag_96:\n        /* \"#utility.yul\":8276:8396   */\n    tag_199:\n        /* \"#utility.yul\":8293:8296   */\n      dup2\n        /* \"#utility.yul\":8286:8291   */\n      dup2\n        /* \"#utility.yul\":8283:8297   */\n      lt\n        /* \"#utility.yul\":8276:8396   */\n      iszero\n      tag_201\n      jumpi\n        /* \"#utility.yul\":8347:8386   */\n      tag_202\n        /* \"#utility.yul\":8384:8385   */\n      0x00\n        /* \"#utility.yul\":8377:8382   */\n      dup3\n        /* \"#utility.yul\":8347:8386   */\n      tag_95\n      jump\t// in\n    tag_202:\n        /* \"#utility.yul\":8320:8321   */\n      0x01\n        /* \"#utility.yul\":8313:8318   */\n      dup2\n        /* \"#utility.yul\":8309:8322   */\n      add\n        /* \"#utility.yul\":8300:8322   */\n      swap1\n      pop\n        /* \"#utility.yul\":8276:8396   */\n      jump(tag_199)\n    tag_201:\n        /* \"#utility.yul\":8216:8402   */\n      pop\n      pop\n      jump\t// out\n        /* \"#utility.yul\":8408:8951   */\n    tag_97:\n        /* \"#utility.yul\":8509:8511   */\n      0x1f\n        /* \"#utility.yul\":8504:8507   */\n      dup3\n        /* \"#utility.yul\":8501:8512   */\n      gt\n        /* \"#utility.yul\":8498:8944   */\n      iszero\n      tag_204\n      jumpi\n        /* \"#utility.yul\":8543:8581   */\n      tag_205\n        /* \"#utility.yul\":8575:8580   */\n      dup2\n        /* \"#utility.yul\":8543:8581   */\n      tag_86\n      jump\t// in\n    tag_205:\n        /* \"#utility.yul\":8627:8656   */\n      tag_206\n        /* \"#utility.yul\":8645:8655   */\n      dup5\n        /* \"#utility.yul\":8627:8656   */\n      tag_87\n      jump\t// in\n    tag_206:\n        /* \"#utility.yul\":8617:8625   */\n      dup2\n        /* \"#utility.yul\":8613:8657   */\n      add\n        /* \"#utility.yul\":8810:8812   */\n      0x20\n        /* \"#utility.yul\":8798:8808   */\n      dup6\n        /* \"#utility.yul\":8795:8813   */\n      lt\n        /* \"#utility.yul\":8792:8841   */\n      iszero\n      tag_207\n      jumpi\n        /* \"#utility.yul\":8831:8839   */\n      dup2\n        /* \"#utility.yul\":8816:8839   */\n      swap1\n      pop\n        /* \"#utility.yul\":8792:8841   */\n    tag_207:\n        /* \"#utility.yul\":8854:8934   */\n      tag_208\n        /* \"#utility.yul\":8910:8932   */\n      tag_209\n        /* \"#utility.yul\":8928:8931   */\n      dup6\n        /* \"#utility.yul\":8910:8932   */\n      tag_87\n      jump\t// in\n    tag_209:\n        /* \"#utility.yul\":8900:8908   */\n      dup4\n        /* \"#utility.yul\":8896:8933   */\n      add\n        /* \"#utility.yul\":8883:8894   */\n      dup3\n        /* \"#utility.yul\":8854:8934   */\n      tag_96\n      jump\t// in\n    tag_208:\n        /* \"#utility.yul\":8513:8944   */\n      pop\n      pop\n        /* \"#utility.yul\":8498:8944   */\n    tag_204:\n        /* \"#utility.yul\":8408:8951   */\n      pop\n      pop\n      pop\n      jump\t// out\n        /* \"#utility.yul\":8957:9074   */\n    tag_98:\n        /* \"#utility.yul\":9011:9019   */\n      0x00\n        /* \"#utility.yul\":9061:9066   */\n      dup3\n        /* \"#utility.yul\":9055:9059   */\n      dup3\n        /* \"#utility.yul\":9051:9067   */\n      shr\n        /* \"#utility.yul\":9030:9067   */\n      swap1\n      pop\n        /* \"#utility.yul\":8957:9074   */\n      swap3\n      swap2\n      pop\n      pop\n      jump\t// out\n        /* \"#utility.yul\":9080:9249   */\n    tag_99:\n        /* \"#utility.yul\":9124:9130   */\n      0x00\n        /* \"#utility.yul\":9157:9208   */\n      tag_212\n        /* \"#utility.yul\":9205:9206   */\n      0x00\n        /* \"#utility.yul\":9201:9207   */\n      not\n        /* \"#utility.yul\":9193:9198   */\n      dup5\n        /* \"#utility.yul\":9190:9191   */\n      0x08\n        /* \"#utility.yul\":9186:9199   */\n      mul\n        /* \"#utility.yul\":9157:9208   */\n      tag_98\n      jump\t// in\n    tag_212:\n        /* \"#utility.yul\":9153:9209   */\n      not\n        /* \"#utility.yul\":9238:9242   */\n      dup1\n        /* \"#utility.yul\":9232:9236   */\n      dup4\n        /* \"#utility.yul\":9228:9243   */\n      and\n        /* \"#utility.yul\":9218:9243   */\n      swap2\n      pop\n        /* \"#utility.yul\":9131:9249   */\n      pop\n        /* \"#utility.yul\":9080:9249   */\n      swap3\n      swap2\n      pop\n      pop\n      jump\t// out\n        /* \"#utility.yul\":9254:9549   */\n    tag_100:\n        /* \"#utility.yul\":9330:9334   */\n      0x00\n        /* \"#utility.yul\":9476:9505   */\n      tag_214\n        /* \"#utility.yul\":9501:9504   */\n      dup4\n        /* \"#utility.yul\":9495:9499   */\n      dup4\n        /* \"#utility.yul\":9476:9505   */\n      tag_99\n      jump\t// in\n    tag_214:\n        /* \"#utility.yul\":9468:9505   */\n      swap2\n      pop\n        /* \"#utility.yul\":9538:9541   */\n      dup3\n        /* \"#utility.yul\":9535:9536   */\n      0x02\n        /* \"#utility.yul\":9531:9542   */\n      mul\n        /* \"#utility.yul\":9525:9529   */\n      dup3\n        /* \"#utility.yul\":9522:9543   */\n      or\n        /* \"#utility.yul\":9514:9543   */\n      swap1\n      pop\n        /* \"#utility.yul\":9254:9549   */\n      swap3\n      swap2\n      pop\n      pop\n      jump\t// out\n        /* \"#utility.yul\":9554:10949   */\n    tag_38:\n        /* \"#utility.yul\":9671:9708   */\n      tag_216\n        /* \"#utility.yul\":9704:9707   */\n      dup3\n        /* \"#utility.yul\":9671:9708   */\n      tag_75\n      jump\t// in\n    tag_216:\n        /* \"#utility.yul\":9773:9791   */\n      0xffffffffffffffff\n        /* \"#utility.yul\":9765:9771   */\n      dup2\n        /* \"#utility.yul\":9762:9792   */\n      gt\n        /* \"#utility.yul\":9759:9815   */\n      iszero\n      tag_217\n      jumpi\n        /* \"#utility.yul\":9795:9813   */\n      tag_218\n      tag_68\n      jump\t// in\n    tag_218:\n        /* \"#utility.yul\":9759:9815   */\n    tag_217:\n        /* \"#utility.yul\":9839:9877   */\n      tag_219\n        /* \"#utility.yul\":9871:9875   */\n      dup3\n        /* \"#utility.yul\":9865:9876   */\n      sload\n        /* \"#utility.yul\":9839:9877   */\n      tag_55\n      jump\t// in\n    tag_219:\n        /* \"#utility.yul\":9924:9991   */\n      tag_220\n        /* \"#utility.yul\":9984:9990   */\n      dup3\n        /* \"#utility.yul\":9976:9982   */\n      dup3\n        /* \"#utility.yul\":9970:9974   */\n      dup6\n        /* \"#utility.yul\":9924:9991   */\n      tag_97\n      jump\t// in\n    tag_220:\n        /* \"#utility.yul\":10018:10019   */\n      0x00\n        /* \"#utility.yul\":10042:10046   */\n      0x20\n        /* \"#utility.yul\":10029:10046   */\n      swap1\n      pop\n        /* \"#utility.yul\":10074:10076   */\n      0x1f\n        /* \"#utility.yul\":10066:10072   */\n      dup4\n        /* \"#utility.yul\":10063:10077   */\n      gt\n        /* \"#utility.yul\":10091:10092   */\n      0x01\n        /* \"#utility.yul\":10086:10704   */\n      dup2\n      eq\n      tag_222\n      jumpi\n        /* \"#utility.yul\":10748:10749   */\n      0x00\n        /* \"#utility.yul\":10765:10771   */\n      dup5\n        /* \"#utility.yul\":10762:10839   */\n      iszero\n      tag_223\n      jumpi\n        /* \"#utility.yul\":10814:10823   */\n      dup3\n        /* \"#utility.yul\":10809:10812   */\n      dup8\n        /* \"#utility.yul\":10805:10824   */\n      add\n        /* \"#utility.yul\":10799:10825   */\n      mload\n        /* \"#utility.yul\":10790:10825   */\n      swap1\n      pop\n        /* \"#utility.yul\":10762:10839   */\n    tag_223:\n        /* \"#utility.yul\":10865:10932   */\n      tag_224\n        /* \"#utility.yul\":10925:10931   */\n      dup6\n        /* \"#utility.yul\":10918:10923   */\n      dup3\n        /* \"#utility.yul\":10865:10932   */\n      tag_100\n      jump\t// in\n    tag_224:\n        /* \"#utility.yul\":10859:10863   */\n      dup7\n        /* \"#utility.yul\":10852:10933   */\n      sstore\n        /* \"#utility.yul\":10721:10943   */\n      pop\n        /* \"#utility.yul\":10056:10943   */\n      jump(tag_221)\n        /* \"#utility.yul\":10086:10704   */\n    tag_222:\n        /* \"#utility.yul\":10138:10142   */\n      0x1f\n        /* \"#utility.yul\":10134:10143   */\n      not\n        /* \"#utility.yul\":10126:10132   */\n      dup5\n        /* \"#utility.yul\":10122:10144   */\n      and\n        /* \"#utility.yul\":10172:10209   */\n      tag_225\n        /* \"#utility.yul\":10204:10208   */\n      dup7\n        /* \"#utility.yul\":10172:10209   */\n      tag_86\n      jump\t// in\n    tag_225:\n        /* \"#utility.yul\":10231:10232   */\n      0x00\n        /* \"#utility.yul\":10245:10453   */\n    tag_226:\n        /* \"#utility.yul\":10259:10266   */\n      dup3\n        /* \"#utility.yul\":10256:10257   */\n      dup2\n        /* \"#utility.yul\":10253:10267   */\n      lt\n        /* \"#utility.yul\":10245:10453   */\n      iszero\n      tag_228\n      jumpi\n        /* \"#utility.yul\":10338:10347   */\n      dup5\n        /* \"#utility.yul\":10333:10336   */\n      dup10\n        /* \"#utility.yul\":10329:10348   */\n      add\n        /* \"#utility.yul\":10323:10349   */\n      mload\n        /* \"#utility.yul\":10315:10321   */\n      dup3\n        /* \"#utility.yul\":10308:10350   */\n      sstore\n        /* \"#utility.yul\":10389:10390   */\n      0x01\n        /* \"#utility.yul\":10381:10387   */\n      dup3\n        /* \"#utility.yul\":10377:10391   */\n      add\n        /* \"#utility.yul\":10367:10391   */\n      swap2\n      pop\n        /* \"#utility.yul\":10436:10438   */\n      0x20\n        /* \"#utility.yul\":10425:10434   */\n      dup6\n        /* \"#utility.yul\":10421:10439   */\n      add\n        /* \"#utility.yul\":10408:10439   */\n      swap5\n      pop\n        /* \"#utility.yul\":10282:10286   */\n      0x20\n        /* \"#utility.yul\":10279:10280   */\n      dup2\n        /* \"#utility.yul\":10275:10287   */\n      add\n        /* \"#utility.yul\":10270:10287   */\n      swap1\n      pop\n        /* \"#utility.yul\":10245:10453   */\n      jump(tag_226)\n    tag_228:\n        /* \"#utility.yul\":10481:10487   */\n      dup7\n        /* \"#utility.yul\":10472:10479   */\n      dup4\n        /* \"#utility.yul\":10469:10488   */\n      lt\n        /* \"#utility.yul\":10466:10645   */\n      iszero\n      tag_229\n      jumpi\n        /* \"#utility.yul\":10539:10548   */\n      dup5\n        /* \"#utility.yul\":10534:10537   */\n      dup10\n        /* \"#utility.yul\":10530:10549   */\n      add\n        /* \"#utility.yul\":10524:10550   */\n      mload\n        /* \"#utility.yul\":10582:10630   */\n      tag_230\n        /* \"#utility.yul\":10624:10628   */\n      0x1f\n        /* \"#utility.yul\":10616:10622   */\n      dup10\n        /* \"#utility.yul\":10612:10629   */\n      and\n        /* \"#utility.yul\":10601:10610   */\n      dup3\n        /* \"#utility.yul\":10582:10630   */\n      tag_99\n      jump\t// in\n    tag_230:\n        /* \"#utility.yul\":10574:10580   */\n      dup4\n        /* \"#utility.yul\":10567:10631   */\n      sstore\n        /* \"#utility.yul\":10489:10645   */\n      pop\n        /* \"#utility.yul\":10466:10645   */\n    tag_229:\n        /* \"#utility.yul\":10691:10692   */\n      0x01\n        /* \"#utility.yul\":10687:10688   */\n      0x02\n        /* \"#utility.yul\":10679:10685   */\n      dup9\n        /* \"#utility.yul\":10675:10689   */\n      mul\n        /* \"#utility.yul\":10671:10693   */\n      add\n        /* \"#utility.yul\":10665:10669   */\n      dup9\n        /* \"#utility.yul\":10658:10694   */\n      sstore\n        /* \"#utility.yul\":10093:10704   */\n      pop\n      pop\n      pop\n        /* \"#utility.yul\":10056:10943   */\n    tag_221:\n      pop\n        /* \"#utility.yul\":9646:10949   */\n      pop\n      pop\n      pop\n        /* \"#utility.yul\":9554:10949   */\n      pop\n      pop\n      jump\t// out\n        /* \"#utility.yul\":10955:11126   */\n    tag_101:\n        /* \"#utility.yul\":11095:11118   */\n      0x796f752061726520616c726561647920766f7465640000000000000000000000\n        /* \"#utility.yul\":11091:11092   */\n      0x00\n        /* \"#utility.yul\":11083:11089   */\n      dup3\n        /* \"#utility.yul\":11079:11093   */\n      add\n        /* \"#utility.yul\":11072:11119   */\n      mstore\n        /* \"#utility.yul\":10955:11126   */\n      pop\n      jump\t// out\n        /* \"#utility.yul\":11132:11498   */\n    tag_102:\n        /* \"#utility.yul\":11274:11277   */\n      0x00\n        /* \"#utility.yul\":11295:11362   */\n      tag_233\n        /* \"#utility.yul\":11359:11361   */\n      0x15\n        /* \"#utility.yul\":11354:11357   */\n      dup4\n        /* \"#utility.yul\":11295:11362   */\n      tag_76\n      jump\t// in\n    tag_233:\n        /* \"#utility.yul\":11288:11362   */\n      swap2\n      pop\n        /* \"#utility.yul\":11371:11464   */\n      tag_234\n        /* \"#utility.yul\":11460:11463   */\n      dup3\n        /* \"#utility.yul\":11371:11464   */\n      tag_101\n      jump\t// in\n    tag_234:\n        /* \"#utility.yul\":11489:11491   */\n      0x20\n        /* \"#utility.yul\":11484:11487   */\n      dup3\n        /* \"#utility.yul\":11480:11492   */\n      add\n        /* \"#utility.yul\":11473:11492   */\n      swap1\n      pop\n        /* \"#utility.yul\":11132:11498   */\n      swap2\n      swap1\n      pop\n      jump\t// out\n        /* \"#utility.yul\":11504:11923   */\n    tag_47:\n        /* \"#utility.yul\":11670:11674   */\n      0x00\n        /* \"#utility.yul\":11708:11710   */\n      0x20\n        /* \"#utility.yul\":11697:11706   */\n      dup3\n        /* \"#utility.yul\":11693:11711   */\n      add\n        /* \"#utility.yul\":11685:11711   */\n      swap1\n      pop\n        /* \"#utility.yul\":11757:11766   */\n      dup2\n        /* \"#utility.yul\":11751:11755   */\n      dup2\n        /* \"#utility.yul\":11747:11767   */\n      sub\n        /* \"#utility.yul\":11743:11744   */\n      0x00\n        /* \"#utility.yul\":11732:11741   */\n      dup4\n        /* \"#utility.yul\":11728:11745   */\n      add\n        /* \"#utility.yul\":11721:11768   */\n      mstore\n        /* \"#utility.yul\":11785:11916   */\n      tag_236\n        /* \"#utility.yul\":11911:11915   */\n      dup2\n        /* \"#utility.yul\":11785:11916   */\n      tag_102\n      jump\t// in\n    tag_236:\n        /* \"#utility.yul\":11777:11916   */\n      swap1\n      pop\n        /* \"#utility.yul\":11504:11923   */\n      swap2\n      swap1\n      pop\n      jump\t// out\n        /* \"#utility.yul\":11929:12109   */\n    tag_103:\n        /* \"#utility.yul\":11977:12054   */\n      0x4e487b7100000000000000000000000000000000000000000000000000000000\n        /* \"#utility.yul\":11974:11975   */\n      0x00\n        /* \"#utility.yul\":11967:12055   */\n      mstore\n        /* \"#utility.yul\":12074:12078   */\n      0x11\n        /* \"#utility.yul\":12071:12072   */\n      0x04\n        /* \"#utility.yul\":12064:12079   */\n      mstore\n        /* \"#utility.yul\":12098:12102   */\n      0x24\n        /* \"#utility.yul\":12095:12096   */\n      0x00\n        /* \"#utility.yul\":12088:12103   */\n      revert\n        /* \"#utility.yul\":12115:12348   */\n    tag_49:\n        /* \"#utility.yul\":12154:12157   */\n      0x00\n        /* \"#utility.yul\":12177:12201   */\n      tag_239\n        /* \"#utility.yul\":12195:12200   */\n      dup3\n        /* \"#utility.yul\":12177:12201   */\n      tag_60\n      jump\t// in\n    tag_239:\n        /* \"#utility.yul\":12168:12201   */\n      swap2\n      pop\n        /* \"#utility.yul\":12223:12289   */\n      0xffffffffffffffffffffffffffffffffffffffffffffffffffffffffffffffff\n        /* \"#utility.yul\":12216:12221   */\n      dup3\n        /* \"#utility.yul\":12213:12290   */\n      sub\n        /* \"#utility.yul\":12210:12313   */\n      tag_240\n      jumpi\n        /* \"#utility.yul\":12293:12311   */\n      tag_241\n      tag_103\n      jump\t// in\n    tag_241:\n        /* \"#utility.yul\":12210:12313   */\n    tag_240:\n        /* \"#utility.yul\":12340:12341   */\n      0x01\n        /* \"#utility.yul\":12333:12338   */\n      dup3\n        /* \"#utility.yul\":12329:12342   */\n      add\n        /* \"#utility.yul\":12322:12342   */\n      swap1\n      pop\n        /* \"#utility.yul\":12115:12348   */\n      swap2\n      swap1\n      pop\n      jump\t// out\n\n    auxdata: 0xa2646970667358221220042d2917cdc82bc18395da5dc25a80dba3f82657a8b80df845b2ea6d7f16ba4a64736f6c63430008190033\n}\n",
				"bytecode": {
					"linkReferences": {},
					"object": "6080604052348015600e575f80fd5b50610c4b8061001c5f395ff3fe608060405234801561000f575f80fd5b506004361061007b575f3560e01c80636f726dda116100595780636f726dda146100d7578063b6c52ae8146100e1578063df66f294146100ff578063fdedaa8a146101095761007b565b80634c6c9b781461007f5780636428a4861461009d57806365372147146100b9575b5f80fd5b61008761013a565b6040516100949190610576565b60405180910390f35b6100b760048036038101906100b291906106dc565b61013f565b005b6100c16101d1565b6040516100ce9190610783565b60405180910390f35b6100df61029f565b005b6100e96103a3565b6040516100f69190610576565b60405180910390f35b6101076103a9565b005b610123600480360381019061011e91906107fd565b6104ac565b604051610131929190610842565b60405180910390f35b5f5481565b5f60405180604001604052808381526020015f151581525090508060025f3373ffffffffffffffffffffffffffffffffffffffff1673ffffffffffffffffffffffffffffffffffffffff1681526020019081526020015f205f820151815f0190816101aa9190610a6a565b506020820151816001015f6101000a81548160ff0219169083151502179055509050505050565b60606001545f54111561021b576040518060400160405280600381526020017f7965730000000000000000000000000000000000000000000000000000000000815250905061029c565b6001545f541015610263576040518060400160405280600281526020017f6e6f000000000000000000000000000000000000000000000000000000000000815250905061029c565b6040518060400160405280600381526020017f746965000000000000000000000000000000000000000000000000000000000081525090505b90565b6001151560025f3373ffffffffffffffffffffffffffffffffffffffff1673ffffffffffffffffffffffffffffffffffffffff1681526020019081526020015f206001015f9054906101000a900460ff16151503610332576040517f08c379a000000000000000000000000000000000000000000000000000000000815260040161032990610b83565b60405180910390fd5b600160025f3373ffffffffffffffffffffffffffffffffffffffff1673ffffffffffffffffffffffffffffffffffffffff1681526020019081526020015f206001015f6101000a81548160ff02191690831515021790555060015f81548092919061039c90610bce565b9190505550565b60015481565b6001151560025f3373ffffffffffffffffffffffffffffffffffffffff1673ffffffffffffffffffffffffffffffffffffffff1681526020019081526020015f206001015f9054906101000a900460ff1615150361043c576040517f08c379a000000000000000000000000000000000000000000000000000000000815260040161043390610b83565b60405180910390fd5b600160025f3373ffffffffffffffffffffffffffffffffffffffff1673ffffffffffffffffffffffffffffffffffffffff1681526020019081526020015f206001015f6101000a81548160ff0219169083151502179055505f808154809291906104a590610bce565b9190505550565b6002602052805f5260405f205f91509050805f0180546104cb9061089d565b80601f01602080910402602001604051908101604052809291908181526020018280546104f79061089d565b80156105425780601f1061051957610100808354040283529160200191610542565b820191905f5260205f20905b81548152906001019060200180831161052557829003601f168201915b505050505090806001015f9054906101000a900460ff16905082565b5f819050919050565b6105708161055e565b82525050565b5f6020820190506105895f830184610567565b92915050565b5f604051905090565b5f80fd5b5f80fd5b5f80fd5b5f80fd5b5f601f19601f8301169050919050565b7f4e487b71000000000000000000000000000000000000000000000000000000005f52604160045260245ffd5b6105ee826105a8565b810181811067ffffffffffffffff8211171561060d5761060c6105b8565b5b80604052505050565b5f61061f61058f565b905061062b82826105e5565b919050565b5f67ffffffffffffffff82111561064a576106496105b8565b5b610653826105a8565b9050602081019050919050565b828183375f83830152505050565b5f61068061067b84610630565b610616565b90508281526020810184848401111561069c5761069b6105a4565b5b6106a7848285610660565b509392505050565b5f82601f8301126106c3576106c26105a0565b5b81356106d384826020860161066e565b91505092915050565b5f602082840312156106f1576106f0610598565b5b5f82013567ffffffffffffffff81111561070e5761070d61059c565b5b61071a848285016106af565b91505092915050565b5f81519050919050565b5f82825260208201905092915050565b8281835e5f83830152505050565b5f61075582610723565b61075f818561072d565b935061076f81856020860161073d565b610778816105a8565b840191505092915050565b5f6020820190508181035f83015261079b818461074b565b905092915050565b5f73ffffffffffffffffffffffffffffffffffffffff82169050919050565b5f6107cc826107a3565b9050919050565b6107dc816107c2565b81146107e6575f80fd5b50565b5f813590506107f7816107d3565b92915050565b5f6020828403121561081257610811610598565b5b5f61081f848285016107e9565b91505092915050565b5f8115159050919050565b61083c81610828565b82525050565b5f6040820190508181035f83015261085a818561074b565b90506108696020830184610833565b9392505050565b7f4e487b71000000000000000000000000000000000000000000000000000000005f52602260045260245ffd5b5f60028204905060018216806108b457607f821691505b6020821081036108c7576108c6610870565b5b50919050565b5f819050815f5260205f209050919050565b5f6020601f8301049050919050565b5f82821b905092915050565b5f600883026109297fffffffffffffffffffffffffffffffffffffffffffffffffffffffffffffffff826108ee565b61093386836108ee565b95508019841693508086168417925050509392505050565b5f819050919050565b5f61096e6109696109648461055e565b61094b565b61055e565b9050919050565b5f819050919050565b61098783610954565b61099b61099382610975565b8484546108fa565b825550505050565b5f90565b6109af6109a3565b6109ba81848461097e565b505050565b5b818110156109dd576109d25f826109a7565b6001810190506109c0565b5050565b601f821115610a22576109f3816108cd565b6109fc846108df565b81016020851015610a0b578190505b610a1f610a17856108df565b8301826109bf565b50505b505050565b5f82821c905092915050565b5f610a425f1984600802610a27565b1980831691505092915050565b5f610a5a8383610a33565b9150826002028217905092915050565b610a7382610723565b67ffffffffffffffff811115610a8c57610a8b6105b8565b5b610a96825461089d565b610aa18282856109e1565b5f60209050601f831160018114610ad2575f8415610ac0578287015190505b610aca8582610a4f565b865550610b31565b601f198416610ae0866108cd565b5f5b82811015610b0757848901518255600182019150602085019450602081019050610ae2565b86831015610b245784890151610b20601f891682610a33565b8355505b6001600288020188555050505b505050505050565b7f796f752061726520616c726561647920766f74656400000000000000000000005f82015250565b5f610b6d60158361072d565b9150610b7882610b39565b602082019050919050565b5f6020820190508181035f830152610b9a81610b61565b9050919050565b7f4e487b71000000000000000000000000000000000000000000000000000000005f52601160045260245ffd5b5f610bd88261055e565b91507fffffffffffffffffffffffffffffffffffffffffffffffffffffffffffffffff8203610c0a57610c09610ba1565b5b60018201905091905056fea2646970667358221220042d2917cdc82bc18395da5dc25a80dba3f82657a8b80df845b2ea6d7f16ba4a64736f6c63430008190033",
					"opcodes": "PUSH1 0x80 PUSH1 0x40 MSTORE CALLVALUE DUP1 ISZERO PUSH1 0xE JUMPI PUSH0 DUP1 REVERT JUMPDEST POP PUSH2 0xC4B DUP1 PUSH2 0x1C PUSH0 CODECOPY PUSH0 RETURN INVALID PUSH1 0x80 PUSH1 0x40 MSTORE CALLVALUE DUP1 ISZERO PUSH2 0xF JUMPI PUSH0 DUP1 REVERT JUMPDEST POP PUSH1 0x4 CALLDATASIZE LT PUSH2 0x7B JUMPI PUSH0 CALLDATALOAD PUSH1 0xE0 SHR DUP1 PUSH4 0x6F726DDA GT PUSH2 0x59 JUMPI DUP1 PUSH4 0x6F726DDA EQ PUSH2 0xD7 JUMPI DUP1 PUSH4 0xB6C52AE8 EQ PUSH2 0xE1 JUMPI DUP1 PUSH4 0xDF66F294 EQ PUSH2 0xFF JUMPI DUP1 PUSH4 0xFDEDAA8A EQ PUSH2 0x109 JUMPI PUSH2 0x7B JUMP JUMPDEST DUP1 PUSH4 0x4C6C9B78 EQ PUSH2 0x7F JUMPI DUP1 PUSH4 0x6428A486 EQ PUSH2 0x9D JUMPI DUP1 PUSH4 0x65372147 EQ PUSH2 0xB9 JUMPI JUMPDEST PUSH0 DUP1 REVERT JUMPDEST PUSH2 0x87 PUSH2 0x13A JUMP JUMPDEST PUSH1 0x40 MLOAD PUSH2 0x94 SWAP2 SWAP1 PUSH2 0x576 JUMP JUMPDEST PUSH1 0x40 MLOAD DUP1 SWAP2 SUB SWAP1 RETURN JUMPDEST PUSH2 0xB7 PUSH1 0x4 DUP1 CALLDATASIZE SUB DUP2 ADD SWAP1 PUSH2 0xB2 SWAP2 SWAP1 PUSH2 0x6DC JUMP JUMPDEST PUSH2 0x13F JUMP JUMPDEST STOP JUMPDEST PUSH2 0xC1 PUSH2 0x1D1 JUMP JUMPDEST PUSH1 0x40 MLOAD PUSH2 0xCE SWAP2 SWAP1 PUSH2 0x783 JUMP JUMPDEST PUSH1 0x40 MLOAD DUP1 SWAP2 SUB SWAP1 RETURN JUMPDEST PUSH2 0xDF PUSH2 0x29F JUMP JUMPDEST STOP JUMPDEST PUSH2 0xE9 PUSH2 0x3A3 JUMP JUMPDEST PUSH1 0x40 MLOAD PUSH2 0xF6 SWAP2 SWAP1 PUSH2 0x576 JUMP JUMPDEST PUSH1 0x40 MLOAD DUP1 SWAP2 SUB SWAP1 RETURN JUMPDEST PUSH2 0x107 PUSH2 0x3A9 JUMP JUMPDEST STOP JUMPDEST PUSH2 0x123 PUSH1 0x4 DUP1 CALLDATASIZE SUB DUP2 ADD SWAP1 PUSH2 0x11E SWAP2 SWAP1 PUSH2 0x7FD JUMP JUMPDEST PUSH2 0x4AC JUMP JUMPDEST PUSH1 0x40 MLOAD PUSH2 0x131 SWAP3 SWAP2 SWAP1 PUSH2 0x842 JUMP JUMPDEST PUSH1 0x40 MLOAD DUP1 SWAP2 SUB SWAP1 RETURN JUMPDEST PUSH0 SLOAD DUP2 JUMP JUMPDEST PUSH0 PUSH1 0x40 MLOAD DUP1 PUSH1 0x40 ADD PUSH1 0x40 MSTORE DUP1 DUP4 DUP2 MSTORE PUSH1 0x20 ADD PUSH0 ISZERO ISZERO DUP2 MSTORE POP SWAP1 POP DUP1 PUSH1 0x2 PUSH0 CALLER PUSH20 0xFFFFFFFFFFFFFFFFFFFFFFFFFFFFFFFFFFFFFFFF AND PUSH20 0xFFFFFFFFFFFFFFFFFFFFFFFFFFFFFFFFFFFFFFFF AND DUP2 MSTORE PUSH1 0x20 ADD SWAP1 DUP2 MSTORE PUSH1 0x20 ADD PUSH0 KECCAK256 PUSH0 DUP3 ADD MLOAD DUP2 PUSH0 ADD SWAP1 DUP2 PUSH2 0x1AA SWAP2 SWAP1 PUSH2 0xA6A JUMP JUMPDEST POP PUSH1 0x20 DUP3 ADD MLOAD DUP2 PUSH1 0x1 ADD PUSH0 PUSH2 0x100 EXP DUP2 SLOAD DUP2 PUSH1 0xFF MUL NOT AND SWAP1 DUP4 ISZERO ISZERO MUL OR SWAP1 SSTORE POP SWAP1 POP POP POP POP JUMP JUMPDEST PUSH1 0x60 PUSH1 0x1 SLOAD PUSH0 SLOAD GT ISZERO PUSH2 0x21B JUMPI PUSH1 0x40 MLOAD DUP1 PUSH1 0x40 ADD PUSH1 0x40 MSTORE DUP1 PUSH1 0x3 DUP2 MSTORE PUSH1 0x20 ADD PUSH32 0x7965730000000000000000000000000000000000000000000000000000000000 DUP2 MSTORE POP SWAP1 POP PUSH2 0x29C JUMP JUMPDEST PUSH1 0x1 SLOAD PUSH0 SLOAD LT ISZERO PUSH2 0x263 JUMPI PUSH1 0x40 MLOAD DUP1 PUSH1 0x40 ADD PUSH1 0x40 MSTORE DUP1 PUSH1 0x2 DUP2 MSTORE PUSH1 0x20 ADD PUSH32 0x6E6F000000000000000000000000000000000000000000000000000000000000 DUP2 MSTORE POP SWAP1 POP PUSH2 0x29C JUMP JUMPDEST PUSH1 0x40 MLOAD DUP1 PUSH1 0x40 ADD PUSH1 0x40 MSTORE DUP1 PUSH1 0x3 DUP2 MSTORE PUSH1 0x20 ADD PUSH32 0x7469650000000000000000000000000000000000000000000000000000000000 DUP2 MSTORE POP SWAP1 POP JUMPDEST SWAP1 JUMP JUMPDEST PUSH1 0x1 ISZERO ISZERO PUSH1 0x2 PUSH0 CALLER PUSH20 0xFFFFFFFFFFFFFFFFFFFFFFFFFFFFFFFFFFFFFFFF AND PUSH20 0xFFFFFFFFFFFFFFFFFFFFFFFFFFFFFFFFFFFFFFFF AND DUP2 MSTORE PUSH1 0x20 ADD SWAP1 DUP2 MSTORE PUSH1 0x20 ADD PUSH0 KECCAK256 PUSH1 0x1 ADD PUSH0 SWAP1 SLOAD SWAP1 PUSH2 0x100 EXP SWAP1 DIV PUSH1 0xFF AND ISZERO ISZERO SUB PUSH2 0x332 JUMPI PUSH1 0x40 MLOAD PUSH32 0x8C379A000000000000000000000000000000000000000000000000000000000 DUP2 MSTORE PUSH1 0x4 ADD PUSH2 0x329 SWAP1 PUSH2 0xB83 JUMP JUMPDEST PUSH1 0x40 MLOAD DUP1 SWAP2 SUB SWAP1 REVERT JUMPDEST PUSH1 0x1 PUSH1 0x2 PUSH0 CALLER PUSH20 0xFFFFFFFFFFFFFFFFFFFFFFFFFFFFFFFFFFFFFFFF AND PUSH20 0xFFFFFFFFFFFFFFFFFFFFFFFFFFFFFFFFFFFFFFFF AND DUP2 MSTORE PUSH1 0x20 ADD SWAP1 DUP2 MSTORE PUSH1 0x20 ADD PUSH0 KECCAK256 PUSH1 0x1 ADD PUSH0 PUSH2 0x100 EXP DUP2 SLOAD DUP2 PUSH1 0xFF MUL NOT AND SWAP1 DUP4 ISZERO ISZERO MUL OR SWAP1 SSTORE POP PUSH1 0x1 PUSH0 DUP2 SLOAD DUP1 SWAP3 SWAP2 SWAP1 PUSH2 0x39C SWAP1 PUSH2 0xBCE JUMP JUMPDEST SWAP2 SWAP1 POP SSTORE POP JUMP JUMPDEST PUSH1 0x1 SLOAD DUP2 JUMP JUMPDEST PUSH1 0x1 ISZERO ISZERO PUSH1 0x2 PUSH0 CALLER PUSH20 0xFFFFFFFFFFFFFFFFFFFFFFFFFFFFFFFFFFFFFFFF AND PUSH20 0xFFFFFFFFFFFFFFFFFFFFFFFFFFFFFFFFFFFFFFFF AND DUP2 MSTORE PUSH1 0x20 ADD SWAP1 DUP2 MSTORE PUSH1 0x20 ADD PUSH0 KECCAK256 PUSH1 0x1 ADD PUSH0 SWAP1 SLOAD SWAP1 PUSH2 0x100 EXP SWAP1 DIV PUSH1 0xFF AND ISZERO ISZERO SUB PUSH2 0x43C JUMPI PUSH1 0x40 MLOAD PUSH32 0x8C379A000000000000000000000000000000000000000000000000000000000 DUP2 MSTORE PUSH1 0x4 ADD PUSH2 0x433 SWAP1 PUSH2 0xB83 JUMP JUMPDEST PUSH1 0x40 MLOAD DUP1 SWAP2 SUB SWAP1 REVERT JUMPDEST PUSH1 0x1 PUSH1 0x2 PUSH0 CALLER PUSH20 0xFFFFFFFFFFFFFFFFFFFFFFFFFFFFFFFFFFFFFFFF AND PUSH20 0xFFFFFFFFFFFFFFFFFFFFFFFFFFFFFFFFFFFFFFFF AND DUP2 MSTORE PUSH1 0x20 ADD SWAP1 DUP2 MSTORE PUSH1 0x20 ADD PUSH0 KECCAK256 PUSH1 0x1 ADD PUSH0 PUSH2 0x100 EXP DUP2 SLOAD DUP2 PUSH1 0xFF MUL NOT AND SWAP1 DUP4 ISZERO ISZERO MUL OR SWAP1 SSTORE POP PUSH0 DUP1 DUP2 SLOAD DUP1 SWAP3 SWAP2 SWAP1 PUSH2 0x4A5 SWAP1 PUSH2 0xBCE JUMP JUMPDEST SWAP2 SWAP1 POP SSTORE POP JUMP JUMPDEST PUSH1 0x2 PUSH1 0x20 MSTORE DUP1 PUSH0 MSTORE PUSH1 0x40 PUSH0 KECCAK256 PUSH0 SWAP2 POP SWAP1 POP DUP1 PUSH0 ADD DUP1 SLOAD PUSH2 0x4CB SWAP1 PUSH2 0x89D JUMP JUMPDEST DUP1 PUSH1 0x1F ADD PUSH1 0x20 DUP1 SWAP2 DIV MUL PUSH1 0x20 ADD PUSH1 0x40 MLOAD SWAP1 DUP2 ADD PUSH1 0x40 MSTORE DUP1 SWAP3 SWAP2 SWAP1 DUP2 DUP2 MSTORE PUSH1 0x20 ADD DUP3 DUP1 SLOAD PUSH2 0x4F7 SWAP1 PUSH2 0x89D JUMP JUMPDEST DUP1 ISZERO PUSH2 0x542 JUMPI DUP1 PUSH1 0x1F LT PUSH2 0x519 JUMPI PUSH2 0x100 DUP1 DUP4 SLOAD DIV MUL DUP4 MSTORE SWAP2 PUSH1 0x20 ADD SWAP2 PUSH2 0x542 JUMP JUMPDEST DUP3 ADD SWAP2 SWAP1 PUSH0 MSTORE PUSH1 0x20 PUSH0 KECCAK256 SWAP1 JUMPDEST DUP2 SLOAD DUP2 MSTORE SWAP1 PUSH1 0x1 ADD SWAP1 PUSH1 0x20 ADD DUP1 DUP4 GT PUSH2 0x525 JUMPI DUP3 SWAP1 SUB PUSH1 0x1F AND DUP3 ADD SWAP2 JUMPDEST POP POP POP POP POP SWAP1 DUP1 PUSH1 0x1 ADD PUSH0 SWAP1 SLOAD SWAP1 PUSH2 0x100 EXP SWAP1 DIV PUSH1 0xFF AND SWAP1 POP DUP3 JUMP JUMPDEST PUSH0 DUP2 SWAP1 POP SWAP2 SWAP1 POP JUMP JUMPDEST PUSH2 0x570 DUP2 PUSH2 0x55E JUMP JUMPDEST DUP3 MSTORE POP POP JUMP JUMPDEST PUSH0 PUSH1 0x20 DUP3 ADD SWAP1 POP PUSH2 0x589 PUSH0 DUP4 ADD DUP5 PUSH2 0x567 JUMP JUMPDEST SWAP3 SWAP2 POP POP JUMP JUMPDEST PUSH0 PUSH1 0x40 MLOAD SWAP1 POP SWAP1 JUMP JUMPDEST PUSH0 DUP1 REVERT JUMPDEST PUSH0 DUP1 REVERT JUMPDEST PUSH0 DUP1 REVERT JUMPDEST PUSH0 DUP1 REVERT JUMPDEST PUSH0 PUSH1 0x1F NOT PUSH1 0x1F DUP4 ADD AND SWAP1 POP SWAP2 SWAP1 POP JUMP JUMPDEST PUSH32 0x4E487B7100000000000000000000000000000000000000000000000000000000 PUSH0 MSTORE PUSH1 0x41 PUSH1 0x4 MSTORE PUSH1 0x24 PUSH0 REVERT JUMPDEST PUSH2 0x5EE DUP3 PUSH2 0x5A8 JUMP JUMPDEST DUP2 ADD DUP2 DUP2 LT PUSH8 0xFFFFFFFFFFFFFFFF DUP3 GT OR ISZERO PUSH2 0x60D JUMPI PUSH2 0x60C PUSH2 0x5B8 JUMP JUMPDEST JUMPDEST DUP1 PUSH1 0x40 MSTORE POP POP POP JUMP JUMPDEST PUSH0 PUSH2 0x61F PUSH2 0x58F JUMP JUMPDEST SWAP1 POP PUSH2 0x62B DUP3 DUP3 PUSH2 0x5E5 JUMP JUMPDEST SWAP2 SWAP1 POP JUMP JUMPDEST PUSH0 PUSH8 0xFFFFFFFFFFFFFFFF DUP3 GT ISZERO PUSH2 0x64A JUMPI PUSH2 0x649 PUSH2 0x5B8 JUMP JUMPDEST JUMPDEST PUSH2 0x653 DUP3 PUSH2 0x5A8 JUMP JUMPDEST SWAP1 POP PUSH1 0x20 DUP2 ADD SWAP1 POP SWAP2 SWAP1 POP JUMP JUMPDEST DUP3 DUP2 DUP4 CALLDATACOPY PUSH0 DUP4 DUP4 ADD MSTORE POP POP POP JUMP JUMPDEST PUSH0 PUSH2 0x680 PUSH2 0x67B DUP5 PUSH2 0x630 JUMP JUMPDEST PUSH2 0x616 JUMP JUMPDEST SWAP1 POP DUP3 DUP2 MSTORE PUSH1 0x20 DUP2 ADD DUP5 DUP5 DUP5 ADD GT ISZERO PUSH2 0x69C JUMPI PUSH2 0x69B PUSH2 0x5A4 JUMP JUMPDEST JUMPDEST PUSH2 0x6A7 DUP5 DUP3 DUP6 PUSH2 0x660 JUMP JUMPDEST POP SWAP4 SWAP3 POP POP POP JUMP JUMPDEST PUSH0 DUP3 PUSH1 0x1F DUP4 ADD SLT PUSH2 0x6C3 JUMPI PUSH2 0x6C2 PUSH2 0x5A0 JUMP JUMPDEST JUMPDEST DUP2 CALLDATALOAD PUSH2 0x6D3 DUP5 DUP3 PUSH1 0x20 DUP7 ADD PUSH2 0x66E JUMP JUMPDEST SWAP2 POP POP SWAP3 SWAP2 POP POP JUMP JUMPDEST PUSH0 PUSH1 0x20 DUP3 DUP5 SUB SLT ISZERO PUSH2 0x6F1 JUMPI PUSH2 0x6F0 PUSH2 0x598 JUMP JUMPDEST JUMPDEST PUSH0 DUP3 ADD CALLDATALOAD PUSH8 0xFFFFFFFFFFFFFFFF DUP2 GT ISZERO PUSH2 0x70E JUMPI PUSH2 0x70D PUSH2 0x59C JUMP JUMPDEST JUMPDEST PUSH2 0x71A DUP5 DUP3 DUP6 ADD PUSH2 0x6AF JUMP JUMPDEST SWAP2 POP POP SWAP3 SWAP2 POP POP JUMP JUMPDEST PUSH0 DUP2 MLOAD SWAP1 POP SWAP2 SWAP1 POP JUMP JUMPDEST PUSH0 DUP3 DUP3 MSTORE PUSH1 0x20 DUP3 ADD SWAP1 POP SWAP3 SWAP2 POP POP JUMP JUMPDEST DUP3 DUP2 DUP4 MCOPY PUSH0 DUP4 DUP4 ADD MSTORE POP POP POP JUMP JUMPDEST PUSH0 PUSH2 0x755 DUP3 PUSH2 0x723 JUMP JUMPDEST PUSH2 0x75F DUP2 DUP6 PUSH2 0x72D JUMP JUMPDEST SWAP4 POP PUSH2 0x76F DUP2 DUP6 PUSH1 0x20 DUP7 ADD PUSH2 0x73D JUMP JUMPDEST PUSH2 0x778 DUP2 PUSH2 0x5A8 JUMP JUMPDEST DUP5 ADD SWAP2 POP POP SWAP3 SWAP2 POP POP JUMP JUMPDEST PUSH0 PUSH1 0x20 DUP3 ADD SWAP1 POP DUP2 DUP2 SUB PUSH0 DUP4 ADD MSTORE PUSH2 0x79B DUP2 DUP5 PUSH2 0x74B JUMP JUMPDEST SWAP1 POP SWAP3 SWAP2 POP POP JUMP JUMPDEST PUSH0 PUSH20 0xFFFFFFFFFFFFFFFFFFFFFFFFFFFFFFFFFFFFFFFF DUP3 AND SWAP1 POP SWAP2 SWAP1 POP JUMP JUMPDEST PUSH0 PUSH2 0x7CC DUP3 PUSH2 0x7A3 JUMP JUMPDEST SWAP1 POP SWAP2 SWAP1 POP JUMP JUMPDEST PUSH2 0x7DC DUP2 PUSH2 0x7C2 JUMP JUMPDEST DUP2 EQ PUSH2 0x7E6 JUMPI PUSH0 DUP1 REVERT JUMPDEST POP JUMP JUMPDEST PUSH0 DUP2 CALLDATALOAD SWAP1 POP PUSH2 0x7F7 DUP2 PUSH2 0x7D3 JUMP JUMPDEST SWAP3 SWAP2 POP POP JUMP JUMPDEST PUSH0 PUSH1 0x20 DUP3 DUP5 SUB SLT ISZERO PUSH2 0x812 JUMPI PUSH2 0x811 PUSH2 0x598 JUMP JUMPDEST JUMPDEST PUSH0 PUSH2 0x81F DUP5 DUP3 DUP6 ADD PUSH2 0x7E9 JUMP JUMPDEST SWAP2 POP POP SWAP3 SWAP2 POP POP JUMP JUMPDEST PUSH0 DUP2 ISZERO ISZERO SWAP1 POP SWAP2 SWAP1 POP JUMP JUMPDEST PUSH2 0x83C DUP2 PUSH2 0x828 JUMP JUMPDEST DUP3 MSTORE POP POP JUMP JUMPDEST PUSH0 PUSH1 0x40 DUP3 ADD SWAP1 POP DUP2 DUP2 SUB PUSH0 DUP4 ADD MSTORE PUSH2 0x85A DUP2 DUP6 PUSH2 0x74B JUMP JUMPDEST SWAP1 POP PUSH2 0x869 PUSH1 0x20 DUP4 ADD DUP5 PUSH2 0x833 JUMP JUMPDEST SWAP4 SWAP3 POP POP POP JUMP JUMPDEST PUSH32 0x4E487B7100000000000000000000000000000000000000000000000000000000 PUSH0 MSTORE PUSH1 0x22 PUSH1 0x4 MSTORE PUSH1 0x24 PUSH0 REVERT JUMPDEST PUSH0 PUSH1 0x2 DUP3 DIV SWAP1 POP PUSH1 0x1 DUP3 AND DUP1 PUSH2 0x8B4 JUMPI PUSH1 0x7F DUP3 AND SWAP2 POP JUMPDEST PUSH1 0x20 DUP3 LT DUP2 SUB PUSH2 0x8C7 JUMPI PUSH2 0x8C6 PUSH2 0x870 JUMP JUMPDEST JUMPDEST POP SWAP2 SWAP1 POP JUMP JUMPDEST PUSH0 DUP2 SWAP1 POP DUP2 PUSH0 MSTORE PUSH1 0x20 PUSH0 KECCAK256 SWAP1 POP SWAP2 SWAP1 POP JUMP JUMPDEST PUSH0 PUSH1 0x20 PUSH1 0x1F DUP4 ADD DIV SWAP1 POP SWAP2 SWAP1 POP JUMP JUMPDEST PUSH0 DUP3 DUP3 SHL SWAP1 POP SWAP3 SWAP2 POP POP JUMP JUMPDEST PUSH0 PUSH1 0x8 DUP4 MUL PUSH2 0x929 PUSH32 0xFFFFFFFFFFFFFFFFFFFFFFFFFFFFFFFFFFFFFFFFFFFFFFFFFFFFFFFFFFFFFFFF DUP3 PUSH2 0x8EE JUMP JUMPDEST PUSH2 0x933 DUP7 DUP4 PUSH2 0x8EE JUMP JUMPDEST SWAP6 POP DUP1 NOT DUP5 AND SWAP4 POP DUP1 DUP7 AND DUP5 OR SWAP3 POP POP POP SWAP4 SWAP3 POP POP POP JUMP JUMPDEST PUSH0 DUP2 SWAP1 POP SWAP2 SWAP1 POP JUMP JUMPDEST PUSH0 PUSH2 0x96E PUSH2 0x969 PUSH2 0x964 DUP5 PUSH2 0x55E JUMP JUMPDEST PUSH2 0x94B JUMP JUMPDEST PUSH2 0x55E JUMP JUMPDEST SWAP1 POP SWAP2 SWAP1 POP JUMP JUMPDEST PUSH0 DUP2 SWAP1 POP SWAP2 SWAP1 POP JUMP JUMPDEST PUSH2 0x987 DUP4 PUSH2 0x954 JUMP JUMPDEST PUSH2 0x99B PUSH2 0x993 DUP3 PUSH2 0x975 JUMP JUMPDEST DUP5 DUP5 SLOAD PUSH2 0x8FA JUMP JUMPDEST DUP3 SSTORE POP POP POP POP JUMP JUMPDEST PUSH0 SWAP1 JUMP JUMPDEST PUSH2 0x9AF PUSH2 0x9A3 JUMP JUMPDEST PUSH2 0x9BA DUP2 DUP5 DUP5 PUSH2 0x97E JUMP JUMPDEST POP POP POP JUMP JUMPDEST JUMPDEST DUP2 DUP2 LT ISZERO PUSH2 0x9DD JUMPI PUSH2 0x9D2 PUSH0 DUP3 PUSH2 0x9A7 JUMP JUMPDEST PUSH1 0x1 DUP2 ADD SWAP1 POP PUSH2 0x9C0 JUMP JUMPDEST POP POP JUMP JUMPDEST PUSH1 0x1F DUP3 GT ISZERO PUSH2 0xA22 JUMPI PUSH2 0x9F3 DUP2 PUSH2 0x8CD JUMP JUMPDEST PUSH2 0x9FC DUP5 PUSH2 0x8DF JUMP JUMPDEST DUP2 ADD PUSH1 0x20 DUP6 LT ISZERO PUSH2 0xA0B JUMPI DUP2 SWAP1 POP JUMPDEST PUSH2 0xA1F PUSH2 0xA17 DUP6 PUSH2 0x8DF JUMP JUMPDEST DUP4 ADD DUP3 PUSH2 0x9BF JUMP JUMPDEST POP POP JUMPDEST POP POP POP JUMP JUMPDEST PUSH0 DUP3 DUP3 SHR SWAP1 POP SWAP3 SWAP2 POP POP JUMP JUMPDEST PUSH0 PUSH2 0xA42 PUSH0 NOT DUP5 PUSH1 0x8 MUL PUSH2 0xA27 JUMP JUMPDEST NOT DUP1 DUP4 AND SWAP2 POP POP SWAP3 SWAP2 POP POP JUMP JUMPDEST PUSH0 PUSH2 0xA5A DUP4 DUP4 PUSH2 0xA33 JUMP JUMPDEST SWAP2 POP DUP3 PUSH1 0x2 MUL DUP3 OR SWAP1 POP SWAP3 SWAP2 POP POP JUMP JUMPDEST PUSH2 0xA73 DUP3 PUSH2 0x723 JUMP JUMPDEST PUSH8 0xFFFFFFFFFFFFFFFF DUP2 GT ISZERO PUSH2 0xA8C JUMPI PUSH2 0xA8B PUSH2 0x5B8 JUMP JUMPDEST JUMPDEST PUSH2 0xA96 DUP3 SLOAD PUSH2 0x89D JUMP JUMPDEST PUSH2 0xAA1 DUP3 DUP3 DUP6 PUSH2 0x9E1 JUMP JUMPDEST PUSH0 PUSH1 0x20 SWAP1 POP PUSH1 0x1F DUP4 GT PUSH1 0x1 DUP2 EQ PUSH2 0xAD2 JUMPI PUSH0 DUP5 ISZERO PUSH2 0xAC0 JUMPI DUP3 DUP8 ADD MLOAD SWAP1 POP JUMPDEST PUSH2 0xACA DUP6 DUP3 PUSH2 0xA4F JUMP JUMPDEST DUP7 SSTORE POP PUSH2 0xB31 JUMP JUMPDEST PUSH1 0x1F NOT DUP5 AND PUSH2 0xAE0 DUP7 PUSH2 0x8CD JUMP JUMPDEST PUSH0 JUMPDEST DUP3 DUP2 LT ISZERO PUSH2 0xB07 JUMPI DUP5 DUP10 ADD MLOAD DUP3 SSTORE PUSH1 0x1 DUP3 ADD SWAP2 POP PUSH1 0x20 DUP6 ADD SWAP5 POP PUSH1 0x20 DUP2 ADD SWAP1 POP PUSH2 0xAE2 JUMP JUMPDEST DUP7 DUP4 LT ISZERO PUSH2 0xB24 JUMPI DUP5 DUP10 ADD MLOAD PUSH2 0xB20 PUSH1 0x1F DUP10 AND DUP3 PUSH2 0xA33 JUMP JUMPDEST DUP4 SSTORE POP JUMPDEST PUSH1 0x1 PUSH1 0x2 DUP9 MUL ADD DUP9 SSTORE POP POP POP JUMPDEST POP POP POP POP POP POP JUMP JUMPDEST PUSH32 0x796F752061726520616C726561647920766F7465640000000000000000000000 PUSH0 DUP3 ADD MSTORE POP JUMP JUMPDEST PUSH0 PUSH2 0xB6D PUSH1 0x15 DUP4 PUSH2 0x72D JUMP JUMPDEST SWAP2 POP PUSH2 0xB78 DUP3 PUSH2 0xB39 JUMP JUMPDEST PUSH1 0x20 DUP3 ADD SWAP1 POP SWAP2 SWAP1 POP JUMP JUMPDEST PUSH0 PUSH1 0x20 DUP3 ADD SWAP1 POP DUP2 DUP2 SUB PUSH0 DUP4 ADD MSTORE PUSH2 0xB9A DUP2 PUSH2 0xB61 JUMP JUMPDEST SWAP1 POP SWAP2 SWAP1 POP JUMP JUMPDEST PUSH32 0x4E487B7100000000000000000000000000000000000000000000000000000000 PUSH0 MSTORE PUSH1 0x11 PUSH1 0x4 MSTORE PUSH1 0x24 PUSH0 REVERT JUMPDEST PUSH0 PUSH2 0xBD8 DUP3 PUSH2 0x55E JUMP JUMPDEST SWAP2 POP PUSH32 0xFFFFFFFFFFFFFFFFFFFFFFFFFFFFFFFFFFFFFFFFFFFFFFFFFFFFFFFFFFFFFFFF DUP3 SUB PUSH2 0xC0A JUMPI PUSH2 0xC09 PUSH2 0xBA1 JUMP JUMPDEST JUMPDEST PUSH1 0x1 DUP3 ADD SWAP1 POP SWAP2 SWAP1 POP JUMP INVALID LOG2 PUSH5 0x6970667358 0x22 SLT KECCAK256 DIV 0x2D 0x29 OR 0xCD 0xC8 0x2B 0xC1 DUP4 SWAP6 0xDA TSTORE 0xC2 GAS DUP1 0xDB LOG3 0xF8 0x26 JUMPI 0xA8 0xB8 0xD 0xF8 GASLIMIT 0xB2 0xEA PUSH14 0x7F16BA4A64736F6C634300081900 CALLER "
				},
				"gasEstimates": {
					"creation": {
						"codeDepositCost": "629400",
						"executionCost": "662",
						"totalCost": "630062"
					},
					"external": {
						"No()": "51119",
						"Voters(address)": "infinite",
						"Yes()": "51163",
						"no()": "2447",
						"registerVoter(string)": "infinite",
						"result()": "infinite",
						"yes()": "2425"
					}
				},
				"methodIdentifiers": {
					"No()": "6f726dda",
					"Voters(address)": "fdedaa8a",
					"Yes()": "df66f294",
					"no()": "b6c52ae8",
					"registerVoter(string)": "6428a486",
					"result()": "65372147",
					"yes()": "4c6c9b78"
				}
			},
			"storageLayout": {
				"storage": [
					{
						"astId": 3,
						"contract": "contracts/ClassWork/10_votingSystem.sol:SimpleVote",
						"label": "yes",
						"offset": 0,
						"slot": "0",
						"type": "t_uint256"
					},
					{
						"astId": 5,
						"contract": "contracts/ClassWork/10_votingSystem.sol:SimpleVote",
						"label": "no",
						"offset": 0,
						"slot": "1",
						"type": "t_uint256"
					},
					{
						"astId": 15,
						"contract": "contracts/ClassWork/10_votingSystem.sol:SimpleVote",
						"label": "Voters",
						"offset": 0,
						"slot": "2",
						"type": "t_mapping(t_address,t_struct(Voter)10_storage)"
					}
				],
				"types": {
					"t_address": {
						"encoding": "inplace",
						"label": "address",
						"numberOfBytes": "20"
					},
					"t_bool": {
						"encoding": "inplace",
						"label": "bool",
						"numberOfBytes": "1"
					},
					"t_mapping(t_address,t_struct(Voter)10_storage)": {
						"encoding": "mapping",
						"key": "t_address",
						"label": "mapping(address => struct SimpleVote.Voter)",
						"numberOfBytes": "32",
						"value": "t_struct(Voter)10_storage"
					},
					"t_string_storage": {
						"encoding": "bytes",
						"label": "string",
						"numberOfBytes": "32"
					},
					"t_struct(Voter)10_storage": {
						"encoding": "inplace",
						"label": "struct SimpleVote.Voter",
						"members": [
							{
								"astId": 7,
								"contract": "contracts/ClassWork/10_votingSystem.sol:SimpleVote",
								"label": "name",
								"offset": 0,
								"slot": "0",
								"type": "t_string_storage"
							},
							{
								"astId": 9,
								"contract": "contracts/ClassWork/10_votingSystem.sol:SimpleVote",
								"label": "isVoted",
								"offset": 0,
								"slot": "1",
								"type": "t_bool"
							}
						],
						"numberOfBytes": "64"
					},
					"t_uint256": {
						"encoding": "inplace",
						"label": "uint256",
						"numberOfBytes": "32"
					}
				}
			},
			"userdoc": {
				"kind": "user",
				"methods": {},
				"version": 1
			}
		}
	}
}