{
	"contracts/ClassWork/contactList.sol": {
		"ContactList": {
			"abi": [
				{
					"inputs": [
						{
							"internalType": "string",
							"name": "name",
							"type": "string"
						},
						{
							"internalType": "string",
							"name": "PhoneNo",
							"type": "string"
						}
					],
					"name": "AddContact",
					"outputs": [],
					"stateMutability": "nonpayable",
					"type": "function"
				},
				{
					"inputs": [],
					"name": "Getcontact",
					"outputs": [
						{
							"internalType": "string",
							"name": "",
							"type": "string"
						},
						{
							"internalType": "string",
							"name": "",
							"type": "string"
						}
					],
					"stateMutability": "view",
					"type": "function"
				},
				{
					"inputs": [
						{
							"internalType": "address",
							"name": "",
							"type": "address"
						}
					],
					"name": "contactdetails",
					"outputs": [
						{
							"internalType": "string",
							"name": "Name",
							"type": "string"
						},
						{
							"internalType": "string",
							"name": "PhoneNo",
							"type": "string"
						}
					],
					"stateMutability": "view",
					"type": "function"
				}
			],
			"devdoc": {
				"kind": "dev",
				"methods": {},
				"version": 1
			},
			"evm": {
				"assembly": "    /* \"contracts/ClassWork/contactList.sol\":556:1120  contract ContactList{... */\n  mstore(0x40, 0x80)\n  callvalue\n  dup1\n  iszero\n  tag_1\n  jumpi\n  0x00\n  dup1\n  revert\ntag_1:\n  pop\n  dataSize(sub_0)\n  dup1\n  dataOffset(sub_0)\n  0x00\n  codecopy\n  0x00\n  return\nstop\n\nsub_0: assembly {\n        /* \"contracts/ClassWork/contactList.sol\":556:1120  contract ContactList{... */\n      mstore(0x40, 0x80)\n      callvalue\n      dup1\n      iszero\n      tag_1\n      jumpi\n      0x00\n      dup1\n      revert\n    tag_1:\n      pop\n      jumpi(tag_2, lt(calldatasize, 0x04))\n      shr(0xe0, calldataload(0x00))\n      dup1\n      0x045930ee\n      eq\n      tag_3\n      jumpi\n      dup1\n      0x6203a83b\n      eq\n      tag_4\n      jumpi\n      dup1\n      0xfe4aefbd\n      eq\n      tag_5\n      jumpi\n    tag_2:\n      0x00\n      dup1\n      revert\n        /* \"contracts/ClassWork/contactList.sol\":717:915  function AddContact(string memory name,string memory PhoneNo ) public {... */\n    tag_3:\n      tag_6\n      0x04\n      dup1\n      calldatasize\n      sub\n      dup2\n      add\n      swap1\n      tag_7\n      swap2\n      swap1\n      tag_8\n      jump\t// in\n    tag_7:\n      tag_9\n      jump\t// in\n    tag_6:\n      stop\n        /* \"contracts/ClassWork/contactList.sol\":923:1117  function Getcontact()public view returns(string memory,string memory){... */\n    tag_4:\n      tag_10\n      tag_11\n      jump\t// in\n    tag_10:\n      mload(0x40)\n      tag_12\n      swap3\n      swap2\n      swap1\n      tag_13\n      jump\t// in\n    tag_12:\n      mload(0x40)\n      dup1\n      swap2\n      sub\n      swap1\n      return\n        /* \"contracts/ClassWork/contactList.sol\":660:708  mapping (address=>contact) public contactdetails */\n    tag_5:\n      tag_14\n      0x04\n      dup1\n      calldatasize\n      sub\n      dup2\n      add\n      swap1\n      tag_15\n      swap2\n      swap1\n      tag_16\n      jump\t// in\n    tag_15:\n      tag_17\n      jump\t// in\n    tag_14:\n      mload(0x40)\n      tag_18\n      swap3\n      swap2\n      swap1\n      tag_13\n      jump\t// in\n    tag_18:\n      mload(0x40)\n      dup1\n      swap2\n      sub\n      swap1\n      return\n        /* \"contracts/ClassWork/contactList.sol\":717:915  function AddContact(string memory name,string memory PhoneNo ) public {... */\n    tag_9:\n        /* \"contracts/ClassWork/contactList.sol\":886:907  contact(name,PhoneNo) */\n      mload(0x40)\n      dup1\n      0x40\n      add\n      0x40\n      mstore\n      dup1\n        /* \"contracts/ClassWork/contactList.sol\":894:898  name */\n      dup4\n        /* \"contracts/ClassWork/contactList.sol\":886:907  contact(name,PhoneNo) */\n      dup2\n      mstore\n      0x20\n      add\n        /* \"contracts/ClassWork/contactList.sol\":899:906  PhoneNo */\n      dup3\n        /* \"contracts/ClassWork/contactList.sol\":886:907  contact(name,PhoneNo) */\n      dup2\n      mstore\n      pop\n        /* \"contracts/ClassWork/contactList.sol\":859:873  contactdetails */\n      0x00\n        /* \"contracts/ClassWork/contactList.sol\":859:885  contactdetails[msg.sender] */\n      dup1\n        /* \"contracts/ClassWork/contactList.sol\":874:884  msg.sender */\n      caller\n        /* \"contracts/ClassWork/contactList.sol\":859:885  contactdetails[msg.sender] */\n      0xffffffffffffffffffffffffffffffffffffffff\n      and\n      0xffffffffffffffffffffffffffffffffffffffff\n      and\n      dup2\n      mstore\n      0x20\n      add\n      swap1\n      dup2\n      mstore\n      0x20\n      add\n      0x00\n      keccak256\n        /* \"contracts/ClassWork/contactList.sol\":859:907  contactdetails[msg.sender]=contact(name,PhoneNo) */\n      0x00\n      dup3\n      add\n      mload\n      dup2\n      0x00\n      add\n      swap1\n      dup2\n      tag_20\n      swap2\n      swap1\n      tag_21\n      jump\t// in\n    tag_20:\n      pop\n      0x20\n      dup3\n      add\n      mload\n      dup2\n      0x01\n      add\n      swap1\n      dup2\n      tag_22\n      swap2\n      swap1\n      tag_21\n      jump\t// in\n    tag_22:\n      pop\n      swap1\n      pop\n      pop\n        /* \"contracts/ClassWork/contactList.sol\":717:915  function AddContact(string memory name,string memory PhoneNo ) public {... */\n      pop\n      pop\n      jump\t// out\n        /* \"contracts/ClassWork/contactList.sol\":923:1117  function Getcontact()public view returns(string memory,string memory){... */\n    tag_11:\n        /* \"contracts/ClassWork/contactList.sol\":964:977  string memory */\n      0x60\n        /* \"contracts/ClassWork/contactList.sol\":978:991  string memory */\n      dup1\n        /* \"contracts/ClassWork/contactList.sol\":1003:1028  contact memory newcontact */\n      0x00\n        /* \"contracts/ClassWork/contactList.sol\":1029:1043  contactdetails */\n      dup1\n        /* \"contracts/ClassWork/contactList.sol\":1029:1055  contactdetails[msg.sender] */\n      0x00\n        /* \"contracts/ClassWork/contactList.sol\":1044:1054  msg.sender */\n      caller\n        /* \"contracts/ClassWork/contactList.sol\":1029:1055  contactdetails[msg.sender] */\n      0xffffffffffffffffffffffffffffffffffffffff\n      and\n      0xffffffffffffffffffffffffffffffffffffffff\n      and\n      dup2\n      mstore\n      0x20\n      add\n      swap1\n      dup2\n      mstore\n      0x20\n      add\n      0x00\n      keccak256\n        /* \"contracts/ClassWork/contactList.sol\":1003:1055  contact memory newcontact=contactdetails[msg.sender] */\n      mload(0x40)\n      dup1\n      0x40\n      add\n      0x40\n      mstore\n      swap1\n      dup2\n      0x00\n      dup3\n      add\n      dup1\n      sload\n      tag_24\n      swap1\n      tag_25\n      jump\t// in\n    tag_24:\n      dup1\n      0x1f\n      add\n      0x20\n      dup1\n      swap2\n      div\n      mul\n      0x20\n      add\n      mload(0x40)\n      swap1\n      dup2\n      add\n      0x40\n      mstore\n      dup1\n      swap3\n      swap2\n      swap1\n      dup2\n      dup2\n      mstore\n      0x20\n      add\n      dup3\n      dup1\n      sload\n      tag_26\n      swap1\n      tag_25\n      jump\t// in\n    tag_26:\n      dup1\n      iszero\n      tag_27\n      jumpi\n      dup1\n      0x1f\n      lt\n      tag_28\n      jumpi\n      0x0100\n      dup1\n      dup4\n      sload\n      div\n      mul\n      dup4\n      mstore\n      swap2\n      0x20\n      add\n      swap2\n      jump(tag_27)\n    tag_28:\n      dup3\n      add\n      swap2\n      swap1\n      0x00\n      mstore\n      keccak256(0x00, 0x20)\n      swap1\n    tag_29:\n      dup2\n      sload\n      dup2\n      mstore\n      swap1\n      0x01\n      add\n      swap1\n      0x20\n      add\n      dup1\n      dup4\n      gt\n      tag_29\n      jumpi\n      dup3\n      swap1\n      sub\n      0x1f\n      and\n      dup3\n      add\n      swap2\n    tag_27:\n      pop\n      pop\n      pop\n      pop\n      pop\n      dup2\n      mstore\n      0x20\n      add\n      0x01\n      dup3\n      add\n      dup1\n      sload\n      tag_30\n      swap1\n      tag_25\n      jump\t// in\n    tag_30:\n      dup1\n      0x1f\n      add\n      0x20\n      dup1\n      swap2\n      div\n      mul\n      0x20\n      add\n      mload(0x40)\n      swap1\n      dup2\n      add\n      0x40\n      mstore\n      dup1\n      swap3\n      swap2\n      swap1\n      dup2\n      dup2\n      mstore\n      0x20\n      add\n      dup3\n      dup1\n      sload\n      tag_31\n      swap1\n      tag_25\n      jump\t// in\n    tag_31:\n      dup1\n      iszero\n      tag_32\n      jumpi\n      dup1\n      0x1f\n      lt\n      tag_33\n      jumpi\n      0x0100\n      dup1\n      dup4\n      sload\n      div\n      mul\n      dup4\n      mstore\n      swap2\n      0x20\n      add\n      swap2\n      jump(tag_32)\n    tag_33:\n      dup3\n      add\n      swap2\n      swap1\n      0x00\n      mstore\n      keccak256(0x00, 0x20)\n      swap1\n    tag_34:\n      dup2\n      sload\n      dup2\n      mstore\n      swap1\n      0x01\n      add\n      swap1\n      0x20\n      add\n      dup1\n      dup4\n      gt\n      tag_34\n      jumpi\n      dup3\n      swap1\n      sub\n      0x1f\n      and\n      dup3\n      add\n      swap2\n    tag_32:\n      pop\n      pop\n      pop\n      pop\n      pop\n      dup2\n      mstore\n      pop\n      pop\n      swap1\n      pop\n        /* \"contracts/ClassWork/contactList.sol\":1074:1084  newcontact */\n      dup1\n        /* \"contracts/ClassWork/contactList.sol\":1074:1089  newcontact.Name */\n      0x00\n      add\n      mload\n        /* \"contracts/ClassWork/contactList.sol\":1090:1100  newcontact */\n      dup2\n        /* \"contracts/ClassWork/contactList.sol\":1090:1108  newcontact.PhoneNo */\n      0x20\n      add\n      mload\n        /* \"contracts/ClassWork/contactList.sol\":1066:1109  return (newcontact.Name,newcontact.PhoneNo) */\n      swap3\n      pop\n      swap3\n      pop\n      pop\n        /* \"contracts/ClassWork/contactList.sol\":923:1117  function Getcontact()public view returns(string memory,string memory){... */\n      swap1\n      swap2\n      jump\t// out\n        /* \"contracts/ClassWork/contactList.sol\":660:708  mapping (address=>contact) public contactdetails */\n    tag_17:\n      mstore(0x20, 0x00)\n      dup1\n      0x00\n      mstore\n      keccak256(0x00, 0x40)\n      0x00\n      swap2\n      pop\n      swap1\n      pop\n      dup1\n      0x00\n      add\n      dup1\n      sload\n      tag_35\n      swap1\n      tag_25\n      jump\t// in\n    tag_35:\n      dup1\n      0x1f\n      add\n      0x20\n      dup1\n      swap2\n      div\n      mul\n      0x20\n      add\n      mload(0x40)\n      swap1\n      dup2\n      add\n      0x40\n      mstore\n      dup1\n      swap3\n      swap2\n      swap1\n      dup2\n      dup2\n      mstore\n      0x20\n      add\n      dup3\n      dup1\n      sload\n      tag_36\n      swap1\n      tag_25\n      jump\t// in\n    tag_36:\n      dup1\n      iszero\n      tag_37\n      jumpi\n      dup1\n      0x1f\n      lt\n      tag_38\n      jumpi\n      0x0100\n      dup1\n      dup4\n      sload\n      div\n      mul\n      dup4\n      mstore\n      swap2\n      0x20\n      add\n      swap2\n      jump(tag_37)\n    tag_38:\n      dup3\n      add\n      swap2\n      swap1\n      0x00\n      mstore\n      keccak256(0x00, 0x20)\n      swap1\n    tag_39:\n      dup2\n      sload\n      dup2\n      mstore\n      swap1\n      0x01\n      add\n      swap1\n      0x20\n      add\n      dup1\n      dup4\n      gt\n      tag_39\n      jumpi\n      dup3\n      swap1\n      sub\n      0x1f\n      and\n      dup3\n      add\n      swap2\n    tag_37:\n      pop\n      pop\n      pop\n      pop\n      pop\n      swap1\n      dup1\n      0x01\n      add\n      dup1\n      sload\n      tag_40\n      swap1\n      tag_25\n      jump\t// in\n    tag_40:\n      dup1\n      0x1f\n      add\n      0x20\n      dup1\n      swap2\n      div\n      mul\n      0x20\n      add\n      mload(0x40)\n      swap1\n      dup2\n      add\n      0x40\n      mstore\n      dup1\n      swap3\n      swap2\n      swap1\n      dup2\n      dup2\n      mstore\n      0x20\n      add\n      dup3\n      dup1\n      sload\n      tag_41\n      swap1\n      tag_25\n      jump\t// in\n    tag_41:\n      dup1\n      iszero\n      tag_42\n      jumpi\n      dup1\n      0x1f\n      lt\n      tag_43\n      jumpi\n      0x0100\n      dup1\n      dup4\n      sload\n      div\n      mul\n      dup4\n      mstore\n      swap2\n      0x20\n      add\n      swap2\n      jump(tag_42)\n    tag_43:\n      dup3\n      add\n      swap2\n      swap1\n      0x00\n      mstore\n      keccak256(0x00, 0x20)\n      swap1\n    tag_44:\n      dup2\n      sload\n      dup2\n      mstore\n      swap1\n      0x01\n      add\n      swap1\n      0x20\n      add\n      dup1\n      dup4\n      gt\n      tag_44\n      jumpi\n      dup3\n      swap1\n      sub\n      0x1f\n      and\n      dup3\n      add\n      swap2\n    tag_42:\n      pop\n      pop\n      pop\n      pop\n      pop\n      swap1\n      pop\n      dup3\n      jump\t// out\n        /* \"#utility.yul\":7:82   */\n    tag_45:\n        /* \"#utility.yul\":40:46   */\n      0x00\n        /* \"#utility.yul\":73:75   */\n      0x40\n        /* \"#utility.yul\":67:76   */\n      mload\n        /* \"#utility.yul\":57:76   */\n      swap1\n      pop\n        /* \"#utility.yul\":7:82   */\n      swap1\n      jump\t// out\n        /* \"#utility.yul\":88:205   */\n    tag_46:\n        /* \"#utility.yul\":197:198   */\n      0x00\n        /* \"#utility.yul\":194:195   */\n      dup1\n        /* \"#utility.yul\":187:199   */\n      revert\n        /* \"#utility.yul\":211:328   */\n    tag_47:\n        /* \"#utility.yul\":320:321   */\n      0x00\n        /* \"#utility.yul\":317:318   */\n      dup1\n        /* \"#utility.yul\":310:322   */\n      revert\n        /* \"#utility.yul\":334:451   */\n    tag_48:\n        /* \"#utility.yul\":443:444   */\n      0x00\n        /* \"#utility.yul\":440:441   */\n      dup1\n        /* \"#utility.yul\":433:445   */\n      revert\n        /* \"#utility.yul\":457:574   */\n    tag_49:\n        /* \"#utility.yul\":566:567   */\n      0x00\n        /* \"#utility.yul\":563:564   */\n      dup1\n        /* \"#utility.yul\":556:568   */\n      revert\n        /* \"#utility.yul\":580:682   */\n    tag_50:\n        /* \"#utility.yul\":621:627   */\n      0x00\n        /* \"#utility.yul\":672:674   */\n      0x1f\n        /* \"#utility.yul\":668:675   */\n      not\n        /* \"#utility.yul\":663:665   */\n      0x1f\n        /* \"#utility.yul\":656:661   */\n      dup4\n        /* \"#utility.yul\":652:666   */\n      add\n        /* \"#utility.yul\":648:676   */\n      and\n        /* \"#utility.yul\":638:676   */\n      swap1\n      pop\n        /* \"#utility.yul\":580:682   */\n      swap2\n      swap1\n      pop\n      jump\t// out\n        /* \"#utility.yul\":688:868   */\n    tag_51:\n        /* \"#utility.yul\":736:813   */\n      0x4e487b7100000000000000000000000000000000000000000000000000000000\n        /* \"#utility.yul\":733:734   */\n      0x00\n        /* \"#utility.yul\":726:814   */\n      mstore\n        /* \"#utility.yul\":833:837   */\n      0x41\n        /* \"#utility.yul\":830:831   */\n      0x04\n        /* \"#utility.yul\":823:838   */\n      mstore\n        /* \"#utility.yul\":857:861   */\n      0x24\n        /* \"#utility.yul\":854:855   */\n      0x00\n        /* \"#utility.yul\":847:862   */\n      revert\n        /* \"#utility.yul\":874:1155   */\n    tag_52:\n        /* \"#utility.yul\":957:984   */\n      tag_92\n        /* \"#utility.yul\":979:983   */\n      dup3\n        /* \"#utility.yul\":957:984   */\n      tag_50\n      jump\t// in\n    tag_92:\n        /* \"#utility.yul\":949:955   */\n      dup2\n        /* \"#utility.yul\":945:985   */\n      add\n        /* \"#utility.yul\":1087:1093   */\n      dup2\n        /* \"#utility.yul\":1075:1085   */\n      dup2\n        /* \"#utility.yul\":1072:1094   */\n      lt\n        /* \"#utility.yul\":1051:1069   */\n      0xffffffffffffffff\n        /* \"#utility.yul\":1039:1049   */\n      dup3\n        /* \"#utility.yul\":1036:1070   */\n      gt\n        /* \"#utility.yul\":1033:1095   */\n      or\n        /* \"#utility.yul\":1030:1118   */\n      iszero\n      tag_93\n      jumpi\n        /* \"#utility.yul\":1098:1116   */\n      tag_94\n      tag_51\n      jump\t// in\n    tag_94:\n        /* \"#utility.yul\":1030:1118   */\n    tag_93:\n        /* \"#utility.yul\":1138:1148   */\n      dup1\n        /* \"#utility.yul\":1134:1136   */\n      0x40\n        /* \"#utility.yul\":1127:1149   */\n      mstore\n        /* \"#utility.yul\":917:1155   */\n      pop\n        /* \"#utility.yul\":874:1155   */\n      pop\n      pop\n      jump\t// out\n        /* \"#utility.yul\":1161:1290   */\n    tag_53:\n        /* \"#utility.yul\":1195:1201   */\n      0x00\n        /* \"#utility.yul\":1222:1242   */\n      tag_96\n      tag_45\n      jump\t// in\n    tag_96:\n        /* \"#utility.yul\":1212:1242   */\n      swap1\n      pop\n        /* \"#utility.yul\":1251:1284   */\n      tag_97\n        /* \"#utility.yul\":1279:1283   */\n      dup3\n        /* \"#utility.yul\":1271:1277   */\n      dup3\n        /* \"#utility.yul\":1251:1284   */\n      tag_52\n      jump\t// in\n    tag_97:\n        /* \"#utility.yul\":1161:1290   */\n      swap2\n      swap1\n      pop\n      jump\t// out\n        /* \"#utility.yul\":1296:1604   */\n    tag_54:\n        /* \"#utility.yul\":1358:1362   */\n      0x00\n        /* \"#utility.yul\":1448:1466   */\n      0xffffffffffffffff\n        /* \"#utility.yul\":1440:1446   */\n      dup3\n        /* \"#utility.yul\":1437:1467   */\n      gt\n        /* \"#utility.yul\":1434:1490   */\n      iszero\n      tag_99\n      jumpi\n        /* \"#utility.yul\":1470:1488   */\n      tag_100\n      tag_51\n      jump\t// in\n    tag_100:\n        /* \"#utility.yul\":1434:1490   */\n    tag_99:\n        /* \"#utility.yul\":1508:1537   */\n      tag_101\n        /* \"#utility.yul\":1530:1536   */\n      dup3\n        /* \"#utility.yul\":1508:1537   */\n      tag_50\n      jump\t// in\n    tag_101:\n        /* \"#utility.yul\":1500:1537   */\n      swap1\n      pop\n        /* \"#utility.yul\":1592:1596   */\n      0x20\n        /* \"#utility.yul\":1586:1590   */\n      dup2\n        /* \"#utility.yul\":1582:1597   */\n      add\n        /* \"#utility.yul\":1574:1597   */\n      swap1\n      pop\n        /* \"#utility.yul\":1296:1604   */\n      swap2\n      swap1\n      pop\n      jump\t// out\n        /* \"#utility.yul\":1610:1756   */\n    tag_55:\n        /* \"#utility.yul\":1707:1713   */\n      dup3\n        /* \"#utility.yul\":1702:1705   */\n      dup2\n        /* \"#utility.yul\":1697:1700   */\n      dup4\n        /* \"#utility.yul\":1684:1714   */\n      calldatacopy\n        /* \"#utility.yul\":1748:1749   */\n      0x00\n        /* \"#utility.yul\":1739:1745   */\n      dup4\n        /* \"#utility.yul\":1734:1737   */\n      dup4\n        /* \"#utility.yul\":1730:1746   */\n      add\n        /* \"#utility.yul\":1723:1750   */\n      mstore\n        /* \"#utility.yul\":1610:1756   */\n      pop\n      pop\n      pop\n      jump\t// out\n        /* \"#utility.yul\":1762:2187   */\n    tag_56:\n        /* \"#utility.yul\":1840:1845   */\n      0x00\n        /* \"#utility.yul\":1865:1931   */\n      tag_104\n        /* \"#utility.yul\":1881:1930   */\n      tag_105\n        /* \"#utility.yul\":1923:1929   */\n      dup5\n        /* \"#utility.yul\":1881:1930   */\n      tag_54\n      jump\t// in\n    tag_105:\n        /* \"#utility.yul\":1865:1931   */\n      tag_53\n      jump\t// in\n    tag_104:\n        /* \"#utility.yul\":1856:1931   */\n      swap1\n      pop\n        /* \"#utility.yul\":1954:1960   */\n      dup3\n        /* \"#utility.yul\":1947:1952   */\n      dup2\n        /* \"#utility.yul\":1940:1961   */\n      mstore\n        /* \"#utility.yul\":1992:1996   */\n      0x20\n        /* \"#utility.yul\":1985:1990   */\n      dup2\n        /* \"#utility.yul\":1981:1997   */\n      add\n        /* \"#utility.yul\":2030:2033   */\n      dup5\n        /* \"#utility.yul\":2021:2027   */\n      dup5\n        /* \"#utility.yul\":2016:2019   */\n      dup5\n        /* \"#utility.yul\":2012:2028   */\n      add\n        /* \"#utility.yul\":2009:2034   */\n      gt\n        /* \"#utility.yul\":2006:2118   */\n      iszero\n      tag_106\n      jumpi\n        /* \"#utility.yul\":2037:2116   */\n      tag_107\n      tag_49\n      jump\t// in\n    tag_107:\n        /* \"#utility.yul\":2006:2118   */\n    tag_106:\n        /* \"#utility.yul\":2127:2181   */\n      tag_108\n        /* \"#utility.yul\":2174:2180   */\n      dup5\n        /* \"#utility.yul\":2169:2172   */\n      dup3\n        /* \"#utility.yul\":2164:2167   */\n      dup6\n        /* \"#utility.yul\":2127:2181   */\n      tag_55\n      jump\t// in\n    tag_108:\n        /* \"#utility.yul\":1846:2187   */\n      pop\n        /* \"#utility.yul\":1762:2187   */\n      swap4\n      swap3\n      pop\n      pop\n      pop\n      jump\t// out\n        /* \"#utility.yul\":2207:2547   */\n    tag_57:\n        /* \"#utility.yul\":2263:2268   */\n      0x00\n        /* \"#utility.yul\":2312:2315   */\n      dup3\n        /* \"#utility.yul\":2305:2309   */\n      0x1f\n        /* \"#utility.yul\":2297:2303   */\n      dup4\n        /* \"#utility.yul\":2293:2310   */\n      add\n        /* \"#utility.yul\":2289:2316   */\n      slt\n        /* \"#utility.yul\":2279:2401   */\n      tag_110\n      jumpi\n        /* \"#utility.yul\":2320:2399   */\n      tag_111\n      tag_48\n      jump\t// in\n    tag_111:\n        /* \"#utility.yul\":2279:2401   */\n    tag_110:\n        /* \"#utility.yul\":2437:2443   */\n      dup2\n        /* \"#utility.yul\":2424:2444   */\n      calldataload\n        /* \"#utility.yul\":2462:2541   */\n      tag_112\n        /* \"#utility.yul\":2537:2540   */\n      dup5\n        /* \"#utility.yul\":2529:2535   */\n      dup3\n        /* \"#utility.yul\":2522:2526   */\n      0x20\n        /* \"#utility.yul\":2514:2520   */\n      dup7\n        /* \"#utility.yul\":2510:2527   */\n      add\n        /* \"#utility.yul\":2462:2541   */\n      tag_56\n      jump\t// in\n    tag_112:\n        /* \"#utility.yul\":2453:2541   */\n      swap2\n      pop\n        /* \"#utility.yul\":2269:2547   */\n      pop\n        /* \"#utility.yul\":2207:2547   */\n      swap3\n      swap2\n      pop\n      pop\n      jump\t// out\n        /* \"#utility.yul\":2553:3387   */\n    tag_8:\n        /* \"#utility.yul\":2641:2647   */\n      0x00\n        /* \"#utility.yul\":2649:2655   */\n      dup1\n        /* \"#utility.yul\":2698:2700   */\n      0x40\n        /* \"#utility.yul\":2686:2695   */\n      dup4\n        /* \"#utility.yul\":2677:2684   */\n      dup6\n        /* \"#utility.yul\":2673:2696   */\n      sub\n        /* \"#utility.yul\":2669:2701   */\n      slt\n        /* \"#utility.yul\":2666:2785   */\n      iszero\n      tag_114\n      jumpi\n        /* \"#utility.yul\":2704:2783   */\n      tag_115\n      tag_46\n      jump\t// in\n    tag_115:\n        /* \"#utility.yul\":2666:2785   */\n    tag_114:\n        /* \"#utility.yul\":2852:2853   */\n      0x00\n        /* \"#utility.yul\":2841:2850   */\n      dup4\n        /* \"#utility.yul\":2837:2854   */\n      add\n        /* \"#utility.yul\":2824:2855   */\n      calldataload\n        /* \"#utility.yul\":2882:2900   */\n      0xffffffffffffffff\n        /* \"#utility.yul\":2874:2880   */\n      dup2\n        /* \"#utility.yul\":2871:2901   */\n      gt\n        /* \"#utility.yul\":2868:2985   */\n      iszero\n      tag_116\n      jumpi\n        /* \"#utility.yul\":2904:2983   */\n      tag_117\n      tag_47\n      jump\t// in\n    tag_117:\n        /* \"#utility.yul\":2868:2985   */\n    tag_116:\n        /* \"#utility.yul\":3009:3072   */\n      tag_118\n        /* \"#utility.yul\":3064:3071   */\n      dup6\n        /* \"#utility.yul\":3055:3061   */\n      dup3\n        /* \"#utility.yul\":3044:3053   */\n      dup7\n        /* \"#utility.yul\":3040:3062   */\n      add\n        /* \"#utility.yul\":3009:3072   */\n      tag_57\n      jump\t// in\n    tag_118:\n        /* \"#utility.yul\":2999:3072   */\n      swap3\n      pop\n        /* \"#utility.yul\":2795:3082   */\n      pop\n        /* \"#utility.yul\":3149:3151   */\n      0x20\n        /* \"#utility.yul\":3138:3147   */\n      dup4\n        /* \"#utility.yul\":3134:3152   */\n      add\n        /* \"#utility.yul\":3121:3153   */\n      calldataload\n        /* \"#utility.yul\":3180:3198   */\n      0xffffffffffffffff\n        /* \"#utility.yul\":3172:3178   */\n      dup2\n        /* \"#utility.yul\":3169:3199   */\n      gt\n        /* \"#utility.yul\":3166:3283   */\n      iszero\n      tag_119\n      jumpi\n        /* \"#utility.yul\":3202:3281   */\n      tag_120\n      tag_47\n      jump\t// in\n    tag_120:\n        /* \"#utility.yul\":3166:3283   */\n    tag_119:\n        /* \"#utility.yul\":3307:3370   */\n      tag_121\n        /* \"#utility.yul\":3362:3369   */\n      dup6\n        /* \"#utility.yul\":3353:3359   */\n      dup3\n        /* \"#utility.yul\":3342:3351   */\n      dup7\n        /* \"#utility.yul\":3338:3360   */\n      add\n        /* \"#utility.yul\":3307:3370   */\n      tag_57\n      jump\t// in\n    tag_121:\n        /* \"#utility.yul\":3297:3370   */\n      swap2\n      pop\n        /* \"#utility.yul\":3092:3380   */\n      pop\n        /* \"#utility.yul\":2553:3387   */\n      swap3\n      pop\n      swap3\n      swap1\n      pop\n      jump\t// out\n        /* \"#utility.yul\":3393:3492   */\n    tag_58:\n        /* \"#utility.yul\":3445:3451   */\n      0x00\n        /* \"#utility.yul\":3479:3484   */\n      dup2\n        /* \"#utility.yul\":3473:3485   */\n      mload\n        /* \"#utility.yul\":3463:3485   */\n      swap1\n      pop\n        /* \"#utility.yul\":3393:3492   */\n      swap2\n      swap1\n      pop\n      jump\t// out\n        /* \"#utility.yul\":3498:3667   */\n    tag_59:\n        /* \"#utility.yul\":3582:3593   */\n      0x00\n        /* \"#utility.yul\":3616:3622   */\n      dup3\n        /* \"#utility.yul\":3611:3614   */\n      dup3\n        /* \"#utility.yul\":3604:3623   */\n      mstore\n        /* \"#utility.yul\":3656:3660   */\n      0x20\n        /* \"#utility.yul\":3651:3654   */\n      dup3\n        /* \"#utility.yul\":3647:3661   */\n      add\n        /* \"#utility.yul\":3632:3661   */\n      swap1\n      pop\n        /* \"#utility.yul\":3498:3667   */\n      swap3\n      swap2\n      pop\n      pop\n      jump\t// out\n        /* \"#utility.yul\":3673:3919   */\n    tag_60:\n        /* \"#utility.yul\":3754:3755   */\n      0x00\n        /* \"#utility.yul\":3764:3877   */\n    tag_125:\n        /* \"#utility.yul\":3778:3784   */\n      dup4\n        /* \"#utility.yul\":3775:3776   */\n      dup2\n        /* \"#utility.yul\":3772:3785   */\n      lt\n        /* \"#utility.yul\":3764:3877   */\n      iszero\n      tag_127\n      jumpi\n        /* \"#utility.yul\":3863:3864   */\n      dup1\n        /* \"#utility.yul\":3858:3861   */\n      dup3\n        /* \"#utility.yul\":3854:3865   */\n      add\n        /* \"#utility.yul\":3848:3866   */\n      mload\n        /* \"#utility.yul\":3844:3845   */\n      dup2\n        /* \"#utility.yul\":3839:3842   */\n      dup5\n        /* \"#utility.yul\":3835:3846   */\n      add\n        /* \"#utility.yul\":3828:3867   */\n      mstore\n        /* \"#utility.yul\":3800:3802   */\n      0x20\n        /* \"#utility.yul\":3797:3798   */\n      dup2\n        /* \"#utility.yul\":3793:3803   */\n      add\n        /* \"#utility.yul\":3788:3803   */\n      swap1\n      pop\n        /* \"#utility.yul\":3764:3877   */\n      jump(tag_125)\n    tag_127:\n        /* \"#utility.yul\":3911:3912   */\n      0x00\n        /* \"#utility.yul\":3902:3908   */\n      dup5\n        /* \"#utility.yul\":3897:3900   */\n      dup5\n        /* \"#utility.yul\":3893:3909   */\n      add\n        /* \"#utility.yul\":3886:3913   */\n      mstore\n        /* \"#utility.yul\":3735:3919   */\n      pop\n        /* \"#utility.yul\":3673:3919   */\n      pop\n      pop\n      pop\n      jump\t// out\n        /* \"#utility.yul\":3925:4302   */\n    tag_61:\n        /* \"#utility.yul\":4013:4016   */\n      0x00\n        /* \"#utility.yul\":4041:4080   */\n      tag_129\n        /* \"#utility.yul\":4074:4079   */\n      dup3\n        /* \"#utility.yul\":4041:4080   */\n      tag_58\n      jump\t// in\n    tag_129:\n        /* \"#utility.yul\":4096:4167   */\n      tag_130\n        /* \"#utility.yul\":4160:4166   */\n      dup2\n        /* \"#utility.yul\":4155:4158   */\n      dup6\n        /* \"#utility.yul\":4096:4167   */\n      tag_59\n      jump\t// in\n    tag_130:\n        /* \"#utility.yul\":4089:4167   */\n      swap4\n      pop\n        /* \"#utility.yul\":4176:4241   */\n      tag_131\n        /* \"#utility.yul\":4234:4240   */\n      dup2\n        /* \"#utility.yul\":4229:4232   */\n      dup6\n        /* \"#utility.yul\":4222:4226   */\n      0x20\n        /* \"#utility.yul\":4215:4220   */\n      dup7\n        /* \"#utility.yul\":4211:4227   */\n      add\n        /* \"#utility.yul\":4176:4241   */\n      tag_60\n      jump\t// in\n    tag_131:\n        /* \"#utility.yul\":4266:4295   */\n      tag_132\n        /* \"#utility.yul\":4288:4294   */\n      dup2\n        /* \"#utility.yul\":4266:4295   */\n      tag_50\n      jump\t// in\n    tag_132:\n        /* \"#utility.yul\":4261:4264   */\n      dup5\n        /* \"#utility.yul\":4257:4296   */\n      add\n        /* \"#utility.yul\":4250:4296   */\n      swap2\n      pop\n        /* \"#utility.yul\":4017:4302   */\n      pop\n        /* \"#utility.yul\":3925:4302   */\n      swap3\n      swap2\n      pop\n      pop\n      jump\t// out\n        /* \"#utility.yul\":4308:4822   */\n    tag_13:\n        /* \"#utility.yul\":4469:4473   */\n      0x00\n        /* \"#utility.yul\":4507:4509   */\n      0x40\n        /* \"#utility.yul\":4496:4505   */\n      dup3\n        /* \"#utility.yul\":4492:4510   */\n      add\n        /* \"#utility.yul\":4484:4510   */\n      swap1\n      pop\n        /* \"#utility.yul\":4556:4565   */\n      dup2\n        /* \"#utility.yul\":4550:4554   */\n      dup2\n        /* \"#utility.yul\":4546:4566   */\n      sub\n        /* \"#utility.yul\":4542:4543   */\n      0x00\n        /* \"#utility.yul\":4531:4540   */\n      dup4\n        /* \"#utility.yul\":4527:4544   */\n      add\n        /* \"#utility.yul\":4520:4567   */\n      mstore\n        /* \"#utility.yul\":4584:4662   */\n      tag_134\n        /* \"#utility.yul\":4657:4661   */\n      dup2\n        /* \"#utility.yul\":4648:4654   */\n      dup6\n        /* \"#utility.yul\":4584:4662   */\n      tag_61\n      jump\t// in\n    tag_134:\n        /* \"#utility.yul\":4576:4662   */\n      swap1\n      pop\n        /* \"#utility.yul\":4709:4718   */\n      dup2\n        /* \"#utility.yul\":4703:4707   */\n      dup2\n        /* \"#utility.yul\":4699:4719   */\n      sub\n        /* \"#utility.yul\":4694:4696   */\n      0x20\n        /* \"#utility.yul\":4683:4692   */\n      dup4\n        /* \"#utility.yul\":4679:4697   */\n      add\n        /* \"#utility.yul\":4672:4720   */\n      mstore\n        /* \"#utility.yul\":4737:4815   */\n      tag_135\n        /* \"#utility.yul\":4810:4814   */\n      dup2\n        /* \"#utility.yul\":4801:4807   */\n      dup5\n        /* \"#utility.yul\":4737:4815   */\n      tag_61\n      jump\t// in\n    tag_135:\n        /* \"#utility.yul\":4729:4815   */\n      swap1\n      pop\n        /* \"#utility.yul\":4308:4822   */\n      swap4\n      swap3\n      pop\n      pop\n      pop\n      jump\t// out\n        /* \"#utility.yul\":4828:4954   */\n    tag_62:\n        /* \"#utility.yul\":4865:4872   */\n      0x00\n        /* \"#utility.yul\":4905:4947   */\n      0xffffffffffffffffffffffffffffffffffffffff\n        /* \"#utility.yul\":4898:4903   */\n      dup3\n        /* \"#utility.yul\":4894:4948   */\n      and\n        /* \"#utility.yul\":4883:4948   */\n      swap1\n      pop\n        /* \"#utility.yul\":4828:4954   */\n      swap2\n      swap1\n      pop\n      jump\t// out\n        /* \"#utility.yul\":4960:5056   */\n    tag_63:\n        /* \"#utility.yul\":4997:5004   */\n      0x00\n        /* \"#utility.yul\":5026:5050   */\n      tag_138\n        /* \"#utility.yul\":5044:5049   */\n      dup3\n        /* \"#utility.yul\":5026:5050   */\n      tag_62\n      jump\t// in\n    tag_138:\n        /* \"#utility.yul\":5015:5050   */\n      swap1\n      pop\n        /* \"#utility.yul\":4960:5056   */\n      swap2\n      swap1\n      pop\n      jump\t// out\n        /* \"#utility.yul\":5062:5184   */\n    tag_64:\n        /* \"#utility.yul\":5135:5159   */\n      tag_140\n        /* \"#utility.yul\":5153:5158   */\n      dup2\n        /* \"#utility.yul\":5135:5159   */\n      tag_63\n      jump\t// in\n    tag_140:\n        /* \"#utility.yul\":5128:5133   */\n      dup2\n        /* \"#utility.yul\":5125:5160   */\n      eq\n        /* \"#utility.yul\":5115:5178   */\n      tag_141\n      jumpi\n        /* \"#utility.yul\":5174:5175   */\n      0x00\n        /* \"#utility.yul\":5171:5172   */\n      dup1\n        /* \"#utility.yul\":5164:5176   */\n      revert\n        /* \"#utility.yul\":5115:5178   */\n    tag_141:\n        /* \"#utility.yul\":5062:5184   */\n      pop\n      jump\t// out\n        /* \"#utility.yul\":5190:5329   */\n    tag_65:\n        /* \"#utility.yul\":5236:5241   */\n      0x00\n        /* \"#utility.yul\":5274:5280   */\n      dup2\n        /* \"#utility.yul\":5261:5281   */\n      calldataload\n        /* \"#utility.yul\":5252:5281   */\n      swap1\n      pop\n        /* \"#utility.yul\":5290:5323   */\n      tag_143\n        /* \"#utility.yul\":5317:5322   */\n      dup2\n        /* \"#utility.yul\":5290:5323   */\n      tag_64\n      jump\t// in\n    tag_143:\n        /* \"#utility.yul\":5190:5329   */\n      swap3\n      swap2\n      pop\n      pop\n      jump\t// out\n        /* \"#utility.yul\":5335:5664   */\n    tag_16:\n        /* \"#utility.yul\":5394:5400   */\n      0x00\n        /* \"#utility.yul\":5443:5445   */\n      0x20\n        /* \"#utility.yul\":5431:5440   */\n      dup3\n        /* \"#utility.yul\":5422:5429   */\n      dup5\n        /* \"#utility.yul\":5418:5441   */\n      sub\n        /* \"#utility.yul\":5414:5446   */\n      slt\n        /* \"#utility.yul\":5411:5530   */\n      iszero\n      tag_145\n      jumpi\n        /* \"#utility.yul\":5449:5528   */\n      tag_146\n      tag_46\n      jump\t// in\n    tag_146:\n        /* \"#utility.yul\":5411:5530   */\n    tag_145:\n        /* \"#utility.yul\":5569:5570   */\n      0x00\n        /* \"#utility.yul\":5594:5647   */\n      tag_147\n        /* \"#utility.yul\":5639:5646   */\n      dup5\n        /* \"#utility.yul\":5630:5636   */\n      dup3\n        /* \"#utility.yul\":5619:5628   */\n      dup6\n        /* \"#utility.yul\":5615:5637   */\n      add\n        /* \"#utility.yul\":5594:5647   */\n      tag_65\n      jump\t// in\n    tag_147:\n        /* \"#utility.yul\":5584:5647   */\n      swap2\n      pop\n        /* \"#utility.yul\":5540:5657   */\n      pop\n        /* \"#utility.yul\":5335:5664   */\n      swap3\n      swap2\n      pop\n      pop\n      jump\t// out\n        /* \"#utility.yul\":5670:5850   */\n    tag_66:\n        /* \"#utility.yul\":5718:5795   */\n      0x4e487b7100000000000000000000000000000000000000000000000000000000\n        /* \"#utility.yul\":5715:5716   */\n      0x00\n        /* \"#utility.yul\":5708:5796   */\n      mstore\n        /* \"#utility.yul\":5815:5819   */\n      0x22\n        /* \"#utility.yul\":5812:5813   */\n      0x04\n        /* \"#utility.yul\":5805:5820   */\n      mstore\n        /* \"#utility.yul\":5839:5843   */\n      0x24\n        /* \"#utility.yul\":5836:5837   */\n      0x00\n        /* \"#utility.yul\":5829:5844   */\n      revert\n        /* \"#utility.yul\":5856:6176   */\n    tag_25:\n        /* \"#utility.yul\":5900:5906   */\n      0x00\n        /* \"#utility.yul\":5937:5938   */\n      0x02\n        /* \"#utility.yul\":5931:5935   */\n      dup3\n        /* \"#utility.yul\":5927:5939   */\n      div\n        /* \"#utility.yul\":5917:5939   */\n      swap1\n      pop\n        /* \"#utility.yul\":5984:5985   */\n      0x01\n        /* \"#utility.yul\":5978:5982   */\n      dup3\n        /* \"#utility.yul\":5974:5986   */\n      and\n        /* \"#utility.yul\":6005:6023   */\n      dup1\n        /* \"#utility.yul\":5995:6076   */\n      tag_150\n      jumpi\n        /* \"#utility.yul\":6061:6065   */\n      0x7f\n        /* \"#utility.yul\":6053:6059   */\n      dup3\n        /* \"#utility.yul\":6049:6066   */\n      and\n        /* \"#utility.yul\":6039:6066   */\n      swap2\n      pop\n        /* \"#utility.yul\":5995:6076   */\n    tag_150:\n        /* \"#utility.yul\":6123:6125   */\n      0x20\n        /* \"#utility.yul\":6115:6121   */\n      dup3\n        /* \"#utility.yul\":6112:6126   */\n      lt\n        /* \"#utility.yul\":6092:6110   */\n      dup2\n        /* \"#utility.yul\":6089:6127   */\n      sub\n        /* \"#utility.yul\":6086:6170   */\n      tag_151\n      jumpi\n        /* \"#utility.yul\":6142:6160   */\n      tag_152\n      tag_66\n      jump\t// in\n    tag_152:\n        /* \"#utility.yul\":6086:6170   */\n    tag_151:\n        /* \"#utility.yul\":5907:6176   */\n      pop\n        /* \"#utility.yul\":5856:6176   */\n      swap2\n      swap1\n      pop\n      jump\t// out\n        /* \"#utility.yul\":6182:6323   */\n    tag_67:\n        /* \"#utility.yul\":6231:6235   */\n      0x00\n        /* \"#utility.yul\":6254:6257   */\n      dup2\n        /* \"#utility.yul\":6246:6257   */\n      swap1\n      pop\n        /* \"#utility.yul\":6277:6280   */\n      dup2\n        /* \"#utility.yul\":6274:6275   */\n      0x00\n        /* \"#utility.yul\":6267:6281   */\n      mstore\n        /* \"#utility.yul\":6311:6315   */\n      0x20\n        /* \"#utility.yul\":6308:6309   */\n      0x00\n        /* \"#utility.yul\":6298:6316   */\n      keccak256\n        /* \"#utility.yul\":6290:6316   */\n      swap1\n      pop\n        /* \"#utility.yul\":6182:6323   */\n      swap2\n      swap1\n      pop\n      jump\t// out\n        /* \"#utility.yul\":6329:6422   */\n    tag_68:\n        /* \"#utility.yul\":6366:6372   */\n      0x00\n        /* \"#utility.yul\":6413:6415   */\n      0x20\n        /* \"#utility.yul\":6408:6410   */\n      0x1f\n        /* \"#utility.yul\":6401:6406   */\n      dup4\n        /* \"#utility.yul\":6397:6411   */\n      add\n        /* \"#utility.yul\":6393:6416   */\n      div\n        /* \"#utility.yul\":6383:6416   */\n      swap1\n      pop\n        /* \"#utility.yul\":6329:6422   */\n      swap2\n      swap1\n      pop\n      jump\t// out\n        /* \"#utility.yul\":6428:6535   */\n    tag_69:\n        /* \"#utility.yul\":6472:6480   */\n      0x00\n        /* \"#utility.yul\":6522:6527   */\n      dup3\n        /* \"#utility.yul\":6516:6520   */\n      dup3\n        /* \"#utility.yul\":6512:6528   */\n      shl\n        /* \"#utility.yul\":6491:6528   */\n      swap1\n      pop\n        /* \"#utility.yul\":6428:6535   */\n      swap3\n      swap2\n      pop\n      pop\n      jump\t// out\n        /* \"#utility.yul\":6541:6934   */\n    tag_70:\n        /* \"#utility.yul\":6610:6616   */\n      0x00\n        /* \"#utility.yul\":6660:6661   */\n      0x08\n        /* \"#utility.yul\":6648:6658   */\n      dup4\n        /* \"#utility.yul\":6644:6662   */\n      mul\n        /* \"#utility.yul\":6683:6780   */\n      tag_157\n        /* \"#utility.yul\":6713:6779   */\n      0xffffffffffffffffffffffffffffffffffffffffffffffffffffffffffffffff\n        /* \"#utility.yul\":6702:6711   */\n      dup3\n        /* \"#utility.yul\":6683:6780   */\n      tag_69\n      jump\t// in\n    tag_157:\n        /* \"#utility.yul\":6801:6840   */\n      tag_158\n        /* \"#utility.yul\":6831:6839   */\n      dup7\n        /* \"#utility.yul\":6820:6829   */\n      dup4\n        /* \"#utility.yul\":6801:6840   */\n      tag_69\n      jump\t// in\n    tag_158:\n        /* \"#utility.yul\":6789:6840   */\n      swap6\n      pop\n        /* \"#utility.yul\":6873:6877   */\n      dup1\n        /* \"#utility.yul\":6869:6878   */\n      not\n        /* \"#utility.yul\":6862:6867   */\n      dup5\n        /* \"#utility.yul\":6858:6879   */\n      and\n        /* \"#utility.yul\":6849:6879   */\n      swap4\n      pop\n        /* \"#utility.yul\":6922:6926   */\n      dup1\n        /* \"#utility.yul\":6912:6920   */\n      dup7\n        /* \"#utility.yul\":6908:6927   */\n      and\n        /* \"#utility.yul\":6901:6906   */\n      dup5\n        /* \"#utility.yul\":6898:6928   */\n      or\n        /* \"#utility.yul\":6888:6928   */\n      swap3\n      pop\n        /* \"#utility.yul\":6617:6934   */\n      pop\n      pop\n        /* \"#utility.yul\":6541:6934   */\n      swap4\n      swap3\n      pop\n      pop\n      pop\n      jump\t// out\n        /* \"#utility.yul\":6940:7017   */\n    tag_71:\n        /* \"#utility.yul\":6977:6984   */\n      0x00\n        /* \"#utility.yul\":7006:7011   */\n      dup2\n        /* \"#utility.yul\":6995:7011   */\n      swap1\n      pop\n        /* \"#utility.yul\":6940:7017   */\n      swap2\n      swap1\n      pop\n      jump\t// out\n        /* \"#utility.yul\":7023:7083   */\n    tag_72:\n        /* \"#utility.yul\":7051:7054   */\n      0x00\n        /* \"#utility.yul\":7072:7077   */\n      dup2\n        /* \"#utility.yul\":7065:7077   */\n      swap1\n      pop\n        /* \"#utility.yul\":7023:7083   */\n      swap2\n      swap1\n      pop\n      jump\t// out\n        /* \"#utility.yul\":7089:7231   */\n    tag_73:\n        /* \"#utility.yul\":7139:7148   */\n      0x00\n        /* \"#utility.yul\":7172:7225   */\n      tag_162\n        /* \"#utility.yul\":7190:7224   */\n      tag_163\n        /* \"#utility.yul\":7199:7223   */\n      tag_164\n        /* \"#utility.yul\":7217:7222   */\n      dup5\n        /* \"#utility.yul\":7199:7223   */\n      tag_71\n      jump\t// in\n    tag_164:\n        /* \"#utility.yul\":7190:7224   */\n      tag_72\n      jump\t// in\n    tag_163:\n        /* \"#utility.yul\":7172:7225   */\n      tag_71\n      jump\t// in\n    tag_162:\n        /* \"#utility.yul\":7159:7225   */\n      swap1\n      pop\n        /* \"#utility.yul\":7089:7231   */\n      swap2\n      swap1\n      pop\n      jump\t// out\n        /* \"#utility.yul\":7237:7312   */\n    tag_74:\n        /* \"#utility.yul\":7280:7283   */\n      0x00\n        /* \"#utility.yul\":7301:7306   */\n      dup2\n        /* \"#utility.yul\":7294:7306   */\n      swap1\n      pop\n        /* \"#utility.yul\":7237:7312   */\n      swap2\n      swap1\n      pop\n      jump\t// out\n        /* \"#utility.yul\":7318:7587   */\n    tag_75:\n        /* \"#utility.yul\":7428:7467   */\n      tag_167\n        /* \"#utility.yul\":7459:7466   */\n      dup4\n        /* \"#utility.yul\":7428:7467   */\n      tag_73\n      jump\t// in\n    tag_167:\n        /* \"#utility.yul\":7489:7580   */\n      tag_168\n        /* \"#utility.yul\":7538:7579   */\n      tag_169\n        /* \"#utility.yul\":7562:7578   */\n      dup3\n        /* \"#utility.yul\":7538:7579   */\n      tag_74\n      jump\t// in\n    tag_169:\n        /* \"#utility.yul\":7530:7536   */\n      dup5\n        /* \"#utility.yul\":7523:7527   */\n      dup5\n        /* \"#utility.yul\":7517:7528   */\n      sload\n        /* \"#utility.yul\":7489:7580   */\n      tag_70\n      jump\t// in\n    tag_168:\n        /* \"#utility.yul\":7483:7487   */\n      dup3\n        /* \"#utility.yul\":7476:7581   */\n      sstore\n        /* \"#utility.yul\":7394:7587   */\n      pop\n        /* \"#utility.yul\":7318:7587   */\n      pop\n      pop\n      pop\n      jump\t// out\n        /* \"#utility.yul\":7593:7666   */\n    tag_76:\n        /* \"#utility.yul\":7638:7641   */\n      0x00\n        /* \"#utility.yul\":7593:7666   */\n      swap1\n      jump\t// out\n        /* \"#utility.yul\":7672:7861   */\n    tag_77:\n        /* \"#utility.yul\":7749:7781   */\n      tag_172\n      tag_76\n      jump\t// in\n    tag_172:\n        /* \"#utility.yul\":7790:7855   */\n      tag_173\n        /* \"#utility.yul\":7848:7854   */\n      dup2\n        /* \"#utility.yul\":7840:7846   */\n      dup5\n        /* \"#utility.yul\":7834:7838   */\n      dup5\n        /* \"#utility.yul\":7790:7855   */\n      tag_75\n      jump\t// in\n    tag_173:\n        /* \"#utility.yul\":7725:7861   */\n      pop\n        /* \"#utility.yul\":7672:7861   */\n      pop\n      pop\n      jump\t// out\n        /* \"#utility.yul\":7867:8053   */\n    tag_78:\n        /* \"#utility.yul\":7927:8047   */\n    tag_175:\n        /* \"#utility.yul\":7944:7947   */\n      dup2\n        /* \"#utility.yul\":7937:7942   */\n      dup2\n        /* \"#utility.yul\":7934:7948   */\n      lt\n        /* \"#utility.yul\":7927:8047   */\n      iszero\n      tag_177\n      jumpi\n        /* \"#utility.yul\":7998:8037   */\n      tag_178\n        /* \"#utility.yul\":8035:8036   */\n      0x00\n        /* \"#utility.yul\":8028:8033   */\n      dup3\n        /* \"#utility.yul\":7998:8037   */\n      tag_77\n      jump\t// in\n    tag_178:\n        /* \"#utility.yul\":7971:7972   */\n      0x01\n        /* \"#utility.yul\":7964:7969   */\n      dup2\n        /* \"#utility.yul\":7960:7973   */\n      add\n        /* \"#utility.yul\":7951:7973   */\n      swap1\n      pop\n        /* \"#utility.yul\":7927:8047   */\n      jump(tag_175)\n    tag_177:\n        /* \"#utility.yul\":7867:8053   */\n      pop\n      pop\n      jump\t// out\n        /* \"#utility.yul\":8059:8602   */\n    tag_79:\n        /* \"#utility.yul\":8160:8162   */\n      0x1f\n        /* \"#utility.yul\":8155:8158   */\n      dup3\n        /* \"#utility.yul\":8152:8163   */\n      gt\n        /* \"#utility.yul\":8149:8595   */\n      iszero\n      tag_180\n      jumpi\n        /* \"#utility.yul\":8194:8232   */\n      tag_181\n        /* \"#utility.yul\":8226:8231   */\n      dup2\n        /* \"#utility.yul\":8194:8232   */\n      tag_67\n      jump\t// in\n    tag_181:\n        /* \"#utility.yul\":8278:8307   */\n      tag_182\n        /* \"#utility.yul\":8296:8306   */\n      dup5\n        /* \"#utility.yul\":8278:8307   */\n      tag_68\n      jump\t// in\n    tag_182:\n        /* \"#utility.yul\":8268:8276   */\n      dup2\n        /* \"#utility.yul\":8264:8308   */\n      add\n        /* \"#utility.yul\":8461:8463   */\n      0x20\n        /* \"#utility.yul\":8449:8459   */\n      dup6\n        /* \"#utility.yul\":8446:8464   */\n      lt\n        /* \"#utility.yul\":8443:8492   */\n      iszero\n      tag_183\n      jumpi\n        /* \"#utility.yul\":8482:8490   */\n      dup2\n        /* \"#utility.yul\":8467:8490   */\n      swap1\n      pop\n        /* \"#utility.yul\":8443:8492   */\n    tag_183:\n        /* \"#utility.yul\":8505:8585   */\n      tag_184\n        /* \"#utility.yul\":8561:8583   */\n      tag_185\n        /* \"#utility.yul\":8579:8582   */\n      dup6\n        /* \"#utility.yul\":8561:8583   */\n      tag_68\n      jump\t// in\n    tag_185:\n        /* \"#utility.yul\":8551:8559   */\n      dup4\n        /* \"#utility.yul\":8547:8584   */\n      add\n        /* \"#utility.yul\":8534:8545   */\n      dup3\n        /* \"#utility.yul\":8505:8585   */\n      tag_78\n      jump\t// in\n    tag_184:\n        /* \"#utility.yul\":8164:8595   */\n      pop\n      pop\n        /* \"#utility.yul\":8149:8595   */\n    tag_180:\n        /* \"#utility.yul\":8059:8602   */\n      pop\n      pop\n      pop\n      jump\t// out\n        /* \"#utility.yul\":8608:8725   */\n    tag_80:\n        /* \"#utility.yul\":8662:8670   */\n      0x00\n        /* \"#utility.yul\":8712:8717   */\n      dup3\n        /* \"#utility.yul\":8706:8710   */\n      dup3\n        /* \"#utility.yul\":8702:8718   */\n      shr\n        /* \"#utility.yul\":8681:8718   */\n      swap1\n      pop\n        /* \"#utility.yul\":8608:8725   */\n      swap3\n      swap2\n      pop\n      pop\n      jump\t// out\n        /* \"#utility.yul\":8731:8900   */\n    tag_81:\n        /* \"#utility.yul\":8775:8781   */\n      0x00\n        /* \"#utility.yul\":8808:8859   */\n      tag_188\n        /* \"#utility.yul\":8856:8857   */\n      0x00\n        /* \"#utility.yul\":8852:8858   */\n      not\n        /* \"#utility.yul\":8844:8849   */\n      dup5\n        /* \"#utility.yul\":8841:8842   */\n      0x08\n        /* \"#utility.yul\":8837:8850   */\n      mul\n        /* \"#utility.yul\":8808:8859   */\n      tag_80\n      jump\t// in\n    tag_188:\n        /* \"#utility.yul\":8804:8860   */\n      not\n        /* \"#utility.yul\":8889:8893   */\n      dup1\n        /* \"#utility.yul\":8883:8887   */\n      dup4\n        /* \"#utility.yul\":8879:8894   */\n      and\n        /* \"#utility.yul\":8869:8894   */\n      swap2\n      pop\n        /* \"#utility.yul\":8782:8900   */\n      pop\n        /* \"#utility.yul\":8731:8900   */\n      swap3\n      swap2\n      pop\n      pop\n      jump\t// out\n        /* \"#utility.yul\":8905:9200   */\n    tag_82:\n        /* \"#utility.yul\":8981:8985   */\n      0x00\n        /* \"#utility.yul\":9127:9156   */\n      tag_190\n        /* \"#utility.yul\":9152:9155   */\n      dup4\n        /* \"#utility.yul\":9146:9150   */\n      dup4\n        /* \"#utility.yul\":9127:9156   */\n      tag_81\n      jump\t// in\n    tag_190:\n        /* \"#utility.yul\":9119:9156   */\n      swap2\n      pop\n        /* \"#utility.yul\":9189:9192   */\n      dup3\n        /* \"#utility.yul\":9186:9187   */\n      0x02\n        /* \"#utility.yul\":9182:9193   */\n      mul\n        /* \"#utility.yul\":9176:9180   */\n      dup3\n        /* \"#utility.yul\":9173:9194   */\n      or\n        /* \"#utility.yul\":9165:9194   */\n      swap1\n      pop\n        /* \"#utility.yul\":8905:9200   */\n      swap3\n      swap2\n      pop\n      pop\n      jump\t// out\n        /* \"#utility.yul\":9205:10600   */\n    tag_21:\n        /* \"#utility.yul\":9322:9359   */\n      tag_192\n        /* \"#utility.yul\":9355:9358   */\n      dup3\n        /* \"#utility.yul\":9322:9359   */\n      tag_58\n      jump\t// in\n    tag_192:\n        /* \"#utility.yul\":9424:9442   */\n      0xffffffffffffffff\n        /* \"#utility.yul\":9416:9422   */\n      dup2\n        /* \"#utility.yul\":9413:9443   */\n      gt\n        /* \"#utility.yul\":9410:9466   */\n      iszero\n      tag_193\n      jumpi\n        /* \"#utility.yul\":9446:9464   */\n      tag_194\n      tag_51\n      jump\t// in\n    tag_194:\n        /* \"#utility.yul\":9410:9466   */\n    tag_193:\n        /* \"#utility.yul\":9490:9528   */\n      tag_195\n        /* \"#utility.yul\":9522:9526   */\n      dup3\n        /* \"#utility.yul\":9516:9527   */\n      sload\n        /* \"#utility.yul\":9490:9528   */\n      tag_25\n      jump\t// in\n    tag_195:\n        /* \"#utility.yul\":9575:9642   */\n      tag_196\n        /* \"#utility.yul\":9635:9641   */\n      dup3\n        /* \"#utility.yul\":9627:9633   */\n      dup3\n        /* \"#utility.yul\":9621:9625   */\n      dup6\n        /* \"#utility.yul\":9575:9642   */\n      tag_79\n      jump\t// in\n    tag_196:\n        /* \"#utility.yul\":9669:9670   */\n      0x00\n        /* \"#utility.yul\":9693:9697   */\n      0x20\n        /* \"#utility.yul\":9680:9697   */\n      swap1\n      pop\n        /* \"#utility.yul\":9725:9727   */\n      0x1f\n        /* \"#utility.yul\":9717:9723   */\n      dup4\n        /* \"#utility.yul\":9714:9728   */\n      gt\n        /* \"#utility.yul\":9742:9743   */\n      0x01\n        /* \"#utility.yul\":9737:10355   */\n      dup2\n      eq\n      tag_198\n      jumpi\n        /* \"#utility.yul\":10399:10400   */\n      0x00\n        /* \"#utility.yul\":10416:10422   */\n      dup5\n        /* \"#utility.yul\":10413:10490   */\n      iszero\n      tag_199\n      jumpi\n        /* \"#utility.yul\":10465:10474   */\n      dup3\n        /* \"#utility.yul\":10460:10463   */\n      dup8\n        /* \"#utility.yul\":10456:10475   */\n      add\n        /* \"#utility.yul\":10450:10476   */\n      mload\n        /* \"#utility.yul\":10441:10476   */\n      swap1\n      pop\n        /* \"#utility.yul\":10413:10490   */\n    tag_199:\n        /* \"#utility.yul\":10516:10583   */\n      tag_200\n        /* \"#utility.yul\":10576:10582   */\n      dup6\n        /* \"#utility.yul\":10569:10574   */\n      dup3\n        /* \"#utility.yul\":10516:10583   */\n      tag_82\n      jump\t// in\n    tag_200:\n        /* \"#utility.yul\":10510:10514   */\n      dup7\n        /* \"#utility.yul\":10503:10584   */\n      sstore\n        /* \"#utility.yul\":10372:10594   */\n      pop\n        /* \"#utility.yul\":9707:10594   */\n      jump(tag_197)\n        /* \"#utility.yul\":9737:10355   */\n    tag_198:\n        /* \"#utility.yul\":9789:9793   */\n      0x1f\n        /* \"#utility.yul\":9785:9794   */\n      not\n        /* \"#utility.yul\":9777:9783   */\n      dup5\n        /* \"#utility.yul\":9773:9795   */\n      and\n        /* \"#utility.yul\":9823:9860   */\n      tag_201\n        /* \"#utility.yul\":9855:9859   */\n      dup7\n        /* \"#utility.yul\":9823:9860   */\n      tag_67\n      jump\t// in\n    tag_201:\n        /* \"#utility.yul\":9882:9883   */\n      0x00\n        /* \"#utility.yul\":9896:10104   */\n    tag_202:\n        /* \"#utility.yul\":9910:9917   */\n      dup3\n        /* \"#utility.yul\":9907:9908   */\n      dup2\n        /* \"#utility.yul\":9904:9918   */\n      lt\n        /* \"#utility.yul\":9896:10104   */\n      iszero\n      tag_204\n      jumpi\n        /* \"#utility.yul\":9989:9998   */\n      dup5\n        /* \"#utility.yul\":9984:9987   */\n      dup10\n        /* \"#utility.yul\":9980:9999   */\n      add\n        /* \"#utility.yul\":9974:10000   */\n      mload\n        /* \"#utility.yul\":9966:9972   */\n      dup3\n        /* \"#utility.yul\":9959:10001   */\n      sstore\n        /* \"#utility.yul\":10040:10041   */\n      0x01\n        /* \"#utility.yul\":10032:10038   */\n      dup3\n        /* \"#utility.yul\":10028:10042   */\n      add\n        /* \"#utility.yul\":10018:10042   */\n      swap2\n      pop\n        /* \"#utility.yul\":10087:10089   */\n      0x20\n        /* \"#utility.yul\":10076:10085   */\n      dup6\n        /* \"#utility.yul\":10072:10090   */\n      add\n        /* \"#utility.yul\":10059:10090   */\n      swap5\n      pop\n        /* \"#utility.yul\":9933:9937   */\n      0x20\n        /* \"#utility.yul\":9930:9931   */\n      dup2\n        /* \"#utility.yul\":9926:9938   */\n      add\n        /* \"#utility.yul\":9921:9938   */\n      swap1\n      pop\n        /* \"#utility.yul\":9896:10104   */\n      jump(tag_202)\n    tag_204:\n        /* \"#utility.yul\":10132:10138   */\n      dup7\n        /* \"#utility.yul\":10123:10130   */\n      dup4\n        /* \"#utility.yul\":10120:10139   */\n      lt\n        /* \"#utility.yul\":10117:10296   */\n      iszero\n      tag_205\n      jumpi\n        /* \"#utility.yul\":10190:10199   */\n      dup5\n        /* \"#utility.yul\":10185:10188   */\n      dup10\n        /* \"#utility.yul\":10181:10200   */\n      add\n        /* \"#utility.yul\":10175:10201   */\n      mload\n        /* \"#utility.yul\":10233:10281   */\n      tag_206\n        /* \"#utility.yul\":10275:10279   */\n      0x1f\n        /* \"#utility.yul\":10267:10273   */\n      dup10\n        /* \"#utility.yul\":10263:10280   */\n      and\n        /* \"#utility.yul\":10252:10261   */\n      dup3\n        /* \"#utility.yul\":10233:10281   */\n      tag_81\n      jump\t// in\n    tag_206:\n        /* \"#utility.yul\":10225:10231   */\n      dup4\n        /* \"#utility.yul\":10218:10282   */\n      sstore\n        /* \"#utility.yul\":10140:10296   */\n      pop\n        /* \"#utility.yul\":10117:10296   */\n    tag_205:\n        /* \"#utility.yul\":10342:10343   */\n      0x01\n        /* \"#utility.yul\":10338:10339   */\n      0x02\n        /* \"#utility.yul\":10330:10336   */\n      dup9\n        /* \"#utility.yul\":10326:10340   */\n      mul\n        /* \"#utility.yul\":10322:10344   */\n      add\n        /* \"#utility.yul\":10316:10320   */\n      dup9\n        /* \"#utility.yul\":10309:10345   */\n      sstore\n        /* \"#utility.yul\":9744:10355   */\n      pop\n      pop\n      pop\n        /* \"#utility.yul\":9707:10594   */\n    tag_197:\n      pop\n        /* \"#utility.yul\":9297:10600   */\n      pop\n      pop\n      pop\n        /* \"#utility.yul\":9205:10600   */\n      pop\n      pop\n      jump\t// out\n\n    auxdata: 0xa26469706673582212209ad90181433b9091b8312789d76d72d5e88990d44b8000fc2aef935fe37bda2b64736f6c63430008180033\n}\n",
				"bytecode": {
					"linkReferences": {},
					"object": "608060405234801561000f575f80fd5b506109d98061001d5f395ff3fe608060405234801561000f575f80fd5b506004361061003f575f3560e01c8063045930ee146100435780636203a83b1461005f578063fe4aefbd1461007e575b5f80fd5b61005d60048036038101906100589190610527565b6100af565b005b610067610131565b604051610075929190610617565b60405180910390f35b610098600480360381019061009391906106a6565b6102af565b6040516100a6929190610617565b60405180910390f35b6040518060400160405280838152602001828152505f803373ffffffffffffffffffffffffffffffffffffffff1673ffffffffffffffffffffffffffffffffffffffff1681526020019081526020015f205f820151815f01908161011391906108d4565b50602082015181600101908161012991906108d4565b509050505050565b6060805f805f3373ffffffffffffffffffffffffffffffffffffffff1673ffffffffffffffffffffffffffffffffffffffff1681526020019081526020015f206040518060400160405290815f8201805461018b906106fe565b80601f01602080910402602001604051908101604052809291908181526020018280546101b7906106fe565b80156102025780601f106101d957610100808354040283529160200191610202565b820191905f5260205f20905b8154815290600101906020018083116101e557829003601f168201915b5050505050815260200160018201805461021b906106fe565b80601f0160208091040260200160405190810160405280929190818152602001828054610247906106fe565b80156102925780601f1061026957610100808354040283529160200191610292565b820191905f5260205f20905b81548152906001019060200180831161027557829003601f168201915b5050505050815250509050805f0151816020015192509250509091565b5f602052805f5260405f205f91509050805f0180546102cd906106fe565b80601f01602080910402602001604051908101604052809291908181526020018280546102f9906106fe565b80156103445780601f1061031b57610100808354040283529160200191610344565b820191905f5260205f20905b81548152906001019060200180831161032757829003601f168201915b505050505090806001018054610359906106fe565b80601f0160208091040260200160405190810160405280929190818152602001828054610385906106fe565b80156103d05780601f106103a7576101008083540402835291602001916103d0565b820191905f5260205f20905b8154815290600101906020018083116103b357829003601f168201915b5050505050905082565b5f604051905090565b5f80fd5b5f80fd5b5f80fd5b5f80fd5b5f601f19601f8301169050919050565b7f4e487b71000000000000000000000000000000000000000000000000000000005f52604160045260245ffd5b610439826103f3565b810181811067ffffffffffffffff8211171561045857610457610403565b5b80604052505050565b5f61046a6103da565b90506104768282610430565b919050565b5f67ffffffffffffffff82111561049557610494610403565b5b61049e826103f3565b9050602081019050919050565b828183375f83830152505050565b5f6104cb6104c68461047b565b610461565b9050828152602081018484840111156104e7576104e66103ef565b5b6104f28482856104ab565b509392505050565b5f82601f83011261050e5761050d6103eb565b5b813561051e8482602086016104b9565b91505092915050565b5f806040838503121561053d5761053c6103e3565b5b5f83013567ffffffffffffffff81111561055a576105596103e7565b5b610566858286016104fa565b925050602083013567ffffffffffffffff811115610587576105866103e7565b5b610593858286016104fa565b9150509250929050565b5f81519050919050565b5f82825260208201905092915050565b5f5b838110156105d45780820151818401526020810190506105b9565b5f8484015250505050565b5f6105e98261059d565b6105f381856105a7565b93506106038185602086016105b7565b61060c816103f3565b840191505092915050565b5f6040820190508181035f83015261062f81856105df565b9050818103602083015261064381846105df565b90509392505050565b5f73ffffffffffffffffffffffffffffffffffffffff82169050919050565b5f6106758261064c565b9050919050565b6106858161066b565b811461068f575f80fd5b50565b5f813590506106a08161067c565b92915050565b5f602082840312156106bb576106ba6103e3565b5b5f6106c884828501610692565b91505092915050565b7f4e487b71000000000000000000000000000000000000000000000000000000005f52602260045260245ffd5b5f600282049050600182168061071557607f821691505b602082108103610728576107276106d1565b5b50919050565b5f819050815f5260205f209050919050565b5f6020601f8301049050919050565b5f82821b905092915050565b5f6008830261078a7fffffffffffffffffffffffffffffffffffffffffffffffffffffffffffffffff8261074f565b610794868361074f565b95508019841693508086168417925050509392505050565b5f819050919050565b5f819050919050565b5f6107d86107d36107ce846107ac565b6107b5565b6107ac565b9050919050565b5f819050919050565b6107f1836107be565b6108056107fd826107df565b84845461075b565b825550505050565b5f90565b61081961080d565b6108248184846107e8565b505050565b5b818110156108475761083c5f82610811565b60018101905061082a565b5050565b601f82111561088c5761085d8161072e565b61086684610740565b81016020851015610875578190505b61088961088185610740565b830182610829565b50505b505050565b5f82821c905092915050565b5f6108ac5f1984600802610891565b1980831691505092915050565b5f6108c4838361089d565b9150826002028217905092915050565b6108dd8261059d565b67ffffffffffffffff8111156108f6576108f5610403565b5b61090082546106fe565b61090b82828561084b565b5f60209050601f83116001811461093c575f841561092a578287015190505b61093485826108b9565b86555061099b565b601f19841661094a8661072e565b5f5b828110156109715784890151825560018201915060208501945060208101905061094c565b8683101561098e578489015161098a601f89168261089d565b8355505b6001600288020188555050505b50505050505056fea26469706673582212209ad90181433b9091b8312789d76d72d5e88990d44b8000fc2aef935fe37bda2b64736f6c63430008180033",
					"opcodes": "PUSH1 0x80 PUSH1 0x40 MSTORE CALLVALUE DUP1 ISZERO PUSH2 0xF JUMPI PUSH0 DUP1 REVERT JUMPDEST POP PUSH2 0x9D9 DUP1 PUSH2 0x1D PUSH0 CODECOPY PUSH0 RETURN INVALID PUSH1 0x80 PUSH1 0x40 MSTORE CALLVALUE DUP1 ISZERO PUSH2 0xF JUMPI PUSH0 DUP1 REVERT JUMPDEST POP PUSH1 0x4 CALLDATASIZE LT PUSH2 0x3F JUMPI PUSH0 CALLDATALOAD PUSH1 0xE0 SHR DUP1 PUSH4 0x45930EE EQ PUSH2 0x43 JUMPI DUP1 PUSH4 0x6203A83B EQ PUSH2 0x5F JUMPI DUP1 PUSH4 0xFE4AEFBD EQ PUSH2 0x7E JUMPI JUMPDEST PUSH0 DUP1 REVERT JUMPDEST PUSH2 0x5D PUSH1 0x4 DUP1 CALLDATASIZE SUB DUP2 ADD SWAP1 PUSH2 0x58 SWAP2 SWAP1 PUSH2 0x527 JUMP JUMPDEST PUSH2 0xAF JUMP JUMPDEST STOP JUMPDEST PUSH2 0x67 PUSH2 0x131 JUMP JUMPDEST PUSH1 0x40 MLOAD PUSH2 0x75 SWAP3 SWAP2 SWAP1 PUSH2 0x617 JUMP JUMPDEST PUSH1 0x40 MLOAD DUP1 SWAP2 SUB SWAP1 RETURN JUMPDEST PUSH2 0x98 PUSH1 0x4 DUP1 CALLDATASIZE SUB DUP2 ADD SWAP1 PUSH2 0x93 SWAP2 SWAP1 PUSH2 0x6A6 JUMP JUMPDEST PUSH2 0x2AF JUMP JUMPDEST PUSH1 0x40 MLOAD PUSH2 0xA6 SWAP3 SWAP2 SWAP1 PUSH2 0x617 JUMP JUMPDEST PUSH1 0x40 MLOAD DUP1 SWAP2 SUB SWAP1 RETURN JUMPDEST PUSH1 0x40 MLOAD DUP1 PUSH1 0x40 ADD PUSH1 0x40 MSTORE DUP1 DUP4 DUP2 MSTORE PUSH1 0x20 ADD DUP3 DUP2 MSTORE POP PUSH0 DUP1 CALLER PUSH20 0xFFFFFFFFFFFFFFFFFFFFFFFFFFFFFFFFFFFFFFFF AND PUSH20 0xFFFFFFFFFFFFFFFFFFFFFFFFFFFFFFFFFFFFFFFF AND DUP2 MSTORE PUSH1 0x20 ADD SWAP1 DUP2 MSTORE PUSH1 0x20 ADD PUSH0 KECCAK256 PUSH0 DUP3 ADD MLOAD DUP2 PUSH0 ADD SWAP1 DUP2 PUSH2 0x113 SWAP2 SWAP1 PUSH2 0x8D4 JUMP JUMPDEST POP PUSH1 0x20 DUP3 ADD MLOAD DUP2 PUSH1 0x1 ADD SWAP1 DUP2 PUSH2 0x129 SWAP2 SWAP1 PUSH2 0x8D4 JUMP JUMPDEST POP SWAP1 POP POP POP POP JUMP JUMPDEST PUSH1 0x60 DUP1 PUSH0 DUP1 PUSH0 CALLER PUSH20 0xFFFFFFFFFFFFFFFFFFFFFFFFFFFFFFFFFFFFFFFF AND PUSH20 0xFFFFFFFFFFFFFFFFFFFFFFFFFFFFFFFFFFFFFFFF AND DUP2 MSTORE PUSH1 0x20 ADD SWAP1 DUP2 MSTORE PUSH1 0x20 ADD PUSH0 KECCAK256 PUSH1 0x40 MLOAD DUP1 PUSH1 0x40 ADD PUSH1 0x40 MSTORE SWAP1 DUP2 PUSH0 DUP3 ADD DUP1 SLOAD PUSH2 0x18B SWAP1 PUSH2 0x6FE JUMP JUMPDEST DUP1 PUSH1 0x1F ADD PUSH1 0x20 DUP1 SWAP2 DIV MUL PUSH1 0x20 ADD PUSH1 0x40 MLOAD SWAP1 DUP2 ADD PUSH1 0x40 MSTORE DUP1 SWAP3 SWAP2 SWAP1 DUP2 DUP2 MSTORE PUSH1 0x20 ADD DUP3 DUP1 SLOAD PUSH2 0x1B7 SWAP1 PUSH2 0x6FE JUMP JUMPDEST DUP1 ISZERO PUSH2 0x202 JUMPI DUP1 PUSH1 0x1F LT PUSH2 0x1D9 JUMPI PUSH2 0x100 DUP1 DUP4 SLOAD DIV MUL DUP4 MSTORE SWAP2 PUSH1 0x20 ADD SWAP2 PUSH2 0x202 JUMP JUMPDEST DUP3 ADD SWAP2 SWAP1 PUSH0 MSTORE PUSH1 0x20 PUSH0 KECCAK256 SWAP1 JUMPDEST DUP2 SLOAD DUP2 MSTORE SWAP1 PUSH1 0x1 ADD SWAP1 PUSH1 0x20 ADD DUP1 DUP4 GT PUSH2 0x1E5 JUMPI DUP3 SWAP1 SUB PUSH1 0x1F AND DUP3 ADD SWAP2 JUMPDEST POP POP POP POP POP DUP2 MSTORE PUSH1 0x20 ADD PUSH1 0x1 DUP3 ADD DUP1 SLOAD PUSH2 0x21B SWAP1 PUSH2 0x6FE JUMP JUMPDEST DUP1 PUSH1 0x1F ADD PUSH1 0x20 DUP1 SWAP2 DIV MUL PUSH1 0x20 ADD PUSH1 0x40 MLOAD SWAP1 DUP2 ADD PUSH1 0x40 MSTORE DUP1 SWAP3 SWAP2 SWAP1 DUP2 DUP2 MSTORE PUSH1 0x20 ADD DUP3 DUP1 SLOAD PUSH2 0x247 SWAP1 PUSH2 0x6FE JUMP JUMPDEST DUP1 ISZERO PUSH2 0x292 JUMPI DUP1 PUSH1 0x1F LT PUSH2 0x269 JUMPI PUSH2 0x100 DUP1 DUP4 SLOAD DIV MUL DUP4 MSTORE SWAP2 PUSH1 0x20 ADD SWAP2 PUSH2 0x292 JUMP JUMPDEST DUP3 ADD SWAP2 SWAP1 PUSH0 MSTORE PUSH1 0x20 PUSH0 KECCAK256 SWAP1 JUMPDEST DUP2 SLOAD DUP2 MSTORE SWAP1 PUSH1 0x1 ADD SWAP1 PUSH1 0x20 ADD DUP1 DUP4 GT PUSH2 0x275 JUMPI DUP3 SWAP1 SUB PUSH1 0x1F AND DUP3 ADD SWAP2 JUMPDEST POP POP POP POP POP DUP2 MSTORE POP POP SWAP1 POP DUP1 PUSH0 ADD MLOAD DUP2 PUSH1 0x20 ADD MLOAD SWAP3 POP SWAP3 POP POP SWAP1 SWAP2 JUMP JUMPDEST PUSH0 PUSH1 0x20 MSTORE DUP1 PUSH0 MSTORE PUSH1 0x40 PUSH0 KECCAK256 PUSH0 SWAP2 POP SWAP1 POP DUP1 PUSH0 ADD DUP1 SLOAD PUSH2 0x2CD SWAP1 PUSH2 0x6FE JUMP JUMPDEST DUP1 PUSH1 0x1F ADD PUSH1 0x20 DUP1 SWAP2 DIV MUL PUSH1 0x20 ADD PUSH1 0x40 MLOAD SWAP1 DUP2 ADD PUSH1 0x40 MSTORE DUP1 SWAP3 SWAP2 SWAP1 DUP2 DUP2 MSTORE PUSH1 0x20 ADD DUP3 DUP1 SLOAD PUSH2 0x2F9 SWAP1 PUSH2 0x6FE JUMP JUMPDEST DUP1 ISZERO PUSH2 0x344 JUMPI DUP1 PUSH1 0x1F LT PUSH2 0x31B JUMPI PUSH2 0x100 DUP1 DUP4 SLOAD DIV MUL DUP4 MSTORE SWAP2 PUSH1 0x20 ADD SWAP2 PUSH2 0x344 JUMP JUMPDEST DUP3 ADD SWAP2 SWAP1 PUSH0 MSTORE PUSH1 0x20 PUSH0 KECCAK256 SWAP1 JUMPDEST DUP2 SLOAD DUP2 MSTORE SWAP1 PUSH1 0x1 ADD SWAP1 PUSH1 0x20 ADD DUP1 DUP4 GT PUSH2 0x327 JUMPI DUP3 SWAP1 SUB PUSH1 0x1F AND DUP3 ADD SWAP2 JUMPDEST POP POP POP POP POP SWAP1 DUP1 PUSH1 0x1 ADD DUP1 SLOAD PUSH2 0x359 SWAP1 PUSH2 0x6FE JUMP JUMPDEST DUP1 PUSH1 0x1F ADD PUSH1 0x20 DUP1 SWAP2 DIV MUL PUSH1 0x20 ADD PUSH1 0x40 MLOAD SWAP1 DUP2 ADD PUSH1 0x40 MSTORE DUP1 SWAP3 SWAP2 SWAP1 DUP2 DUP2 MSTORE PUSH1 0x20 ADD DUP3 DUP1 SLOAD PUSH2 0x385 SWAP1 PUSH2 0x6FE JUMP JUMPDEST DUP1 ISZERO PUSH2 0x3D0 JUMPI DUP1 PUSH1 0x1F LT PUSH2 0x3A7 JUMPI PUSH2 0x100 DUP1 DUP4 SLOAD DIV MUL DUP4 MSTORE SWAP2 PUSH1 0x20 ADD SWAP2 PUSH2 0x3D0 JUMP JUMPDEST DUP3 ADD SWAP2 SWAP1 PUSH0 MSTORE PUSH1 0x20 PUSH0 KECCAK256 SWAP1 JUMPDEST DUP2 SLOAD DUP2 MSTORE SWAP1 PUSH1 0x1 ADD SWAP1 PUSH1 0x20 ADD DUP1 DUP4 GT PUSH2 0x3B3 JUMPI DUP3 SWAP1 SUB PUSH1 0x1F AND DUP3 ADD SWAP2 JUMPDEST POP POP POP POP POP SWAP1 POP DUP3 JUMP JUMPDEST PUSH0 PUSH1 0x40 MLOAD SWAP1 POP SWAP1 JUMP JUMPDEST PUSH0 DUP1 REVERT JUMPDEST PUSH0 DUP1 REVERT JUMPDEST PUSH0 DUP1 REVERT JUMPDEST PUSH0 DUP1 REVERT JUMPDEST PUSH0 PUSH1 0x1F NOT PUSH1 0x1F DUP4 ADD AND SWAP1 POP SWAP2 SWAP1 POP JUMP JUMPDEST PUSH32 0x4E487B7100000000000000000000000000000000000000000000000000000000 PUSH0 MSTORE PUSH1 0x41 PUSH1 0x4 MSTORE PUSH1 0x24 PUSH0 REVERT JUMPDEST PUSH2 0x439 DUP3 PUSH2 0x3F3 JUMP JUMPDEST DUP2 ADD DUP2 DUP2 LT PUSH8 0xFFFFFFFFFFFFFFFF DUP3 GT OR ISZERO PUSH2 0x458 JUMPI PUSH2 0x457 PUSH2 0x403 JUMP JUMPDEST JUMPDEST DUP1 PUSH1 0x40 MSTORE POP POP POP JUMP JUMPDEST PUSH0 PUSH2 0x46A PUSH2 0x3DA JUMP JUMPDEST SWAP1 POP PUSH2 0x476 DUP3 DUP3 PUSH2 0x430 JUMP JUMPDEST SWAP2 SWAP1 POP JUMP JUMPDEST PUSH0 PUSH8 0xFFFFFFFFFFFFFFFF DUP3 GT ISZERO PUSH2 0x495 JUMPI PUSH2 0x494 PUSH2 0x403 JUMP JUMPDEST JUMPDEST PUSH2 0x49E DUP3 PUSH2 0x3F3 JUMP JUMPDEST SWAP1 POP PUSH1 0x20 DUP2 ADD SWAP1 POP SWAP2 SWAP1 POP JUMP JUMPDEST DUP3 DUP2 DUP4 CALLDATACOPY PUSH0 DUP4 DUP4 ADD MSTORE POP POP POP JUMP JUMPDEST PUSH0 PUSH2 0x4CB PUSH2 0x4C6 DUP5 PUSH2 0x47B JUMP JUMPDEST PUSH2 0x461 JUMP JUMPDEST SWAP1 POP DUP3 DUP2 MSTORE PUSH1 0x20 DUP2 ADD DUP5 DUP5 DUP5 ADD GT ISZERO PUSH2 0x4E7 JUMPI PUSH2 0x4E6 PUSH2 0x3EF JUMP JUMPDEST JUMPDEST PUSH2 0x4F2 DUP5 DUP3 DUP6 PUSH2 0x4AB JUMP JUMPDEST POP SWAP4 SWAP3 POP POP POP JUMP JUMPDEST PUSH0 DUP3 PUSH1 0x1F DUP4 ADD SLT PUSH2 0x50E JUMPI PUSH2 0x50D PUSH2 0x3EB JUMP JUMPDEST JUMPDEST DUP2 CALLDATALOAD PUSH2 0x51E DUP5 DUP3 PUSH1 0x20 DUP7 ADD PUSH2 0x4B9 JUMP JUMPDEST SWAP2 POP POP SWAP3 SWAP2 POP POP JUMP JUMPDEST PUSH0 DUP1 PUSH1 0x40 DUP4 DUP6 SUB SLT ISZERO PUSH2 0x53D JUMPI PUSH2 0x53C PUSH2 0x3E3 JUMP JUMPDEST JUMPDEST PUSH0 DUP4 ADD CALLDATALOAD PUSH8 0xFFFFFFFFFFFFFFFF DUP2 GT ISZERO PUSH2 0x55A JUMPI PUSH2 0x559 PUSH2 0x3E7 JUMP JUMPDEST JUMPDEST PUSH2 0x566 DUP6 DUP3 DUP7 ADD PUSH2 0x4FA JUMP JUMPDEST SWAP3 POP POP PUSH1 0x20 DUP4 ADD CALLDATALOAD PUSH8 0xFFFFFFFFFFFFFFFF DUP2 GT ISZERO PUSH2 0x587 JUMPI PUSH2 0x586 PUSH2 0x3E7 JUMP JUMPDEST JUMPDEST PUSH2 0x593 DUP6 DUP3 DUP7 ADD PUSH2 0x4FA JUMP JUMPDEST SWAP2 POP POP SWAP3 POP SWAP3 SWAP1 POP JUMP JUMPDEST PUSH0 DUP2 MLOAD SWAP1 POP SWAP2 SWAP1 POP JUMP JUMPDEST PUSH0 DUP3 DUP3 MSTORE PUSH1 0x20 DUP3 ADD SWAP1 POP SWAP3 SWAP2 POP POP JUMP JUMPDEST PUSH0 JUMPDEST DUP4 DUP2 LT ISZERO PUSH2 0x5D4 JUMPI DUP1 DUP3 ADD MLOAD DUP2 DUP5 ADD MSTORE PUSH1 0x20 DUP2 ADD SWAP1 POP PUSH2 0x5B9 JUMP JUMPDEST PUSH0 DUP5 DUP5 ADD MSTORE POP POP POP POP JUMP JUMPDEST PUSH0 PUSH2 0x5E9 DUP3 PUSH2 0x59D JUMP JUMPDEST PUSH2 0x5F3 DUP2 DUP6 PUSH2 0x5A7 JUMP JUMPDEST SWAP4 POP PUSH2 0x603 DUP2 DUP6 PUSH1 0x20 DUP7 ADD PUSH2 0x5B7 JUMP JUMPDEST PUSH2 0x60C DUP2 PUSH2 0x3F3 JUMP JUMPDEST DUP5 ADD SWAP2 POP POP SWAP3 SWAP2 POP POP JUMP JUMPDEST PUSH0 PUSH1 0x40 DUP3 ADD SWAP1 POP DUP2 DUP2 SUB PUSH0 DUP4 ADD MSTORE PUSH2 0x62F DUP2 DUP6 PUSH2 0x5DF JUMP JUMPDEST SWAP1 POP DUP2 DUP2 SUB PUSH1 0x20 DUP4 ADD MSTORE PUSH2 0x643 DUP2 DUP5 PUSH2 0x5DF JUMP JUMPDEST SWAP1 POP SWAP4 SWAP3 POP POP POP JUMP JUMPDEST PUSH0 PUSH20 0xFFFFFFFFFFFFFFFFFFFFFFFFFFFFFFFFFFFFFFFF DUP3 AND SWAP1 POP SWAP2 SWAP1 POP JUMP JUMPDEST PUSH0 PUSH2 0x675 DUP3 PUSH2 0x64C JUMP JUMPDEST SWAP1 POP SWAP2 SWAP1 POP JUMP JUMPDEST PUSH2 0x685 DUP2 PUSH2 0x66B JUMP JUMPDEST DUP2 EQ PUSH2 0x68F JUMPI PUSH0 DUP1 REVERT JUMPDEST POP JUMP JUMPDEST PUSH0 DUP2 CALLDATALOAD SWAP1 POP PUSH2 0x6A0 DUP2 PUSH2 0x67C JUMP JUMPDEST SWAP3 SWAP2 POP POP JUMP JUMPDEST PUSH0 PUSH1 0x20 DUP3 DUP5 SUB SLT ISZERO PUSH2 0x6BB JUMPI PUSH2 0x6BA PUSH2 0x3E3 JUMP JUMPDEST JUMPDEST PUSH0 PUSH2 0x6C8 DUP5 DUP3 DUP6 ADD PUSH2 0x692 JUMP JUMPDEST SWAP2 POP POP SWAP3 SWAP2 POP POP JUMP JUMPDEST PUSH32 0x4E487B7100000000000000000000000000000000000000000000000000000000 PUSH0 MSTORE PUSH1 0x22 PUSH1 0x4 MSTORE PUSH1 0x24 PUSH0 REVERT JUMPDEST PUSH0 PUSH1 0x2 DUP3 DIV SWAP1 POP PUSH1 0x1 DUP3 AND DUP1 PUSH2 0x715 JUMPI PUSH1 0x7F DUP3 AND SWAP2 POP JUMPDEST PUSH1 0x20 DUP3 LT DUP2 SUB PUSH2 0x728 JUMPI PUSH2 0x727 PUSH2 0x6D1 JUMP JUMPDEST JUMPDEST POP SWAP2 SWAP1 POP JUMP JUMPDEST PUSH0 DUP2 SWAP1 POP DUP2 PUSH0 MSTORE PUSH1 0x20 PUSH0 KECCAK256 SWAP1 POP SWAP2 SWAP1 POP JUMP JUMPDEST PUSH0 PUSH1 0x20 PUSH1 0x1F DUP4 ADD DIV SWAP1 POP SWAP2 SWAP1 POP JUMP JUMPDEST PUSH0 DUP3 DUP3 SHL SWAP1 POP SWAP3 SWAP2 POP POP JUMP JUMPDEST PUSH0 PUSH1 0x8 DUP4 MUL PUSH2 0x78A PUSH32 0xFFFFFFFFFFFFFFFFFFFFFFFFFFFFFFFFFFFFFFFFFFFFFFFFFFFFFFFFFFFFFFFF DUP3 PUSH2 0x74F JUMP JUMPDEST PUSH2 0x794 DUP7 DUP4 PUSH2 0x74F JUMP JUMPDEST SWAP6 POP DUP1 NOT DUP5 AND SWAP4 POP DUP1 DUP7 AND DUP5 OR SWAP3 POP POP POP SWAP4 SWAP3 POP POP POP JUMP JUMPDEST PUSH0 DUP2 SWAP1 POP SWAP2 SWAP1 POP JUMP JUMPDEST PUSH0 DUP2 SWAP1 POP SWAP2 SWAP1 POP JUMP JUMPDEST PUSH0 PUSH2 0x7D8 PUSH2 0x7D3 PUSH2 0x7CE DUP5 PUSH2 0x7AC JUMP JUMPDEST PUSH2 0x7B5 JUMP JUMPDEST PUSH2 0x7AC JUMP JUMPDEST SWAP1 POP SWAP2 SWAP1 POP JUMP JUMPDEST PUSH0 DUP2 SWAP1 POP SWAP2 SWAP1 POP JUMP JUMPDEST PUSH2 0x7F1 DUP4 PUSH2 0x7BE JUMP JUMPDEST PUSH2 0x805 PUSH2 0x7FD DUP3 PUSH2 0x7DF JUMP JUMPDEST DUP5 DUP5 SLOAD PUSH2 0x75B JUMP JUMPDEST DUP3 SSTORE POP POP POP POP JUMP JUMPDEST PUSH0 SWAP1 JUMP JUMPDEST PUSH2 0x819 PUSH2 0x80D JUMP JUMPDEST PUSH2 0x824 DUP2 DUP5 DUP5 PUSH2 0x7E8 JUMP JUMPDEST POP POP POP JUMP JUMPDEST JUMPDEST DUP2 DUP2 LT ISZERO PUSH2 0x847 JUMPI PUSH2 0x83C PUSH0 DUP3 PUSH2 0x811 JUMP JUMPDEST PUSH1 0x1 DUP2 ADD SWAP1 POP PUSH2 0x82A JUMP JUMPDEST POP POP JUMP JUMPDEST PUSH1 0x1F DUP3 GT ISZERO PUSH2 0x88C JUMPI PUSH2 0x85D DUP2 PUSH2 0x72E JUMP JUMPDEST PUSH2 0x866 DUP5 PUSH2 0x740 JUMP JUMPDEST DUP2 ADD PUSH1 0x20 DUP6 LT ISZERO PUSH2 0x875 JUMPI DUP2 SWAP1 POP JUMPDEST PUSH2 0x889 PUSH2 0x881 DUP6 PUSH2 0x740 JUMP JUMPDEST DUP4 ADD DUP3 PUSH2 0x829 JUMP JUMPDEST POP POP JUMPDEST POP POP POP JUMP JUMPDEST PUSH0 DUP3 DUP3 SHR SWAP1 POP SWAP3 SWAP2 POP POP JUMP JUMPDEST PUSH0 PUSH2 0x8AC PUSH0 NOT DUP5 PUSH1 0x8 MUL PUSH2 0x891 JUMP JUMPDEST NOT DUP1 DUP4 AND SWAP2 POP POP SWAP3 SWAP2 POP POP JUMP JUMPDEST PUSH0 PUSH2 0x8C4 DUP4 DUP4 PUSH2 0x89D JUMP JUMPDEST SWAP2 POP DUP3 PUSH1 0x2 MUL DUP3 OR SWAP1 POP SWAP3 SWAP2 POP POP JUMP JUMPDEST PUSH2 0x8DD DUP3 PUSH2 0x59D JUMP JUMPDEST PUSH8 0xFFFFFFFFFFFFFFFF DUP2 GT ISZERO PUSH2 0x8F6 JUMPI PUSH2 0x8F5 PUSH2 0x403 JUMP JUMPDEST JUMPDEST PUSH2 0x900 DUP3 SLOAD PUSH2 0x6FE JUMP JUMPDEST PUSH2 0x90B DUP3 DUP3 DUP6 PUSH2 0x84B JUMP JUMPDEST PUSH0 PUSH1 0x20 SWAP1 POP PUSH1 0x1F DUP4 GT PUSH1 0x1 DUP2 EQ PUSH2 0x93C JUMPI PUSH0 DUP5 ISZERO PUSH2 0x92A JUMPI DUP3 DUP8 ADD MLOAD SWAP1 POP JUMPDEST PUSH2 0x934 DUP6 DUP3 PUSH2 0x8B9 JUMP JUMPDEST DUP7 SSTORE POP PUSH2 0x99B JUMP JUMPDEST PUSH1 0x1F NOT DUP5 AND PUSH2 0x94A DUP7 PUSH2 0x72E JUMP JUMPDEST PUSH0 JUMPDEST DUP3 DUP2 LT ISZERO PUSH2 0x971 JUMPI DUP5 DUP10 ADD MLOAD DUP3 SSTORE PUSH1 0x1 DUP3 ADD SWAP2 POP PUSH1 0x20 DUP6 ADD SWAP5 POP PUSH1 0x20 DUP2 ADD SWAP1 POP PUSH2 0x94C JUMP JUMPDEST DUP7 DUP4 LT ISZERO PUSH2 0x98E JUMPI DUP5 DUP10 ADD MLOAD PUSH2 0x98A PUSH1 0x1F DUP10 AND DUP3 PUSH2 0x89D JUMP JUMPDEST DUP4 SSTORE POP JUMPDEST PUSH1 0x1 PUSH1 0x2 DUP9 MUL ADD DUP9 SSTORE POP POP POP JUMPDEST POP POP POP POP POP POP JUMP INVALID LOG2 PUSH5 0x6970667358 0x22 SLT KECCAK256 SWAP11 0xD9 ADD DUP2 NUMBER EXTCODESIZE SWAP1 SWAP2 0xB8 BALANCE 0x27 DUP10 0xD7 PUSH14 0x72D5E88990D44B8000FC2AEF935F 0xE3 PUSH28 0xDA2B64736F6C63430008180033000000000000000000000000000000 "
				},
				"gasEstimates": {
					"creation": {
						"codeDepositCost": "504200",
						"executionCost": "535",
						"totalCost": "504735"
					},
					"external": {
						"AddContact(string,string)": "infinite",
						"Getcontact()": "infinite",
						"contactdetails(address)": "infinite"
					}
				},
				"methodIdentifiers": {
					"AddContact(string,string)": "045930ee",
					"Getcontact()": "6203a83b",
					"contactdetails(address)": "fe4aefbd"
				}
			},
			"storageLayout": {
				"storage": [
					{
						"astId": 11,
						"contract": "contracts/ClassWork/contactList.sol:ContactList",
						"label": "contactdetails",
						"offset": 0,
						"slot": "0",
						"type": "t_mapping(t_address,t_struct(contact)6_storage)"
					}
				],
				"types": {
					"t_address": {
						"encoding": "inplace",
						"label": "address",
						"numberOfBytes": "20"
					},
					"t_mapping(t_address,t_struct(contact)6_storage)": {
						"encoding": "mapping",
						"key": "t_address",
						"label": "mapping(address => struct ContactList.contact)",
						"numberOfBytes": "32",
						"value": "t_struct(contact)6_storage"
					},
					"t_string_storage": {
						"encoding": "bytes",
						"label": "string",
						"numberOfBytes": "32"
					},
					"t_struct(contact)6_storage": {
						"encoding": "inplace",
						"label": "struct ContactList.contact",
						"members": [
							{
								"astId": 3,
								"contract": "contracts/ClassWork/contactList.sol:ContactList",
								"label": "Name",
								"offset": 0,
								"slot": "0",
								"type": "t_string_storage"
							},
							{
								"astId": 5,
								"contract": "contracts/ClassWork/contactList.sol:ContactList",
								"label": "PhoneNo",
								"offset": 0,
								"slot": "1",
								"type": "t_string_storage"
							}
						],
						"numberOfBytes": "64"
					}
				}
			},
			"userdoc": {
				"kind": "user",
				"methods": {},
				"version": 1
			}
		}
	}
}