{
	"contracts/ClassWork/practice_5.sol": {
		"StateVariables": {
			"abi": [
				{
					"inputs": [],
					"stateMutability": "nonpayable",
					"type": "constructor"
				},
				{
					"inputs": [],
					"name": "counter",
					"outputs": [
						{
							"internalType": "uint256",
							"name": "",
							"type": "uint256"
						}
					],
					"stateMutability": "view",
					"type": "function"
				},
				{
					"inputs": [],
					"name": "getCounter",
					"outputs": [
						{
							"internalType": "uint256",
							"name": "",
							"type": "uint256"
						}
					],
					"stateMutability": "view",
					"type": "function"
				},
				{
					"inputs": [],
					"name": "incrementCounter",
					"outputs": [],
					"stateMutability": "nonpayable",
					"type": "function"
				}
			],
			"devdoc": {
				"kind": "dev",
				"methods": {},
				"version": 1
			},
			"evm": {
				"assembly": "    /* \"contracts/ClassWork/practice_5.sol\":65:645  contract StateVariables {... */\n  mstore(0x40, 0x80)\n    /* \"contracts/ClassWork/practice_5.sol\":225:376  constructor() {... */\n  callvalue\n  dup1\n  iszero\n  tag_1\n  jumpi\n  0x00\n  dup1\n  revert\ntag_1:\n  pop\n    /* \"contracts/ClassWork/practice_5.sol\":262:263  0 */\n  0x00\n    /* \"contracts/ClassWork/practice_5.sol\":252:259  counter */\n  dup1\n    /* \"contracts/ClassWork/practice_5.sol\":252:263  counter = 0 */\n  dup2\n  swap1\n  sstore\n  pop\n    /* \"contracts/ClassWork/practice_5.sol\":314:324  msg.sender */\n  caller\n    /* \"contracts/ClassWork/practice_5.sol\":306:311  owner */\n  0x01\n  0x00\n    /* \"contracts/ClassWork/practice_5.sol\":306:324  owner = msg.sender */\n  0x0100\n  exp\n  dup2\n  sload\n  dup2\n  0xffffffffffffffffffffffffffffffffffffffff\n  mul\n  not\n  and\n  swap1\n  dup4\n  0xffffffffffffffffffffffffffffffffffffffff\n  and\n  mul\n  or\n  swap1\n  sstore\n  pop\n    /* \"contracts/ClassWork/practice_5.sol\":65:645  contract StateVariables {... */\n  dataSize(sub_0)\n  dup1\n  dataOffset(sub_0)\n  0x00\n  codecopy\n  0x00\n  return\nstop\n\nsub_0: assembly {\n        /* \"contracts/ClassWork/practice_5.sol\":65:645  contract StateVariables {... */\n      mstore(0x40, 0x80)\n      callvalue\n      dup1\n      iszero\n      tag_1\n      jumpi\n      0x00\n      dup1\n      revert\n    tag_1:\n      pop\n      jumpi(tag_2, lt(calldatasize, 0x04))\n      shr(0xe0, calldataload(0x00))\n      dup1\n      0x5b34b966\n      eq\n      tag_3\n      jumpi\n      dup1\n      0x61bc221a\n      eq\n      tag_4\n      jumpi\n      dup1\n      0x8ada066e\n      eq\n      tag_5\n      jumpi\n    tag_2:\n      0x00\n      dup1\n      revert\n        /* \"contracts/ClassWork/practice_5.sol\":389:541  function incrementCounter() public {... */\n    tag_3:\n      tag_6\n      tag_7\n      jump\t// in\n    tag_6:\n      stop\n        /* \"contracts/ClassWork/practice_5.sol\":98:117  uint public counter */\n    tag_4:\n      tag_8\n      tag_9\n      jump\t// in\n    tag_8:\n      mload(0x40)\n      tag_10\n      swap2\n      swap1\n      tag_11\n      jump\t// in\n    tag_10:\n      mload(0x40)\n      dup1\n      swap2\n      sub\n      swap1\n      return\n        /* \"contracts/ClassWork/practice_5.sol\":554:640  function getCounter() public view returns (uint) {... */\n    tag_5:\n      tag_12\n      tag_13\n      jump\t// in\n    tag_12:\n      mload(0x40)\n      tag_14\n      swap2\n      swap1\n      tag_11\n      jump\t// in\n    tag_14:\n      mload(0x40)\n      dup1\n      swap2\n      sub\n      swap1\n      return\n        /* \"contracts/ClassWork/practice_5.sol\":389:541  function incrementCounter() public {... */\n    tag_7:\n        /* \"contracts/ClassWork/practice_5.sol\":459:464  owner */\n      0x01\n      0x00\n      swap1\n      sload\n      swap1\n      0x0100\n      exp\n      swap1\n      div\n      0xffffffffffffffffffffffffffffffffffffffff\n      and\n        /* \"contracts/ClassWork/practice_5.sol\":445:464  msg.sender == owner */\n      0xffffffffffffffffffffffffffffffffffffffff\n      and\n        /* \"contracts/ClassWork/practice_5.sol\":445:455  msg.sender */\n      caller\n        /* \"contracts/ClassWork/practice_5.sol\":445:464  msg.sender == owner */\n      0xffffffffffffffffffffffffffffffffffffffff\n      and\n      eq\n        /* \"contracts/ClassWork/practice_5.sol\":437:509  require(msg.sender == owner, \"Only the owner can increment the counter\") */\n      tag_16\n      jumpi\n      mload(0x40)\n      0x08c379a000000000000000000000000000000000000000000000000000000000\n      dup2\n      mstore\n      0x04\n      add\n      tag_17\n      swap1\n      tag_18\n      jump\t// in\n    tag_17:\n      mload(0x40)\n      dup1\n      swap2\n      sub\n      swap1\n      revert\n    tag_16:\n        /* \"contracts/ClassWork/practice_5.sol\":522:529  counter */\n      0x00\n      dup1\n        /* \"contracts/ClassWork/practice_5.sol\":522:531  counter++ */\n      dup2\n      sload\n      dup1\n      swap3\n      swap2\n      swap1\n      tag_19\n      swap1\n      tag_20\n      jump\t// in\n    tag_19:\n      swap2\n      swap1\n      pop\n      sstore\n      pop\n        /* \"contracts/ClassWork/practice_5.sol\":389:541  function incrementCounter() public {... */\n      jump\t// out\n        /* \"contracts/ClassWork/practice_5.sol\":98:117  uint public counter */\n    tag_9:\n      sload(0x00)\n      dup2\n      jump\t// out\n        /* \"contracts/ClassWork/practice_5.sol\":554:640  function getCounter() public view returns (uint) {... */\n    tag_13:\n        /* \"contracts/ClassWork/practice_5.sol\":597:601  uint */\n      0x00\n        /* \"contracts/ClassWork/practice_5.sol\":623:630  counter */\n      dup1\n      sload\n        /* \"contracts/ClassWork/practice_5.sol\":616:630  return counter */\n      swap1\n      pop\n        /* \"contracts/ClassWork/practice_5.sol\":554:640  function getCounter() public view returns (uint) {... */\n      swap1\n      jump\t// out\n        /* \"#utility.yul\":7:84   */\n    tag_22:\n        /* \"#utility.yul\":44:51   */\n      0x00\n        /* \"#utility.yul\":73:78   */\n      dup2\n        /* \"#utility.yul\":62:78   */\n      swap1\n      pop\n        /* \"#utility.yul\":7:84   */\n      swap2\n      swap1\n      pop\n      jump\t// out\n        /* \"#utility.yul\":90:208   */\n    tag_23:\n        /* \"#utility.yul\":177:201   */\n      tag_31\n        /* \"#utility.yul\":195:200   */\n      dup2\n        /* \"#utility.yul\":177:201   */\n      tag_22\n      jump\t// in\n    tag_31:\n        /* \"#utility.yul\":172:175   */\n      dup3\n        /* \"#utility.yul\":165:202   */\n      mstore\n        /* \"#utility.yul\":90:208   */\n      pop\n      pop\n      jump\t// out\n        /* \"#utility.yul\":214:436   */\n    tag_11:\n        /* \"#utility.yul\":307:311   */\n      0x00\n        /* \"#utility.yul\":345:347   */\n      0x20\n        /* \"#utility.yul\":334:343   */\n      dup3\n        /* \"#utility.yul\":330:348   */\n      add\n        /* \"#utility.yul\":322:348   */\n      swap1\n      pop\n        /* \"#utility.yul\":358:429   */\n      tag_33\n        /* \"#utility.yul\":426:427   */\n      0x00\n        /* \"#utility.yul\":415:424   */\n      dup4\n        /* \"#utility.yul\":411:428   */\n      add\n        /* \"#utility.yul\":402:408   */\n      dup5\n        /* \"#utility.yul\":358:429   */\n      tag_23\n      jump\t// in\n    tag_33:\n        /* \"#utility.yul\":214:436   */\n      swap3\n      swap2\n      pop\n      pop\n      jump\t// out\n        /* \"#utility.yul\":442:611   */\n    tag_24:\n        /* \"#utility.yul\":526:537   */\n      0x00\n        /* \"#utility.yul\":560:566   */\n      dup3\n        /* \"#utility.yul\":555:558   */\n      dup3\n        /* \"#utility.yul\":548:567   */\n      mstore\n        /* \"#utility.yul\":600:604   */\n      0x20\n        /* \"#utility.yul\":595:598   */\n      dup3\n        /* \"#utility.yul\":591:605   */\n      add\n        /* \"#utility.yul\":576:605   */\n      swap1\n      pop\n        /* \"#utility.yul\":442:611   */\n      swap3\n      swap2\n      pop\n      pop\n      jump\t// out\n        /* \"#utility.yul\":617:844   */\n    tag_25:\n        /* \"#utility.yul\":757:791   */\n      0x4f6e6c7920746865206f776e65722063616e20696e6372656d656e7420746865\n        /* \"#utility.yul\":753:754   */\n      0x00\n        /* \"#utility.yul\":745:751   */\n      dup3\n        /* \"#utility.yul\":741:755   */\n      add\n        /* \"#utility.yul\":734:792   */\n      mstore\n        /* \"#utility.yul\":826:836   */\n      0x20636f756e746572000000000000000000000000000000000000000000000000\n        /* \"#utility.yul\":821:823   */\n      0x20\n        /* \"#utility.yul\":813:819   */\n      dup3\n        /* \"#utility.yul\":809:824   */\n      add\n        /* \"#utility.yul\":802:837   */\n      mstore\n        /* \"#utility.yul\":617:844   */\n      pop\n      jump\t// out\n        /* \"#utility.yul\":850:1216   */\n    tag_26:\n        /* \"#utility.yul\":992:995   */\n      0x00\n        /* \"#utility.yul\":1013:1080   */\n      tag_37\n        /* \"#utility.yul\":1077:1079   */\n      0x28\n        /* \"#utility.yul\":1072:1075   */\n      dup4\n        /* \"#utility.yul\":1013:1080   */\n      tag_24\n      jump\t// in\n    tag_37:\n        /* \"#utility.yul\":1006:1080   */\n      swap2\n      pop\n        /* \"#utility.yul\":1089:1182   */\n      tag_38\n        /* \"#utility.yul\":1178:1181   */\n      dup3\n        /* \"#utility.yul\":1089:1182   */\n      tag_25\n      jump\t// in\n    tag_38:\n        /* \"#utility.yul\":1207:1209   */\n      0x40\n        /* \"#utility.yul\":1202:1205   */\n      dup3\n        /* \"#utility.yul\":1198:1210   */\n      add\n        /* \"#utility.yul\":1191:1210   */\n      swap1\n      pop\n        /* \"#utility.yul\":850:1216   */\n      swap2\n      swap1\n      pop\n      jump\t// out\n        /* \"#utility.yul\":1222:1641   */\n    tag_18:\n        /* \"#utility.yul\":1388:1392   */\n      0x00\n        /* \"#utility.yul\":1426:1428   */\n      0x20\n        /* \"#utility.yul\":1415:1424   */\n      dup3\n        /* \"#utility.yul\":1411:1429   */\n      add\n        /* \"#utility.yul\":1403:1429   */\n      swap1\n      pop\n        /* \"#utility.yul\":1475:1484   */\n      dup2\n        /* \"#utility.yul\":1469:1473   */\n      dup2\n        /* \"#utility.yul\":1465:1485   */\n      sub\n        /* \"#utility.yul\":1461:1462   */\n      0x00\n        /* \"#utility.yul\":1450:1459   */\n      dup4\n        /* \"#utility.yul\":1446:1463   */\n      add\n        /* \"#utility.yul\":1439:1486   */\n      mstore\n        /* \"#utility.yul\":1503:1634   */\n      tag_40\n        /* \"#utility.yul\":1629:1633   */\n      dup2\n        /* \"#utility.yul\":1503:1634   */\n      tag_26\n      jump\t// in\n    tag_40:\n        /* \"#utility.yul\":1495:1634   */\n      swap1\n      pop\n        /* \"#utility.yul\":1222:1641   */\n      swap2\n      swap1\n      pop\n      jump\t// out\n        /* \"#utility.yul\":1647:1827   */\n    tag_27:\n        /* \"#utility.yul\":1695:1772   */\n      0x4e487b7100000000000000000000000000000000000000000000000000000000\n        /* \"#utility.yul\":1692:1693   */\n      0x00\n        /* \"#utility.yul\":1685:1773   */\n      mstore\n        /* \"#utility.yul\":1792:1796   */\n      0x11\n        /* \"#utility.yul\":1789:1790   */\n      0x04\n        /* \"#utility.yul\":1782:1797   */\n      mstore\n        /* \"#utility.yul\":1816:1820   */\n      0x24\n        /* \"#utility.yul\":1813:1814   */\n      0x00\n        /* \"#utility.yul\":1806:1821   */\n      revert\n        /* \"#utility.yul\":1833:2066   */\n    tag_20:\n        /* \"#utility.yul\":1872:1875   */\n      0x00\n        /* \"#utility.yul\":1895:1919   */\n      tag_43\n        /* \"#utility.yul\":1913:1918   */\n      dup3\n        /* \"#utility.yul\":1895:1919   */\n      tag_22\n      jump\t// in\n    tag_43:\n        /* \"#utility.yul\":1886:1919   */\n      swap2\n      pop\n        /* \"#utility.yul\":1941:2007   */\n      0xffffffffffffffffffffffffffffffffffffffffffffffffffffffffffffffff\n        /* \"#utility.yul\":1934:1939   */\n      dup3\n        /* \"#utility.yul\":1931:2008   */\n      sub\n        /* \"#utility.yul\":1928:2031   */\n      tag_44\n      jumpi\n        /* \"#utility.yul\":2011:2029   */\n      tag_45\n      tag_27\n      jump\t// in\n    tag_45:\n        /* \"#utility.yul\":1928:2031   */\n    tag_44:\n        /* \"#utility.yul\":2058:2059   */\n      0x01\n        /* \"#utility.yul\":2051:2056   */\n      dup3\n        /* \"#utility.yul\":2047:2060   */\n      add\n        /* \"#utility.yul\":2040:2060   */\n      swap1\n      pop\n        /* \"#utility.yul\":1833:2066   */\n      swap2\n      swap1\n      pop\n      jump\t// out\n\n    auxdata: 0xa264697066735822122071a2d57f868449fc187152f94defa9e6dae8bb07130bf7f938e5a91494f4a59f64736f6c63430008180033\n}\n",
				"bytecode": {
					"linkReferences": {},
					"object": "608060405234801561000f575f80fd5b505f80819055503360015f6101000a81548173ffffffffffffffffffffffffffffffffffffffff021916908373ffffffffffffffffffffffffffffffffffffffff1602179055506102b6806100635f395ff3fe608060405234801561000f575f80fd5b506004361061003f575f3560e01c80635b34b9661461004357806361bc221a1461004d5780638ada066e1461006b575b5f80fd5b61004b610089565b005b610055610130565b6040516100629190610155565b60405180910390f35b610073610135565b6040516100809190610155565b60405180910390f35b60015f9054906101000a900473ffffffffffffffffffffffffffffffffffffffff1673ffffffffffffffffffffffffffffffffffffffff163373ffffffffffffffffffffffffffffffffffffffff1614610118576040517f08c379a000000000000000000000000000000000000000000000000000000000815260040161010f906101ee565b60405180910390fd5b5f8081548092919061012990610239565b9190505550565b5f5481565b5f8054905090565b5f819050919050565b61014f8161013d565b82525050565b5f6020820190506101685f830184610146565b92915050565b5f82825260208201905092915050565b7f4f6e6c7920746865206f776e65722063616e20696e6372656d656e74207468655f8201527f20636f756e746572000000000000000000000000000000000000000000000000602082015250565b5f6101d860288361016e565b91506101e38261017e565b604082019050919050565b5f6020820190508181035f830152610205816101cc565b9050919050565b7f4e487b71000000000000000000000000000000000000000000000000000000005f52601160045260245ffd5b5f6102438261013d565b91507fffffffffffffffffffffffffffffffffffffffffffffffffffffffffffffffff82036102755761027461020c565b5b60018201905091905056fea264697066735822122071a2d57f868449fc187152f94defa9e6dae8bb07130bf7f938e5a91494f4a59f64736f6c63430008180033",
					"opcodes": "PUSH1 0x80 PUSH1 0x40 MSTORE CALLVALUE DUP1 ISZERO PUSH2 0xF JUMPI PUSH0 DUP1 REVERT JUMPDEST POP PUSH0 DUP1 DUP2 SWAP1 SSTORE POP CALLER PUSH1 0x1 PUSH0 PUSH2 0x100 EXP DUP2 SLOAD DUP2 PUSH20 0xFFFFFFFFFFFFFFFFFFFFFFFFFFFFFFFFFFFFFFFF MUL NOT AND SWAP1 DUP4 PUSH20 0xFFFFFFFFFFFFFFFFFFFFFFFFFFFFFFFFFFFFFFFF AND MUL OR SWAP1 SSTORE POP PUSH2 0x2B6 DUP1 PUSH2 0x63 PUSH0 CODECOPY PUSH0 RETURN INVALID PUSH1 0x80 PUSH1 0x40 MSTORE CALLVALUE DUP1 ISZERO PUSH2 0xF JUMPI PUSH0 DUP1 REVERT JUMPDEST POP PUSH1 0x4 CALLDATASIZE LT PUSH2 0x3F JUMPI PUSH0 CALLDATALOAD PUSH1 0xE0 SHR DUP1 PUSH4 0x5B34B966 EQ PUSH2 0x43 JUMPI DUP1 PUSH4 0x61BC221A EQ PUSH2 0x4D JUMPI DUP1 PUSH4 0x8ADA066E EQ PUSH2 0x6B JUMPI JUMPDEST PUSH0 DUP1 REVERT JUMPDEST PUSH2 0x4B PUSH2 0x89 JUMP JUMPDEST STOP JUMPDEST PUSH2 0x55 PUSH2 0x130 JUMP JUMPDEST PUSH1 0x40 MLOAD PUSH2 0x62 SWAP2 SWAP1 PUSH2 0x155 JUMP JUMPDEST PUSH1 0x40 MLOAD DUP1 SWAP2 SUB SWAP1 RETURN JUMPDEST PUSH2 0x73 PUSH2 0x135 JUMP JUMPDEST PUSH1 0x40 MLOAD PUSH2 0x80 SWAP2 SWAP1 PUSH2 0x155 JUMP JUMPDEST PUSH1 0x40 MLOAD DUP1 SWAP2 SUB SWAP1 RETURN JUMPDEST PUSH1 0x1 PUSH0 SWAP1 SLOAD SWAP1 PUSH2 0x100 EXP SWAP1 DIV PUSH20 0xFFFFFFFFFFFFFFFFFFFFFFFFFFFFFFFFFFFFFFFF AND PUSH20 0xFFFFFFFFFFFFFFFFFFFFFFFFFFFFFFFFFFFFFFFF AND CALLER PUSH20 0xFFFFFFFFFFFFFFFFFFFFFFFFFFFFFFFFFFFFFFFF AND EQ PUSH2 0x118 JUMPI PUSH1 0x40 MLOAD PUSH32 0x8C379A000000000000000000000000000000000000000000000000000000000 DUP2 MSTORE PUSH1 0x4 ADD PUSH2 0x10F SWAP1 PUSH2 0x1EE JUMP JUMPDEST PUSH1 0x40 MLOAD DUP1 SWAP2 SUB SWAP1 REVERT JUMPDEST PUSH0 DUP1 DUP2 SLOAD DUP1 SWAP3 SWAP2 SWAP1 PUSH2 0x129 SWAP1 PUSH2 0x239 JUMP JUMPDEST SWAP2 SWAP1 POP SSTORE POP JUMP JUMPDEST PUSH0 SLOAD DUP2 JUMP JUMPDEST PUSH0 DUP1 SLOAD SWAP1 POP SWAP1 JUMP JUMPDEST PUSH0 DUP2 SWAP1 POP SWAP2 SWAP1 POP JUMP JUMPDEST PUSH2 0x14F DUP2 PUSH2 0x13D JUMP JUMPDEST DUP3 MSTORE POP POP JUMP JUMPDEST PUSH0 PUSH1 0x20 DUP3 ADD SWAP1 POP PUSH2 0x168 PUSH0 DUP4 ADD DUP5 PUSH2 0x146 JUMP JUMPDEST SWAP3 SWAP2 POP POP JUMP JUMPDEST PUSH0 DUP3 DUP3 MSTORE PUSH1 0x20 DUP3 ADD SWAP1 POP SWAP3 SWAP2 POP POP JUMP JUMPDEST PUSH32 0x4F6E6C7920746865206F776E65722063616E20696E6372656D656E7420746865 PUSH0 DUP3 ADD MSTORE PUSH32 0x20636F756E746572000000000000000000000000000000000000000000000000 PUSH1 0x20 DUP3 ADD MSTORE POP JUMP JUMPDEST PUSH0 PUSH2 0x1D8 PUSH1 0x28 DUP4 PUSH2 0x16E JUMP JUMPDEST SWAP2 POP PUSH2 0x1E3 DUP3 PUSH2 0x17E JUMP JUMPDEST PUSH1 0x40 DUP3 ADD SWAP1 POP SWAP2 SWAP1 POP JUMP JUMPDEST PUSH0 PUSH1 0x20 DUP3 ADD SWAP1 POP DUP2 DUP2 SUB PUSH0 DUP4 ADD MSTORE PUSH2 0x205 DUP2 PUSH2 0x1CC JUMP JUMPDEST SWAP1 POP SWAP2 SWAP1 POP JUMP JUMPDEST PUSH32 0x4E487B7100000000000000000000000000000000000000000000000000000000 PUSH0 MSTORE PUSH1 0x11 PUSH1 0x4 MSTORE PUSH1 0x24 PUSH0 REVERT JUMPDEST PUSH0 PUSH2 0x243 DUP3 PUSH2 0x13D JUMP JUMPDEST SWAP2 POP PUSH32 0xFFFFFFFFFFFFFFFFFFFFFFFFFFFFFFFFFFFFFFFFFFFFFFFFFFFFFFFFFFFFFFFF DUP3 SUB PUSH2 0x275 JUMPI PUSH2 0x274 PUSH2 0x20C JUMP JUMPDEST JUMPDEST PUSH1 0x1 DUP3 ADD SWAP1 POP SWAP2 SWAP1 POP JUMP INVALID LOG2 PUSH5 0x6970667358 0x22 SLT KECCAK256 PUSH18 0xA2D57F868449FC187152F94DEFA9E6DAE8BB SMOD SGT SIGNEXTEND 0xF7 0xF9 CODESIZE 0xE5 0xA9 EQ SWAP5 DELEGATECALL 0xA5 SWAP16 PUSH5 0x736F6C6343 STOP ADDMOD XOR STOP CALLER "
				},
				"gasEstimates": {
					"creation": {
						"codeDepositCost": "138800",
						"executionCost": "29459",
						"totalCost": "168259"
					},
					"external": {
						"counter()": "2424",
						"getCounter()": "2454",
						"incrementCounter()": "26644"
					}
				},
				"methodIdentifiers": {
					"counter()": "61bc221a",
					"getCounter()": "8ada066e",
					"incrementCounter()": "5b34b966"
				}
			},
			"storageLayout": {
				"storage": [
					{
						"astId": 3,
						"contract": "contracts/ClassWork/practice_5.sol:StateVariables",
						"label": "counter",
						"offset": 0,
						"slot": "0",
						"type": "t_uint256"
					},
					{
						"astId": 5,
						"contract": "contracts/ClassWork/practice_5.sol:StateVariables",
						"label": "owner",
						"offset": 0,
						"slot": "1",
						"type": "t_address"
					}
				],
				"types": {
					"t_address": {
						"encoding": "inplace",
						"label": "address",
						"numberOfBytes": "20"
					},
					"t_uint256": {
						"encoding": "inplace",
						"label": "uint256",
						"numberOfBytes": "32"
					}
				}
			},
			"userdoc": {
				"kind": "user",
				"methods": {},
				"version": 1
			}
		}
	}
}