{
	"contracts/ClassWork/que1.sol": {
		"liveque": {
			"abi": [
				{
					"inputs": [],
					"name": "age",
					"outputs": [
						{
							"internalType": "uint256",
							"name": "",
							"type": "uint256"
						}
					],
					"stateMutability": "view",
					"type": "function"
				},
				{
					"inputs": [],
					"name": "isActive",
					"outputs": [
						{
							"internalType": "bool",
							"name": "",
							"type": "bool"
						}
					],
					"stateMutability": "view",
					"type": "function"
				},
				{
					"inputs": [],
					"name": "name",
					"outputs": [
						{
							"internalType": "string",
							"name": "",
							"type": "string"
						}
					],
					"stateMutability": "view",
					"type": "function"
				},
				{
					"inputs": [
						{
							"internalType": "uint256",
							"name": "_age",
							"type": "uint256"
						}
					],
					"name": "setage",
					"outputs": [],
					"stateMutability": "nonpayable",
					"type": "function"
				},
				{
					"inputs": [
						{
							"internalType": "string",
							"name": "_name",
							"type": "string"
						}
					],
					"name": "setname",
					"outputs": [],
					"stateMutability": "nonpayable",
					"type": "function"
				},
				{
					"inputs": [
						{
							"internalType": "bool",
							"name": "_status",
							"type": "bool"
						}
					],
					"name": "setstatus",
					"outputs": [],
					"stateMutability": "nonpayable",
					"type": "function"
				}
			],
			"devdoc": {
				"kind": "dev",
				"methods": {},
				"version": 1
			},
			"evm": {
				"assembly": "    /* \"contracts/ClassWork/que1.sol\":261:592  contract liveque{... */\n  mstore(0x40, 0x80)\n  callvalue\n  dup1\n  iszero\n  tag_1\n  jumpi\n  0x00\n  dup1\n  revert\ntag_1:\n  pop\n  dataSize(sub_0)\n  dup1\n  dataOffset(sub_0)\n  0x00\n  codecopy\n  0x00\n  return\nstop\n\nsub_0: assembly {\n        /* \"contracts/ClassWork/que1.sol\":261:592  contract liveque{... */\n      mstore(0x40, 0x80)\n      callvalue\n      dup1\n      iszero\n      tag_1\n      jumpi\n      0x00\n      dup1\n      revert\n    tag_1:\n      pop\n      jumpi(tag_2, lt(calldatasize, 0x04))\n      shr(0xe0, calldataload(0x00))\n      dup1\n      0x06fdde03\n      eq\n      tag_3\n      jumpi\n      dup1\n      0x22f3e2d4\n      eq\n      tag_4\n      jumpi\n      dup1\n      0x262a9dff\n      eq\n      tag_5\n      jumpi\n      dup1\n      0x2cefeb07\n      eq\n      tag_6\n      jumpi\n      dup1\n      0x6e424d5a\n      eq\n      tag_7\n      jumpi\n      dup1\n      0xdd685918\n      eq\n      tag_8\n      jumpi\n    tag_2:\n      0x00\n      dup1\n      revert\n        /* \"contracts/ClassWork/que1.sol\":286:304  string public name */\n    tag_3:\n      tag_9\n      tag_10\n      jump\t// in\n    tag_9:\n      mload(0x40)\n      tag_11\n      swap2\n      swap1\n      tag_12\n      jump\t// in\n    tag_11:\n      mload(0x40)\n      dup1\n      swap2\n      sub\n      swap1\n      return\n        /* \"contracts/ClassWork/que1.sol\":334:354  bool public isActive */\n    tag_4:\n      tag_13\n      tag_14\n      jump\t// in\n    tag_13:\n      mload(0x40)\n      tag_15\n      swap2\n      swap1\n      tag_16\n      jump\t// in\n    tag_15:\n      mload(0x40)\n      dup1\n      swap2\n      sub\n      swap1\n      return\n        /* \"contracts/ClassWork/que1.sol\":312:327  uint public age */\n    tag_5:\n      tag_17\n      tag_18\n      jump\t// in\n    tag_17:\n      mload(0x40)\n      tag_19\n      swap2\n      swap1\n      tag_20\n      jump\t// in\n    tag_19:\n      mload(0x40)\n      dup1\n      swap2\n      sub\n      swap1\n      return\n        /* \"contracts/ClassWork/que1.sol\":363:436  function setname(string memory _name) public{... */\n    tag_6:\n      tag_21\n      0x04\n      dup1\n      calldatasize\n      sub\n      dup2\n      add\n      swap1\n      tag_22\n      swap2\n      swap1\n      tag_23\n      jump\t// in\n    tag_22:\n      tag_24\n      jump\t// in\n    tag_21:\n      stop\n        /* \"contracts/ClassWork/que1.sol\":444:504  function setage(uint _age) public{... */\n    tag_7:\n      tag_25\n      0x04\n      dup1\n      calldatasize\n      sub\n      dup2\n      add\n      swap1\n      tag_26\n      swap2\n      swap1\n      tag_27\n      jump\t// in\n    tag_26:\n      tag_28\n      jump\t// in\n    tag_25:\n      stop\n        /* \"contracts/ClassWork/que1.sol\":512:587  function setstatus(bool _status) public {... */\n    tag_8:\n      tag_29\n      0x04\n      dup1\n      calldatasize\n      sub\n      dup2\n      add\n      swap1\n      tag_30\n      swap2\n      swap1\n      tag_31\n      jump\t// in\n    tag_30:\n      tag_32\n      jump\t// in\n    tag_29:\n      stop\n        /* \"contracts/ClassWork/que1.sol\":286:304  string public name */\n    tag_10:\n      0x00\n      dup1\n      sload\n      tag_33\n      swap1\n      tag_34\n      jump\t// in\n    tag_33:\n      dup1\n      0x1f\n      add\n      0x20\n      dup1\n      swap2\n      div\n      mul\n      0x20\n      add\n      mload(0x40)\n      swap1\n      dup2\n      add\n      0x40\n      mstore\n      dup1\n      swap3\n      swap2\n      swap1\n      dup2\n      dup2\n      mstore\n      0x20\n      add\n      dup3\n      dup1\n      sload\n      tag_35\n      swap1\n      tag_34\n      jump\t// in\n    tag_35:\n      dup1\n      iszero\n      tag_36\n      jumpi\n      dup1\n      0x1f\n      lt\n      tag_37\n      jumpi\n      0x0100\n      dup1\n      dup4\n      sload\n      div\n      mul\n      dup4\n      mstore\n      swap2\n      0x20\n      add\n      swap2\n      jump(tag_36)\n    tag_37:\n      dup3\n      add\n      swap2\n      swap1\n      0x00\n      mstore\n      keccak256(0x00, 0x20)\n      swap1\n    tag_38:\n      dup2\n      sload\n      dup2\n      mstore\n      swap1\n      0x01\n      add\n      swap1\n      0x20\n      add\n      dup1\n      dup4\n      gt\n      tag_38\n      jumpi\n      dup3\n      swap1\n      sub\n      0x1f\n      and\n      dup3\n      add\n      swap2\n    tag_36:\n      pop\n      pop\n      pop\n      pop\n      pop\n      dup2\n      jump\t// out\n        /* \"contracts/ClassWork/que1.sol\":334:354  bool public isActive */\n    tag_14:\n      0x02\n      0x00\n      swap1\n      sload\n      swap1\n      0x0100\n      exp\n      swap1\n      div\n      0xff\n      and\n      dup2\n      jump\t// out\n        /* \"contracts/ClassWork/que1.sol\":312:327  uint public age */\n    tag_18:\n      sload(0x01)\n      dup2\n      jump\t// out\n        /* \"contracts/ClassWork/que1.sol\":363:436  function setname(string memory _name) public{... */\n    tag_24:\n        /* \"contracts/ClassWork/que1.sol\":423:428  _name */\n      dup1\n        /* \"contracts/ClassWork/que1.sol\":418:422  name */\n      0x00\n        /* \"contracts/ClassWork/que1.sol\":418:428  name=_name */\n      swap1\n      dup2\n      tag_40\n      swap2\n      swap1\n      tag_41\n      jump\t// in\n    tag_40:\n      pop\n        /* \"contracts/ClassWork/que1.sol\":363:436  function setname(string memory _name) public{... */\n      pop\n      jump\t// out\n        /* \"contracts/ClassWork/que1.sol\":444:504  function setage(uint _age) public{... */\n    tag_28:\n        /* \"contracts/ClassWork/que1.sol\":492:496  _age */\n      dup1\n        /* \"contracts/ClassWork/que1.sol\":488:491  age */\n      0x01\n        /* \"contracts/ClassWork/que1.sol\":488:496  age=_age */\n      dup2\n      swap1\n      sstore\n      pop\n        /* \"contracts/ClassWork/que1.sol\":444:504  function setage(uint _age) public{... */\n      pop\n      jump\t// out\n        /* \"contracts/ClassWork/que1.sol\":512:587  function setstatus(bool _status) public {... */\n    tag_32:\n        /* \"contracts/ClassWork/que1.sol\":572:579  _status */\n      dup1\n        /* \"contracts/ClassWork/que1.sol\":563:571  isActive */\n      0x02\n      0x00\n        /* \"contracts/ClassWork/que1.sol\":563:579  isActive=_status */\n      0x0100\n      exp\n      dup2\n      sload\n      dup2\n      0xff\n      mul\n      not\n      and\n      swap1\n      dup4\n      iszero\n      iszero\n      mul\n      or\n      swap1\n      sstore\n      pop\n        /* \"contracts/ClassWork/que1.sol\":512:587  function setstatus(bool _status) public {... */\n      pop\n      jump\t// out\n        /* \"#utility.yul\":7:106   */\n    tag_44:\n        /* \"#utility.yul\":59:65   */\n      0x00\n        /* \"#utility.yul\":93:98   */\n      dup2\n        /* \"#utility.yul\":87:99   */\n      mload\n        /* \"#utility.yul\":77:99   */\n      swap1\n      pop\n        /* \"#utility.yul\":7:106   */\n      swap2\n      swap1\n      pop\n      jump\t// out\n        /* \"#utility.yul\":112:281   */\n    tag_45:\n        /* \"#utility.yul\":196:207   */\n      0x00\n        /* \"#utility.yul\":230:236   */\n      dup3\n        /* \"#utility.yul\":225:228   */\n      dup3\n        /* \"#utility.yul\":218:237   */\n      mstore\n        /* \"#utility.yul\":270:274   */\n      0x20\n        /* \"#utility.yul\":265:268   */\n      dup3\n        /* \"#utility.yul\":261:275   */\n      add\n        /* \"#utility.yul\":246:275   */\n      swap1\n      pop\n        /* \"#utility.yul\":112:281   */\n      swap3\n      swap2\n      pop\n      pop\n      jump\t// out\n        /* \"#utility.yul\":287:533   */\n    tag_46:\n        /* \"#utility.yul\":368:369   */\n      0x00\n        /* \"#utility.yul\":378:491   */\n    tag_89:\n        /* \"#utility.yul\":392:398   */\n      dup4\n        /* \"#utility.yul\":389:390   */\n      dup2\n        /* \"#utility.yul\":386:399   */\n      lt\n        /* \"#utility.yul\":378:491   */\n      iszero\n      tag_91\n      jumpi\n        /* \"#utility.yul\":477:478   */\n      dup1\n        /* \"#utility.yul\":472:475   */\n      dup3\n        /* \"#utility.yul\":468:479   */\n      add\n        /* \"#utility.yul\":462:480   */\n      mload\n        /* \"#utility.yul\":458:459   */\n      dup2\n        /* \"#utility.yul\":453:456   */\n      dup5\n        /* \"#utility.yul\":449:460   */\n      add\n        /* \"#utility.yul\":442:481   */\n      mstore\n        /* \"#utility.yul\":414:416   */\n      0x20\n        /* \"#utility.yul\":411:412   */\n      dup2\n        /* \"#utility.yul\":407:417   */\n      add\n        /* \"#utility.yul\":402:417   */\n      swap1\n      pop\n        /* \"#utility.yul\":378:491   */\n      jump(tag_89)\n    tag_91:\n        /* \"#utility.yul\":525:526   */\n      0x00\n        /* \"#utility.yul\":516:522   */\n      dup5\n        /* \"#utility.yul\":511:514   */\n      dup5\n        /* \"#utility.yul\":507:523   */\n      add\n        /* \"#utility.yul\":500:527   */\n      mstore\n        /* \"#utility.yul\":349:533   */\n      pop\n        /* \"#utility.yul\":287:533   */\n      pop\n      pop\n      pop\n      jump\t// out\n        /* \"#utility.yul\":539:641   */\n    tag_47:\n        /* \"#utility.yul\":580:586   */\n      0x00\n        /* \"#utility.yul\":631:633   */\n      0x1f\n        /* \"#utility.yul\":627:634   */\n      not\n        /* \"#utility.yul\":622:624   */\n      0x1f\n        /* \"#utility.yul\":615:620   */\n      dup4\n        /* \"#utility.yul\":611:625   */\n      add\n        /* \"#utility.yul\":607:635   */\n      and\n        /* \"#utility.yul\":597:635   */\n      swap1\n      pop\n        /* \"#utility.yul\":539:641   */\n      swap2\n      swap1\n      pop\n      jump\t// out\n        /* \"#utility.yul\":647:1024   */\n    tag_48:\n        /* \"#utility.yul\":735:738   */\n      0x00\n        /* \"#utility.yul\":763:802   */\n      tag_94\n        /* \"#utility.yul\":796:801   */\n      dup3\n        /* \"#utility.yul\":763:802   */\n      tag_44\n      jump\t// in\n    tag_94:\n        /* \"#utility.yul\":818:889   */\n      tag_95\n        /* \"#utility.yul\":882:888   */\n      dup2\n        /* \"#utility.yul\":877:880   */\n      dup6\n        /* \"#utility.yul\":818:889   */\n      tag_45\n      jump\t// in\n    tag_95:\n        /* \"#utility.yul\":811:889   */\n      swap4\n      pop\n        /* \"#utility.yul\":898:963   */\n      tag_96\n        /* \"#utility.yul\":956:962   */\n      dup2\n        /* \"#utility.yul\":951:954   */\n      dup6\n        /* \"#utility.yul\":944:948   */\n      0x20\n        /* \"#utility.yul\":937:942   */\n      dup7\n        /* \"#utility.yul\":933:949   */\n      add\n        /* \"#utility.yul\":898:963   */\n      tag_46\n      jump\t// in\n    tag_96:\n        /* \"#utility.yul\":988:1017   */\n      tag_97\n        /* \"#utility.yul\":1010:1016   */\n      dup2\n        /* \"#utility.yul\":988:1017   */\n      tag_47\n      jump\t// in\n    tag_97:\n        /* \"#utility.yul\":983:986   */\n      dup5\n        /* \"#utility.yul\":979:1018   */\n      add\n        /* \"#utility.yul\":972:1018   */\n      swap2\n      pop\n        /* \"#utility.yul\":739:1024   */\n      pop\n        /* \"#utility.yul\":647:1024   */\n      swap3\n      swap2\n      pop\n      pop\n      jump\t// out\n        /* \"#utility.yul\":1030:1343   */\n    tag_12:\n        /* \"#utility.yul\":1143:1147   */\n      0x00\n        /* \"#utility.yul\":1181:1183   */\n      0x20\n        /* \"#utility.yul\":1170:1179   */\n      dup3\n        /* \"#utility.yul\":1166:1184   */\n      add\n        /* \"#utility.yul\":1158:1184   */\n      swap1\n      pop\n        /* \"#utility.yul\":1230:1239   */\n      dup2\n        /* \"#utility.yul\":1224:1228   */\n      dup2\n        /* \"#utility.yul\":1220:1240   */\n      sub\n        /* \"#utility.yul\":1216:1217   */\n      0x00\n        /* \"#utility.yul\":1205:1214   */\n      dup4\n        /* \"#utility.yul\":1201:1218   */\n      add\n        /* \"#utility.yul\":1194:1241   */\n      mstore\n        /* \"#utility.yul\":1258:1336   */\n      tag_99\n        /* \"#utility.yul\":1331:1335   */\n      dup2\n        /* \"#utility.yul\":1322:1328   */\n      dup5\n        /* \"#utility.yul\":1258:1336   */\n      tag_48\n      jump\t// in\n    tag_99:\n        /* \"#utility.yul\":1250:1336   */\n      swap1\n      pop\n        /* \"#utility.yul\":1030:1343   */\n      swap3\n      swap2\n      pop\n      pop\n      jump\t// out\n        /* \"#utility.yul\":1349:1439   */\n    tag_49:\n        /* \"#utility.yul\":1383:1390   */\n      0x00\n        /* \"#utility.yul\":1426:1431   */\n      dup2\n        /* \"#utility.yul\":1419:1432   */\n      iszero\n        /* \"#utility.yul\":1412:1433   */\n      iszero\n        /* \"#utility.yul\":1401:1433   */\n      swap1\n      pop\n        /* \"#utility.yul\":1349:1439   */\n      swap2\n      swap1\n      pop\n      jump\t// out\n        /* \"#utility.yul\":1445:1554   */\n    tag_50:\n        /* \"#utility.yul\":1526:1547   */\n      tag_102\n        /* \"#utility.yul\":1541:1546   */\n      dup2\n        /* \"#utility.yul\":1526:1547   */\n      tag_49\n      jump\t// in\n    tag_102:\n        /* \"#utility.yul\":1521:1524   */\n      dup3\n        /* \"#utility.yul\":1514:1548   */\n      mstore\n        /* \"#utility.yul\":1445:1554   */\n      pop\n      pop\n      jump\t// out\n        /* \"#utility.yul\":1560:1770   */\n    tag_16:\n        /* \"#utility.yul\":1647:1651   */\n      0x00\n        /* \"#utility.yul\":1685:1687   */\n      0x20\n        /* \"#utility.yul\":1674:1683   */\n      dup3\n        /* \"#utility.yul\":1670:1688   */\n      add\n        /* \"#utility.yul\":1662:1688   */\n      swap1\n      pop\n        /* \"#utility.yul\":1698:1763   */\n      tag_104\n        /* \"#utility.yul\":1760:1761   */\n      0x00\n        /* \"#utility.yul\":1749:1758   */\n      dup4\n        /* \"#utility.yul\":1745:1762   */\n      add\n        /* \"#utility.yul\":1736:1742   */\n      dup5\n        /* \"#utility.yul\":1698:1763   */\n      tag_50\n      jump\t// in\n    tag_104:\n        /* \"#utility.yul\":1560:1770   */\n      swap3\n      swap2\n      pop\n      pop\n      jump\t// out\n        /* \"#utility.yul\":1776:1853   */\n    tag_51:\n        /* \"#utility.yul\":1813:1820   */\n      0x00\n        /* \"#utility.yul\":1842:1847   */\n      dup2\n        /* \"#utility.yul\":1831:1847   */\n      swap1\n      pop\n        /* \"#utility.yul\":1776:1853   */\n      swap2\n      swap1\n      pop\n      jump\t// out\n        /* \"#utility.yul\":1859:1977   */\n    tag_52:\n        /* \"#utility.yul\":1946:1970   */\n      tag_107\n        /* \"#utility.yul\":1964:1969   */\n      dup2\n        /* \"#utility.yul\":1946:1970   */\n      tag_51\n      jump\t// in\n    tag_107:\n        /* \"#utility.yul\":1941:1944   */\n      dup3\n        /* \"#utility.yul\":1934:1971   */\n      mstore\n        /* \"#utility.yul\":1859:1977   */\n      pop\n      pop\n      jump\t// out\n        /* \"#utility.yul\":1983:2205   */\n    tag_20:\n        /* \"#utility.yul\":2076:2080   */\n      0x00\n        /* \"#utility.yul\":2114:2116   */\n      0x20\n        /* \"#utility.yul\":2103:2112   */\n      dup3\n        /* \"#utility.yul\":2099:2117   */\n      add\n        /* \"#utility.yul\":2091:2117   */\n      swap1\n      pop\n        /* \"#utility.yul\":2127:2198   */\n      tag_109\n        /* \"#utility.yul\":2195:2196   */\n      0x00\n        /* \"#utility.yul\":2184:2193   */\n      dup4\n        /* \"#utility.yul\":2180:2197   */\n      add\n        /* \"#utility.yul\":2171:2177   */\n      dup5\n        /* \"#utility.yul\":2127:2198   */\n      tag_52\n      jump\t// in\n    tag_109:\n        /* \"#utility.yul\":1983:2205   */\n      swap3\n      swap2\n      pop\n      pop\n      jump\t// out\n        /* \"#utility.yul\":2211:2286   */\n    tag_53:\n        /* \"#utility.yul\":2244:2250   */\n      0x00\n        /* \"#utility.yul\":2277:2279   */\n      0x40\n        /* \"#utility.yul\":2271:2280   */\n      mload\n        /* \"#utility.yul\":2261:2280   */\n      swap1\n      pop\n        /* \"#utility.yul\":2211:2286   */\n      swap1\n      jump\t// out\n        /* \"#utility.yul\":2292:2409   */\n    tag_54:\n        /* \"#utility.yul\":2401:2402   */\n      0x00\n        /* \"#utility.yul\":2398:2399   */\n      dup1\n        /* \"#utility.yul\":2391:2403   */\n      revert\n        /* \"#utility.yul\":2415:2532   */\n    tag_55:\n        /* \"#utility.yul\":2524:2525   */\n      0x00\n        /* \"#utility.yul\":2521:2522   */\n      dup1\n        /* \"#utility.yul\":2514:2526   */\n      revert\n        /* \"#utility.yul\":2538:2655   */\n    tag_56:\n        /* \"#utility.yul\":2647:2648   */\n      0x00\n        /* \"#utility.yul\":2644:2645   */\n      dup1\n        /* \"#utility.yul\":2637:2649   */\n      revert\n        /* \"#utility.yul\":2661:2778   */\n    tag_57:\n        /* \"#utility.yul\":2770:2771   */\n      0x00\n        /* \"#utility.yul\":2767:2768   */\n      dup1\n        /* \"#utility.yul\":2760:2772   */\n      revert\n        /* \"#utility.yul\":2784:2964   */\n    tag_58:\n        /* \"#utility.yul\":2832:2909   */\n      0x4e487b7100000000000000000000000000000000000000000000000000000000\n        /* \"#utility.yul\":2829:2830   */\n      0x00\n        /* \"#utility.yul\":2822:2910   */\n      mstore\n        /* \"#utility.yul\":2929:2933   */\n      0x41\n        /* \"#utility.yul\":2926:2927   */\n      0x04\n        /* \"#utility.yul\":2919:2934   */\n      mstore\n        /* \"#utility.yul\":2953:2957   */\n      0x24\n        /* \"#utility.yul\":2950:2951   */\n      0x00\n        /* \"#utility.yul\":2943:2958   */\n      revert\n        /* \"#utility.yul\":2970:3251   */\n    tag_59:\n        /* \"#utility.yul\":3053:3080   */\n      tag_117\n        /* \"#utility.yul\":3075:3079   */\n      dup3\n        /* \"#utility.yul\":3053:3080   */\n      tag_47\n      jump\t// in\n    tag_117:\n        /* \"#utility.yul\":3045:3051   */\n      dup2\n        /* \"#utility.yul\":3041:3081   */\n      add\n        /* \"#utility.yul\":3183:3189   */\n      dup2\n        /* \"#utility.yul\":3171:3181   */\n      dup2\n        /* \"#utility.yul\":3168:3190   */\n      lt\n        /* \"#utility.yul\":3147:3165   */\n      0xffffffffffffffff\n        /* \"#utility.yul\":3135:3145   */\n      dup3\n        /* \"#utility.yul\":3132:3166   */\n      gt\n        /* \"#utility.yul\":3129:3191   */\n      or\n        /* \"#utility.yul\":3126:3214   */\n      iszero\n      tag_118\n      jumpi\n        /* \"#utility.yul\":3194:3212   */\n      tag_119\n      tag_58\n      jump\t// in\n    tag_119:\n        /* \"#utility.yul\":3126:3214   */\n    tag_118:\n        /* \"#utility.yul\":3234:3244   */\n      dup1\n        /* \"#utility.yul\":3230:3232   */\n      0x40\n        /* \"#utility.yul\":3223:3245   */\n      mstore\n        /* \"#utility.yul\":3013:3251   */\n      pop\n        /* \"#utility.yul\":2970:3251   */\n      pop\n      pop\n      jump\t// out\n        /* \"#utility.yul\":3257:3386   */\n    tag_60:\n        /* \"#utility.yul\":3291:3297   */\n      0x00\n        /* \"#utility.yul\":3318:3338   */\n      tag_121\n      tag_53\n      jump\t// in\n    tag_121:\n        /* \"#utility.yul\":3308:3338   */\n      swap1\n      pop\n        /* \"#utility.yul\":3347:3380   */\n      tag_122\n        /* \"#utility.yul\":3375:3379   */\n      dup3\n        /* \"#utility.yul\":3367:3373   */\n      dup3\n        /* \"#utility.yul\":3347:3380   */\n      tag_59\n      jump\t// in\n    tag_122:\n        /* \"#utility.yul\":3257:3386   */\n      swap2\n      swap1\n      pop\n      jump\t// out\n        /* \"#utility.yul\":3392:3700   */\n    tag_61:\n        /* \"#utility.yul\":3454:3458   */\n      0x00\n        /* \"#utility.yul\":3544:3562   */\n      0xffffffffffffffff\n        /* \"#utility.yul\":3536:3542   */\n      dup3\n        /* \"#utility.yul\":3533:3563   */\n      gt\n        /* \"#utility.yul\":3530:3586   */\n      iszero\n      tag_124\n      jumpi\n        /* \"#utility.yul\":3566:3584   */\n      tag_125\n      tag_58\n      jump\t// in\n    tag_125:\n        /* \"#utility.yul\":3530:3586   */\n    tag_124:\n        /* \"#utility.yul\":3604:3633   */\n      tag_126\n        /* \"#utility.yul\":3626:3632   */\n      dup3\n        /* \"#utility.yul\":3604:3633   */\n      tag_47\n      jump\t// in\n    tag_126:\n        /* \"#utility.yul\":3596:3633   */\n      swap1\n      pop\n        /* \"#utility.yul\":3688:3692   */\n      0x20\n        /* \"#utility.yul\":3682:3686   */\n      dup2\n        /* \"#utility.yul\":3678:3693   */\n      add\n        /* \"#utility.yul\":3670:3693   */\n      swap1\n      pop\n        /* \"#utility.yul\":3392:3700   */\n      swap2\n      swap1\n      pop\n      jump\t// out\n        /* \"#utility.yul\":3706:3852   */\n    tag_62:\n        /* \"#utility.yul\":3803:3809   */\n      dup3\n        /* \"#utility.yul\":3798:3801   */\n      dup2\n        /* \"#utility.yul\":3793:3796   */\n      dup4\n        /* \"#utility.yul\":3780:3810   */\n      calldatacopy\n        /* \"#utility.yul\":3844:3845   */\n      0x00\n        /* \"#utility.yul\":3835:3841   */\n      dup4\n        /* \"#utility.yul\":3830:3833   */\n      dup4\n        /* \"#utility.yul\":3826:3842   */\n      add\n        /* \"#utility.yul\":3819:3846   */\n      mstore\n        /* \"#utility.yul\":3706:3852   */\n      pop\n      pop\n      pop\n      jump\t// out\n        /* \"#utility.yul\":3858:4283   */\n    tag_63:\n        /* \"#utility.yul\":3936:3941   */\n      0x00\n        /* \"#utility.yul\":3961:4027   */\n      tag_129\n        /* \"#utility.yul\":3977:4026   */\n      tag_130\n        /* \"#utility.yul\":4019:4025   */\n      dup5\n        /* \"#utility.yul\":3977:4026   */\n      tag_61\n      jump\t// in\n    tag_130:\n        /* \"#utility.yul\":3961:4027   */\n      tag_60\n      jump\t// in\n    tag_129:\n        /* \"#utility.yul\":3952:4027   */\n      swap1\n      pop\n        /* \"#utility.yul\":4050:4056   */\n      dup3\n        /* \"#utility.yul\":4043:4048   */\n      dup2\n        /* \"#utility.yul\":4036:4057   */\n      mstore\n        /* \"#utility.yul\":4088:4092   */\n      0x20\n        /* \"#utility.yul\":4081:4086   */\n      dup2\n        /* \"#utility.yul\":4077:4093   */\n      add\n        /* \"#utility.yul\":4126:4129   */\n      dup5\n        /* \"#utility.yul\":4117:4123   */\n      dup5\n        /* \"#utility.yul\":4112:4115   */\n      dup5\n        /* \"#utility.yul\":4108:4124   */\n      add\n        /* \"#utility.yul\":4105:4130   */\n      gt\n        /* \"#utility.yul\":4102:4214   */\n      iszero\n      tag_131\n      jumpi\n        /* \"#utility.yul\":4133:4212   */\n      tag_132\n      tag_57\n      jump\t// in\n    tag_132:\n        /* \"#utility.yul\":4102:4214   */\n    tag_131:\n        /* \"#utility.yul\":4223:4277   */\n      tag_133\n        /* \"#utility.yul\":4270:4276   */\n      dup5\n        /* \"#utility.yul\":4265:4268   */\n      dup3\n        /* \"#utility.yul\":4260:4263   */\n      dup6\n        /* \"#utility.yul\":4223:4277   */\n      tag_62\n      jump\t// in\n    tag_133:\n        /* \"#utility.yul\":3942:4283   */\n      pop\n        /* \"#utility.yul\":3858:4283   */\n      swap4\n      swap3\n      pop\n      pop\n      pop\n      jump\t// out\n        /* \"#utility.yul\":4303:4643   */\n    tag_64:\n        /* \"#utility.yul\":4359:4364   */\n      0x00\n        /* \"#utility.yul\":4408:4411   */\n      dup3\n        /* \"#utility.yul\":4401:4405   */\n      0x1f\n        /* \"#utility.yul\":4393:4399   */\n      dup4\n        /* \"#utility.yul\":4389:4406   */\n      add\n        /* \"#utility.yul\":4385:4412   */\n      slt\n        /* \"#utility.yul\":4375:4497   */\n      tag_135\n      jumpi\n        /* \"#utility.yul\":4416:4495   */\n      tag_136\n      tag_56\n      jump\t// in\n    tag_136:\n        /* \"#utility.yul\":4375:4497   */\n    tag_135:\n        /* \"#utility.yul\":4533:4539   */\n      dup2\n        /* \"#utility.yul\":4520:4540   */\n      calldataload\n        /* \"#utility.yul\":4558:4637   */\n      tag_137\n        /* \"#utility.yul\":4633:4636   */\n      dup5\n        /* \"#utility.yul\":4625:4631   */\n      dup3\n        /* \"#utility.yul\":4618:4622   */\n      0x20\n        /* \"#utility.yul\":4610:4616   */\n      dup7\n        /* \"#utility.yul\":4606:4623   */\n      add\n        /* \"#utility.yul\":4558:4637   */\n      tag_63\n      jump\t// in\n    tag_137:\n        /* \"#utility.yul\":4549:4637   */\n      swap2\n      pop\n        /* \"#utility.yul\":4365:4643   */\n      pop\n        /* \"#utility.yul\":4303:4643   */\n      swap3\n      swap2\n      pop\n      pop\n      jump\t// out\n        /* \"#utility.yul\":4649:5158   */\n    tag_23:\n        /* \"#utility.yul\":4718:4724   */\n      0x00\n        /* \"#utility.yul\":4767:4769   */\n      0x20\n        /* \"#utility.yul\":4755:4764   */\n      dup3\n        /* \"#utility.yul\":4746:4753   */\n      dup5\n        /* \"#utility.yul\":4742:4765   */\n      sub\n        /* \"#utility.yul\":4738:4770   */\n      slt\n        /* \"#utility.yul\":4735:4854   */\n      iszero\n      tag_139\n      jumpi\n        /* \"#utility.yul\":4773:4852   */\n      tag_140\n      tag_54\n      jump\t// in\n    tag_140:\n        /* \"#utility.yul\":4735:4854   */\n    tag_139:\n        /* \"#utility.yul\":4921:4922   */\n      0x00\n        /* \"#utility.yul\":4910:4919   */\n      dup3\n        /* \"#utility.yul\":4906:4923   */\n      add\n        /* \"#utility.yul\":4893:4924   */\n      calldataload\n        /* \"#utility.yul\":4951:4969   */\n      0xffffffffffffffff\n        /* \"#utility.yul\":4943:4949   */\n      dup2\n        /* \"#utility.yul\":4940:4970   */\n      gt\n        /* \"#utility.yul\":4937:5054   */\n      iszero\n      tag_141\n      jumpi\n        /* \"#utility.yul\":4973:5052   */\n      tag_142\n      tag_55\n      jump\t// in\n    tag_142:\n        /* \"#utility.yul\":4937:5054   */\n    tag_141:\n        /* \"#utility.yul\":5078:5141   */\n      tag_143\n        /* \"#utility.yul\":5133:5140   */\n      dup5\n        /* \"#utility.yul\":5124:5130   */\n      dup3\n        /* \"#utility.yul\":5113:5122   */\n      dup6\n        /* \"#utility.yul\":5109:5131   */\n      add\n        /* \"#utility.yul\":5078:5141   */\n      tag_64\n      jump\t// in\n    tag_143:\n        /* \"#utility.yul\":5068:5141   */\n      swap2\n      pop\n        /* \"#utility.yul\":4864:5151   */\n      pop\n        /* \"#utility.yul\":4649:5158   */\n      swap3\n      swap2\n      pop\n      pop\n      jump\t// out\n        /* \"#utility.yul\":5164:5286   */\n    tag_65:\n        /* \"#utility.yul\":5237:5261   */\n      tag_145\n        /* \"#utility.yul\":5255:5260   */\n      dup2\n        /* \"#utility.yul\":5237:5261   */\n      tag_51\n      jump\t// in\n    tag_145:\n        /* \"#utility.yul\":5230:5235   */\n      dup2\n        /* \"#utility.yul\":5227:5262   */\n      eq\n        /* \"#utility.yul\":5217:5280   */\n      tag_146\n      jumpi\n        /* \"#utility.yul\":5276:5277   */\n      0x00\n        /* \"#utility.yul\":5273:5274   */\n      dup1\n        /* \"#utility.yul\":5266:5278   */\n      revert\n        /* \"#utility.yul\":5217:5280   */\n    tag_146:\n        /* \"#utility.yul\":5164:5286   */\n      pop\n      jump\t// out\n        /* \"#utility.yul\":5292:5431   */\n    tag_66:\n        /* \"#utility.yul\":5338:5343   */\n      0x00\n        /* \"#utility.yul\":5376:5382   */\n      dup2\n        /* \"#utility.yul\":5363:5383   */\n      calldataload\n        /* \"#utility.yul\":5354:5383   */\n      swap1\n      pop\n        /* \"#utility.yul\":5392:5425   */\n      tag_148\n        /* \"#utility.yul\":5419:5424   */\n      dup2\n        /* \"#utility.yul\":5392:5425   */\n      tag_65\n      jump\t// in\n    tag_148:\n        /* \"#utility.yul\":5292:5431   */\n      swap3\n      swap2\n      pop\n      pop\n      jump\t// out\n        /* \"#utility.yul\":5437:5766   */\n    tag_27:\n        /* \"#utility.yul\":5496:5502   */\n      0x00\n        /* \"#utility.yul\":5545:5547   */\n      0x20\n        /* \"#utility.yul\":5533:5542   */\n      dup3\n        /* \"#utility.yul\":5524:5531   */\n      dup5\n        /* \"#utility.yul\":5520:5543   */\n      sub\n        /* \"#utility.yul\":5516:5548   */\n      slt\n        /* \"#utility.yul\":5513:5632   */\n      iszero\n      tag_150\n      jumpi\n        /* \"#utility.yul\":5551:5630   */\n      tag_151\n      tag_54\n      jump\t// in\n    tag_151:\n        /* \"#utility.yul\":5513:5632   */\n    tag_150:\n        /* \"#utility.yul\":5671:5672   */\n      0x00\n        /* \"#utility.yul\":5696:5749   */\n      tag_152\n        /* \"#utility.yul\":5741:5748   */\n      dup5\n        /* \"#utility.yul\":5732:5738   */\n      dup3\n        /* \"#utility.yul\":5721:5730   */\n      dup6\n        /* \"#utility.yul\":5717:5739   */\n      add\n        /* \"#utility.yul\":5696:5749   */\n      tag_66\n      jump\t// in\n    tag_152:\n        /* \"#utility.yul\":5686:5749   */\n      swap2\n      pop\n        /* \"#utility.yul\":5642:5759   */\n      pop\n        /* \"#utility.yul\":5437:5766   */\n      swap3\n      swap2\n      pop\n      pop\n      jump\t// out\n        /* \"#utility.yul\":5772:5888   */\n    tag_67:\n        /* \"#utility.yul\":5842:5863   */\n      tag_154\n        /* \"#utility.yul\":5857:5862   */\n      dup2\n        /* \"#utility.yul\":5842:5863   */\n      tag_49\n      jump\t// in\n    tag_154:\n        /* \"#utility.yul\":5835:5840   */\n      dup2\n        /* \"#utility.yul\":5832:5864   */\n      eq\n        /* \"#utility.yul\":5822:5882   */\n      tag_155\n      jumpi\n        /* \"#utility.yul\":5878:5879   */\n      0x00\n        /* \"#utility.yul\":5875:5876   */\n      dup1\n        /* \"#utility.yul\":5868:5880   */\n      revert\n        /* \"#utility.yul\":5822:5882   */\n    tag_155:\n        /* \"#utility.yul\":5772:5888   */\n      pop\n      jump\t// out\n        /* \"#utility.yul\":5894:6027   */\n    tag_68:\n        /* \"#utility.yul\":5937:5942   */\n      0x00\n        /* \"#utility.yul\":5975:5981   */\n      dup2\n        /* \"#utility.yul\":5962:5982   */\n      calldataload\n        /* \"#utility.yul\":5953:5982   */\n      swap1\n      pop\n        /* \"#utility.yul\":5991:6021   */\n      tag_157\n        /* \"#utility.yul\":6015:6020   */\n      dup2\n        /* \"#utility.yul\":5991:6021   */\n      tag_67\n      jump\t// in\n    tag_157:\n        /* \"#utility.yul\":5894:6027   */\n      swap3\n      swap2\n      pop\n      pop\n      jump\t// out\n        /* \"#utility.yul\":6033:6356   */\n    tag_31:\n        /* \"#utility.yul\":6089:6095   */\n      0x00\n        /* \"#utility.yul\":6138:6140   */\n      0x20\n        /* \"#utility.yul\":6126:6135   */\n      dup3\n        /* \"#utility.yul\":6117:6124   */\n      dup5\n        /* \"#utility.yul\":6113:6136   */\n      sub\n        /* \"#utility.yul\":6109:6141   */\n      slt\n        /* \"#utility.yul\":6106:6225   */\n      iszero\n      tag_159\n      jumpi\n        /* \"#utility.yul\":6144:6223   */\n      tag_160\n      tag_54\n      jump\t// in\n    tag_160:\n        /* \"#utility.yul\":6106:6225   */\n    tag_159:\n        /* \"#utility.yul\":6264:6265   */\n      0x00\n        /* \"#utility.yul\":6289:6339   */\n      tag_161\n        /* \"#utility.yul\":6331:6338   */\n      dup5\n        /* \"#utility.yul\":6322:6328   */\n      dup3\n        /* \"#utility.yul\":6311:6320   */\n      dup6\n        /* \"#utility.yul\":6307:6329   */\n      add\n        /* \"#utility.yul\":6289:6339   */\n      tag_68\n      jump\t// in\n    tag_161:\n        /* \"#utility.yul\":6279:6339   */\n      swap2\n      pop\n        /* \"#utility.yul\":6235:6349   */\n      pop\n        /* \"#utility.yul\":6033:6356   */\n      swap3\n      swap2\n      pop\n      pop\n      jump\t// out\n        /* \"#utility.yul\":6362:6542   */\n    tag_69:\n        /* \"#utility.yul\":6410:6487   */\n      0x4e487b7100000000000000000000000000000000000000000000000000000000\n        /* \"#utility.yul\":6407:6408   */\n      0x00\n        /* \"#utility.yul\":6400:6488   */\n      mstore\n        /* \"#utility.yul\":6507:6511   */\n      0x22\n        /* \"#utility.yul\":6504:6505   */\n      0x04\n        /* \"#utility.yul\":6497:6512   */\n      mstore\n        /* \"#utility.yul\":6531:6535   */\n      0x24\n        /* \"#utility.yul\":6528:6529   */\n      0x00\n        /* \"#utility.yul\":6521:6536   */\n      revert\n        /* \"#utility.yul\":6548:6868   */\n    tag_34:\n        /* \"#utility.yul\":6592:6598   */\n      0x00\n        /* \"#utility.yul\":6629:6630   */\n      0x02\n        /* \"#utility.yul\":6623:6627   */\n      dup3\n        /* \"#utility.yul\":6619:6631   */\n      div\n        /* \"#utility.yul\":6609:6631   */\n      swap1\n      pop\n        /* \"#utility.yul\":6676:6677   */\n      0x01\n        /* \"#utility.yul\":6670:6674   */\n      dup3\n        /* \"#utility.yul\":6666:6678   */\n      and\n        /* \"#utility.yul\":6697:6715   */\n      dup1\n        /* \"#utility.yul\":6687:6768   */\n      tag_164\n      jumpi\n        /* \"#utility.yul\":6753:6757   */\n      0x7f\n        /* \"#utility.yul\":6745:6751   */\n      dup3\n        /* \"#utility.yul\":6741:6758   */\n      and\n        /* \"#utility.yul\":6731:6758   */\n      swap2\n      pop\n        /* \"#utility.yul\":6687:6768   */\n    tag_164:\n        /* \"#utility.yul\":6815:6817   */\n      0x20\n        /* \"#utility.yul\":6807:6813   */\n      dup3\n        /* \"#utility.yul\":6804:6818   */\n      lt\n        /* \"#utility.yul\":6784:6802   */\n      dup2\n        /* \"#utility.yul\":6781:6819   */\n      sub\n        /* \"#utility.yul\":6778:6862   */\n      tag_165\n      jumpi\n        /* \"#utility.yul\":6834:6852   */\n      tag_166\n      tag_69\n      jump\t// in\n    tag_166:\n        /* \"#utility.yul\":6778:6862   */\n    tag_165:\n        /* \"#utility.yul\":6599:6868   */\n      pop\n        /* \"#utility.yul\":6548:6868   */\n      swap2\n      swap1\n      pop\n      jump\t// out\n        /* \"#utility.yul\":6874:7015   */\n    tag_70:\n        /* \"#utility.yul\":6923:6927   */\n      0x00\n        /* \"#utility.yul\":6946:6949   */\n      dup2\n        /* \"#utility.yul\":6938:6949   */\n      swap1\n      pop\n        /* \"#utility.yul\":6969:6972   */\n      dup2\n        /* \"#utility.yul\":6966:6967   */\n      0x00\n        /* \"#utility.yul\":6959:6973   */\n      mstore\n        /* \"#utility.yul\":7003:7007   */\n      0x20\n        /* \"#utility.yul\":7000:7001   */\n      0x00\n        /* \"#utility.yul\":6990:7008   */\n      keccak256\n        /* \"#utility.yul\":6982:7008   */\n      swap1\n      pop\n        /* \"#utility.yul\":6874:7015   */\n      swap2\n      swap1\n      pop\n      jump\t// out\n        /* \"#utility.yul\":7021:7114   */\n    tag_71:\n        /* \"#utility.yul\":7058:7064   */\n      0x00\n        /* \"#utility.yul\":7105:7107   */\n      0x20\n        /* \"#utility.yul\":7100:7102   */\n      0x1f\n        /* \"#utility.yul\":7093:7098   */\n      dup4\n        /* \"#utility.yul\":7089:7103   */\n      add\n        /* \"#utility.yul\":7085:7108   */\n      div\n        /* \"#utility.yul\":7075:7108   */\n      swap1\n      pop\n        /* \"#utility.yul\":7021:7114   */\n      swap2\n      swap1\n      pop\n      jump\t// out\n        /* \"#utility.yul\":7120:7227   */\n    tag_72:\n        /* \"#utility.yul\":7164:7172   */\n      0x00\n        /* \"#utility.yul\":7214:7219   */\n      dup3\n        /* \"#utility.yul\":7208:7212   */\n      dup3\n        /* \"#utility.yul\":7204:7220   */\n      shl\n        /* \"#utility.yul\":7183:7220   */\n      swap1\n      pop\n        /* \"#utility.yul\":7120:7227   */\n      swap3\n      swap2\n      pop\n      pop\n      jump\t// out\n        /* \"#utility.yul\":7233:7626   */\n    tag_73:\n        /* \"#utility.yul\":7302:7308   */\n      0x00\n        /* \"#utility.yul\":7352:7353   */\n      0x08\n        /* \"#utility.yul\":7340:7350   */\n      dup4\n        /* \"#utility.yul\":7336:7354   */\n      mul\n        /* \"#utility.yul\":7375:7472   */\n      tag_171\n        /* \"#utility.yul\":7405:7471   */\n      0xffffffffffffffffffffffffffffffffffffffffffffffffffffffffffffffff\n        /* \"#utility.yul\":7394:7403   */\n      dup3\n        /* \"#utility.yul\":7375:7472   */\n      tag_72\n      jump\t// in\n    tag_171:\n        /* \"#utility.yul\":7493:7532   */\n      tag_172\n        /* \"#utility.yul\":7523:7531   */\n      dup7\n        /* \"#utility.yul\":7512:7521   */\n      dup4\n        /* \"#utility.yul\":7493:7532   */\n      tag_72\n      jump\t// in\n    tag_172:\n        /* \"#utility.yul\":7481:7532   */\n      swap6\n      pop\n        /* \"#utility.yul\":7565:7569   */\n      dup1\n        /* \"#utility.yul\":7561:7570   */\n      not\n        /* \"#utility.yul\":7554:7559   */\n      dup5\n        /* \"#utility.yul\":7550:7571   */\n      and\n        /* \"#utility.yul\":7541:7571   */\n      swap4\n      pop\n        /* \"#utility.yul\":7614:7618   */\n      dup1\n        /* \"#utility.yul\":7604:7612   */\n      dup7\n        /* \"#utility.yul\":7600:7619   */\n      and\n        /* \"#utility.yul\":7593:7598   */\n      dup5\n        /* \"#utility.yul\":7590:7620   */\n      or\n        /* \"#utility.yul\":7580:7620   */\n      swap3\n      pop\n        /* \"#utility.yul\":7309:7626   */\n      pop\n      pop\n        /* \"#utility.yul\":7233:7626   */\n      swap4\n      swap3\n      pop\n      pop\n      pop\n      jump\t// out\n        /* \"#utility.yul\":7632:7692   */\n    tag_74:\n        /* \"#utility.yul\":7660:7663   */\n      0x00\n        /* \"#utility.yul\":7681:7686   */\n      dup2\n        /* \"#utility.yul\":7674:7686   */\n      swap1\n      pop\n        /* \"#utility.yul\":7632:7692   */\n      swap2\n      swap1\n      pop\n      jump\t// out\n        /* \"#utility.yul\":7698:7840   */\n    tag_75:\n        /* \"#utility.yul\":7748:7757   */\n      0x00\n        /* \"#utility.yul\":7781:7834   */\n      tag_175\n        /* \"#utility.yul\":7799:7833   */\n      tag_176\n        /* \"#utility.yul\":7808:7832   */\n      tag_177\n        /* \"#utility.yul\":7826:7831   */\n      dup5\n        /* \"#utility.yul\":7808:7832   */\n      tag_51\n      jump\t// in\n    tag_177:\n        /* \"#utility.yul\":7799:7833   */\n      tag_74\n      jump\t// in\n    tag_176:\n        /* \"#utility.yul\":7781:7834   */\n      tag_51\n      jump\t// in\n    tag_175:\n        /* \"#utility.yul\":7768:7834   */\n      swap1\n      pop\n        /* \"#utility.yul\":7698:7840   */\n      swap2\n      swap1\n      pop\n      jump\t// out\n        /* \"#utility.yul\":7846:7921   */\n    tag_76:\n        /* \"#utility.yul\":7889:7892   */\n      0x00\n        /* \"#utility.yul\":7910:7915   */\n      dup2\n        /* \"#utility.yul\":7903:7915   */\n      swap1\n      pop\n        /* \"#utility.yul\":7846:7921   */\n      swap2\n      swap1\n      pop\n      jump\t// out\n        /* \"#utility.yul\":7927:8196   */\n    tag_77:\n        /* \"#utility.yul\":8037:8076   */\n      tag_180\n        /* \"#utility.yul\":8068:8075   */\n      dup4\n        /* \"#utility.yul\":8037:8076   */\n      tag_75\n      jump\t// in\n    tag_180:\n        /* \"#utility.yul\":8098:8189   */\n      tag_181\n        /* \"#utility.yul\":8147:8188   */\n      tag_182\n        /* \"#utility.yul\":8171:8187   */\n      dup3\n        /* \"#utility.yul\":8147:8188   */\n      tag_76\n      jump\t// in\n    tag_182:\n        /* \"#utility.yul\":8139:8145   */\n      dup5\n        /* \"#utility.yul\":8132:8136   */\n      dup5\n        /* \"#utility.yul\":8126:8137   */\n      sload\n        /* \"#utility.yul\":8098:8189   */\n      tag_73\n      jump\t// in\n    tag_181:\n        /* \"#utility.yul\":8092:8096   */\n      dup3\n        /* \"#utility.yul\":8085:8190   */\n      sstore\n        /* \"#utility.yul\":8003:8196   */\n      pop\n        /* \"#utility.yul\":7927:8196   */\n      pop\n      pop\n      pop\n      jump\t// out\n        /* \"#utility.yul\":8202:8275   */\n    tag_78:\n        /* \"#utility.yul\":8247:8250   */\n      0x00\n        /* \"#utility.yul\":8202:8275   */\n      swap1\n      jump\t// out\n        /* \"#utility.yul\":8281:8470   */\n    tag_79:\n        /* \"#utility.yul\":8358:8390   */\n      tag_185\n      tag_78\n      jump\t// in\n    tag_185:\n        /* \"#utility.yul\":8399:8464   */\n      tag_186\n        /* \"#utility.yul\":8457:8463   */\n      dup2\n        /* \"#utility.yul\":8449:8455   */\n      dup5\n        /* \"#utility.yul\":8443:8447   */\n      dup5\n        /* \"#utility.yul\":8399:8464   */\n      tag_77\n      jump\t// in\n    tag_186:\n        /* \"#utility.yul\":8334:8470   */\n      pop\n        /* \"#utility.yul\":8281:8470   */\n      pop\n      pop\n      jump\t// out\n        /* \"#utility.yul\":8476:8662   */\n    tag_80:\n        /* \"#utility.yul\":8536:8656   */\n    tag_188:\n        /* \"#utility.yul\":8553:8556   */\n      dup2\n        /* \"#utility.yul\":8546:8551   */\n      dup2\n        /* \"#utility.yul\":8543:8557   */\n      lt\n        /* \"#utility.yul\":8536:8656   */\n      iszero\n      tag_190\n      jumpi\n        /* \"#utility.yul\":8607:8646   */\n      tag_191\n        /* \"#utility.yul\":8644:8645   */\n      0x00\n        /* \"#utility.yul\":8637:8642   */\n      dup3\n        /* \"#utility.yul\":8607:8646   */\n      tag_79\n      jump\t// in\n    tag_191:\n        /* \"#utility.yul\":8580:8581   */\n      0x01\n        /* \"#utility.yul\":8573:8578   */\n      dup2\n        /* \"#utility.yul\":8569:8582   */\n      add\n        /* \"#utility.yul\":8560:8582   */\n      swap1\n      pop\n        /* \"#utility.yul\":8536:8656   */\n      jump(tag_188)\n    tag_190:\n        /* \"#utility.yul\":8476:8662   */\n      pop\n      pop\n      jump\t// out\n        /* \"#utility.yul\":8668:9211   */\n    tag_81:\n        /* \"#utility.yul\":8769:8771   */\n      0x1f\n        /* \"#utility.yul\":8764:8767   */\n      dup3\n        /* \"#utility.yul\":8761:8772   */\n      gt\n        /* \"#utility.yul\":8758:9204   */\n      iszero\n      tag_193\n      jumpi\n        /* \"#utility.yul\":8803:8841   */\n      tag_194\n        /* \"#utility.yul\":8835:8840   */\n      dup2\n        /* \"#utility.yul\":8803:8841   */\n      tag_70\n      jump\t// in\n    tag_194:\n        /* \"#utility.yul\":8887:8916   */\n      tag_195\n        /* \"#utility.yul\":8905:8915   */\n      dup5\n        /* \"#utility.yul\":8887:8916   */\n      tag_71\n      jump\t// in\n    tag_195:\n        /* \"#utility.yul\":8877:8885   */\n      dup2\n        /* \"#utility.yul\":8873:8917   */\n      add\n        /* \"#utility.yul\":9070:9072   */\n      0x20\n        /* \"#utility.yul\":9058:9068   */\n      dup6\n        /* \"#utility.yul\":9055:9073   */\n      lt\n        /* \"#utility.yul\":9052:9101   */\n      iszero\n      tag_196\n      jumpi\n        /* \"#utility.yul\":9091:9099   */\n      dup2\n        /* \"#utility.yul\":9076:9099   */\n      swap1\n      pop\n        /* \"#utility.yul\":9052:9101   */\n    tag_196:\n        /* \"#utility.yul\":9114:9194   */\n      tag_197\n        /* \"#utility.yul\":9170:9192   */\n      tag_198\n        /* \"#utility.yul\":9188:9191   */\n      dup6\n        /* \"#utility.yul\":9170:9192   */\n      tag_71\n      jump\t// in\n    tag_198:\n        /* \"#utility.yul\":9160:9168   */\n      dup4\n        /* \"#utility.yul\":9156:9193   */\n      add\n        /* \"#utility.yul\":9143:9154   */\n      dup3\n        /* \"#utility.yul\":9114:9194   */\n      tag_80\n      jump\t// in\n    tag_197:\n        /* \"#utility.yul\":8773:9204   */\n      pop\n      pop\n        /* \"#utility.yul\":8758:9204   */\n    tag_193:\n        /* \"#utility.yul\":8668:9211   */\n      pop\n      pop\n      pop\n      jump\t// out\n        /* \"#utility.yul\":9217:9334   */\n    tag_82:\n        /* \"#utility.yul\":9271:9279   */\n      0x00\n        /* \"#utility.yul\":9321:9326   */\n      dup3\n        /* \"#utility.yul\":9315:9319   */\n      dup3\n        /* \"#utility.yul\":9311:9327   */\n      shr\n        /* \"#utility.yul\":9290:9327   */\n      swap1\n      pop\n        /* \"#utility.yul\":9217:9334   */\n      swap3\n      swap2\n      pop\n      pop\n      jump\t// out\n        /* \"#utility.yul\":9340:9509   */\n    tag_83:\n        /* \"#utility.yul\":9384:9390   */\n      0x00\n        /* \"#utility.yul\":9417:9468   */\n      tag_201\n        /* \"#utility.yul\":9465:9466   */\n      0x00\n        /* \"#utility.yul\":9461:9467   */\n      not\n        /* \"#utility.yul\":9453:9458   */\n      dup5\n        /* \"#utility.yul\":9450:9451   */\n      0x08\n        /* \"#utility.yul\":9446:9459   */\n      mul\n        /* \"#utility.yul\":9417:9468   */\n      tag_82\n      jump\t// in\n    tag_201:\n        /* \"#utility.yul\":9413:9469   */\n      not\n        /* \"#utility.yul\":9498:9502   */\n      dup1\n        /* \"#utility.yul\":9492:9496   */\n      dup4\n        /* \"#utility.yul\":9488:9503   */\n      and\n        /* \"#utility.yul\":9478:9503   */\n      swap2\n      pop\n        /* \"#utility.yul\":9391:9509   */\n      pop\n        /* \"#utility.yul\":9340:9509   */\n      swap3\n      swap2\n      pop\n      pop\n      jump\t// out\n        /* \"#utility.yul\":9514:9809   */\n    tag_84:\n        /* \"#utility.yul\":9590:9594   */\n      0x00\n        /* \"#utility.yul\":9736:9765   */\n      tag_203\n        /* \"#utility.yul\":9761:9764   */\n      dup4\n        /* \"#utility.yul\":9755:9759   */\n      dup4\n        /* \"#utility.yul\":9736:9765   */\n      tag_83\n      jump\t// in\n    tag_203:\n        /* \"#utility.yul\":9728:9765   */\n      swap2\n      pop\n        /* \"#utility.yul\":9798:9801   */\n      dup3\n        /* \"#utility.yul\":9795:9796   */\n      0x02\n        /* \"#utility.yul\":9791:9802   */\n      mul\n        /* \"#utility.yul\":9785:9789   */\n      dup3\n        /* \"#utility.yul\":9782:9803   */\n      or\n        /* \"#utility.yul\":9774:9803   */\n      swap1\n      pop\n        /* \"#utility.yul\":9514:9809   */\n      swap3\n      swap2\n      pop\n      pop\n      jump\t// out\n        /* \"#utility.yul\":9814:11209   */\n    tag_41:\n        /* \"#utility.yul\":9931:9968   */\n      tag_205\n        /* \"#utility.yul\":9964:9967   */\n      dup3\n        /* \"#utility.yul\":9931:9968   */\n      tag_44\n      jump\t// in\n    tag_205:\n        /* \"#utility.yul\":10033:10051   */\n      0xffffffffffffffff\n        /* \"#utility.yul\":10025:10031   */\n      dup2\n        /* \"#utility.yul\":10022:10052   */\n      gt\n        /* \"#utility.yul\":10019:10075   */\n      iszero\n      tag_206\n      jumpi\n        /* \"#utility.yul\":10055:10073   */\n      tag_207\n      tag_58\n      jump\t// in\n    tag_207:\n        /* \"#utility.yul\":10019:10075   */\n    tag_206:\n        /* \"#utility.yul\":10099:10137   */\n      tag_208\n        /* \"#utility.yul\":10131:10135   */\n      dup3\n        /* \"#utility.yul\":10125:10136   */\n      sload\n        /* \"#utility.yul\":10099:10137   */\n      tag_34\n      jump\t// in\n    tag_208:\n        /* \"#utility.yul\":10184:10251   */\n      tag_209\n        /* \"#utility.yul\":10244:10250   */\n      dup3\n        /* \"#utility.yul\":10236:10242   */\n      dup3\n        /* \"#utility.yul\":10230:10234   */\n      dup6\n        /* \"#utility.yul\":10184:10251   */\n      tag_81\n      jump\t// in\n    tag_209:\n        /* \"#utility.yul\":10278:10279   */\n      0x00\n        /* \"#utility.yul\":10302:10306   */\n      0x20\n        /* \"#utility.yul\":10289:10306   */\n      swap1\n      pop\n        /* \"#utility.yul\":10334:10336   */\n      0x1f\n        /* \"#utility.yul\":10326:10332   */\n      dup4\n        /* \"#utility.yul\":10323:10337   */\n      gt\n        /* \"#utility.yul\":10351:10352   */\n      0x01\n        /* \"#utility.yul\":10346:10964   */\n      dup2\n      eq\n      tag_211\n      jumpi\n        /* \"#utility.yul\":11008:11009   */\n      0x00\n        /* \"#utility.yul\":11025:11031   */\n      dup5\n        /* \"#utility.yul\":11022:11099   */\n      iszero\n      tag_212\n      jumpi\n        /* \"#utility.yul\":11074:11083   */\n      dup3\n        /* \"#utility.yul\":11069:11072   */\n      dup8\n        /* \"#utility.yul\":11065:11084   */\n      add\n        /* \"#utility.yul\":11059:11085   */\n      mload\n        /* \"#utility.yul\":11050:11085   */\n      swap1\n      pop\n        /* \"#utility.yul\":11022:11099   */\n    tag_212:\n        /* \"#utility.yul\":11125:11192   */\n      tag_213\n        /* \"#utility.yul\":11185:11191   */\n      dup6\n        /* \"#utility.yul\":11178:11183   */\n      dup3\n        /* \"#utility.yul\":11125:11192   */\n      tag_84\n      jump\t// in\n    tag_213:\n        /* \"#utility.yul\":11119:11123   */\n      dup7\n        /* \"#utility.yul\":11112:11193   */\n      sstore\n        /* \"#utility.yul\":10981:11203   */\n      pop\n        /* \"#utility.yul\":10316:11203   */\n      jump(tag_210)\n        /* \"#utility.yul\":10346:10964   */\n    tag_211:\n        /* \"#utility.yul\":10398:10402   */\n      0x1f\n        /* \"#utility.yul\":10394:10403   */\n      not\n        /* \"#utility.yul\":10386:10392   */\n      dup5\n        /* \"#utility.yul\":10382:10404   */\n      and\n        /* \"#utility.yul\":10432:10469   */\n      tag_214\n        /* \"#utility.yul\":10464:10468   */\n      dup7\n        /* \"#utility.yul\":10432:10469   */\n      tag_70\n      jump\t// in\n    tag_214:\n        /* \"#utility.yul\":10491:10492   */\n      0x00\n        /* \"#utility.yul\":10505:10713   */\n    tag_215:\n        /* \"#utility.yul\":10519:10526   */\n      dup3\n        /* \"#utility.yul\":10516:10517   */\n      dup2\n        /* \"#utility.yul\":10513:10527   */\n      lt\n        /* \"#utility.yul\":10505:10713   */\n      iszero\n      tag_217\n      jumpi\n        /* \"#utility.yul\":10598:10607   */\n      dup5\n        /* \"#utility.yul\":10593:10596   */\n      dup10\n        /* \"#utility.yul\":10589:10608   */\n      add\n        /* \"#utility.yul\":10583:10609   */\n      mload\n        /* \"#utility.yul\":10575:10581   */\n      dup3\n        /* \"#utility.yul\":10568:10610   */\n      sstore\n        /* \"#utility.yul\":10649:10650   */\n      0x01\n        /* \"#utility.yul\":10641:10647   */\n      dup3\n        /* \"#utility.yul\":10637:10651   */\n      add\n        /* \"#utility.yul\":10627:10651   */\n      swap2\n      pop\n        /* \"#utility.yul\":10696:10698   */\n      0x20\n        /* \"#utility.yul\":10685:10694   */\n      dup6\n        /* \"#utility.yul\":10681:10699   */\n      add\n        /* \"#utility.yul\":10668:10699   */\n      swap5\n      pop\n        /* \"#utility.yul\":10542:10546   */\n      0x20\n        /* \"#utility.yul\":10539:10540   */\n      dup2\n        /* \"#utility.yul\":10535:10547   */\n      add\n        /* \"#utility.yul\":10530:10547   */\n      swap1\n      pop\n        /* \"#utility.yul\":10505:10713   */\n      jump(tag_215)\n    tag_217:\n        /* \"#utility.yul\":10741:10747   */\n      dup7\n        /* \"#utility.yul\":10732:10739   */\n      dup4\n        /* \"#utility.yul\":10729:10748   */\n      lt\n        /* \"#utility.yul\":10726:10905   */\n      iszero\n      tag_218\n      jumpi\n        /* \"#utility.yul\":10799:10808   */\n      dup5\n        /* \"#utility.yul\":10794:10797   */\n      dup10\n        /* \"#utility.yul\":10790:10809   */\n      add\n        /* \"#utility.yul\":10784:10810   */\n      mload\n        /* \"#utility.yul\":10842:10890   */\n      tag_219\n        /* \"#utility.yul\":10884:10888   */\n      0x1f\n        /* \"#utility.yul\":10876:10882   */\n      dup10\n        /* \"#utility.yul\":10872:10889   */\n      and\n        /* \"#utility.yul\":10861:10870   */\n      dup3\n        /* \"#utility.yul\":10842:10890   */\n      tag_83\n      jump\t// in\n    tag_219:\n        /* \"#utility.yul\":10834:10840   */\n      dup4\n        /* \"#utility.yul\":10827:10891   */\n      sstore\n        /* \"#utility.yul\":10749:10905   */\n      pop\n        /* \"#utility.yul\":10726:10905   */\n    tag_218:\n        /* \"#utility.yul\":10951:10952   */\n      0x01\n        /* \"#utility.yul\":10947:10948   */\n      0x02\n        /* \"#utility.yul\":10939:10945   */\n      dup9\n        /* \"#utility.yul\":10935:10949   */\n      mul\n        /* \"#utility.yul\":10931:10953   */\n      add\n        /* \"#utility.yul\":10925:10929   */\n      dup9\n        /* \"#utility.yul\":10918:10954   */\n      sstore\n        /* \"#utility.yul\":10353:10964   */\n      pop\n      pop\n      pop\n        /* \"#utility.yul\":10316:11203   */\n    tag_210:\n      pop\n        /* \"#utility.yul\":9906:11209   */\n      pop\n      pop\n      pop\n        /* \"#utility.yul\":9814:11209   */\n      pop\n      pop\n      jump\t// out\n\n    auxdata: 0xa26469706673582212202b2144a6c75ccf9bcf93fc738724ad82a62d2e5b5d23a5d453d1aa19d2576ff564736f6c63430008180033\n}\n",
				"bytecode": {
					"linkReferences": {},
					"object": "608060405234801561000f575f80fd5b506108288061001d5f395ff3fe608060405234801561000f575f80fd5b5060043610610060575f3560e01c806306fdde031461006457806322f3e2d414610082578063262a9dff146100a05780632cefeb07146100be5780636e424d5a146100da578063dd685918146100f6575b5f80fd5b61006c610112565b6040516100799190610277565b60405180910390f35b61008a61019d565b60405161009791906102b1565b60405180910390f35b6100a86101af565b6040516100b591906102e2565b60405180910390f35b6100d860048036038101906100d39190610438565b6101b5565b005b6100f460048036038101906100ef91906104a9565b6101c7565b005b610110600480360381019061010b91906104fe565b6101d1565b005b5f805461011e90610556565b80601f016020809104026020016040519081016040528092919081815260200182805461014a90610556565b80156101955780601f1061016c57610100808354040283529160200191610195565b820191905f5260205f20905b81548152906001019060200180831161017857829003601f168201915b505050505081565b60025f9054906101000a900460ff1681565b60015481565b805f90816101c39190610723565b5050565b8060018190555050565b8060025f6101000a81548160ff02191690831515021790555050565b5f81519050919050565b5f82825260208201905092915050565b5f5b83811015610224578082015181840152602081019050610209565b5f8484015250505050565b5f601f19601f8301169050919050565b5f610249826101ed565b61025381856101f7565b9350610263818560208601610207565b61026c8161022f565b840191505092915050565b5f6020820190508181035f83015261028f818461023f565b905092915050565b5f8115159050919050565b6102ab81610297565b82525050565b5f6020820190506102c45f8301846102a2565b92915050565b5f819050919050565b6102dc816102ca565b82525050565b5f6020820190506102f55f8301846102d3565b92915050565b5f604051905090565b5f80fd5b5f80fd5b5f80fd5b5f80fd5b7f4e487b71000000000000000000000000000000000000000000000000000000005f52604160045260245ffd5b61034a8261022f565b810181811067ffffffffffffffff8211171561036957610368610314565b5b80604052505050565b5f61037b6102fb565b90506103878282610341565b919050565b5f67ffffffffffffffff8211156103a6576103a5610314565b5b6103af8261022f565b9050602081019050919050565b828183375f83830152505050565b5f6103dc6103d78461038c565b610372565b9050828152602081018484840111156103f8576103f7610310565b5b6104038482856103bc565b509392505050565b5f82601f83011261041f5761041e61030c565b5b813561042f8482602086016103ca565b91505092915050565b5f6020828403121561044d5761044c610304565b5b5f82013567ffffffffffffffff81111561046a57610469610308565b5b6104768482850161040b565b91505092915050565b610488816102ca565b8114610492575f80fd5b50565b5f813590506104a38161047f565b92915050565b5f602082840312156104be576104bd610304565b5b5f6104cb84828501610495565b91505092915050565b6104dd81610297565b81146104e7575f80fd5b50565b5f813590506104f8816104d4565b92915050565b5f6020828403121561051357610512610304565b5b5f610520848285016104ea565b91505092915050565b7f4e487b71000000000000000000000000000000000000000000000000000000005f52602260045260245ffd5b5f600282049050600182168061056d57607f821691505b6020821081036105805761057f610529565b5b50919050565b5f819050815f5260205f209050919050565b5f6020601f8301049050919050565b5f82821b905092915050565b5f600883026105e27fffffffffffffffffffffffffffffffffffffffffffffffffffffffffffffffff826105a7565b6105ec86836105a7565b95508019841693508086168417925050509392505050565b5f819050919050565b5f61062761062261061d846102ca565b610604565b6102ca565b9050919050565b5f819050919050565b6106408361060d565b61065461064c8261062e565b8484546105b3565b825550505050565b5f90565b61066861065c565b610673818484610637565b505050565b5b818110156106965761068b5f82610660565b600181019050610679565b5050565b601f8211156106db576106ac81610586565b6106b584610598565b810160208510156106c4578190505b6106d86106d085610598565b830182610678565b50505b505050565b5f82821c905092915050565b5f6106fb5f19846008026106e0565b1980831691505092915050565b5f61071383836106ec565b9150826002028217905092915050565b61072c826101ed565b67ffffffffffffffff81111561074557610744610314565b5b61074f8254610556565b61075a82828561069a565b5f60209050601f83116001811461078b575f8415610779578287015190505b6107838582610708565b8655506107ea565b601f19841661079986610586565b5f5b828110156107c05784890151825560018201915060208501945060208101905061079b565b868310156107dd57848901516107d9601f8916826106ec565b8355505b6001600288020188555050505b50505050505056fea26469706673582212202b2144a6c75ccf9bcf93fc738724ad82a62d2e5b5d23a5d453d1aa19d2576ff564736f6c63430008180033",
					"opcodes": "PUSH1 0x80 PUSH1 0x40 MSTORE CALLVALUE DUP1 ISZERO PUSH2 0xF JUMPI PUSH0 DUP1 REVERT JUMPDEST POP PUSH2 0x828 DUP1 PUSH2 0x1D PUSH0 CODECOPY PUSH0 RETURN INVALID PUSH1 0x80 PUSH1 0x40 MSTORE CALLVALUE DUP1 ISZERO PUSH2 0xF JUMPI PUSH0 DUP1 REVERT JUMPDEST POP PUSH1 0x4 CALLDATASIZE LT PUSH2 0x60 JUMPI PUSH0 CALLDATALOAD PUSH1 0xE0 SHR DUP1 PUSH4 0x6FDDE03 EQ PUSH2 0x64 JUMPI DUP1 PUSH4 0x22F3E2D4 EQ PUSH2 0x82 JUMPI DUP1 PUSH4 0x262A9DFF EQ PUSH2 0xA0 JUMPI DUP1 PUSH4 0x2CEFEB07 EQ PUSH2 0xBE JUMPI DUP1 PUSH4 0x6E424D5A EQ PUSH2 0xDA JUMPI DUP1 PUSH4 0xDD685918 EQ PUSH2 0xF6 JUMPI JUMPDEST PUSH0 DUP1 REVERT JUMPDEST PUSH2 0x6C PUSH2 0x112 JUMP JUMPDEST PUSH1 0x40 MLOAD PUSH2 0x79 SWAP2 SWAP1 PUSH2 0x277 JUMP JUMPDEST PUSH1 0x40 MLOAD DUP1 SWAP2 SUB SWAP1 RETURN JUMPDEST PUSH2 0x8A PUSH2 0x19D JUMP JUMPDEST PUSH1 0x40 MLOAD PUSH2 0x97 SWAP2 SWAP1 PUSH2 0x2B1 JUMP JUMPDEST PUSH1 0x40 MLOAD DUP1 SWAP2 SUB SWAP1 RETURN JUMPDEST PUSH2 0xA8 PUSH2 0x1AF JUMP JUMPDEST PUSH1 0x40 MLOAD PUSH2 0xB5 SWAP2 SWAP1 PUSH2 0x2E2 JUMP JUMPDEST PUSH1 0x40 MLOAD DUP1 SWAP2 SUB SWAP1 RETURN JUMPDEST PUSH2 0xD8 PUSH1 0x4 DUP1 CALLDATASIZE SUB DUP2 ADD SWAP1 PUSH2 0xD3 SWAP2 SWAP1 PUSH2 0x438 JUMP JUMPDEST PUSH2 0x1B5 JUMP JUMPDEST STOP JUMPDEST PUSH2 0xF4 PUSH1 0x4 DUP1 CALLDATASIZE SUB DUP2 ADD SWAP1 PUSH2 0xEF SWAP2 SWAP1 PUSH2 0x4A9 JUMP JUMPDEST PUSH2 0x1C7 JUMP JUMPDEST STOP JUMPDEST PUSH2 0x110 PUSH1 0x4 DUP1 CALLDATASIZE SUB DUP2 ADD SWAP1 PUSH2 0x10B SWAP2 SWAP1 PUSH2 0x4FE JUMP JUMPDEST PUSH2 0x1D1 JUMP JUMPDEST STOP JUMPDEST PUSH0 DUP1 SLOAD PUSH2 0x11E SWAP1 PUSH2 0x556 JUMP JUMPDEST DUP1 PUSH1 0x1F ADD PUSH1 0x20 DUP1 SWAP2 DIV MUL PUSH1 0x20 ADD PUSH1 0x40 MLOAD SWAP1 DUP2 ADD PUSH1 0x40 MSTORE DUP1 SWAP3 SWAP2 SWAP1 DUP2 DUP2 MSTORE PUSH1 0x20 ADD DUP3 DUP1 SLOAD PUSH2 0x14A SWAP1 PUSH2 0x556 JUMP JUMPDEST DUP1 ISZERO PUSH2 0x195 JUMPI DUP1 PUSH1 0x1F LT PUSH2 0x16C JUMPI PUSH2 0x100 DUP1 DUP4 SLOAD DIV MUL DUP4 MSTORE SWAP2 PUSH1 0x20 ADD SWAP2 PUSH2 0x195 JUMP JUMPDEST DUP3 ADD SWAP2 SWAP1 PUSH0 MSTORE PUSH1 0x20 PUSH0 KECCAK256 SWAP1 JUMPDEST DUP2 SLOAD DUP2 MSTORE SWAP1 PUSH1 0x1 ADD SWAP1 PUSH1 0x20 ADD DUP1 DUP4 GT PUSH2 0x178 JUMPI DUP3 SWAP1 SUB PUSH1 0x1F AND DUP3 ADD SWAP2 JUMPDEST POP POP POP POP POP DUP2 JUMP JUMPDEST PUSH1 0x2 PUSH0 SWAP1 SLOAD SWAP1 PUSH2 0x100 EXP SWAP1 DIV PUSH1 0xFF AND DUP2 JUMP JUMPDEST PUSH1 0x1 SLOAD DUP2 JUMP JUMPDEST DUP1 PUSH0 SWAP1 DUP2 PUSH2 0x1C3 SWAP2 SWAP1 PUSH2 0x723 JUMP JUMPDEST POP POP JUMP JUMPDEST DUP1 PUSH1 0x1 DUP2 SWAP1 SSTORE POP POP JUMP JUMPDEST DUP1 PUSH1 0x2 PUSH0 PUSH2 0x100 EXP DUP2 SLOAD DUP2 PUSH1 0xFF MUL NOT AND SWAP1 DUP4 ISZERO ISZERO MUL OR SWAP1 SSTORE POP POP JUMP JUMPDEST PUSH0 DUP2 MLOAD SWAP1 POP SWAP2 SWAP1 POP JUMP JUMPDEST PUSH0 DUP3 DUP3 MSTORE PUSH1 0x20 DUP3 ADD SWAP1 POP SWAP3 SWAP2 POP POP JUMP JUMPDEST PUSH0 JUMPDEST DUP4 DUP2 LT ISZERO PUSH2 0x224 JUMPI DUP1 DUP3 ADD MLOAD DUP2 DUP5 ADD MSTORE PUSH1 0x20 DUP2 ADD SWAP1 POP PUSH2 0x209 JUMP JUMPDEST PUSH0 DUP5 DUP5 ADD MSTORE POP POP POP POP JUMP JUMPDEST PUSH0 PUSH1 0x1F NOT PUSH1 0x1F DUP4 ADD AND SWAP1 POP SWAP2 SWAP1 POP JUMP JUMPDEST PUSH0 PUSH2 0x249 DUP3 PUSH2 0x1ED JUMP JUMPDEST PUSH2 0x253 DUP2 DUP6 PUSH2 0x1F7 JUMP JUMPDEST SWAP4 POP PUSH2 0x263 DUP2 DUP6 PUSH1 0x20 DUP7 ADD PUSH2 0x207 JUMP JUMPDEST PUSH2 0x26C DUP2 PUSH2 0x22F JUMP JUMPDEST DUP5 ADD SWAP2 POP POP SWAP3 SWAP2 POP POP JUMP JUMPDEST PUSH0 PUSH1 0x20 DUP3 ADD SWAP1 POP DUP2 DUP2 SUB PUSH0 DUP4 ADD MSTORE PUSH2 0x28F DUP2 DUP5 PUSH2 0x23F JUMP JUMPDEST SWAP1 POP SWAP3 SWAP2 POP POP JUMP JUMPDEST PUSH0 DUP2 ISZERO ISZERO SWAP1 POP SWAP2 SWAP1 POP JUMP JUMPDEST PUSH2 0x2AB DUP2 PUSH2 0x297 JUMP JUMPDEST DUP3 MSTORE POP POP JUMP JUMPDEST PUSH0 PUSH1 0x20 DUP3 ADD SWAP1 POP PUSH2 0x2C4 PUSH0 DUP4 ADD DUP5 PUSH2 0x2A2 JUMP JUMPDEST SWAP3 SWAP2 POP POP JUMP JUMPDEST PUSH0 DUP2 SWAP1 POP SWAP2 SWAP1 POP JUMP JUMPDEST PUSH2 0x2DC DUP2 PUSH2 0x2CA JUMP JUMPDEST DUP3 MSTORE POP POP JUMP JUMPDEST PUSH0 PUSH1 0x20 DUP3 ADD SWAP1 POP PUSH2 0x2F5 PUSH0 DUP4 ADD DUP5 PUSH2 0x2D3 JUMP JUMPDEST SWAP3 SWAP2 POP POP JUMP JUMPDEST PUSH0 PUSH1 0x40 MLOAD SWAP1 POP SWAP1 JUMP JUMPDEST PUSH0 DUP1 REVERT JUMPDEST PUSH0 DUP1 REVERT JUMPDEST PUSH0 DUP1 REVERT JUMPDEST PUSH0 DUP1 REVERT JUMPDEST PUSH32 0x4E487B7100000000000000000000000000000000000000000000000000000000 PUSH0 MSTORE PUSH1 0x41 PUSH1 0x4 MSTORE PUSH1 0x24 PUSH0 REVERT JUMPDEST PUSH2 0x34A DUP3 PUSH2 0x22F JUMP JUMPDEST DUP2 ADD DUP2 DUP2 LT PUSH8 0xFFFFFFFFFFFFFFFF DUP3 GT OR ISZERO PUSH2 0x369 JUMPI PUSH2 0x368 PUSH2 0x314 JUMP JUMPDEST JUMPDEST DUP1 PUSH1 0x40 MSTORE POP POP POP JUMP JUMPDEST PUSH0 PUSH2 0x37B PUSH2 0x2FB JUMP JUMPDEST SWAP1 POP PUSH2 0x387 DUP3 DUP3 PUSH2 0x341 JUMP JUMPDEST SWAP2 SWAP1 POP JUMP JUMPDEST PUSH0 PUSH8 0xFFFFFFFFFFFFFFFF DUP3 GT ISZERO PUSH2 0x3A6 JUMPI PUSH2 0x3A5 PUSH2 0x314 JUMP JUMPDEST JUMPDEST PUSH2 0x3AF DUP3 PUSH2 0x22F JUMP JUMPDEST SWAP1 POP PUSH1 0x20 DUP2 ADD SWAP1 POP SWAP2 SWAP1 POP JUMP JUMPDEST DUP3 DUP2 DUP4 CALLDATACOPY PUSH0 DUP4 DUP4 ADD MSTORE POP POP POP JUMP JUMPDEST PUSH0 PUSH2 0x3DC PUSH2 0x3D7 DUP5 PUSH2 0x38C JUMP JUMPDEST PUSH2 0x372 JUMP JUMPDEST SWAP1 POP DUP3 DUP2 MSTORE PUSH1 0x20 DUP2 ADD DUP5 DUP5 DUP5 ADD GT ISZERO PUSH2 0x3F8 JUMPI PUSH2 0x3F7 PUSH2 0x310 JUMP JUMPDEST JUMPDEST PUSH2 0x403 DUP5 DUP3 DUP6 PUSH2 0x3BC JUMP JUMPDEST POP SWAP4 SWAP3 POP POP POP JUMP JUMPDEST PUSH0 DUP3 PUSH1 0x1F DUP4 ADD SLT PUSH2 0x41F JUMPI PUSH2 0x41E PUSH2 0x30C JUMP JUMPDEST JUMPDEST DUP2 CALLDATALOAD PUSH2 0x42F DUP5 DUP3 PUSH1 0x20 DUP7 ADD PUSH2 0x3CA JUMP JUMPDEST SWAP2 POP POP SWAP3 SWAP2 POP POP JUMP JUMPDEST PUSH0 PUSH1 0x20 DUP3 DUP5 SUB SLT ISZERO PUSH2 0x44D JUMPI PUSH2 0x44C PUSH2 0x304 JUMP JUMPDEST JUMPDEST PUSH0 DUP3 ADD CALLDATALOAD PUSH8 0xFFFFFFFFFFFFFFFF DUP2 GT ISZERO PUSH2 0x46A JUMPI PUSH2 0x469 PUSH2 0x308 JUMP JUMPDEST JUMPDEST PUSH2 0x476 DUP5 DUP3 DUP6 ADD PUSH2 0x40B JUMP JUMPDEST SWAP2 POP POP SWAP3 SWAP2 POP POP JUMP JUMPDEST PUSH2 0x488 DUP2 PUSH2 0x2CA JUMP JUMPDEST DUP2 EQ PUSH2 0x492 JUMPI PUSH0 DUP1 REVERT JUMPDEST POP JUMP JUMPDEST PUSH0 DUP2 CALLDATALOAD SWAP1 POP PUSH2 0x4A3 DUP2 PUSH2 0x47F JUMP JUMPDEST SWAP3 SWAP2 POP POP JUMP JUMPDEST PUSH0 PUSH1 0x20 DUP3 DUP5 SUB SLT ISZERO PUSH2 0x4BE JUMPI PUSH2 0x4BD PUSH2 0x304 JUMP JUMPDEST JUMPDEST PUSH0 PUSH2 0x4CB DUP5 DUP3 DUP6 ADD PUSH2 0x495 JUMP JUMPDEST SWAP2 POP POP SWAP3 SWAP2 POP POP JUMP JUMPDEST PUSH2 0x4DD DUP2 PUSH2 0x297 JUMP JUMPDEST DUP2 EQ PUSH2 0x4E7 JUMPI PUSH0 DUP1 REVERT JUMPDEST POP JUMP JUMPDEST PUSH0 DUP2 CALLDATALOAD SWAP1 POP PUSH2 0x4F8 DUP2 PUSH2 0x4D4 JUMP JUMPDEST SWAP3 SWAP2 POP POP JUMP JUMPDEST PUSH0 PUSH1 0x20 DUP3 DUP5 SUB SLT ISZERO PUSH2 0x513 JUMPI PUSH2 0x512 PUSH2 0x304 JUMP JUMPDEST JUMPDEST PUSH0 PUSH2 0x520 DUP5 DUP3 DUP6 ADD PUSH2 0x4EA JUMP JUMPDEST SWAP2 POP POP SWAP3 SWAP2 POP POP JUMP JUMPDEST PUSH32 0x4E487B7100000000000000000000000000000000000000000000000000000000 PUSH0 MSTORE PUSH1 0x22 PUSH1 0x4 MSTORE PUSH1 0x24 PUSH0 REVERT JUMPDEST PUSH0 PUSH1 0x2 DUP3 DIV SWAP1 POP PUSH1 0x1 DUP3 AND DUP1 PUSH2 0x56D JUMPI PUSH1 0x7F DUP3 AND SWAP2 POP JUMPDEST PUSH1 0x20 DUP3 LT DUP2 SUB PUSH2 0x580 JUMPI PUSH2 0x57F PUSH2 0x529 JUMP JUMPDEST JUMPDEST POP SWAP2 SWAP1 POP JUMP JUMPDEST PUSH0 DUP2 SWAP1 POP DUP2 PUSH0 MSTORE PUSH1 0x20 PUSH0 KECCAK256 SWAP1 POP SWAP2 SWAP1 POP JUMP JUMPDEST PUSH0 PUSH1 0x20 PUSH1 0x1F DUP4 ADD DIV SWAP1 POP SWAP2 SWAP1 POP JUMP JUMPDEST PUSH0 DUP3 DUP3 SHL SWAP1 POP SWAP3 SWAP2 POP POP JUMP JUMPDEST PUSH0 PUSH1 0x8 DUP4 MUL PUSH2 0x5E2 PUSH32 0xFFFFFFFFFFFFFFFFFFFFFFFFFFFFFFFFFFFFFFFFFFFFFFFFFFFFFFFFFFFFFFFF DUP3 PUSH2 0x5A7 JUMP JUMPDEST PUSH2 0x5EC DUP7 DUP4 PUSH2 0x5A7 JUMP JUMPDEST SWAP6 POP DUP1 NOT DUP5 AND SWAP4 POP DUP1 DUP7 AND DUP5 OR SWAP3 POP POP POP SWAP4 SWAP3 POP POP POP JUMP JUMPDEST PUSH0 DUP2 SWAP1 POP SWAP2 SWAP1 POP JUMP JUMPDEST PUSH0 PUSH2 0x627 PUSH2 0x622 PUSH2 0x61D DUP5 PUSH2 0x2CA JUMP JUMPDEST PUSH2 0x604 JUMP JUMPDEST PUSH2 0x2CA JUMP JUMPDEST SWAP1 POP SWAP2 SWAP1 POP JUMP JUMPDEST PUSH0 DUP2 SWAP1 POP SWAP2 SWAP1 POP JUMP JUMPDEST PUSH2 0x640 DUP4 PUSH2 0x60D JUMP JUMPDEST PUSH2 0x654 PUSH2 0x64C DUP3 PUSH2 0x62E JUMP JUMPDEST DUP5 DUP5 SLOAD PUSH2 0x5B3 JUMP JUMPDEST DUP3 SSTORE POP POP POP POP JUMP JUMPDEST PUSH0 SWAP1 JUMP JUMPDEST PUSH2 0x668 PUSH2 0x65C JUMP JUMPDEST PUSH2 0x673 DUP2 DUP5 DUP5 PUSH2 0x637 JUMP JUMPDEST POP POP POP JUMP JUMPDEST JUMPDEST DUP2 DUP2 LT ISZERO PUSH2 0x696 JUMPI PUSH2 0x68B PUSH0 DUP3 PUSH2 0x660 JUMP JUMPDEST PUSH1 0x1 DUP2 ADD SWAP1 POP PUSH2 0x679 JUMP JUMPDEST POP POP JUMP JUMPDEST PUSH1 0x1F DUP3 GT ISZERO PUSH2 0x6DB JUMPI PUSH2 0x6AC DUP2 PUSH2 0x586 JUMP JUMPDEST PUSH2 0x6B5 DUP5 PUSH2 0x598 JUMP JUMPDEST DUP2 ADD PUSH1 0x20 DUP6 LT ISZERO PUSH2 0x6C4 JUMPI DUP2 SWAP1 POP JUMPDEST PUSH2 0x6D8 PUSH2 0x6D0 DUP6 PUSH2 0x598 JUMP JUMPDEST DUP4 ADD DUP3 PUSH2 0x678 JUMP JUMPDEST POP POP JUMPDEST POP POP POP JUMP JUMPDEST PUSH0 DUP3 DUP3 SHR SWAP1 POP SWAP3 SWAP2 POP POP JUMP JUMPDEST PUSH0 PUSH2 0x6FB PUSH0 NOT DUP5 PUSH1 0x8 MUL PUSH2 0x6E0 JUMP JUMPDEST NOT DUP1 DUP4 AND SWAP2 POP POP SWAP3 SWAP2 POP POP JUMP JUMPDEST PUSH0 PUSH2 0x713 DUP4 DUP4 PUSH2 0x6EC JUMP JUMPDEST SWAP2 POP DUP3 PUSH1 0x2 MUL DUP3 OR SWAP1 POP SWAP3 SWAP2 POP POP JUMP JUMPDEST PUSH2 0x72C DUP3 PUSH2 0x1ED JUMP JUMPDEST PUSH8 0xFFFFFFFFFFFFFFFF DUP2 GT ISZERO PUSH2 0x745 JUMPI PUSH2 0x744 PUSH2 0x314 JUMP JUMPDEST JUMPDEST PUSH2 0x74F DUP3 SLOAD PUSH2 0x556 JUMP JUMPDEST PUSH2 0x75A DUP3 DUP3 DUP6 PUSH2 0x69A JUMP JUMPDEST PUSH0 PUSH1 0x20 SWAP1 POP PUSH1 0x1F DUP4 GT PUSH1 0x1 DUP2 EQ PUSH2 0x78B JUMPI PUSH0 DUP5 ISZERO PUSH2 0x779 JUMPI DUP3 DUP8 ADD MLOAD SWAP1 POP JUMPDEST PUSH2 0x783 DUP6 DUP3 PUSH2 0x708 JUMP JUMPDEST DUP7 SSTORE POP PUSH2 0x7EA JUMP JUMPDEST PUSH1 0x1F NOT DUP5 AND PUSH2 0x799 DUP7 PUSH2 0x586 JUMP JUMPDEST PUSH0 JUMPDEST DUP3 DUP2 LT ISZERO PUSH2 0x7C0 JUMPI DUP5 DUP10 ADD MLOAD DUP3 SSTORE PUSH1 0x1 DUP3 ADD SWAP2 POP PUSH1 0x20 DUP6 ADD SWAP5 POP PUSH1 0x20 DUP2 ADD SWAP1 POP PUSH2 0x79B JUMP JUMPDEST DUP7 DUP4 LT ISZERO PUSH2 0x7DD JUMPI DUP5 DUP10 ADD MLOAD PUSH2 0x7D9 PUSH1 0x1F DUP10 AND DUP3 PUSH2 0x6EC JUMP JUMPDEST DUP4 SSTORE POP JUMPDEST PUSH1 0x1 PUSH1 0x2 DUP9 MUL ADD DUP9 SSTORE POP POP POP JUMPDEST POP POP POP POP POP POP JUMP INVALID LOG2 PUSH5 0x6970667358 0x22 SLT KECCAK256 0x2B 0x21 PREVRANDAO 0xA6 0xC7 TLOAD 0xCF SWAP12 0xCF SWAP4 0xFC PUSH20 0x8724AD82A62D2E5B5D23A5D453D1AA19D2576FF5 PUSH5 0x736F6C6343 STOP ADDMOD XOR STOP CALLER "
				},
				"gasEstimates": {
					"creation": {
						"codeDepositCost": "417600",
						"executionCost": "453",
						"totalCost": "418053"
					},
					"external": {
						"age()": "2447",
						"isActive()": "2466",
						"name()": "infinite",
						"setage(uint256)": "22581",
						"setname(string)": "infinite",
						"setstatus(bool)": "24761"
					}
				},
				"methodIdentifiers": {
					"age()": "262a9dff",
					"isActive()": "22f3e2d4",
					"name()": "06fdde03",
					"setage(uint256)": "6e424d5a",
					"setname(string)": "2cefeb07",
					"setstatus(bool)": "dd685918"
				}
			},
			"storageLayout": {
				"storage": [
					{
						"astId": 3,
						"contract": "contracts/ClassWork/que1.sol:liveque",
						"label": "name",
						"offset": 0,
						"slot": "0",
						"type": "t_string_storage"
					},
					{
						"astId": 5,
						"contract": "contracts/ClassWork/que1.sol:liveque",
						"label": "age",
						"offset": 0,
						"slot": "1",
						"type": "t_uint256"
					},
					{
						"astId": 7,
						"contract": "contracts/ClassWork/que1.sol:liveque",
						"label": "isActive",
						"offset": 0,
						"slot": "2",
						"type": "t_bool"
					}
				],
				"types": {
					"t_bool": {
						"encoding": "inplace",
						"label": "bool",
						"numberOfBytes": "1"
					},
					"t_string_storage": {
						"encoding": "bytes",
						"label": "string",
						"numberOfBytes": "32"
					},
					"t_uint256": {
						"encoding": "inplace",
						"label": "uint256",
						"numberOfBytes": "32"
					}
				}
			},
			"userdoc": {
				"kind": "user",
				"methods": {},
				"version": 1
			}
		}
	}
}