{
	"contracts/ClassWork/5productOwnership.sol": {
		"productRegistry": {
			"abi": [
				{
					"inputs": [
						{
							"internalType": "uint256",
							"name": "",
							"type": "uint256"
						}
					],
					"name": "Products",
					"outputs": [
						{
							"internalType": "uint256",
							"name": "pId",
							"type": "uint256"
						},
						{
							"internalType": "string",
							"name": "productName",
							"type": "string"
						},
						{
							"internalType": "address",
							"name": "currentOwner",
							"type": "address"
						}
					],
					"stateMutability": "view",
					"type": "function"
				},
				{
					"inputs": [
						{
							"internalType": "uint256",
							"name": "_pid",
							"type": "uint256"
						},
						{
							"internalType": "string",
							"name": "_name",
							"type": "string"
						}
					],
					"name": "productRegistration",
					"outputs": [],
					"stateMutability": "nonpayable",
					"type": "function"
				},
				{
					"inputs": [
						{
							"internalType": "address",
							"name": "_newUser",
							"type": "address"
						},
						{
							"internalType": "uint256",
							"name": "_pid",
							"type": "uint256"
						}
					],
					"name": "transferOwnership",
					"outputs": [],
					"stateMutability": "nonpayable",
					"type": "function"
				}
			],
			"devdoc": {
				"kind": "dev",
				"methods": {},
				"version": 1
			},
			"evm": {
				"assembly": "    /* \"contracts/ClassWork/5productOwnership.sol\":586:1111  contract productRegistry{... */\n  mstore(0x40, 0x80)\n  callvalue\n  dup1\n  iszero\n  tag_1\n  jumpi\n  0x00\n  dup1\n  revert\ntag_1:\n  pop\n  dataSize(sub_0)\n  dup1\n  dataOffset(sub_0)\n  0x00\n  codecopy\n  0x00\n  return\nstop\n\nsub_0: assembly {\n        /* \"contracts/ClassWork/5productOwnership.sol\":586:1111  contract productRegistry{... */\n      mstore(0x40, 0x80)\n      callvalue\n      dup1\n      iszero\n      tag_1\n      jumpi\n      0x00\n      dup1\n      revert\n    tag_1:\n      pop\n      jumpi(tag_2, lt(calldatasize, 0x04))\n      shr(0xe0, calldataload(0x00))\n      dup1\n      0x0a276680\n      eq\n      tag_3\n      jumpi\n      dup1\n      0x2e667317\n      eq\n      tag_4\n      jumpi\n      dup1\n      0xdba3f6aa\n      eq\n      tag_5\n      jumpi\n    tag_2:\n      0x00\n      dup1\n      revert\n        /* \"contracts/ClassWork/5productOwnership.sol\":912:1108  function transferOwnership(address _newUser,uint _pid) public {... */\n    tag_3:\n      tag_6\n      0x04\n      dup1\n      calldatasize\n      sub\n      dup2\n      add\n      swap1\n      tag_7\n      swap2\n      swap1\n      tag_8\n      jump\t// in\n    tag_7:\n      tag_9\n      jump\t// in\n    tag_6:\n      stop\n        /* \"contracts/ClassWork/5productOwnership.sol\":773:904  function productRegistration(uint _pid,string memory _name) public {... */\n    tag_4:\n      tag_10\n      0x04\n      dup1\n      calldatasize\n      sub\n      dup2\n      add\n      swap1\n      tag_11\n      swap2\n      swap1\n      tag_12\n      jump\t// in\n    tag_11:\n      tag_13\n      jump\t// in\n    tag_10:\n      stop\n        /* \"contracts/ClassWork/5productOwnership.sol\":726:764  mapping(uint=>Product) public Products */\n    tag_5:\n      tag_14\n      0x04\n      dup1\n      calldatasize\n      sub\n      dup2\n      add\n      swap1\n      tag_15\n      swap2\n      swap1\n      tag_16\n      jump\t// in\n    tag_15:\n      tag_17\n      jump\t// in\n    tag_14:\n      mload(0x40)\n      tag_18\n      swap4\n      swap3\n      swap2\n      swap1\n      tag_19\n      jump\t// in\n    tag_18:\n      mload(0x40)\n      dup1\n      swap2\n      sub\n      swap1\n      return\n        /* \"contracts/ClassWork/5productOwnership.sol\":912:1108  function transferOwnership(address _newUser,uint _pid) public {... */\n    tag_9:\n        /* \"contracts/ClassWork/5productOwnership.sol\":1005:1013  Products */\n      0x00\n        /* \"contracts/ClassWork/5productOwnership.sol\":1005:1019  Products[_pid] */\n      dup1\n        /* \"contracts/ClassWork/5productOwnership.sol\":1014:1018  _pid */\n      dup3\n        /* \"contracts/ClassWork/5productOwnership.sol\":1005:1019  Products[_pid] */\n      dup2\n      mstore\n      0x20\n      add\n      swap1\n      dup2\n      mstore\n      0x20\n      add\n      0x00\n      keccak256\n        /* \"contracts/ClassWork/5productOwnership.sol\":1005:1032  Products[_pid].currentOwner */\n      0x02\n      add\n      0x00\n      swap1\n      sload\n      swap1\n      0x0100\n      exp\n      swap1\n      div\n      0xffffffffffffffffffffffffffffffffffffffff\n      and\n        /* \"contracts/ClassWork/5productOwnership.sol\":993:1032  msg.sender==Products[_pid].currentOwner */\n      0xffffffffffffffffffffffffffffffffffffffff\n      and\n        /* \"contracts/ClassWork/5productOwnership.sol\":993:1003  msg.sender */\n      caller\n        /* \"contracts/ClassWork/5productOwnership.sol\":993:1032  msg.sender==Products[_pid].currentOwner */\n      0xffffffffffffffffffffffffffffffffffffffff\n      and\n      eq\n        /* \"contracts/ClassWork/5productOwnership.sol\":985:1053  require(msg.sender==Products[_pid].currentOwner,\"you are not Owner\") */\n      tag_21\n      jumpi\n      mload(0x40)\n      0x08c379a000000000000000000000000000000000000000000000000000000000\n      dup2\n      mstore\n      0x04\n      add\n      tag_22\n      swap1\n      tag_23\n      jump\t// in\n    tag_22:\n      mload(0x40)\n      dup1\n      swap2\n      sub\n      swap1\n      revert\n    tag_21:\n        /* \"contracts/ClassWork/5productOwnership.sol\":1092:1100  _newUser */\n      dup2\n        /* \"contracts/ClassWork/5productOwnership.sol\":1064:1072  Products */\n      0x00\n        /* \"contracts/ClassWork/5productOwnership.sol\":1064:1078  Products[_pid] */\n      dup1\n        /* \"contracts/ClassWork/5productOwnership.sol\":1073:1077  _pid */\n      dup4\n        /* \"contracts/ClassWork/5productOwnership.sol\":1064:1078  Products[_pid] */\n      dup2\n      mstore\n      0x20\n      add\n      swap1\n      dup2\n      mstore\n      0x20\n      add\n      0x00\n      keccak256\n        /* \"contracts/ClassWork/5productOwnership.sol\":1064:1091  Products[_pid].currentOwner */\n      0x02\n      add\n      0x00\n        /* \"contracts/ClassWork/5productOwnership.sol\":1064:1100  Products[_pid].currentOwner=_newUser */\n      0x0100\n      exp\n      dup2\n      sload\n      dup2\n      0xffffffffffffffffffffffffffffffffffffffff\n      mul\n      not\n      and\n      swap1\n      dup4\n      0xffffffffffffffffffffffffffffffffffffffff\n      and\n      mul\n      or\n      swap1\n      sstore\n      pop\n        /* \"contracts/ClassWork/5productOwnership.sol\":912:1108  function transferOwnership(address _newUser,uint _pid) public {... */\n      pop\n      pop\n      jump\t// out\n        /* \"contracts/ClassWork/5productOwnership.sol\":773:904  function productRegistration(uint _pid,string memory _name) public {... */\n    tag_13:\n        /* \"contracts/ClassWork/5productOwnership.sol\":866:896  Product(_pid,_name,msg.sender) */\n      mload(0x40)\n      dup1\n      0x60\n      add\n      0x40\n      mstore\n      dup1\n        /* \"contracts/ClassWork/5productOwnership.sol\":874:878  _pid */\n      dup4\n        /* \"contracts/ClassWork/5productOwnership.sol\":866:896  Product(_pid,_name,msg.sender) */\n      dup2\n      mstore\n      0x20\n      add\n        /* \"contracts/ClassWork/5productOwnership.sol\":879:884  _name */\n      dup3\n        /* \"contracts/ClassWork/5productOwnership.sol\":866:896  Product(_pid,_name,msg.sender) */\n      dup2\n      mstore\n      0x20\n      add\n        /* \"contracts/ClassWork/5productOwnership.sol\":885:895  msg.sender */\n      caller\n        /* \"contracts/ClassWork/5productOwnership.sol\":866:896  Product(_pid,_name,msg.sender) */\n      0xffffffffffffffffffffffffffffffffffffffff\n      and\n      dup2\n      mstore\n      pop\n        /* \"contracts/ClassWork/5productOwnership.sol\":851:859  Products */\n      0x00\n        /* \"contracts/ClassWork/5productOwnership.sol\":851:865  Products[_pid] */\n      dup1\n        /* \"contracts/ClassWork/5productOwnership.sol\":860:864  _pid */\n      dup5\n        /* \"contracts/ClassWork/5productOwnership.sol\":851:865  Products[_pid] */\n      dup2\n      mstore\n      0x20\n      add\n      swap1\n      dup2\n      mstore\n      0x20\n      add\n      0x00\n      keccak256\n        /* \"contracts/ClassWork/5productOwnership.sol\":851:896  Products[_pid]=Product(_pid,_name,msg.sender) */\n      0x00\n      dup3\n      add\n      mload\n      dup2\n      0x00\n      add\n      sstore\n      0x20\n      dup3\n      add\n      mload\n      dup2\n      0x01\n      add\n      swap1\n      dup2\n      tag_25\n      swap2\n      swap1\n      tag_26\n      jump\t// in\n    tag_25:\n      pop\n      0x40\n      dup3\n      add\n      mload\n      dup2\n      0x02\n      add\n      exp(0x0100, 0x00)\n      dup2\n      sload\n      dup2\n      0xffffffffffffffffffffffffffffffffffffffff\n      mul\n      not\n      and\n      swap1\n      dup4\n      0xffffffffffffffffffffffffffffffffffffffff\n      and\n      mul\n      or\n      swap1\n      sstore\n      pop\n      swap1\n      pop\n      pop\n        /* \"contracts/ClassWork/5productOwnership.sol\":773:904  function productRegistration(uint _pid,string memory _name) public {... */\n      pop\n      pop\n      jump\t// out\n        /* \"contracts/ClassWork/5productOwnership.sol\":726:764  mapping(uint=>Product) public Products */\n    tag_17:\n      mstore(0x20, 0x00)\n      dup1\n      0x00\n      mstore\n      keccak256(0x00, 0x40)\n      0x00\n      swap2\n      pop\n      swap1\n      pop\n      dup1\n      0x00\n      add\n      sload\n      swap1\n      dup1\n      0x01\n      add\n      dup1\n      sload\n      tag_27\n      swap1\n      tag_28\n      jump\t// in\n    tag_27:\n      dup1\n      0x1f\n      add\n      0x20\n      dup1\n      swap2\n      div\n      mul\n      0x20\n      add\n      mload(0x40)\n      swap1\n      dup2\n      add\n      0x40\n      mstore\n      dup1\n      swap3\n      swap2\n      swap1\n      dup2\n      dup2\n      mstore\n      0x20\n      add\n      dup3\n      dup1\n      sload\n      tag_29\n      swap1\n      tag_28\n      jump\t// in\n    tag_29:\n      dup1\n      iszero\n      tag_30\n      jumpi\n      dup1\n      0x1f\n      lt\n      tag_31\n      jumpi\n      0x0100\n      dup1\n      dup4\n      sload\n      div\n      mul\n      dup4\n      mstore\n      swap2\n      0x20\n      add\n      swap2\n      jump(tag_30)\n    tag_31:\n      dup3\n      add\n      swap2\n      swap1\n      0x00\n      mstore\n      keccak256(0x00, 0x20)\n      swap1\n    tag_32:\n      dup2\n      sload\n      dup2\n      mstore\n      swap1\n      0x01\n      add\n      swap1\n      0x20\n      add\n      dup1\n      dup4\n      gt\n      tag_32\n      jumpi\n      dup3\n      swap1\n      sub\n      0x1f\n      and\n      dup3\n      add\n      swap2\n    tag_30:\n      pop\n      pop\n      pop\n      pop\n      pop\n      swap1\n      dup1\n      0x02\n      add\n      0x00\n      swap1\n      sload\n      swap1\n      0x0100\n      exp\n      swap1\n      div\n      0xffffffffffffffffffffffffffffffffffffffff\n      and\n      swap1\n      pop\n      dup4\n      jump\t// out\n        /* \"#utility.yul\":7:82   */\n    tag_33:\n        /* \"#utility.yul\":40:46   */\n      0x00\n        /* \"#utility.yul\":73:75   */\n      0x40\n        /* \"#utility.yul\":67:76   */\n      mload\n        /* \"#utility.yul\":57:76   */\n      swap1\n      pop\n        /* \"#utility.yul\":7:82   */\n      swap1\n      jump\t// out\n        /* \"#utility.yul\":88:205   */\n    tag_34:\n        /* \"#utility.yul\":197:198   */\n      0x00\n        /* \"#utility.yul\":194:195   */\n      dup1\n        /* \"#utility.yul\":187:199   */\n      revert\n        /* \"#utility.yul\":211:328   */\n    tag_35:\n        /* \"#utility.yul\":320:321   */\n      0x00\n        /* \"#utility.yul\":317:318   */\n      dup1\n        /* \"#utility.yul\":310:322   */\n      revert\n        /* \"#utility.yul\":334:460   */\n    tag_36:\n        /* \"#utility.yul\":371:378   */\n      0x00\n        /* \"#utility.yul\":411:453   */\n      0xffffffffffffffffffffffffffffffffffffffff\n        /* \"#utility.yul\":404:409   */\n      dup3\n        /* \"#utility.yul\":400:454   */\n      and\n        /* \"#utility.yul\":389:454   */\n      swap1\n      pop\n        /* \"#utility.yul\":334:460   */\n      swap2\n      swap1\n      pop\n      jump\t// out\n        /* \"#utility.yul\":466:562   */\n    tag_37:\n        /* \"#utility.yul\":503:510   */\n      0x00\n        /* \"#utility.yul\":532:556   */\n      tag_83\n        /* \"#utility.yul\":550:555   */\n      dup3\n        /* \"#utility.yul\":532:556   */\n      tag_36\n      jump\t// in\n    tag_83:\n        /* \"#utility.yul\":521:556   */\n      swap1\n      pop\n        /* \"#utility.yul\":466:562   */\n      swap2\n      swap1\n      pop\n      jump\t// out\n        /* \"#utility.yul\":568:690   */\n    tag_38:\n        /* \"#utility.yul\":641:665   */\n      tag_85\n        /* \"#utility.yul\":659:664   */\n      dup2\n        /* \"#utility.yul\":641:665   */\n      tag_37\n      jump\t// in\n    tag_85:\n        /* \"#utility.yul\":634:639   */\n      dup2\n        /* \"#utility.yul\":631:666   */\n      eq\n        /* \"#utility.yul\":621:684   */\n      tag_86\n      jumpi\n        /* \"#utility.yul\":680:681   */\n      0x00\n        /* \"#utility.yul\":677:678   */\n      dup1\n        /* \"#utility.yul\":670:682   */\n      revert\n        /* \"#utility.yul\":621:684   */\n    tag_86:\n        /* \"#utility.yul\":568:690   */\n      pop\n      jump\t// out\n        /* \"#utility.yul\":696:835   */\n    tag_39:\n        /* \"#utility.yul\":742:747   */\n      0x00\n        /* \"#utility.yul\":780:786   */\n      dup2\n        /* \"#utility.yul\":767:787   */\n      calldataload\n        /* \"#utility.yul\":758:787   */\n      swap1\n      pop\n        /* \"#utility.yul\":796:829   */\n      tag_88\n        /* \"#utility.yul\":823:828   */\n      dup2\n        /* \"#utility.yul\":796:829   */\n      tag_38\n      jump\t// in\n    tag_88:\n        /* \"#utility.yul\":696:835   */\n      swap3\n      swap2\n      pop\n      pop\n      jump\t// out\n        /* \"#utility.yul\":841:918   */\n    tag_40:\n        /* \"#utility.yul\":878:885   */\n      0x00\n        /* \"#utility.yul\":907:912   */\n      dup2\n        /* \"#utility.yul\":896:912   */\n      swap1\n      pop\n        /* \"#utility.yul\":841:918   */\n      swap2\n      swap1\n      pop\n      jump\t// out\n        /* \"#utility.yul\":924:1046   */\n    tag_41:\n        /* \"#utility.yul\":997:1021   */\n      tag_91\n        /* \"#utility.yul\":1015:1020   */\n      dup2\n        /* \"#utility.yul\":997:1021   */\n      tag_40\n      jump\t// in\n    tag_91:\n        /* \"#utility.yul\":990:995   */\n      dup2\n        /* \"#utility.yul\":987:1022   */\n      eq\n        /* \"#utility.yul\":977:1040   */\n      tag_92\n      jumpi\n        /* \"#utility.yul\":1036:1037   */\n      0x00\n        /* \"#utility.yul\":1033:1034   */\n      dup1\n        /* \"#utility.yul\":1026:1038   */\n      revert\n        /* \"#utility.yul\":977:1040   */\n    tag_92:\n        /* \"#utility.yul\":924:1046   */\n      pop\n      jump\t// out\n        /* \"#utility.yul\":1052:1191   */\n    tag_42:\n        /* \"#utility.yul\":1098:1103   */\n      0x00\n        /* \"#utility.yul\":1136:1142   */\n      dup2\n        /* \"#utility.yul\":1123:1143   */\n      calldataload\n        /* \"#utility.yul\":1114:1143   */\n      swap1\n      pop\n        /* \"#utility.yul\":1152:1185   */\n      tag_94\n        /* \"#utility.yul\":1179:1184   */\n      dup2\n        /* \"#utility.yul\":1152:1185   */\n      tag_41\n      jump\t// in\n    tag_94:\n        /* \"#utility.yul\":1052:1191   */\n      swap3\n      swap2\n      pop\n      pop\n      jump\t// out\n        /* \"#utility.yul\":1197:1671   */\n    tag_8:\n        /* \"#utility.yul\":1265:1271   */\n      0x00\n        /* \"#utility.yul\":1273:1279   */\n      dup1\n        /* \"#utility.yul\":1322:1324   */\n      0x40\n        /* \"#utility.yul\":1310:1319   */\n      dup4\n        /* \"#utility.yul\":1301:1308   */\n      dup6\n        /* \"#utility.yul\":1297:1320   */\n      sub\n        /* \"#utility.yul\":1293:1325   */\n      slt\n        /* \"#utility.yul\":1290:1409   */\n      iszero\n      tag_96\n      jumpi\n        /* \"#utility.yul\":1328:1407   */\n      tag_97\n      tag_34\n      jump\t// in\n    tag_97:\n        /* \"#utility.yul\":1290:1409   */\n    tag_96:\n        /* \"#utility.yul\":1448:1449   */\n      0x00\n        /* \"#utility.yul\":1473:1526   */\n      tag_98\n        /* \"#utility.yul\":1518:1525   */\n      dup6\n        /* \"#utility.yul\":1509:1515   */\n      dup3\n        /* \"#utility.yul\":1498:1507   */\n      dup7\n        /* \"#utility.yul\":1494:1516   */\n      add\n        /* \"#utility.yul\":1473:1526   */\n      tag_39\n      jump\t// in\n    tag_98:\n        /* \"#utility.yul\":1463:1526   */\n      swap3\n      pop\n        /* \"#utility.yul\":1419:1536   */\n      pop\n        /* \"#utility.yul\":1575:1577   */\n      0x20\n        /* \"#utility.yul\":1601:1654   */\n      tag_99\n        /* \"#utility.yul\":1646:1653   */\n      dup6\n        /* \"#utility.yul\":1637:1643   */\n      dup3\n        /* \"#utility.yul\":1626:1635   */\n      dup7\n        /* \"#utility.yul\":1622:1644   */\n      add\n        /* \"#utility.yul\":1601:1654   */\n      tag_42\n      jump\t// in\n    tag_99:\n        /* \"#utility.yul\":1591:1654   */\n      swap2\n      pop\n        /* \"#utility.yul\":1546:1664   */\n      pop\n        /* \"#utility.yul\":1197:1671   */\n      swap3\n      pop\n      swap3\n      swap1\n      pop\n      jump\t// out\n        /* \"#utility.yul\":1677:1794   */\n    tag_43:\n        /* \"#utility.yul\":1786:1787   */\n      0x00\n        /* \"#utility.yul\":1783:1784   */\n      dup1\n        /* \"#utility.yul\":1776:1788   */\n      revert\n        /* \"#utility.yul\":1800:1917   */\n    tag_44:\n        /* \"#utility.yul\":1909:1910   */\n      0x00\n        /* \"#utility.yul\":1906:1907   */\n      dup1\n        /* \"#utility.yul\":1899:1911   */\n      revert\n        /* \"#utility.yul\":1923:2025   */\n    tag_45:\n        /* \"#utility.yul\":1964:1970   */\n      0x00\n        /* \"#utility.yul\":2015:2017   */\n      0x1f\n        /* \"#utility.yul\":2011:2018   */\n      not\n        /* \"#utility.yul\":2006:2008   */\n      0x1f\n        /* \"#utility.yul\":1999:2004   */\n      dup4\n        /* \"#utility.yul\":1995:2009   */\n      add\n        /* \"#utility.yul\":1991:2019   */\n      and\n        /* \"#utility.yul\":1981:2019   */\n      swap1\n      pop\n        /* \"#utility.yul\":1923:2025   */\n      swap2\n      swap1\n      pop\n      jump\t// out\n        /* \"#utility.yul\":2031:2211   */\n    tag_46:\n        /* \"#utility.yul\":2079:2156   */\n      0x4e487b7100000000000000000000000000000000000000000000000000000000\n        /* \"#utility.yul\":2076:2077   */\n      0x00\n        /* \"#utility.yul\":2069:2157   */\n      mstore\n        /* \"#utility.yul\":2176:2180   */\n      0x41\n        /* \"#utility.yul\":2173:2174   */\n      0x04\n        /* \"#utility.yul\":2166:2181   */\n      mstore\n        /* \"#utility.yul\":2200:2204   */\n      0x24\n        /* \"#utility.yul\":2197:2198   */\n      0x00\n        /* \"#utility.yul\":2190:2205   */\n      revert\n        /* \"#utility.yul\":2217:2498   */\n    tag_47:\n        /* \"#utility.yul\":2300:2327   */\n      tag_105\n        /* \"#utility.yul\":2322:2326   */\n      dup3\n        /* \"#utility.yul\":2300:2327   */\n      tag_45\n      jump\t// in\n    tag_105:\n        /* \"#utility.yul\":2292:2298   */\n      dup2\n        /* \"#utility.yul\":2288:2328   */\n      add\n        /* \"#utility.yul\":2430:2436   */\n      dup2\n        /* \"#utility.yul\":2418:2428   */\n      dup2\n        /* \"#utility.yul\":2415:2437   */\n      lt\n        /* \"#utility.yul\":2394:2412   */\n      0xffffffffffffffff\n        /* \"#utility.yul\":2382:2392   */\n      dup3\n        /* \"#utility.yul\":2379:2413   */\n      gt\n        /* \"#utility.yul\":2376:2438   */\n      or\n        /* \"#utility.yul\":2373:2461   */\n      iszero\n      tag_106\n      jumpi\n        /* \"#utility.yul\":2441:2459   */\n      tag_107\n      tag_46\n      jump\t// in\n    tag_107:\n        /* \"#utility.yul\":2373:2461   */\n    tag_106:\n        /* \"#utility.yul\":2481:2491   */\n      dup1\n        /* \"#utility.yul\":2477:2479   */\n      0x40\n        /* \"#utility.yul\":2470:2492   */\n      mstore\n        /* \"#utility.yul\":2260:2498   */\n      pop\n        /* \"#utility.yul\":2217:2498   */\n      pop\n      pop\n      jump\t// out\n        /* \"#utility.yul\":2504:2633   */\n    tag_48:\n        /* \"#utility.yul\":2538:2544   */\n      0x00\n        /* \"#utility.yul\":2565:2585   */\n      tag_109\n      tag_33\n      jump\t// in\n    tag_109:\n        /* \"#utility.yul\":2555:2585   */\n      swap1\n      pop\n        /* \"#utility.yul\":2594:2627   */\n      tag_110\n        /* \"#utility.yul\":2622:2626   */\n      dup3\n        /* \"#utility.yul\":2614:2620   */\n      dup3\n        /* \"#utility.yul\":2594:2627   */\n      tag_47\n      jump\t// in\n    tag_110:\n        /* \"#utility.yul\":2504:2633   */\n      swap2\n      swap1\n      pop\n      jump\t// out\n        /* \"#utility.yul\":2639:2947   */\n    tag_49:\n        /* \"#utility.yul\":2701:2705   */\n      0x00\n        /* \"#utility.yul\":2791:2809   */\n      0xffffffffffffffff\n        /* \"#utility.yul\":2783:2789   */\n      dup3\n        /* \"#utility.yul\":2780:2810   */\n      gt\n        /* \"#utility.yul\":2777:2833   */\n      iszero\n      tag_112\n      jumpi\n        /* \"#utility.yul\":2813:2831   */\n      tag_113\n      tag_46\n      jump\t// in\n    tag_113:\n        /* \"#utility.yul\":2777:2833   */\n    tag_112:\n        /* \"#utility.yul\":2851:2880   */\n      tag_114\n        /* \"#utility.yul\":2873:2879   */\n      dup3\n        /* \"#utility.yul\":2851:2880   */\n      tag_45\n      jump\t// in\n    tag_114:\n        /* \"#utility.yul\":2843:2880   */\n      swap1\n      pop\n        /* \"#utility.yul\":2935:2939   */\n      0x20\n        /* \"#utility.yul\":2929:2933   */\n      dup2\n        /* \"#utility.yul\":2925:2940   */\n      add\n        /* \"#utility.yul\":2917:2940   */\n      swap1\n      pop\n        /* \"#utility.yul\":2639:2947   */\n      swap2\n      swap1\n      pop\n      jump\t// out\n        /* \"#utility.yul\":2953:3099   */\n    tag_50:\n        /* \"#utility.yul\":3050:3056   */\n      dup3\n        /* \"#utility.yul\":3045:3048   */\n      dup2\n        /* \"#utility.yul\":3040:3043   */\n      dup4\n        /* \"#utility.yul\":3027:3057   */\n      calldatacopy\n        /* \"#utility.yul\":3091:3092   */\n      0x00\n        /* \"#utility.yul\":3082:3088   */\n      dup4\n        /* \"#utility.yul\":3077:3080   */\n      dup4\n        /* \"#utility.yul\":3073:3089   */\n      add\n        /* \"#utility.yul\":3066:3093   */\n      mstore\n        /* \"#utility.yul\":2953:3099   */\n      pop\n      pop\n      pop\n      jump\t// out\n        /* \"#utility.yul\":3105:3530   */\n    tag_51:\n        /* \"#utility.yul\":3183:3188   */\n      0x00\n        /* \"#utility.yul\":3208:3274   */\n      tag_117\n        /* \"#utility.yul\":3224:3273   */\n      tag_118\n        /* \"#utility.yul\":3266:3272   */\n      dup5\n        /* \"#utility.yul\":3224:3273   */\n      tag_49\n      jump\t// in\n    tag_118:\n        /* \"#utility.yul\":3208:3274   */\n      tag_48\n      jump\t// in\n    tag_117:\n        /* \"#utility.yul\":3199:3274   */\n      swap1\n      pop\n        /* \"#utility.yul\":3297:3303   */\n      dup3\n        /* \"#utility.yul\":3290:3295   */\n      dup2\n        /* \"#utility.yul\":3283:3304   */\n      mstore\n        /* \"#utility.yul\":3335:3339   */\n      0x20\n        /* \"#utility.yul\":3328:3333   */\n      dup2\n        /* \"#utility.yul\":3324:3340   */\n      add\n        /* \"#utility.yul\":3373:3376   */\n      dup5\n        /* \"#utility.yul\":3364:3370   */\n      dup5\n        /* \"#utility.yul\":3359:3362   */\n      dup5\n        /* \"#utility.yul\":3355:3371   */\n      add\n        /* \"#utility.yul\":3352:3377   */\n      gt\n        /* \"#utility.yul\":3349:3461   */\n      iszero\n      tag_119\n      jumpi\n        /* \"#utility.yul\":3380:3459   */\n      tag_120\n      tag_44\n      jump\t// in\n    tag_120:\n        /* \"#utility.yul\":3349:3461   */\n    tag_119:\n        /* \"#utility.yul\":3470:3524   */\n      tag_121\n        /* \"#utility.yul\":3517:3523   */\n      dup5\n        /* \"#utility.yul\":3512:3515   */\n      dup3\n        /* \"#utility.yul\":3507:3510   */\n      dup6\n        /* \"#utility.yul\":3470:3524   */\n      tag_50\n      jump\t// in\n    tag_121:\n        /* \"#utility.yul\":3189:3530   */\n      pop\n        /* \"#utility.yul\":3105:3530   */\n      swap4\n      swap3\n      pop\n      pop\n      pop\n      jump\t// out\n        /* \"#utility.yul\":3550:3890   */\n    tag_52:\n        /* \"#utility.yul\":3606:3611   */\n      0x00\n        /* \"#utility.yul\":3655:3658   */\n      dup3\n        /* \"#utility.yul\":3648:3652   */\n      0x1f\n        /* \"#utility.yul\":3640:3646   */\n      dup4\n        /* \"#utility.yul\":3636:3653   */\n      add\n        /* \"#utility.yul\":3632:3659   */\n      slt\n        /* \"#utility.yul\":3622:3744   */\n      tag_123\n      jumpi\n        /* \"#utility.yul\":3663:3742   */\n      tag_124\n      tag_43\n      jump\t// in\n    tag_124:\n        /* \"#utility.yul\":3622:3744   */\n    tag_123:\n        /* \"#utility.yul\":3780:3786   */\n      dup2\n        /* \"#utility.yul\":3767:3787   */\n      calldataload\n        /* \"#utility.yul\":3805:3884   */\n      tag_125\n        /* \"#utility.yul\":3880:3883   */\n      dup5\n        /* \"#utility.yul\":3872:3878   */\n      dup3\n        /* \"#utility.yul\":3865:3869   */\n      0x20\n        /* \"#utility.yul\":3857:3863   */\n      dup7\n        /* \"#utility.yul\":3853:3870   */\n      add\n        /* \"#utility.yul\":3805:3884   */\n      tag_51\n      jump\t// in\n    tag_125:\n        /* \"#utility.yul\":3796:3884   */\n      swap2\n      pop\n        /* \"#utility.yul\":3612:3890   */\n      pop\n        /* \"#utility.yul\":3550:3890   */\n      swap3\n      swap2\n      pop\n      pop\n      jump\t// out\n        /* \"#utility.yul\":3896:4550   */\n    tag_12:\n        /* \"#utility.yul\":3974:3980   */\n      0x00\n        /* \"#utility.yul\":3982:3988   */\n      dup1\n        /* \"#utility.yul\":4031:4033   */\n      0x40\n        /* \"#utility.yul\":4019:4028   */\n      dup4\n        /* \"#utility.yul\":4010:4017   */\n      dup6\n        /* \"#utility.yul\":4006:4029   */\n      sub\n        /* \"#utility.yul\":4002:4034   */\n      slt\n        /* \"#utility.yul\":3999:4118   */\n      iszero\n      tag_127\n      jumpi\n        /* \"#utility.yul\":4037:4116   */\n      tag_128\n      tag_34\n      jump\t// in\n    tag_128:\n        /* \"#utility.yul\":3999:4118   */\n    tag_127:\n        /* \"#utility.yul\":4157:4158   */\n      0x00\n        /* \"#utility.yul\":4182:4235   */\n      tag_129\n        /* \"#utility.yul\":4227:4234   */\n      dup6\n        /* \"#utility.yul\":4218:4224   */\n      dup3\n        /* \"#utility.yul\":4207:4216   */\n      dup7\n        /* \"#utility.yul\":4203:4225   */\n      add\n        /* \"#utility.yul\":4182:4235   */\n      tag_42\n      jump\t// in\n    tag_129:\n        /* \"#utility.yul\":4172:4235   */\n      swap3\n      pop\n        /* \"#utility.yul\":4128:4245   */\n      pop\n        /* \"#utility.yul\":4312:4314   */\n      0x20\n        /* \"#utility.yul\":4301:4310   */\n      dup4\n        /* \"#utility.yul\":4297:4315   */\n      add\n        /* \"#utility.yul\":4284:4316   */\n      calldataload\n        /* \"#utility.yul\":4343:4361   */\n      0xffffffffffffffff\n        /* \"#utility.yul\":4335:4341   */\n      dup2\n        /* \"#utility.yul\":4332:4362   */\n      gt\n        /* \"#utility.yul\":4329:4446   */\n      iszero\n      tag_130\n      jumpi\n        /* \"#utility.yul\":4365:4444   */\n      tag_131\n      tag_35\n      jump\t// in\n    tag_131:\n        /* \"#utility.yul\":4329:4446   */\n    tag_130:\n        /* \"#utility.yul\":4470:4533   */\n      tag_132\n        /* \"#utility.yul\":4525:4532   */\n      dup6\n        /* \"#utility.yul\":4516:4522   */\n      dup3\n        /* \"#utility.yul\":4505:4514   */\n      dup7\n        /* \"#utility.yul\":4501:4523   */\n      add\n        /* \"#utility.yul\":4470:4533   */\n      tag_52\n      jump\t// in\n    tag_132:\n        /* \"#utility.yul\":4460:4533   */\n      swap2\n      pop\n        /* \"#utility.yul\":4255:4543   */\n      pop\n        /* \"#utility.yul\":3896:4550   */\n      swap3\n      pop\n      swap3\n      swap1\n      pop\n      jump\t// out\n        /* \"#utility.yul\":4556:4885   */\n    tag_16:\n        /* \"#utility.yul\":4615:4621   */\n      0x00\n        /* \"#utility.yul\":4664:4666   */\n      0x20\n        /* \"#utility.yul\":4652:4661   */\n      dup3\n        /* \"#utility.yul\":4643:4650   */\n      dup5\n        /* \"#utility.yul\":4639:4662   */\n      sub\n        /* \"#utility.yul\":4635:4667   */\n      slt\n        /* \"#utility.yul\":4632:4751   */\n      iszero\n      tag_134\n      jumpi\n        /* \"#utility.yul\":4670:4749   */\n      tag_135\n      tag_34\n      jump\t// in\n    tag_135:\n        /* \"#utility.yul\":4632:4751   */\n    tag_134:\n        /* \"#utility.yul\":4790:4791   */\n      0x00\n        /* \"#utility.yul\":4815:4868   */\n      tag_136\n        /* \"#utility.yul\":4860:4867   */\n      dup5\n        /* \"#utility.yul\":4851:4857   */\n      dup3\n        /* \"#utility.yul\":4840:4849   */\n      dup6\n        /* \"#utility.yul\":4836:4858   */\n      add\n        /* \"#utility.yul\":4815:4868   */\n      tag_42\n      jump\t// in\n    tag_136:\n        /* \"#utility.yul\":4805:4868   */\n      swap2\n      pop\n        /* \"#utility.yul\":4761:4878   */\n      pop\n        /* \"#utility.yul\":4556:4885   */\n      swap3\n      swap2\n      pop\n      pop\n      jump\t// out\n        /* \"#utility.yul\":4891:5009   */\n    tag_53:\n        /* \"#utility.yul\":4978:5002   */\n      tag_138\n        /* \"#utility.yul\":4996:5001   */\n      dup2\n        /* \"#utility.yul\":4978:5002   */\n      tag_40\n      jump\t// in\n    tag_138:\n        /* \"#utility.yul\":4973:4976   */\n      dup3\n        /* \"#utility.yul\":4966:5003   */\n      mstore\n        /* \"#utility.yul\":4891:5009   */\n      pop\n      pop\n      jump\t// out\n        /* \"#utility.yul\":5015:5114   */\n    tag_54:\n        /* \"#utility.yul\":5067:5073   */\n      0x00\n        /* \"#utility.yul\":5101:5106   */\n      dup2\n        /* \"#utility.yul\":5095:5107   */\n      mload\n        /* \"#utility.yul\":5085:5107   */\n      swap1\n      pop\n        /* \"#utility.yul\":5015:5114   */\n      swap2\n      swap1\n      pop\n      jump\t// out\n        /* \"#utility.yul\":5120:5289   */\n    tag_55:\n        /* \"#utility.yul\":5204:5215   */\n      0x00\n        /* \"#utility.yul\":5238:5244   */\n      dup3\n        /* \"#utility.yul\":5233:5236   */\n      dup3\n        /* \"#utility.yul\":5226:5245   */\n      mstore\n        /* \"#utility.yul\":5278:5282   */\n      0x20\n        /* \"#utility.yul\":5273:5276   */\n      dup3\n        /* \"#utility.yul\":5269:5283   */\n      add\n        /* \"#utility.yul\":5254:5283   */\n      swap1\n      pop\n        /* \"#utility.yul\":5120:5289   */\n      swap3\n      swap2\n      pop\n      pop\n      jump\t// out\n        /* \"#utility.yul\":5295:5541   */\n    tag_56:\n        /* \"#utility.yul\":5376:5377   */\n      0x00\n        /* \"#utility.yul\":5386:5499   */\n    tag_142:\n        /* \"#utility.yul\":5400:5406   */\n      dup4\n        /* \"#utility.yul\":5397:5398   */\n      dup2\n        /* \"#utility.yul\":5394:5407   */\n      lt\n        /* \"#utility.yul\":5386:5499   */\n      iszero\n      tag_144\n      jumpi\n        /* \"#utility.yul\":5485:5486   */\n      dup1\n        /* \"#utility.yul\":5480:5483   */\n      dup3\n        /* \"#utility.yul\":5476:5487   */\n      add\n        /* \"#utility.yul\":5470:5488   */\n      mload\n        /* \"#utility.yul\":5466:5467   */\n      dup2\n        /* \"#utility.yul\":5461:5464   */\n      dup5\n        /* \"#utility.yul\":5457:5468   */\n      add\n        /* \"#utility.yul\":5450:5489   */\n      mstore\n        /* \"#utility.yul\":5422:5424   */\n      0x20\n        /* \"#utility.yul\":5419:5420   */\n      dup2\n        /* \"#utility.yul\":5415:5425   */\n      add\n        /* \"#utility.yul\":5410:5425   */\n      swap1\n      pop\n        /* \"#utility.yul\":5386:5499   */\n      jump(tag_142)\n    tag_144:\n        /* \"#utility.yul\":5533:5534   */\n      0x00\n        /* \"#utility.yul\":5524:5530   */\n      dup5\n        /* \"#utility.yul\":5519:5522   */\n      dup5\n        /* \"#utility.yul\":5515:5531   */\n      add\n        /* \"#utility.yul\":5508:5535   */\n      mstore\n        /* \"#utility.yul\":5357:5541   */\n      pop\n        /* \"#utility.yul\":5295:5541   */\n      pop\n      pop\n      pop\n      jump\t// out\n        /* \"#utility.yul\":5547:5924   */\n    tag_57:\n        /* \"#utility.yul\":5635:5638   */\n      0x00\n        /* \"#utility.yul\":5663:5702   */\n      tag_146\n        /* \"#utility.yul\":5696:5701   */\n      dup3\n        /* \"#utility.yul\":5663:5702   */\n      tag_54\n      jump\t// in\n    tag_146:\n        /* \"#utility.yul\":5718:5789   */\n      tag_147\n        /* \"#utility.yul\":5782:5788   */\n      dup2\n        /* \"#utility.yul\":5777:5780   */\n      dup6\n        /* \"#utility.yul\":5718:5789   */\n      tag_55\n      jump\t// in\n    tag_147:\n        /* \"#utility.yul\":5711:5789   */\n      swap4\n      pop\n        /* \"#utility.yul\":5798:5863   */\n      tag_148\n        /* \"#utility.yul\":5856:5862   */\n      dup2\n        /* \"#utility.yul\":5851:5854   */\n      dup6\n        /* \"#utility.yul\":5844:5848   */\n      0x20\n        /* \"#utility.yul\":5837:5842   */\n      dup7\n        /* \"#utility.yul\":5833:5849   */\n      add\n        /* \"#utility.yul\":5798:5863   */\n      tag_56\n      jump\t// in\n    tag_148:\n        /* \"#utility.yul\":5888:5917   */\n      tag_149\n        /* \"#utility.yul\":5910:5916   */\n      dup2\n        /* \"#utility.yul\":5888:5917   */\n      tag_45\n      jump\t// in\n    tag_149:\n        /* \"#utility.yul\":5883:5886   */\n      dup5\n        /* \"#utility.yul\":5879:5918   */\n      add\n        /* \"#utility.yul\":5872:5918   */\n      swap2\n      pop\n        /* \"#utility.yul\":5639:5924   */\n      pop\n        /* \"#utility.yul\":5547:5924   */\n      swap3\n      swap2\n      pop\n      pop\n      jump\t// out\n        /* \"#utility.yul\":5930:6048   */\n    tag_58:\n        /* \"#utility.yul\":6017:6041   */\n      tag_151\n        /* \"#utility.yul\":6035:6040   */\n      dup2\n        /* \"#utility.yul\":6017:6041   */\n      tag_37\n      jump\t// in\n    tag_151:\n        /* \"#utility.yul\":6012:6015   */\n      dup3\n        /* \"#utility.yul\":6005:6042   */\n      mstore\n        /* \"#utility.yul\":5930:6048   */\n      pop\n      pop\n      jump\t// out\n        /* \"#utility.yul\":6054:6587   */\n    tag_19:\n        /* \"#utility.yul\":6223:6227   */\n      0x00\n        /* \"#utility.yul\":6261:6263   */\n      0x60\n        /* \"#utility.yul\":6250:6259   */\n      dup3\n        /* \"#utility.yul\":6246:6264   */\n      add\n        /* \"#utility.yul\":6238:6264   */\n      swap1\n      pop\n        /* \"#utility.yul\":6274:6345   */\n      tag_153\n        /* \"#utility.yul\":6342:6343   */\n      0x00\n        /* \"#utility.yul\":6331:6340   */\n      dup4\n        /* \"#utility.yul\":6327:6344   */\n      add\n        /* \"#utility.yul\":6318:6324   */\n      dup7\n        /* \"#utility.yul\":6274:6345   */\n      tag_53\n      jump\t// in\n    tag_153:\n        /* \"#utility.yul\":6392:6401   */\n      dup2\n        /* \"#utility.yul\":6386:6390   */\n      dup2\n        /* \"#utility.yul\":6382:6402   */\n      sub\n        /* \"#utility.yul\":6377:6379   */\n      0x20\n        /* \"#utility.yul\":6366:6375   */\n      dup4\n        /* \"#utility.yul\":6362:6380   */\n      add\n        /* \"#utility.yul\":6355:6403   */\n      mstore\n        /* \"#utility.yul\":6420:6498   */\n      tag_154\n        /* \"#utility.yul\":6493:6497   */\n      dup2\n        /* \"#utility.yul\":6484:6490   */\n      dup6\n        /* \"#utility.yul\":6420:6498   */\n      tag_57\n      jump\t// in\n    tag_154:\n        /* \"#utility.yul\":6412:6498   */\n      swap1\n      pop\n        /* \"#utility.yul\":6508:6580   */\n      tag_155\n        /* \"#utility.yul\":6576:6578   */\n      0x40\n        /* \"#utility.yul\":6565:6574   */\n      dup4\n        /* \"#utility.yul\":6561:6579   */\n      add\n        /* \"#utility.yul\":6552:6558   */\n      dup5\n        /* \"#utility.yul\":6508:6580   */\n      tag_58\n      jump\t// in\n    tag_155:\n        /* \"#utility.yul\":6054:6587   */\n      swap5\n      swap4\n      pop\n      pop\n      pop\n      pop\n      jump\t// out\n        /* \"#utility.yul\":6593:6760   */\n    tag_59:\n        /* \"#utility.yul\":6733:6752   */\n      0x796f7520617265206e6f74204f776e6572000000000000000000000000000000\n        /* \"#utility.yul\":6729:6730   */\n      0x00\n        /* \"#utility.yul\":6721:6727   */\n      dup3\n        /* \"#utility.yul\":6717:6731   */\n      add\n        /* \"#utility.yul\":6710:6753   */\n      mstore\n        /* \"#utility.yul\":6593:6760   */\n      pop\n      jump\t// out\n        /* \"#utility.yul\":6766:7132   */\n    tag_60:\n        /* \"#utility.yul\":6908:6911   */\n      0x00\n        /* \"#utility.yul\":6929:6996   */\n      tag_158\n        /* \"#utility.yul\":6993:6995   */\n      0x11\n        /* \"#utility.yul\":6988:6991   */\n      dup4\n        /* \"#utility.yul\":6929:6996   */\n      tag_55\n      jump\t// in\n    tag_158:\n        /* \"#utility.yul\":6922:6996   */\n      swap2\n      pop\n        /* \"#utility.yul\":7005:7098   */\n      tag_159\n        /* \"#utility.yul\":7094:7097   */\n      dup3\n        /* \"#utility.yul\":7005:7098   */\n      tag_59\n      jump\t// in\n    tag_159:\n        /* \"#utility.yul\":7123:7125   */\n      0x20\n        /* \"#utility.yul\":7118:7121   */\n      dup3\n        /* \"#utility.yul\":7114:7126   */\n      add\n        /* \"#utility.yul\":7107:7126   */\n      swap1\n      pop\n        /* \"#utility.yul\":6766:7132   */\n      swap2\n      swap1\n      pop\n      jump\t// out\n        /* \"#utility.yul\":7138:7557   */\n    tag_23:\n        /* \"#utility.yul\":7304:7308   */\n      0x00\n        /* \"#utility.yul\":7342:7344   */\n      0x20\n        /* \"#utility.yul\":7331:7340   */\n      dup3\n        /* \"#utility.yul\":7327:7345   */\n      add\n        /* \"#utility.yul\":7319:7345   */\n      swap1\n      pop\n        /* \"#utility.yul\":7391:7400   */\n      dup2\n        /* \"#utility.yul\":7385:7389   */\n      dup2\n        /* \"#utility.yul\":7381:7401   */\n      sub\n        /* \"#utility.yul\":7377:7378   */\n      0x00\n        /* \"#utility.yul\":7366:7375   */\n      dup4\n        /* \"#utility.yul\":7362:7379   */\n      add\n        /* \"#utility.yul\":7355:7402   */\n      mstore\n        /* \"#utility.yul\":7419:7550   */\n      tag_161\n        /* \"#utility.yul\":7545:7549   */\n      dup2\n        /* \"#utility.yul\":7419:7550   */\n      tag_60\n      jump\t// in\n    tag_161:\n        /* \"#utility.yul\":7411:7550   */\n      swap1\n      pop\n        /* \"#utility.yul\":7138:7557   */\n      swap2\n      swap1\n      pop\n      jump\t// out\n        /* \"#utility.yul\":7563:7743   */\n    tag_61:\n        /* \"#utility.yul\":7611:7688   */\n      0x4e487b7100000000000000000000000000000000000000000000000000000000\n        /* \"#utility.yul\":7608:7609   */\n      0x00\n        /* \"#utility.yul\":7601:7689   */\n      mstore\n        /* \"#utility.yul\":7708:7712   */\n      0x22\n        /* \"#utility.yul\":7705:7706   */\n      0x04\n        /* \"#utility.yul\":7698:7713   */\n      mstore\n        /* \"#utility.yul\":7732:7736   */\n      0x24\n        /* \"#utility.yul\":7729:7730   */\n      0x00\n        /* \"#utility.yul\":7722:7737   */\n      revert\n        /* \"#utility.yul\":7749:8069   */\n    tag_28:\n        /* \"#utility.yul\":7793:7799   */\n      0x00\n        /* \"#utility.yul\":7830:7831   */\n      0x02\n        /* \"#utility.yul\":7824:7828   */\n      dup3\n        /* \"#utility.yul\":7820:7832   */\n      div\n        /* \"#utility.yul\":7810:7832   */\n      swap1\n      pop\n        /* \"#utility.yul\":7877:7878   */\n      0x01\n        /* \"#utility.yul\":7871:7875   */\n      dup3\n        /* \"#utility.yul\":7867:7879   */\n      and\n        /* \"#utility.yul\":7898:7916   */\n      dup1\n        /* \"#utility.yul\":7888:7969   */\n      tag_164\n      jumpi\n        /* \"#utility.yul\":7954:7958   */\n      0x7f\n        /* \"#utility.yul\":7946:7952   */\n      dup3\n        /* \"#utility.yul\":7942:7959   */\n      and\n        /* \"#utility.yul\":7932:7959   */\n      swap2\n      pop\n        /* \"#utility.yul\":7888:7969   */\n    tag_164:\n        /* \"#utility.yul\":8016:8018   */\n      0x20\n        /* \"#utility.yul\":8008:8014   */\n      dup3\n        /* \"#utility.yul\":8005:8019   */\n      lt\n        /* \"#utility.yul\":7985:8003   */\n      dup2\n        /* \"#utility.yul\":7982:8020   */\n      sub\n        /* \"#utility.yul\":7979:8063   */\n      tag_165\n      jumpi\n        /* \"#utility.yul\":8035:8053   */\n      tag_166\n      tag_61\n      jump\t// in\n    tag_166:\n        /* \"#utility.yul\":7979:8063   */\n    tag_165:\n        /* \"#utility.yul\":7800:8069   */\n      pop\n        /* \"#utility.yul\":7749:8069   */\n      swap2\n      swap1\n      pop\n      jump\t// out\n        /* \"#utility.yul\":8075:8216   */\n    tag_62:\n        /* \"#utility.yul\":8124:8128   */\n      0x00\n        /* \"#utility.yul\":8147:8150   */\n      dup2\n        /* \"#utility.yul\":8139:8150   */\n      swap1\n      pop\n        /* \"#utility.yul\":8170:8173   */\n      dup2\n        /* \"#utility.yul\":8167:8168   */\n      0x00\n        /* \"#utility.yul\":8160:8174   */\n      mstore\n        /* \"#utility.yul\":8204:8208   */\n      0x20\n        /* \"#utility.yul\":8201:8202   */\n      0x00\n        /* \"#utility.yul\":8191:8209   */\n      keccak256\n        /* \"#utility.yul\":8183:8209   */\n      swap1\n      pop\n        /* \"#utility.yul\":8075:8216   */\n      swap2\n      swap1\n      pop\n      jump\t// out\n        /* \"#utility.yul\":8222:8315   */\n    tag_63:\n        /* \"#utility.yul\":8259:8265   */\n      0x00\n        /* \"#utility.yul\":8306:8308   */\n      0x20\n        /* \"#utility.yul\":8301:8303   */\n      0x1f\n        /* \"#utility.yul\":8294:8299   */\n      dup4\n        /* \"#utility.yul\":8290:8304   */\n      add\n        /* \"#utility.yul\":8286:8309   */\n      div\n        /* \"#utility.yul\":8276:8309   */\n      swap1\n      pop\n        /* \"#utility.yul\":8222:8315   */\n      swap2\n      swap1\n      pop\n      jump\t// out\n        /* \"#utility.yul\":8321:8428   */\n    tag_64:\n        /* \"#utility.yul\":8365:8373   */\n      0x00\n        /* \"#utility.yul\":8415:8420   */\n      dup3\n        /* \"#utility.yul\":8409:8413   */\n      dup3\n        /* \"#utility.yul\":8405:8421   */\n      shl\n        /* \"#utility.yul\":8384:8421   */\n      swap1\n      pop\n        /* \"#utility.yul\":8321:8428   */\n      swap3\n      swap2\n      pop\n      pop\n      jump\t// out\n        /* \"#utility.yul\":8434:8827   */\n    tag_65:\n        /* \"#utility.yul\":8503:8509   */\n      0x00\n        /* \"#utility.yul\":8553:8554   */\n      0x08\n        /* \"#utility.yul\":8541:8551   */\n      dup4\n        /* \"#utility.yul\":8537:8555   */\n      mul\n        /* \"#utility.yul\":8576:8673   */\n      tag_171\n        /* \"#utility.yul\":8606:8672   */\n      0xffffffffffffffffffffffffffffffffffffffffffffffffffffffffffffffff\n        /* \"#utility.yul\":8595:8604   */\n      dup3\n        /* \"#utility.yul\":8576:8673   */\n      tag_64\n      jump\t// in\n    tag_171:\n        /* \"#utility.yul\":8694:8733   */\n      tag_172\n        /* \"#utility.yul\":8724:8732   */\n      dup7\n        /* \"#utility.yul\":8713:8722   */\n      dup4\n        /* \"#utility.yul\":8694:8733   */\n      tag_64\n      jump\t// in\n    tag_172:\n        /* \"#utility.yul\":8682:8733   */\n      swap6\n      pop\n        /* \"#utility.yul\":8766:8770   */\n      dup1\n        /* \"#utility.yul\":8762:8771   */\n      not\n        /* \"#utility.yul\":8755:8760   */\n      dup5\n        /* \"#utility.yul\":8751:8772   */\n      and\n        /* \"#utility.yul\":8742:8772   */\n      swap4\n      pop\n        /* \"#utility.yul\":8815:8819   */\n      dup1\n        /* \"#utility.yul\":8805:8813   */\n      dup7\n        /* \"#utility.yul\":8801:8820   */\n      and\n        /* \"#utility.yul\":8794:8799   */\n      dup5\n        /* \"#utility.yul\":8791:8821   */\n      or\n        /* \"#utility.yul\":8781:8821   */\n      swap3\n      pop\n        /* \"#utility.yul\":8510:8827   */\n      pop\n      pop\n        /* \"#utility.yul\":8434:8827   */\n      swap4\n      swap3\n      pop\n      pop\n      pop\n      jump\t// out\n        /* \"#utility.yul\":8833:8893   */\n    tag_66:\n        /* \"#utility.yul\":8861:8864   */\n      0x00\n        /* \"#utility.yul\":8882:8887   */\n      dup2\n        /* \"#utility.yul\":8875:8887   */\n      swap1\n      pop\n        /* \"#utility.yul\":8833:8893   */\n      swap2\n      swap1\n      pop\n      jump\t// out\n        /* \"#utility.yul\":8899:9041   */\n    tag_67:\n        /* \"#utility.yul\":8949:8958   */\n      0x00\n        /* \"#utility.yul\":8982:9035   */\n      tag_175\n        /* \"#utility.yul\":9000:9034   */\n      tag_176\n        /* \"#utility.yul\":9009:9033   */\n      tag_177\n        /* \"#utility.yul\":9027:9032   */\n      dup5\n        /* \"#utility.yul\":9009:9033   */\n      tag_40\n      jump\t// in\n    tag_177:\n        /* \"#utility.yul\":9000:9034   */\n      tag_66\n      jump\t// in\n    tag_176:\n        /* \"#utility.yul\":8982:9035   */\n      tag_40\n      jump\t// in\n    tag_175:\n        /* \"#utility.yul\":8969:9035   */\n      swap1\n      pop\n        /* \"#utility.yul\":8899:9041   */\n      swap2\n      swap1\n      pop\n      jump\t// out\n        /* \"#utility.yul\":9047:9122   */\n    tag_68:\n        /* \"#utility.yul\":9090:9093   */\n      0x00\n        /* \"#utility.yul\":9111:9116   */\n      dup2\n        /* \"#utility.yul\":9104:9116   */\n      swap1\n      pop\n        /* \"#utility.yul\":9047:9122   */\n      swap2\n      swap1\n      pop\n      jump\t// out\n        /* \"#utility.yul\":9128:9397   */\n    tag_69:\n        /* \"#utility.yul\":9238:9277   */\n      tag_180\n        /* \"#utility.yul\":9269:9276   */\n      dup4\n        /* \"#utility.yul\":9238:9277   */\n      tag_67\n      jump\t// in\n    tag_180:\n        /* \"#utility.yul\":9299:9390   */\n      tag_181\n        /* \"#utility.yul\":9348:9389   */\n      tag_182\n        /* \"#utility.yul\":9372:9388   */\n      dup3\n        /* \"#utility.yul\":9348:9389   */\n      tag_68\n      jump\t// in\n    tag_182:\n        /* \"#utility.yul\":9340:9346   */\n      dup5\n        /* \"#utility.yul\":9333:9337   */\n      dup5\n        /* \"#utility.yul\":9327:9338   */\n      sload\n        /* \"#utility.yul\":9299:9390   */\n      tag_65\n      jump\t// in\n    tag_181:\n        /* \"#utility.yul\":9293:9297   */\n      dup3\n        /* \"#utility.yul\":9286:9391   */\n      sstore\n        /* \"#utility.yul\":9204:9397   */\n      pop\n        /* \"#utility.yul\":9128:9397   */\n      pop\n      pop\n      pop\n      jump\t// out\n        /* \"#utility.yul\":9403:9476   */\n    tag_70:\n        /* \"#utility.yul\":9448:9451   */\n      0x00\n        /* \"#utility.yul\":9403:9476   */\n      swap1\n      jump\t// out\n        /* \"#utility.yul\":9482:9671   */\n    tag_71:\n        /* \"#utility.yul\":9559:9591   */\n      tag_185\n      tag_70\n      jump\t// in\n    tag_185:\n        /* \"#utility.yul\":9600:9665   */\n      tag_186\n        /* \"#utility.yul\":9658:9664   */\n      dup2\n        /* \"#utility.yul\":9650:9656   */\n      dup5\n        /* \"#utility.yul\":9644:9648   */\n      dup5\n        /* \"#utility.yul\":9600:9665   */\n      tag_69\n      jump\t// in\n    tag_186:\n        /* \"#utility.yul\":9535:9671   */\n      pop\n        /* \"#utility.yul\":9482:9671   */\n      pop\n      pop\n      jump\t// out\n        /* \"#utility.yul\":9677:9863   */\n    tag_72:\n        /* \"#utility.yul\":9737:9857   */\n    tag_188:\n        /* \"#utility.yul\":9754:9757   */\n      dup2\n        /* \"#utility.yul\":9747:9752   */\n      dup2\n        /* \"#utility.yul\":9744:9758   */\n      lt\n        /* \"#utility.yul\":9737:9857   */\n      iszero\n      tag_190\n      jumpi\n        /* \"#utility.yul\":9808:9847   */\n      tag_191\n        /* \"#utility.yul\":9845:9846   */\n      0x00\n        /* \"#utility.yul\":9838:9843   */\n      dup3\n        /* \"#utility.yul\":9808:9847   */\n      tag_71\n      jump\t// in\n    tag_191:\n        /* \"#utility.yul\":9781:9782   */\n      0x01\n        /* \"#utility.yul\":9774:9779   */\n      dup2\n        /* \"#utility.yul\":9770:9783   */\n      add\n        /* \"#utility.yul\":9761:9783   */\n      swap1\n      pop\n        /* \"#utility.yul\":9737:9857   */\n      jump(tag_188)\n    tag_190:\n        /* \"#utility.yul\":9677:9863   */\n      pop\n      pop\n      jump\t// out\n        /* \"#utility.yul\":9869:10412   */\n    tag_73:\n        /* \"#utility.yul\":9970:9972   */\n      0x1f\n        /* \"#utility.yul\":9965:9968   */\n      dup3\n        /* \"#utility.yul\":9962:9973   */\n      gt\n        /* \"#utility.yul\":9959:10405   */\n      iszero\n      tag_193\n      jumpi\n        /* \"#utility.yul\":10004:10042   */\n      tag_194\n        /* \"#utility.yul\":10036:10041   */\n      dup2\n        /* \"#utility.yul\":10004:10042   */\n      tag_62\n      jump\t// in\n    tag_194:\n        /* \"#utility.yul\":10088:10117   */\n      tag_195\n        /* \"#utility.yul\":10106:10116   */\n      dup5\n        /* \"#utility.yul\":10088:10117   */\n      tag_63\n      jump\t// in\n    tag_195:\n        /* \"#utility.yul\":10078:10086   */\n      dup2\n        /* \"#utility.yul\":10074:10118   */\n      add\n        /* \"#utility.yul\":10271:10273   */\n      0x20\n        /* \"#utility.yul\":10259:10269   */\n      dup6\n        /* \"#utility.yul\":10256:10274   */\n      lt\n        /* \"#utility.yul\":10253:10302   */\n      iszero\n      tag_196\n      jumpi\n        /* \"#utility.yul\":10292:10300   */\n      dup2\n        /* \"#utility.yul\":10277:10300   */\n      swap1\n      pop\n        /* \"#utility.yul\":10253:10302   */\n    tag_196:\n        /* \"#utility.yul\":10315:10395   */\n      tag_197\n        /* \"#utility.yul\":10371:10393   */\n      tag_198\n        /* \"#utility.yul\":10389:10392   */\n      dup6\n        /* \"#utility.yul\":10371:10393   */\n      tag_63\n      jump\t// in\n    tag_198:\n        /* \"#utility.yul\":10361:10369   */\n      dup4\n        /* \"#utility.yul\":10357:10394   */\n      add\n        /* \"#utility.yul\":10344:10355   */\n      dup3\n        /* \"#utility.yul\":10315:10395   */\n      tag_72\n      jump\t// in\n    tag_197:\n        /* \"#utility.yul\":9974:10405   */\n      pop\n      pop\n        /* \"#utility.yul\":9959:10405   */\n    tag_193:\n        /* \"#utility.yul\":9869:10412   */\n      pop\n      pop\n      pop\n      jump\t// out\n        /* \"#utility.yul\":10418:10535   */\n    tag_74:\n        /* \"#utility.yul\":10472:10480   */\n      0x00\n        /* \"#utility.yul\":10522:10527   */\n      dup3\n        /* \"#utility.yul\":10516:10520   */\n      dup3\n        /* \"#utility.yul\":10512:10528   */\n      shr\n        /* \"#utility.yul\":10491:10528   */\n      swap1\n      pop\n        /* \"#utility.yul\":10418:10535   */\n      swap3\n      swap2\n      pop\n      pop\n      jump\t// out\n        /* \"#utility.yul\":10541:10710   */\n    tag_75:\n        /* \"#utility.yul\":10585:10591   */\n      0x00\n        /* \"#utility.yul\":10618:10669   */\n      tag_201\n        /* \"#utility.yul\":10666:10667   */\n      0x00\n        /* \"#utility.yul\":10662:10668   */\n      not\n        /* \"#utility.yul\":10654:10659   */\n      dup5\n        /* \"#utility.yul\":10651:10652   */\n      0x08\n        /* \"#utility.yul\":10647:10660   */\n      mul\n        /* \"#utility.yul\":10618:10669   */\n      tag_74\n      jump\t// in\n    tag_201:\n        /* \"#utility.yul\":10614:10670   */\n      not\n        /* \"#utility.yul\":10699:10703   */\n      dup1\n        /* \"#utility.yul\":10693:10697   */\n      dup4\n        /* \"#utility.yul\":10689:10704   */\n      and\n        /* \"#utility.yul\":10679:10704   */\n      swap2\n      pop\n        /* \"#utility.yul\":10592:10710   */\n      pop\n        /* \"#utility.yul\":10541:10710   */\n      swap3\n      swap2\n      pop\n      pop\n      jump\t// out\n        /* \"#utility.yul\":10715:11010   */\n    tag_76:\n        /* \"#utility.yul\":10791:10795   */\n      0x00\n        /* \"#utility.yul\":10937:10966   */\n      tag_203\n        /* \"#utility.yul\":10962:10965   */\n      dup4\n        /* \"#utility.yul\":10956:10960   */\n      dup4\n        /* \"#utility.yul\":10937:10966   */\n      tag_75\n      jump\t// in\n    tag_203:\n        /* \"#utility.yul\":10929:10966   */\n      swap2\n      pop\n        /* \"#utility.yul\":10999:11002   */\n      dup3\n        /* \"#utility.yul\":10996:10997   */\n      0x02\n        /* \"#utility.yul\":10992:11003   */\n      mul\n        /* \"#utility.yul\":10986:10990   */\n      dup3\n        /* \"#utility.yul\":10983:11004   */\n      or\n        /* \"#utility.yul\":10975:11004   */\n      swap1\n      pop\n        /* \"#utility.yul\":10715:11010   */\n      swap3\n      swap2\n      pop\n      pop\n      jump\t// out\n        /* \"#utility.yul\":11015:12410   */\n    tag_26:\n        /* \"#utility.yul\":11132:11169   */\n      tag_205\n        /* \"#utility.yul\":11165:11168   */\n      dup3\n        /* \"#utility.yul\":11132:11169   */\n      tag_54\n      jump\t// in\n    tag_205:\n        /* \"#utility.yul\":11234:11252   */\n      0xffffffffffffffff\n        /* \"#utility.yul\":11226:11232   */\n      dup2\n        /* \"#utility.yul\":11223:11253   */\n      gt\n        /* \"#utility.yul\":11220:11276   */\n      iszero\n      tag_206\n      jumpi\n        /* \"#utility.yul\":11256:11274   */\n      tag_207\n      tag_46\n      jump\t// in\n    tag_207:\n        /* \"#utility.yul\":11220:11276   */\n    tag_206:\n        /* \"#utility.yul\":11300:11338   */\n      tag_208\n        /* \"#utility.yul\":11332:11336   */\n      dup3\n        /* \"#utility.yul\":11326:11337   */\n      sload\n        /* \"#utility.yul\":11300:11338   */\n      tag_28\n      jump\t// in\n    tag_208:\n        /* \"#utility.yul\":11385:11452   */\n      tag_209\n        /* \"#utility.yul\":11445:11451   */\n      dup3\n        /* \"#utility.yul\":11437:11443   */\n      dup3\n        /* \"#utility.yul\":11431:11435   */\n      dup6\n        /* \"#utility.yul\":11385:11452   */\n      tag_73\n      jump\t// in\n    tag_209:\n        /* \"#utility.yul\":11479:11480   */\n      0x00\n        /* \"#utility.yul\":11503:11507   */\n      0x20\n        /* \"#utility.yul\":11490:11507   */\n      swap1\n      pop\n        /* \"#utility.yul\":11535:11537   */\n      0x1f\n        /* \"#utility.yul\":11527:11533   */\n      dup4\n        /* \"#utility.yul\":11524:11538   */\n      gt\n        /* \"#utility.yul\":11552:11553   */\n      0x01\n        /* \"#utility.yul\":11547:12165   */\n      dup2\n      eq\n      tag_211\n      jumpi\n        /* \"#utility.yul\":12209:12210   */\n      0x00\n        /* \"#utility.yul\":12226:12232   */\n      dup5\n        /* \"#utility.yul\":12223:12300   */\n      iszero\n      tag_212\n      jumpi\n        /* \"#utility.yul\":12275:12284   */\n      dup3\n        /* \"#utility.yul\":12270:12273   */\n      dup8\n        /* \"#utility.yul\":12266:12285   */\n      add\n        /* \"#utility.yul\":12260:12286   */\n      mload\n        /* \"#utility.yul\":12251:12286   */\n      swap1\n      pop\n        /* \"#utility.yul\":12223:12300   */\n    tag_212:\n        /* \"#utility.yul\":12326:12393   */\n      tag_213\n        /* \"#utility.yul\":12386:12392   */\n      dup6\n        /* \"#utility.yul\":12379:12384   */\n      dup3\n        /* \"#utility.yul\":12326:12393   */\n      tag_76\n      jump\t// in\n    tag_213:\n        /* \"#utility.yul\":12320:12324   */\n      dup7\n        /* \"#utility.yul\":12313:12394   */\n      sstore\n        /* \"#utility.yul\":12182:12404   */\n      pop\n        /* \"#utility.yul\":11517:12404   */\n      jump(tag_210)\n        /* \"#utility.yul\":11547:12165   */\n    tag_211:\n        /* \"#utility.yul\":11599:11603   */\n      0x1f\n        /* \"#utility.yul\":11595:11604   */\n      not\n        /* \"#utility.yul\":11587:11593   */\n      dup5\n        /* \"#utility.yul\":11583:11605   */\n      and\n        /* \"#utility.yul\":11633:11670   */\n      tag_214\n        /* \"#utility.yul\":11665:11669   */\n      dup7\n        /* \"#utility.yul\":11633:11670   */\n      tag_62\n      jump\t// in\n    tag_214:\n        /* \"#utility.yul\":11692:11693   */\n      0x00\n        /* \"#utility.yul\":11706:11914   */\n    tag_215:\n        /* \"#utility.yul\":11720:11727   */\n      dup3\n        /* \"#utility.yul\":11717:11718   */\n      dup2\n        /* \"#utility.yul\":11714:11728   */\n      lt\n        /* \"#utility.yul\":11706:11914   */\n      iszero\n      tag_217\n      jumpi\n        /* \"#utility.yul\":11799:11808   */\n      dup5\n        /* \"#utility.yul\":11794:11797   */\n      dup10\n        /* \"#utility.yul\":11790:11809   */\n      add\n        /* \"#utility.yul\":11784:11810   */\n      mload\n        /* \"#utility.yul\":11776:11782   */\n      dup3\n        /* \"#utility.yul\":11769:11811   */\n      sstore\n        /* \"#utility.yul\":11850:11851   */\n      0x01\n        /* \"#utility.yul\":11842:11848   */\n      dup3\n        /* \"#utility.yul\":11838:11852   */\n      add\n        /* \"#utility.yul\":11828:11852   */\n      swap2\n      pop\n        /* \"#utility.yul\":11897:11899   */\n      0x20\n        /* \"#utility.yul\":11886:11895   */\n      dup6\n        /* \"#utility.yul\":11882:11900   */\n      add\n        /* \"#utility.yul\":11869:11900   */\n      swap5\n      pop\n        /* \"#utility.yul\":11743:11747   */\n      0x20\n        /* \"#utility.yul\":11740:11741   */\n      dup2\n        /* \"#utility.yul\":11736:11748   */\n      add\n        /* \"#utility.yul\":11731:11748   */\n      swap1\n      pop\n        /* \"#utility.yul\":11706:11914   */\n      jump(tag_215)\n    tag_217:\n        /* \"#utility.yul\":11942:11948   */\n      dup7\n        /* \"#utility.yul\":11933:11940   */\n      dup4\n        /* \"#utility.yul\":11930:11949   */\n      lt\n        /* \"#utility.yul\":11927:12106   */\n      iszero\n      tag_218\n      jumpi\n        /* \"#utility.yul\":12000:12009   */\n      dup5\n        /* \"#utility.yul\":11995:11998   */\n      dup10\n        /* \"#utility.yul\":11991:12010   */\n      add\n        /* \"#utility.yul\":11985:12011   */\n      mload\n        /* \"#utility.yul\":12043:12091   */\n      tag_219\n        /* \"#utility.yul\":12085:12089   */\n      0x1f\n        /* \"#utility.yul\":12077:12083   */\n      dup10\n        /* \"#utility.yul\":12073:12090   */\n      and\n        /* \"#utility.yul\":12062:12071   */\n      dup3\n        /* \"#utility.yul\":12043:12091   */\n      tag_75\n      jump\t// in\n    tag_219:\n        /* \"#utility.yul\":12035:12041   */\n      dup4\n        /* \"#utility.yul\":12028:12092   */\n      sstore\n        /* \"#utility.yul\":11950:12106   */\n      pop\n        /* \"#utility.yul\":11927:12106   */\n    tag_218:\n        /* \"#utility.yul\":12152:12153   */\n      0x01\n        /* \"#utility.yul\":12148:12149   */\n      0x02\n        /* \"#utility.yul\":12140:12146   */\n      dup9\n        /* \"#utility.yul\":12136:12150   */\n      mul\n        /* \"#utility.yul\":12132:12154   */\n      add\n        /* \"#utility.yul\":12126:12130   */\n      dup9\n        /* \"#utility.yul\":12119:12155   */\n      sstore\n        /* \"#utility.yul\":11554:12165   */\n      pop\n      pop\n      pop\n        /* \"#utility.yul\":11517:12404   */\n    tag_210:\n      pop\n        /* \"#utility.yul\":11107:12410   */\n      pop\n      pop\n      pop\n        /* \"#utility.yul\":11015:12410   */\n      pop\n      pop\n      jump\t// out\n\n    auxdata: 0xa2646970667358221220c90610dde59ee188d7df9cfd45997ca6c3fe5ea30efff5db2e5f3c18825add4664736f6c63430008180033\n}\n",
				"bytecode": {
					"linkReferences": {},
					"object": "608060405234801561000f575f80fd5b506109f08061001d5f395ff3fe608060405234801561000f575f80fd5b506004361061003f575f3560e01c80630a276680146100435780632e6673171461005f578063dba3f6aa1461007b575b5f80fd5b61005d600480360381019061005891906103b6565b6100ad565b005b61007960048036038101906100749190610530565b6101a2565b005b6100956004803603810190610090919061058a565b61024e565b6040516100a49392919061064d565b60405180910390f35b5f808281526020019081526020015f206002015f9054906101000a900473ffffffffffffffffffffffffffffffffffffffff1673ffffffffffffffffffffffffffffffffffffffff163373ffffffffffffffffffffffffffffffffffffffff161461014d576040517f08c379a0000000000000000000000000000000000000000000000000000000008152600401610144906106d3565b60405180910390fd5b815f808381526020019081526020015f206002015f6101000a81548173ffffffffffffffffffffffffffffffffffffffff021916908373ffffffffffffffffffffffffffffffffffffffff1602179055505050565b60405180606001604052808381526020018281526020013373ffffffffffffffffffffffffffffffffffffffff168152505f808481526020019081526020015f205f820151815f0155602082015181600101908161020091906108eb565b506040820151816002015f6101000a81548173ffffffffffffffffffffffffffffffffffffffff021916908373ffffffffffffffffffffffffffffffffffffffff1602179055509050505050565b5f602052805f5260405f205f91509050805f0154908060010180546102729061071e565b80601f016020809104026020016040519081016040528092919081815260200182805461029e9061071e565b80156102e95780601f106102c0576101008083540402835291602001916102e9565b820191905f5260205f20905b8154815290600101906020018083116102cc57829003601f168201915b505050505090806002015f9054906101000a900473ffffffffffffffffffffffffffffffffffffffff16905083565b5f604051905090565b5f80fd5b5f80fd5b5f73ffffffffffffffffffffffffffffffffffffffff82169050919050565b5f61035282610329565b9050919050565b61036281610348565b811461036c575f80fd5b50565b5f8135905061037d81610359565b92915050565b5f819050919050565b61039581610383565b811461039f575f80fd5b50565b5f813590506103b08161038c565b92915050565b5f80604083850312156103cc576103cb610321565b5b5f6103d98582860161036f565b92505060206103ea858286016103a2565b9150509250929050565b5f80fd5b5f80fd5b5f601f19601f8301169050919050565b7f4e487b71000000000000000000000000000000000000000000000000000000005f52604160045260245ffd5b610442826103fc565b810181811067ffffffffffffffff821117156104615761046061040c565b5b80604052505050565b5f610473610318565b905061047f8282610439565b919050565b5f67ffffffffffffffff82111561049e5761049d61040c565b5b6104a7826103fc565b9050602081019050919050565b828183375f83830152505050565b5f6104d46104cf84610484565b61046a565b9050828152602081018484840111156104f0576104ef6103f8565b5b6104fb8482856104b4565b509392505050565b5f82601f830112610517576105166103f4565b5b81356105278482602086016104c2565b91505092915050565b5f806040838503121561054657610545610321565b5b5f610553858286016103a2565b925050602083013567ffffffffffffffff81111561057457610573610325565b5b61058085828601610503565b9150509250929050565b5f6020828403121561059f5761059e610321565b5b5f6105ac848285016103a2565b91505092915050565b6105be81610383565b82525050565b5f81519050919050565b5f82825260208201905092915050565b5f5b838110156105fb5780820151818401526020810190506105e0565b5f8484015250505050565b5f610610826105c4565b61061a81856105ce565b935061062a8185602086016105de565b610633816103fc565b840191505092915050565b61064781610348565b82525050565b5f6060820190506106605f8301866105b5565b81810360208301526106728185610606565b9050610681604083018461063e565b949350505050565b7f796f7520617265206e6f74204f776e65720000000000000000000000000000005f82015250565b5f6106bd6011836105ce565b91506106c882610689565b602082019050919050565b5f6020820190508181035f8301526106ea816106b1565b9050919050565b7f4e487b71000000000000000000000000000000000000000000000000000000005f52602260045260245ffd5b5f600282049050600182168061073557607f821691505b602082108103610748576107476106f1565b5b50919050565b5f819050815f5260205f209050919050565b5f6020601f8301049050919050565b5f82821b905092915050565b5f600883026107aa7fffffffffffffffffffffffffffffffffffffffffffffffffffffffffffffffff8261076f565b6107b4868361076f565b95508019841693508086168417925050509392505050565b5f819050919050565b5f6107ef6107ea6107e584610383565b6107cc565b610383565b9050919050565b5f819050919050565b610808836107d5565b61081c610814826107f6565b84845461077b565b825550505050565b5f90565b610830610824565b61083b8184846107ff565b505050565b5b8181101561085e576108535f82610828565b600181019050610841565b5050565b601f8211156108a3576108748161074e565b61087d84610760565b8101602085101561088c578190505b6108a061089885610760565b830182610840565b50505b505050565b5f82821c905092915050565b5f6108c35f19846008026108a8565b1980831691505092915050565b5f6108db83836108b4565b9150826002028217905092915050565b6108f4826105c4565b67ffffffffffffffff81111561090d5761090c61040c565b5b610917825461071e565b610922828285610862565b5f60209050601f831160018114610953575f8415610941578287015190505b61094b85826108d0565b8655506109b2565b601f1984166109618661074e565b5f5b8281101561098857848901518255600182019150602085019450602081019050610963565b868310156109a557848901516109a1601f8916826108b4565b8355505b6001600288020188555050505b50505050505056fea2646970667358221220c90610dde59ee188d7df9cfd45997ca6c3fe5ea30efff5db2e5f3c18825add4664736f6c63430008180033",
					"opcodes": "PUSH1 0x80 PUSH1 0x40 MSTORE CALLVALUE DUP1 ISZERO PUSH2 0xF JUMPI PUSH0 DUP1 REVERT JUMPDEST POP PUSH2 0x9F0 DUP1 PUSH2 0x1D PUSH0 CODECOPY PUSH0 RETURN INVALID PUSH1 0x80 PUSH1 0x40 MSTORE CALLVALUE DUP1 ISZERO PUSH2 0xF JUMPI PUSH0 DUP1 REVERT JUMPDEST POP PUSH1 0x4 CALLDATASIZE LT PUSH2 0x3F JUMPI PUSH0 CALLDATALOAD PUSH1 0xE0 SHR DUP1 PUSH4 0xA276680 EQ PUSH2 0x43 JUMPI DUP1 PUSH4 0x2E667317 EQ PUSH2 0x5F JUMPI DUP1 PUSH4 0xDBA3F6AA EQ PUSH2 0x7B JUMPI JUMPDEST PUSH0 DUP1 REVERT JUMPDEST PUSH2 0x5D PUSH1 0x4 DUP1 CALLDATASIZE SUB DUP2 ADD SWAP1 PUSH2 0x58 SWAP2 SWAP1 PUSH2 0x3B6 JUMP JUMPDEST PUSH2 0xAD JUMP JUMPDEST STOP JUMPDEST PUSH2 0x79 PUSH1 0x4 DUP1 CALLDATASIZE SUB DUP2 ADD SWAP1 PUSH2 0x74 SWAP2 SWAP1 PUSH2 0x530 JUMP JUMPDEST PUSH2 0x1A2 JUMP JUMPDEST STOP JUMPDEST PUSH2 0x95 PUSH1 0x4 DUP1 CALLDATASIZE SUB DUP2 ADD SWAP1 PUSH2 0x90 SWAP2 SWAP1 PUSH2 0x58A JUMP JUMPDEST PUSH2 0x24E JUMP JUMPDEST PUSH1 0x40 MLOAD PUSH2 0xA4 SWAP4 SWAP3 SWAP2 SWAP1 PUSH2 0x64D JUMP JUMPDEST PUSH1 0x40 MLOAD DUP1 SWAP2 SUB SWAP1 RETURN JUMPDEST PUSH0 DUP1 DUP3 DUP2 MSTORE PUSH1 0x20 ADD SWAP1 DUP2 MSTORE PUSH1 0x20 ADD PUSH0 KECCAK256 PUSH1 0x2 ADD PUSH0 SWAP1 SLOAD SWAP1 PUSH2 0x100 EXP SWAP1 DIV PUSH20 0xFFFFFFFFFFFFFFFFFFFFFFFFFFFFFFFFFFFFFFFF AND PUSH20 0xFFFFFFFFFFFFFFFFFFFFFFFFFFFFFFFFFFFFFFFF AND CALLER PUSH20 0xFFFFFFFFFFFFFFFFFFFFFFFFFFFFFFFFFFFFFFFF AND EQ PUSH2 0x14D JUMPI PUSH1 0x40 MLOAD PUSH32 0x8C379A000000000000000000000000000000000000000000000000000000000 DUP2 MSTORE PUSH1 0x4 ADD PUSH2 0x144 SWAP1 PUSH2 0x6D3 JUMP JUMPDEST PUSH1 0x40 MLOAD DUP1 SWAP2 SUB SWAP1 REVERT JUMPDEST DUP2 PUSH0 DUP1 DUP4 DUP2 MSTORE PUSH1 0x20 ADD SWAP1 DUP2 MSTORE PUSH1 0x20 ADD PUSH0 KECCAK256 PUSH1 0x2 ADD PUSH0 PUSH2 0x100 EXP DUP2 SLOAD DUP2 PUSH20 0xFFFFFFFFFFFFFFFFFFFFFFFFFFFFFFFFFFFFFFFF MUL NOT AND SWAP1 DUP4 PUSH20 0xFFFFFFFFFFFFFFFFFFFFFFFFFFFFFFFFFFFFFFFF AND MUL OR SWAP1 SSTORE POP POP POP JUMP JUMPDEST PUSH1 0x40 MLOAD DUP1 PUSH1 0x60 ADD PUSH1 0x40 MSTORE DUP1 DUP4 DUP2 MSTORE PUSH1 0x20 ADD DUP3 DUP2 MSTORE PUSH1 0x20 ADD CALLER PUSH20 0xFFFFFFFFFFFFFFFFFFFFFFFFFFFFFFFFFFFFFFFF AND DUP2 MSTORE POP PUSH0 DUP1 DUP5 DUP2 MSTORE PUSH1 0x20 ADD SWAP1 DUP2 MSTORE PUSH1 0x20 ADD PUSH0 KECCAK256 PUSH0 DUP3 ADD MLOAD DUP2 PUSH0 ADD SSTORE PUSH1 0x20 DUP3 ADD MLOAD DUP2 PUSH1 0x1 ADD SWAP1 DUP2 PUSH2 0x200 SWAP2 SWAP1 PUSH2 0x8EB JUMP JUMPDEST POP PUSH1 0x40 DUP3 ADD MLOAD DUP2 PUSH1 0x2 ADD PUSH0 PUSH2 0x100 EXP DUP2 SLOAD DUP2 PUSH20 0xFFFFFFFFFFFFFFFFFFFFFFFFFFFFFFFFFFFFFFFF MUL NOT AND SWAP1 DUP4 PUSH20 0xFFFFFFFFFFFFFFFFFFFFFFFFFFFFFFFFFFFFFFFF AND MUL OR SWAP1 SSTORE POP SWAP1 POP POP POP POP JUMP JUMPDEST PUSH0 PUSH1 0x20 MSTORE DUP1 PUSH0 MSTORE PUSH1 0x40 PUSH0 KECCAK256 PUSH0 SWAP2 POP SWAP1 POP DUP1 PUSH0 ADD SLOAD SWAP1 DUP1 PUSH1 0x1 ADD DUP1 SLOAD PUSH2 0x272 SWAP1 PUSH2 0x71E JUMP JUMPDEST DUP1 PUSH1 0x1F ADD PUSH1 0x20 DUP1 SWAP2 DIV MUL PUSH1 0x20 ADD PUSH1 0x40 MLOAD SWAP1 DUP2 ADD PUSH1 0x40 MSTORE DUP1 SWAP3 SWAP2 SWAP1 DUP2 DUP2 MSTORE PUSH1 0x20 ADD DUP3 DUP1 SLOAD PUSH2 0x29E SWAP1 PUSH2 0x71E JUMP JUMPDEST DUP1 ISZERO PUSH2 0x2E9 JUMPI DUP1 PUSH1 0x1F LT PUSH2 0x2C0 JUMPI PUSH2 0x100 DUP1 DUP4 SLOAD DIV MUL DUP4 MSTORE SWAP2 PUSH1 0x20 ADD SWAP2 PUSH2 0x2E9 JUMP JUMPDEST DUP3 ADD SWAP2 SWAP1 PUSH0 MSTORE PUSH1 0x20 PUSH0 KECCAK256 SWAP1 JUMPDEST DUP2 SLOAD DUP2 MSTORE SWAP1 PUSH1 0x1 ADD SWAP1 PUSH1 0x20 ADD DUP1 DUP4 GT PUSH2 0x2CC JUMPI DUP3 SWAP1 SUB PUSH1 0x1F AND DUP3 ADD SWAP2 JUMPDEST POP POP POP POP POP SWAP1 DUP1 PUSH1 0x2 ADD PUSH0 SWAP1 SLOAD SWAP1 PUSH2 0x100 EXP SWAP1 DIV PUSH20 0xFFFFFFFFFFFFFFFFFFFFFFFFFFFFFFFFFFFFFFFF AND SWAP1 POP DUP4 JUMP JUMPDEST PUSH0 PUSH1 0x40 MLOAD SWAP1 POP SWAP1 JUMP JUMPDEST PUSH0 DUP1 REVERT JUMPDEST PUSH0 DUP1 REVERT JUMPDEST PUSH0 PUSH20 0xFFFFFFFFFFFFFFFFFFFFFFFFFFFFFFFFFFFFFFFF DUP3 AND SWAP1 POP SWAP2 SWAP1 POP JUMP JUMPDEST PUSH0 PUSH2 0x352 DUP3 PUSH2 0x329 JUMP JUMPDEST SWAP1 POP SWAP2 SWAP1 POP JUMP JUMPDEST PUSH2 0x362 DUP2 PUSH2 0x348 JUMP JUMPDEST DUP2 EQ PUSH2 0x36C JUMPI PUSH0 DUP1 REVERT JUMPDEST POP JUMP JUMPDEST PUSH0 DUP2 CALLDATALOAD SWAP1 POP PUSH2 0x37D DUP2 PUSH2 0x359 JUMP JUMPDEST SWAP3 SWAP2 POP POP JUMP JUMPDEST PUSH0 DUP2 SWAP1 POP SWAP2 SWAP1 POP JUMP JUMPDEST PUSH2 0x395 DUP2 PUSH2 0x383 JUMP JUMPDEST DUP2 EQ PUSH2 0x39F JUMPI PUSH0 DUP1 REVERT JUMPDEST POP JUMP JUMPDEST PUSH0 DUP2 CALLDATALOAD SWAP1 POP PUSH2 0x3B0 DUP2 PUSH2 0x38C JUMP JUMPDEST SWAP3 SWAP2 POP POP JUMP JUMPDEST PUSH0 DUP1 PUSH1 0x40 DUP4 DUP6 SUB SLT ISZERO PUSH2 0x3CC JUMPI PUSH2 0x3CB PUSH2 0x321 JUMP JUMPDEST JUMPDEST PUSH0 PUSH2 0x3D9 DUP6 DUP3 DUP7 ADD PUSH2 0x36F JUMP JUMPDEST SWAP3 POP POP PUSH1 0x20 PUSH2 0x3EA DUP6 DUP3 DUP7 ADD PUSH2 0x3A2 JUMP JUMPDEST SWAP2 POP POP SWAP3 POP SWAP3 SWAP1 POP JUMP JUMPDEST PUSH0 DUP1 REVERT JUMPDEST PUSH0 DUP1 REVERT JUMPDEST PUSH0 PUSH1 0x1F NOT PUSH1 0x1F DUP4 ADD AND SWAP1 POP SWAP2 SWAP1 POP JUMP JUMPDEST PUSH32 0x4E487B7100000000000000000000000000000000000000000000000000000000 PUSH0 MSTORE PUSH1 0x41 PUSH1 0x4 MSTORE PUSH1 0x24 PUSH0 REVERT JUMPDEST PUSH2 0x442 DUP3 PUSH2 0x3FC JUMP JUMPDEST DUP2 ADD DUP2 DUP2 LT PUSH8 0xFFFFFFFFFFFFFFFF DUP3 GT OR ISZERO PUSH2 0x461 JUMPI PUSH2 0x460 PUSH2 0x40C JUMP JUMPDEST JUMPDEST DUP1 PUSH1 0x40 MSTORE POP POP POP JUMP JUMPDEST PUSH0 PUSH2 0x473 PUSH2 0x318 JUMP JUMPDEST SWAP1 POP PUSH2 0x47F DUP3 DUP3 PUSH2 0x439 JUMP JUMPDEST SWAP2 SWAP1 POP JUMP JUMPDEST PUSH0 PUSH8 0xFFFFFFFFFFFFFFFF DUP3 GT ISZERO PUSH2 0x49E JUMPI PUSH2 0x49D PUSH2 0x40C JUMP JUMPDEST JUMPDEST PUSH2 0x4A7 DUP3 PUSH2 0x3FC JUMP JUMPDEST SWAP1 POP PUSH1 0x20 DUP2 ADD SWAP1 POP SWAP2 SWAP1 POP JUMP JUMPDEST DUP3 DUP2 DUP4 CALLDATACOPY PUSH0 DUP4 DUP4 ADD MSTORE POP POP POP JUMP JUMPDEST PUSH0 PUSH2 0x4D4 PUSH2 0x4CF DUP5 PUSH2 0x484 JUMP JUMPDEST PUSH2 0x46A JUMP JUMPDEST SWAP1 POP DUP3 DUP2 MSTORE PUSH1 0x20 DUP2 ADD DUP5 DUP5 DUP5 ADD GT ISZERO PUSH2 0x4F0 JUMPI PUSH2 0x4EF PUSH2 0x3F8 JUMP JUMPDEST JUMPDEST PUSH2 0x4FB DUP5 DUP3 DUP6 PUSH2 0x4B4 JUMP JUMPDEST POP SWAP4 SWAP3 POP POP POP JUMP JUMPDEST PUSH0 DUP3 PUSH1 0x1F DUP4 ADD SLT PUSH2 0x517 JUMPI PUSH2 0x516 PUSH2 0x3F4 JUMP JUMPDEST JUMPDEST DUP2 CALLDATALOAD PUSH2 0x527 DUP5 DUP3 PUSH1 0x20 DUP7 ADD PUSH2 0x4C2 JUMP JUMPDEST SWAP2 POP POP SWAP3 SWAP2 POP POP JUMP JUMPDEST PUSH0 DUP1 PUSH1 0x40 DUP4 DUP6 SUB SLT ISZERO PUSH2 0x546 JUMPI PUSH2 0x545 PUSH2 0x321 JUMP JUMPDEST JUMPDEST PUSH0 PUSH2 0x553 DUP6 DUP3 DUP7 ADD PUSH2 0x3A2 JUMP JUMPDEST SWAP3 POP POP PUSH1 0x20 DUP4 ADD CALLDATALOAD PUSH8 0xFFFFFFFFFFFFFFFF DUP2 GT ISZERO PUSH2 0x574 JUMPI PUSH2 0x573 PUSH2 0x325 JUMP JUMPDEST JUMPDEST PUSH2 0x580 DUP6 DUP3 DUP7 ADD PUSH2 0x503 JUMP JUMPDEST SWAP2 POP POP SWAP3 POP SWAP3 SWAP1 POP JUMP JUMPDEST PUSH0 PUSH1 0x20 DUP3 DUP5 SUB SLT ISZERO PUSH2 0x59F JUMPI PUSH2 0x59E PUSH2 0x321 JUMP JUMPDEST JUMPDEST PUSH0 PUSH2 0x5AC DUP5 DUP3 DUP6 ADD PUSH2 0x3A2 JUMP JUMPDEST SWAP2 POP POP SWAP3 SWAP2 POP POP JUMP JUMPDEST PUSH2 0x5BE DUP2 PUSH2 0x383 JUMP JUMPDEST DUP3 MSTORE POP POP JUMP JUMPDEST PUSH0 DUP2 MLOAD SWAP1 POP SWAP2 SWAP1 POP JUMP JUMPDEST PUSH0 DUP3 DUP3 MSTORE PUSH1 0x20 DUP3 ADD SWAP1 POP SWAP3 SWAP2 POP POP JUMP JUMPDEST PUSH0 JUMPDEST DUP4 DUP2 LT ISZERO PUSH2 0x5FB JUMPI DUP1 DUP3 ADD MLOAD DUP2 DUP5 ADD MSTORE PUSH1 0x20 DUP2 ADD SWAP1 POP PUSH2 0x5E0 JUMP JUMPDEST PUSH0 DUP5 DUP5 ADD MSTORE POP POP POP POP JUMP JUMPDEST PUSH0 PUSH2 0x610 DUP3 PUSH2 0x5C4 JUMP JUMPDEST PUSH2 0x61A DUP2 DUP6 PUSH2 0x5CE JUMP JUMPDEST SWAP4 POP PUSH2 0x62A DUP2 DUP6 PUSH1 0x20 DUP7 ADD PUSH2 0x5DE JUMP JUMPDEST PUSH2 0x633 DUP2 PUSH2 0x3FC JUMP JUMPDEST DUP5 ADD SWAP2 POP POP SWAP3 SWAP2 POP POP JUMP JUMPDEST PUSH2 0x647 DUP2 PUSH2 0x348 JUMP JUMPDEST DUP3 MSTORE POP POP JUMP JUMPDEST PUSH0 PUSH1 0x60 DUP3 ADD SWAP1 POP PUSH2 0x660 PUSH0 DUP4 ADD DUP7 PUSH2 0x5B5 JUMP JUMPDEST DUP2 DUP2 SUB PUSH1 0x20 DUP4 ADD MSTORE PUSH2 0x672 DUP2 DUP6 PUSH2 0x606 JUMP JUMPDEST SWAP1 POP PUSH2 0x681 PUSH1 0x40 DUP4 ADD DUP5 PUSH2 0x63E JUMP JUMPDEST SWAP5 SWAP4 POP POP POP POP JUMP JUMPDEST PUSH32 0x796F7520617265206E6F74204F776E6572000000000000000000000000000000 PUSH0 DUP3 ADD MSTORE POP JUMP JUMPDEST PUSH0 PUSH2 0x6BD PUSH1 0x11 DUP4 PUSH2 0x5CE JUMP JUMPDEST SWAP2 POP PUSH2 0x6C8 DUP3 PUSH2 0x689 JUMP JUMPDEST PUSH1 0x20 DUP3 ADD SWAP1 POP SWAP2 SWAP1 POP JUMP JUMPDEST PUSH0 PUSH1 0x20 DUP3 ADD SWAP1 POP DUP2 DUP2 SUB PUSH0 DUP4 ADD MSTORE PUSH2 0x6EA DUP2 PUSH2 0x6B1 JUMP JUMPDEST SWAP1 POP SWAP2 SWAP1 POP JUMP JUMPDEST PUSH32 0x4E487B7100000000000000000000000000000000000000000000000000000000 PUSH0 MSTORE PUSH1 0x22 PUSH1 0x4 MSTORE PUSH1 0x24 PUSH0 REVERT JUMPDEST PUSH0 PUSH1 0x2 DUP3 DIV SWAP1 POP PUSH1 0x1 DUP3 AND DUP1 PUSH2 0x735 JUMPI PUSH1 0x7F DUP3 AND SWAP2 POP JUMPDEST PUSH1 0x20 DUP3 LT DUP2 SUB PUSH2 0x748 JUMPI PUSH2 0x747 PUSH2 0x6F1 JUMP JUMPDEST JUMPDEST POP SWAP2 SWAP1 POP JUMP JUMPDEST PUSH0 DUP2 SWAP1 POP DUP2 PUSH0 MSTORE PUSH1 0x20 PUSH0 KECCAK256 SWAP1 POP SWAP2 SWAP1 POP JUMP JUMPDEST PUSH0 PUSH1 0x20 PUSH1 0x1F DUP4 ADD DIV SWAP1 POP SWAP2 SWAP1 POP JUMP JUMPDEST PUSH0 DUP3 DUP3 SHL SWAP1 POP SWAP3 SWAP2 POP POP JUMP JUMPDEST PUSH0 PUSH1 0x8 DUP4 MUL PUSH2 0x7AA PUSH32 0xFFFFFFFFFFFFFFFFFFFFFFFFFFFFFFFFFFFFFFFFFFFFFFFFFFFFFFFFFFFFFFFF DUP3 PUSH2 0x76F JUMP JUMPDEST PUSH2 0x7B4 DUP7 DUP4 PUSH2 0x76F JUMP JUMPDEST SWAP6 POP DUP1 NOT DUP5 AND SWAP4 POP DUP1 DUP7 AND DUP5 OR SWAP3 POP POP POP SWAP4 SWAP3 POP POP POP JUMP JUMPDEST PUSH0 DUP2 SWAP1 POP SWAP2 SWAP1 POP JUMP JUMPDEST PUSH0 PUSH2 0x7EF PUSH2 0x7EA PUSH2 0x7E5 DUP5 PUSH2 0x383 JUMP JUMPDEST PUSH2 0x7CC JUMP JUMPDEST PUSH2 0x383 JUMP JUMPDEST SWAP1 POP SWAP2 SWAP1 POP JUMP JUMPDEST PUSH0 DUP2 SWAP1 POP SWAP2 SWAP1 POP JUMP JUMPDEST PUSH2 0x808 DUP4 PUSH2 0x7D5 JUMP JUMPDEST PUSH2 0x81C PUSH2 0x814 DUP3 PUSH2 0x7F6 JUMP JUMPDEST DUP5 DUP5 SLOAD PUSH2 0x77B JUMP JUMPDEST DUP3 SSTORE POP POP POP POP JUMP JUMPDEST PUSH0 SWAP1 JUMP JUMPDEST PUSH2 0x830 PUSH2 0x824 JUMP JUMPDEST PUSH2 0x83B DUP2 DUP5 DUP5 PUSH2 0x7FF JUMP JUMPDEST POP POP POP JUMP JUMPDEST JUMPDEST DUP2 DUP2 LT ISZERO PUSH2 0x85E JUMPI PUSH2 0x853 PUSH0 DUP3 PUSH2 0x828 JUMP JUMPDEST PUSH1 0x1 DUP2 ADD SWAP1 POP PUSH2 0x841 JUMP JUMPDEST POP POP JUMP JUMPDEST PUSH1 0x1F DUP3 GT ISZERO PUSH2 0x8A3 JUMPI PUSH2 0x874 DUP2 PUSH2 0x74E JUMP JUMPDEST PUSH2 0x87D DUP5 PUSH2 0x760 JUMP JUMPDEST DUP2 ADD PUSH1 0x20 DUP6 LT ISZERO PUSH2 0x88C JUMPI DUP2 SWAP1 POP JUMPDEST PUSH2 0x8A0 PUSH2 0x898 DUP6 PUSH2 0x760 JUMP JUMPDEST DUP4 ADD DUP3 PUSH2 0x840 JUMP JUMPDEST POP POP JUMPDEST POP POP POP JUMP JUMPDEST PUSH0 DUP3 DUP3 SHR SWAP1 POP SWAP3 SWAP2 POP POP JUMP JUMPDEST PUSH0 PUSH2 0x8C3 PUSH0 NOT DUP5 PUSH1 0x8 MUL PUSH2 0x8A8 JUMP JUMPDEST NOT DUP1 DUP4 AND SWAP2 POP POP SWAP3 SWAP2 POP POP JUMP JUMPDEST PUSH0 PUSH2 0x8DB DUP4 DUP4 PUSH2 0x8B4 JUMP JUMPDEST SWAP2 POP DUP3 PUSH1 0x2 MUL DUP3 OR SWAP1 POP SWAP3 SWAP2 POP POP JUMP JUMPDEST PUSH2 0x8F4 DUP3 PUSH2 0x5C4 JUMP JUMPDEST PUSH8 0xFFFFFFFFFFFFFFFF DUP2 GT ISZERO PUSH2 0x90D JUMPI PUSH2 0x90C PUSH2 0x40C JUMP JUMPDEST JUMPDEST PUSH2 0x917 DUP3 SLOAD PUSH2 0x71E JUMP JUMPDEST PUSH2 0x922 DUP3 DUP3 DUP6 PUSH2 0x862 JUMP JUMPDEST PUSH0 PUSH1 0x20 SWAP1 POP PUSH1 0x1F DUP4 GT PUSH1 0x1 DUP2 EQ PUSH2 0x953 JUMPI PUSH0 DUP5 ISZERO PUSH2 0x941 JUMPI DUP3 DUP8 ADD MLOAD SWAP1 POP JUMPDEST PUSH2 0x94B DUP6 DUP3 PUSH2 0x8D0 JUMP JUMPDEST DUP7 SSTORE POP PUSH2 0x9B2 JUMP JUMPDEST PUSH1 0x1F NOT DUP5 AND PUSH2 0x961 DUP7 PUSH2 0x74E JUMP JUMPDEST PUSH0 JUMPDEST DUP3 DUP2 LT ISZERO PUSH2 0x988 JUMPI DUP5 DUP10 ADD MLOAD DUP3 SSTORE PUSH1 0x1 DUP3 ADD SWAP2 POP PUSH1 0x20 DUP6 ADD SWAP5 POP PUSH1 0x20 DUP2 ADD SWAP1 POP PUSH2 0x963 JUMP JUMPDEST DUP7 DUP4 LT ISZERO PUSH2 0x9A5 JUMPI DUP5 DUP10 ADD MLOAD PUSH2 0x9A1 PUSH1 0x1F DUP10 AND DUP3 PUSH2 0x8B4 JUMP JUMPDEST DUP4 SSTORE POP JUMPDEST PUSH1 0x1 PUSH1 0x2 DUP9 MUL ADD DUP9 SSTORE POP POP POP JUMPDEST POP POP POP POP POP POP JUMP INVALID LOG2 PUSH5 0x6970667358 0x22 SLT KECCAK256 0xC9 MOD LT 0xDD 0xE5 SWAP15 0xE1 DUP9 0xD7 0xDF SWAP13 REVERT GASLIMIT SWAP10 PUSH29 0xA6C3FE5EA30EFFF5DB2E5F3C18825ADD4664736F6C6343000818003300 "
				},
				"gasEstimates": {
					"creation": {
						"codeDepositCost": "508800",
						"executionCost": "541",
						"totalCost": "509341"
					},
					"external": {
						"Products(uint256)": "infinite",
						"productRegistration(uint256,string)": "infinite",
						"transferOwnership(address,uint256)": "27197"
					}
				},
				"methodIdentifiers": {
					"Products(uint256)": "dba3f6aa",
					"productRegistration(uint256,string)": "2e667317",
					"transferOwnership(address,uint256)": "0a276680"
				}
			},
			"storageLayout": {
				"storage": [
					{
						"astId": 13,
						"contract": "contracts/ClassWork/5productOwnership.sol:productRegistry",
						"label": "Products",
						"offset": 0,
						"slot": "0",
						"type": "t_mapping(t_uint256,t_struct(Product)8_storage)"
					}
				],
				"types": {
					"t_address": {
						"encoding": "inplace",
						"label": "address",
						"numberOfBytes": "20"
					},
					"t_mapping(t_uint256,t_struct(Product)8_storage)": {
						"encoding": "mapping",
						"key": "t_uint256",
						"label": "mapping(uint256 => struct productRegistry.Product)",
						"numberOfBytes": "32",
						"value": "t_struct(Product)8_storage"
					},
					"t_string_storage": {
						"encoding": "bytes",
						"label": "string",
						"numberOfBytes": "32"
					},
					"t_struct(Product)8_storage": {
						"encoding": "inplace",
						"label": "struct productRegistry.Product",
						"members": [
							{
								"astId": 3,
								"contract": "contracts/ClassWork/5productOwnership.sol:productRegistry",
								"label": "pId",
								"offset": 0,
								"slot": "0",
								"type": "t_uint256"
							},
							{
								"astId": 5,
								"contract": "contracts/ClassWork/5productOwnership.sol:productRegistry",
								"label": "productName",
								"offset": 0,
								"slot": "1",
								"type": "t_string_storage"
							},
							{
								"astId": 7,
								"contract": "contracts/ClassWork/5productOwnership.sol:productRegistry",
								"label": "currentOwner",
								"offset": 0,
								"slot": "2",
								"type": "t_address"
							}
						],
						"numberOfBytes": "96"
					},
					"t_uint256": {
						"encoding": "inplace",
						"label": "uint256",
						"numberOfBytes": "32"
					}
				}
			},
			"userdoc": {
				"kind": "user",
				"methods": {},
				"version": 1
			}
		}
	}
}