{
	"contracts/ClassWork/practice_2.sol": {
		"DataTypes": {
			"abi": [
				{
					"inputs": [
						{
							"internalType": "address",
							"name": "",
							"type": "address"
						}
					],
					"name": "balances",
					"outputs": [
						{
							"internalType": "uint256",
							"name": "",
							"type": "uint256"
						}
					],
					"stateMutability": "view",
					"type": "function"
				},
				{
					"inputs": [],
					"name": "isTrue",
					"outputs": [
						{
							"internalType": "bool",
							"name": "",
							"type": "bool"
						}
					],
					"stateMutability": "view",
					"type": "function"
				},
				{
					"inputs": [],
					"name": "negativeNumber",
					"outputs": [
						{
							"internalType": "int256",
							"name": "",
							"type": "int256"
						}
					],
					"stateMutability": "view",
					"type": "function"
				},
				{
					"inputs": [],
					"name": "number",
					"outputs": [
						{
							"internalType": "uint256",
							"name": "",
							"type": "uint256"
						}
					],
					"stateMutability": "view",
					"type": "function"
				},
				{
					"inputs": [
						{
							"internalType": "uint256",
							"name": "",
							"type": "uint256"
						}
					],
					"name": "numberArray",
					"outputs": [
						{
							"internalType": "uint256",
							"name": "",
							"type": "uint256"
						}
					],
					"stateMutability": "view",
					"type": "function"
				},
				{
					"inputs": [],
					"name": "person",
					"outputs": [
						{
							"internalType": "string",
							"name": "name",
							"type": "string"
						},
						{
							"internalType": "uint256",
							"name": "age",
							"type": "uint256"
						}
					],
					"stateMutability": "view",
					"type": "function"
				},
				{
					"inputs": [],
					"name": "setData",
					"outputs": [],
					"stateMutability": "nonpayable",
					"type": "function"
				},
				{
					"inputs": [],
					"name": "smallNumber",
					"outputs": [
						{
							"internalType": "uint8",
							"name": "",
							"type": "uint8"
						}
					],
					"stateMutability": "view",
					"type": "function"
				},
				{
					"inputs": [],
					"name": "userAddress",
					"outputs": [
						{
							"internalType": "address",
							"name": "",
							"type": "address"
						}
					],
					"stateMutability": "view",
					"type": "function"
				}
			],
			"devdoc": {
				"kind": "dev",
				"methods": {},
				"version": 1
			},
			"evm": {
				"assembly": "    /* \"contracts/ClassWork/practice_2.sol\":60:848  contract DataTypes {... */\n  mstore(0x40, 0x80)\n  callvalue\n  dup1\n  iszero\n  tag_1\n  jumpi\n  0x00\n  dup1\n  revert\ntag_1:\n  pop\n  dataSize(sub_0)\n  dup1\n  dataOffset(sub_0)\n  0x00\n  codecopy\n  0x00\n  return\nstop\n\nsub_0: assembly {\n        /* \"contracts/ClassWork/practice_2.sol\":60:848  contract DataTypes {... */\n      mstore(0x40, 0x80)\n      callvalue\n      dup1\n      iszero\n      tag_1\n      jumpi\n      0x00\n      dup1\n      revert\n    tag_1:\n      pop\n      jumpi(tag_2, lt(calldatasize, 0x04))\n      shr(0xe0, calldataload(0x00))\n      dup1\n      0x77ec2b55\n      gt\n      tag_12\n      jumpi\n      dup1\n      0x77ec2b55\n      eq\n      tag_7\n      jumpi\n      dup1\n      0x8381f58a\n      eq\n      tag_8\n      jumpi\n      dup1\n      0xaca20a5b\n      eq\n      tag_9\n      jumpi\n      dup1\n      0xe4128fb3\n      eq\n      tag_10\n      jumpi\n      dup1\n      0xf31604c7\n      eq\n      tag_11\n      jumpi\n      jump(tag_2)\n    tag_12:\n      dup1\n      0x74530a\n      eq\n      tag_3\n      jumpi\n      dup1\n      0x27e235e3\n      eq\n      tag_4\n      jumpi\n      dup1\n      0x6670cde0\n      eq\n      tag_5\n      jumpi\n      dup1\n      0x723a62ac\n      eq\n      tag_6\n      jumpi\n    tag_2:\n      0x00\n      dup1\n      revert\n        /* \"contracts/ClassWork/practice_2.sol\":115:133  bool public isTrue */\n    tag_3:\n      tag_13\n      tag_14\n      jump\t// in\n    tag_13:\n      mload(0x40)\n      tag_15\n      swap2\n      swap1\n      tag_16\n      jump\t// in\n    tag_15:\n      mload(0x40)\n      dup1\n      swap2\n      sub\n      swap1\n      return\n        /* \"contracts/ClassWork/practice_2.sol\":440:480  mapping(address => uint) public balances */\n    tag_4:\n      tag_17\n      0x04\n      dup1\n      calldatasize\n      sub\n      dup2\n      add\n      swap1\n      tag_18\n      swap2\n      swap1\n      tag_19\n      jump\t// in\n    tag_18:\n      tag_20\n      jump\t// in\n    tag_17:\n      mload(0x40)\n      tag_21\n      swap2\n      swap1\n      tag_22\n      jump\t// in\n    tag_21:\n      mload(0x40)\n      dup1\n      swap2\n      sub\n      swap1\n      return\n        /* \"contracts/ClassWork/practice_2.sol\":238:262  uint8 public smallNumber */\n    tag_5:\n      tag_23\n      tag_24\n      jump\t// in\n    tag_23:\n      mload(0x40)\n      tag_25\n      swap2\n      swap1\n      tag_26\n      jump\t// in\n    tag_25:\n      mload(0x40)\n      dup1\n      swap2\n      sub\n      swap1\n      return\n        /* \"contracts/ClassWork/practice_2.sol\":300:325  uint[] public numberArray */\n    tag_6:\n      tag_27\n      0x04\n      dup1\n      calldatasize\n      sub\n      dup2\n      add\n      swap1\n      tag_28\n      swap2\n      swap1\n      tag_29\n      jump\t// in\n    tag_28:\n      tag_30\n      jump\t// in\n    tag_27:\n      mload(0x40)\n      tag_31\n      swap2\n      swap1\n      tag_22\n      jump\t// in\n    tag_31:\n      mload(0x40)\n      dup1\n      swap2\n      sub\n      swap1\n      return\n        /* \"contracts/ClassWork/practice_2.sol\":411:431  Person public person */\n    tag_7:\n      tag_32\n      tag_33\n      jump\t// in\n    tag_32:\n      mload(0x40)\n      tag_34\n      swap3\n      swap2\n      swap1\n      tag_35\n      jump\t// in\n    tag_34:\n      mload(0x40)\n      dup1\n      swap2\n      sub\n      swap1\n      return\n        /* \"contracts/ClassWork/practice_2.sol\":142:160  uint public number */\n    tag_8:\n      tag_36\n      tag_37\n      jump\t// in\n    tag_36:\n      mload(0x40)\n      tag_38\n      swap2\n      swap1\n      tag_22\n      jump\t// in\n    tag_38:\n      mload(0x40)\n      dup1\n      swap2\n      sub\n      swap1\n      return\n        /* \"contracts/ClassWork/practice_2.sol\":169:194  int public negativeNumber */\n    tag_9:\n      tag_39\n      tag_40\n      jump\t// in\n    tag_39:\n      mload(0x40)\n      tag_41\n      swap2\n      swap1\n      tag_42\n      jump\t// in\n    tag_41:\n      mload(0x40)\n      dup1\n      swap2\n      sub\n      swap1\n      return\n        /* \"contracts/ClassWork/practice_2.sol\":203:229  address public userAddress */\n    tag_10:\n      tag_43\n      tag_44\n      jump\t// in\n    tag_43:\n      mload(0x40)\n      tag_45\n      swap2\n      swap1\n      tag_46\n      jump\t// in\n    tag_45:\n      mload(0x40)\n      dup1\n      swap2\n      sub\n      swap1\n      return\n        /* \"contracts/ClassWork/practice_2.sol\":527:843  function setData() public {... */\n    tag_11:\n      tag_47\n      tag_48\n      jump\t// in\n    tag_47:\n      stop\n        /* \"contracts/ClassWork/practice_2.sol\":115:133  bool public isTrue */\n    tag_14:\n      0x00\n      dup1\n      sload\n      swap1\n      0x0100\n      exp\n      swap1\n      div\n      0xff\n      and\n      dup2\n      jump\t// out\n        /* \"contracts/ClassWork/practice_2.sol\":440:480  mapping(address => uint) public balances */\n    tag_20:\n      mstore(0x20, 0x07)\n      dup1\n      0x00\n      mstore\n      keccak256(0x00, 0x40)\n      0x00\n      swap2\n      pop\n      swap1\n      pop\n      sload\n      dup2\n      jump\t// out\n        /* \"contracts/ClassWork/practice_2.sol\":238:262  uint8 public smallNumber */\n    tag_24:\n      0x03\n      0x14\n      swap1\n      sload\n      swap1\n      0x0100\n      exp\n      swap1\n      div\n      0xff\n      and\n      dup2\n      jump\t// out\n        /* \"contracts/ClassWork/practice_2.sol\":300:325  uint[] public numberArray */\n    tag_30:\n      0x04\n      dup2\n      dup2\n      sload\n      dup2\n      lt\n      tag_49\n      jumpi\n      0x00\n      dup1\n      revert\n    tag_49:\n      swap1\n      0x00\n      mstore\n      keccak256(0x00, 0x20)\n      add\n      0x00\n      swap2\n      pop\n      swap1\n      pop\n      sload\n      dup2\n      jump\t// out\n        /* \"contracts/ClassWork/practice_2.sol\":411:431  Person public person */\n    tag_33:\n      0x05\n      dup1\n      0x00\n      add\n      dup1\n      sload\n      tag_51\n      swap1\n      tag_52\n      jump\t// in\n    tag_51:\n      dup1\n      0x1f\n      add\n      0x20\n      dup1\n      swap2\n      div\n      mul\n      0x20\n      add\n      mload(0x40)\n      swap1\n      dup2\n      add\n      0x40\n      mstore\n      dup1\n      swap3\n      swap2\n      swap1\n      dup2\n      dup2\n      mstore\n      0x20\n      add\n      dup3\n      dup1\n      sload\n      tag_53\n      swap1\n      tag_52\n      jump\t// in\n    tag_53:\n      dup1\n      iszero\n      tag_54\n      jumpi\n      dup1\n      0x1f\n      lt\n      tag_55\n      jumpi\n      0x0100\n      dup1\n      dup4\n      sload\n      div\n      mul\n      dup4\n      mstore\n      swap2\n      0x20\n      add\n      swap2\n      jump(tag_54)\n    tag_55:\n      dup3\n      add\n      swap2\n      swap1\n      0x00\n      mstore\n      keccak256(0x00, 0x20)\n      swap1\n    tag_56:\n      dup2\n      sload\n      dup2\n      mstore\n      swap1\n      0x01\n      add\n      swap1\n      0x20\n      add\n      dup1\n      dup4\n      gt\n      tag_56\n      jumpi\n      dup3\n      swap1\n      sub\n      0x1f\n      and\n      dup3\n      add\n      swap2\n    tag_54:\n      pop\n      pop\n      pop\n      pop\n      pop\n      swap1\n      dup1\n      0x01\n      add\n      sload\n      swap1\n      pop\n      dup3\n      jump\t// out\n        /* \"contracts/ClassWork/practice_2.sol\":142:160  uint public number */\n    tag_37:\n      sload(0x01)\n      dup2\n      jump\t// out\n        /* \"contracts/ClassWork/practice_2.sol\":169:194  int public negativeNumber */\n    tag_40:\n      sload(0x02)\n      dup2\n      jump\t// out\n        /* \"contracts/ClassWork/practice_2.sol\":203:229  address public userAddress */\n    tag_44:\n      0x03\n      0x00\n      swap1\n      sload\n      swap1\n      0x0100\n      exp\n      swap1\n      div\n      0xffffffffffffffffffffffffffffffffffffffff\n      and\n      dup2\n      jump\t// out\n        /* \"contracts/ClassWork/practice_2.sol\":527:843  function setData() public {... */\n    tag_48:\n        /* \"contracts/ClassWork/practice_2.sol\":575:579  true */\n      0x01\n        /* \"contracts/ClassWork/practice_2.sol\":566:572  isTrue */\n      0x00\n      dup1\n        /* \"contracts/ClassWork/practice_2.sol\":566:579  isTrue = true */\n      0x0100\n      exp\n      dup2\n      sload\n      dup2\n      0xff\n      mul\n      not\n      and\n      swap1\n      dup4\n      iszero\n      iszero\n      mul\n      or\n      swap1\n      sstore\n      pop\n        /* \"contracts/ClassWork/practice_2.sol\":601:603  42 */\n      0x2a\n        /* \"contracts/ClassWork/practice_2.sol\":592:598  number */\n      0x01\n        /* \"contracts/ClassWork/practice_2.sol\":592:603  number = 42 */\n      dup2\n      swap1\n      sstore\n      pop\n        /* \"contracts/ClassWork/practice_2.sol\":633:636  -10 */\n      0xfffffffffffffffffffffffffffffffffffffffffffffffffffffffffffffff6\n        /* \"contracts/ClassWork/practice_2.sol\":616:630  negativeNumber */\n      0x02\n        /* \"contracts/ClassWork/practice_2.sol\":616:636  negativeNumber = -10 */\n      dup2\n      swap1\n      sstore\n      pop\n        /* \"contracts/ClassWork/practice_2.sol\":663:673  msg.sender */\n      caller\n        /* \"contracts/ClassWork/practice_2.sol\":649:660  userAddress */\n      0x03\n      0x00\n        /* \"contracts/ClassWork/practice_2.sol\":649:673  userAddress = msg.sender */\n      0x0100\n      exp\n      dup2\n      sload\n      dup2\n      0xffffffffffffffffffffffffffffffffffffffff\n      mul\n      not\n      and\n      swap1\n      dup4\n      0xffffffffffffffffffffffffffffffffffffffff\n      and\n      mul\n      or\n      swap1\n      sstore\n      pop\n        /* \"contracts/ClassWork/practice_2.sol\":700:701  5 */\n      0x05\n        /* \"contracts/ClassWork/practice_2.sol\":686:697  smallNumber */\n      0x03\n      0x14\n        /* \"contracts/ClassWork/practice_2.sol\":686:701  smallNumber = 5 */\n      0x0100\n      exp\n      dup2\n      sload\n      dup2\n      0xff\n      mul\n      not\n      and\n      swap1\n      dup4\n      0xff\n      and\n      mul\n      or\n      swap1\n      sstore\n      pop\n        /* \"contracts/ClassWork/practice_2.sol\":719:742  numberArray = [1, 2, 3] */\n      mload(0x40)\n      dup1\n      0x60\n      add\n      0x40\n      mstore\n      dup1\n        /* \"contracts/ClassWork/practice_2.sol\":734:735  1 */\n      0x01\n        /* \"contracts/ClassWork/practice_2.sol\":719:742  numberArray = [1, 2, 3] */\n      0xff\n      and\n      dup2\n      mstore\n      0x20\n      add\n        /* \"contracts/ClassWork/practice_2.sol\":737:738  2 */\n      0x02\n        /* \"contracts/ClassWork/practice_2.sol\":719:742  numberArray = [1, 2, 3] */\n      0xff\n      and\n      dup2\n      mstore\n      0x20\n      add\n        /* \"contracts/ClassWork/practice_2.sol\":740:741  3 */\n      0x03\n        /* \"contracts/ClassWork/practice_2.sol\":719:742  numberArray = [1, 2, 3] */\n      0xff\n      and\n      dup2\n      mstore\n      pop\n        /* \"contracts/ClassWork/practice_2.sol\":719:730  numberArray */\n      0x04\n        /* \"contracts/ClassWork/practice_2.sol\":719:742  numberArray = [1, 2, 3] */\n      swap1\n      0x03\n      tag_58\n      swap3\n      swap2\n      swap1\n      tag_59\n      jump\t// in\n    tag_58:\n      pop\n        /* \"contracts/ClassWork/practice_2.sol\":764:794  Person(\"Rajneesh Dwivedi\", 22) */\n      mload(0x40)\n      dup1\n      0x40\n      add\n      0x40\n      mstore\n      dup1\n      mload(0x40)\n      dup1\n      0x40\n      add\n      0x40\n      mstore\n      dup1\n      0x10\n      dup2\n      mstore\n      0x20\n      add\n      0x52616a6e65657368204477697665646900000000000000000000000000000000\n      dup2\n      mstore\n      pop\n      dup2\n      mstore\n      0x20\n      add\n        /* \"contracts/ClassWork/practice_2.sol\":791:793  22 */\n      0x16\n        /* \"contracts/ClassWork/practice_2.sol\":764:794  Person(\"Rajneesh Dwivedi\", 22) */\n      dup2\n      mstore\n      pop\n        /* \"contracts/ClassWork/practice_2.sol\":755:761  person */\n      0x05\n        /* \"contracts/ClassWork/practice_2.sol\":755:794  person = Person(\"Rajneesh Dwivedi\", 22) */\n      0x00\n      dup3\n      add\n      mload\n      dup2\n      0x00\n      add\n      swap1\n      dup2\n      tag_60\n      swap2\n      swap1\n      tag_61\n      jump\t// in\n    tag_60:\n      pop\n      0x20\n      dup3\n      add\n      mload\n      dup2\n      0x01\n      add\n      sstore\n      swap1\n      pop\n      pop\n        /* \"contracts/ClassWork/practice_2.sol\":830:833  100 */\n      0x64\n        /* \"contracts/ClassWork/practice_2.sol\":807:815  balances */\n      0x07\n        /* \"contracts/ClassWork/practice_2.sol\":807:827  balances[msg.sender] */\n      0x00\n        /* \"contracts/ClassWork/practice_2.sol\":816:826  msg.sender */\n      caller\n        /* \"contracts/ClassWork/practice_2.sol\":807:827  balances[msg.sender] */\n      0xffffffffffffffffffffffffffffffffffffffff\n      and\n      0xffffffffffffffffffffffffffffffffffffffff\n      and\n      dup2\n      mstore\n      0x20\n      add\n      swap1\n      dup2\n      mstore\n      0x20\n      add\n      0x00\n      keccak256\n        /* \"contracts/ClassWork/practice_2.sol\":807:833  balances[msg.sender] = 100 */\n      dup2\n      swap1\n      sstore\n      pop\n        /* \"contracts/ClassWork/practice_2.sol\":527:843  function setData() public {... */\n      jump\t// out\n    tag_59:\n      dup3\n      dup1\n      sload\n      dup3\n      dup3\n      sstore\n      swap1\n      0x00\n      mstore\n      keccak256(0x00, 0x20)\n      swap1\n      dup2\n      add\n      swap3\n      dup3\n      iszero\n      tag_62\n      jumpi\n      swap2\n      0x20\n      mul\n      dup3\n      add\n    tag_63:\n      dup3\n      dup2\n      gt\n      iszero\n      tag_64\n      jumpi\n      dup3\n      mload\n      dup3\n      swap1\n      0xff\n      and\n      swap1\n      sstore\n      swap2\n      0x20\n      add\n      swap2\n      swap1\n      0x01\n      add\n      swap1\n      jump(tag_63)\n    tag_64:\n    tag_62:\n      pop\n      swap1\n      pop\n      tag_65\n      swap2\n      swap1\n      tag_66\n      jump\t// in\n    tag_65:\n      pop\n      swap1\n      jump\t// out\n    tag_66:\n    tag_67:\n      dup1\n      dup3\n      gt\n      iszero\n      tag_68\n      jumpi\n      0x00\n      dup2\n      0x00\n      swap1\n      sstore\n      pop\n      0x01\n      add\n      jump(tag_67)\n    tag_68:\n      pop\n      swap1\n      jump\t// out\n        /* \"#utility.yul\":7:97   */\n    tag_69:\n        /* \"#utility.yul\":41:48   */\n      0x00\n        /* \"#utility.yul\":84:89   */\n      dup2\n        /* \"#utility.yul\":77:90   */\n      iszero\n        /* \"#utility.yul\":70:91   */\n      iszero\n        /* \"#utility.yul\":59:91   */\n      swap1\n      pop\n        /* \"#utility.yul\":7:97   */\n      swap2\n      swap1\n      pop\n      jump\t// out\n        /* \"#utility.yul\":103:212   */\n    tag_70:\n        /* \"#utility.yul\":184:205   */\n      tag_112\n        /* \"#utility.yul\":199:204   */\n      dup2\n        /* \"#utility.yul\":184:205   */\n      tag_69\n      jump\t// in\n    tag_112:\n        /* \"#utility.yul\":179:182   */\n      dup3\n        /* \"#utility.yul\":172:206   */\n      mstore\n        /* \"#utility.yul\":103:212   */\n      pop\n      pop\n      jump\t// out\n        /* \"#utility.yul\":218:428   */\n    tag_16:\n        /* \"#utility.yul\":305:309   */\n      0x00\n        /* \"#utility.yul\":343:345   */\n      0x20\n        /* \"#utility.yul\":332:341   */\n      dup3\n        /* \"#utility.yul\":328:346   */\n      add\n        /* \"#utility.yul\":320:346   */\n      swap1\n      pop\n        /* \"#utility.yul\":356:421   */\n      tag_114\n        /* \"#utility.yul\":418:419   */\n      0x00\n        /* \"#utility.yul\":407:416   */\n      dup4\n        /* \"#utility.yul\":403:420   */\n      add\n        /* \"#utility.yul\":394:400   */\n      dup5\n        /* \"#utility.yul\":356:421   */\n      tag_70\n      jump\t// in\n    tag_114:\n        /* \"#utility.yul\":218:428   */\n      swap3\n      swap2\n      pop\n      pop\n      jump\t// out\n        /* \"#utility.yul\":515:632   */\n    tag_72:\n        /* \"#utility.yul\":624:625   */\n      0x00\n        /* \"#utility.yul\":621:622   */\n      dup1\n        /* \"#utility.yul\":614:626   */\n      revert\n        /* \"#utility.yul\":761:887   */\n    tag_74:\n        /* \"#utility.yul\":798:805   */\n      0x00\n        /* \"#utility.yul\":838:880   */\n      0xffffffffffffffffffffffffffffffffffffffff\n        /* \"#utility.yul\":831:836   */\n      dup3\n        /* \"#utility.yul\":827:881   */\n      and\n        /* \"#utility.yul\":816:881   */\n      swap1\n      pop\n        /* \"#utility.yul\":761:887   */\n      swap2\n      swap1\n      pop\n      jump\t// out\n        /* \"#utility.yul\":893:989   */\n    tag_75:\n        /* \"#utility.yul\":930:937   */\n      0x00\n        /* \"#utility.yul\":959:983   */\n      tag_120\n        /* \"#utility.yul\":977:982   */\n      dup3\n        /* \"#utility.yul\":959:983   */\n      tag_74\n      jump\t// in\n    tag_120:\n        /* \"#utility.yul\":948:983   */\n      swap1\n      pop\n        /* \"#utility.yul\":893:989   */\n      swap2\n      swap1\n      pop\n      jump\t// out\n        /* \"#utility.yul\":995:1117   */\n    tag_76:\n        /* \"#utility.yul\":1068:1092   */\n      tag_122\n        /* \"#utility.yul\":1086:1091   */\n      dup2\n        /* \"#utility.yul\":1068:1092   */\n      tag_75\n      jump\t// in\n    tag_122:\n        /* \"#utility.yul\":1061:1066   */\n      dup2\n        /* \"#utility.yul\":1058:1093   */\n      eq\n        /* \"#utility.yul\":1048:1111   */\n      tag_123\n      jumpi\n        /* \"#utility.yul\":1107:1108   */\n      0x00\n        /* \"#utility.yul\":1104:1105   */\n      dup1\n        /* \"#utility.yul\":1097:1109   */\n      revert\n        /* \"#utility.yul\":1048:1111   */\n    tag_123:\n        /* \"#utility.yul\":995:1117   */\n      pop\n      jump\t// out\n        /* \"#utility.yul\":1123:1262   */\n    tag_77:\n        /* \"#utility.yul\":1169:1174   */\n      0x00\n        /* \"#utility.yul\":1207:1213   */\n      dup2\n        /* \"#utility.yul\":1194:1214   */\n      calldataload\n        /* \"#utility.yul\":1185:1214   */\n      swap1\n      pop\n        /* \"#utility.yul\":1223:1256   */\n      tag_125\n        /* \"#utility.yul\":1250:1255   */\n      dup2\n        /* \"#utility.yul\":1223:1256   */\n      tag_76\n      jump\t// in\n    tag_125:\n        /* \"#utility.yul\":1123:1262   */\n      swap3\n      swap2\n      pop\n      pop\n      jump\t// out\n        /* \"#utility.yul\":1268:1597   */\n    tag_19:\n        /* \"#utility.yul\":1327:1333   */\n      0x00\n        /* \"#utility.yul\":1376:1378   */\n      0x20\n        /* \"#utility.yul\":1364:1373   */\n      dup3\n        /* \"#utility.yul\":1355:1362   */\n      dup5\n        /* \"#utility.yul\":1351:1374   */\n      sub\n        /* \"#utility.yul\":1347:1379   */\n      slt\n        /* \"#utility.yul\":1344:1463   */\n      iszero\n      tag_127\n      jumpi\n        /* \"#utility.yul\":1382:1461   */\n      tag_128\n      tag_72\n      jump\t// in\n    tag_128:\n        /* \"#utility.yul\":1344:1463   */\n    tag_127:\n        /* \"#utility.yul\":1502:1503   */\n      0x00\n        /* \"#utility.yul\":1527:1580   */\n      tag_129\n        /* \"#utility.yul\":1572:1579   */\n      dup5\n        /* \"#utility.yul\":1563:1569   */\n      dup3\n        /* \"#utility.yul\":1552:1561   */\n      dup6\n        /* \"#utility.yul\":1548:1570   */\n      add\n        /* \"#utility.yul\":1527:1580   */\n      tag_77\n      jump\t// in\n    tag_129:\n        /* \"#utility.yul\":1517:1580   */\n      swap2\n      pop\n        /* \"#utility.yul\":1473:1590   */\n      pop\n        /* \"#utility.yul\":1268:1597   */\n      swap3\n      swap2\n      pop\n      pop\n      jump\t// out\n        /* \"#utility.yul\":1603:1680   */\n    tag_78:\n        /* \"#utility.yul\":1640:1647   */\n      0x00\n        /* \"#utility.yul\":1669:1674   */\n      dup2\n        /* \"#utility.yul\":1658:1674   */\n      swap1\n      pop\n        /* \"#utility.yul\":1603:1680   */\n      swap2\n      swap1\n      pop\n      jump\t// out\n        /* \"#utility.yul\":1686:1804   */\n    tag_79:\n        /* \"#utility.yul\":1773:1797   */\n      tag_132\n        /* \"#utility.yul\":1791:1796   */\n      dup2\n        /* \"#utility.yul\":1773:1797   */\n      tag_78\n      jump\t// in\n    tag_132:\n        /* \"#utility.yul\":1768:1771   */\n      dup3\n        /* \"#utility.yul\":1761:1798   */\n      mstore\n        /* \"#utility.yul\":1686:1804   */\n      pop\n      pop\n      jump\t// out\n        /* \"#utility.yul\":1810:2032   */\n    tag_22:\n        /* \"#utility.yul\":1903:1907   */\n      0x00\n        /* \"#utility.yul\":1941:1943   */\n      0x20\n        /* \"#utility.yul\":1930:1939   */\n      dup3\n        /* \"#utility.yul\":1926:1944   */\n      add\n        /* \"#utility.yul\":1918:1944   */\n      swap1\n      pop\n        /* \"#utility.yul\":1954:2025   */\n      tag_134\n        /* \"#utility.yul\":2022:2023   */\n      0x00\n        /* \"#utility.yul\":2011:2020   */\n      dup4\n        /* \"#utility.yul\":2007:2024   */\n      add\n        /* \"#utility.yul\":1998:2004   */\n      dup5\n        /* \"#utility.yul\":1954:2025   */\n      tag_79\n      jump\t// in\n    tag_134:\n        /* \"#utility.yul\":1810:2032   */\n      swap3\n      swap2\n      pop\n      pop\n      jump\t// out\n        /* \"#utility.yul\":2038:2124   */\n    tag_80:\n        /* \"#utility.yul\":2073:2080   */\n      0x00\n        /* \"#utility.yul\":2113:2117   */\n      0xff\n        /* \"#utility.yul\":2106:2111   */\n      dup3\n        /* \"#utility.yul\":2102:2118   */\n      and\n        /* \"#utility.yul\":2091:2118   */\n      swap1\n      pop\n        /* \"#utility.yul\":2038:2124   */\n      swap2\n      swap1\n      pop\n      jump\t// out\n        /* \"#utility.yul\":2130:2242   */\n    tag_81:\n        /* \"#utility.yul\":2213:2235   */\n      tag_137\n        /* \"#utility.yul\":2229:2234   */\n      dup2\n        /* \"#utility.yul\":2213:2235   */\n      tag_80\n      jump\t// in\n    tag_137:\n        /* \"#utility.yul\":2208:2211   */\n      dup3\n        /* \"#utility.yul\":2201:2236   */\n      mstore\n        /* \"#utility.yul\":2130:2242   */\n      pop\n      pop\n      jump\t// out\n        /* \"#utility.yul\":2248:2462   */\n    tag_26:\n        /* \"#utility.yul\":2337:2341   */\n      0x00\n        /* \"#utility.yul\":2375:2377   */\n      0x20\n        /* \"#utility.yul\":2364:2373   */\n      dup3\n        /* \"#utility.yul\":2360:2378   */\n      add\n        /* \"#utility.yul\":2352:2378   */\n      swap1\n      pop\n        /* \"#utility.yul\":2388:2455   */\n      tag_139\n        /* \"#utility.yul\":2452:2453   */\n      0x00\n        /* \"#utility.yul\":2441:2450   */\n      dup4\n        /* \"#utility.yul\":2437:2454   */\n      add\n        /* \"#utility.yul\":2428:2434   */\n      dup5\n        /* \"#utility.yul\":2388:2455   */\n      tag_81\n      jump\t// in\n    tag_139:\n        /* \"#utility.yul\":2248:2462   */\n      swap3\n      swap2\n      pop\n      pop\n      jump\t// out\n        /* \"#utility.yul\":2468:2590   */\n    tag_82:\n        /* \"#utility.yul\":2541:2565   */\n      tag_141\n        /* \"#utility.yul\":2559:2564   */\n      dup2\n        /* \"#utility.yul\":2541:2565   */\n      tag_78\n      jump\t// in\n    tag_141:\n        /* \"#utility.yul\":2534:2539   */\n      dup2\n        /* \"#utility.yul\":2531:2566   */\n      eq\n        /* \"#utility.yul\":2521:2584   */\n      tag_142\n      jumpi\n        /* \"#utility.yul\":2580:2581   */\n      0x00\n        /* \"#utility.yul\":2577:2578   */\n      dup1\n        /* \"#utility.yul\":2570:2582   */\n      revert\n        /* \"#utility.yul\":2521:2584   */\n    tag_142:\n        /* \"#utility.yul\":2468:2590   */\n      pop\n      jump\t// out\n        /* \"#utility.yul\":2596:2735   */\n    tag_83:\n        /* \"#utility.yul\":2642:2647   */\n      0x00\n        /* \"#utility.yul\":2680:2686   */\n      dup2\n        /* \"#utility.yul\":2667:2687   */\n      calldataload\n        /* \"#utility.yul\":2658:2687   */\n      swap1\n      pop\n        /* \"#utility.yul\":2696:2729   */\n      tag_144\n        /* \"#utility.yul\":2723:2728   */\n      dup2\n        /* \"#utility.yul\":2696:2729   */\n      tag_82\n      jump\t// in\n    tag_144:\n        /* \"#utility.yul\":2596:2735   */\n      swap3\n      swap2\n      pop\n      pop\n      jump\t// out\n        /* \"#utility.yul\":2741:3070   */\n    tag_29:\n        /* \"#utility.yul\":2800:2806   */\n      0x00\n        /* \"#utility.yul\":2849:2851   */\n      0x20\n        /* \"#utility.yul\":2837:2846   */\n      dup3\n        /* \"#utility.yul\":2828:2835   */\n      dup5\n        /* \"#utility.yul\":2824:2847   */\n      sub\n        /* \"#utility.yul\":2820:2852   */\n      slt\n        /* \"#utility.yul\":2817:2936   */\n      iszero\n      tag_146\n      jumpi\n        /* \"#utility.yul\":2855:2934   */\n      tag_147\n      tag_72\n      jump\t// in\n    tag_147:\n        /* \"#utility.yul\":2817:2936   */\n    tag_146:\n        /* \"#utility.yul\":2975:2976   */\n      0x00\n        /* \"#utility.yul\":3000:3053   */\n      tag_148\n        /* \"#utility.yul\":3045:3052   */\n      dup5\n        /* \"#utility.yul\":3036:3042   */\n      dup3\n        /* \"#utility.yul\":3025:3034   */\n      dup6\n        /* \"#utility.yul\":3021:3043   */\n      add\n        /* \"#utility.yul\":3000:3053   */\n      tag_83\n      jump\t// in\n    tag_148:\n        /* \"#utility.yul\":2990:3053   */\n      swap2\n      pop\n        /* \"#utility.yul\":2946:3063   */\n      pop\n        /* \"#utility.yul\":2741:3070   */\n      swap3\n      swap2\n      pop\n      pop\n      jump\t// out\n        /* \"#utility.yul\":3076:3175   */\n    tag_84:\n        /* \"#utility.yul\":3128:3134   */\n      0x00\n        /* \"#utility.yul\":3162:3167   */\n      dup2\n        /* \"#utility.yul\":3156:3168   */\n      mload\n        /* \"#utility.yul\":3146:3168   */\n      swap1\n      pop\n        /* \"#utility.yul\":3076:3175   */\n      swap2\n      swap1\n      pop\n      jump\t// out\n        /* \"#utility.yul\":3181:3350   */\n    tag_85:\n        /* \"#utility.yul\":3265:3276   */\n      0x00\n        /* \"#utility.yul\":3299:3305   */\n      dup3\n        /* \"#utility.yul\":3294:3297   */\n      dup3\n        /* \"#utility.yul\":3287:3306   */\n      mstore\n        /* \"#utility.yul\":3339:3343   */\n      0x20\n        /* \"#utility.yul\":3334:3337   */\n      dup3\n        /* \"#utility.yul\":3330:3344   */\n      add\n        /* \"#utility.yul\":3315:3344   */\n      swap1\n      pop\n        /* \"#utility.yul\":3181:3350   */\n      swap3\n      swap2\n      pop\n      pop\n      jump\t// out\n        /* \"#utility.yul\":3356:3495   */\n    tag_86:\n        /* \"#utility.yul\":3445:3451   */\n      dup3\n        /* \"#utility.yul\":3440:3443   */\n      dup2\n        /* \"#utility.yul\":3435:3438   */\n      dup4\n        /* \"#utility.yul\":3429:3452   */\n      mcopy\n        /* \"#utility.yul\":3486:3487   */\n      0x00\n        /* \"#utility.yul\":3477:3483   */\n      dup4\n        /* \"#utility.yul\":3472:3475   */\n      dup4\n        /* \"#utility.yul\":3468:3484   */\n      add\n        /* \"#utility.yul\":3461:3488   */\n      mstore\n        /* \"#utility.yul\":3356:3495   */\n      pop\n      pop\n      pop\n      jump\t// out\n        /* \"#utility.yul\":3501:3603   */\n    tag_87:\n        /* \"#utility.yul\":3542:3548   */\n      0x00\n        /* \"#utility.yul\":3593:3595   */\n      0x1f\n        /* \"#utility.yul\":3589:3596   */\n      not\n        /* \"#utility.yul\":3584:3586   */\n      0x1f\n        /* \"#utility.yul\":3577:3582   */\n      dup4\n        /* \"#utility.yul\":3573:3587   */\n      add\n        /* \"#utility.yul\":3569:3597   */\n      and\n        /* \"#utility.yul\":3559:3597   */\n      swap1\n      pop\n        /* \"#utility.yul\":3501:3603   */\n      swap2\n      swap1\n      pop\n      jump\t// out\n        /* \"#utility.yul\":3609:3986   */\n    tag_88:\n        /* \"#utility.yul\":3697:3700   */\n      0x00\n        /* \"#utility.yul\":3725:3764   */\n      tag_154\n        /* \"#utility.yul\":3758:3763   */\n      dup3\n        /* \"#utility.yul\":3725:3764   */\n      tag_84\n      jump\t// in\n    tag_154:\n        /* \"#utility.yul\":3780:3851   */\n      tag_155\n        /* \"#utility.yul\":3844:3850   */\n      dup2\n        /* \"#utility.yul\":3839:3842   */\n      dup6\n        /* \"#utility.yul\":3780:3851   */\n      tag_85\n      jump\t// in\n    tag_155:\n        /* \"#utility.yul\":3773:3851   */\n      swap4\n      pop\n        /* \"#utility.yul\":3860:3925   */\n      tag_156\n        /* \"#utility.yul\":3918:3924   */\n      dup2\n        /* \"#utility.yul\":3913:3916   */\n      dup6\n        /* \"#utility.yul\":3906:3910   */\n      0x20\n        /* \"#utility.yul\":3899:3904   */\n      dup7\n        /* \"#utility.yul\":3895:3911   */\n      add\n        /* \"#utility.yul\":3860:3925   */\n      tag_86\n      jump\t// in\n    tag_156:\n        /* \"#utility.yul\":3950:3979   */\n      tag_157\n        /* \"#utility.yul\":3972:3978   */\n      dup2\n        /* \"#utility.yul\":3950:3979   */\n      tag_87\n      jump\t// in\n    tag_157:\n        /* \"#utility.yul\":3945:3948   */\n      dup5\n        /* \"#utility.yul\":3941:3980   */\n      add\n        /* \"#utility.yul\":3934:3980   */\n      swap2\n      pop\n        /* \"#utility.yul\":3701:3986   */\n      pop\n        /* \"#utility.yul\":3609:3986   */\n      swap3\n      swap2\n      pop\n      pop\n      jump\t// out\n        /* \"#utility.yul\":3992:4415   */\n    tag_35:\n        /* \"#utility.yul\":4133:4137   */\n      0x00\n        /* \"#utility.yul\":4171:4173   */\n      0x40\n        /* \"#utility.yul\":4160:4169   */\n      dup3\n        /* \"#utility.yul\":4156:4174   */\n      add\n        /* \"#utility.yul\":4148:4174   */\n      swap1\n      pop\n        /* \"#utility.yul\":4220:4229   */\n      dup2\n        /* \"#utility.yul\":4214:4218   */\n      dup2\n        /* \"#utility.yul\":4210:4230   */\n      sub\n        /* \"#utility.yul\":4206:4207   */\n      0x00\n        /* \"#utility.yul\":4195:4204   */\n      dup4\n        /* \"#utility.yul\":4191:4208   */\n      add\n        /* \"#utility.yul\":4184:4231   */\n      mstore\n        /* \"#utility.yul\":4248:4326   */\n      tag_159\n        /* \"#utility.yul\":4321:4325   */\n      dup2\n        /* \"#utility.yul\":4312:4318   */\n      dup6\n        /* \"#utility.yul\":4248:4326   */\n      tag_88\n      jump\t// in\n    tag_159:\n        /* \"#utility.yul\":4240:4326   */\n      swap1\n      pop\n        /* \"#utility.yul\":4336:4408   */\n      tag_160\n        /* \"#utility.yul\":4404:4406   */\n      0x20\n        /* \"#utility.yul\":4393:4402   */\n      dup4\n        /* \"#utility.yul\":4389:4407   */\n      add\n        /* \"#utility.yul\":4380:4386   */\n      dup5\n        /* \"#utility.yul\":4336:4408   */\n      tag_79\n      jump\t// in\n    tag_160:\n        /* \"#utility.yul\":3992:4415   */\n      swap4\n      swap3\n      pop\n      pop\n      pop\n      jump\t// out\n        /* \"#utility.yul\":4421:4497   */\n    tag_89:\n        /* \"#utility.yul\":4457:4464   */\n      0x00\n        /* \"#utility.yul\":4486:4491   */\n      dup2\n        /* \"#utility.yul\":4475:4491   */\n      swap1\n      pop\n        /* \"#utility.yul\":4421:4497   */\n      swap2\n      swap1\n      pop\n      jump\t// out\n        /* \"#utility.yul\":4503:4618   */\n    tag_90:\n        /* \"#utility.yul\":4588:4611   */\n      tag_163\n        /* \"#utility.yul\":4605:4610   */\n      dup2\n        /* \"#utility.yul\":4588:4611   */\n      tag_89\n      jump\t// in\n    tag_163:\n        /* \"#utility.yul\":4583:4586   */\n      dup3\n        /* \"#utility.yul\":4576:4612   */\n      mstore\n        /* \"#utility.yul\":4503:4618   */\n      pop\n      pop\n      jump\t// out\n        /* \"#utility.yul\":4624:4842   */\n    tag_42:\n        /* \"#utility.yul\":4715:4719   */\n      0x00\n        /* \"#utility.yul\":4753:4755   */\n      0x20\n        /* \"#utility.yul\":4742:4751   */\n      dup3\n        /* \"#utility.yul\":4738:4756   */\n      add\n        /* \"#utility.yul\":4730:4756   */\n      swap1\n      pop\n        /* \"#utility.yul\":4766:4835   */\n      tag_165\n        /* \"#utility.yul\":4832:4833   */\n      0x00\n        /* \"#utility.yul\":4821:4830   */\n      dup4\n        /* \"#utility.yul\":4817:4834   */\n      add\n        /* \"#utility.yul\":4808:4814   */\n      dup5\n        /* \"#utility.yul\":4766:4835   */\n      tag_90\n      jump\t// in\n    tag_165:\n        /* \"#utility.yul\":4624:4842   */\n      swap3\n      swap2\n      pop\n      pop\n      jump\t// out\n        /* \"#utility.yul\":4848:4966   */\n    tag_91:\n        /* \"#utility.yul\":4935:4959   */\n      tag_167\n        /* \"#utility.yul\":4953:4958   */\n      dup2\n        /* \"#utility.yul\":4935:4959   */\n      tag_75\n      jump\t// in\n    tag_167:\n        /* \"#utility.yul\":4930:4933   */\n      dup3\n        /* \"#utility.yul\":4923:4960   */\n      mstore\n        /* \"#utility.yul\":4848:4966   */\n      pop\n      pop\n      jump\t// out\n        /* \"#utility.yul\":4972:5194   */\n    tag_46:\n        /* \"#utility.yul\":5065:5069   */\n      0x00\n        /* \"#utility.yul\":5103:5105   */\n      0x20\n        /* \"#utility.yul\":5092:5101   */\n      dup3\n        /* \"#utility.yul\":5088:5106   */\n      add\n        /* \"#utility.yul\":5080:5106   */\n      swap1\n      pop\n        /* \"#utility.yul\":5116:5187   */\n      tag_169\n        /* \"#utility.yul\":5184:5185   */\n      0x00\n        /* \"#utility.yul\":5173:5182   */\n      dup4\n        /* \"#utility.yul\":5169:5186   */\n      add\n        /* \"#utility.yul\":5160:5166   */\n      dup5\n        /* \"#utility.yul\":5116:5187   */\n      tag_91\n      jump\t// in\n    tag_169:\n        /* \"#utility.yul\":4972:5194   */\n      swap3\n      swap2\n      pop\n      pop\n      jump\t// out\n        /* \"#utility.yul\":5200:5380   */\n    tag_92:\n        /* \"#utility.yul\":5248:5325   */\n      0x4e487b7100000000000000000000000000000000000000000000000000000000\n        /* \"#utility.yul\":5245:5246   */\n      0x00\n        /* \"#utility.yul\":5238:5326   */\n      mstore\n        /* \"#utility.yul\":5345:5349   */\n      0x22\n        /* \"#utility.yul\":5342:5343   */\n      0x04\n        /* \"#utility.yul\":5335:5350   */\n      mstore\n        /* \"#utility.yul\":5369:5373   */\n      0x24\n        /* \"#utility.yul\":5366:5367   */\n      0x00\n        /* \"#utility.yul\":5359:5374   */\n      revert\n        /* \"#utility.yul\":5386:5706   */\n    tag_52:\n        /* \"#utility.yul\":5430:5436   */\n      0x00\n        /* \"#utility.yul\":5467:5468   */\n      0x02\n        /* \"#utility.yul\":5461:5465   */\n      dup3\n        /* \"#utility.yul\":5457:5469   */\n      div\n        /* \"#utility.yul\":5447:5469   */\n      swap1\n      pop\n        /* \"#utility.yul\":5514:5515   */\n      0x01\n        /* \"#utility.yul\":5508:5512   */\n      dup3\n        /* \"#utility.yul\":5504:5516   */\n      and\n        /* \"#utility.yul\":5535:5553   */\n      dup1\n        /* \"#utility.yul\":5525:5606   */\n      tag_172\n      jumpi\n        /* \"#utility.yul\":5591:5595   */\n      0x7f\n        /* \"#utility.yul\":5583:5589   */\n      dup3\n        /* \"#utility.yul\":5579:5596   */\n      and\n        /* \"#utility.yul\":5569:5596   */\n      swap2\n      pop\n        /* \"#utility.yul\":5525:5606   */\n    tag_172:\n        /* \"#utility.yul\":5653:5655   */\n      0x20\n        /* \"#utility.yul\":5645:5651   */\n      dup3\n        /* \"#utility.yul\":5642:5656   */\n      lt\n        /* \"#utility.yul\":5622:5640   */\n      dup2\n        /* \"#utility.yul\":5619:5657   */\n      sub\n        /* \"#utility.yul\":5616:5700   */\n      tag_173\n      jumpi\n        /* \"#utility.yul\":5672:5690   */\n      tag_174\n      tag_92\n      jump\t// in\n    tag_174:\n        /* \"#utility.yul\":5616:5700   */\n    tag_173:\n        /* \"#utility.yul\":5437:5706   */\n      pop\n        /* \"#utility.yul\":5386:5706   */\n      swap2\n      swap1\n      pop\n      jump\t// out\n        /* \"#utility.yul\":5712:5892   */\n    tag_93:\n        /* \"#utility.yul\":5760:5837   */\n      0x4e487b7100000000000000000000000000000000000000000000000000000000\n        /* \"#utility.yul\":5757:5758   */\n      0x00\n        /* \"#utility.yul\":5750:5838   */\n      mstore\n        /* \"#utility.yul\":5857:5861   */\n      0x41\n        /* \"#utility.yul\":5854:5855   */\n      0x04\n        /* \"#utility.yul\":5847:5862   */\n      mstore\n        /* \"#utility.yul\":5881:5885   */\n      0x24\n        /* \"#utility.yul\":5878:5879   */\n      0x00\n        /* \"#utility.yul\":5871:5886   */\n      revert\n        /* \"#utility.yul\":5898:6039   */\n    tag_94:\n        /* \"#utility.yul\":5947:5951   */\n      0x00\n        /* \"#utility.yul\":5970:5973   */\n      dup2\n        /* \"#utility.yul\":5962:5973   */\n      swap1\n      pop\n        /* \"#utility.yul\":5993:5996   */\n      dup2\n        /* \"#utility.yul\":5990:5991   */\n      0x00\n        /* \"#utility.yul\":5983:5997   */\n      mstore\n        /* \"#utility.yul\":6027:6031   */\n      0x20\n        /* \"#utility.yul\":6024:6025   */\n      0x00\n        /* \"#utility.yul\":6014:6032   */\n      keccak256\n        /* \"#utility.yul\":6006:6032   */\n      swap1\n      pop\n        /* \"#utility.yul\":5898:6039   */\n      swap2\n      swap1\n      pop\n      jump\t// out\n        /* \"#utility.yul\":6045:6138   */\n    tag_95:\n        /* \"#utility.yul\":6082:6088   */\n      0x00\n        /* \"#utility.yul\":6129:6131   */\n      0x20\n        /* \"#utility.yul\":6124:6126   */\n      0x1f\n        /* \"#utility.yul\":6117:6122   */\n      dup4\n        /* \"#utility.yul\":6113:6127   */\n      add\n        /* \"#utility.yul\":6109:6132   */\n      div\n        /* \"#utility.yul\":6099:6132   */\n      swap1\n      pop\n        /* \"#utility.yul\":6045:6138   */\n      swap2\n      swap1\n      pop\n      jump\t// out\n        /* \"#utility.yul\":6144:6251   */\n    tag_96:\n        /* \"#utility.yul\":6188:6196   */\n      0x00\n        /* \"#utility.yul\":6238:6243   */\n      dup3\n        /* \"#utility.yul\":6232:6236   */\n      dup3\n        /* \"#utility.yul\":6228:6244   */\n      shl\n        /* \"#utility.yul\":6207:6244   */\n      swap1\n      pop\n        /* \"#utility.yul\":6144:6251   */\n      swap3\n      swap2\n      pop\n      pop\n      jump\t// out\n        /* \"#utility.yul\":6257:6650   */\n    tag_97:\n        /* \"#utility.yul\":6326:6332   */\n      0x00\n        /* \"#utility.yul\":6376:6377   */\n      0x08\n        /* \"#utility.yul\":6364:6374   */\n      dup4\n        /* \"#utility.yul\":6360:6378   */\n      mul\n        /* \"#utility.yul\":6399:6496   */\n      tag_180\n        /* \"#utility.yul\":6429:6495   */\n      0xffffffffffffffffffffffffffffffffffffffffffffffffffffffffffffffff\n        /* \"#utility.yul\":6418:6427   */\n      dup3\n        /* \"#utility.yul\":6399:6496   */\n      tag_96\n      jump\t// in\n    tag_180:\n        /* \"#utility.yul\":6517:6556   */\n      tag_181\n        /* \"#utility.yul\":6547:6555   */\n      dup7\n        /* \"#utility.yul\":6536:6545   */\n      dup4\n        /* \"#utility.yul\":6517:6556   */\n      tag_96\n      jump\t// in\n    tag_181:\n        /* \"#utility.yul\":6505:6556   */\n      swap6\n      pop\n        /* \"#utility.yul\":6589:6593   */\n      dup1\n        /* \"#utility.yul\":6585:6594   */\n      not\n        /* \"#utility.yul\":6578:6583   */\n      dup5\n        /* \"#utility.yul\":6574:6595   */\n      and\n        /* \"#utility.yul\":6565:6595   */\n      swap4\n      pop\n        /* \"#utility.yul\":6638:6642   */\n      dup1\n        /* \"#utility.yul\":6628:6636   */\n      dup7\n        /* \"#utility.yul\":6624:6643   */\n      and\n        /* \"#utility.yul\":6617:6622   */\n      dup5\n        /* \"#utility.yul\":6614:6644   */\n      or\n        /* \"#utility.yul\":6604:6644   */\n      swap3\n      pop\n        /* \"#utility.yul\":6333:6650   */\n      pop\n      pop\n        /* \"#utility.yul\":6257:6650   */\n      swap4\n      swap3\n      pop\n      pop\n      pop\n      jump\t// out\n        /* \"#utility.yul\":6656:6716   */\n    tag_98:\n        /* \"#utility.yul\":6684:6687   */\n      0x00\n        /* \"#utility.yul\":6705:6710   */\n      dup2\n        /* \"#utility.yul\":6698:6710   */\n      swap1\n      pop\n        /* \"#utility.yul\":6656:6716   */\n      swap2\n      swap1\n      pop\n      jump\t// out\n        /* \"#utility.yul\":6722:6864   */\n    tag_99:\n        /* \"#utility.yul\":6772:6781   */\n      0x00\n        /* \"#utility.yul\":6805:6858   */\n      tag_184\n        /* \"#utility.yul\":6823:6857   */\n      tag_185\n        /* \"#utility.yul\":6832:6856   */\n      tag_186\n        /* \"#utility.yul\":6850:6855   */\n      dup5\n        /* \"#utility.yul\":6832:6856   */\n      tag_78\n      jump\t// in\n    tag_186:\n        /* \"#utility.yul\":6823:6857   */\n      tag_98\n      jump\t// in\n    tag_185:\n        /* \"#utility.yul\":6805:6858   */\n      tag_78\n      jump\t// in\n    tag_184:\n        /* \"#utility.yul\":6792:6858   */\n      swap1\n      pop\n        /* \"#utility.yul\":6722:6864   */\n      swap2\n      swap1\n      pop\n      jump\t// out\n        /* \"#utility.yul\":6870:6945   */\n    tag_100:\n        /* \"#utility.yul\":6913:6916   */\n      0x00\n        /* \"#utility.yul\":6934:6939   */\n      dup2\n        /* \"#utility.yul\":6927:6939   */\n      swap1\n      pop\n        /* \"#utility.yul\":6870:6945   */\n      swap2\n      swap1\n      pop\n      jump\t// out\n        /* \"#utility.yul\":6951:7220   */\n    tag_101:\n        /* \"#utility.yul\":7061:7100   */\n      tag_189\n        /* \"#utility.yul\":7092:7099   */\n      dup4\n        /* \"#utility.yul\":7061:7100   */\n      tag_99\n      jump\t// in\n    tag_189:\n        /* \"#utility.yul\":7122:7213   */\n      tag_190\n        /* \"#utility.yul\":7171:7212   */\n      tag_191\n        /* \"#utility.yul\":7195:7211   */\n      dup3\n        /* \"#utility.yul\":7171:7212   */\n      tag_100\n      jump\t// in\n    tag_191:\n        /* \"#utility.yul\":7163:7169   */\n      dup5\n        /* \"#utility.yul\":7156:7160   */\n      dup5\n        /* \"#utility.yul\":7150:7161   */\n      sload\n        /* \"#utility.yul\":7122:7213   */\n      tag_97\n      jump\t// in\n    tag_190:\n        /* \"#utility.yul\":7116:7120   */\n      dup3\n        /* \"#utility.yul\":7109:7214   */\n      sstore\n        /* \"#utility.yul\":7027:7220   */\n      pop\n        /* \"#utility.yul\":6951:7220   */\n      pop\n      pop\n      pop\n      jump\t// out\n        /* \"#utility.yul\":7226:7299   */\n    tag_102:\n        /* \"#utility.yul\":7271:7274   */\n      0x00\n        /* \"#utility.yul\":7226:7299   */\n      swap1\n      jump\t// out\n        /* \"#utility.yul\":7305:7494   */\n    tag_103:\n        /* \"#utility.yul\":7382:7414   */\n      tag_194\n      tag_102\n      jump\t// in\n    tag_194:\n        /* \"#utility.yul\":7423:7488   */\n      tag_195\n        /* \"#utility.yul\":7481:7487   */\n      dup2\n        /* \"#utility.yul\":7473:7479   */\n      dup5\n        /* \"#utility.yul\":7467:7471   */\n      dup5\n        /* \"#utility.yul\":7423:7488   */\n      tag_101\n      jump\t// in\n    tag_195:\n        /* \"#utility.yul\":7358:7494   */\n      pop\n        /* \"#utility.yul\":7305:7494   */\n      pop\n      pop\n      jump\t// out\n        /* \"#utility.yul\":7500:7686   */\n    tag_104:\n        /* \"#utility.yul\":7560:7680   */\n    tag_197:\n        /* \"#utility.yul\":7577:7580   */\n      dup2\n        /* \"#utility.yul\":7570:7575   */\n      dup2\n        /* \"#utility.yul\":7567:7581   */\n      lt\n        /* \"#utility.yul\":7560:7680   */\n      iszero\n      tag_199\n      jumpi\n        /* \"#utility.yul\":7631:7670   */\n      tag_200\n        /* \"#utility.yul\":7668:7669   */\n      0x00\n        /* \"#utility.yul\":7661:7666   */\n      dup3\n        /* \"#utility.yul\":7631:7670   */\n      tag_103\n      jump\t// in\n    tag_200:\n        /* \"#utility.yul\":7604:7605   */\n      0x01\n        /* \"#utility.yul\":7597:7602   */\n      dup2\n        /* \"#utility.yul\":7593:7606   */\n      add\n        /* \"#utility.yul\":7584:7606   */\n      swap1\n      pop\n        /* \"#utility.yul\":7560:7680   */\n      jump(tag_197)\n    tag_199:\n        /* \"#utility.yul\":7500:7686   */\n      pop\n      pop\n      jump\t// out\n        /* \"#utility.yul\":7692:8235   */\n    tag_105:\n        /* \"#utility.yul\":7793:7795   */\n      0x1f\n        /* \"#utility.yul\":7788:7791   */\n      dup3\n        /* \"#utility.yul\":7785:7796   */\n      gt\n        /* \"#utility.yul\":7782:8228   */\n      iszero\n      tag_202\n      jumpi\n        /* \"#utility.yul\":7827:7865   */\n      tag_203\n        /* \"#utility.yul\":7859:7864   */\n      dup2\n        /* \"#utility.yul\":7827:7865   */\n      tag_94\n      jump\t// in\n    tag_203:\n        /* \"#utility.yul\":7911:7940   */\n      tag_204\n        /* \"#utility.yul\":7929:7939   */\n      dup5\n        /* \"#utility.yul\":7911:7940   */\n      tag_95\n      jump\t// in\n    tag_204:\n        /* \"#utility.yul\":7901:7909   */\n      dup2\n        /* \"#utility.yul\":7897:7941   */\n      add\n        /* \"#utility.yul\":8094:8096   */\n      0x20\n        /* \"#utility.yul\":8082:8092   */\n      dup6\n        /* \"#utility.yul\":8079:8097   */\n      lt\n        /* \"#utility.yul\":8076:8125   */\n      iszero\n      tag_205\n      jumpi\n        /* \"#utility.yul\":8115:8123   */\n      dup2\n        /* \"#utility.yul\":8100:8123   */\n      swap1\n      pop\n        /* \"#utility.yul\":8076:8125   */\n    tag_205:\n        /* \"#utility.yul\":8138:8218   */\n      tag_206\n        /* \"#utility.yul\":8194:8216   */\n      tag_207\n        /* \"#utility.yul\":8212:8215   */\n      dup6\n        /* \"#utility.yul\":8194:8216   */\n      tag_95\n      jump\t// in\n    tag_207:\n        /* \"#utility.yul\":8184:8192   */\n      dup4\n        /* \"#utility.yul\":8180:8217   */\n      add\n        /* \"#utility.yul\":8167:8178   */\n      dup3\n        /* \"#utility.yul\":8138:8218   */\n      tag_104\n      jump\t// in\n    tag_206:\n        /* \"#utility.yul\":7797:8228   */\n      pop\n      pop\n        /* \"#utility.yul\":7782:8228   */\n    tag_202:\n        /* \"#utility.yul\":7692:8235   */\n      pop\n      pop\n      pop\n      jump\t// out\n        /* \"#utility.yul\":8241:8358   */\n    tag_106:\n        /* \"#utility.yul\":8295:8303   */\n      0x00\n        /* \"#utility.yul\":8345:8350   */\n      dup3\n        /* \"#utility.yul\":8339:8343   */\n      dup3\n        /* \"#utility.yul\":8335:8351   */\n      shr\n        /* \"#utility.yul\":8314:8351   */\n      swap1\n      pop\n        /* \"#utility.yul\":8241:8358   */\n      swap3\n      swap2\n      pop\n      pop\n      jump\t// out\n        /* \"#utility.yul\":8364:8533   */\n    tag_107:\n        /* \"#utility.yul\":8408:8414   */\n      0x00\n        /* \"#utility.yul\":8441:8492   */\n      tag_210\n        /* \"#utility.yul\":8489:8490   */\n      0x00\n        /* \"#utility.yul\":8485:8491   */\n      not\n        /* \"#utility.yul\":8477:8482   */\n      dup5\n        /* \"#utility.yul\":8474:8475   */\n      0x08\n        /* \"#utility.yul\":8470:8483   */\n      mul\n        /* \"#utility.yul\":8441:8492   */\n      tag_106\n      jump\t// in\n    tag_210:\n        /* \"#utility.yul\":8437:8493   */\n      not\n        /* \"#utility.yul\":8522:8526   */\n      dup1\n        /* \"#utility.yul\":8516:8520   */\n      dup4\n        /* \"#utility.yul\":8512:8527   */\n      and\n        /* \"#utility.yul\":8502:8527   */\n      swap2\n      pop\n        /* \"#utility.yul\":8415:8533   */\n      pop\n        /* \"#utility.yul\":8364:8533   */\n      swap3\n      swap2\n      pop\n      pop\n      jump\t// out\n        /* \"#utility.yul\":8538:8833   */\n    tag_108:\n        /* \"#utility.yul\":8614:8618   */\n      0x00\n        /* \"#utility.yul\":8760:8789   */\n      tag_212\n        /* \"#utility.yul\":8785:8788   */\n      dup4\n        /* \"#utility.yul\":8779:8783   */\n      dup4\n        /* \"#utility.yul\":8760:8789   */\n      tag_107\n      jump\t// in\n    tag_212:\n        /* \"#utility.yul\":8752:8789   */\n      swap2\n      pop\n        /* \"#utility.yul\":8822:8825   */\n      dup3\n        /* \"#utility.yul\":8819:8820   */\n      0x02\n        /* \"#utility.yul\":8815:8826   */\n      mul\n        /* \"#utility.yul\":8809:8813   */\n      dup3\n        /* \"#utility.yul\":8806:8827   */\n      or\n        /* \"#utility.yul\":8798:8827   */\n      swap1\n      pop\n        /* \"#utility.yul\":8538:8833   */\n      swap3\n      swap2\n      pop\n      pop\n      jump\t// out\n        /* \"#utility.yul\":8838:10233   */\n    tag_61:\n        /* \"#utility.yul\":8955:8992   */\n      tag_214\n        /* \"#utility.yul\":8988:8991   */\n      dup3\n        /* \"#utility.yul\":8955:8992   */\n      tag_84\n      jump\t// in\n    tag_214:\n        /* \"#utility.yul\":9057:9075   */\n      0xffffffffffffffff\n        /* \"#utility.yul\":9049:9055   */\n      dup2\n        /* \"#utility.yul\":9046:9076   */\n      gt\n        /* \"#utility.yul\":9043:9099   */\n      iszero\n      tag_215\n      jumpi\n        /* \"#utility.yul\":9079:9097   */\n      tag_216\n      tag_93\n      jump\t// in\n    tag_216:\n        /* \"#utility.yul\":9043:9099   */\n    tag_215:\n        /* \"#utility.yul\":9123:9161   */\n      tag_217\n        /* \"#utility.yul\":9155:9159   */\n      dup3\n        /* \"#utility.yul\":9149:9160   */\n      sload\n        /* \"#utility.yul\":9123:9161   */\n      tag_52\n      jump\t// in\n    tag_217:\n        /* \"#utility.yul\":9208:9275   */\n      tag_218\n        /* \"#utility.yul\":9268:9274   */\n      dup3\n        /* \"#utility.yul\":9260:9266   */\n      dup3\n        /* \"#utility.yul\":9254:9258   */\n      dup6\n        /* \"#utility.yul\":9208:9275   */\n      tag_105\n      jump\t// in\n    tag_218:\n        /* \"#utility.yul\":9302:9303   */\n      0x00\n        /* \"#utility.yul\":9326:9330   */\n      0x20\n        /* \"#utility.yul\":9313:9330   */\n      swap1\n      pop\n        /* \"#utility.yul\":9358:9360   */\n      0x1f\n        /* \"#utility.yul\":9350:9356   */\n      dup4\n        /* \"#utility.yul\":9347:9361   */\n      gt\n        /* \"#utility.yul\":9375:9376   */\n      0x01\n        /* \"#utility.yul\":9370:9988   */\n      dup2\n      eq\n      tag_220\n      jumpi\n        /* \"#utility.yul\":10032:10033   */\n      0x00\n        /* \"#utility.yul\":10049:10055   */\n      dup5\n        /* \"#utility.yul\":10046:10123   */\n      iszero\n      tag_221\n      jumpi\n        /* \"#utility.yul\":10098:10107   */\n      dup3\n        /* \"#utility.yul\":10093:10096   */\n      dup8\n        /* \"#utility.yul\":10089:10108   */\n      add\n        /* \"#utility.yul\":10083:10109   */\n      mload\n        /* \"#utility.yul\":10074:10109   */\n      swap1\n      pop\n        /* \"#utility.yul\":10046:10123   */\n    tag_221:\n        /* \"#utility.yul\":10149:10216   */\n      tag_222\n        /* \"#utility.yul\":10209:10215   */\n      dup6\n        /* \"#utility.yul\":10202:10207   */\n      dup3\n        /* \"#utility.yul\":10149:10216   */\n      tag_108\n      jump\t// in\n    tag_222:\n        /* \"#utility.yul\":10143:10147   */\n      dup7\n        /* \"#utility.yul\":10136:10217   */\n      sstore\n        /* \"#utility.yul\":10005:10227   */\n      pop\n        /* \"#utility.yul\":9340:10227   */\n      jump(tag_219)\n        /* \"#utility.yul\":9370:9988   */\n    tag_220:\n        /* \"#utility.yul\":9422:9426   */\n      0x1f\n        /* \"#utility.yul\":9418:9427   */\n      not\n        /* \"#utility.yul\":9410:9416   */\n      dup5\n        /* \"#utility.yul\":9406:9428   */\n      and\n        /* \"#utility.yul\":9456:9493   */\n      tag_223\n        /* \"#utility.yul\":9488:9492   */\n      dup7\n        /* \"#utility.yul\":9456:9493   */\n      tag_94\n      jump\t// in\n    tag_223:\n        /* \"#utility.yul\":9515:9516   */\n      0x00\n        /* \"#utility.yul\":9529:9737   */\n    tag_224:\n        /* \"#utility.yul\":9543:9550   */\n      dup3\n        /* \"#utility.yul\":9540:9541   */\n      dup2\n        /* \"#utility.yul\":9537:9551   */\n      lt\n        /* \"#utility.yul\":9529:9737   */\n      iszero\n      tag_226\n      jumpi\n        /* \"#utility.yul\":9622:9631   */\n      dup5\n        /* \"#utility.yul\":9617:9620   */\n      dup10\n        /* \"#utility.yul\":9613:9632   */\n      add\n        /* \"#utility.yul\":9607:9633   */\n      mload\n        /* \"#utility.yul\":9599:9605   */\n      dup3\n        /* \"#utility.yul\":9592:9634   */\n      sstore\n        /* \"#utility.yul\":9673:9674   */\n      0x01\n        /* \"#utility.yul\":9665:9671   */\n      dup3\n        /* \"#utility.yul\":9661:9675   */\n      add\n        /* \"#utility.yul\":9651:9675   */\n      swap2\n      pop\n        /* \"#utility.yul\":9720:9722   */\n      0x20\n        /* \"#utility.yul\":9709:9718   */\n      dup6\n        /* \"#utility.yul\":9705:9723   */\n      add\n        /* \"#utility.yul\":9692:9723   */\n      swap5\n      pop\n        /* \"#utility.yul\":9566:9570   */\n      0x20\n        /* \"#utility.yul\":9563:9564   */\n      dup2\n        /* \"#utility.yul\":9559:9571   */\n      add\n        /* \"#utility.yul\":9554:9571   */\n      swap1\n      pop\n        /* \"#utility.yul\":9529:9737   */\n      jump(tag_224)\n    tag_226:\n        /* \"#utility.yul\":9765:9771   */\n      dup7\n        /* \"#utility.yul\":9756:9763   */\n      dup4\n        /* \"#utility.yul\":9753:9772   */\n      lt\n        /* \"#utility.yul\":9750:9929   */\n      iszero\n      tag_227\n      jumpi\n        /* \"#utility.yul\":9823:9832   */\n      dup5\n        /* \"#utility.yul\":9818:9821   */\n      dup10\n        /* \"#utility.yul\":9814:9833   */\n      add\n        /* \"#utility.yul\":9808:9834   */\n      mload\n        /* \"#utility.yul\":9866:9914   */\n      tag_228\n        /* \"#utility.yul\":9908:9912   */\n      0x1f\n        /* \"#utility.yul\":9900:9906   */\n      dup10\n        /* \"#utility.yul\":9896:9913   */\n      and\n        /* \"#utility.yul\":9885:9894   */\n      dup3\n        /* \"#utility.yul\":9866:9914   */\n      tag_107\n      jump\t// in\n    tag_228:\n        /* \"#utility.yul\":9858:9864   */\n      dup4\n        /* \"#utility.yul\":9851:9915   */\n      sstore\n        /* \"#utility.yul\":9773:9929   */\n      pop\n        /* \"#utility.yul\":9750:9929   */\n    tag_227:\n        /* \"#utility.yul\":9975:9976   */\n      0x01\n        /* \"#utility.yul\":9971:9972   */\n      0x02\n        /* \"#utility.yul\":9963:9969   */\n      dup9\n        /* \"#utility.yul\":9959:9973   */\n      mul\n        /* \"#utility.yul\":9955:9977   */\n      add\n        /* \"#utility.yul\":9949:9953   */\n      dup9\n        /* \"#utility.yul\":9942:9978   */\n      sstore\n        /* \"#utility.yul\":9377:9988   */\n      pop\n      pop\n      pop\n        /* \"#utility.yul\":9340:10227   */\n    tag_219:\n      pop\n        /* \"#utility.yul\":8930:10233   */\n      pop\n      pop\n      pop\n        /* \"#utility.yul\":8838:10233   */\n      pop\n      pop\n      jump\t// out\n\n    auxdata: 0xa2646970667358221220a3b780390bda81a7749471e4bca60f3db281e114da71e05d613f5c82a537856c64736f6c63430008190033\n}\n",
				"bytecode": {
					"linkReferences": {},
					"object": "6080604052348015600e575f80fd5b50610a668061001c5f395ff3fe608060405234801561000f575f80fd5b5060043610610090575f3560e01c806377ec2b551161006457806377ec2b55146101305780638381f58a1461014f578063aca20a5b1461016d578063e4128fb31461018b578063f31604c7146101a957610090565b806274530a1461009457806327e235e3146100b25780636670cde0146100e2578063723a62ac14610100575b5f80fd5b61009c6101b3565b6040516100a991906104e7565b60405180910390f35b6100cc60048036038101906100c7919061055e565b6101c3565b6040516100d991906105a1565b60405180910390f35b6100ea6101d8565b6040516100f791906105d5565b60405180910390f35b61011a60048036038101906101159190610618565b6101eb565b60405161012791906105a1565b60405180910390f35b61013861020b565b6040516101469291906106b3565b60405180910390f35b6101576102a2565b60405161016491906105a1565b60405180910390f35b6101756102a8565b60405161018291906106f9565b60405180910390f35b6101936102ae565b6040516101a09190610721565b60405180910390f35b6101b16102d3565b005b5f8054906101000a900460ff1681565b6007602052805f5260405f205f915090505481565b600360149054906101000a900460ff1681565b600481815481106101fa575f80fd5b905f5260205f20015f915090505481565b6005805f01805461021b90610767565b80601f016020809104026020016040519081016040528092919081815260200182805461024790610767565b80156102925780601f1061026957610100808354040283529160200191610292565b820191905f5260205f20905b81548152906001019060200180831161027557829003601f168201915b5050505050908060010154905082565b60015481565b60025481565b60035f9054906101000a900473ffffffffffffffffffffffffffffffffffffffff1681565b60015f806101000a81548160ff021916908315150217905550602a6001819055507ffffffffffffffffffffffffffffffffffffffffffffffffffffffffffffffff66002819055503360035f6101000a81548173ffffffffffffffffffffffffffffffffffffffff021916908373ffffffffffffffffffffffffffffffffffffffff1602179055506005600360146101000a81548160ff021916908360ff1602179055506040518060600160405280600160ff168152602001600260ff168152602001600360ff1681525060049060036103ae929190610462565b5060405180604001604052806040518060400160405280601081526020017f52616a6e656573682044776976656469000000000000000000000000000000008152508152602001601681525060055f820151815f01908161040f9190610961565b5060208201518160010155905050606460075f3373ffffffffffffffffffffffffffffffffffffffff1673ffffffffffffffffffffffffffffffffffffffff1681526020019081526020015f2081905550565b828054828255905f5260205f209081019282156104a1579160200282015b828111156104a0578251829060ff16905591602001919060010190610480565b5b5090506104ae91906104b2565b5090565b5b808211156104c9575f815f9055506001016104b3565b5090565b5f8115159050919050565b6104e1816104cd565b82525050565b5f6020820190506104fa5f8301846104d8565b92915050565b5f80fd5b5f73ffffffffffffffffffffffffffffffffffffffff82169050919050565b5f61052d82610504565b9050919050565b61053d81610523565b8114610547575f80fd5b50565b5f8135905061055881610534565b92915050565b5f6020828403121561057357610572610500565b5b5f6105808482850161054a565b91505092915050565b5f819050919050565b61059b81610589565b82525050565b5f6020820190506105b45f830184610592565b92915050565b5f60ff82169050919050565b6105cf816105ba565b82525050565b5f6020820190506105e85f8301846105c6565b92915050565b6105f781610589565b8114610601575f80fd5b50565b5f81359050610612816105ee565b92915050565b5f6020828403121561062d5761062c610500565b5b5f61063a84828501610604565b91505092915050565b5f81519050919050565b5f82825260208201905092915050565b8281835e5f83830152505050565b5f601f19601f8301169050919050565b5f61068582610643565b61068f818561064d565b935061069f81856020860161065d565b6106a88161066b565b840191505092915050565b5f6040820190508181035f8301526106cb818561067b565b90506106da6020830184610592565b9392505050565b5f819050919050565b6106f3816106e1565b82525050565b5f60208201905061070c5f8301846106ea565b92915050565b61071b81610523565b82525050565b5f6020820190506107345f830184610712565b92915050565b7f4e487b71000000000000000000000000000000000000000000000000000000005f52602260045260245ffd5b5f600282049050600182168061077e57607f821691505b6020821081036107915761079061073a565b5b50919050565b7f4e487b71000000000000000000000000000000000000000000000000000000005f52604160045260245ffd5b5f819050815f5260205f209050919050565b5f6020601f8301049050919050565b5f82821b905092915050565b5f600883026108207fffffffffffffffffffffffffffffffffffffffffffffffffffffffffffffffff826107e5565b61082a86836107e5565b95508019841693508086168417925050509392505050565b5f819050919050565b5f61086561086061085b84610589565b610842565b610589565b9050919050565b5f819050919050565b61087e8361084b565b61089261088a8261086c565b8484546107f1565b825550505050565b5f90565b6108a661089a565b6108b1818484610875565b505050565b5b818110156108d4576108c95f8261089e565b6001810190506108b7565b5050565b601f821115610919576108ea816107c4565b6108f3846107d6565b81016020851015610902578190505b61091661090e856107d6565b8301826108b6565b50505b505050565b5f82821c905092915050565b5f6109395f198460080261091e565b1980831691505092915050565b5f610951838361092a565b9150826002028217905092915050565b61096a82610643565b67ffffffffffffffff81111561098357610982610797565b5b61098d8254610767565b6109988282856108d8565b5f60209050601f8311600181146109c9575f84156109b7578287015190505b6109c18582610946565b865550610a28565b601f1984166109d7866107c4565b5f5b828110156109fe578489015182556001820191506020850194506020810190506109d9565b86831015610a1b5784890151610a17601f89168261092a565b8355505b6001600288020188555050505b50505050505056fea2646970667358221220a3b780390bda81a7749471e4bca60f3db281e114da71e05d613f5c82a537856c64736f6c63430008190033",
					"opcodes": "PUSH1 0x80 PUSH1 0x40 MSTORE CALLVALUE DUP1 ISZERO PUSH1 0xE JUMPI PUSH0 DUP1 REVERT JUMPDEST POP PUSH2 0xA66 DUP1 PUSH2 0x1C PUSH0 CODECOPY PUSH0 RETURN INVALID PUSH1 0x80 PUSH1 0x40 MSTORE CALLVALUE DUP1 ISZERO PUSH2 0xF JUMPI PUSH0 DUP1 REVERT JUMPDEST POP PUSH1 0x4 CALLDATASIZE LT PUSH2 0x90 JUMPI PUSH0 CALLDATALOAD PUSH1 0xE0 SHR DUP1 PUSH4 0x77EC2B55 GT PUSH2 0x64 JUMPI DUP1 PUSH4 0x77EC2B55 EQ PUSH2 0x130 JUMPI DUP1 PUSH4 0x8381F58A EQ PUSH2 0x14F JUMPI DUP1 PUSH4 0xACA20A5B EQ PUSH2 0x16D JUMPI DUP1 PUSH4 0xE4128FB3 EQ PUSH2 0x18B JUMPI DUP1 PUSH4 0xF31604C7 EQ PUSH2 0x1A9 JUMPI PUSH2 0x90 JUMP JUMPDEST DUP1 PUSH3 0x74530A EQ PUSH2 0x94 JUMPI DUP1 PUSH4 0x27E235E3 EQ PUSH2 0xB2 JUMPI DUP1 PUSH4 0x6670CDE0 EQ PUSH2 0xE2 JUMPI DUP1 PUSH4 0x723A62AC EQ PUSH2 0x100 JUMPI JUMPDEST PUSH0 DUP1 REVERT JUMPDEST PUSH2 0x9C PUSH2 0x1B3 JUMP JUMPDEST PUSH1 0x40 MLOAD PUSH2 0xA9 SWAP2 SWAP1 PUSH2 0x4E7 JUMP JUMPDEST PUSH1 0x40 MLOAD DUP1 SWAP2 SUB SWAP1 RETURN JUMPDEST PUSH2 0xCC PUSH1 0x4 DUP1 CALLDATASIZE SUB DUP2 ADD SWAP1 PUSH2 0xC7 SWAP2 SWAP1 PUSH2 0x55E JUMP JUMPDEST PUSH2 0x1C3 JUMP JUMPDEST PUSH1 0x40 MLOAD PUSH2 0xD9 SWAP2 SWAP1 PUSH2 0x5A1 JUMP JUMPDEST PUSH1 0x40 MLOAD DUP1 SWAP2 SUB SWAP1 RETURN JUMPDEST PUSH2 0xEA PUSH2 0x1D8 JUMP JUMPDEST PUSH1 0x40 MLOAD PUSH2 0xF7 SWAP2 SWAP1 PUSH2 0x5D5 JUMP JUMPDEST PUSH1 0x40 MLOAD DUP1 SWAP2 SUB SWAP1 RETURN JUMPDEST PUSH2 0x11A PUSH1 0x4 DUP1 CALLDATASIZE SUB DUP2 ADD SWAP1 PUSH2 0x115 SWAP2 SWAP1 PUSH2 0x618 JUMP JUMPDEST PUSH2 0x1EB JUMP JUMPDEST PUSH1 0x40 MLOAD PUSH2 0x127 SWAP2 SWAP1 PUSH2 0x5A1 JUMP JUMPDEST PUSH1 0x40 MLOAD DUP1 SWAP2 SUB SWAP1 RETURN JUMPDEST PUSH2 0x138 PUSH2 0x20B JUMP JUMPDEST PUSH1 0x40 MLOAD PUSH2 0x146 SWAP3 SWAP2 SWAP1 PUSH2 0x6B3 JUMP JUMPDEST PUSH1 0x40 MLOAD DUP1 SWAP2 SUB SWAP1 RETURN JUMPDEST PUSH2 0x157 PUSH2 0x2A2 JUMP JUMPDEST PUSH1 0x40 MLOAD PUSH2 0x164 SWAP2 SWAP1 PUSH2 0x5A1 JUMP JUMPDEST PUSH1 0x40 MLOAD DUP1 SWAP2 SUB SWAP1 RETURN JUMPDEST PUSH2 0x175 PUSH2 0x2A8 JUMP JUMPDEST PUSH1 0x40 MLOAD PUSH2 0x182 SWAP2 SWAP1 PUSH2 0x6F9 JUMP JUMPDEST PUSH1 0x40 MLOAD DUP1 SWAP2 SUB SWAP1 RETURN JUMPDEST PUSH2 0x193 PUSH2 0x2AE JUMP JUMPDEST PUSH1 0x40 MLOAD PUSH2 0x1A0 SWAP2 SWAP1 PUSH2 0x721 JUMP JUMPDEST PUSH1 0x40 MLOAD DUP1 SWAP2 SUB SWAP1 RETURN JUMPDEST PUSH2 0x1B1 PUSH2 0x2D3 JUMP JUMPDEST STOP JUMPDEST PUSH0 DUP1 SLOAD SWAP1 PUSH2 0x100 EXP SWAP1 DIV PUSH1 0xFF AND DUP2 JUMP JUMPDEST PUSH1 0x7 PUSH1 0x20 MSTORE DUP1 PUSH0 MSTORE PUSH1 0x40 PUSH0 KECCAK256 PUSH0 SWAP2 POP SWAP1 POP SLOAD DUP2 JUMP JUMPDEST PUSH1 0x3 PUSH1 0x14 SWAP1 SLOAD SWAP1 PUSH2 0x100 EXP SWAP1 DIV PUSH1 0xFF AND DUP2 JUMP JUMPDEST PUSH1 0x4 DUP2 DUP2 SLOAD DUP2 LT PUSH2 0x1FA JUMPI PUSH0 DUP1 REVERT JUMPDEST SWAP1 PUSH0 MSTORE PUSH1 0x20 PUSH0 KECCAK256 ADD PUSH0 SWAP2 POP SWAP1 POP SLOAD DUP2 JUMP JUMPDEST PUSH1 0x5 DUP1 PUSH0 ADD DUP1 SLOAD PUSH2 0x21B SWAP1 PUSH2 0x767 JUMP JUMPDEST DUP1 PUSH1 0x1F ADD PUSH1 0x20 DUP1 SWAP2 DIV MUL PUSH1 0x20 ADD PUSH1 0x40 MLOAD SWAP1 DUP2 ADD PUSH1 0x40 MSTORE DUP1 SWAP3 SWAP2 SWAP1 DUP2 DUP2 MSTORE PUSH1 0x20 ADD DUP3 DUP1 SLOAD PUSH2 0x247 SWAP1 PUSH2 0x767 JUMP JUMPDEST DUP1 ISZERO PUSH2 0x292 JUMPI DUP1 PUSH1 0x1F LT PUSH2 0x269 JUMPI PUSH2 0x100 DUP1 DUP4 SLOAD DIV MUL DUP4 MSTORE SWAP2 PUSH1 0x20 ADD SWAP2 PUSH2 0x292 JUMP JUMPDEST DUP3 ADD SWAP2 SWAP1 PUSH0 MSTORE PUSH1 0x20 PUSH0 KECCAK256 SWAP1 JUMPDEST DUP2 SLOAD DUP2 MSTORE SWAP1 PUSH1 0x1 ADD SWAP1 PUSH1 0x20 ADD DUP1 DUP4 GT PUSH2 0x275 JUMPI DUP3 SWAP1 SUB PUSH1 0x1F AND DUP3 ADD SWAP2 JUMPDEST POP POP POP POP POP SWAP1 DUP1 PUSH1 0x1 ADD SLOAD SWAP1 POP DUP3 JUMP JUMPDEST PUSH1 0x1 SLOAD DUP2 JUMP JUMPDEST PUSH1 0x2 SLOAD DUP2 JUMP JUMPDEST PUSH1 0x3 PUSH0 SWAP1 SLOAD SWAP1 PUSH2 0x100 EXP SWAP1 DIV PUSH20 0xFFFFFFFFFFFFFFFFFFFFFFFFFFFFFFFFFFFFFFFF AND DUP2 JUMP JUMPDEST PUSH1 0x1 PUSH0 DUP1 PUSH2 0x100 EXP DUP2 SLOAD DUP2 PUSH1 0xFF MUL NOT AND SWAP1 DUP4 ISZERO ISZERO MUL OR SWAP1 SSTORE POP PUSH1 0x2A PUSH1 0x1 DUP2 SWAP1 SSTORE POP PUSH32 0xFFFFFFFFFFFFFFFFFFFFFFFFFFFFFFFFFFFFFFFFFFFFFFFFFFFFFFFFFFFFFFF6 PUSH1 0x2 DUP2 SWAP1 SSTORE POP CALLER PUSH1 0x3 PUSH0 PUSH2 0x100 EXP DUP2 SLOAD DUP2 PUSH20 0xFFFFFFFFFFFFFFFFFFFFFFFFFFFFFFFFFFFFFFFF MUL NOT AND SWAP1 DUP4 PUSH20 0xFFFFFFFFFFFFFFFFFFFFFFFFFFFFFFFFFFFFFFFF AND MUL OR SWAP1 SSTORE POP PUSH1 0x5 PUSH1 0x3 PUSH1 0x14 PUSH2 0x100 EXP DUP2 SLOAD DUP2 PUSH1 0xFF MUL NOT AND SWAP1 DUP4 PUSH1 0xFF AND MUL OR SWAP1 SSTORE POP PUSH1 0x40 MLOAD DUP1 PUSH1 0x60 ADD PUSH1 0x40 MSTORE DUP1 PUSH1 0x1 PUSH1 0xFF AND DUP2 MSTORE PUSH1 0x20 ADD PUSH1 0x2 PUSH1 0xFF AND DUP2 MSTORE PUSH1 0x20 ADD PUSH1 0x3 PUSH1 0xFF AND DUP2 MSTORE POP PUSH1 0x4 SWAP1 PUSH1 0x3 PUSH2 0x3AE SWAP3 SWAP2 SWAP1 PUSH2 0x462 JUMP JUMPDEST POP PUSH1 0x40 MLOAD DUP1 PUSH1 0x40 ADD PUSH1 0x40 MSTORE DUP1 PUSH1 0x40 MLOAD DUP1 PUSH1 0x40 ADD PUSH1 0x40 MSTORE DUP1 PUSH1 0x10 DUP2 MSTORE PUSH1 0x20 ADD PUSH32 0x52616A6E65657368204477697665646900000000000000000000000000000000 DUP2 MSTORE POP DUP2 MSTORE PUSH1 0x20 ADD PUSH1 0x16 DUP2 MSTORE POP PUSH1 0x5 PUSH0 DUP3 ADD MLOAD DUP2 PUSH0 ADD SWAP1 DUP2 PUSH2 0x40F SWAP2 SWAP1 PUSH2 0x961 JUMP JUMPDEST POP PUSH1 0x20 DUP3 ADD MLOAD DUP2 PUSH1 0x1 ADD SSTORE SWAP1 POP POP PUSH1 0x64 PUSH1 0x7 PUSH0 CALLER PUSH20 0xFFFFFFFFFFFFFFFFFFFFFFFFFFFFFFFFFFFFFFFF AND PUSH20 0xFFFFFFFFFFFFFFFFFFFFFFFFFFFFFFFFFFFFFFFF AND DUP2 MSTORE PUSH1 0x20 ADD SWAP1 DUP2 MSTORE PUSH1 0x20 ADD PUSH0 KECCAK256 DUP2 SWAP1 SSTORE POP JUMP JUMPDEST DUP3 DUP1 SLOAD DUP3 DUP3 SSTORE SWAP1 PUSH0 MSTORE PUSH1 0x20 PUSH0 KECCAK256 SWAP1 DUP2 ADD SWAP3 DUP3 ISZERO PUSH2 0x4A1 JUMPI SWAP2 PUSH1 0x20 MUL DUP3 ADD JUMPDEST DUP3 DUP2 GT ISZERO PUSH2 0x4A0 JUMPI DUP3 MLOAD DUP3 SWAP1 PUSH1 0xFF AND SWAP1 SSTORE SWAP2 PUSH1 0x20 ADD SWAP2 SWAP1 PUSH1 0x1 ADD SWAP1 PUSH2 0x480 JUMP JUMPDEST JUMPDEST POP SWAP1 POP PUSH2 0x4AE SWAP2 SWAP1 PUSH2 0x4B2 JUMP JUMPDEST POP SWAP1 JUMP JUMPDEST JUMPDEST DUP1 DUP3 GT ISZERO PUSH2 0x4C9 JUMPI PUSH0 DUP2 PUSH0 SWAP1 SSTORE POP PUSH1 0x1 ADD PUSH2 0x4B3 JUMP JUMPDEST POP SWAP1 JUMP JUMPDEST PUSH0 DUP2 ISZERO ISZERO SWAP1 POP SWAP2 SWAP1 POP JUMP JUMPDEST PUSH2 0x4E1 DUP2 PUSH2 0x4CD JUMP JUMPDEST DUP3 MSTORE POP POP JUMP JUMPDEST PUSH0 PUSH1 0x20 DUP3 ADD SWAP1 POP PUSH2 0x4FA PUSH0 DUP4 ADD DUP5 PUSH2 0x4D8 JUMP JUMPDEST SWAP3 SWAP2 POP POP JUMP JUMPDEST PUSH0 DUP1 REVERT JUMPDEST PUSH0 PUSH20 0xFFFFFFFFFFFFFFFFFFFFFFFFFFFFFFFFFFFFFFFF DUP3 AND SWAP1 POP SWAP2 SWAP1 POP JUMP JUMPDEST PUSH0 PUSH2 0x52D DUP3 PUSH2 0x504 JUMP JUMPDEST SWAP1 POP SWAP2 SWAP1 POP JUMP JUMPDEST PUSH2 0x53D DUP2 PUSH2 0x523 JUMP JUMPDEST DUP2 EQ PUSH2 0x547 JUMPI PUSH0 DUP1 REVERT JUMPDEST POP JUMP JUMPDEST PUSH0 DUP2 CALLDATALOAD SWAP1 POP PUSH2 0x558 DUP2 PUSH2 0x534 JUMP JUMPDEST SWAP3 SWAP2 POP POP JUMP JUMPDEST PUSH0 PUSH1 0x20 DUP3 DUP5 SUB SLT ISZERO PUSH2 0x573 JUMPI PUSH2 0x572 PUSH2 0x500 JUMP JUMPDEST JUMPDEST PUSH0 PUSH2 0x580 DUP5 DUP3 DUP6 ADD PUSH2 0x54A JUMP JUMPDEST SWAP2 POP POP SWAP3 SWAP2 POP POP JUMP JUMPDEST PUSH0 DUP2 SWAP1 POP SWAP2 SWAP1 POP JUMP JUMPDEST PUSH2 0x59B DUP2 PUSH2 0x589 JUMP JUMPDEST DUP3 MSTORE POP POP JUMP JUMPDEST PUSH0 PUSH1 0x20 DUP3 ADD SWAP1 POP PUSH2 0x5B4 PUSH0 DUP4 ADD DUP5 PUSH2 0x592 JUMP JUMPDEST SWAP3 SWAP2 POP POP JUMP JUMPDEST PUSH0 PUSH1 0xFF DUP3 AND SWAP1 POP SWAP2 SWAP1 POP JUMP JUMPDEST PUSH2 0x5CF DUP2 PUSH2 0x5BA JUMP JUMPDEST DUP3 MSTORE POP POP JUMP JUMPDEST PUSH0 PUSH1 0x20 DUP3 ADD SWAP1 POP PUSH2 0x5E8 PUSH0 DUP4 ADD DUP5 PUSH2 0x5C6 JUMP JUMPDEST SWAP3 SWAP2 POP POP JUMP JUMPDEST PUSH2 0x5F7 DUP2 PUSH2 0x589 JUMP JUMPDEST DUP2 EQ PUSH2 0x601 JUMPI PUSH0 DUP1 REVERT JUMPDEST POP JUMP JUMPDEST PUSH0 DUP2 CALLDATALOAD SWAP1 POP PUSH2 0x612 DUP2 PUSH2 0x5EE JUMP JUMPDEST SWAP3 SWAP2 POP POP JUMP JUMPDEST PUSH0 PUSH1 0x20 DUP3 DUP5 SUB SLT ISZERO PUSH2 0x62D JUMPI PUSH2 0x62C PUSH2 0x500 JUMP JUMPDEST JUMPDEST PUSH0 PUSH2 0x63A DUP5 DUP3 DUP6 ADD PUSH2 0x604 JUMP JUMPDEST SWAP2 POP POP SWAP3 SWAP2 POP POP JUMP JUMPDEST PUSH0 DUP2 MLOAD SWAP1 POP SWAP2 SWAP1 POP JUMP JUMPDEST PUSH0 DUP3 DUP3 MSTORE PUSH1 0x20 DUP3 ADD SWAP1 POP SWAP3 SWAP2 POP POP JUMP JUMPDEST DUP3 DUP2 DUP4 MCOPY PUSH0 DUP4 DUP4 ADD MSTORE POP POP POP JUMP JUMPDEST PUSH0 PUSH1 0x1F NOT PUSH1 0x1F DUP4 ADD AND SWAP1 POP SWAP2 SWAP1 POP JUMP JUMPDEST PUSH0 PUSH2 0x685 DUP3 PUSH2 0x643 JUMP JUMPDEST PUSH2 0x68F DUP2 DUP6 PUSH2 0x64D JUMP JUMPDEST SWAP4 POP PUSH2 0x69F DUP2 DUP6 PUSH1 0x20 DUP7 ADD PUSH2 0x65D JUMP JUMPDEST PUSH2 0x6A8 DUP2 PUSH2 0x66B JUMP JUMPDEST DUP5 ADD SWAP2 POP POP SWAP3 SWAP2 POP POP JUMP JUMPDEST PUSH0 PUSH1 0x40 DUP3 ADD SWAP1 POP DUP2 DUP2 SUB PUSH0 DUP4 ADD MSTORE PUSH2 0x6CB DUP2 DUP6 PUSH2 0x67B JUMP JUMPDEST SWAP1 POP PUSH2 0x6DA PUSH1 0x20 DUP4 ADD DUP5 PUSH2 0x592 JUMP JUMPDEST SWAP4 SWAP3 POP POP POP JUMP JUMPDEST PUSH0 DUP2 SWAP1 POP SWAP2 SWAP1 POP JUMP JUMPDEST PUSH2 0x6F3 DUP2 PUSH2 0x6E1 JUMP JUMPDEST DUP3 MSTORE POP POP JUMP JUMPDEST PUSH0 PUSH1 0x20 DUP3 ADD SWAP1 POP PUSH2 0x70C PUSH0 DUP4 ADD DUP5 PUSH2 0x6EA JUMP JUMPDEST SWAP3 SWAP2 POP POP JUMP JUMPDEST PUSH2 0x71B DUP2 PUSH2 0x523 JUMP JUMPDEST DUP3 MSTORE POP POP JUMP JUMPDEST PUSH0 PUSH1 0x20 DUP3 ADD SWAP1 POP PUSH2 0x734 PUSH0 DUP4 ADD DUP5 PUSH2 0x712 JUMP JUMPDEST SWAP3 SWAP2 POP POP JUMP JUMPDEST PUSH32 0x4E487B7100000000000000000000000000000000000000000000000000000000 PUSH0 MSTORE PUSH1 0x22 PUSH1 0x4 MSTORE PUSH1 0x24 PUSH0 REVERT JUMPDEST PUSH0 PUSH1 0x2 DUP3 DIV SWAP1 POP PUSH1 0x1 DUP3 AND DUP1 PUSH2 0x77E JUMPI PUSH1 0x7F DUP3 AND SWAP2 POP JUMPDEST PUSH1 0x20 DUP3 LT DUP2 SUB PUSH2 0x791 JUMPI PUSH2 0x790 PUSH2 0x73A JUMP JUMPDEST JUMPDEST POP SWAP2 SWAP1 POP JUMP JUMPDEST PUSH32 0x4E487B7100000000000000000000000000000000000000000000000000000000 PUSH0 MSTORE PUSH1 0x41 PUSH1 0x4 MSTORE PUSH1 0x24 PUSH0 REVERT JUMPDEST PUSH0 DUP2 SWAP1 POP DUP2 PUSH0 MSTORE PUSH1 0x20 PUSH0 KECCAK256 SWAP1 POP SWAP2 SWAP1 POP JUMP JUMPDEST PUSH0 PUSH1 0x20 PUSH1 0x1F DUP4 ADD DIV SWAP1 POP SWAP2 SWAP1 POP JUMP JUMPDEST PUSH0 DUP3 DUP3 SHL SWAP1 POP SWAP3 SWAP2 POP POP JUMP JUMPDEST PUSH0 PUSH1 0x8 DUP4 MUL PUSH2 0x820 PUSH32 0xFFFFFFFFFFFFFFFFFFFFFFFFFFFFFFFFFFFFFFFFFFFFFFFFFFFFFFFFFFFFFFFF DUP3 PUSH2 0x7E5 JUMP JUMPDEST PUSH2 0x82A DUP7 DUP4 PUSH2 0x7E5 JUMP JUMPDEST SWAP6 POP DUP1 NOT DUP5 AND SWAP4 POP DUP1 DUP7 AND DUP5 OR SWAP3 POP POP POP SWAP4 SWAP3 POP POP POP JUMP JUMPDEST PUSH0 DUP2 SWAP1 POP SWAP2 SWAP1 POP JUMP JUMPDEST PUSH0 PUSH2 0x865 PUSH2 0x860 PUSH2 0x85B DUP5 PUSH2 0x589 JUMP JUMPDEST PUSH2 0x842 JUMP JUMPDEST PUSH2 0x589 JUMP JUMPDEST SWAP1 POP SWAP2 SWAP1 POP JUMP JUMPDEST PUSH0 DUP2 SWAP1 POP SWAP2 SWAP1 POP JUMP JUMPDEST PUSH2 0x87E DUP4 PUSH2 0x84B JUMP JUMPDEST PUSH2 0x892 PUSH2 0x88A DUP3 PUSH2 0x86C JUMP JUMPDEST DUP5 DUP5 SLOAD PUSH2 0x7F1 JUMP JUMPDEST DUP3 SSTORE POP POP POP POP JUMP JUMPDEST PUSH0 SWAP1 JUMP JUMPDEST PUSH2 0x8A6 PUSH2 0x89A JUMP JUMPDEST PUSH2 0x8B1 DUP2 DUP5 DUP5 PUSH2 0x875 JUMP JUMPDEST POP POP POP JUMP JUMPDEST JUMPDEST DUP2 DUP2 LT ISZERO PUSH2 0x8D4 JUMPI PUSH2 0x8C9 PUSH0 DUP3 PUSH2 0x89E JUMP JUMPDEST PUSH1 0x1 DUP2 ADD SWAP1 POP PUSH2 0x8B7 JUMP JUMPDEST POP POP JUMP JUMPDEST PUSH1 0x1F DUP3 GT ISZERO PUSH2 0x919 JUMPI PUSH2 0x8EA DUP2 PUSH2 0x7C4 JUMP JUMPDEST PUSH2 0x8F3 DUP5 PUSH2 0x7D6 JUMP JUMPDEST DUP2 ADD PUSH1 0x20 DUP6 LT ISZERO PUSH2 0x902 JUMPI DUP2 SWAP1 POP JUMPDEST PUSH2 0x916 PUSH2 0x90E DUP6 PUSH2 0x7D6 JUMP JUMPDEST DUP4 ADD DUP3 PUSH2 0x8B6 JUMP JUMPDEST POP POP JUMPDEST POP POP POP JUMP JUMPDEST PUSH0 DUP3 DUP3 SHR SWAP1 POP SWAP3 SWAP2 POP POP JUMP JUMPDEST PUSH0 PUSH2 0x939 PUSH0 NOT DUP5 PUSH1 0x8 MUL PUSH2 0x91E JUMP JUMPDEST NOT DUP1 DUP4 AND SWAP2 POP POP SWAP3 SWAP2 POP POP JUMP JUMPDEST PUSH0 PUSH2 0x951 DUP4 DUP4 PUSH2 0x92A JUMP JUMPDEST SWAP2 POP DUP3 PUSH1 0x2 MUL DUP3 OR SWAP1 POP SWAP3 SWAP2 POP POP JUMP JUMPDEST PUSH2 0x96A DUP3 PUSH2 0x643 JUMP JUMPDEST PUSH8 0xFFFFFFFFFFFFFFFF DUP2 GT ISZERO PUSH2 0x983 JUMPI PUSH2 0x982 PUSH2 0x797 JUMP JUMPDEST JUMPDEST PUSH2 0x98D DUP3 SLOAD PUSH2 0x767 JUMP JUMPDEST PUSH2 0x998 DUP3 DUP3 DUP6 PUSH2 0x8D8 JUMP JUMPDEST PUSH0 PUSH1 0x20 SWAP1 POP PUSH1 0x1F DUP4 GT PUSH1 0x1 DUP2 EQ PUSH2 0x9C9 JUMPI PUSH0 DUP5 ISZERO PUSH2 0x9B7 JUMPI DUP3 DUP8 ADD MLOAD SWAP1 POP JUMPDEST PUSH2 0x9C1 DUP6 DUP3 PUSH2 0x946 JUMP JUMPDEST DUP7 SSTORE POP PUSH2 0xA28 JUMP JUMPDEST PUSH1 0x1F NOT DUP5 AND PUSH2 0x9D7 DUP7 PUSH2 0x7C4 JUMP JUMPDEST PUSH0 JUMPDEST DUP3 DUP2 LT ISZERO PUSH2 0x9FE JUMPI DUP5 DUP10 ADD MLOAD DUP3 SSTORE PUSH1 0x1 DUP3 ADD SWAP2 POP PUSH1 0x20 DUP6 ADD SWAP5 POP PUSH1 0x20 DUP2 ADD SWAP1 POP PUSH2 0x9D9 JUMP JUMPDEST DUP7 DUP4 LT ISZERO PUSH2 0xA1B JUMPI DUP5 DUP10 ADD MLOAD PUSH2 0xA17 PUSH1 0x1F DUP10 AND DUP3 PUSH2 0x92A JUMP JUMPDEST DUP4 SSTORE POP JUMPDEST PUSH1 0x1 PUSH1 0x2 DUP9 MUL ADD DUP9 SSTORE POP POP POP JUMPDEST POP POP POP POP POP POP JUMP INVALID LOG2 PUSH5 0x6970667358 0x22 SLT KECCAK256 LOG3 0xB7 DUP1 CODECOPY SIGNEXTEND 0xDA DUP2 0xA7 PUSH21 0x9471E4BCA60F3DB281E114DA71E05D613F5C82A537 DUP6 PUSH13 0x64736F6C634300081900330000 "
				},
				"gasEstimates": {
					"creation": {
						"codeDepositCost": "532400",
						"executionCost": "566",
						"totalCost": "532966"
					},
					"external": {
						"balances(address)": "2825",
						"isTrue()": "2464",
						"negativeNumber()": "2469",
						"number()": "2447",
						"numberArray(uint256)": "infinite",
						"person()": "infinite",
						"setData()": "infinite",
						"smallNumber()": "2562",
						"userAddress()": "2574"
					}
				},
				"methodIdentifiers": {
					"balances(address)": "27e235e3",
					"isTrue()": "0074530a",
					"negativeNumber()": "aca20a5b",
					"number()": "8381f58a",
					"numberArray(uint256)": "723a62ac",
					"person()": "77ec2b55",
					"setData()": "f31604c7",
					"smallNumber()": "6670cde0",
					"userAddress()": "e4128fb3"
				}
			},
			"storageLayout": {
				"storage": [
					{
						"astId": 3,
						"contract": "contracts/ClassWork/practice_2.sol:DataTypes",
						"label": "isTrue",
						"offset": 0,
						"slot": "0",
						"type": "t_bool"
					},
					{
						"astId": 5,
						"contract": "contracts/ClassWork/practice_2.sol:DataTypes",
						"label": "number",
						"offset": 0,
						"slot": "1",
						"type": "t_uint256"
					},
					{
						"astId": 7,
						"contract": "contracts/ClassWork/practice_2.sol:DataTypes",
						"label": "negativeNumber",
						"offset": 0,
						"slot": "2",
						"type": "t_int256"
					},
					{
						"astId": 9,
						"contract": "contracts/ClassWork/practice_2.sol:DataTypes",
						"label": "userAddress",
						"offset": 0,
						"slot": "3",
						"type": "t_address"
					},
					{
						"astId": 11,
						"contract": "contracts/ClassWork/practice_2.sol:DataTypes",
						"label": "smallNumber",
						"offset": 20,
						"slot": "3",
						"type": "t_uint8"
					},
					{
						"astId": 14,
						"contract": "contracts/ClassWork/practice_2.sol:DataTypes",
						"label": "numberArray",
						"offset": 0,
						"slot": "4",
						"type": "t_array(t_uint256)dyn_storage"
					},
					{
						"astId": 22,
						"contract": "contracts/ClassWork/practice_2.sol:DataTypes",
						"label": "person",
						"offset": 0,
						"slot": "5",
						"type": "t_struct(Person)19_storage"
					},
					{
						"astId": 26,
						"contract": "contracts/ClassWork/practice_2.sol:DataTypes",
						"label": "balances",
						"offset": 0,
						"slot": "7",
						"type": "t_mapping(t_address,t_uint256)"
					}
				],
				"types": {
					"t_address": {
						"encoding": "inplace",
						"label": "address",
						"numberOfBytes": "20"
					},
					"t_array(t_uint256)dyn_storage": {
						"base": "t_uint256",
						"encoding": "dynamic_array",
						"label": "uint256[]",
						"numberOfBytes": "32"
					},
					"t_bool": {
						"encoding": "inplace",
						"label": "bool",
						"numberOfBytes": "1"
					},
					"t_int256": {
						"encoding": "inplace",
						"label": "int256",
						"numberOfBytes": "32"
					},
					"t_mapping(t_address,t_uint256)": {
						"encoding": "mapping",
						"key": "t_address",
						"label": "mapping(address => uint256)",
						"numberOfBytes": "32",
						"value": "t_uint256"
					},
					"t_string_storage": {
						"encoding": "bytes",
						"label": "string",
						"numberOfBytes": "32"
					},
					"t_struct(Person)19_storage": {
						"encoding": "inplace",
						"label": "struct DataTypes.Person",
						"members": [
							{
								"astId": 16,
								"contract": "contracts/ClassWork/practice_2.sol:DataTypes",
								"label": "name",
								"offset": 0,
								"slot": "0",
								"type": "t_string_storage"
							},
							{
								"astId": 18,
								"contract": "contracts/ClassWork/practice_2.sol:DataTypes",
								"label": "age",
								"offset": 0,
								"slot": "1",
								"type": "t_uint256"
							}
						],
						"numberOfBytes": "64"
					},
					"t_uint256": {
						"encoding": "inplace",
						"label": "uint256",
						"numberOfBytes": "32"
					},
					"t_uint8": {
						"encoding": "inplace",
						"label": "uint8",
						"numberOfBytes": "1"
					}
				}
			},
			"userdoc": {
				"kind": "user",
				"methods": {},
				"version": 1
			}
		}
	}
}