{
	"contracts/blockchainlearning/que8.sol": {
		"MyLibrary": {
			"abi": [
				{
					"inputs": [],
					"stateMutability": "nonpayable",
					"type": "constructor"
				},
				{
					"inputs": [
						{
							"internalType": "uint256",
							"name": "uid",
							"type": "uint256"
						},
						{
							"internalType": "string",
							"name": "_name",
							"type": "string"
						},
						{
							"internalType": "string",
							"name": "_joinDate",
							"type": "string"
						},
						{
							"internalType": "string",
							"name": "_Gender",
							"type": "string"
						}
					],
					"name": "RegisterMember",
					"outputs": [],
					"stateMutability": "nonpayable",
					"type": "function"
				},
				{
					"inputs": [
						{
							"internalType": "uint256",
							"name": "bookid",
							"type": "uint256"
						},
						{
							"internalType": "string",
							"name": "bName",
							"type": "string"
						}
					],
					"name": "addBook",
					"outputs": [],
					"stateMutability": "nonpayable",
					"type": "function"
				},
				{
					"inputs": [
						{
							"internalType": "uint256",
							"name": "",
							"type": "uint256"
						}
					],
					"name": "books",
					"outputs": [
						{
							"internalType": "bool",
							"name": "isAvailable",
							"type": "bool"
						},
						{
							"internalType": "string",
							"name": "BName",
							"type": "string"
						},
						{
							"internalType": "address",
							"name": "Borrower",
							"type": "address"
						}
					],
					"stateMutability": "view",
					"type": "function"
				},
				{
					"inputs": [
						{
							"internalType": "uint256",
							"name": "bookid",
							"type": "uint256"
						},
						{
							"internalType": "uint256",
							"name": "uid",
							"type": "uint256"
						}
					],
					"name": "borrowBook",
					"outputs": [],
					"stateMutability": "nonpayable",
					"type": "function"
				},
				{
					"inputs": [],
					"name": "librarian",
					"outputs": [
						{
							"internalType": "address",
							"name": "",
							"type": "address"
						}
					],
					"stateMutability": "view",
					"type": "function"
				},
				{
					"inputs": [
						{
							"internalType": "uint256",
							"name": "",
							"type": "uint256"
						}
					],
					"name": "members",
					"outputs": [
						{
							"internalType": "bool",
							"name": "isMember",
							"type": "bool"
						},
						{
							"components": [
								{
									"internalType": "string",
									"name": "MName",
									"type": "string"
								},
								{
									"internalType": "string",
									"name": "joinDate",
									"type": "string"
								},
								{
									"internalType": "string",
									"name": "MGender",
									"type": "string"
								}
							],
							"internalType": "struct MyLibrary.MemberDetails",
							"name": "details",
							"type": "tuple"
						},
						{
							"internalType": "uint256",
							"name": "OwnedbookBook",
							"type": "uint256"
						}
					],
					"stateMutability": "view",
					"type": "function"
				},
				{
					"inputs": [
						{
							"internalType": "uint256",
							"name": "bookid",
							"type": "uint256"
						},
						{
							"internalType": "uint256",
							"name": "uid",
							"type": "uint256"
						}
					],
					"name": "returnbook",
					"outputs": [],
					"stateMutability": "nonpayable",
					"type": "function"
				}
			],
			"devdoc": {
				"kind": "dev",
				"methods": {},
				"version": 1
			},
			"evm": {
				"assembly": "    /* \"contracts/blockchainlearning/que8.sol\":57:1887  contract MyLibrary {... */\n  mstore(0x40, 0x80)\n    /* \"contracts/blockchainlearning/que8.sol\":533:586  constructor() {... */\n  callvalue\n  dup1\n  iszero\n  tag_1\n  jumpi\n  0x00\n  dup1\n  revert\ntag_1:\n  pop\n    /* \"contracts/blockchainlearning/que8.sol\":569:579  msg.sender */\n  caller\n    /* \"contracts/blockchainlearning/que8.sol\":557:566  librarian */\n  0x00\n  dup1\n    /* \"contracts/blockchainlearning/que8.sol\":557:579  librarian = msg.sender */\n  0x0100\n  exp\n  dup2\n  sload\n  dup2\n  0xffffffffffffffffffffffffffffffffffffffff\n  mul\n  not\n  and\n  swap1\n  dup4\n  0xffffffffffffffffffffffffffffffffffffffff\n  and\n  mul\n  or\n  swap1\n  sstore\n  pop\n    /* \"contracts/blockchainlearning/que8.sol\":57:1887  contract MyLibrary {... */\n  dataSize(sub_0)\n  dup1\n  dataOffset(sub_0)\n  0x00\n  codecopy\n  0x00\n  return\nstop\n\nsub_0: assembly {\n        /* \"contracts/blockchainlearning/que8.sol\":57:1887  contract MyLibrary {... */\n      mstore(0x40, 0x80)\n      callvalue\n      dup1\n      iszero\n      tag_1\n      jumpi\n      0x00\n      dup1\n      revert\n    tag_1:\n      pop\n      jumpi(tag_2, lt(calldatasize, 0x04))\n      shr(0xe0, calldataload(0x00))\n      dup1\n      0x68744046\n      gt\n      tag_10\n      jumpi\n      dup1\n      0x68744046\n      eq\n      tag_6\n      jumpi\n      dup1\n      0x7930bd8b\n      eq\n      tag_7\n      jumpi\n      dup1\n      0x8f8261f8\n      eq\n      tag_8\n      jumpi\n      dup1\n      0xa437d45f\n      eq\n      tag_9\n      jumpi\n      jump(tag_2)\n    tag_10:\n      dup1\n      0x070cbe2a\n      eq\n      tag_3\n      jumpi\n      dup1\n      0x51f87964\n      eq\n      tag_4\n      jumpi\n      dup1\n      0x5daf08ca\n      eq\n      tag_5\n      jumpi\n    tag_2:\n      0x00\n      dup1\n      revert\n        /* \"contracts/blockchainlearning/que8.sol\":1054:1326  function addBook(uint256 bookid, string memory bName) public {... */\n    tag_3:\n      tag_11\n      0x04\n      dup1\n      calldatasize\n      sub\n      dup2\n      add\n      swap1\n      tag_12\n      swap2\n      swap1\n      tag_13\n      jump\t// in\n    tag_12:\n      tag_14\n      jump\t// in\n    tag_11:\n      stop\n        /* \"contracts/blockchainlearning/que8.sol\":1332:1589  function borrowBook(uint256 bookid, uint256 uid) public {... */\n    tag_4:\n      tag_15\n      0x04\n      dup1\n      calldatasize\n      sub\n      dup2\n      add\n      swap1\n      tag_16\n      swap2\n      swap1\n      tag_17\n      jump\t// in\n    tag_16:\n      tag_18\n      jump\t// in\n    tag_15:\n      stop\n        /* \"contracts/blockchainlearning/que8.sol\":485:526  mapping(uint256 => member) public members */\n    tag_5:\n      tag_19\n      0x04\n      dup1\n      calldatasize\n      sub\n      dup2\n      add\n      swap1\n      tag_20\n      swap2\n      swap1\n      tag_21\n      jump\t// in\n    tag_20:\n      tag_22\n      jump\t// in\n    tag_19:\n      mload(0x40)\n      tag_23\n      swap4\n      swap3\n      swap2\n      swap1\n      tag_24\n      jump\t// in\n    tag_23:\n      mload(0x40)\n      dup1\n      swap2\n      sub\n      swap1\n      return\n        /* \"contracts/blockchainlearning/que8.sol\":436:479  mapping(uint256 => bookDetail) public books */\n    tag_6:\n      tag_25\n      0x04\n      dup1\n      calldatasize\n      sub\n      dup2\n      add\n      swap1\n      tag_26\n      swap2\n      swap1\n      tag_21\n      jump\t// in\n    tag_26:\n      tag_27\n      jump\t// in\n    tag_25:\n      mload(0x40)\n      tag_28\n      swap4\n      swap3\n      swap2\n      swap1\n      tag_29\n      jump\t// in\n    tag_28:\n      mload(0x40)\n      dup1\n      swap2\n      sub\n      swap1\n      return\n        /* \"contracts/blockchainlearning/que8.sol\":1595:1885  function returnbook(uint256 bookid, uint256 uid) public {... */\n    tag_7:\n      tag_30\n      0x04\n      dup1\n      calldatasize\n      sub\n      dup2\n      add\n      swap1\n      tag_31\n      swap2\n      swap1\n      tag_17\n      jump\t// in\n    tag_31:\n      tag_32\n      jump\t// in\n    tag_30:\n      stop\n        /* \"contracts/blockchainlearning/que8.sol\":592:1048  function RegisterMember(... */\n    tag_8:\n      tag_33\n      0x04\n      dup1\n      calldatasize\n      sub\n      dup2\n      add\n      swap1\n      tag_34\n      swap2\n      swap1\n      tag_35\n      jump\t// in\n    tag_34:\n      tag_36\n      jump\t// in\n    tag_33:\n      stop\n        /* \"contracts/blockchainlearning/que8.sol\":82:106  address public librarian */\n    tag_9:\n      tag_37\n      tag_38\n      jump\t// in\n    tag_37:\n      mload(0x40)\n      tag_39\n      swap2\n      swap1\n      tag_40\n      jump\t// in\n    tag_39:\n      mload(0x40)\n      dup1\n      swap2\n      sub\n      swap1\n      return\n        /* \"contracts/blockchainlearning/que8.sol\":1054:1326  function addBook(uint256 bookid, string memory bName) public {... */\n    tag_14:\n        /* \"contracts/blockchainlearning/que8.sol\":1147:1156  librarian */\n      0x00\n      dup1\n      sload\n      swap1\n      0x0100\n      exp\n      swap1\n      div\n      0xffffffffffffffffffffffffffffffffffffffff\n      and\n        /* \"contracts/blockchainlearning/que8.sol\":1133:1156  msg.sender == librarian */\n      0xffffffffffffffffffffffffffffffffffffffff\n      and\n        /* \"contracts/blockchainlearning/que8.sol\":1133:1143  msg.sender */\n      caller\n        /* \"contracts/blockchainlearning/que8.sol\":1133:1156  msg.sender == librarian */\n      0xffffffffffffffffffffffffffffffffffffffff\n      and\n      eq\n        /* \"contracts/blockchainlearning/que8.sol\":1125:1182  require(msg.sender == librarian, \"You are not Librarian\") */\n      tag_42\n      jumpi\n      mload(0x40)\n      0x08c379a000000000000000000000000000000000000000000000000000000000\n      dup2\n      mstore\n      0x04\n      add\n      tag_43\n      swap1\n      tag_44\n      jump\t// in\n    tag_43:\n      mload(0x40)\n      dup1\n      swap2\n      sub\n      swap1\n      revert\n    tag_42:\n        /* \"contracts/blockchainlearning/que8.sol\":1192:1217  bookDetail memory newBook */\n      0x00\n        /* \"contracts/blockchainlearning/que8.sol\":1220:1286  bookDetail(true, bName,0x0000000000000000000000000000000000000000) */\n      mload(0x40)\n      dup1\n      0x60\n      add\n      0x40\n      mstore\n      dup1\n        /* \"contracts/blockchainlearning/que8.sol\":1231:1235  true */\n      0x01\n        /* \"contracts/blockchainlearning/que8.sol\":1220:1286  bookDetail(true, bName,0x0000000000000000000000000000000000000000) */\n      iszero\n      iszero\n      dup2\n      mstore\n      0x20\n      add\n        /* \"contracts/blockchainlearning/que8.sol\":1237:1242  bName */\n      dup4\n        /* \"contracts/blockchainlearning/que8.sol\":1220:1286  bookDetail(true, bName,0x0000000000000000000000000000000000000000) */\n      dup2\n      mstore\n      0x20\n      add\n        /* \"contracts/blockchainlearning/que8.sol\":1243:1285  0x0000000000000000000000000000000000000000 */\n      0x00\n        /* \"contracts/blockchainlearning/que8.sol\":1220:1286  bookDetail(true, bName,0x0000000000000000000000000000000000000000) */\n      0xffffffffffffffffffffffffffffffffffffffff\n      and\n      dup2\n      mstore\n      pop\n        /* \"contracts/blockchainlearning/que8.sol\":1192:1286  bookDetail memory newBook = bookDetail(true, bName,0x0000000000000000000000000000000000000000) */\n      swap1\n      pop\n        /* \"contracts/blockchainlearning/que8.sol\":1312:1319  newBook */\n      dup1\n        /* \"contracts/blockchainlearning/que8.sol\":1296:1301  books */\n      0x01\n        /* \"contracts/blockchainlearning/que8.sol\":1296:1309  books[bookid] */\n      0x00\n        /* \"contracts/blockchainlearning/que8.sol\":1302:1308  bookid */\n      dup6\n        /* \"contracts/blockchainlearning/que8.sol\":1296:1309  books[bookid] */\n      dup2\n      mstore\n      0x20\n      add\n      swap1\n      dup2\n      mstore\n      0x20\n      add\n      0x00\n      keccak256\n        /* \"contracts/blockchainlearning/que8.sol\":1296:1319  books[bookid] = newBook */\n      0x00\n      dup3\n      add\n      mload\n      dup2\n      0x00\n      add\n      exp(0x0100, 0x00)\n      dup2\n      sload\n      dup2\n      0xff\n      mul\n      not\n      and\n      swap1\n      dup4\n      iszero\n      iszero\n      mul\n      or\n      swap1\n      sstore\n      pop\n      0x20\n      dup3\n      add\n      mload\n      dup2\n      0x01\n      add\n      swap1\n      dup2\n      tag_45\n      swap2\n      swap1\n      tag_46\n      jump\t// in\n    tag_45:\n      pop\n      0x40\n      dup3\n      add\n      mload\n      dup2\n      0x02\n      add\n      exp(0x0100, 0x00)\n      dup2\n      sload\n      dup2\n      0xffffffffffffffffffffffffffffffffffffffff\n      mul\n      not\n      and\n      swap1\n      dup4\n      0xffffffffffffffffffffffffffffffffffffffff\n      and\n      mul\n      or\n      swap1\n      sstore\n      pop\n      swap1\n      pop\n      pop\n        /* \"contracts/blockchainlearning/que8.sol\":1115:1326  {... */\n      pop\n        /* \"contracts/blockchainlearning/que8.sol\":1054:1326  function addBook(uint256 bookid, string memory bName) public {... */\n      pop\n      pop\n      jump\t// out\n        /* \"contracts/blockchainlearning/que8.sol\":1332:1589  function borrowBook(uint256 bookid, uint256 uid) public {... */\n    tag_18:\n        /* \"contracts/blockchainlearning/que8.sol\":1420:1429  librarian */\n      0x00\n      dup1\n      sload\n      swap1\n      0x0100\n      exp\n      swap1\n      div\n      0xffffffffffffffffffffffffffffffffffffffff\n      and\n        /* \"contracts/blockchainlearning/que8.sol\":1406:1429  msg.sender != librarian */\n      0xffffffffffffffffffffffffffffffffffffffff\n      and\n        /* \"contracts/blockchainlearning/que8.sol\":1406:1416  msg.sender */\n      caller\n        /* \"contracts/blockchainlearning/que8.sol\":1406:1429  msg.sender != librarian */\n      0xffffffffffffffffffffffffffffffffffffffff\n      and\n      sub\n        /* \"contracts/blockchainlearning/que8.sol\":1398:1455  require(msg.sender != librarian, \"you are not permitted\") */\n      tag_48\n      jumpi\n      mload(0x40)\n      0x08c379a000000000000000000000000000000000000000000000000000000000\n      dup2\n      mstore\n      0x04\n      add\n      tag_49\n      swap1\n      tag_50\n      jump\t// in\n    tag_49:\n      mload(0x40)\n      dup1\n      swap2\n      sub\n      swap1\n      revert\n    tag_48:\n        /* \"contracts/blockchainlearning/que8.sol\":1493:1498  false */\n      0x00\n        /* \"contracts/blockchainlearning/que8.sol\":1465:1470  books */\n      0x01\n        /* \"contracts/blockchainlearning/que8.sol\":1465:1478  books[bookid] */\n      0x00\n        /* \"contracts/blockchainlearning/que8.sol\":1471:1477  bookid */\n      dup5\n        /* \"contracts/blockchainlearning/que8.sol\":1465:1478  books[bookid] */\n      dup2\n      mstore\n      0x20\n      add\n      swap1\n      dup2\n      mstore\n      0x20\n      add\n      0x00\n      keccak256\n        /* \"contracts/blockchainlearning/que8.sol\":1465:1490  books[bookid].isAvailable */\n      0x00\n      add\n      0x00\n        /* \"contracts/blockchainlearning/que8.sol\":1465:1498  books[bookid].isAvailable = false */\n      0x0100\n      exp\n      dup2\n      sload\n      dup2\n      0xff\n      mul\n      not\n      and\n      swap1\n      dup4\n      iszero\n      iszero\n      mul\n      or\n      swap1\n      sstore\n      pop\n        /* \"contracts/blockchainlearning/que8.sol\":1531:1541  msg.sender */\n      caller\n        /* \"contracts/blockchainlearning/que8.sol\":1508:1513  books */\n      0x01\n        /* \"contracts/blockchainlearning/que8.sol\":1508:1521  books[bookid] */\n      0x00\n        /* \"contracts/blockchainlearning/que8.sol\":1514:1520  bookid */\n      dup5\n        /* \"contracts/blockchainlearning/que8.sol\":1508:1521  books[bookid] */\n      dup2\n      mstore\n      0x20\n      add\n      swap1\n      dup2\n      mstore\n      0x20\n      add\n      0x00\n      keccak256\n        /* \"contracts/blockchainlearning/que8.sol\":1508:1530  books[bookid].Borrower */\n      0x02\n      add\n      0x00\n        /* \"contracts/blockchainlearning/que8.sol\":1508:1541  books[bookid].Borrower=msg.sender */\n      0x0100\n      exp\n      dup2\n      sload\n      dup2\n      0xffffffffffffffffffffffffffffffffffffffff\n      mul\n      not\n      and\n      swap1\n      dup4\n      0xffffffffffffffffffffffffffffffffffffffff\n      and\n      mul\n      or\n      swap1\n      sstore\n      pop\n        /* \"contracts/blockchainlearning/que8.sol\":1581:1582  1 */\n      0x01\n        /* \"contracts/blockchainlearning/que8.sol\":1551:1558  members */\n      0x02\n        /* \"contracts/blockchainlearning/que8.sol\":1551:1563  members[uid] */\n      0x00\n        /* \"contracts/blockchainlearning/que8.sol\":1559:1562  uid */\n      dup4\n        /* \"contracts/blockchainlearning/que8.sol\":1551:1563  members[uid] */\n      dup2\n      mstore\n      0x20\n      add\n      swap1\n      dup2\n      mstore\n      0x20\n      add\n      0x00\n      keccak256\n        /* \"contracts/blockchainlearning/que8.sol\":1551:1577  members[uid].OwnedbookBook */\n      0x04\n      add\n      0x00\n        /* \"contracts/blockchainlearning/que8.sol\":1551:1582  members[uid].OwnedbookBook += 1 */\n      dup3\n      dup3\n      sload\n      tag_51\n      swap2\n      swap1\n      tag_52\n      jump\t// in\n    tag_51:\n      swap3\n      pop\n      pop\n      dup2\n      swap1\n      sstore\n      pop\n        /* \"contracts/blockchainlearning/que8.sol\":1332:1589  function borrowBook(uint256 bookid, uint256 uid) public {... */\n      pop\n      pop\n      jump\t// out\n        /* \"contracts/blockchainlearning/que8.sol\":485:526  mapping(uint256 => member) public members */\n    tag_22:\n      mstore(0x20, 0x02)\n      dup1\n      0x00\n      mstore\n      keccak256(0x00, 0x40)\n      0x00\n      swap2\n      pop\n      swap1\n      pop\n      dup1\n      0x00\n      add\n      0x00\n      swap1\n      sload\n      swap1\n      0x0100\n      exp\n      swap1\n      div\n      0xff\n      and\n      swap1\n      dup1\n      0x01\n      add\n      mload(0x40)\n      dup1\n      0x60\n      add\n      0x40\n      mstore\n      swap1\n      dup2\n      0x00\n      dup3\n      add\n      dup1\n      sload\n      tag_53\n      swap1\n      tag_54\n      jump\t// in\n    tag_53:\n      dup1\n      0x1f\n      add\n      0x20\n      dup1\n      swap2\n      div\n      mul\n      0x20\n      add\n      mload(0x40)\n      swap1\n      dup2\n      add\n      0x40\n      mstore\n      dup1\n      swap3\n      swap2\n      swap1\n      dup2\n      dup2\n      mstore\n      0x20\n      add\n      dup3\n      dup1\n      sload\n      tag_55\n      swap1\n      tag_54\n      jump\t// in\n    tag_55:\n      dup1\n      iszero\n      tag_56\n      jumpi\n      dup1\n      0x1f\n      lt\n      tag_57\n      jumpi\n      0x0100\n      dup1\n      dup4\n      sload\n      div\n      mul\n      dup4\n      mstore\n      swap2\n      0x20\n      add\n      swap2\n      jump(tag_56)\n    tag_57:\n      dup3\n      add\n      swap2\n      swap1\n      0x00\n      mstore\n      keccak256(0x00, 0x20)\n      swap1\n    tag_58:\n      dup2\n      sload\n      dup2\n      mstore\n      swap1\n      0x01\n      add\n      swap1\n      0x20\n      add\n      dup1\n      dup4\n      gt\n      tag_58\n      jumpi\n      dup3\n      swap1\n      sub\n      0x1f\n      and\n      dup3\n      add\n      swap2\n    tag_56:\n      pop\n      pop\n      pop\n      pop\n      pop\n      dup2\n      mstore\n      0x20\n      add\n      0x01\n      dup3\n      add\n      dup1\n      sload\n      tag_59\n      swap1\n      tag_54\n      jump\t// in\n    tag_59:\n      dup1\n      0x1f\n      add\n      0x20\n      dup1\n      swap2\n      div\n      mul\n      0x20\n      add\n      mload(0x40)\n      swap1\n      dup2\n      add\n      0x40\n      mstore\n      dup1\n      swap3\n      swap2\n      swap1\n      dup2\n      dup2\n      mstore\n      0x20\n      add\n      dup3\n      dup1\n      sload\n      tag_60\n      swap1\n      tag_54\n      jump\t// in\n    tag_60:\n      dup1\n      iszero\n      tag_61\n      jumpi\n      dup1\n      0x1f\n      lt\n      tag_62\n      jumpi\n      0x0100\n      dup1\n      dup4\n      sload\n      div\n      mul\n      dup4\n      mstore\n      swap2\n      0x20\n      add\n      swap2\n      jump(tag_61)\n    tag_62:\n      dup3\n      add\n      swap2\n      swap1\n      0x00\n      mstore\n      keccak256(0x00, 0x20)\n      swap1\n    tag_63:\n      dup2\n      sload\n      dup2\n      mstore\n      swap1\n      0x01\n      add\n      swap1\n      0x20\n      add\n      dup1\n      dup4\n      gt\n      tag_63\n      jumpi\n      dup3\n      swap1\n      sub\n      0x1f\n      and\n      dup3\n      add\n      swap2\n    tag_61:\n      pop\n      pop\n      pop\n      pop\n      pop\n      dup2\n      mstore\n      0x20\n      add\n      0x02\n      dup3\n      add\n      dup1\n      sload\n      tag_64\n      swap1\n      tag_54\n      jump\t// in\n    tag_64:\n      dup1\n      0x1f\n      add\n      0x20\n      dup1\n      swap2\n      div\n      mul\n      0x20\n      add\n      mload(0x40)\n      swap1\n      dup2\n      add\n      0x40\n      mstore\n      dup1\n      swap3\n      swap2\n      swap1\n      dup2\n      dup2\n      mstore\n      0x20\n      add\n      dup3\n      dup1\n      sload\n      tag_65\n      swap1\n      tag_54\n      jump\t// in\n    tag_65:\n      dup1\n      iszero\n      tag_66\n      jumpi\n      dup1\n      0x1f\n      lt\n      tag_67\n      jumpi\n      0x0100\n      dup1\n      dup4\n      sload\n      div\n      mul\n      dup4\n      mstore\n      swap2\n      0x20\n      add\n      swap2\n      jump(tag_66)\n    tag_67:\n      dup3\n      add\n      swap2\n      swap1\n      0x00\n      mstore\n      keccak256(0x00, 0x20)\n      swap1\n    tag_68:\n      dup2\n      sload\n      dup2\n      mstore\n      swap1\n      0x01\n      add\n      swap1\n      0x20\n      add\n      dup1\n      dup4\n      gt\n      tag_68\n      jumpi\n      dup3\n      swap1\n      sub\n      0x1f\n      and\n      dup3\n      add\n      swap2\n    tag_66:\n      pop\n      pop\n      pop\n      pop\n      pop\n      dup2\n      mstore\n      pop\n      pop\n      swap1\n      dup1\n      0x04\n      add\n      sload\n      swap1\n      pop\n      dup4\n      jump\t// out\n        /* \"contracts/blockchainlearning/que8.sol\":436:479  mapping(uint256 => bookDetail) public books */\n    tag_27:\n      mstore(0x20, 0x01)\n      dup1\n      0x00\n      mstore\n      keccak256(0x00, 0x40)\n      0x00\n      swap2\n      pop\n      swap1\n      pop\n      dup1\n      0x00\n      add\n      0x00\n      swap1\n      sload\n      swap1\n      0x0100\n      exp\n      swap1\n      div\n      0xff\n      and\n      swap1\n      dup1\n      0x01\n      add\n      dup1\n      sload\n      tag_69\n      swap1\n      tag_54\n      jump\t// in\n    tag_69:\n      dup1\n      0x1f\n      add\n      0x20\n      dup1\n      swap2\n      div\n      mul\n      0x20\n      add\n      mload(0x40)\n      swap1\n      dup2\n      add\n      0x40\n      mstore\n      dup1\n      swap3\n      swap2\n      swap1\n      dup2\n      dup2\n      mstore\n      0x20\n      add\n      dup3\n      dup1\n      sload\n      tag_70\n      swap1\n      tag_54\n      jump\t// in\n    tag_70:\n      dup1\n      iszero\n      tag_71\n      jumpi\n      dup1\n      0x1f\n      lt\n      tag_72\n      jumpi\n      0x0100\n      dup1\n      dup4\n      sload\n      div\n      mul\n      dup4\n      mstore\n      swap2\n      0x20\n      add\n      swap2\n      jump(tag_71)\n    tag_72:\n      dup3\n      add\n      swap2\n      swap1\n      0x00\n      mstore\n      keccak256(0x00, 0x20)\n      swap1\n    tag_73:\n      dup2\n      sload\n      dup2\n      mstore\n      swap1\n      0x01\n      add\n      swap1\n      0x20\n      add\n      dup1\n      dup4\n      gt\n      tag_73\n      jumpi\n      dup3\n      swap1\n      sub\n      0x1f\n      and\n      dup3\n      add\n      swap2\n    tag_71:\n      pop\n      pop\n      pop\n      pop\n      pop\n      swap1\n      dup1\n      0x02\n      add\n      0x00\n      swap1\n      sload\n      swap1\n      0x0100\n      exp\n      swap1\n      div\n      0xffffffffffffffffffffffffffffffffffffffff\n      and\n      swap1\n      pop\n      dup4\n      jump\t// out\n        /* \"contracts/blockchainlearning/que8.sol\":1595:1885  function returnbook(uint256 bookid, uint256 uid) public {... */\n    tag_32:\n        /* \"contracts/blockchainlearning/que8.sol\":1683:1692  librarian */\n      0x00\n      dup1\n      sload\n      swap1\n      0x0100\n      exp\n      swap1\n      div\n      0xffffffffffffffffffffffffffffffffffffffff\n      and\n        /* \"contracts/blockchainlearning/que8.sol\":1669:1692  msg.sender != librarian */\n      0xffffffffffffffffffffffffffffffffffffffff\n      and\n        /* \"contracts/blockchainlearning/que8.sol\":1669:1679  msg.sender */\n      caller\n        /* \"contracts/blockchainlearning/que8.sol\":1669:1692  msg.sender != librarian */\n      0xffffffffffffffffffffffffffffffffffffffff\n      and\n      sub\n        /* \"contracts/blockchainlearning/que8.sol\":1661:1718  require(msg.sender != librarian, \"you are not permitted\") */\n      tag_75\n      jumpi\n      mload(0x40)\n      0x08c379a000000000000000000000000000000000000000000000000000000000\n      dup2\n      mstore\n      0x04\n      add\n      tag_76\n      swap1\n      tag_50\n      jump\t// in\n    tag_76:\n      mload(0x40)\n      dup1\n      swap2\n      sub\n      swap1\n      revert\n    tag_75:\n        /* \"contracts/blockchainlearning/que8.sol\":1760:1770  msg.sender */\n      caller\n        /* \"contracts/blockchainlearning/que8.sol\":1736:1770  books[bookid].Borrower==msg.sender */\n      0xffffffffffffffffffffffffffffffffffffffff\n      and\n        /* \"contracts/blockchainlearning/que8.sol\":1736:1741  books */\n      0x01\n        /* \"contracts/blockchainlearning/que8.sol\":1736:1749  books[bookid] */\n      0x00\n        /* \"contracts/blockchainlearning/que8.sol\":1742:1748  bookid */\n      dup5\n        /* \"contracts/blockchainlearning/que8.sol\":1736:1749  books[bookid] */\n      dup2\n      mstore\n      0x20\n      add\n      swap1\n      dup2\n      mstore\n      0x20\n      add\n      0x00\n      keccak256\n        /* \"contracts/blockchainlearning/que8.sol\":1736:1758  books[bookid].Borrower */\n      0x02\n      add\n      0x00\n      swap1\n      sload\n      swap1\n      0x0100\n      exp\n      swap1\n      div\n      0xffffffffffffffffffffffffffffffffffffffff\n      and\n        /* \"contracts/blockchainlearning/que8.sol\":1736:1770  books[bookid].Borrower==msg.sender */\n      0xffffffffffffffffffffffffffffffffffffffff\n      and\n      eq\n        /* \"contracts/blockchainlearning/que8.sol\":1728:1795  require(books[bookid].Borrower==msg.sender,\"you have no real book\") */\n      tag_77\n      jumpi\n      mload(0x40)\n      0x08c379a000000000000000000000000000000000000000000000000000000000\n      dup2\n      mstore\n      0x04\n      add\n      tag_78\n      swap1\n      tag_79\n      jump\t// in\n    tag_78:\n      mload(0x40)\n      dup1\n      swap2\n      sub\n      swap1\n      revert\n    tag_77:\n        /* \"contracts/blockchainlearning/que8.sol\":1833:1837  true */\n      0x01\n        /* \"contracts/blockchainlearning/que8.sol\":1805:1810  books */\n      dup1\n        /* \"contracts/blockchainlearning/que8.sol\":1805:1818  books[bookid] */\n      0x00\n        /* \"contracts/blockchainlearning/que8.sol\":1811:1817  bookid */\n      dup5\n        /* \"contracts/blockchainlearning/que8.sol\":1805:1818  books[bookid] */\n      dup2\n      mstore\n      0x20\n      add\n      swap1\n      dup2\n      mstore\n      0x20\n      add\n      0x00\n      keccak256\n        /* \"contracts/blockchainlearning/que8.sol\":1805:1830  books[bookid].isAvailable */\n      0x00\n      add\n      0x00\n        /* \"contracts/blockchainlearning/que8.sol\":1805:1837  books[bookid].isAvailable = true */\n      0x0100\n      exp\n      dup2\n      sload\n      dup2\n      0xff\n      mul\n      not\n      and\n      swap1\n      dup4\n      iszero\n      iszero\n      mul\n      or\n      swap1\n      sstore\n      pop\n        /* \"contracts/blockchainlearning/que8.sol\":1877:1878  1 */\n      0x01\n        /* \"contracts/blockchainlearning/que8.sol\":1847:1854  members */\n      0x02\n        /* \"contracts/blockchainlearning/que8.sol\":1847:1859  members[uid] */\n      0x00\n        /* \"contracts/blockchainlearning/que8.sol\":1855:1858  uid */\n      dup4\n        /* \"contracts/blockchainlearning/que8.sol\":1847:1859  members[uid] */\n      dup2\n      mstore\n      0x20\n      add\n      swap1\n      dup2\n      mstore\n      0x20\n      add\n      0x00\n      keccak256\n        /* \"contracts/blockchainlearning/que8.sol\":1847:1873  members[uid].OwnedbookBook */\n      0x04\n      add\n      0x00\n        /* \"contracts/blockchainlearning/que8.sol\":1847:1878  members[uid].OwnedbookBook -= 1 */\n      dup3\n      dup3\n      sload\n      tag_80\n      swap2\n      swap1\n      tag_81\n      jump\t// in\n    tag_80:\n      swap3\n      pop\n      pop\n      dup2\n      swap1\n      sstore\n      pop\n        /* \"contracts/blockchainlearning/que8.sol\":1595:1885  function returnbook(uint256 bookid, uint256 uid) public {... */\n      pop\n      pop\n      jump\t// out\n        /* \"contracts/blockchainlearning/que8.sol\":592:1048  function RegisterMember(... */\n    tag_36:\n        /* \"contracts/blockchainlearning/que8.sol\":775:784  librarian */\n      0x00\n      dup1\n      sload\n      swap1\n      0x0100\n      exp\n      swap1\n      div\n      0xffffffffffffffffffffffffffffffffffffffff\n      and\n        /* \"contracts/blockchainlearning/que8.sol\":761:784  msg.sender != librarian */\n      0xffffffffffffffffffffffffffffffffffffffff\n      and\n        /* \"contracts/blockchainlearning/que8.sol\":761:771  msg.sender */\n      caller\n        /* \"contracts/blockchainlearning/que8.sol\":761:784  msg.sender != librarian */\n      0xffffffffffffffffffffffffffffffffffffffff\n      and\n      sub\n        /* \"contracts/blockchainlearning/que8.sol\":753:808  require(msg.sender != librarian, \"you are not allowed\") */\n      tag_83\n      jumpi\n      mload(0x40)\n      0x08c379a000000000000000000000000000000000000000000000000000000000\n      dup2\n      mstore\n      0x04\n      add\n      tag_84\n      swap1\n      tag_85\n      jump\t// in\n    tag_84:\n      mload(0x40)\n      dup1\n      swap2\n      sub\n      swap1\n      revert\n    tag_83:\n        /* \"contracts/blockchainlearning/que8.sol\":818:852  MemberDetails memory memberdetails */\n      0x00\n        /* \"contracts/blockchainlearning/que8.sol\":855:941  MemberDetails(... */\n      mload(0x40)\n      dup1\n      0x60\n      add\n      0x40\n      mstore\n      dup1\n        /* \"contracts/blockchainlearning/que8.sol\":882:887  _name */\n      dup6\n        /* \"contracts/blockchainlearning/que8.sol\":855:941  MemberDetails(... */\n      dup2\n      mstore\n      0x20\n      add\n        /* \"contracts/blockchainlearning/que8.sol\":901:910  _joinDate */\n      dup5\n        /* \"contracts/blockchainlearning/que8.sol\":855:941  MemberDetails(... */\n      dup2\n      mstore\n      0x20\n      add\n        /* \"contracts/blockchainlearning/que8.sol\":924:931  _Gender */\n      dup4\n        /* \"contracts/blockchainlearning/que8.sol\":855:941  MemberDetails(... */\n      dup2\n      mstore\n      pop\n        /* \"contracts/blockchainlearning/que8.sol\":818:941  MemberDetails memory memberdetails = MemberDetails(... */\n      swap1\n      pop\n        /* \"contracts/blockchainlearning/que8.sol\":951:974  member memory newmember */\n      0x00\n        /* \"contracts/blockchainlearning/que8.sol\":977:1007  member(true, memberdetails, 0) */\n      mload(0x40)\n      dup1\n      0x60\n      add\n      0x40\n      mstore\n      dup1\n        /* \"contracts/blockchainlearning/que8.sol\":984:988  true */\n      0x01\n        /* \"contracts/blockchainlearning/que8.sol\":977:1007  member(true, memberdetails, 0) */\n      iszero\n      iszero\n      dup2\n      mstore\n      0x20\n      add\n        /* \"contracts/blockchainlearning/que8.sol\":990:1003  memberdetails */\n      dup4\n        /* \"contracts/blockchainlearning/que8.sol\":977:1007  member(true, memberdetails, 0) */\n      dup2\n      mstore\n      0x20\n      add\n        /* \"contracts/blockchainlearning/que8.sol\":1005:1006  0 */\n      0x00\n        /* \"contracts/blockchainlearning/que8.sol\":977:1007  member(true, memberdetails, 0) */\n      dup2\n      mstore\n      pop\n        /* \"contracts/blockchainlearning/que8.sol\":951:1007  member memory newmember = member(true, memberdetails, 0) */\n      swap1\n      pop\n        /* \"contracts/blockchainlearning/que8.sol\":1032:1041  newmember */\n      dup1\n        /* \"contracts/blockchainlearning/que8.sol\":1017:1024  members */\n      0x02\n        /* \"contracts/blockchainlearning/que8.sol\":1017:1029  members[uid] */\n      0x00\n        /* \"contracts/blockchainlearning/que8.sol\":1025:1028  uid */\n      dup9\n        /* \"contracts/blockchainlearning/que8.sol\":1017:1029  members[uid] */\n      dup2\n      mstore\n      0x20\n      add\n      swap1\n      dup2\n      mstore\n      0x20\n      add\n      0x00\n      keccak256\n        /* \"contracts/blockchainlearning/que8.sol\":1017:1041  members[uid] = newmember */\n      0x00\n      dup3\n      add\n      mload\n      dup2\n      0x00\n      add\n      exp(0x0100, 0x00)\n      dup2\n      sload\n      dup2\n      0xff\n      mul\n      not\n      and\n      swap1\n      dup4\n      iszero\n      iszero\n      mul\n      or\n      swap1\n      sstore\n      pop\n      0x20\n      dup3\n      add\n      mload\n      dup2\n      0x01\n      add\n      0x00\n      dup3\n      add\n      mload\n      dup2\n      0x00\n      add\n      swap1\n      dup2\n      tag_86\n      swap2\n      swap1\n      tag_46\n      jump\t// in\n    tag_86:\n      pop\n      0x20\n      dup3\n      add\n      mload\n      dup2\n      0x01\n      add\n      swap1\n      dup2\n      tag_87\n      swap2\n      swap1\n      tag_46\n      jump\t// in\n    tag_87:\n      pop\n      0x40\n      dup3\n      add\n      mload\n      dup2\n      0x02\n      add\n      swap1\n      dup2\n      tag_88\n      swap2\n      swap1\n      tag_46\n      jump\t// in\n    tag_88:\n      pop\n      pop\n      pop\n      0x40\n      dup3\n      add\n      mload\n      dup2\n      0x04\n      add\n      sstore\n      swap1\n      pop\n      pop\n        /* \"contracts/blockchainlearning/que8.sol\":743:1048  {... */\n      pop\n      pop\n        /* \"contracts/blockchainlearning/que8.sol\":592:1048  function RegisterMember(... */\n      pop\n      pop\n      pop\n      pop\n      jump\t// out\n        /* \"contracts/blockchainlearning/que8.sol\":82:106  address public librarian */\n    tag_38:\n      0x00\n      dup1\n      sload\n      swap1\n      0x0100\n      exp\n      swap1\n      div\n      0xffffffffffffffffffffffffffffffffffffffff\n      and\n      dup2\n      jump\t// out\n        /* \"#utility.yul\":7:82   */\n    tag_89:\n        /* \"#utility.yul\":40:46   */\n      0x00\n        /* \"#utility.yul\":73:75   */\n      0x40\n        /* \"#utility.yul\":67:76   */\n      mload\n        /* \"#utility.yul\":57:76   */\n      swap1\n      pop\n        /* \"#utility.yul\":7:82   */\n      swap1\n      jump\t// out\n        /* \"#utility.yul\":88:205   */\n    tag_90:\n        /* \"#utility.yul\":197:198   */\n      0x00\n        /* \"#utility.yul\":194:195   */\n      dup1\n        /* \"#utility.yul\":187:199   */\n      revert\n        /* \"#utility.yul\":211:328   */\n    tag_91:\n        /* \"#utility.yul\":320:321   */\n      0x00\n        /* \"#utility.yul\":317:318   */\n      dup1\n        /* \"#utility.yul\":310:322   */\n      revert\n        /* \"#utility.yul\":334:411   */\n    tag_92:\n        /* \"#utility.yul\":371:378   */\n      0x00\n        /* \"#utility.yul\":400:405   */\n      dup2\n        /* \"#utility.yul\":389:405   */\n      swap1\n      pop\n        /* \"#utility.yul\":334:411   */\n      swap2\n      swap1\n      pop\n      jump\t// out\n        /* \"#utility.yul\":417:539   */\n    tag_93:\n        /* \"#utility.yul\":490:514   */\n      tag_149\n        /* \"#utility.yul\":508:513   */\n      dup2\n        /* \"#utility.yul\":490:514   */\n      tag_92\n      jump\t// in\n    tag_149:\n        /* \"#utility.yul\":483:488   */\n      dup2\n        /* \"#utility.yul\":480:515   */\n      eq\n        /* \"#utility.yul\":470:533   */\n      tag_150\n      jumpi\n        /* \"#utility.yul\":529:530   */\n      0x00\n        /* \"#utility.yul\":526:527   */\n      dup1\n        /* \"#utility.yul\":519:531   */\n      revert\n        /* \"#utility.yul\":470:533   */\n    tag_150:\n        /* \"#utility.yul\":417:539   */\n      pop\n      jump\t// out\n        /* \"#utility.yul\":545:684   */\n    tag_94:\n        /* \"#utility.yul\":591:596   */\n      0x00\n        /* \"#utility.yul\":629:635   */\n      dup2\n        /* \"#utility.yul\":616:636   */\n      calldataload\n        /* \"#utility.yul\":607:636   */\n      swap1\n      pop\n        /* \"#utility.yul\":645:678   */\n      tag_152\n        /* \"#utility.yul\":672:677   */\n      dup2\n        /* \"#utility.yul\":645:678   */\n      tag_93\n      jump\t// in\n    tag_152:\n        /* \"#utility.yul\":545:684   */\n      swap3\n      swap2\n      pop\n      pop\n      jump\t// out\n        /* \"#utility.yul\":690:807   */\n    tag_95:\n        /* \"#utility.yul\":799:800   */\n      0x00\n        /* \"#utility.yul\":796:797   */\n      dup1\n        /* \"#utility.yul\":789:801   */\n      revert\n        /* \"#utility.yul\":813:930   */\n    tag_96:\n        /* \"#utility.yul\":922:923   */\n      0x00\n        /* \"#utility.yul\":919:920   */\n      dup1\n        /* \"#utility.yul\":912:924   */\n      revert\n        /* \"#utility.yul\":936:1038   */\n    tag_97:\n        /* \"#utility.yul\":977:983   */\n      0x00\n        /* \"#utility.yul\":1028:1030   */\n      0x1f\n        /* \"#utility.yul\":1024:1031   */\n      not\n        /* \"#utility.yul\":1019:1021   */\n      0x1f\n        /* \"#utility.yul\":1012:1017   */\n      dup4\n        /* \"#utility.yul\":1008:1022   */\n      add\n        /* \"#utility.yul\":1004:1032   */\n      and\n        /* \"#utility.yul\":994:1032   */\n      swap1\n      pop\n        /* \"#utility.yul\":936:1038   */\n      swap2\n      swap1\n      pop\n      jump\t// out\n        /* \"#utility.yul\":1044:1224   */\n    tag_98:\n        /* \"#utility.yul\":1092:1169   */\n      0x4e487b7100000000000000000000000000000000000000000000000000000000\n        /* \"#utility.yul\":1089:1090   */\n      0x00\n        /* \"#utility.yul\":1082:1170   */\n      mstore\n        /* \"#utility.yul\":1189:1193   */\n      0x41\n        /* \"#utility.yul\":1186:1187   */\n      0x04\n        /* \"#utility.yul\":1179:1194   */\n      mstore\n        /* \"#utility.yul\":1213:1217   */\n      0x24\n        /* \"#utility.yul\":1210:1211   */\n      0x00\n        /* \"#utility.yul\":1203:1218   */\n      revert\n        /* \"#utility.yul\":1230:1511   */\n    tag_99:\n        /* \"#utility.yul\":1313:1340   */\n      tag_158\n        /* \"#utility.yul\":1335:1339   */\n      dup3\n        /* \"#utility.yul\":1313:1340   */\n      tag_97\n      jump\t// in\n    tag_158:\n        /* \"#utility.yul\":1305:1311   */\n      dup2\n        /* \"#utility.yul\":1301:1341   */\n      add\n        /* \"#utility.yul\":1443:1449   */\n      dup2\n        /* \"#utility.yul\":1431:1441   */\n      dup2\n        /* \"#utility.yul\":1428:1450   */\n      lt\n        /* \"#utility.yul\":1407:1425   */\n      0xffffffffffffffff\n        /* \"#utility.yul\":1395:1405   */\n      dup3\n        /* \"#utility.yul\":1392:1426   */\n      gt\n        /* \"#utility.yul\":1389:1451   */\n      or\n        /* \"#utility.yul\":1386:1474   */\n      iszero\n      tag_159\n      jumpi\n        /* \"#utility.yul\":1454:1472   */\n      tag_160\n      tag_98\n      jump\t// in\n    tag_160:\n        /* \"#utility.yul\":1386:1474   */\n    tag_159:\n        /* \"#utility.yul\":1494:1504   */\n      dup1\n        /* \"#utility.yul\":1490:1492   */\n      0x40\n        /* \"#utility.yul\":1483:1505   */\n      mstore\n        /* \"#utility.yul\":1273:1511   */\n      pop\n        /* \"#utility.yul\":1230:1511   */\n      pop\n      pop\n      jump\t// out\n        /* \"#utility.yul\":1517:1646   */\n    tag_100:\n        /* \"#utility.yul\":1551:1557   */\n      0x00\n        /* \"#utility.yul\":1578:1598   */\n      tag_162\n      tag_89\n      jump\t// in\n    tag_162:\n        /* \"#utility.yul\":1568:1598   */\n      swap1\n      pop\n        /* \"#utility.yul\":1607:1640   */\n      tag_163\n        /* \"#utility.yul\":1635:1639   */\n      dup3\n        /* \"#utility.yul\":1627:1633   */\n      dup3\n        /* \"#utility.yul\":1607:1640   */\n      tag_99\n      jump\t// in\n    tag_163:\n        /* \"#utility.yul\":1517:1646   */\n      swap2\n      swap1\n      pop\n      jump\t// out\n        /* \"#utility.yul\":1652:1960   */\n    tag_101:\n        /* \"#utility.yul\":1714:1718   */\n      0x00\n        /* \"#utility.yul\":1804:1822   */\n      0xffffffffffffffff\n        /* \"#utility.yul\":1796:1802   */\n      dup3\n        /* \"#utility.yul\":1793:1823   */\n      gt\n        /* \"#utility.yul\":1790:1846   */\n      iszero\n      tag_165\n      jumpi\n        /* \"#utility.yul\":1826:1844   */\n      tag_166\n      tag_98\n      jump\t// in\n    tag_166:\n        /* \"#utility.yul\":1790:1846   */\n    tag_165:\n        /* \"#utility.yul\":1864:1893   */\n      tag_167\n        /* \"#utility.yul\":1886:1892   */\n      dup3\n        /* \"#utility.yul\":1864:1893   */\n      tag_97\n      jump\t// in\n    tag_167:\n        /* \"#utility.yul\":1856:1893   */\n      swap1\n      pop\n        /* \"#utility.yul\":1948:1952   */\n      0x20\n        /* \"#utility.yul\":1942:1946   */\n      dup2\n        /* \"#utility.yul\":1938:1953   */\n      add\n        /* \"#utility.yul\":1930:1953   */\n      swap1\n      pop\n        /* \"#utility.yul\":1652:1960   */\n      swap2\n      swap1\n      pop\n      jump\t// out\n        /* \"#utility.yul\":1966:2112   */\n    tag_102:\n        /* \"#utility.yul\":2063:2069   */\n      dup3\n        /* \"#utility.yul\":2058:2061   */\n      dup2\n        /* \"#utility.yul\":2053:2056   */\n      dup4\n        /* \"#utility.yul\":2040:2070   */\n      calldatacopy\n        /* \"#utility.yul\":2104:2105   */\n      0x00\n        /* \"#utility.yul\":2095:2101   */\n      dup4\n        /* \"#utility.yul\":2090:2093   */\n      dup4\n        /* \"#utility.yul\":2086:2102   */\n      add\n        /* \"#utility.yul\":2079:2106   */\n      mstore\n        /* \"#utility.yul\":1966:2112   */\n      pop\n      pop\n      pop\n      jump\t// out\n        /* \"#utility.yul\":2118:2543   */\n    tag_103:\n        /* \"#utility.yul\":2196:2201   */\n      0x00\n        /* \"#utility.yul\":2221:2287   */\n      tag_170\n        /* \"#utility.yul\":2237:2286   */\n      tag_171\n        /* \"#utility.yul\":2279:2285   */\n      dup5\n        /* \"#utility.yul\":2237:2286   */\n      tag_101\n      jump\t// in\n    tag_171:\n        /* \"#utility.yul\":2221:2287   */\n      tag_100\n      jump\t// in\n    tag_170:\n        /* \"#utility.yul\":2212:2287   */\n      swap1\n      pop\n        /* \"#utility.yul\":2310:2316   */\n      dup3\n        /* \"#utility.yul\":2303:2308   */\n      dup2\n        /* \"#utility.yul\":2296:2317   */\n      mstore\n        /* \"#utility.yul\":2348:2352   */\n      0x20\n        /* \"#utility.yul\":2341:2346   */\n      dup2\n        /* \"#utility.yul\":2337:2353   */\n      add\n        /* \"#utility.yul\":2386:2389   */\n      dup5\n        /* \"#utility.yul\":2377:2383   */\n      dup5\n        /* \"#utility.yul\":2372:2375   */\n      dup5\n        /* \"#utility.yul\":2368:2384   */\n      add\n        /* \"#utility.yul\":2365:2390   */\n      gt\n        /* \"#utility.yul\":2362:2474   */\n      iszero\n      tag_172\n      jumpi\n        /* \"#utility.yul\":2393:2472   */\n      tag_173\n      tag_96\n      jump\t// in\n    tag_173:\n        /* \"#utility.yul\":2362:2474   */\n    tag_172:\n        /* \"#utility.yul\":2483:2537   */\n      tag_174\n        /* \"#utility.yul\":2530:2536   */\n      dup5\n        /* \"#utility.yul\":2525:2528   */\n      dup3\n        /* \"#utility.yul\":2520:2523   */\n      dup6\n        /* \"#utility.yul\":2483:2537   */\n      tag_102\n      jump\t// in\n    tag_174:\n        /* \"#utility.yul\":2202:2543   */\n      pop\n        /* \"#utility.yul\":2118:2543   */\n      swap4\n      swap3\n      pop\n      pop\n      pop\n      jump\t// out\n        /* \"#utility.yul\":2563:2903   */\n    tag_104:\n        /* \"#utility.yul\":2619:2624   */\n      0x00\n        /* \"#utility.yul\":2668:2671   */\n      dup3\n        /* \"#utility.yul\":2661:2665   */\n      0x1f\n        /* \"#utility.yul\":2653:2659   */\n      dup4\n        /* \"#utility.yul\":2649:2666   */\n      add\n        /* \"#utility.yul\":2645:2672   */\n      slt\n        /* \"#utility.yul\":2635:2757   */\n      tag_176\n      jumpi\n        /* \"#utility.yul\":2676:2755   */\n      tag_177\n      tag_95\n      jump\t// in\n    tag_177:\n        /* \"#utility.yul\":2635:2757   */\n    tag_176:\n        /* \"#utility.yul\":2793:2799   */\n      dup2\n        /* \"#utility.yul\":2780:2800   */\n      calldataload\n        /* \"#utility.yul\":2818:2897   */\n      tag_178\n        /* \"#utility.yul\":2893:2896   */\n      dup5\n        /* \"#utility.yul\":2885:2891   */\n      dup3\n        /* \"#utility.yul\":2878:2882   */\n      0x20\n        /* \"#utility.yul\":2870:2876   */\n      dup7\n        /* \"#utility.yul\":2866:2883   */\n      add\n        /* \"#utility.yul\":2818:2897   */\n      tag_103\n      jump\t// in\n    tag_178:\n        /* \"#utility.yul\":2809:2897   */\n      swap2\n      pop\n        /* \"#utility.yul\":2625:2903   */\n      pop\n        /* \"#utility.yul\":2563:2903   */\n      swap3\n      swap2\n      pop\n      pop\n      jump\t// out\n        /* \"#utility.yul\":2909:3563   */\n    tag_13:\n        /* \"#utility.yul\":2987:2993   */\n      0x00\n        /* \"#utility.yul\":2995:3001   */\n      dup1\n        /* \"#utility.yul\":3044:3046   */\n      0x40\n        /* \"#utility.yul\":3032:3041   */\n      dup4\n        /* \"#utility.yul\":3023:3030   */\n      dup6\n        /* \"#utility.yul\":3019:3042   */\n      sub\n        /* \"#utility.yul\":3015:3047   */\n      slt\n        /* \"#utility.yul\":3012:3131   */\n      iszero\n      tag_180\n      jumpi\n        /* \"#utility.yul\":3050:3129   */\n      tag_181\n      tag_90\n      jump\t// in\n    tag_181:\n        /* \"#utility.yul\":3012:3131   */\n    tag_180:\n        /* \"#utility.yul\":3170:3171   */\n      0x00\n        /* \"#utility.yul\":3195:3248   */\n      tag_182\n        /* \"#utility.yul\":3240:3247   */\n      dup6\n        /* \"#utility.yul\":3231:3237   */\n      dup3\n        /* \"#utility.yul\":3220:3229   */\n      dup7\n        /* \"#utility.yul\":3216:3238   */\n      add\n        /* \"#utility.yul\":3195:3248   */\n      tag_94\n      jump\t// in\n    tag_182:\n        /* \"#utility.yul\":3185:3248   */\n      swap3\n      pop\n        /* \"#utility.yul\":3141:3258   */\n      pop\n        /* \"#utility.yul\":3325:3327   */\n      0x20\n        /* \"#utility.yul\":3314:3323   */\n      dup4\n        /* \"#utility.yul\":3310:3328   */\n      add\n        /* \"#utility.yul\":3297:3329   */\n      calldataload\n        /* \"#utility.yul\":3356:3374   */\n      0xffffffffffffffff\n        /* \"#utility.yul\":3348:3354   */\n      dup2\n        /* \"#utility.yul\":3345:3375   */\n      gt\n        /* \"#utility.yul\":3342:3459   */\n      iszero\n      tag_183\n      jumpi\n        /* \"#utility.yul\":3378:3457   */\n      tag_184\n      tag_91\n      jump\t// in\n    tag_184:\n        /* \"#utility.yul\":3342:3459   */\n    tag_183:\n        /* \"#utility.yul\":3483:3546   */\n      tag_185\n        /* \"#utility.yul\":3538:3545   */\n      dup6\n        /* \"#utility.yul\":3529:3535   */\n      dup3\n        /* \"#utility.yul\":3518:3527   */\n      dup7\n        /* \"#utility.yul\":3514:3536   */\n      add\n        /* \"#utility.yul\":3483:3546   */\n      tag_104\n      jump\t// in\n    tag_185:\n        /* \"#utility.yul\":3473:3546   */\n      swap2\n      pop\n        /* \"#utility.yul\":3268:3556   */\n      pop\n        /* \"#utility.yul\":2909:3563   */\n      swap3\n      pop\n      swap3\n      swap1\n      pop\n      jump\t// out\n        /* \"#utility.yul\":3569:4043   */\n    tag_17:\n        /* \"#utility.yul\":3637:3643   */\n      0x00\n        /* \"#utility.yul\":3645:3651   */\n      dup1\n        /* \"#utility.yul\":3694:3696   */\n      0x40\n        /* \"#utility.yul\":3682:3691   */\n      dup4\n        /* \"#utility.yul\":3673:3680   */\n      dup6\n        /* \"#utility.yul\":3669:3692   */\n      sub\n        /* \"#utility.yul\":3665:3697   */\n      slt\n        /* \"#utility.yul\":3662:3781   */\n      iszero\n      tag_187\n      jumpi\n        /* \"#utility.yul\":3700:3779   */\n      tag_188\n      tag_90\n      jump\t// in\n    tag_188:\n        /* \"#utility.yul\":3662:3781   */\n    tag_187:\n        /* \"#utility.yul\":3820:3821   */\n      0x00\n        /* \"#utility.yul\":3845:3898   */\n      tag_189\n        /* \"#utility.yul\":3890:3897   */\n      dup6\n        /* \"#utility.yul\":3881:3887   */\n      dup3\n        /* \"#utility.yul\":3870:3879   */\n      dup7\n        /* \"#utility.yul\":3866:3888   */\n      add\n        /* \"#utility.yul\":3845:3898   */\n      tag_94\n      jump\t// in\n    tag_189:\n        /* \"#utility.yul\":3835:3898   */\n      swap3\n      pop\n        /* \"#utility.yul\":3791:3908   */\n      pop\n        /* \"#utility.yul\":3947:3949   */\n      0x20\n        /* \"#utility.yul\":3973:4026   */\n      tag_190\n        /* \"#utility.yul\":4018:4025   */\n      dup6\n        /* \"#utility.yul\":4009:4015   */\n      dup3\n        /* \"#utility.yul\":3998:4007   */\n      dup7\n        /* \"#utility.yul\":3994:4016   */\n      add\n        /* \"#utility.yul\":3973:4026   */\n      tag_94\n      jump\t// in\n    tag_190:\n        /* \"#utility.yul\":3963:4026   */\n      swap2\n      pop\n        /* \"#utility.yul\":3918:4036   */\n      pop\n        /* \"#utility.yul\":3569:4043   */\n      swap3\n      pop\n      swap3\n      swap1\n      pop\n      jump\t// out\n        /* \"#utility.yul\":4049:4378   */\n    tag_21:\n        /* \"#utility.yul\":4108:4114   */\n      0x00\n        /* \"#utility.yul\":4157:4159   */\n      0x20\n        /* \"#utility.yul\":4145:4154   */\n      dup3\n        /* \"#utility.yul\":4136:4143   */\n      dup5\n        /* \"#utility.yul\":4132:4155   */\n      sub\n        /* \"#utility.yul\":4128:4160   */\n      slt\n        /* \"#utility.yul\":4125:4244   */\n      iszero\n      tag_192\n      jumpi\n        /* \"#utility.yul\":4163:4242   */\n      tag_193\n      tag_90\n      jump\t// in\n    tag_193:\n        /* \"#utility.yul\":4125:4244   */\n    tag_192:\n        /* \"#utility.yul\":4283:4284   */\n      0x00\n        /* \"#utility.yul\":4308:4361   */\n      tag_194\n        /* \"#utility.yul\":4353:4360   */\n      dup5\n        /* \"#utility.yul\":4344:4350   */\n      dup3\n        /* \"#utility.yul\":4333:4342   */\n      dup6\n        /* \"#utility.yul\":4329:4351   */\n      add\n        /* \"#utility.yul\":4308:4361   */\n      tag_94\n      jump\t// in\n    tag_194:\n        /* \"#utility.yul\":4298:4361   */\n      swap2\n      pop\n        /* \"#utility.yul\":4254:4371   */\n      pop\n        /* \"#utility.yul\":4049:4378   */\n      swap3\n      swap2\n      pop\n      pop\n      jump\t// out\n        /* \"#utility.yul\":4384:4474   */\n    tag_105:\n        /* \"#utility.yul\":4418:4425   */\n      0x00\n        /* \"#utility.yul\":4461:4466   */\n      dup2\n        /* \"#utility.yul\":4454:4467   */\n      iszero\n        /* \"#utility.yul\":4447:4468   */\n      iszero\n        /* \"#utility.yul\":4436:4468   */\n      swap1\n      pop\n        /* \"#utility.yul\":4384:4474   */\n      swap2\n      swap1\n      pop\n      jump\t// out\n        /* \"#utility.yul\":4480:4589   */\n    tag_106:\n        /* \"#utility.yul\":4561:4582   */\n      tag_197\n        /* \"#utility.yul\":4576:4581   */\n      dup2\n        /* \"#utility.yul\":4561:4582   */\n      tag_105\n      jump\t// in\n    tag_197:\n        /* \"#utility.yul\":4556:4559   */\n      dup3\n        /* \"#utility.yul\":4549:4583   */\n      mstore\n        /* \"#utility.yul\":4480:4589   */\n      pop\n      pop\n      jump\t// out\n        /* \"#utility.yul\":4595:4694   */\n    tag_107:\n        /* \"#utility.yul\":4647:4653   */\n      0x00\n        /* \"#utility.yul\":4681:4686   */\n      dup2\n        /* \"#utility.yul\":4675:4687   */\n      mload\n        /* \"#utility.yul\":4665:4687   */\n      swap1\n      pop\n        /* \"#utility.yul\":4595:4694   */\n      swap2\n      swap1\n      pop\n      jump\t// out\n        /* \"#utility.yul\":4700:4859   */\n    tag_108:\n        /* \"#utility.yul\":4774:4785   */\n      0x00\n        /* \"#utility.yul\":4808:4814   */\n      dup3\n        /* \"#utility.yul\":4803:4806   */\n      dup3\n        /* \"#utility.yul\":4796:4815   */\n      mstore\n        /* \"#utility.yul\":4848:4852   */\n      0x20\n        /* \"#utility.yul\":4843:4846   */\n      dup3\n        /* \"#utility.yul\":4839:4853   */\n      add\n        /* \"#utility.yul\":4824:4853   */\n      swap1\n      pop\n        /* \"#utility.yul\":4700:4859   */\n      swap3\n      swap2\n      pop\n      pop\n      jump\t// out\n        /* \"#utility.yul\":4865:5111   */\n    tag_109:\n        /* \"#utility.yul\":4946:4947   */\n      0x00\n        /* \"#utility.yul\":4956:5069   */\n    tag_201:\n        /* \"#utility.yul\":4970:4976   */\n      dup4\n        /* \"#utility.yul\":4967:4968   */\n      dup2\n        /* \"#utility.yul\":4964:4977   */\n      lt\n        /* \"#utility.yul\":4956:5069   */\n      iszero\n      tag_203\n      jumpi\n        /* \"#utility.yul\":5055:5056   */\n      dup1\n        /* \"#utility.yul\":5050:5053   */\n      dup3\n        /* \"#utility.yul\":5046:5057   */\n      add\n        /* \"#utility.yul\":5040:5058   */\n      mload\n        /* \"#utility.yul\":5036:5037   */\n      dup2\n        /* \"#utility.yul\":5031:5034   */\n      dup5\n        /* \"#utility.yul\":5027:5038   */\n      add\n        /* \"#utility.yul\":5020:5059   */\n      mstore\n        /* \"#utility.yul\":4992:4994   */\n      0x20\n        /* \"#utility.yul\":4989:4990   */\n      dup2\n        /* \"#utility.yul\":4985:4995   */\n      add\n        /* \"#utility.yul\":4980:4995   */\n      swap1\n      pop\n        /* \"#utility.yul\":4956:5069   */\n      jump(tag_201)\n    tag_203:\n        /* \"#utility.yul\":5103:5104   */\n      0x00\n        /* \"#utility.yul\":5094:5100   */\n      dup5\n        /* \"#utility.yul\":5089:5092   */\n      dup5\n        /* \"#utility.yul\":5085:5101   */\n      add\n        /* \"#utility.yul\":5078:5105   */\n      mstore\n        /* \"#utility.yul\":4927:5111   */\n      pop\n        /* \"#utility.yul\":4865:5111   */\n      pop\n      pop\n      pop\n      jump\t// out\n        /* \"#utility.yul\":5117:5474   */\n    tag_110:\n        /* \"#utility.yul\":5195:5198   */\n      0x00\n        /* \"#utility.yul\":5223:5262   */\n      tag_205\n        /* \"#utility.yul\":5256:5261   */\n      dup3\n        /* \"#utility.yul\":5223:5262   */\n      tag_107\n      jump\t// in\n    tag_205:\n        /* \"#utility.yul\":5278:5339   */\n      tag_206\n        /* \"#utility.yul\":5332:5338   */\n      dup2\n        /* \"#utility.yul\":5327:5330   */\n      dup6\n        /* \"#utility.yul\":5278:5339   */\n      tag_108\n      jump\t// in\n    tag_206:\n        /* \"#utility.yul\":5271:5339   */\n      swap4\n      pop\n        /* \"#utility.yul\":5348:5413   */\n      tag_207\n        /* \"#utility.yul\":5406:5412   */\n      dup2\n        /* \"#utility.yul\":5401:5404   */\n      dup6\n        /* \"#utility.yul\":5394:5398   */\n      0x20\n        /* \"#utility.yul\":5387:5392   */\n      dup7\n        /* \"#utility.yul\":5383:5399   */\n      add\n        /* \"#utility.yul\":5348:5413   */\n      tag_109\n      jump\t// in\n    tag_207:\n        /* \"#utility.yul\":5438:5467   */\n      tag_208\n        /* \"#utility.yul\":5460:5466   */\n      dup2\n        /* \"#utility.yul\":5438:5467   */\n      tag_97\n      jump\t// in\n    tag_208:\n        /* \"#utility.yul\":5433:5436   */\n      dup5\n        /* \"#utility.yul\":5429:5468   */\n      add\n        /* \"#utility.yul\":5422:5468   */\n      swap2\n      pop\n        /* \"#utility.yul\":5199:5474   */\n      pop\n        /* \"#utility.yul\":5117:5474   */\n      swap3\n      swap2\n      pop\n      pop\n      jump\t// out\n        /* \"#utility.yul\":5552:6490   */\n    tag_111:\n        /* \"#utility.yul\":5679:5682   */\n      0x00\n        /* \"#utility.yul\":5715:5719   */\n      0x60\n        /* \"#utility.yul\":5710:5713   */\n      dup4\n        /* \"#utility.yul\":5706:5720   */\n      add\n        /* \"#utility.yul\":5803:5807   */\n      0x00\n        /* \"#utility.yul\":5796:5801   */\n      dup4\n        /* \"#utility.yul\":5792:5808   */\n      add\n        /* \"#utility.yul\":5786:5809   */\n      mload\n        /* \"#utility.yul\":5856:5859   */\n      dup5\n        /* \"#utility.yul\":5850:5854   */\n      dup3\n        /* \"#utility.yul\":5846:5860   */\n      sub\n        /* \"#utility.yul\":5839:5843   */\n      0x00\n        /* \"#utility.yul\":5834:5837   */\n      dup7\n        /* \"#utility.yul\":5830:5844   */\n      add\n        /* \"#utility.yul\":5823:5861   */\n      mstore\n        /* \"#utility.yul\":5882:5955   */\n      tag_210\n        /* \"#utility.yul\":5950:5954   */\n      dup3\n        /* \"#utility.yul\":5936:5948   */\n      dup3\n        /* \"#utility.yul\":5882:5955   */\n      tag_110\n      jump\t// in\n    tag_210:\n        /* \"#utility.yul\":5874:5955   */\n      swap2\n      pop\n        /* \"#utility.yul\":5730:5966   */\n      pop\n        /* \"#utility.yul\":6052:6056   */\n      0x20\n        /* \"#utility.yul\":6045:6050   */\n      dup4\n        /* \"#utility.yul\":6041:6057   */\n      add\n        /* \"#utility.yul\":6035:6058   */\n      mload\n        /* \"#utility.yul\":6105:6108   */\n      dup5\n        /* \"#utility.yul\":6099:6103   */\n      dup3\n        /* \"#utility.yul\":6095:6109   */\n      sub\n        /* \"#utility.yul\":6088:6092   */\n      0x20\n        /* \"#utility.yul\":6083:6086   */\n      dup7\n        /* \"#utility.yul\":6079:6093   */\n      add\n        /* \"#utility.yul\":6072:6110   */\n      mstore\n        /* \"#utility.yul\":6131:6204   */\n      tag_211\n        /* \"#utility.yul\":6199:6203   */\n      dup3\n        /* \"#utility.yul\":6185:6197   */\n      dup3\n        /* \"#utility.yul\":6131:6204   */\n      tag_110\n      jump\t// in\n    tag_211:\n        /* \"#utility.yul\":6123:6204   */\n      swap2\n      pop\n        /* \"#utility.yul\":5976:6215   */\n      pop\n        /* \"#utility.yul\":6300:6304   */\n      0x40\n        /* \"#utility.yul\":6293:6298   */\n      dup4\n        /* \"#utility.yul\":6289:6305   */\n      add\n        /* \"#utility.yul\":6283:6306   */\n      mload\n        /* \"#utility.yul\":6353:6356   */\n      dup5\n        /* \"#utility.yul\":6347:6351   */\n      dup3\n        /* \"#utility.yul\":6343:6357   */\n      sub\n        /* \"#utility.yul\":6336:6340   */\n      0x40\n        /* \"#utility.yul\":6331:6334   */\n      dup7\n        /* \"#utility.yul\":6327:6341   */\n      add\n        /* \"#utility.yul\":6320:6358   */\n      mstore\n        /* \"#utility.yul\":6379:6452   */\n      tag_212\n        /* \"#utility.yul\":6447:6451   */\n      dup3\n        /* \"#utility.yul\":6433:6445   */\n      dup3\n        /* \"#utility.yul\":6379:6452   */\n      tag_110\n      jump\t// in\n    tag_212:\n        /* \"#utility.yul\":6371:6452   */\n      swap2\n      pop\n        /* \"#utility.yul\":6225:6463   */\n      pop\n        /* \"#utility.yul\":6480:6484   */\n      dup1\n        /* \"#utility.yul\":6473:6484   */\n      swap2\n      pop\n        /* \"#utility.yul\":5684:6490   */\n      pop\n        /* \"#utility.yul\":5552:6490   */\n      swap3\n      swap2\n      pop\n      pop\n      jump\t// out\n        /* \"#utility.yul\":6496:6614   */\n    tag_112:\n        /* \"#utility.yul\":6583:6607   */\n      tag_214\n        /* \"#utility.yul\":6601:6606   */\n      dup2\n        /* \"#utility.yul\":6583:6607   */\n      tag_92\n      jump\t// in\n    tag_214:\n        /* \"#utility.yul\":6578:6581   */\n      dup3\n        /* \"#utility.yul\":6571:6608   */\n      mstore\n        /* \"#utility.yul\":6496:6614   */\n      pop\n      pop\n      jump\t// out\n        /* \"#utility.yul\":6620:7217   */\n    tag_24:\n        /* \"#utility.yul\":6821:6825   */\n      0x00\n        /* \"#utility.yul\":6859:6861   */\n      0x60\n        /* \"#utility.yul\":6848:6857   */\n      dup3\n        /* \"#utility.yul\":6844:6862   */\n      add\n        /* \"#utility.yul\":6836:6862   */\n      swap1\n      pop\n        /* \"#utility.yul\":6872:6937   */\n      tag_216\n        /* \"#utility.yul\":6934:6935   */\n      0x00\n        /* \"#utility.yul\":6923:6932   */\n      dup4\n        /* \"#utility.yul\":6919:6936   */\n      add\n        /* \"#utility.yul\":6910:6916   */\n      dup7\n        /* \"#utility.yul\":6872:6937   */\n      tag_106\n      jump\t// in\n    tag_216:\n        /* \"#utility.yul\":6984:6993   */\n      dup2\n        /* \"#utility.yul\":6978:6982   */\n      dup2\n        /* \"#utility.yul\":6974:6994   */\n      sub\n        /* \"#utility.yul\":6969:6971   */\n      0x20\n        /* \"#utility.yul\":6958:6967   */\n      dup4\n        /* \"#utility.yul\":6954:6972   */\n      add\n        /* \"#utility.yul\":6947:6995   */\n      mstore\n        /* \"#utility.yul\":7012:7128   */\n      tag_217\n        /* \"#utility.yul\":7123:7127   */\n      dup2\n        /* \"#utility.yul\":7114:7120   */\n      dup6\n        /* \"#utility.yul\":7012:7128   */\n      tag_111\n      jump\t// in\n    tag_217:\n        /* \"#utility.yul\":7004:7128   */\n      swap1\n      pop\n        /* \"#utility.yul\":7138:7210   */\n      tag_218\n        /* \"#utility.yul\":7206:7208   */\n      0x40\n        /* \"#utility.yul\":7195:7204   */\n      dup4\n        /* \"#utility.yul\":7191:7209   */\n      add\n        /* \"#utility.yul\":7182:7188   */\n      dup5\n        /* \"#utility.yul\":7138:7210   */\n      tag_112\n      jump\t// in\n    tag_218:\n        /* \"#utility.yul\":6620:7217   */\n      swap5\n      swap4\n      pop\n      pop\n      pop\n      pop\n      jump\t// out\n        /* \"#utility.yul\":7223:7392   */\n    tag_113:\n        /* \"#utility.yul\":7307:7318   */\n      0x00\n        /* \"#utility.yul\":7341:7347   */\n      dup3\n        /* \"#utility.yul\":7336:7339   */\n      dup3\n        /* \"#utility.yul\":7329:7348   */\n      mstore\n        /* \"#utility.yul\":7381:7385   */\n      0x20\n        /* \"#utility.yul\":7376:7379   */\n      dup3\n        /* \"#utility.yul\":7372:7386   */\n      add\n        /* \"#utility.yul\":7357:7386   */\n      swap1\n      pop\n        /* \"#utility.yul\":7223:7392   */\n      swap3\n      swap2\n      pop\n      pop\n      jump\t// out\n        /* \"#utility.yul\":7398:7775   */\n    tag_114:\n        /* \"#utility.yul\":7486:7489   */\n      0x00\n        /* \"#utility.yul\":7514:7553   */\n      tag_221\n        /* \"#utility.yul\":7547:7552   */\n      dup3\n        /* \"#utility.yul\":7514:7553   */\n      tag_107\n      jump\t// in\n    tag_221:\n        /* \"#utility.yul\":7569:7640   */\n      tag_222\n        /* \"#utility.yul\":7633:7639   */\n      dup2\n        /* \"#utility.yul\":7628:7631   */\n      dup6\n        /* \"#utility.yul\":7569:7640   */\n      tag_113\n      jump\t// in\n    tag_222:\n        /* \"#utility.yul\":7562:7640   */\n      swap4\n      pop\n        /* \"#utility.yul\":7649:7714   */\n      tag_223\n        /* \"#utility.yul\":7707:7713   */\n      dup2\n        /* \"#utility.yul\":7702:7705   */\n      dup6\n        /* \"#utility.yul\":7695:7699   */\n      0x20\n        /* \"#utility.yul\":7688:7693   */\n      dup7\n        /* \"#utility.yul\":7684:7700   */\n      add\n        /* \"#utility.yul\":7649:7714   */\n      tag_109\n      jump\t// in\n    tag_223:\n        /* \"#utility.yul\":7739:7768   */\n      tag_224\n        /* \"#utility.yul\":7761:7767   */\n      dup2\n        /* \"#utility.yul\":7739:7768   */\n      tag_97\n      jump\t// in\n    tag_224:\n        /* \"#utility.yul\":7734:7737   */\n      dup5\n        /* \"#utility.yul\":7730:7769   */\n      add\n        /* \"#utility.yul\":7723:7769   */\n      swap2\n      pop\n        /* \"#utility.yul\":7490:7775   */\n      pop\n        /* \"#utility.yul\":7398:7775   */\n      swap3\n      swap2\n      pop\n      pop\n      jump\t// out\n        /* \"#utility.yul\":7781:7907   */\n    tag_115:\n        /* \"#utility.yul\":7818:7825   */\n      0x00\n        /* \"#utility.yul\":7858:7900   */\n      0xffffffffffffffffffffffffffffffffffffffff\n        /* \"#utility.yul\":7851:7856   */\n      dup3\n        /* \"#utility.yul\":7847:7901   */\n      and\n        /* \"#utility.yul\":7836:7901   */\n      swap1\n      pop\n        /* \"#utility.yul\":7781:7907   */\n      swap2\n      swap1\n      pop\n      jump\t// out\n        /* \"#utility.yul\":7913:8009   */\n    tag_116:\n        /* \"#utility.yul\":7950:7957   */\n      0x00\n        /* \"#utility.yul\":7979:8003   */\n      tag_227\n        /* \"#utility.yul\":7997:8002   */\n      dup3\n        /* \"#utility.yul\":7979:8003   */\n      tag_115\n      jump\t// in\n    tag_227:\n        /* \"#utility.yul\":7968:8003   */\n      swap1\n      pop\n        /* \"#utility.yul\":7913:8009   */\n      swap2\n      swap1\n      pop\n      jump\t// out\n        /* \"#utility.yul\":8015:8133   */\n    tag_117:\n        /* \"#utility.yul\":8102:8126   */\n      tag_229\n        /* \"#utility.yul\":8120:8125   */\n      dup2\n        /* \"#utility.yul\":8102:8126   */\n      tag_116\n      jump\t// in\n    tag_229:\n        /* \"#utility.yul\":8097:8100   */\n      dup3\n        /* \"#utility.yul\":8090:8127   */\n      mstore\n        /* \"#utility.yul\":8015:8133   */\n      pop\n      pop\n      jump\t// out\n        /* \"#utility.yul\":8139:8660   */\n    tag_29:\n        /* \"#utility.yul\":8302:8306   */\n      0x00\n        /* \"#utility.yul\":8340:8342   */\n      0x60\n        /* \"#utility.yul\":8329:8338   */\n      dup3\n        /* \"#utility.yul\":8325:8343   */\n      add\n        /* \"#utility.yul\":8317:8343   */\n      swap1\n      pop\n        /* \"#utility.yul\":8353:8418   */\n      tag_231\n        /* \"#utility.yul\":8415:8416   */\n      0x00\n        /* \"#utility.yul\":8404:8413   */\n      dup4\n        /* \"#utility.yul\":8400:8417   */\n      add\n        /* \"#utility.yul\":8391:8397   */\n      dup7\n        /* \"#utility.yul\":8353:8418   */\n      tag_106\n      jump\t// in\n    tag_231:\n        /* \"#utility.yul\":8465:8474   */\n      dup2\n        /* \"#utility.yul\":8459:8463   */\n      dup2\n        /* \"#utility.yul\":8455:8475   */\n      sub\n        /* \"#utility.yul\":8450:8452   */\n      0x20\n        /* \"#utility.yul\":8439:8448   */\n      dup4\n        /* \"#utility.yul\":8435:8453   */\n      add\n        /* \"#utility.yul\":8428:8476   */\n      mstore\n        /* \"#utility.yul\":8493:8571   */\n      tag_232\n        /* \"#utility.yul\":8566:8570   */\n      dup2\n        /* \"#utility.yul\":8557:8563   */\n      dup6\n        /* \"#utility.yul\":8493:8571   */\n      tag_114\n      jump\t// in\n    tag_232:\n        /* \"#utility.yul\":8485:8571   */\n      swap1\n      pop\n        /* \"#utility.yul\":8581:8653   */\n      tag_233\n        /* \"#utility.yul\":8649:8651   */\n      0x40\n        /* \"#utility.yul\":8638:8647   */\n      dup4\n        /* \"#utility.yul\":8634:8652   */\n      add\n        /* \"#utility.yul\":8625:8631   */\n      dup5\n        /* \"#utility.yul\":8581:8653   */\n      tag_117\n      jump\t// in\n    tag_233:\n        /* \"#utility.yul\":8139:8660   */\n      swap5\n      swap4\n      pop\n      pop\n      pop\n      pop\n      jump\t// out\n        /* \"#utility.yul\":8666:9971   */\n    tag_35:\n        /* \"#utility.yul\":8782:8788   */\n      0x00\n        /* \"#utility.yul\":8790:8796   */\n      dup1\n        /* \"#utility.yul\":8798:8804   */\n      0x00\n        /* \"#utility.yul\":8806:8812   */\n      dup1\n        /* \"#utility.yul\":8855:8858   */\n      0x80\n        /* \"#utility.yul\":8843:8852   */\n      dup6\n        /* \"#utility.yul\":8834:8841   */\n      dup8\n        /* \"#utility.yul\":8830:8853   */\n      sub\n        /* \"#utility.yul\":8826:8859   */\n      slt\n        /* \"#utility.yul\":8823:8943   */\n      iszero\n      tag_235\n      jumpi\n        /* \"#utility.yul\":8862:8941   */\n      tag_236\n      tag_90\n      jump\t// in\n    tag_236:\n        /* \"#utility.yul\":8823:8943   */\n    tag_235:\n        /* \"#utility.yul\":8982:8983   */\n      0x00\n        /* \"#utility.yul\":9007:9060   */\n      tag_237\n        /* \"#utility.yul\":9052:9059   */\n      dup8\n        /* \"#utility.yul\":9043:9049   */\n      dup3\n        /* \"#utility.yul\":9032:9041   */\n      dup9\n        /* \"#utility.yul\":9028:9050   */\n      add\n        /* \"#utility.yul\":9007:9060   */\n      tag_94\n      jump\t// in\n    tag_237:\n        /* \"#utility.yul\":8997:9060   */\n      swap5\n      pop\n        /* \"#utility.yul\":8953:9070   */\n      pop\n        /* \"#utility.yul\":9137:9139   */\n      0x20\n        /* \"#utility.yul\":9126:9135   */\n      dup6\n        /* \"#utility.yul\":9122:9140   */\n      add\n        /* \"#utility.yul\":9109:9141   */\n      calldataload\n        /* \"#utility.yul\":9168:9186   */\n      0xffffffffffffffff\n        /* \"#utility.yul\":9160:9166   */\n      dup2\n        /* \"#utility.yul\":9157:9187   */\n      gt\n        /* \"#utility.yul\":9154:9271   */\n      iszero\n      tag_238\n      jumpi\n        /* \"#utility.yul\":9190:9269   */\n      tag_239\n      tag_91\n      jump\t// in\n    tag_239:\n        /* \"#utility.yul\":9154:9271   */\n    tag_238:\n        /* \"#utility.yul\":9295:9358   */\n      tag_240\n        /* \"#utility.yul\":9350:9357   */\n      dup8\n        /* \"#utility.yul\":9341:9347   */\n      dup3\n        /* \"#utility.yul\":9330:9339   */\n      dup9\n        /* \"#utility.yul\":9326:9348   */\n      add\n        /* \"#utility.yul\":9295:9358   */\n      tag_104\n      jump\t// in\n    tag_240:\n        /* \"#utility.yul\":9285:9358   */\n      swap4\n      pop\n        /* \"#utility.yul\":9080:9368   */\n      pop\n        /* \"#utility.yul\":9435:9437   */\n      0x40\n        /* \"#utility.yul\":9424:9433   */\n      dup6\n        /* \"#utility.yul\":9420:9438   */\n      add\n        /* \"#utility.yul\":9407:9439   */\n      calldataload\n        /* \"#utility.yul\":9466:9484   */\n      0xffffffffffffffff\n        /* \"#utility.yul\":9458:9464   */\n      dup2\n        /* \"#utility.yul\":9455:9485   */\n      gt\n        /* \"#utility.yul\":9452:9569   */\n      iszero\n      tag_241\n      jumpi\n        /* \"#utility.yul\":9488:9567   */\n      tag_242\n      tag_91\n      jump\t// in\n    tag_242:\n        /* \"#utility.yul\":9452:9569   */\n    tag_241:\n        /* \"#utility.yul\":9593:9656   */\n      tag_243\n        /* \"#utility.yul\":9648:9655   */\n      dup8\n        /* \"#utility.yul\":9639:9645   */\n      dup3\n        /* \"#utility.yul\":9628:9637   */\n      dup9\n        /* \"#utility.yul\":9624:9646   */\n      add\n        /* \"#utility.yul\":9593:9656   */\n      tag_104\n      jump\t// in\n    tag_243:\n        /* \"#utility.yul\":9583:9656   */\n      swap3\n      pop\n        /* \"#utility.yul\":9378:9666   */\n      pop\n        /* \"#utility.yul\":9733:9735   */\n      0x60\n        /* \"#utility.yul\":9722:9731   */\n      dup6\n        /* \"#utility.yul\":9718:9736   */\n      add\n        /* \"#utility.yul\":9705:9737   */\n      calldataload\n        /* \"#utility.yul\":9764:9782   */\n      0xffffffffffffffff\n        /* \"#utility.yul\":9756:9762   */\n      dup2\n        /* \"#utility.yul\":9753:9783   */\n      gt\n        /* \"#utility.yul\":9750:9867   */\n      iszero\n      tag_244\n      jumpi\n        /* \"#utility.yul\":9786:9865   */\n      tag_245\n      tag_91\n      jump\t// in\n    tag_245:\n        /* \"#utility.yul\":9750:9867   */\n    tag_244:\n        /* \"#utility.yul\":9891:9954   */\n      tag_246\n        /* \"#utility.yul\":9946:9953   */\n      dup8\n        /* \"#utility.yul\":9937:9943   */\n      dup3\n        /* \"#utility.yul\":9926:9935   */\n      dup9\n        /* \"#utility.yul\":9922:9944   */\n      add\n        /* \"#utility.yul\":9891:9954   */\n      tag_104\n      jump\t// in\n    tag_246:\n        /* \"#utility.yul\":9881:9954   */\n      swap2\n      pop\n        /* \"#utility.yul\":9676:9964   */\n      pop\n        /* \"#utility.yul\":8666:9971   */\n      swap3\n      swap6\n      swap2\n      swap5\n      pop\n      swap3\n      pop\n      jump\t// out\n        /* \"#utility.yul\":9977:10199   */\n    tag_40:\n        /* \"#utility.yul\":10070:10074   */\n      0x00\n        /* \"#utility.yul\":10108:10110   */\n      0x20\n        /* \"#utility.yul\":10097:10106   */\n      dup3\n        /* \"#utility.yul\":10093:10111   */\n      add\n        /* \"#utility.yul\":10085:10111   */\n      swap1\n      pop\n        /* \"#utility.yul\":10121:10192   */\n      tag_248\n        /* \"#utility.yul\":10189:10190   */\n      0x00\n        /* \"#utility.yul\":10178:10187   */\n      dup4\n        /* \"#utility.yul\":10174:10191   */\n      add\n        /* \"#utility.yul\":10165:10171   */\n      dup5\n        /* \"#utility.yul\":10121:10192   */\n      tag_117\n      jump\t// in\n    tag_248:\n        /* \"#utility.yul\":9977:10199   */\n      swap3\n      swap2\n      pop\n      pop\n      jump\t// out\n        /* \"#utility.yul\":10205:10376   */\n    tag_118:\n        /* \"#utility.yul\":10345:10368   */\n      0x596f7520617265206e6f74204c696272617269616e0000000000000000000000\n        /* \"#utility.yul\":10341:10342   */\n      0x00\n        /* \"#utility.yul\":10333:10339   */\n      dup3\n        /* \"#utility.yul\":10329:10343   */\n      add\n        /* \"#utility.yul\":10322:10369   */\n      mstore\n        /* \"#utility.yul\":10205:10376   */\n      pop\n      jump\t// out\n        /* \"#utility.yul\":10382:10748   */\n    tag_119:\n        /* \"#utility.yul\":10524:10527   */\n      0x00\n        /* \"#utility.yul\":10545:10612   */\n      tag_251\n        /* \"#utility.yul\":10609:10611   */\n      0x15\n        /* \"#utility.yul\":10604:10607   */\n      dup4\n        /* \"#utility.yul\":10545:10612   */\n      tag_113\n      jump\t// in\n    tag_251:\n        /* \"#utility.yul\":10538:10612   */\n      swap2\n      pop\n        /* \"#utility.yul\":10621:10714   */\n      tag_252\n        /* \"#utility.yul\":10710:10713   */\n      dup3\n        /* \"#utility.yul\":10621:10714   */\n      tag_118\n      jump\t// in\n    tag_252:\n        /* \"#utility.yul\":10739:10741   */\n      0x20\n        /* \"#utility.yul\":10734:10737   */\n      dup3\n        /* \"#utility.yul\":10730:10742   */\n      add\n        /* \"#utility.yul\":10723:10742   */\n      swap1\n      pop\n        /* \"#utility.yul\":10382:10748   */\n      swap2\n      swap1\n      pop\n      jump\t// out\n        /* \"#utility.yul\":10754:11173   */\n    tag_44:\n        /* \"#utility.yul\":10920:10924   */\n      0x00\n        /* \"#utility.yul\":10958:10960   */\n      0x20\n        /* \"#utility.yul\":10947:10956   */\n      dup3\n        /* \"#utility.yul\":10943:10961   */\n      add\n        /* \"#utility.yul\":10935:10961   */\n      swap1\n      pop\n        /* \"#utility.yul\":11007:11016   */\n      dup2\n        /* \"#utility.yul\":11001:11005   */\n      dup2\n        /* \"#utility.yul\":10997:11017   */\n      sub\n        /* \"#utility.yul\":10993:10994   */\n      0x00\n        /* \"#utility.yul\":10982:10991   */\n      dup4\n        /* \"#utility.yul\":10978:10995   */\n      add\n        /* \"#utility.yul\":10971:11018   */\n      mstore\n        /* \"#utility.yul\":11035:11166   */\n      tag_254\n        /* \"#utility.yul\":11161:11165   */\n      dup2\n        /* \"#utility.yul\":11035:11166   */\n      tag_119\n      jump\t// in\n    tag_254:\n        /* \"#utility.yul\":11027:11166   */\n      swap1\n      pop\n        /* \"#utility.yul\":10754:11173   */\n      swap2\n      swap1\n      pop\n      jump\t// out\n        /* \"#utility.yul\":11179:11359   */\n    tag_120:\n        /* \"#utility.yul\":11227:11304   */\n      0x4e487b7100000000000000000000000000000000000000000000000000000000\n        /* \"#utility.yul\":11224:11225   */\n      0x00\n        /* \"#utility.yul\":11217:11305   */\n      mstore\n        /* \"#utility.yul\":11324:11328   */\n      0x22\n        /* \"#utility.yul\":11321:11322   */\n      0x04\n        /* \"#utility.yul\":11314:11329   */\n      mstore\n        /* \"#utility.yul\":11348:11352   */\n      0x24\n        /* \"#utility.yul\":11345:11346   */\n      0x00\n        /* \"#utility.yul\":11338:11353   */\n      revert\n        /* \"#utility.yul\":11365:11685   */\n    tag_54:\n        /* \"#utility.yul\":11409:11415   */\n      0x00\n        /* \"#utility.yul\":11446:11447   */\n      0x02\n        /* \"#utility.yul\":11440:11444   */\n      dup3\n        /* \"#utility.yul\":11436:11448   */\n      div\n        /* \"#utility.yul\":11426:11448   */\n      swap1\n      pop\n        /* \"#utility.yul\":11493:11494   */\n      0x01\n        /* \"#utility.yul\":11487:11491   */\n      dup3\n        /* \"#utility.yul\":11483:11495   */\n      and\n        /* \"#utility.yul\":11514:11532   */\n      dup1\n        /* \"#utility.yul\":11504:11585   */\n      tag_257\n      jumpi\n        /* \"#utility.yul\":11570:11574   */\n      0x7f\n        /* \"#utility.yul\":11562:11568   */\n      dup3\n        /* \"#utility.yul\":11558:11575   */\n      and\n        /* \"#utility.yul\":11548:11575   */\n      swap2\n      pop\n        /* \"#utility.yul\":11504:11585   */\n    tag_257:\n        /* \"#utility.yul\":11632:11634   */\n      0x20\n        /* \"#utility.yul\":11624:11630   */\n      dup3\n        /* \"#utility.yul\":11621:11635   */\n      lt\n        /* \"#utility.yul\":11601:11619   */\n      dup2\n        /* \"#utility.yul\":11598:11636   */\n      sub\n        /* \"#utility.yul\":11595:11679   */\n      tag_258\n      jumpi\n        /* \"#utility.yul\":11651:11669   */\n      tag_259\n      tag_120\n      jump\t// in\n    tag_259:\n        /* \"#utility.yul\":11595:11679   */\n    tag_258:\n        /* \"#utility.yul\":11416:11685   */\n      pop\n        /* \"#utility.yul\":11365:11685   */\n      swap2\n      swap1\n      pop\n      jump\t// out\n        /* \"#utility.yul\":11691:11832   */\n    tag_121:\n        /* \"#utility.yul\":11740:11744   */\n      0x00\n        /* \"#utility.yul\":11763:11766   */\n      dup2\n        /* \"#utility.yul\":11755:11766   */\n      swap1\n      pop\n        /* \"#utility.yul\":11786:11789   */\n      dup2\n        /* \"#utility.yul\":11783:11784   */\n      0x00\n        /* \"#utility.yul\":11776:11790   */\n      mstore\n        /* \"#utility.yul\":11820:11824   */\n      0x20\n        /* \"#utility.yul\":11817:11818   */\n      0x00\n        /* \"#utility.yul\":11807:11825   */\n      keccak256\n        /* \"#utility.yul\":11799:11825   */\n      swap1\n      pop\n        /* \"#utility.yul\":11691:11832   */\n      swap2\n      swap1\n      pop\n      jump\t// out\n        /* \"#utility.yul\":11838:11931   */\n    tag_122:\n        /* \"#utility.yul\":11875:11881   */\n      0x00\n        /* \"#utility.yul\":11922:11924   */\n      0x20\n        /* \"#utility.yul\":11917:11919   */\n      0x1f\n        /* \"#utility.yul\":11910:11915   */\n      dup4\n        /* \"#utility.yul\":11906:11920   */\n      add\n        /* \"#utility.yul\":11902:11925   */\n      div\n        /* \"#utility.yul\":11892:11925   */\n      swap1\n      pop\n        /* \"#utility.yul\":11838:11931   */\n      swap2\n      swap1\n      pop\n      jump\t// out\n        /* \"#utility.yul\":11937:12044   */\n    tag_123:\n        /* \"#utility.yul\":11981:11989   */\n      0x00\n        /* \"#utility.yul\":12031:12036   */\n      dup3\n        /* \"#utility.yul\":12025:12029   */\n      dup3\n        /* \"#utility.yul\":12021:12037   */\n      shl\n        /* \"#utility.yul\":12000:12037   */\n      swap1\n      pop\n        /* \"#utility.yul\":11937:12044   */\n      swap3\n      swap2\n      pop\n      pop\n      jump\t// out\n        /* \"#utility.yul\":12050:12443   */\n    tag_124:\n        /* \"#utility.yul\":12119:12125   */\n      0x00\n        /* \"#utility.yul\":12169:12170   */\n      0x08\n        /* \"#utility.yul\":12157:12167   */\n      dup4\n        /* \"#utility.yul\":12153:12171   */\n      mul\n        /* \"#utility.yul\":12192:12289   */\n      tag_264\n        /* \"#utility.yul\":12222:12288   */\n      0xffffffffffffffffffffffffffffffffffffffffffffffffffffffffffffffff\n        /* \"#utility.yul\":12211:12220   */\n      dup3\n        /* \"#utility.yul\":12192:12289   */\n      tag_123\n      jump\t// in\n    tag_264:\n        /* \"#utility.yul\":12310:12349   */\n      tag_265\n        /* \"#utility.yul\":12340:12348   */\n      dup7\n        /* \"#utility.yul\":12329:12338   */\n      dup4\n        /* \"#utility.yul\":12310:12349   */\n      tag_123\n      jump\t// in\n    tag_265:\n        /* \"#utility.yul\":12298:12349   */\n      swap6\n      pop\n        /* \"#utility.yul\":12382:12386   */\n      dup1\n        /* \"#utility.yul\":12378:12387   */\n      not\n        /* \"#utility.yul\":12371:12376   */\n      dup5\n        /* \"#utility.yul\":12367:12388   */\n      and\n        /* \"#utility.yul\":12358:12388   */\n      swap4\n      pop\n        /* \"#utility.yul\":12431:12435   */\n      dup1\n        /* \"#utility.yul\":12421:12429   */\n      dup7\n        /* \"#utility.yul\":12417:12436   */\n      and\n        /* \"#utility.yul\":12410:12415   */\n      dup5\n        /* \"#utility.yul\":12407:12437   */\n      or\n        /* \"#utility.yul\":12397:12437   */\n      swap3\n      pop\n        /* \"#utility.yul\":12126:12443   */\n      pop\n      pop\n        /* \"#utility.yul\":12050:12443   */\n      swap4\n      swap3\n      pop\n      pop\n      pop\n      jump\t// out\n        /* \"#utility.yul\":12449:12509   */\n    tag_125:\n        /* \"#utility.yul\":12477:12480   */\n      0x00\n        /* \"#utility.yul\":12498:12503   */\n      dup2\n        /* \"#utility.yul\":12491:12503   */\n      swap1\n      pop\n        /* \"#utility.yul\":12449:12509   */\n      swap2\n      swap1\n      pop\n      jump\t// out\n        /* \"#utility.yul\":12515:12657   */\n    tag_126:\n        /* \"#utility.yul\":12565:12574   */\n      0x00\n        /* \"#utility.yul\":12598:12651   */\n      tag_268\n        /* \"#utility.yul\":12616:12650   */\n      tag_269\n        /* \"#utility.yul\":12625:12649   */\n      tag_270\n        /* \"#utility.yul\":12643:12648   */\n      dup5\n        /* \"#utility.yul\":12625:12649   */\n      tag_92\n      jump\t// in\n    tag_270:\n        /* \"#utility.yul\":12616:12650   */\n      tag_125\n      jump\t// in\n    tag_269:\n        /* \"#utility.yul\":12598:12651   */\n      tag_92\n      jump\t// in\n    tag_268:\n        /* \"#utility.yul\":12585:12651   */\n      swap1\n      pop\n        /* \"#utility.yul\":12515:12657   */\n      swap2\n      swap1\n      pop\n      jump\t// out\n        /* \"#utility.yul\":12663:12738   */\n    tag_127:\n        /* \"#utility.yul\":12706:12709   */\n      0x00\n        /* \"#utility.yul\":12727:12732   */\n      dup2\n        /* \"#utility.yul\":12720:12732   */\n      swap1\n      pop\n        /* \"#utility.yul\":12663:12738   */\n      swap2\n      swap1\n      pop\n      jump\t// out\n        /* \"#utility.yul\":12744:13013   */\n    tag_128:\n        /* \"#utility.yul\":12854:12893   */\n      tag_273\n        /* \"#utility.yul\":12885:12892   */\n      dup4\n        /* \"#utility.yul\":12854:12893   */\n      tag_126\n      jump\t// in\n    tag_273:\n        /* \"#utility.yul\":12915:13006   */\n      tag_274\n        /* \"#utility.yul\":12964:13005   */\n      tag_275\n        /* \"#utility.yul\":12988:13004   */\n      dup3\n        /* \"#utility.yul\":12964:13005   */\n      tag_127\n      jump\t// in\n    tag_275:\n        /* \"#utility.yul\":12956:12962   */\n      dup5\n        /* \"#utility.yul\":12949:12953   */\n      dup5\n        /* \"#utility.yul\":12943:12954   */\n      sload\n        /* \"#utility.yul\":12915:13006   */\n      tag_124\n      jump\t// in\n    tag_274:\n        /* \"#utility.yul\":12909:12913   */\n      dup3\n        /* \"#utility.yul\":12902:13007   */\n      sstore\n        /* \"#utility.yul\":12820:13013   */\n      pop\n        /* \"#utility.yul\":12744:13013   */\n      pop\n      pop\n      pop\n      jump\t// out\n        /* \"#utility.yul\":13019:13092   */\n    tag_129:\n        /* \"#utility.yul\":13064:13067   */\n      0x00\n        /* \"#utility.yul\":13019:13092   */\n      swap1\n      jump\t// out\n        /* \"#utility.yul\":13098:13287   */\n    tag_130:\n        /* \"#utility.yul\":13175:13207   */\n      tag_278\n      tag_129\n      jump\t// in\n    tag_278:\n        /* \"#utility.yul\":13216:13281   */\n      tag_279\n        /* \"#utility.yul\":13274:13280   */\n      dup2\n        /* \"#utility.yul\":13266:13272   */\n      dup5\n        /* \"#utility.yul\":13260:13264   */\n      dup5\n        /* \"#utility.yul\":13216:13281   */\n      tag_128\n      jump\t// in\n    tag_279:\n        /* \"#utility.yul\":13151:13287   */\n      pop\n        /* \"#utility.yul\":13098:13287   */\n      pop\n      pop\n      jump\t// out\n        /* \"#utility.yul\":13293:13479   */\n    tag_131:\n        /* \"#utility.yul\":13353:13473   */\n    tag_281:\n        /* \"#utility.yul\":13370:13373   */\n      dup2\n        /* \"#utility.yul\":13363:13368   */\n      dup2\n        /* \"#utility.yul\":13360:13374   */\n      lt\n        /* \"#utility.yul\":13353:13473   */\n      iszero\n      tag_283\n      jumpi\n        /* \"#utility.yul\":13424:13463   */\n      tag_284\n        /* \"#utility.yul\":13461:13462   */\n      0x00\n        /* \"#utility.yul\":13454:13459   */\n      dup3\n        /* \"#utility.yul\":13424:13463   */\n      tag_130\n      jump\t// in\n    tag_284:\n        /* \"#utility.yul\":13397:13398   */\n      0x01\n        /* \"#utility.yul\":13390:13395   */\n      dup2\n        /* \"#utility.yul\":13386:13399   */\n      add\n        /* \"#utility.yul\":13377:13399   */\n      swap1\n      pop\n        /* \"#utility.yul\":13353:13473   */\n      jump(tag_281)\n    tag_283:\n        /* \"#utility.yul\":13293:13479   */\n      pop\n      pop\n      jump\t// out\n        /* \"#utility.yul\":13485:14028   */\n    tag_132:\n        /* \"#utility.yul\":13586:13588   */\n      0x1f\n        /* \"#utility.yul\":13581:13584   */\n      dup3\n        /* \"#utility.yul\":13578:13589   */\n      gt\n        /* \"#utility.yul\":13575:14021   */\n      iszero\n      tag_286\n      jumpi\n        /* \"#utility.yul\":13620:13658   */\n      tag_287\n        /* \"#utility.yul\":13652:13657   */\n      dup2\n        /* \"#utility.yul\":13620:13658   */\n      tag_121\n      jump\t// in\n    tag_287:\n        /* \"#utility.yul\":13704:13733   */\n      tag_288\n        /* \"#utility.yul\":13722:13732   */\n      dup5\n        /* \"#utility.yul\":13704:13733   */\n      tag_122\n      jump\t// in\n    tag_288:\n        /* \"#utility.yul\":13694:13702   */\n      dup2\n        /* \"#utility.yul\":13690:13734   */\n      add\n        /* \"#utility.yul\":13887:13889   */\n      0x20\n        /* \"#utility.yul\":13875:13885   */\n      dup6\n        /* \"#utility.yul\":13872:13890   */\n      lt\n        /* \"#utility.yul\":13869:13918   */\n      iszero\n      tag_289\n      jumpi\n        /* \"#utility.yul\":13908:13916   */\n      dup2\n        /* \"#utility.yul\":13893:13916   */\n      swap1\n      pop\n        /* \"#utility.yul\":13869:13918   */\n    tag_289:\n        /* \"#utility.yul\":13931:14011   */\n      tag_290\n        /* \"#utility.yul\":13987:14009   */\n      tag_291\n        /* \"#utility.yul\":14005:14008   */\n      dup6\n        /* \"#utility.yul\":13987:14009   */\n      tag_122\n      jump\t// in\n    tag_291:\n        /* \"#utility.yul\":13977:13985   */\n      dup4\n        /* \"#utility.yul\":13973:14010   */\n      add\n        /* \"#utility.yul\":13960:13971   */\n      dup3\n        /* \"#utility.yul\":13931:14011   */\n      tag_131\n      jump\t// in\n    tag_290:\n        /* \"#utility.yul\":13590:14021   */\n      pop\n      pop\n        /* \"#utility.yul\":13575:14021   */\n    tag_286:\n        /* \"#utility.yul\":13485:14028   */\n      pop\n      pop\n      pop\n      jump\t// out\n        /* \"#utility.yul\":14034:14151   */\n    tag_133:\n        /* \"#utility.yul\":14088:14096   */\n      0x00\n        /* \"#utility.yul\":14138:14143   */\n      dup3\n        /* \"#utility.yul\":14132:14136   */\n      dup3\n        /* \"#utility.yul\":14128:14144   */\n      shr\n        /* \"#utility.yul\":14107:14144   */\n      swap1\n      pop\n        /* \"#utility.yul\":14034:14151   */\n      swap3\n      swap2\n      pop\n      pop\n      jump\t// out\n        /* \"#utility.yul\":14157:14326   */\n    tag_134:\n        /* \"#utility.yul\":14201:14207   */\n      0x00\n        /* \"#utility.yul\":14234:14285   */\n      tag_294\n        /* \"#utility.yul\":14282:14283   */\n      0x00\n        /* \"#utility.yul\":14278:14284   */\n      not\n        /* \"#utility.yul\":14270:14275   */\n      dup5\n        /* \"#utility.yul\":14267:14268   */\n      0x08\n        /* \"#utility.yul\":14263:14276   */\n      mul\n        /* \"#utility.yul\":14234:14285   */\n      tag_133\n      jump\t// in\n    tag_294:\n        /* \"#utility.yul\":14230:14286   */\n      not\n        /* \"#utility.yul\":14315:14319   */\n      dup1\n        /* \"#utility.yul\":14309:14313   */\n      dup4\n        /* \"#utility.yul\":14305:14320   */\n      and\n        /* \"#utility.yul\":14295:14320   */\n      swap2\n      pop\n        /* \"#utility.yul\":14208:14326   */\n      pop\n        /* \"#utility.yul\":14157:14326   */\n      swap3\n      swap2\n      pop\n      pop\n      jump\t// out\n        /* \"#utility.yul\":14331:14626   */\n    tag_135:\n        /* \"#utility.yul\":14407:14411   */\n      0x00\n        /* \"#utility.yul\":14553:14582   */\n      tag_296\n        /* \"#utility.yul\":14578:14581   */\n      dup4\n        /* \"#utility.yul\":14572:14576   */\n      dup4\n        /* \"#utility.yul\":14553:14582   */\n      tag_134\n      jump\t// in\n    tag_296:\n        /* \"#utility.yul\":14545:14582   */\n      swap2\n      pop\n        /* \"#utility.yul\":14615:14618   */\n      dup3\n        /* \"#utility.yul\":14612:14613   */\n      0x02\n        /* \"#utility.yul\":14608:14619   */\n      mul\n        /* \"#utility.yul\":14602:14606   */\n      dup3\n        /* \"#utility.yul\":14599:14620   */\n      or\n        /* \"#utility.yul\":14591:14620   */\n      swap1\n      pop\n        /* \"#utility.yul\":14331:14626   */\n      swap3\n      swap2\n      pop\n      pop\n      jump\t// out\n        /* \"#utility.yul\":14631:16026   */\n    tag_46:\n        /* \"#utility.yul\":14748:14785   */\n      tag_298\n        /* \"#utility.yul\":14781:14784   */\n      dup3\n        /* \"#utility.yul\":14748:14785   */\n      tag_107\n      jump\t// in\n    tag_298:\n        /* \"#utility.yul\":14850:14868   */\n      0xffffffffffffffff\n        /* \"#utility.yul\":14842:14848   */\n      dup2\n        /* \"#utility.yul\":14839:14869   */\n      gt\n        /* \"#utility.yul\":14836:14892   */\n      iszero\n      tag_299\n      jumpi\n        /* \"#utility.yul\":14872:14890   */\n      tag_300\n      tag_98\n      jump\t// in\n    tag_300:\n        /* \"#utility.yul\":14836:14892   */\n    tag_299:\n        /* \"#utility.yul\":14916:14954   */\n      tag_301\n        /* \"#utility.yul\":14948:14952   */\n      dup3\n        /* \"#utility.yul\":14942:14953   */\n      sload\n        /* \"#utility.yul\":14916:14954   */\n      tag_54\n      jump\t// in\n    tag_301:\n        /* \"#utility.yul\":15001:15068   */\n      tag_302\n        /* \"#utility.yul\":15061:15067   */\n      dup3\n        /* \"#utility.yul\":15053:15059   */\n      dup3\n        /* \"#utility.yul\":15047:15051   */\n      dup6\n        /* \"#utility.yul\":15001:15068   */\n      tag_132\n      jump\t// in\n    tag_302:\n        /* \"#utility.yul\":15095:15096   */\n      0x00\n        /* \"#utility.yul\":15119:15123   */\n      0x20\n        /* \"#utility.yul\":15106:15123   */\n      swap1\n      pop\n        /* \"#utility.yul\":15151:15153   */\n      0x1f\n        /* \"#utility.yul\":15143:15149   */\n      dup4\n        /* \"#utility.yul\":15140:15154   */\n      gt\n        /* \"#utility.yul\":15168:15169   */\n      0x01\n        /* \"#utility.yul\":15163:15781   */\n      dup2\n      eq\n      tag_304\n      jumpi\n        /* \"#utility.yul\":15825:15826   */\n      0x00\n        /* \"#utility.yul\":15842:15848   */\n      dup5\n        /* \"#utility.yul\":15839:15916   */\n      iszero\n      tag_305\n      jumpi\n        /* \"#utility.yul\":15891:15900   */\n      dup3\n        /* \"#utility.yul\":15886:15889   */\n      dup8\n        /* \"#utility.yul\":15882:15901   */\n      add\n        /* \"#utility.yul\":15876:15902   */\n      mload\n        /* \"#utility.yul\":15867:15902   */\n      swap1\n      pop\n        /* \"#utility.yul\":15839:15916   */\n    tag_305:\n        /* \"#utility.yul\":15942:16009   */\n      tag_306\n        /* \"#utility.yul\":16002:16008   */\n      dup6\n        /* \"#utility.yul\":15995:16000   */\n      dup3\n        /* \"#utility.yul\":15942:16009   */\n      tag_135\n      jump\t// in\n    tag_306:\n        /* \"#utility.yul\":15936:15940   */\n      dup7\n        /* \"#utility.yul\":15929:16010   */\n      sstore\n        /* \"#utility.yul\":15798:16020   */\n      pop\n        /* \"#utility.yul\":15133:16020   */\n      jump(tag_303)\n        /* \"#utility.yul\":15163:15781   */\n    tag_304:\n        /* \"#utility.yul\":15215:15219   */\n      0x1f\n        /* \"#utility.yul\":15211:15220   */\n      not\n        /* \"#utility.yul\":15203:15209   */\n      dup5\n        /* \"#utility.yul\":15199:15221   */\n      and\n        /* \"#utility.yul\":15249:15286   */\n      tag_307\n        /* \"#utility.yul\":15281:15285   */\n      dup7\n        /* \"#utility.yul\":15249:15286   */\n      tag_121\n      jump\t// in\n    tag_307:\n        /* \"#utility.yul\":15308:15309   */\n      0x00\n        /* \"#utility.yul\":15322:15530   */\n    tag_308:\n        /* \"#utility.yul\":15336:15343   */\n      dup3\n        /* \"#utility.yul\":15333:15334   */\n      dup2\n        /* \"#utility.yul\":15330:15344   */\n      lt\n        /* \"#utility.yul\":15322:15530   */\n      iszero\n      tag_310\n      jumpi\n        /* \"#utility.yul\":15415:15424   */\n      dup5\n        /* \"#utility.yul\":15410:15413   */\n      dup10\n        /* \"#utility.yul\":15406:15425   */\n      add\n        /* \"#utility.yul\":15400:15426   */\n      mload\n        /* \"#utility.yul\":15392:15398   */\n      dup3\n        /* \"#utility.yul\":15385:15427   */\n      sstore\n        /* \"#utility.yul\":15466:15467   */\n      0x01\n        /* \"#utility.yul\":15458:15464   */\n      dup3\n        /* \"#utility.yul\":15454:15468   */\n      add\n        /* \"#utility.yul\":15444:15468   */\n      swap2\n      pop\n        /* \"#utility.yul\":15513:15515   */\n      0x20\n        /* \"#utility.yul\":15502:15511   */\n      dup6\n        /* \"#utility.yul\":15498:15516   */\n      add\n        /* \"#utility.yul\":15485:15516   */\n      swap5\n      pop\n        /* \"#utility.yul\":15359:15363   */\n      0x20\n        /* \"#utility.yul\":15356:15357   */\n      dup2\n        /* \"#utility.yul\":15352:15364   */\n      add\n        /* \"#utility.yul\":15347:15364   */\n      swap1\n      pop\n        /* \"#utility.yul\":15322:15530   */\n      jump(tag_308)\n    tag_310:\n        /* \"#utility.yul\":15558:15564   */\n      dup7\n        /* \"#utility.yul\":15549:15556   */\n      dup4\n        /* \"#utility.yul\":15546:15565   */\n      lt\n        /* \"#utility.yul\":15543:15722   */\n      iszero\n      tag_311\n      jumpi\n        /* \"#utility.yul\":15616:15625   */\n      dup5\n        /* \"#utility.yul\":15611:15614   */\n      dup10\n        /* \"#utility.yul\":15607:15626   */\n      add\n        /* \"#utility.yul\":15601:15627   */\n      mload\n        /* \"#utility.yul\":15659:15707   */\n      tag_312\n        /* \"#utility.yul\":15701:15705   */\n      0x1f\n        /* \"#utility.yul\":15693:15699   */\n      dup10\n        /* \"#utility.yul\":15689:15706   */\n      and\n        /* \"#utility.yul\":15678:15687   */\n      dup3\n        /* \"#utility.yul\":15659:15707   */\n      tag_134\n      jump\t// in\n    tag_312:\n        /* \"#utility.yul\":15651:15657   */\n      dup4\n        /* \"#utility.yul\":15644:15708   */\n      sstore\n        /* \"#utility.yul\":15566:15722   */\n      pop\n        /* \"#utility.yul\":15543:15722   */\n    tag_311:\n        /* \"#utility.yul\":15768:15769   */\n      0x01\n        /* \"#utility.yul\":15764:15765   */\n      0x02\n        /* \"#utility.yul\":15756:15762   */\n      dup9\n        /* \"#utility.yul\":15752:15766   */\n      mul\n        /* \"#utility.yul\":15748:15770   */\n      add\n        /* \"#utility.yul\":15742:15746   */\n      dup9\n        /* \"#utility.yul\":15735:15771   */\n      sstore\n        /* \"#utility.yul\":15170:15781   */\n      pop\n      pop\n      pop\n        /* \"#utility.yul\":15133:16020   */\n    tag_303:\n      pop\n        /* \"#utility.yul\":14723:16026   */\n      pop\n      pop\n      pop\n        /* \"#utility.yul\":14631:16026   */\n      pop\n      pop\n      jump\t// out\n        /* \"#utility.yul\":16032:16203   */\n    tag_136:\n        /* \"#utility.yul\":16172:16195   */\n      0x796f7520617265206e6f74207065726d69747465640000000000000000000000\n        /* \"#utility.yul\":16168:16169   */\n      0x00\n        /* \"#utility.yul\":16160:16166   */\n      dup3\n        /* \"#utility.yul\":16156:16170   */\n      add\n        /* \"#utility.yul\":16149:16196   */\n      mstore\n        /* \"#utility.yul\":16032:16203   */\n      pop\n      jump\t// out\n        /* \"#utility.yul\":16209:16575   */\n    tag_137:\n        /* \"#utility.yul\":16351:16354   */\n      0x00\n        /* \"#utility.yul\":16372:16439   */\n      tag_315\n        /* \"#utility.yul\":16436:16438   */\n      0x15\n        /* \"#utility.yul\":16431:16434   */\n      dup4\n        /* \"#utility.yul\":16372:16439   */\n      tag_113\n      jump\t// in\n    tag_315:\n        /* \"#utility.yul\":16365:16439   */\n      swap2\n      pop\n        /* \"#utility.yul\":16448:16541   */\n      tag_316\n        /* \"#utility.yul\":16537:16540   */\n      dup3\n        /* \"#utility.yul\":16448:16541   */\n      tag_136\n      jump\t// in\n    tag_316:\n        /* \"#utility.yul\":16566:16568   */\n      0x20\n        /* \"#utility.yul\":16561:16564   */\n      dup3\n        /* \"#utility.yul\":16557:16569   */\n      add\n        /* \"#utility.yul\":16550:16569   */\n      swap1\n      pop\n        /* \"#utility.yul\":16209:16575   */\n      swap2\n      swap1\n      pop\n      jump\t// out\n        /* \"#utility.yul\":16581:17000   */\n    tag_50:\n        /* \"#utility.yul\":16747:16751   */\n      0x00\n        /* \"#utility.yul\":16785:16787   */\n      0x20\n        /* \"#utility.yul\":16774:16783   */\n      dup3\n        /* \"#utility.yul\":16770:16788   */\n      add\n        /* \"#utility.yul\":16762:16788   */\n      swap1\n      pop\n        /* \"#utility.yul\":16834:16843   */\n      dup2\n        /* \"#utility.yul\":16828:16832   */\n      dup2\n        /* \"#utility.yul\":16824:16844   */\n      sub\n        /* \"#utility.yul\":16820:16821   */\n      0x00\n        /* \"#utility.yul\":16809:16818   */\n      dup4\n        /* \"#utility.yul\":16805:16822   */\n      add\n        /* \"#utility.yul\":16798:16845   */\n      mstore\n        /* \"#utility.yul\":16862:16993   */\n      tag_318\n        /* \"#utility.yul\":16988:16992   */\n      dup2\n        /* \"#utility.yul\":16862:16993   */\n      tag_137\n      jump\t// in\n    tag_318:\n        /* \"#utility.yul\":16854:16993   */\n      swap1\n      pop\n        /* \"#utility.yul\":16581:17000   */\n      swap2\n      swap1\n      pop\n      jump\t// out\n        /* \"#utility.yul\":17006:17186   */\n    tag_138:\n        /* \"#utility.yul\":17054:17131   */\n      0x4e487b7100000000000000000000000000000000000000000000000000000000\n        /* \"#utility.yul\":17051:17052   */\n      0x00\n        /* \"#utility.yul\":17044:17132   */\n      mstore\n        /* \"#utility.yul\":17151:17155   */\n      0x11\n        /* \"#utility.yul\":17148:17149   */\n      0x04\n        /* \"#utility.yul\":17141:17156   */\n      mstore\n        /* \"#utility.yul\":17175:17179   */\n      0x24\n        /* \"#utility.yul\":17172:17173   */\n      0x00\n        /* \"#utility.yul\":17165:17180   */\n      revert\n        /* \"#utility.yul\":17192:17383   */\n    tag_52:\n        /* \"#utility.yul\":17232:17235   */\n      0x00\n        /* \"#utility.yul\":17251:17271   */\n      tag_321\n        /* \"#utility.yul\":17269:17270   */\n      dup3\n        /* \"#utility.yul\":17251:17271   */\n      tag_92\n      jump\t// in\n    tag_321:\n        /* \"#utility.yul\":17246:17271   */\n      swap2\n      pop\n        /* \"#utility.yul\":17285:17305   */\n      tag_322\n        /* \"#utility.yul\":17303:17304   */\n      dup4\n        /* \"#utility.yul\":17285:17305   */\n      tag_92\n      jump\t// in\n    tag_322:\n        /* \"#utility.yul\":17280:17305   */\n      swap3\n      pop\n        /* \"#utility.yul\":17328:17329   */\n      dup3\n        /* \"#utility.yul\":17325:17326   */\n      dup3\n        /* \"#utility.yul\":17321:17330   */\n      add\n        /* \"#utility.yul\":17314:17330   */\n      swap1\n      pop\n        /* \"#utility.yul\":17349:17352   */\n      dup1\n        /* \"#utility.yul\":17346:17347   */\n      dup3\n        /* \"#utility.yul\":17343:17353   */\n      gt\n        /* \"#utility.yul\":17340:17376   */\n      iszero\n      tag_323\n      jumpi\n        /* \"#utility.yul\":17356:17374   */\n      tag_324\n      tag_138\n      jump\t// in\n    tag_324:\n        /* \"#utility.yul\":17340:17376   */\n    tag_323:\n        /* \"#utility.yul\":17192:17383   */\n      swap3\n      swap2\n      pop\n      pop\n      jump\t// out\n        /* \"#utility.yul\":17389:17560   */\n    tag_139:\n        /* \"#utility.yul\":17529:17552   */\n      0x796f752068617665206e6f207265616c20626f6f6b0000000000000000000000\n        /* \"#utility.yul\":17525:17526   */\n      0x00\n        /* \"#utility.yul\":17517:17523   */\n      dup3\n        /* \"#utility.yul\":17513:17527   */\n      add\n        /* \"#utility.yul\":17506:17553   */\n      mstore\n        /* \"#utility.yul\":17389:17560   */\n      pop\n      jump\t// out\n        /* \"#utility.yul\":17566:17932   */\n    tag_140:\n        /* \"#utility.yul\":17708:17711   */\n      0x00\n        /* \"#utility.yul\":17729:17796   */\n      tag_327\n        /* \"#utility.yul\":17793:17795   */\n      0x15\n        /* \"#utility.yul\":17788:17791   */\n      dup4\n        /* \"#utility.yul\":17729:17796   */\n      tag_113\n      jump\t// in\n    tag_327:\n        /* \"#utility.yul\":17722:17796   */\n      swap2\n      pop\n        /* \"#utility.yul\":17805:17898   */\n      tag_328\n        /* \"#utility.yul\":17894:17897   */\n      dup3\n        /* \"#utility.yul\":17805:17898   */\n      tag_139\n      jump\t// in\n    tag_328:\n        /* \"#utility.yul\":17923:17925   */\n      0x20\n        /* \"#utility.yul\":17918:17921   */\n      dup3\n        /* \"#utility.yul\":17914:17926   */\n      add\n        /* \"#utility.yul\":17907:17926   */\n      swap1\n      pop\n        /* \"#utility.yul\":17566:17932   */\n      swap2\n      swap1\n      pop\n      jump\t// out\n        /* \"#utility.yul\":17938:18357   */\n    tag_79:\n        /* \"#utility.yul\":18104:18108   */\n      0x00\n        /* \"#utility.yul\":18142:18144   */\n      0x20\n        /* \"#utility.yul\":18131:18140   */\n      dup3\n        /* \"#utility.yul\":18127:18145   */\n      add\n        /* \"#utility.yul\":18119:18145   */\n      swap1\n      pop\n        /* \"#utility.yul\":18191:18200   */\n      dup2\n        /* \"#utility.yul\":18185:18189   */\n      dup2\n        /* \"#utility.yul\":18181:18201   */\n      sub\n        /* \"#utility.yul\":18177:18178   */\n      0x00\n        /* \"#utility.yul\":18166:18175   */\n      dup4\n        /* \"#utility.yul\":18162:18179   */\n      add\n        /* \"#utility.yul\":18155:18202   */\n      mstore\n        /* \"#utility.yul\":18219:18350   */\n      tag_330\n        /* \"#utility.yul\":18345:18349   */\n      dup2\n        /* \"#utility.yul\":18219:18350   */\n      tag_140\n      jump\t// in\n    tag_330:\n        /* \"#utility.yul\":18211:18350   */\n      swap1\n      pop\n        /* \"#utility.yul\":17938:18357   */\n      swap2\n      swap1\n      pop\n      jump\t// out\n        /* \"#utility.yul\":18363:18557   */\n    tag_81:\n        /* \"#utility.yul\":18403:18407   */\n      0x00\n        /* \"#utility.yul\":18423:18443   */\n      tag_332\n        /* \"#utility.yul\":18441:18442   */\n      dup3\n        /* \"#utility.yul\":18423:18443   */\n      tag_92\n      jump\t// in\n    tag_332:\n        /* \"#utility.yul\":18418:18443   */\n      swap2\n      pop\n        /* \"#utility.yul\":18457:18477   */\n      tag_333\n        /* \"#utility.yul\":18475:18476   */\n      dup4\n        /* \"#utility.yul\":18457:18477   */\n      tag_92\n      jump\t// in\n    tag_333:\n        /* \"#utility.yul\":18452:18477   */\n      swap3\n      pop\n        /* \"#utility.yul\":18501:18502   */\n      dup3\n        /* \"#utility.yul\":18498:18499   */\n      dup3\n        /* \"#utility.yul\":18494:18503   */\n      sub\n        /* \"#utility.yul\":18486:18503   */\n      swap1\n      pop\n        /* \"#utility.yul\":18525:18526   */\n      dup2\n        /* \"#utility.yul\":18519:18523   */\n      dup2\n        /* \"#utility.yul\":18516:18527   */\n      gt\n        /* \"#utility.yul\":18513:18550   */\n      iszero\n      tag_334\n      jumpi\n        /* \"#utility.yul\":18530:18548   */\n      tag_335\n      tag_138\n      jump\t// in\n    tag_335:\n        /* \"#utility.yul\":18513:18550   */\n    tag_334:\n        /* \"#utility.yul\":18363:18557   */\n      swap3\n      swap2\n      pop\n      pop\n      jump\t// out\n        /* \"#utility.yul\":18563:18732   */\n    tag_141:\n        /* \"#utility.yul\":18703:18724   */\n      0x796f7520617265206e6f7420616c6c6f77656400000000000000000000000000\n        /* \"#utility.yul\":18699:18700   */\n      0x00\n        /* \"#utility.yul\":18691:18697   */\n      dup3\n        /* \"#utility.yul\":18687:18701   */\n      add\n        /* \"#utility.yul\":18680:18725   */\n      mstore\n        /* \"#utility.yul\":18563:18732   */\n      pop\n      jump\t// out\n        /* \"#utility.yul\":18738:19104   */\n    tag_142:\n        /* \"#utility.yul\":18880:18883   */\n      0x00\n        /* \"#utility.yul\":18901:18968   */\n      tag_338\n        /* \"#utility.yul\":18965:18967   */\n      0x13\n        /* \"#utility.yul\":18960:18963   */\n      dup4\n        /* \"#utility.yul\":18901:18968   */\n      tag_113\n      jump\t// in\n    tag_338:\n        /* \"#utility.yul\":18894:18968   */\n      swap2\n      pop\n        /* \"#utility.yul\":18977:19070   */\n      tag_339\n        /* \"#utility.yul\":19066:19069   */\n      dup3\n        /* \"#utility.yul\":18977:19070   */\n      tag_141\n      jump\t// in\n    tag_339:\n        /* \"#utility.yul\":19095:19097   */\n      0x20\n        /* \"#utility.yul\":19090:19093   */\n      dup3\n        /* \"#utility.yul\":19086:19098   */\n      add\n        /* \"#utility.yul\":19079:19098   */\n      swap1\n      pop\n        /* \"#utility.yul\":18738:19104   */\n      swap2\n      swap1\n      pop\n      jump\t// out\n        /* \"#utility.yul\":19110:19529   */\n    tag_85:\n        /* \"#utility.yul\":19276:19280   */\n      0x00\n        /* \"#utility.yul\":19314:19316   */\n      0x20\n        /* \"#utility.yul\":19303:19312   */\n      dup3\n        /* \"#utility.yul\":19299:19317   */\n      add\n        /* \"#utility.yul\":19291:19317   */\n      swap1\n      pop\n        /* \"#utility.yul\":19363:19372   */\n      dup2\n        /* \"#utility.yul\":19357:19361   */\n      dup2\n        /* \"#utility.yul\":19353:19373   */\n      sub\n        /* \"#utility.yul\":19349:19350   */\n      0x00\n        /* \"#utility.yul\":19338:19347   */\n      dup4\n        /* \"#utility.yul\":19334:19351   */\n      add\n        /* \"#utility.yul\":19327:19374   */\n      mstore\n        /* \"#utility.yul\":19391:19522   */\n      tag_341\n        /* \"#utility.yul\":19517:19521   */\n      dup2\n        /* \"#utility.yul\":19391:19522   */\n      tag_142\n      jump\t// in\n    tag_341:\n        /* \"#utility.yul\":19383:19522   */\n      swap1\n      pop\n        /* \"#utility.yul\":19110:19529   */\n      swap2\n      swap1\n      pop\n      jump\t// out\n\n    auxdata: 0xa264697066735822122097a58e6082de4b1abf3e920d5aaeac9ed83ca63e0390f95d1c41d7181b5c358b64736f6c63430008180033\n}\n",
				"bytecode": {
					"linkReferences": {},
					"object": "608060405234801561000f575f80fd5b50335f806101000a81548173ffffffffffffffffffffffffffffffffffffffff021916908373ffffffffffffffffffffffffffffffffffffffff16021790555061140a8061005c5f395ff3fe608060405234801561000f575f80fd5b506004361061007b575f3560e01c8063687440461161005957806368744046146100e95780637930bd8b1461011b5780638f8261f814610137578063a437d45f146101535761007b565b8063070cbe2a1461007f57806351f879641461009b5780635daf08ca146100b7575b5f80fd5b61009960048036038101906100949190610b47565b610171565b005b6100b560048036038101906100b09190610ba1565b6102c8565b005b6100d160048036038101906100cc9190610bdf565b610400565b6040516100e093929190610d08565b60405180910390f35b61010360048036038101906100fe9190610bdf565b6105eb565b60405161011293929190610dcb565b60405180910390f35b61013560048036038101906101309190610ba1565b6106c2565b005b610151600480360381019061014c9190610e07565b610849565b005b61015b6109a4565b6040516101689190610ebf565b60405180910390f35b5f8054906101000a900473ffffffffffffffffffffffffffffffffffffffff1673ffffffffffffffffffffffffffffffffffffffff163373ffffffffffffffffffffffffffffffffffffffff16146101fe576040517f08c379a00000000000000000000000000000000000000000000000000000000081526004016101f590610f22565b60405180910390fd5b5f60405180606001604052806001151581526020018381526020015f73ffffffffffffffffffffffffffffffffffffffff1681525090508060015f8581526020019081526020015f205f820151815f015f6101000a81548160ff0219169083151502179055506020820151816001019081610279919061113a565b506040820151816002015f6101000a81548173ffffffffffffffffffffffffffffffffffffffff021916908373ffffffffffffffffffffffffffffffffffffffff160217905550905050505050565b5f8054906101000a900473ffffffffffffffffffffffffffffffffffffffff1673ffffffffffffffffffffffffffffffffffffffff163373ffffffffffffffffffffffffffffffffffffffff1603610355576040517f08c379a000000000000000000000000000000000000000000000000000000000815260040161034c90611253565b60405180910390fd5b5f60015f8481526020019081526020015f205f015f6101000a81548160ff0219169083151502179055503360015f8481526020019081526020015f206002015f6101000a81548173ffffffffffffffffffffffffffffffffffffffff021916908373ffffffffffffffffffffffffffffffffffffffff160217905550600160025f8381526020019081526020015f206004015f8282546103f5919061129e565b925050819055505050565b6002602052805f5260405f205f91509050805f015f9054906101000a900460ff1690806001016040518060600160405290815f8201805461044090610f6d565b80601f016020809104026020016040519081016040528092919081815260200182805461046c90610f6d565b80156104b75780601f1061048e576101008083540402835291602001916104b7565b820191905f5260205f20905b81548152906001019060200180831161049a57829003601f168201915b505050505081526020016001820180546104d090610f6d565b80601f01602080910402602001604051908101604052809291908181526020018280546104fc90610f6d565b80156105475780601f1061051e57610100808354040283529160200191610547565b820191905f5260205f20905b81548152906001019060200180831161052a57829003601f168201915b5050505050815260200160028201805461056090610f6d565b80601f016020809104026020016040519081016040528092919081815260200182805461058c90610f6d565b80156105d75780601f106105ae576101008083540402835291602001916105d7565b820191905f5260205f20905b8154815290600101906020018083116105ba57829003601f168201915b505050505081525050908060040154905083565b6001602052805f5260405f205f91509050805f015f9054906101000a900460ff169080600101805461061c90610f6d565b80601f016020809104026020016040519081016040528092919081815260200182805461064890610f6d565b80156106935780601f1061066a57610100808354040283529160200191610693565b820191905f5260205f20905b81548152906001019060200180831161067657829003601f168201915b505050505090806002015f9054906101000a900473ffffffffffffffffffffffffffffffffffffffff16905083565b5f8054906101000a900473ffffffffffffffffffffffffffffffffffffffff1673ffffffffffffffffffffffffffffffffffffffff163373ffffffffffffffffffffffffffffffffffffffff160361074f576040517f08c379a000000000000000000000000000000000000000000000000000000000815260040161074690611253565b60405180910390fd5b3373ffffffffffffffffffffffffffffffffffffffff1660015f8481526020019081526020015f206002015f9054906101000a900473ffffffffffffffffffffffffffffffffffffffff1673ffffffffffffffffffffffffffffffffffffffff16146107f0576040517f08c379a00000000000000000000000000000000000000000000000000000000081526004016107e79061131b565b60405180910390fd5b6001805f8481526020019081526020015f205f015f6101000a81548160ff021916908315150217905550600160025f8381526020019081526020015f206004015f82825461083e9190611339565b925050819055505050565b5f8054906101000a900473ffffffffffffffffffffffffffffffffffffffff1673ffffffffffffffffffffffffffffffffffffffff163373ffffffffffffffffffffffffffffffffffffffff16036108d6576040517f08c379a00000000000000000000000000000000000000000000000000000000081526004016108cd906113b6565b60405180910390fd5b5f60405180606001604052808581526020018481526020018381525090505f60405180606001604052806001151581526020018381526020015f81525090508060025f8881526020019081526020015f205f820151815f015f6101000a81548160ff0219169083151502179055506020820151816001015f820151815f019081610960919061113a565b506020820151816001019081610976919061113a565b50604082015181600201908161098c919061113a565b50505060408201518160040155905050505050505050565b5f8054906101000a900473ffffffffffffffffffffffffffffffffffffffff1681565b5f604051905090565b5f80fd5b5f80fd5b5f819050919050565b6109ea816109d8565b81146109f4575f80fd5b50565b5f81359050610a05816109e1565b92915050565b5f80fd5b5f80fd5b5f601f19601f8301169050919050565b7f4e487b71000000000000000000000000000000000000000000000000000000005f52604160045260245ffd5b610a5982610a13565b810181811067ffffffffffffffff82111715610a7857610a77610a23565b5b80604052505050565b5f610a8a6109c7565b9050610a968282610a50565b919050565b5f67ffffffffffffffff821115610ab557610ab4610a23565b5b610abe82610a13565b9050602081019050919050565b828183375f83830152505050565b5f610aeb610ae684610a9b565b610a81565b905082815260208101848484011115610b0757610b06610a0f565b5b610b12848285610acb565b509392505050565b5f82601f830112610b2e57610b2d610a0b565b5b8135610b3e848260208601610ad9565b91505092915050565b5f8060408385031215610b5d57610b5c6109d0565b5b5f610b6a858286016109f7565b925050602083013567ffffffffffffffff811115610b8b57610b8a6109d4565b5b610b9785828601610b1a565b9150509250929050565b5f8060408385031215610bb757610bb66109d0565b5b5f610bc4858286016109f7565b9250506020610bd5858286016109f7565b9150509250929050565b5f60208284031215610bf457610bf36109d0565b5b5f610c01848285016109f7565b91505092915050565b5f8115159050919050565b610c1e81610c0a565b82525050565b5f81519050919050565b5f82825260208201905092915050565b5f5b83811015610c5b578082015181840152602081019050610c40565b5f8484015250505050565b5f610c7082610c24565b610c7a8185610c2e565b9350610c8a818560208601610c3e565b610c9381610a13565b840191505092915050565b5f606083015f8301518482035f860152610cb88282610c66565b91505060208301518482036020860152610cd28282610c66565b91505060408301518482036040860152610cec8282610c66565b9150508091505092915050565b610d02816109d8565b82525050565b5f606082019050610d1b5f830186610c15565b8181036020830152610d2d8185610c9e565b9050610d3c6040830184610cf9565b949350505050565b5f82825260208201905092915050565b5f610d5e82610c24565b610d688185610d44565b9350610d78818560208601610c3e565b610d8181610a13565b840191505092915050565b5f73ffffffffffffffffffffffffffffffffffffffff82169050919050565b5f610db582610d8c565b9050919050565b610dc581610dab565b82525050565b5f606082019050610dde5f830186610c15565b8181036020830152610df08185610d54565b9050610dff6040830184610dbc565b949350505050565b5f805f8060808587031215610e1f57610e1e6109d0565b5b5f610e2c878288016109f7565b945050602085013567ffffffffffffffff811115610e4d57610e4c6109d4565b5b610e5987828801610b1a565b935050604085013567ffffffffffffffff811115610e7a57610e796109d4565b5b610e8687828801610b1a565b925050606085013567ffffffffffffffff811115610ea757610ea66109d4565b5b610eb387828801610b1a565b91505092959194509250565b5f602082019050610ed25f830184610dbc565b92915050565b7f596f7520617265206e6f74204c696272617269616e00000000000000000000005f82015250565b5f610f0c601583610d44565b9150610f1782610ed8565b602082019050919050565b5f6020820190508181035f830152610f3981610f00565b9050919050565b7f4e487b71000000000000000000000000000000000000000000000000000000005f52602260045260245ffd5b5f6002820490506001821680610f8457607f821691505b602082108103610f9757610f96610f40565b5b50919050565b5f819050815f5260205f209050919050565b5f6020601f8301049050919050565b5f82821b905092915050565b5f60088302610ff97fffffffffffffffffffffffffffffffffffffffffffffffffffffffffffffffff82610fbe565b6110038683610fbe565b95508019841693508086168417925050509392505050565b5f819050919050565b5f61103e611039611034846109d8565b61101b565b6109d8565b9050919050565b5f819050919050565b61105783611024565b61106b61106382611045565b848454610fca565b825550505050565b5f90565b61107f611073565b61108a81848461104e565b505050565b5b818110156110ad576110a25f82611077565b600181019050611090565b5050565b601f8211156110f2576110c381610f9d565b6110cc84610faf565b810160208510156110db578190505b6110ef6110e785610faf565b83018261108f565b50505b505050565b5f82821c905092915050565b5f6111125f19846008026110f7565b1980831691505092915050565b5f61112a8383611103565b9150826002028217905092915050565b61114382610c24565b67ffffffffffffffff81111561115c5761115b610a23565b5b6111668254610f6d565b6111718282856110b1565b5f60209050601f8311600181146111a2575f8415611190578287015190505b61119a858261111f565b865550611201565b601f1984166111b086610f9d565b5f5b828110156111d7578489015182556001820191506020850194506020810190506111b2565b868310156111f457848901516111f0601f891682611103565b8355505b6001600288020188555050505b505050505050565b7f796f7520617265206e6f74207065726d697474656400000000000000000000005f82015250565b5f61123d601583610d44565b915061124882611209565b602082019050919050565b5f6020820190508181035f83015261126a81611231565b9050919050565b7f4e487b71000000000000000000000000000000000000000000000000000000005f52601160045260245ffd5b5f6112a8826109d8565b91506112b3836109d8565b92508282019050808211156112cb576112ca611271565b5b92915050565b7f796f752068617665206e6f207265616c20626f6f6b00000000000000000000005f82015250565b5f611305601583610d44565b9150611310826112d1565b602082019050919050565b5f6020820190508181035f830152611332816112f9565b9050919050565b5f611343826109d8565b915061134e836109d8565b925082820390508181111561136657611365611271565b5b92915050565b7f796f7520617265206e6f7420616c6c6f776564000000000000000000000000005f82015250565b5f6113a0601383610d44565b91506113ab8261136c565b602082019050919050565b5f6020820190508181035f8301526113cd81611394565b905091905056fea264697066735822122097a58e6082de4b1abf3e920d5aaeac9ed83ca63e0390f95d1c41d7181b5c358b64736f6c63430008180033",
					"opcodes": "PUSH1 0x80 PUSH1 0x40 MSTORE CALLVALUE DUP1 ISZERO PUSH2 0xF JUMPI PUSH0 DUP1 REVERT JUMPDEST POP CALLER PUSH0 DUP1 PUSH2 0x100 EXP DUP2 SLOAD DUP2 PUSH20 0xFFFFFFFFFFFFFFFFFFFFFFFFFFFFFFFFFFFFFFFF MUL NOT AND SWAP1 DUP4 PUSH20 0xFFFFFFFFFFFFFFFFFFFFFFFFFFFFFFFFFFFFFFFF AND MUL OR SWAP1 SSTORE POP PUSH2 0x140A DUP1 PUSH2 0x5C PUSH0 CODECOPY PUSH0 RETURN INVALID PUSH1 0x80 PUSH1 0x40 MSTORE CALLVALUE DUP1 ISZERO PUSH2 0xF JUMPI PUSH0 DUP1 REVERT JUMPDEST POP PUSH1 0x4 CALLDATASIZE LT PUSH2 0x7B JUMPI PUSH0 CALLDATALOAD PUSH1 0xE0 SHR DUP1 PUSH4 0x68744046 GT PUSH2 0x59 JUMPI DUP1 PUSH4 0x68744046 EQ PUSH2 0xE9 JUMPI DUP1 PUSH4 0x7930BD8B EQ PUSH2 0x11B JUMPI DUP1 PUSH4 0x8F8261F8 EQ PUSH2 0x137 JUMPI DUP1 PUSH4 0xA437D45F EQ PUSH2 0x153 JUMPI PUSH2 0x7B JUMP JUMPDEST DUP1 PUSH4 0x70CBE2A EQ PUSH2 0x7F JUMPI DUP1 PUSH4 0x51F87964 EQ PUSH2 0x9B JUMPI DUP1 PUSH4 0x5DAF08CA EQ PUSH2 0xB7 JUMPI JUMPDEST PUSH0 DUP1 REVERT JUMPDEST PUSH2 0x99 PUSH1 0x4 DUP1 CALLDATASIZE SUB DUP2 ADD SWAP1 PUSH2 0x94 SWAP2 SWAP1 PUSH2 0xB47 JUMP JUMPDEST PUSH2 0x171 JUMP JUMPDEST STOP JUMPDEST PUSH2 0xB5 PUSH1 0x4 DUP1 CALLDATASIZE SUB DUP2 ADD SWAP1 PUSH2 0xB0 SWAP2 SWAP1 PUSH2 0xBA1 JUMP JUMPDEST PUSH2 0x2C8 JUMP JUMPDEST STOP JUMPDEST PUSH2 0xD1 PUSH1 0x4 DUP1 CALLDATASIZE SUB DUP2 ADD SWAP1 PUSH2 0xCC SWAP2 SWAP1 PUSH2 0xBDF JUMP JUMPDEST PUSH2 0x400 JUMP JUMPDEST PUSH1 0x40 MLOAD PUSH2 0xE0 SWAP4 SWAP3 SWAP2 SWAP1 PUSH2 0xD08 JUMP JUMPDEST PUSH1 0x40 MLOAD DUP1 SWAP2 SUB SWAP1 RETURN JUMPDEST PUSH2 0x103 PUSH1 0x4 DUP1 CALLDATASIZE SUB DUP2 ADD SWAP1 PUSH2 0xFE SWAP2 SWAP1 PUSH2 0xBDF JUMP JUMPDEST PUSH2 0x5EB JUMP JUMPDEST PUSH1 0x40 MLOAD PUSH2 0x112 SWAP4 SWAP3 SWAP2 SWAP1 PUSH2 0xDCB JUMP JUMPDEST PUSH1 0x40 MLOAD DUP1 SWAP2 SUB SWAP1 RETURN JUMPDEST PUSH2 0x135 PUSH1 0x4 DUP1 CALLDATASIZE SUB DUP2 ADD SWAP1 PUSH2 0x130 SWAP2 SWAP1 PUSH2 0xBA1 JUMP JUMPDEST PUSH2 0x6C2 JUMP JUMPDEST STOP JUMPDEST PUSH2 0x151 PUSH1 0x4 DUP1 CALLDATASIZE SUB DUP2 ADD SWAP1 PUSH2 0x14C SWAP2 SWAP1 PUSH2 0xE07 JUMP JUMPDEST PUSH2 0x849 JUMP JUMPDEST STOP JUMPDEST PUSH2 0x15B PUSH2 0x9A4 JUMP JUMPDEST PUSH1 0x40 MLOAD PUSH2 0x168 SWAP2 SWAP1 PUSH2 0xEBF JUMP JUMPDEST PUSH1 0x40 MLOAD DUP1 SWAP2 SUB SWAP1 RETURN JUMPDEST PUSH0 DUP1 SLOAD SWAP1 PUSH2 0x100 EXP SWAP1 DIV PUSH20 0xFFFFFFFFFFFFFFFFFFFFFFFFFFFFFFFFFFFFFFFF AND PUSH20 0xFFFFFFFFFFFFFFFFFFFFFFFFFFFFFFFFFFFFFFFF AND CALLER PUSH20 0xFFFFFFFFFFFFFFFFFFFFFFFFFFFFFFFFFFFFFFFF AND EQ PUSH2 0x1FE JUMPI PUSH1 0x40 MLOAD PUSH32 0x8C379A000000000000000000000000000000000000000000000000000000000 DUP2 MSTORE PUSH1 0x4 ADD PUSH2 0x1F5 SWAP1 PUSH2 0xF22 JUMP JUMPDEST PUSH1 0x40 MLOAD DUP1 SWAP2 SUB SWAP1 REVERT JUMPDEST PUSH0 PUSH1 0x40 MLOAD DUP1 PUSH1 0x60 ADD PUSH1 0x40 MSTORE DUP1 PUSH1 0x1 ISZERO ISZERO DUP2 MSTORE PUSH1 0x20 ADD DUP4 DUP2 MSTORE PUSH1 0x20 ADD PUSH0 PUSH20 0xFFFFFFFFFFFFFFFFFFFFFFFFFFFFFFFFFFFFFFFF AND DUP2 MSTORE POP SWAP1 POP DUP1 PUSH1 0x1 PUSH0 DUP6 DUP2 MSTORE PUSH1 0x20 ADD SWAP1 DUP2 MSTORE PUSH1 0x20 ADD PUSH0 KECCAK256 PUSH0 DUP3 ADD MLOAD DUP2 PUSH0 ADD PUSH0 PUSH2 0x100 EXP DUP2 SLOAD DUP2 PUSH1 0xFF MUL NOT AND SWAP1 DUP4 ISZERO ISZERO MUL OR SWAP1 SSTORE POP PUSH1 0x20 DUP3 ADD MLOAD DUP2 PUSH1 0x1 ADD SWAP1 DUP2 PUSH2 0x279 SWAP2 SWAP1 PUSH2 0x113A JUMP JUMPDEST POP PUSH1 0x40 DUP3 ADD MLOAD DUP2 PUSH1 0x2 ADD PUSH0 PUSH2 0x100 EXP DUP2 SLOAD DUP2 PUSH20 0xFFFFFFFFFFFFFFFFFFFFFFFFFFFFFFFFFFFFFFFF MUL NOT AND SWAP1 DUP4 PUSH20 0xFFFFFFFFFFFFFFFFFFFFFFFFFFFFFFFFFFFFFFFF AND MUL OR SWAP1 SSTORE POP SWAP1 POP POP POP POP POP JUMP JUMPDEST PUSH0 DUP1 SLOAD SWAP1 PUSH2 0x100 EXP SWAP1 DIV PUSH20 0xFFFFFFFFFFFFFFFFFFFFFFFFFFFFFFFFFFFFFFFF AND PUSH20 0xFFFFFFFFFFFFFFFFFFFFFFFFFFFFFFFFFFFFFFFF AND CALLER PUSH20 0xFFFFFFFFFFFFFFFFFFFFFFFFFFFFFFFFFFFFFFFF AND SUB PUSH2 0x355 JUMPI PUSH1 0x40 MLOAD PUSH32 0x8C379A000000000000000000000000000000000000000000000000000000000 DUP2 MSTORE PUSH1 0x4 ADD PUSH2 0x34C SWAP1 PUSH2 0x1253 JUMP JUMPDEST PUSH1 0x40 MLOAD DUP1 SWAP2 SUB SWAP1 REVERT JUMPDEST PUSH0 PUSH1 0x1 PUSH0 DUP5 DUP2 MSTORE PUSH1 0x20 ADD SWAP1 DUP2 MSTORE PUSH1 0x20 ADD PUSH0 KECCAK256 PUSH0 ADD PUSH0 PUSH2 0x100 EXP DUP2 SLOAD DUP2 PUSH1 0xFF MUL NOT AND SWAP1 DUP4 ISZERO ISZERO MUL OR SWAP1 SSTORE POP CALLER PUSH1 0x1 PUSH0 DUP5 DUP2 MSTORE PUSH1 0x20 ADD SWAP1 DUP2 MSTORE PUSH1 0x20 ADD PUSH0 KECCAK256 PUSH1 0x2 ADD PUSH0 PUSH2 0x100 EXP DUP2 SLOAD DUP2 PUSH20 0xFFFFFFFFFFFFFFFFFFFFFFFFFFFFFFFFFFFFFFFF MUL NOT AND SWAP1 DUP4 PUSH20 0xFFFFFFFFFFFFFFFFFFFFFFFFFFFFFFFFFFFFFFFF AND MUL OR SWAP1 SSTORE POP PUSH1 0x1 PUSH1 0x2 PUSH0 DUP4 DUP2 MSTORE PUSH1 0x20 ADD SWAP1 DUP2 MSTORE PUSH1 0x20 ADD PUSH0 KECCAK256 PUSH1 0x4 ADD PUSH0 DUP3 DUP3 SLOAD PUSH2 0x3F5 SWAP2 SWAP1 PUSH2 0x129E JUMP JUMPDEST SWAP3 POP POP DUP2 SWAP1 SSTORE POP POP POP JUMP JUMPDEST PUSH1 0x2 PUSH1 0x20 MSTORE DUP1 PUSH0 MSTORE PUSH1 0x40 PUSH0 KECCAK256 PUSH0 SWAP2 POP SWAP1 POP DUP1 PUSH0 ADD PUSH0 SWAP1 SLOAD SWAP1 PUSH2 0x100 EXP SWAP1 DIV PUSH1 0xFF AND SWAP1 DUP1 PUSH1 0x1 ADD PUSH1 0x40 MLOAD DUP1 PUSH1 0x60 ADD PUSH1 0x40 MSTORE SWAP1 DUP2 PUSH0 DUP3 ADD DUP1 SLOAD PUSH2 0x440 SWAP1 PUSH2 0xF6D JUMP JUMPDEST DUP1 PUSH1 0x1F ADD PUSH1 0x20 DUP1 SWAP2 DIV MUL PUSH1 0x20 ADD PUSH1 0x40 MLOAD SWAP1 DUP2 ADD PUSH1 0x40 MSTORE DUP1 SWAP3 SWAP2 SWAP1 DUP2 DUP2 MSTORE PUSH1 0x20 ADD DUP3 DUP1 SLOAD PUSH2 0x46C SWAP1 PUSH2 0xF6D JUMP JUMPDEST DUP1 ISZERO PUSH2 0x4B7 JUMPI DUP1 PUSH1 0x1F LT PUSH2 0x48E JUMPI PUSH2 0x100 DUP1 DUP4 SLOAD DIV MUL DUP4 MSTORE SWAP2 PUSH1 0x20 ADD SWAP2 PUSH2 0x4B7 JUMP JUMPDEST DUP3 ADD SWAP2 SWAP1 PUSH0 MSTORE PUSH1 0x20 PUSH0 KECCAK256 SWAP1 JUMPDEST DUP2 SLOAD DUP2 MSTORE SWAP1 PUSH1 0x1 ADD SWAP1 PUSH1 0x20 ADD DUP1 DUP4 GT PUSH2 0x49A JUMPI DUP3 SWAP1 SUB PUSH1 0x1F AND DUP3 ADD SWAP2 JUMPDEST POP POP POP POP POP DUP2 MSTORE PUSH1 0x20 ADD PUSH1 0x1 DUP3 ADD DUP1 SLOAD PUSH2 0x4D0 SWAP1 PUSH2 0xF6D JUMP JUMPDEST DUP1 PUSH1 0x1F ADD PUSH1 0x20 DUP1 SWAP2 DIV MUL PUSH1 0x20 ADD PUSH1 0x40 MLOAD SWAP1 DUP2 ADD PUSH1 0x40 MSTORE DUP1 SWAP3 SWAP2 SWAP1 DUP2 DUP2 MSTORE PUSH1 0x20 ADD DUP3 DUP1 SLOAD PUSH2 0x4FC SWAP1 PUSH2 0xF6D JUMP JUMPDEST DUP1 ISZERO PUSH2 0x547 JUMPI DUP1 PUSH1 0x1F LT PUSH2 0x51E JUMPI PUSH2 0x100 DUP1 DUP4 SLOAD DIV MUL DUP4 MSTORE SWAP2 PUSH1 0x20 ADD SWAP2 PUSH2 0x547 JUMP JUMPDEST DUP3 ADD SWAP2 SWAP1 PUSH0 MSTORE PUSH1 0x20 PUSH0 KECCAK256 SWAP1 JUMPDEST DUP2 SLOAD DUP2 MSTORE SWAP1 PUSH1 0x1 ADD SWAP1 PUSH1 0x20 ADD DUP1 DUP4 GT PUSH2 0x52A JUMPI DUP3 SWAP1 SUB PUSH1 0x1F AND DUP3 ADD SWAP2 JUMPDEST POP POP POP POP POP DUP2 MSTORE PUSH1 0x20 ADD PUSH1 0x2 DUP3 ADD DUP1 SLOAD PUSH2 0x560 SWAP1 PUSH2 0xF6D JUMP JUMPDEST DUP1 PUSH1 0x1F ADD PUSH1 0x20 DUP1 SWAP2 DIV MUL PUSH1 0x20 ADD PUSH1 0x40 MLOAD SWAP1 DUP2 ADD PUSH1 0x40 MSTORE DUP1 SWAP3 SWAP2 SWAP1 DUP2 DUP2 MSTORE PUSH1 0x20 ADD DUP3 DUP1 SLOAD PUSH2 0x58C SWAP1 PUSH2 0xF6D JUMP JUMPDEST DUP1 ISZERO PUSH2 0x5D7 JUMPI DUP1 PUSH1 0x1F LT PUSH2 0x5AE JUMPI PUSH2 0x100 DUP1 DUP4 SLOAD DIV MUL DUP4 MSTORE SWAP2 PUSH1 0x20 ADD SWAP2 PUSH2 0x5D7 JUMP JUMPDEST DUP3 ADD SWAP2 SWAP1 PUSH0 MSTORE PUSH1 0x20 PUSH0 KECCAK256 SWAP1 JUMPDEST DUP2 SLOAD DUP2 MSTORE SWAP1 PUSH1 0x1 ADD SWAP1 PUSH1 0x20 ADD DUP1 DUP4 GT PUSH2 0x5BA JUMPI DUP3 SWAP1 SUB PUSH1 0x1F AND DUP3 ADD SWAP2 JUMPDEST POP POP POP POP POP DUP2 MSTORE POP POP SWAP1 DUP1 PUSH1 0x4 ADD SLOAD SWAP1 POP DUP4 JUMP JUMPDEST PUSH1 0x1 PUSH1 0x20 MSTORE DUP1 PUSH0 MSTORE PUSH1 0x40 PUSH0 KECCAK256 PUSH0 SWAP2 POP SWAP1 POP DUP1 PUSH0 ADD PUSH0 SWAP1 SLOAD SWAP1 PUSH2 0x100 EXP SWAP1 DIV PUSH1 0xFF AND SWAP1 DUP1 PUSH1 0x1 ADD DUP1 SLOAD PUSH2 0x61C SWAP1 PUSH2 0xF6D JUMP JUMPDEST DUP1 PUSH1 0x1F ADD PUSH1 0x20 DUP1 SWAP2 DIV MUL PUSH1 0x20 ADD PUSH1 0x40 MLOAD SWAP1 DUP2 ADD PUSH1 0x40 MSTORE DUP1 SWAP3 SWAP2 SWAP1 DUP2 DUP2 MSTORE PUSH1 0x20 ADD DUP3 DUP1 SLOAD PUSH2 0x648 SWAP1 PUSH2 0xF6D JUMP JUMPDEST DUP1 ISZERO PUSH2 0x693 JUMPI DUP1 PUSH1 0x1F LT PUSH2 0x66A JUMPI PUSH2 0x100 DUP1 DUP4 SLOAD DIV MUL DUP4 MSTORE SWAP2 PUSH1 0x20 ADD SWAP2 PUSH2 0x693 JUMP JUMPDEST DUP3 ADD SWAP2 SWAP1 PUSH0 MSTORE PUSH1 0x20 PUSH0 KECCAK256 SWAP1 JUMPDEST DUP2 SLOAD DUP2 MSTORE SWAP1 PUSH1 0x1 ADD SWAP1 PUSH1 0x20 ADD DUP1 DUP4 GT PUSH2 0x676 JUMPI DUP3 SWAP1 SUB PUSH1 0x1F AND DUP3 ADD SWAP2 JUMPDEST POP POP POP POP POP SWAP1 DUP1 PUSH1 0x2 ADD PUSH0 SWAP1 SLOAD SWAP1 PUSH2 0x100 EXP SWAP1 DIV PUSH20 0xFFFFFFFFFFFFFFFFFFFFFFFFFFFFFFFFFFFFFFFF AND SWAP1 POP DUP4 JUMP JUMPDEST PUSH0 DUP1 SLOAD SWAP1 PUSH2 0x100 EXP SWAP1 DIV PUSH20 0xFFFFFFFFFFFFFFFFFFFFFFFFFFFFFFFFFFFFFFFF AND PUSH20 0xFFFFFFFFFFFFFFFFFFFFFFFFFFFFFFFFFFFFFFFF AND CALLER PUSH20 0xFFFFFFFFFFFFFFFFFFFFFFFFFFFFFFFFFFFFFFFF AND SUB PUSH2 0x74F JUMPI PUSH1 0x40 MLOAD PUSH32 0x8C379A000000000000000000000000000000000000000000000000000000000 DUP2 MSTORE PUSH1 0x4 ADD PUSH2 0x746 SWAP1 PUSH2 0x1253 JUMP JUMPDEST PUSH1 0x40 MLOAD DUP1 SWAP2 SUB SWAP1 REVERT JUMPDEST CALLER PUSH20 0xFFFFFFFFFFFFFFFFFFFFFFFFFFFFFFFFFFFFFFFF AND PUSH1 0x1 PUSH0 DUP5 DUP2 MSTORE PUSH1 0x20 ADD SWAP1 DUP2 MSTORE PUSH1 0x20 ADD PUSH0 KECCAK256 PUSH1 0x2 ADD PUSH0 SWAP1 SLOAD SWAP1 PUSH2 0x100 EXP SWAP1 DIV PUSH20 0xFFFFFFFFFFFFFFFFFFFFFFFFFFFFFFFFFFFFFFFF AND PUSH20 0xFFFFFFFFFFFFFFFFFFFFFFFFFFFFFFFFFFFFFFFF AND EQ PUSH2 0x7F0 JUMPI PUSH1 0x40 MLOAD PUSH32 0x8C379A000000000000000000000000000000000000000000000000000000000 DUP2 MSTORE PUSH1 0x4 ADD PUSH2 0x7E7 SWAP1 PUSH2 0x131B JUMP JUMPDEST PUSH1 0x40 MLOAD DUP1 SWAP2 SUB SWAP1 REVERT JUMPDEST PUSH1 0x1 DUP1 PUSH0 DUP5 DUP2 MSTORE PUSH1 0x20 ADD SWAP1 DUP2 MSTORE PUSH1 0x20 ADD PUSH0 KECCAK256 PUSH0 ADD PUSH0 PUSH2 0x100 EXP DUP2 SLOAD DUP2 PUSH1 0xFF MUL NOT AND SWAP1 DUP4 ISZERO ISZERO MUL OR SWAP1 SSTORE POP PUSH1 0x1 PUSH1 0x2 PUSH0 DUP4 DUP2 MSTORE PUSH1 0x20 ADD SWAP1 DUP2 MSTORE PUSH1 0x20 ADD PUSH0 KECCAK256 PUSH1 0x4 ADD PUSH0 DUP3 DUP3 SLOAD PUSH2 0x83E SWAP2 SWAP1 PUSH2 0x1339 JUMP JUMPDEST SWAP3 POP POP DUP2 SWAP1 SSTORE POP POP POP JUMP JUMPDEST PUSH0 DUP1 SLOAD SWAP1 PUSH2 0x100 EXP SWAP1 DIV PUSH20 0xFFFFFFFFFFFFFFFFFFFFFFFFFFFFFFFFFFFFFFFF AND PUSH20 0xFFFFFFFFFFFFFFFFFFFFFFFFFFFFFFFFFFFFFFFF AND CALLER PUSH20 0xFFFFFFFFFFFFFFFFFFFFFFFFFFFFFFFFFFFFFFFF AND SUB PUSH2 0x8D6 JUMPI PUSH1 0x40 MLOAD PUSH32 0x8C379A000000000000000000000000000000000000000000000000000000000 DUP2 MSTORE PUSH1 0x4 ADD PUSH2 0x8CD SWAP1 PUSH2 0x13B6 JUMP JUMPDEST PUSH1 0x40 MLOAD DUP1 SWAP2 SUB SWAP1 REVERT JUMPDEST PUSH0 PUSH1 0x40 MLOAD DUP1 PUSH1 0x60 ADD PUSH1 0x40 MSTORE DUP1 DUP6 DUP2 MSTORE PUSH1 0x20 ADD DUP5 DUP2 MSTORE PUSH1 0x20 ADD DUP4 DUP2 MSTORE POP SWAP1 POP PUSH0 PUSH1 0x40 MLOAD DUP1 PUSH1 0x60 ADD PUSH1 0x40 MSTORE DUP1 PUSH1 0x1 ISZERO ISZERO DUP2 MSTORE PUSH1 0x20 ADD DUP4 DUP2 MSTORE PUSH1 0x20 ADD PUSH0 DUP2 MSTORE POP SWAP1 POP DUP1 PUSH1 0x2 PUSH0 DUP9 DUP2 MSTORE PUSH1 0x20 ADD SWAP1 DUP2 MSTORE PUSH1 0x20 ADD PUSH0 KECCAK256 PUSH0 DUP3 ADD MLOAD DUP2 PUSH0 ADD PUSH0 PUSH2 0x100 EXP DUP2 SLOAD DUP2 PUSH1 0xFF MUL NOT AND SWAP1 DUP4 ISZERO ISZERO MUL OR SWAP1 SSTORE POP PUSH1 0x20 DUP3 ADD MLOAD DUP2 PUSH1 0x1 ADD PUSH0 DUP3 ADD MLOAD DUP2 PUSH0 ADD SWAP1 DUP2 PUSH2 0x960 SWAP2 SWAP1 PUSH2 0x113A JUMP JUMPDEST POP PUSH1 0x20 DUP3 ADD MLOAD DUP2 PUSH1 0x1 ADD SWAP1 DUP2 PUSH2 0x976 SWAP2 SWAP1 PUSH2 0x113A JUMP JUMPDEST POP PUSH1 0x40 DUP3 ADD MLOAD DUP2 PUSH1 0x2 ADD SWAP1 DUP2 PUSH2 0x98C SWAP2 SWAP1 PUSH2 0x113A JUMP JUMPDEST POP POP POP PUSH1 0x40 DUP3 ADD MLOAD DUP2 PUSH1 0x4 ADD SSTORE SWAP1 POP POP POP POP POP POP POP POP JUMP JUMPDEST PUSH0 DUP1 SLOAD SWAP1 PUSH2 0x100 EXP SWAP1 DIV PUSH20 0xFFFFFFFFFFFFFFFFFFFFFFFFFFFFFFFFFFFFFFFF AND DUP2 JUMP JUMPDEST PUSH0 PUSH1 0x40 MLOAD SWAP1 POP SWAP1 JUMP JUMPDEST PUSH0 DUP1 REVERT JUMPDEST PUSH0 DUP1 REVERT JUMPDEST PUSH0 DUP2 SWAP1 POP SWAP2 SWAP1 POP JUMP JUMPDEST PUSH2 0x9EA DUP2 PUSH2 0x9D8 JUMP JUMPDEST DUP2 EQ PUSH2 0x9F4 JUMPI PUSH0 DUP1 REVERT JUMPDEST POP JUMP JUMPDEST PUSH0 DUP2 CALLDATALOAD SWAP1 POP PUSH2 0xA05 DUP2 PUSH2 0x9E1 JUMP JUMPDEST SWAP3 SWAP2 POP POP JUMP JUMPDEST PUSH0 DUP1 REVERT JUMPDEST PUSH0 DUP1 REVERT JUMPDEST PUSH0 PUSH1 0x1F NOT PUSH1 0x1F DUP4 ADD AND SWAP1 POP SWAP2 SWAP1 POP JUMP JUMPDEST PUSH32 0x4E487B7100000000000000000000000000000000000000000000000000000000 PUSH0 MSTORE PUSH1 0x41 PUSH1 0x4 MSTORE PUSH1 0x24 PUSH0 REVERT JUMPDEST PUSH2 0xA59 DUP3 PUSH2 0xA13 JUMP JUMPDEST DUP2 ADD DUP2 DUP2 LT PUSH8 0xFFFFFFFFFFFFFFFF DUP3 GT OR ISZERO PUSH2 0xA78 JUMPI PUSH2 0xA77 PUSH2 0xA23 JUMP JUMPDEST JUMPDEST DUP1 PUSH1 0x40 MSTORE POP POP POP JUMP JUMPDEST PUSH0 PUSH2 0xA8A PUSH2 0x9C7 JUMP JUMPDEST SWAP1 POP PUSH2 0xA96 DUP3 DUP3 PUSH2 0xA50 JUMP JUMPDEST SWAP2 SWAP1 POP JUMP JUMPDEST PUSH0 PUSH8 0xFFFFFFFFFFFFFFFF DUP3 GT ISZERO PUSH2 0xAB5 JUMPI PUSH2 0xAB4 PUSH2 0xA23 JUMP JUMPDEST JUMPDEST PUSH2 0xABE DUP3 PUSH2 0xA13 JUMP JUMPDEST SWAP1 POP PUSH1 0x20 DUP2 ADD SWAP1 POP SWAP2 SWAP1 POP JUMP JUMPDEST DUP3 DUP2 DUP4 CALLDATACOPY PUSH0 DUP4 DUP4 ADD MSTORE POP POP POP JUMP JUMPDEST PUSH0 PUSH2 0xAEB PUSH2 0xAE6 DUP5 PUSH2 0xA9B JUMP JUMPDEST PUSH2 0xA81 JUMP JUMPDEST SWAP1 POP DUP3 DUP2 MSTORE PUSH1 0x20 DUP2 ADD DUP5 DUP5 DUP5 ADD GT ISZERO PUSH2 0xB07 JUMPI PUSH2 0xB06 PUSH2 0xA0F JUMP JUMPDEST JUMPDEST PUSH2 0xB12 DUP5 DUP3 DUP6 PUSH2 0xACB JUMP JUMPDEST POP SWAP4 SWAP3 POP POP POP JUMP JUMPDEST PUSH0 DUP3 PUSH1 0x1F DUP4 ADD SLT PUSH2 0xB2E JUMPI PUSH2 0xB2D PUSH2 0xA0B JUMP JUMPDEST JUMPDEST DUP2 CALLDATALOAD PUSH2 0xB3E DUP5 DUP3 PUSH1 0x20 DUP7 ADD PUSH2 0xAD9 JUMP JUMPDEST SWAP2 POP POP SWAP3 SWAP2 POP POP JUMP JUMPDEST PUSH0 DUP1 PUSH1 0x40 DUP4 DUP6 SUB SLT ISZERO PUSH2 0xB5D JUMPI PUSH2 0xB5C PUSH2 0x9D0 JUMP JUMPDEST JUMPDEST PUSH0 PUSH2 0xB6A DUP6 DUP3 DUP7 ADD PUSH2 0x9F7 JUMP JUMPDEST SWAP3 POP POP PUSH1 0x20 DUP4 ADD CALLDATALOAD PUSH8 0xFFFFFFFFFFFFFFFF DUP2 GT ISZERO PUSH2 0xB8B JUMPI PUSH2 0xB8A PUSH2 0x9D4 JUMP JUMPDEST JUMPDEST PUSH2 0xB97 DUP6 DUP3 DUP7 ADD PUSH2 0xB1A JUMP JUMPDEST SWAP2 POP POP SWAP3 POP SWAP3 SWAP1 POP JUMP JUMPDEST PUSH0 DUP1 PUSH1 0x40 DUP4 DUP6 SUB SLT ISZERO PUSH2 0xBB7 JUMPI PUSH2 0xBB6 PUSH2 0x9D0 JUMP JUMPDEST JUMPDEST PUSH0 PUSH2 0xBC4 DUP6 DUP3 DUP7 ADD PUSH2 0x9F7 JUMP JUMPDEST SWAP3 POP POP PUSH1 0x20 PUSH2 0xBD5 DUP6 DUP3 DUP7 ADD PUSH2 0x9F7 JUMP JUMPDEST SWAP2 POP POP SWAP3 POP SWAP3 SWAP1 POP JUMP JUMPDEST PUSH0 PUSH1 0x20 DUP3 DUP5 SUB SLT ISZERO PUSH2 0xBF4 JUMPI PUSH2 0xBF3 PUSH2 0x9D0 JUMP JUMPDEST JUMPDEST PUSH0 PUSH2 0xC01 DUP5 DUP3 DUP6 ADD PUSH2 0x9F7 JUMP JUMPDEST SWAP2 POP POP SWAP3 SWAP2 POP POP JUMP JUMPDEST PUSH0 DUP2 ISZERO ISZERO SWAP1 POP SWAP2 SWAP1 POP JUMP JUMPDEST PUSH2 0xC1E DUP2 PUSH2 0xC0A JUMP JUMPDEST DUP3 MSTORE POP POP JUMP JUMPDEST PUSH0 DUP2 MLOAD SWAP1 POP SWAP2 SWAP1 POP JUMP JUMPDEST PUSH0 DUP3 DUP3 MSTORE PUSH1 0x20 DUP3 ADD SWAP1 POP SWAP3 SWAP2 POP POP JUMP JUMPDEST PUSH0 JUMPDEST DUP4 DUP2 LT ISZERO PUSH2 0xC5B JUMPI DUP1 DUP3 ADD MLOAD DUP2 DUP5 ADD MSTORE PUSH1 0x20 DUP2 ADD SWAP1 POP PUSH2 0xC40 JUMP JUMPDEST PUSH0 DUP5 DUP5 ADD MSTORE POP POP POP POP JUMP JUMPDEST PUSH0 PUSH2 0xC70 DUP3 PUSH2 0xC24 JUMP JUMPDEST PUSH2 0xC7A DUP2 DUP6 PUSH2 0xC2E JUMP JUMPDEST SWAP4 POP PUSH2 0xC8A DUP2 DUP6 PUSH1 0x20 DUP7 ADD PUSH2 0xC3E JUMP JUMPDEST PUSH2 0xC93 DUP2 PUSH2 0xA13 JUMP JUMPDEST DUP5 ADD SWAP2 POP POP SWAP3 SWAP2 POP POP JUMP JUMPDEST PUSH0 PUSH1 0x60 DUP4 ADD PUSH0 DUP4 ADD MLOAD DUP5 DUP3 SUB PUSH0 DUP7 ADD MSTORE PUSH2 0xCB8 DUP3 DUP3 PUSH2 0xC66 JUMP JUMPDEST SWAP2 POP POP PUSH1 0x20 DUP4 ADD MLOAD DUP5 DUP3 SUB PUSH1 0x20 DUP7 ADD MSTORE PUSH2 0xCD2 DUP3 DUP3 PUSH2 0xC66 JUMP JUMPDEST SWAP2 POP POP PUSH1 0x40 DUP4 ADD MLOAD DUP5 DUP3 SUB PUSH1 0x40 DUP7 ADD MSTORE PUSH2 0xCEC DUP3 DUP3 PUSH2 0xC66 JUMP JUMPDEST SWAP2 POP POP DUP1 SWAP2 POP POP SWAP3 SWAP2 POP POP JUMP JUMPDEST PUSH2 0xD02 DUP2 PUSH2 0x9D8 JUMP JUMPDEST DUP3 MSTORE POP POP JUMP JUMPDEST PUSH0 PUSH1 0x60 DUP3 ADD SWAP1 POP PUSH2 0xD1B PUSH0 DUP4 ADD DUP7 PUSH2 0xC15 JUMP JUMPDEST DUP2 DUP2 SUB PUSH1 0x20 DUP4 ADD MSTORE PUSH2 0xD2D DUP2 DUP6 PUSH2 0xC9E JUMP JUMPDEST SWAP1 POP PUSH2 0xD3C PUSH1 0x40 DUP4 ADD DUP5 PUSH2 0xCF9 JUMP JUMPDEST SWAP5 SWAP4 POP POP POP POP JUMP JUMPDEST PUSH0 DUP3 DUP3 MSTORE PUSH1 0x20 DUP3 ADD SWAP1 POP SWAP3 SWAP2 POP POP JUMP JUMPDEST PUSH0 PUSH2 0xD5E DUP3 PUSH2 0xC24 JUMP JUMPDEST PUSH2 0xD68 DUP2 DUP6 PUSH2 0xD44 JUMP JUMPDEST SWAP4 POP PUSH2 0xD78 DUP2 DUP6 PUSH1 0x20 DUP7 ADD PUSH2 0xC3E JUMP JUMPDEST PUSH2 0xD81 DUP2 PUSH2 0xA13 JUMP JUMPDEST DUP5 ADD SWAP2 POP POP SWAP3 SWAP2 POP POP JUMP JUMPDEST PUSH0 PUSH20 0xFFFFFFFFFFFFFFFFFFFFFFFFFFFFFFFFFFFFFFFF DUP3 AND SWAP1 POP SWAP2 SWAP1 POP JUMP JUMPDEST PUSH0 PUSH2 0xDB5 DUP3 PUSH2 0xD8C JUMP JUMPDEST SWAP1 POP SWAP2 SWAP1 POP JUMP JUMPDEST PUSH2 0xDC5 DUP2 PUSH2 0xDAB JUMP JUMPDEST DUP3 MSTORE POP POP JUMP JUMPDEST PUSH0 PUSH1 0x60 DUP3 ADD SWAP1 POP PUSH2 0xDDE PUSH0 DUP4 ADD DUP7 PUSH2 0xC15 JUMP JUMPDEST DUP2 DUP2 SUB PUSH1 0x20 DUP4 ADD MSTORE PUSH2 0xDF0 DUP2 DUP6 PUSH2 0xD54 JUMP JUMPDEST SWAP1 POP PUSH2 0xDFF PUSH1 0x40 DUP4 ADD DUP5 PUSH2 0xDBC JUMP JUMPDEST SWAP5 SWAP4 POP POP POP POP JUMP JUMPDEST PUSH0 DUP1 PUSH0 DUP1 PUSH1 0x80 DUP6 DUP8 SUB SLT ISZERO PUSH2 0xE1F JUMPI PUSH2 0xE1E PUSH2 0x9D0 JUMP JUMPDEST JUMPDEST PUSH0 PUSH2 0xE2C DUP8 DUP3 DUP9 ADD PUSH2 0x9F7 JUMP JUMPDEST SWAP5 POP POP PUSH1 0x20 DUP6 ADD CALLDATALOAD PUSH8 0xFFFFFFFFFFFFFFFF DUP2 GT ISZERO PUSH2 0xE4D JUMPI PUSH2 0xE4C PUSH2 0x9D4 JUMP JUMPDEST JUMPDEST PUSH2 0xE59 DUP8 DUP3 DUP9 ADD PUSH2 0xB1A JUMP JUMPDEST SWAP4 POP POP PUSH1 0x40 DUP6 ADD CALLDATALOAD PUSH8 0xFFFFFFFFFFFFFFFF DUP2 GT ISZERO PUSH2 0xE7A JUMPI PUSH2 0xE79 PUSH2 0x9D4 JUMP JUMPDEST JUMPDEST PUSH2 0xE86 DUP8 DUP3 DUP9 ADD PUSH2 0xB1A JUMP JUMPDEST SWAP3 POP POP PUSH1 0x60 DUP6 ADD CALLDATALOAD PUSH8 0xFFFFFFFFFFFFFFFF DUP2 GT ISZERO PUSH2 0xEA7 JUMPI PUSH2 0xEA6 PUSH2 0x9D4 JUMP JUMPDEST JUMPDEST PUSH2 0xEB3 DUP8 DUP3 DUP9 ADD PUSH2 0xB1A JUMP JUMPDEST SWAP2 POP POP SWAP3 SWAP6 SWAP2 SWAP5 POP SWAP3 POP JUMP JUMPDEST PUSH0 PUSH1 0x20 DUP3 ADD SWAP1 POP PUSH2 0xED2 PUSH0 DUP4 ADD DUP5 PUSH2 0xDBC JUMP JUMPDEST SWAP3 SWAP2 POP POP JUMP JUMPDEST PUSH32 0x596F7520617265206E6F74204C696272617269616E0000000000000000000000 PUSH0 DUP3 ADD MSTORE POP JUMP JUMPDEST PUSH0 PUSH2 0xF0C PUSH1 0x15 DUP4 PUSH2 0xD44 JUMP JUMPDEST SWAP2 POP PUSH2 0xF17 DUP3 PUSH2 0xED8 JUMP JUMPDEST PUSH1 0x20 DUP3 ADD SWAP1 POP SWAP2 SWAP1 POP JUMP JUMPDEST PUSH0 PUSH1 0x20 DUP3 ADD SWAP1 POP DUP2 DUP2 SUB PUSH0 DUP4 ADD MSTORE PUSH2 0xF39 DUP2 PUSH2 0xF00 JUMP JUMPDEST SWAP1 POP SWAP2 SWAP1 POP JUMP JUMPDEST PUSH32 0x4E487B7100000000000000000000000000000000000000000000000000000000 PUSH0 MSTORE PUSH1 0x22 PUSH1 0x4 MSTORE PUSH1 0x24 PUSH0 REVERT JUMPDEST PUSH0 PUSH1 0x2 DUP3 DIV SWAP1 POP PUSH1 0x1 DUP3 AND DUP1 PUSH2 0xF84 JUMPI PUSH1 0x7F DUP3 AND SWAP2 POP JUMPDEST PUSH1 0x20 DUP3 LT DUP2 SUB PUSH2 0xF97 JUMPI PUSH2 0xF96 PUSH2 0xF40 JUMP JUMPDEST JUMPDEST POP SWAP2 SWAP1 POP JUMP JUMPDEST PUSH0 DUP2 SWAP1 POP DUP2 PUSH0 MSTORE PUSH1 0x20 PUSH0 KECCAK256 SWAP1 POP SWAP2 SWAP1 POP JUMP JUMPDEST PUSH0 PUSH1 0x20 PUSH1 0x1F DUP4 ADD DIV SWAP1 POP SWAP2 SWAP1 POP JUMP JUMPDEST PUSH0 DUP3 DUP3 SHL SWAP1 POP SWAP3 SWAP2 POP POP JUMP JUMPDEST PUSH0 PUSH1 0x8 DUP4 MUL PUSH2 0xFF9 PUSH32 0xFFFFFFFFFFFFFFFFFFFFFFFFFFFFFFFFFFFFFFFFFFFFFFFFFFFFFFFFFFFFFFFF DUP3 PUSH2 0xFBE JUMP JUMPDEST PUSH2 0x1003 DUP7 DUP4 PUSH2 0xFBE JUMP JUMPDEST SWAP6 POP DUP1 NOT DUP5 AND SWAP4 POP DUP1 DUP7 AND DUP5 OR SWAP3 POP POP POP SWAP4 SWAP3 POP POP POP JUMP JUMPDEST PUSH0 DUP2 SWAP1 POP SWAP2 SWAP1 POP JUMP JUMPDEST PUSH0 PUSH2 0x103E PUSH2 0x1039 PUSH2 0x1034 DUP5 PUSH2 0x9D8 JUMP JUMPDEST PUSH2 0x101B JUMP JUMPDEST PUSH2 0x9D8 JUMP JUMPDEST SWAP1 POP SWAP2 SWAP1 POP JUMP JUMPDEST PUSH0 DUP2 SWAP1 POP SWAP2 SWAP1 POP JUMP JUMPDEST PUSH2 0x1057 DUP4 PUSH2 0x1024 JUMP JUMPDEST PUSH2 0x106B PUSH2 0x1063 DUP3 PUSH2 0x1045 JUMP JUMPDEST DUP5 DUP5 SLOAD PUSH2 0xFCA JUMP JUMPDEST DUP3 SSTORE POP POP POP POP JUMP JUMPDEST PUSH0 SWAP1 JUMP JUMPDEST PUSH2 0x107F PUSH2 0x1073 JUMP JUMPDEST PUSH2 0x108A DUP2 DUP5 DUP5 PUSH2 0x104E JUMP JUMPDEST POP POP POP JUMP JUMPDEST JUMPDEST DUP2 DUP2 LT ISZERO PUSH2 0x10AD JUMPI PUSH2 0x10A2 PUSH0 DUP3 PUSH2 0x1077 JUMP JUMPDEST PUSH1 0x1 DUP2 ADD SWAP1 POP PUSH2 0x1090 JUMP JUMPDEST POP POP JUMP JUMPDEST PUSH1 0x1F DUP3 GT ISZERO PUSH2 0x10F2 JUMPI PUSH2 0x10C3 DUP2 PUSH2 0xF9D JUMP JUMPDEST PUSH2 0x10CC DUP5 PUSH2 0xFAF JUMP JUMPDEST DUP2 ADD PUSH1 0x20 DUP6 LT ISZERO PUSH2 0x10DB JUMPI DUP2 SWAP1 POP JUMPDEST PUSH2 0x10EF PUSH2 0x10E7 DUP6 PUSH2 0xFAF JUMP JUMPDEST DUP4 ADD DUP3 PUSH2 0x108F JUMP JUMPDEST POP POP JUMPDEST POP POP POP JUMP JUMPDEST PUSH0 DUP3 DUP3 SHR SWAP1 POP SWAP3 SWAP2 POP POP JUMP JUMPDEST PUSH0 PUSH2 0x1112 PUSH0 NOT DUP5 PUSH1 0x8 MUL PUSH2 0x10F7 JUMP JUMPDEST NOT DUP1 DUP4 AND SWAP2 POP POP SWAP3 SWAP2 POP POP JUMP JUMPDEST PUSH0 PUSH2 0x112A DUP4 DUP4 PUSH2 0x1103 JUMP JUMPDEST SWAP2 POP DUP3 PUSH1 0x2 MUL DUP3 OR SWAP1 POP SWAP3 SWAP2 POP POP JUMP JUMPDEST PUSH2 0x1143 DUP3 PUSH2 0xC24 JUMP JUMPDEST PUSH8 0xFFFFFFFFFFFFFFFF DUP2 GT ISZERO PUSH2 0x115C JUMPI PUSH2 0x115B PUSH2 0xA23 JUMP JUMPDEST JUMPDEST PUSH2 0x1166 DUP3 SLOAD PUSH2 0xF6D JUMP JUMPDEST PUSH2 0x1171 DUP3 DUP3 DUP6 PUSH2 0x10B1 JUMP JUMPDEST PUSH0 PUSH1 0x20 SWAP1 POP PUSH1 0x1F DUP4 GT PUSH1 0x1 DUP2 EQ PUSH2 0x11A2 JUMPI PUSH0 DUP5 ISZERO PUSH2 0x1190 JUMPI DUP3 DUP8 ADD MLOAD SWAP1 POP JUMPDEST PUSH2 0x119A DUP6 DUP3 PUSH2 0x111F JUMP JUMPDEST DUP7 SSTORE POP PUSH2 0x1201 JUMP JUMPDEST PUSH1 0x1F NOT DUP5 AND PUSH2 0x11B0 DUP7 PUSH2 0xF9D JUMP JUMPDEST PUSH0 JUMPDEST DUP3 DUP2 LT ISZERO PUSH2 0x11D7 JUMPI DUP5 DUP10 ADD MLOAD DUP3 SSTORE PUSH1 0x1 DUP3 ADD SWAP2 POP PUSH1 0x20 DUP6 ADD SWAP5 POP PUSH1 0x20 DUP2 ADD SWAP1 POP PUSH2 0x11B2 JUMP JUMPDEST DUP7 DUP4 LT ISZERO PUSH2 0x11F4 JUMPI DUP5 DUP10 ADD MLOAD PUSH2 0x11F0 PUSH1 0x1F DUP10 AND DUP3 PUSH2 0x1103 JUMP JUMPDEST DUP4 SSTORE POP JUMPDEST PUSH1 0x1 PUSH1 0x2 DUP9 MUL ADD DUP9 SSTORE POP POP POP JUMPDEST POP POP POP POP POP POP JUMP JUMPDEST PUSH32 0x796F7520617265206E6F74207065726D69747465640000000000000000000000 PUSH0 DUP3 ADD MSTORE POP JUMP JUMPDEST PUSH0 PUSH2 0x123D PUSH1 0x15 DUP4 PUSH2 0xD44 JUMP JUMPDEST SWAP2 POP PUSH2 0x1248 DUP3 PUSH2 0x1209 JUMP JUMPDEST PUSH1 0x20 DUP3 ADD SWAP1 POP SWAP2 SWAP1 POP JUMP JUMPDEST PUSH0 PUSH1 0x20 DUP3 ADD SWAP1 POP DUP2 DUP2 SUB PUSH0 DUP4 ADD MSTORE PUSH2 0x126A DUP2 PUSH2 0x1231 JUMP JUMPDEST SWAP1 POP SWAP2 SWAP1 POP JUMP JUMPDEST PUSH32 0x4E487B7100000000000000000000000000000000000000000000000000000000 PUSH0 MSTORE PUSH1 0x11 PUSH1 0x4 MSTORE PUSH1 0x24 PUSH0 REVERT JUMPDEST PUSH0 PUSH2 0x12A8 DUP3 PUSH2 0x9D8 JUMP JUMPDEST SWAP2 POP PUSH2 0x12B3 DUP4 PUSH2 0x9D8 JUMP JUMPDEST SWAP3 POP DUP3 DUP3 ADD SWAP1 POP DUP1 DUP3 GT ISZERO PUSH2 0x12CB JUMPI PUSH2 0x12CA PUSH2 0x1271 JUMP JUMPDEST JUMPDEST SWAP3 SWAP2 POP POP JUMP JUMPDEST PUSH32 0x796F752068617665206E6F207265616C20626F6F6B0000000000000000000000 PUSH0 DUP3 ADD MSTORE POP JUMP JUMPDEST PUSH0 PUSH2 0x1305 PUSH1 0x15 DUP4 PUSH2 0xD44 JUMP JUMPDEST SWAP2 POP PUSH2 0x1310 DUP3 PUSH2 0x12D1 JUMP JUMPDEST PUSH1 0x20 DUP3 ADD SWAP1 POP SWAP2 SWAP1 POP JUMP JUMPDEST PUSH0 PUSH1 0x20 DUP3 ADD SWAP1 POP DUP2 DUP2 SUB PUSH0 DUP4 ADD MSTORE PUSH2 0x1332 DUP2 PUSH2 0x12F9 JUMP JUMPDEST SWAP1 POP SWAP2 SWAP1 POP JUMP JUMPDEST PUSH0 PUSH2 0x1343 DUP3 PUSH2 0x9D8 JUMP JUMPDEST SWAP2 POP PUSH2 0x134E DUP4 PUSH2 0x9D8 JUMP JUMPDEST SWAP3 POP DUP3 DUP3 SUB SWAP1 POP DUP2 DUP2 GT ISZERO PUSH2 0x1366 JUMPI PUSH2 0x1365 PUSH2 0x1271 JUMP JUMPDEST JUMPDEST SWAP3 SWAP2 POP POP JUMP JUMPDEST PUSH32 0x796F7520617265206E6F7420616C6C6F77656400000000000000000000000000 PUSH0 DUP3 ADD MSTORE POP JUMP JUMPDEST PUSH0 PUSH2 0x13A0 PUSH1 0x13 DUP4 PUSH2 0xD44 JUMP JUMPDEST SWAP2 POP PUSH2 0x13AB DUP3 PUSH2 0x136C JUMP JUMPDEST PUSH1 0x20 DUP3 ADD SWAP1 POP SWAP2 SWAP1 POP JUMP JUMPDEST PUSH0 PUSH1 0x20 DUP3 ADD SWAP1 POP DUP2 DUP2 SUB PUSH0 DUP4 ADD MSTORE PUSH2 0x13CD DUP2 PUSH2 0x1394 JUMP JUMPDEST SWAP1 POP SWAP2 SWAP1 POP JUMP INVALID LOG2 PUSH5 0x6970667358 0x22 SLT KECCAK256 SWAP8 0xA5 DUP15 PUSH1 0x82 0xDE 0x4B BYTE 0xBF RETURNDATACOPY SWAP3 0xD GAS 0xAE 0xAC SWAP15 0xD8 EXTCODECOPY 0xA6 RETURNDATACOPY SUB SWAP1 0xF9 TSTORE SHR COINBASE 0xD7 XOR SHL TLOAD CALLDATALOAD DUP12 PUSH5 0x736F6C6343 STOP ADDMOD XOR STOP CALLER "
				},
				"gasEstimates": {
					"creation": {
						"codeDepositCost": "1026000",
						"executionCost": "25330",
						"totalCost": "1051330"
					},
					"external": {
						"RegisterMember(uint256,string,string,string)": "infinite",
						"addBook(uint256,string)": "infinite",
						"books(uint256)": "infinite",
						"borrowBook(uint256,uint256)": "infinite",
						"librarian()": "2571",
						"members(uint256)": "infinite",
						"returnbook(uint256,uint256)": "infinite"
					}
				},
				"methodIdentifiers": {
					"RegisterMember(uint256,string,string,string)": "8f8261f8",
					"addBook(uint256,string)": "070cbe2a",
					"books(uint256)": "68744046",
					"borrowBook(uint256,uint256)": "51f87964",
					"librarian()": "a437d45f",
					"members(uint256)": "5daf08ca",
					"returnbook(uint256,uint256)": "7930bd8b"
				}
			},
			"storageLayout": {
				"storage": [
					{
						"astId": 3,
						"contract": "contracts/blockchainlearning/que8.sol:MyLibrary",
						"label": "librarian",
						"offset": 0,
						"slot": "0",
						"type": "t_address"
					},
					{
						"astId": 30,
						"contract": "contracts/blockchainlearning/que8.sol:MyLibrary",
						"label": "books",
						"offset": 0,
						"slot": "1",
						"type": "t_mapping(t_uint256,t_struct(bookDetail)25_storage)"
					},
					{
						"astId": 35,
						"contract": "contracts/blockchainlearning/que8.sol:MyLibrary",
						"label": "members",
						"offset": 0,
						"slot": "2",
						"type": "t_mapping(t_uint256,t_struct(member)18_storage)"
					}
				],
				"types": {
					"t_address": {
						"encoding": "inplace",
						"label": "address",
						"numberOfBytes": "20"
					},
					"t_bool": {
						"encoding": "inplace",
						"label": "bool",
						"numberOfBytes": "1"
					},
					"t_mapping(t_uint256,t_struct(bookDetail)25_storage)": {
						"encoding": "mapping",
						"key": "t_uint256",
						"label": "mapping(uint256 => struct MyLibrary.bookDetail)",
						"numberOfBytes": "32",
						"value": "t_struct(bookDetail)25_storage"
					},
					"t_mapping(t_uint256,t_struct(member)18_storage)": {
						"encoding": "mapping",
						"key": "t_uint256",
						"label": "mapping(uint256 => struct MyLibrary.member)",
						"numberOfBytes": "32",
						"value": "t_struct(member)18_storage"
					},
					"t_string_storage": {
						"encoding": "bytes",
						"label": "string",
						"numberOfBytes": "32"
					},
					"t_struct(MemberDetails)10_storage": {
						"encoding": "inplace",
						"label": "struct MyLibrary.MemberDetails",
						"members": [
							{
								"astId": 5,
								"contract": "contracts/blockchainlearning/que8.sol:MyLibrary",
								"label": "MName",
								"offset": 0,
								"slot": "0",
								"type": "t_string_storage"
							},
							{
								"astId": 7,
								"contract": "contracts/blockchainlearning/que8.sol:MyLibrary",
								"label": "joinDate",
								"offset": 0,
								"slot": "1",
								"type": "t_string_storage"
							},
							{
								"astId": 9,
								"contract": "contracts/blockchainlearning/que8.sol:MyLibrary",
								"label": "MGender",
								"offset": 0,
								"slot": "2",
								"type": "t_string_storage"
							}
						],
						"numberOfBytes": "96"
					},
					"t_struct(bookDetail)25_storage": {
						"encoding": "inplace",
						"label": "struct MyLibrary.bookDetail",
						"members": [
							{
								"astId": 20,
								"contract": "contracts/blockchainlearning/que8.sol:MyLibrary",
								"label": "isAvailable",
								"offset": 0,
								"slot": "0",
								"type": "t_bool"
							},
							{
								"astId": 22,
								"contract": "contracts/blockchainlearning/que8.sol:MyLibrary",
								"label": "BName",
								"offset": 0,
								"slot": "1",
								"type": "t_string_storage"
							},
							{
								"astId": 24,
								"contract": "contracts/blockchainlearning/que8.sol:MyLibrary",
								"label": "Borrower",
								"offset": 0,
								"slot": "2",
								"type": "t_address"
							}
						],
						"numberOfBytes": "96"
					},
					"t_struct(member)18_storage": {
						"encoding": "inplace",
						"label": "struct MyLibrary.member",
						"members": [
							{
								"astId": 12,
								"contract": "contracts/blockchainlearning/que8.sol:MyLibrary",
								"label": "isMember",
								"offset": 0,
								"slot": "0",
								"type": "t_bool"
							},
							{
								"astId": 15,
								"contract": "contracts/blockchainlearning/que8.sol:MyLibrary",
								"label": "details",
								"offset": 0,
								"slot": "1",
								"type": "t_struct(MemberDetails)10_storage"
							},
							{
								"astId": 17,
								"contract": "contracts/blockchainlearning/que8.sol:MyLibrary",
								"label": "OwnedbookBook",
								"offset": 0,
								"slot": "4",
								"type": "t_uint256"
							}
						],
						"numberOfBytes": "160"
					},
					"t_uint256": {
						"encoding": "inplace",
						"label": "uint256",
						"numberOfBytes": "32"
					}
				}
			},
			"userdoc": {
				"kind": "user",
				"methods": {},
				"version": 1
			}
		}
	}
}