{
	"contracts/ClassWork/4Authenticsystem.sol": {
		"simpleAuth": {
			"abi": [
				{
					"inputs": [],
					"name": "check",
					"outputs": [
						{
							"internalType": "string",
							"name": "",
							"type": "string"
						}
					],
					"stateMutability": "view",
					"type": "function"
				},
				{
					"inputs": [
						{
							"internalType": "address",
							"name": "_user",
							"type": "address"
						}
					],
					"name": "checkRegistration",
					"outputs": [
						{
							"internalType": "bool",
							"name": "",
							"type": "bool"
						}
					],
					"stateMutability": "view",
					"type": "function"
				},
				{
					"inputs": [
						{
							"internalType": "address",
							"name": "",
							"type": "address"
						}
					],
					"name": "isRegister",
					"outputs": [
						{
							"internalType": "bool",
							"name": "",
							"type": "bool"
						}
					],
					"stateMutability": "view",
					"type": "function"
				},
				{
					"inputs": [],
					"name": "register",
					"outputs": [],
					"stateMutability": "nonpayable",
					"type": "function"
				}
			],
			"devdoc": {
				"kind": "dev",
				"methods": {},
				"version": 1
			},
			"evm": {
				"assembly": "    /* \"contracts/ClassWork/4Authenticsystem.sol\":499:946  contract simpleAuth{... */\n  mstore(0x40, 0x80)\n  callvalue\n  dup1\n  iszero\n  tag_1\n  jumpi\n  0x00\n  dup1\n  revert\ntag_1:\n  pop\n  dataSize(sub_0)\n  dup1\n  dataOffset(sub_0)\n  0x00\n  codecopy\n  0x00\n  return\nstop\n\nsub_0: assembly {\n        /* \"contracts/ClassWork/4Authenticsystem.sol\":499:946  contract simpleAuth{... */\n      mstore(0x40, 0x80)\n      callvalue\n      dup1\n      iszero\n      tag_1\n      jumpi\n      0x00\n      dup1\n      revert\n    tag_1:\n      pop\n      jumpi(tag_2, lt(calldatasize, 0x04))\n      shr(0xe0, calldataload(0x00))\n      dup1\n      0x1aa3a008\n      eq\n      tag_3\n      jumpi\n      dup1\n      0x22fdef94\n      eq\n      tag_4\n      jumpi\n      dup1\n      0x919840ad\n      eq\n      tag_5\n      jumpi\n      dup1\n      0xe2a41283\n      eq\n      tag_6\n      jumpi\n    tag_2:\n      0x00\n      dup1\n      revert\n        /* \"contracts/ClassWork/4Authenticsystem.sol\":575:647  function register() public{... */\n    tag_3:\n      tag_7\n      tag_8\n      jump\t// in\n    tag_7:\n      stop\n        /* \"contracts/ClassWork/4Authenticsystem.sol\":525:566  mapping (address=>bool) public isRegister */\n    tag_4:\n      tag_9\n      0x04\n      dup1\n      calldatasize\n      sub\n      dup2\n      add\n      swap1\n      tag_10\n      swap2\n      swap1\n      tag_11\n      jump\t// in\n    tag_10:\n      tag_12\n      jump\t// in\n    tag_9:\n      mload(0x40)\n      tag_13\n      swap2\n      swap1\n      tag_14\n      jump\t// in\n    tag_13:\n      mload(0x40)\n      dup1\n      swap2\n      sub\n      swap1\n      return\n        /* \"contracts/ClassWork/4Authenticsystem.sol\":773:943  function check() public view returns(string memory){... */\n    tag_5:\n      tag_15\n      tag_16\n      jump\t// in\n    tag_15:\n      mload(0x40)\n      tag_17\n      swap2\n      swap1\n      tag_18\n      jump\t// in\n    tag_17:\n      mload(0x40)\n      dup1\n      swap2\n      sub\n      swap1\n      return\n        /* \"contracts/ClassWork/4Authenticsystem.sol\":655:765  function checkRegistration(address _user) public view returns(bool){... */\n    tag_6:\n      tag_19\n      0x04\n      dup1\n      calldatasize\n      sub\n      dup2\n      add\n      swap1\n      tag_20\n      swap2\n      swap1\n      tag_11\n      jump\t// in\n    tag_20:\n      tag_21\n      jump\t// in\n    tag_19:\n      mload(0x40)\n      tag_22\n      swap2\n      swap1\n      tag_14\n      jump\t// in\n    tag_22:\n      mload(0x40)\n      dup1\n      swap2\n      sub\n      swap1\n      return\n        /* \"contracts/ClassWork/4Authenticsystem.sol\":575:647  function register() public{... */\n    tag_8:\n        /* \"contracts/ClassWork/4Authenticsystem.sol\":635:639  true */\n      0x01\n        /* \"contracts/ClassWork/4Authenticsystem.sol\":612:622  isRegister */\n      0x00\n        /* \"contracts/ClassWork/4Authenticsystem.sol\":612:634  isRegister[msg.sender] */\n      dup1\n        /* \"contracts/ClassWork/4Authenticsystem.sol\":623:633  msg.sender */\n      caller\n        /* \"contracts/ClassWork/4Authenticsystem.sol\":612:634  isRegister[msg.sender] */\n      0xffffffffffffffffffffffffffffffffffffffff\n      and\n      0xffffffffffffffffffffffffffffffffffffffff\n      and\n      dup2\n      mstore\n      0x20\n      add\n      swap1\n      dup2\n      mstore\n      0x20\n      add\n      0x00\n      keccak256\n      0x00\n        /* \"contracts/ClassWork/4Authenticsystem.sol\":612:639  isRegister[msg.sender]=true */\n      0x0100\n      exp\n      dup2\n      sload\n      dup2\n      0xff\n      mul\n      not\n      and\n      swap1\n      dup4\n      iszero\n      iszero\n      mul\n      or\n      swap1\n      sstore\n      pop\n        /* \"contracts/ClassWork/4Authenticsystem.sol\":575:647  function register() public{... */\n      jump\t// out\n        /* \"contracts/ClassWork/4Authenticsystem.sol\":525:566  mapping (address=>bool) public isRegister */\n    tag_12:\n      mstore(0x20, 0x00)\n      dup1\n      0x00\n      mstore\n      keccak256(0x00, 0x40)\n      0x00\n      swap2\n      pop\n      sload\n      swap1\n      0x0100\n      exp\n      swap1\n      div\n      0xff\n      and\n      dup2\n      jump\t// out\n        /* \"contracts/ClassWork/4Authenticsystem.sol\":773:943  function check() public view returns(string memory){... */\n    tag_16:\n        /* \"contracts/ClassWork/4Authenticsystem.sol\":810:823  string memory */\n      0x60\n        /* \"contracts/ClassWork/4Authenticsystem.sol\":867:871  true */\n      0x01\n        /* \"contracts/ClassWork/4Authenticsystem.sol\":843:871  isRegister[msg.sender]==true */\n      iszero\n      iszero\n        /* \"contracts/ClassWork/4Authenticsystem.sol\":843:853  isRegister */\n      0x00\n        /* \"contracts/ClassWork/4Authenticsystem.sol\":843:865  isRegister[msg.sender] */\n      dup1\n        /* \"contracts/ClassWork/4Authenticsystem.sol\":854:864  msg.sender */\n      caller\n        /* \"contracts/ClassWork/4Authenticsystem.sol\":843:865  isRegister[msg.sender] */\n      0xffffffffffffffffffffffffffffffffffffffff\n      and\n      0xffffffffffffffffffffffffffffffffffffffff\n      and\n      dup2\n      mstore\n      0x20\n      add\n      swap1\n      dup2\n      mstore\n      0x20\n      add\n      0x00\n      keccak256\n      0x00\n      swap1\n      sload\n      swap1\n      0x0100\n      exp\n      swap1\n      div\n      0xff\n      and\n        /* \"contracts/ClassWork/4Authenticsystem.sol\":843:871  isRegister[msg.sender]==true */\n      iszero\n      iszero\n      eq\n        /* \"contracts/ClassWork/4Authenticsystem.sol\":835:897  require(isRegister[msg.sender]==true,\"you are not registereg\") */\n      tag_25\n      jumpi\n      mload(0x40)\n      0x08c379a000000000000000000000000000000000000000000000000000000000\n      dup2\n      mstore\n      0x04\n      add\n      tag_26\n      swap1\n      tag_27\n      jump\t// in\n    tag_26:\n      mload(0x40)\n      dup1\n      swap2\n      sub\n      swap1\n      revert\n    tag_25:\n        /* \"contracts/ClassWork/4Authenticsystem.sol\":908:935  return \"you are registered\" */\n      mload(0x40)\n      dup1\n      0x40\n      add\n      0x40\n      mstore\n      dup1\n      0x12\n      dup2\n      mstore\n      0x20\n      add\n      0x796f752061726520726567697374657265640000000000000000000000000000\n      dup2\n      mstore\n      pop\n      swap1\n      pop\n        /* \"contracts/ClassWork/4Authenticsystem.sol\":773:943  function check() public view returns(string memory){... */\n      swap1\n      jump\t// out\n        /* \"contracts/ClassWork/4Authenticsystem.sol\":655:765  function checkRegistration(address _user) public view returns(bool){... */\n    tag_21:\n        /* \"contracts/ClassWork/4Authenticsystem.sol\":717:721  bool */\n      0x00\n        /* \"contracts/ClassWork/4Authenticsystem.sol\":740:750  isRegister */\n      dup1\n        /* \"contracts/ClassWork/4Authenticsystem.sol\":740:757  isRegister[_user] */\n      0x00\n        /* \"contracts/ClassWork/4Authenticsystem.sol\":751:756  _user */\n      dup4\n        /* \"contracts/ClassWork/4Authenticsystem.sol\":740:757  isRegister[_user] */\n      0xffffffffffffffffffffffffffffffffffffffff\n      and\n      0xffffffffffffffffffffffffffffffffffffffff\n      and\n      dup2\n      mstore\n      0x20\n      add\n      swap1\n      dup2\n      mstore\n      0x20\n      add\n      0x00\n      keccak256\n      0x00\n      swap1\n      sload\n      swap1\n      0x0100\n      exp\n      swap1\n      div\n      0xff\n      and\n        /* \"contracts/ClassWork/4Authenticsystem.sol\":733:757  return isRegister[_user] */\n      swap1\n      pop\n        /* \"contracts/ClassWork/4Authenticsystem.sol\":655:765  function checkRegistration(address _user) public view returns(bool){... */\n      swap2\n      swap1\n      pop\n      jump\t// out\n        /* \"#utility.yul\":88:205   */\n    tag_30:\n        /* \"#utility.yul\":197:198   */\n      0x00\n        /* \"#utility.yul\":194:195   */\n      dup1\n        /* \"#utility.yul\":187:199   */\n      revert\n        /* \"#utility.yul\":334:460   */\n    tag_32:\n        /* \"#utility.yul\":371:378   */\n      0x00\n        /* \"#utility.yul\":411:453   */\n      0xffffffffffffffffffffffffffffffffffffffff\n        /* \"#utility.yul\":404:409   */\n      dup3\n        /* \"#utility.yul\":400:454   */\n      and\n        /* \"#utility.yul\":389:454   */\n      swap1\n      pop\n        /* \"#utility.yul\":334:460   */\n      swap2\n      swap1\n      pop\n      jump\t// out\n        /* \"#utility.yul\":466:562   */\n    tag_33:\n        /* \"#utility.yul\":503:510   */\n      0x00\n        /* \"#utility.yul\":532:556   */\n      tag_51\n        /* \"#utility.yul\":550:555   */\n      dup3\n        /* \"#utility.yul\":532:556   */\n      tag_32\n      jump\t// in\n    tag_51:\n        /* \"#utility.yul\":521:556   */\n      swap1\n      pop\n        /* \"#utility.yul\":466:562   */\n      swap2\n      swap1\n      pop\n      jump\t// out\n        /* \"#utility.yul\":568:690   */\n    tag_34:\n        /* \"#utility.yul\":641:665   */\n      tag_53\n        /* \"#utility.yul\":659:664   */\n      dup2\n        /* \"#utility.yul\":641:665   */\n      tag_33\n      jump\t// in\n    tag_53:\n        /* \"#utility.yul\":634:639   */\n      dup2\n        /* \"#utility.yul\":631:666   */\n      eq\n        /* \"#utility.yul\":621:684   */\n      tag_54\n      jumpi\n        /* \"#utility.yul\":680:681   */\n      0x00\n        /* \"#utility.yul\":677:678   */\n      dup1\n        /* \"#utility.yul\":670:682   */\n      revert\n        /* \"#utility.yul\":621:684   */\n    tag_54:\n        /* \"#utility.yul\":568:690   */\n      pop\n      jump\t// out\n        /* \"#utility.yul\":696:835   */\n    tag_35:\n        /* \"#utility.yul\":742:747   */\n      0x00\n        /* \"#utility.yul\":780:786   */\n      dup2\n        /* \"#utility.yul\":767:787   */\n      calldataload\n        /* \"#utility.yul\":758:787   */\n      swap1\n      pop\n        /* \"#utility.yul\":796:829   */\n      tag_56\n        /* \"#utility.yul\":823:828   */\n      dup2\n        /* \"#utility.yul\":796:829   */\n      tag_34\n      jump\t// in\n    tag_56:\n        /* \"#utility.yul\":696:835   */\n      swap3\n      swap2\n      pop\n      pop\n      jump\t// out\n        /* \"#utility.yul\":841:1170   */\n    tag_11:\n        /* \"#utility.yul\":900:906   */\n      0x00\n        /* \"#utility.yul\":949:951   */\n      0x20\n        /* \"#utility.yul\":937:946   */\n      dup3\n        /* \"#utility.yul\":928:935   */\n      dup5\n        /* \"#utility.yul\":924:947   */\n      sub\n        /* \"#utility.yul\":920:952   */\n      slt\n        /* \"#utility.yul\":917:1036   */\n      iszero\n      tag_58\n      jumpi\n        /* \"#utility.yul\":955:1034   */\n      tag_59\n      tag_30\n      jump\t// in\n    tag_59:\n        /* \"#utility.yul\":917:1036   */\n    tag_58:\n        /* \"#utility.yul\":1075:1076   */\n      0x00\n        /* \"#utility.yul\":1100:1153   */\n      tag_60\n        /* \"#utility.yul\":1145:1152   */\n      dup5\n        /* \"#utility.yul\":1136:1142   */\n      dup3\n        /* \"#utility.yul\":1125:1134   */\n      dup6\n        /* \"#utility.yul\":1121:1143   */\n      add\n        /* \"#utility.yul\":1100:1153   */\n      tag_35\n      jump\t// in\n    tag_60:\n        /* \"#utility.yul\":1090:1153   */\n      swap2\n      pop\n        /* \"#utility.yul\":1046:1163   */\n      pop\n        /* \"#utility.yul\":841:1170   */\n      swap3\n      swap2\n      pop\n      pop\n      jump\t// out\n        /* \"#utility.yul\":1176:1266   */\n    tag_36:\n        /* \"#utility.yul\":1210:1217   */\n      0x00\n        /* \"#utility.yul\":1253:1258   */\n      dup2\n        /* \"#utility.yul\":1246:1259   */\n      iszero\n        /* \"#utility.yul\":1239:1260   */\n      iszero\n        /* \"#utility.yul\":1228:1260   */\n      swap1\n      pop\n        /* \"#utility.yul\":1176:1266   */\n      swap2\n      swap1\n      pop\n      jump\t// out\n        /* \"#utility.yul\":1272:1381   */\n    tag_37:\n        /* \"#utility.yul\":1353:1374   */\n      tag_63\n        /* \"#utility.yul\":1368:1373   */\n      dup2\n        /* \"#utility.yul\":1353:1374   */\n      tag_36\n      jump\t// in\n    tag_63:\n        /* \"#utility.yul\":1348:1351   */\n      dup3\n        /* \"#utility.yul\":1341:1375   */\n      mstore\n        /* \"#utility.yul\":1272:1381   */\n      pop\n      pop\n      jump\t// out\n        /* \"#utility.yul\":1387:1597   */\n    tag_14:\n        /* \"#utility.yul\":1474:1478   */\n      0x00\n        /* \"#utility.yul\":1512:1514   */\n      0x20\n        /* \"#utility.yul\":1501:1510   */\n      dup3\n        /* \"#utility.yul\":1497:1515   */\n      add\n        /* \"#utility.yul\":1489:1515   */\n      swap1\n      pop\n        /* \"#utility.yul\":1525:1590   */\n      tag_65\n        /* \"#utility.yul\":1587:1588   */\n      0x00\n        /* \"#utility.yul\":1576:1585   */\n      dup4\n        /* \"#utility.yul\":1572:1589   */\n      add\n        /* \"#utility.yul\":1563:1569   */\n      dup5\n        /* \"#utility.yul\":1525:1590   */\n      tag_37\n      jump\t// in\n    tag_65:\n        /* \"#utility.yul\":1387:1597   */\n      swap3\n      swap2\n      pop\n      pop\n      jump\t// out\n        /* \"#utility.yul\":1603:1702   */\n    tag_38:\n        /* \"#utility.yul\":1655:1661   */\n      0x00\n        /* \"#utility.yul\":1689:1694   */\n      dup2\n        /* \"#utility.yul\":1683:1695   */\n      mload\n        /* \"#utility.yul\":1673:1695   */\n      swap1\n      pop\n        /* \"#utility.yul\":1603:1702   */\n      swap2\n      swap1\n      pop\n      jump\t// out\n        /* \"#utility.yul\":1708:1877   */\n    tag_39:\n        /* \"#utility.yul\":1792:1803   */\n      0x00\n        /* \"#utility.yul\":1826:1832   */\n      dup3\n        /* \"#utility.yul\":1821:1824   */\n      dup3\n        /* \"#utility.yul\":1814:1833   */\n      mstore\n        /* \"#utility.yul\":1866:1870   */\n      0x20\n        /* \"#utility.yul\":1861:1864   */\n      dup3\n        /* \"#utility.yul\":1857:1871   */\n      add\n        /* \"#utility.yul\":1842:1871   */\n      swap1\n      pop\n        /* \"#utility.yul\":1708:1877   */\n      swap3\n      swap2\n      pop\n      pop\n      jump\t// out\n        /* \"#utility.yul\":1883:2129   */\n    tag_40:\n        /* \"#utility.yul\":1964:1965   */\n      0x00\n        /* \"#utility.yul\":1974:2087   */\n    tag_69:\n        /* \"#utility.yul\":1988:1994   */\n      dup4\n        /* \"#utility.yul\":1985:1986   */\n      dup2\n        /* \"#utility.yul\":1982:1995   */\n      lt\n        /* \"#utility.yul\":1974:2087   */\n      iszero\n      tag_71\n      jumpi\n        /* \"#utility.yul\":2073:2074   */\n      dup1\n        /* \"#utility.yul\":2068:2071   */\n      dup3\n        /* \"#utility.yul\":2064:2075   */\n      add\n        /* \"#utility.yul\":2058:2076   */\n      mload\n        /* \"#utility.yul\":2054:2055   */\n      dup2\n        /* \"#utility.yul\":2049:2052   */\n      dup5\n        /* \"#utility.yul\":2045:2056   */\n      add\n        /* \"#utility.yul\":2038:2077   */\n      mstore\n        /* \"#utility.yul\":2010:2012   */\n      0x20\n        /* \"#utility.yul\":2007:2008   */\n      dup2\n        /* \"#utility.yul\":2003:2013   */\n      add\n        /* \"#utility.yul\":1998:2013   */\n      swap1\n      pop\n        /* \"#utility.yul\":1974:2087   */\n      jump(tag_69)\n    tag_71:\n        /* \"#utility.yul\":2121:2122   */\n      0x00\n        /* \"#utility.yul\":2112:2118   */\n      dup5\n        /* \"#utility.yul\":2107:2110   */\n      dup5\n        /* \"#utility.yul\":2103:2119   */\n      add\n        /* \"#utility.yul\":2096:2123   */\n      mstore\n        /* \"#utility.yul\":1945:2129   */\n      pop\n        /* \"#utility.yul\":1883:2129   */\n      pop\n      pop\n      pop\n      jump\t// out\n        /* \"#utility.yul\":2135:2237   */\n    tag_41:\n        /* \"#utility.yul\":2176:2182   */\n      0x00\n        /* \"#utility.yul\":2227:2229   */\n      0x1f\n        /* \"#utility.yul\":2223:2230   */\n      not\n        /* \"#utility.yul\":2218:2220   */\n      0x1f\n        /* \"#utility.yul\":2211:2216   */\n      dup4\n        /* \"#utility.yul\":2207:2221   */\n      add\n        /* \"#utility.yul\":2203:2231   */\n      and\n        /* \"#utility.yul\":2193:2231   */\n      swap1\n      pop\n        /* \"#utility.yul\":2135:2237   */\n      swap2\n      swap1\n      pop\n      jump\t// out\n        /* \"#utility.yul\":2243:2620   */\n    tag_42:\n        /* \"#utility.yul\":2331:2334   */\n      0x00\n        /* \"#utility.yul\":2359:2398   */\n      tag_74\n        /* \"#utility.yul\":2392:2397   */\n      dup3\n        /* \"#utility.yul\":2359:2398   */\n      tag_38\n      jump\t// in\n    tag_74:\n        /* \"#utility.yul\":2414:2485   */\n      tag_75\n        /* \"#utility.yul\":2478:2484   */\n      dup2\n        /* \"#utility.yul\":2473:2476   */\n      dup6\n        /* \"#utility.yul\":2414:2485   */\n      tag_39\n      jump\t// in\n    tag_75:\n        /* \"#utility.yul\":2407:2485   */\n      swap4\n      pop\n        /* \"#utility.yul\":2494:2559   */\n      tag_76\n        /* \"#utility.yul\":2552:2558   */\n      dup2\n        /* \"#utility.yul\":2547:2550   */\n      dup6\n        /* \"#utility.yul\":2540:2544   */\n      0x20\n        /* \"#utility.yul\":2533:2538   */\n      dup7\n        /* \"#utility.yul\":2529:2545   */\n      add\n        /* \"#utility.yul\":2494:2559   */\n      tag_40\n      jump\t// in\n    tag_76:\n        /* \"#utility.yul\":2584:2613   */\n      tag_77\n        /* \"#utility.yul\":2606:2612   */\n      dup2\n        /* \"#utility.yul\":2584:2613   */\n      tag_41\n      jump\t// in\n    tag_77:\n        /* \"#utility.yul\":2579:2582   */\n      dup5\n        /* \"#utility.yul\":2575:2614   */\n      add\n        /* \"#utility.yul\":2568:2614   */\n      swap2\n      pop\n        /* \"#utility.yul\":2335:2620   */\n      pop\n        /* \"#utility.yul\":2243:2620   */\n      swap3\n      swap2\n      pop\n      pop\n      jump\t// out\n        /* \"#utility.yul\":2626:2939   */\n    tag_18:\n        /* \"#utility.yul\":2739:2743   */\n      0x00\n        /* \"#utility.yul\":2777:2779   */\n      0x20\n        /* \"#utility.yul\":2766:2775   */\n      dup3\n        /* \"#utility.yul\":2762:2780   */\n      add\n        /* \"#utility.yul\":2754:2780   */\n      swap1\n      pop\n        /* \"#utility.yul\":2826:2835   */\n      dup2\n        /* \"#utility.yul\":2820:2824   */\n      dup2\n        /* \"#utility.yul\":2816:2836   */\n      sub\n        /* \"#utility.yul\":2812:2813   */\n      0x00\n        /* \"#utility.yul\":2801:2810   */\n      dup4\n        /* \"#utility.yul\":2797:2814   */\n      add\n        /* \"#utility.yul\":2790:2837   */\n      mstore\n        /* \"#utility.yul\":2854:2932   */\n      tag_79\n        /* \"#utility.yul\":2927:2931   */\n      dup2\n        /* \"#utility.yul\":2918:2924   */\n      dup5\n        /* \"#utility.yul\":2854:2932   */\n      tag_42\n      jump\t// in\n    tag_79:\n        /* \"#utility.yul\":2846:2932   */\n      swap1\n      pop\n        /* \"#utility.yul\":2626:2939   */\n      swap3\n      swap2\n      pop\n      pop\n      jump\t// out\n        /* \"#utility.yul\":2945:3117   */\n    tag_43:\n        /* \"#utility.yul\":3085:3109   */\n      0x796f7520617265206e6f74207265676973746572656700000000000000000000\n        /* \"#utility.yul\":3081:3082   */\n      0x00\n        /* \"#utility.yul\":3073:3079   */\n      dup3\n        /* \"#utility.yul\":3069:3083   */\n      add\n        /* \"#utility.yul\":3062:3110   */\n      mstore\n        /* \"#utility.yul\":2945:3117   */\n      pop\n      jump\t// out\n        /* \"#utility.yul\":3123:3489   */\n    tag_44:\n        /* \"#utility.yul\":3265:3268   */\n      0x00\n        /* \"#utility.yul\":3286:3353   */\n      tag_82\n        /* \"#utility.yul\":3350:3352   */\n      0x16\n        /* \"#utility.yul\":3345:3348   */\n      dup4\n        /* \"#utility.yul\":3286:3353   */\n      tag_39\n      jump\t// in\n    tag_82:\n        /* \"#utility.yul\":3279:3353   */\n      swap2\n      pop\n        /* \"#utility.yul\":3362:3455   */\n      tag_83\n        /* \"#utility.yul\":3451:3454   */\n      dup3\n        /* \"#utility.yul\":3362:3455   */\n      tag_43\n      jump\t// in\n    tag_83:\n        /* \"#utility.yul\":3480:3482   */\n      0x20\n        /* \"#utility.yul\":3475:3478   */\n      dup3\n        /* \"#utility.yul\":3471:3483   */\n      add\n        /* \"#utility.yul\":3464:3483   */\n      swap1\n      pop\n        /* \"#utility.yul\":3123:3489   */\n      swap2\n      swap1\n      pop\n      jump\t// out\n        /* \"#utility.yul\":3495:3914   */\n    tag_27:\n        /* \"#utility.yul\":3661:3665   */\n      0x00\n        /* \"#utility.yul\":3699:3701   */\n      0x20\n        /* \"#utility.yul\":3688:3697   */\n      dup3\n        /* \"#utility.yul\":3684:3702   */\n      add\n        /* \"#utility.yul\":3676:3702   */\n      swap1\n      pop\n        /* \"#utility.yul\":3748:3757   */\n      dup2\n        /* \"#utility.yul\":3742:3746   */\n      dup2\n        /* \"#utility.yul\":3738:3758   */\n      sub\n        /* \"#utility.yul\":3734:3735   */\n      0x00\n        /* \"#utility.yul\":3723:3732   */\n      dup4\n        /* \"#utility.yul\":3719:3736   */\n      add\n        /* \"#utility.yul\":3712:3759   */\n      mstore\n        /* \"#utility.yul\":3776:3907   */\n      tag_85\n        /* \"#utility.yul\":3902:3906   */\n      dup2\n        /* \"#utility.yul\":3776:3907   */\n      tag_44\n      jump\t// in\n    tag_85:\n        /* \"#utility.yul\":3768:3907   */\n      swap1\n      pop\n        /* \"#utility.yul\":3495:3914   */\n      swap2\n      swap1\n      pop\n      jump\t// out\n\n    auxdata: 0xa2646970667358221220788d2e43f24e4b78d761b846828ae998fd080a6fc014c5be05aeeae5a36eae7764736f6c63430008180033\n}\n",
				"bytecode": {
					"linkReferences": {},
					"object": "608060405234801561000f575f80fd5b506104698061001d5f395ff3fe608060405234801561000f575f80fd5b506004361061004a575f3560e01c80631aa3a0081461004e57806322fdef9414610058578063919840ad14610088578063e2a41283146100a6575b5f80fd5b6100566100d6565b005b610072600480360381019061006d91906102c3565b61012c565b60405161007f9190610308565b60405180910390f35b610090610148565b60405161009d91906103ab565b60405180910390f35b6100c060048036038101906100bb91906102c3565b610214565b6040516100cd9190610308565b60405180910390f35b60015f803373ffffffffffffffffffffffffffffffffffffffff1673ffffffffffffffffffffffffffffffffffffffff1681526020019081526020015f205f6101000a81548160ff021916908315150217905550565b5f602052805f5260405f205f915054906101000a900460ff1681565b6060600115155f803373ffffffffffffffffffffffffffffffffffffffff1673ffffffffffffffffffffffffffffffffffffffff1681526020019081526020015f205f9054906101000a900460ff161515146101d9576040517f08c379a00000000000000000000000000000000000000000000000000000000081526004016101d090610415565b60405180910390fd5b6040518060400160405280601281526020017f796f752061726520726567697374657265640000000000000000000000000000815250905090565b5f805f8373ffffffffffffffffffffffffffffffffffffffff1673ffffffffffffffffffffffffffffffffffffffff1681526020019081526020015f205f9054906101000a900460ff169050919050565b5f80fd5b5f73ffffffffffffffffffffffffffffffffffffffff82169050919050565b5f61029282610269565b9050919050565b6102a281610288565b81146102ac575f80fd5b50565b5f813590506102bd81610299565b92915050565b5f602082840312156102d8576102d7610265565b5b5f6102e5848285016102af565b91505092915050565b5f8115159050919050565b610302816102ee565b82525050565b5f60208201905061031b5f8301846102f9565b92915050565b5f81519050919050565b5f82825260208201905092915050565b5f5b8381101561035857808201518184015260208101905061033d565b5f8484015250505050565b5f601f19601f8301169050919050565b5f61037d82610321565b610387818561032b565b935061039781856020860161033b565b6103a081610363565b840191505092915050565b5f6020820190508181035f8301526103c38184610373565b905092915050565b7f796f7520617265206e6f742072656769737465726567000000000000000000005f82015250565b5f6103ff60168361032b565b915061040a826103cb565b602082019050919050565b5f6020820190508181035f83015261042c816103f3565b905091905056fea2646970667358221220788d2e43f24e4b78d761b846828ae998fd080a6fc014c5be05aeeae5a36eae7764736f6c63430008180033",
					"opcodes": "PUSH1 0x80 PUSH1 0x40 MSTORE CALLVALUE DUP1 ISZERO PUSH2 0xF JUMPI PUSH0 DUP1 REVERT JUMPDEST POP PUSH2 0x469 DUP1 PUSH2 0x1D PUSH0 CODECOPY PUSH0 RETURN INVALID PUSH1 0x80 PUSH1 0x40 MSTORE CALLVALUE DUP1 ISZERO PUSH2 0xF JUMPI PUSH0 DUP1 REVERT JUMPDEST POP PUSH1 0x4 CALLDATASIZE LT PUSH2 0x4A JUMPI PUSH0 CALLDATALOAD PUSH1 0xE0 SHR DUP1 PUSH4 0x1AA3A008 EQ PUSH2 0x4E JUMPI DUP1 PUSH4 0x22FDEF94 EQ PUSH2 0x58 JUMPI DUP1 PUSH4 0x919840AD EQ PUSH2 0x88 JUMPI DUP1 PUSH4 0xE2A41283 EQ PUSH2 0xA6 JUMPI JUMPDEST PUSH0 DUP1 REVERT JUMPDEST PUSH2 0x56 PUSH2 0xD6 JUMP JUMPDEST STOP JUMPDEST PUSH2 0x72 PUSH1 0x4 DUP1 CALLDATASIZE SUB DUP2 ADD SWAP1 PUSH2 0x6D SWAP2 SWAP1 PUSH2 0x2C3 JUMP JUMPDEST PUSH2 0x12C JUMP JUMPDEST PUSH1 0x40 MLOAD PUSH2 0x7F SWAP2 SWAP1 PUSH2 0x308 JUMP JUMPDEST PUSH1 0x40 MLOAD DUP1 SWAP2 SUB SWAP1 RETURN JUMPDEST PUSH2 0x90 PUSH2 0x148 JUMP JUMPDEST PUSH1 0x40 MLOAD PUSH2 0x9D SWAP2 SWAP1 PUSH2 0x3AB JUMP JUMPDEST PUSH1 0x40 MLOAD DUP1 SWAP2 SUB SWAP1 RETURN JUMPDEST PUSH2 0xC0 PUSH1 0x4 DUP1 CALLDATASIZE SUB DUP2 ADD SWAP1 PUSH2 0xBB SWAP2 SWAP1 PUSH2 0x2C3 JUMP JUMPDEST PUSH2 0x214 JUMP JUMPDEST PUSH1 0x40 MLOAD PUSH2 0xCD SWAP2 SWAP1 PUSH2 0x308 JUMP JUMPDEST PUSH1 0x40 MLOAD DUP1 SWAP2 SUB SWAP1 RETURN JUMPDEST PUSH1 0x1 PUSH0 DUP1 CALLER PUSH20 0xFFFFFFFFFFFFFFFFFFFFFFFFFFFFFFFFFFFFFFFF AND PUSH20 0xFFFFFFFFFFFFFFFFFFFFFFFFFFFFFFFFFFFFFFFF AND DUP2 MSTORE PUSH1 0x20 ADD SWAP1 DUP2 MSTORE PUSH1 0x20 ADD PUSH0 KECCAK256 PUSH0 PUSH2 0x100 EXP DUP2 SLOAD DUP2 PUSH1 0xFF MUL NOT AND SWAP1 DUP4 ISZERO ISZERO MUL OR SWAP1 SSTORE POP JUMP JUMPDEST PUSH0 PUSH1 0x20 MSTORE DUP1 PUSH0 MSTORE PUSH1 0x40 PUSH0 KECCAK256 PUSH0 SWAP2 POP SLOAD SWAP1 PUSH2 0x100 EXP SWAP1 DIV PUSH1 0xFF AND DUP2 JUMP JUMPDEST PUSH1 0x60 PUSH1 0x1 ISZERO ISZERO PUSH0 DUP1 CALLER PUSH20 0xFFFFFFFFFFFFFFFFFFFFFFFFFFFFFFFFFFFFFFFF AND PUSH20 0xFFFFFFFFFFFFFFFFFFFFFFFFFFFFFFFFFFFFFFFF AND DUP2 MSTORE PUSH1 0x20 ADD SWAP1 DUP2 MSTORE PUSH1 0x20 ADD PUSH0 KECCAK256 PUSH0 SWAP1 SLOAD SWAP1 PUSH2 0x100 EXP SWAP1 DIV PUSH1 0xFF AND ISZERO ISZERO EQ PUSH2 0x1D9 JUMPI PUSH1 0x40 MLOAD PUSH32 0x8C379A000000000000000000000000000000000000000000000000000000000 DUP2 MSTORE PUSH1 0x4 ADD PUSH2 0x1D0 SWAP1 PUSH2 0x415 JUMP JUMPDEST PUSH1 0x40 MLOAD DUP1 SWAP2 SUB SWAP1 REVERT JUMPDEST PUSH1 0x40 MLOAD DUP1 PUSH1 0x40 ADD PUSH1 0x40 MSTORE DUP1 PUSH1 0x12 DUP2 MSTORE PUSH1 0x20 ADD PUSH32 0x796F752061726520726567697374657265640000000000000000000000000000 DUP2 MSTORE POP SWAP1 POP SWAP1 JUMP JUMPDEST PUSH0 DUP1 PUSH0 DUP4 PUSH20 0xFFFFFFFFFFFFFFFFFFFFFFFFFFFFFFFFFFFFFFFF AND PUSH20 0xFFFFFFFFFFFFFFFFFFFFFFFFFFFFFFFFFFFFFFFF AND DUP2 MSTORE PUSH1 0x20 ADD SWAP1 DUP2 MSTORE PUSH1 0x20 ADD PUSH0 KECCAK256 PUSH0 SWAP1 SLOAD SWAP1 PUSH2 0x100 EXP SWAP1 DIV PUSH1 0xFF AND SWAP1 POP SWAP2 SWAP1 POP JUMP JUMPDEST PUSH0 DUP1 REVERT JUMPDEST PUSH0 PUSH20 0xFFFFFFFFFFFFFFFFFFFFFFFFFFFFFFFFFFFFFFFF DUP3 AND SWAP1 POP SWAP2 SWAP1 POP JUMP JUMPDEST PUSH0 PUSH2 0x292 DUP3 PUSH2 0x269 JUMP JUMPDEST SWAP1 POP SWAP2 SWAP1 POP JUMP JUMPDEST PUSH2 0x2A2 DUP2 PUSH2 0x288 JUMP JUMPDEST DUP2 EQ PUSH2 0x2AC JUMPI PUSH0 DUP1 REVERT JUMPDEST POP JUMP JUMPDEST PUSH0 DUP2 CALLDATALOAD SWAP1 POP PUSH2 0x2BD DUP2 PUSH2 0x299 JUMP JUMPDEST SWAP3 SWAP2 POP POP JUMP JUMPDEST PUSH0 PUSH1 0x20 DUP3 DUP5 SUB SLT ISZERO PUSH2 0x2D8 JUMPI PUSH2 0x2D7 PUSH2 0x265 JUMP JUMPDEST JUMPDEST PUSH0 PUSH2 0x2E5 DUP5 DUP3 DUP6 ADD PUSH2 0x2AF JUMP JUMPDEST SWAP2 POP POP SWAP3 SWAP2 POP POP JUMP JUMPDEST PUSH0 DUP2 ISZERO ISZERO SWAP1 POP SWAP2 SWAP1 POP JUMP JUMPDEST PUSH2 0x302 DUP2 PUSH2 0x2EE JUMP JUMPDEST DUP3 MSTORE POP POP JUMP JUMPDEST PUSH0 PUSH1 0x20 DUP3 ADD SWAP1 POP PUSH2 0x31B PUSH0 DUP4 ADD DUP5 PUSH2 0x2F9 JUMP JUMPDEST SWAP3 SWAP2 POP POP JUMP JUMPDEST PUSH0 DUP2 MLOAD SWAP1 POP SWAP2 SWAP1 POP JUMP JUMPDEST PUSH0 DUP3 DUP3 MSTORE PUSH1 0x20 DUP3 ADD SWAP1 POP SWAP3 SWAP2 POP POP JUMP JUMPDEST PUSH0 JUMPDEST DUP4 DUP2 LT ISZERO PUSH2 0x358 JUMPI DUP1 DUP3 ADD MLOAD DUP2 DUP5 ADD MSTORE PUSH1 0x20 DUP2 ADD SWAP1 POP PUSH2 0x33D JUMP JUMPDEST PUSH0 DUP5 DUP5 ADD MSTORE POP POP POP POP JUMP JUMPDEST PUSH0 PUSH1 0x1F NOT PUSH1 0x1F DUP4 ADD AND SWAP1 POP SWAP2 SWAP1 POP JUMP JUMPDEST PUSH0 PUSH2 0x37D DUP3 PUSH2 0x321 JUMP JUMPDEST PUSH2 0x387 DUP2 DUP6 PUSH2 0x32B JUMP JUMPDEST SWAP4 POP PUSH2 0x397 DUP2 DUP6 PUSH1 0x20 DUP7 ADD PUSH2 0x33B JUMP JUMPDEST PUSH2 0x3A0 DUP2 PUSH2 0x363 JUMP JUMPDEST DUP5 ADD SWAP2 POP POP SWAP3 SWAP2 POP POP JUMP JUMPDEST PUSH0 PUSH1 0x20 DUP3 ADD SWAP1 POP DUP2 DUP2 SUB PUSH0 DUP4 ADD MSTORE PUSH2 0x3C3 DUP2 DUP5 PUSH2 0x373 JUMP JUMPDEST SWAP1 POP SWAP3 SWAP2 POP POP JUMP JUMPDEST PUSH32 0x796F7520617265206E6F74207265676973746572656700000000000000000000 PUSH0 DUP3 ADD MSTORE POP JUMP JUMPDEST PUSH0 PUSH2 0x3FF PUSH1 0x16 DUP4 PUSH2 0x32B JUMP JUMPDEST SWAP2 POP PUSH2 0x40A DUP3 PUSH2 0x3CB JUMP JUMPDEST PUSH1 0x20 DUP3 ADD SWAP1 POP SWAP2 SWAP1 POP JUMP JUMPDEST PUSH0 PUSH1 0x20 DUP3 ADD SWAP1 POP DUP2 DUP2 SUB PUSH0 DUP4 ADD MSTORE PUSH2 0x42C DUP2 PUSH2 0x3F3 JUMP JUMPDEST SWAP1 POP SWAP2 SWAP1 POP JUMP INVALID LOG2 PUSH5 0x6970667358 0x22 SLT KECCAK256 PUSH25 0x8D2E43F24E4B78D761B846828AE998FD080A6FC014C5BE05AE 0xEA 0xE5 LOG3 PUSH15 0xAE7764736F6C634300081800330000 "
				},
				"gasEstimates": {
					"creation": {
						"codeDepositCost": "225800",
						"executionCost": "267",
						"totalCost": "226067"
					},
					"external": {
						"check()": "infinite",
						"checkRegistration(address)": "2914",
						"isRegister(address)": "2832",
						"register()": "24474"
					}
				},
				"methodIdentifiers": {
					"check()": "919840ad",
					"checkRegistration(address)": "e2a41283",
					"isRegister(address)": "22fdef94",
					"register()": "1aa3a008"
				}
			},
			"storageLayout": {
				"storage": [
					{
						"astId": 5,
						"contract": "contracts/ClassWork/4Authenticsystem.sol:simpleAuth",
						"label": "isRegister",
						"offset": 0,
						"slot": "0",
						"type": "t_mapping(t_address,t_bool)"
					}
				],
				"types": {
					"t_address": {
						"encoding": "inplace",
						"label": "address",
						"numberOfBytes": "20"
					},
					"t_bool": {
						"encoding": "inplace",
						"label": "bool",
						"numberOfBytes": "1"
					},
					"t_mapping(t_address,t_bool)": {
						"encoding": "mapping",
						"key": "t_address",
						"label": "mapping(address => bool)",
						"numberOfBytes": "32",
						"value": "t_bool"
					}
				}
			},
			"userdoc": {
				"kind": "user",
				"methods": {},
				"version": 1
			}
		}
	}
}