{
	"contracts/ClassWork/SimpleBank.sol": {
		"simpleBank": {
			"abi": [
				{
					"inputs": [],
					"stateMutability": "nonpayable",
					"type": "constructor"
				},
				{
					"inputs": [
						{
							"internalType": "uint256",
							"name": "",
							"type": "uint256"
						}
					],
					"name": "Users",
					"outputs": [
						{
							"internalType": "string",
							"name": "Uname",
							"type": "string"
						},
						{
							"internalType": "string",
							"name": "DoB",
							"type": "string"
						},
						{
							"internalType": "string",
							"name": "Gender",
							"type": "string"
						},
						{
							"internalType": "uint256",
							"name": "balance",
							"type": "uint256"
						},
						{
							"internalType": "uint256",
							"name": "AccountNo",
							"type": "uint256"
						}
					],
					"stateMutability": "view",
					"type": "function"
				},
				{
					"inputs": [
						{
							"internalType": "address",
							"name": "",
							"type": "address"
						}
					],
					"name": "balances",
					"outputs": [
						{
							"internalType": "uint256",
							"name": "",
							"type": "uint256"
						}
					],
					"stateMutability": "view",
					"type": "function"
				},
				{
					"inputs": [
						{
							"internalType": "string",
							"name": "_Uname",
							"type": "string"
						},
						{
							"internalType": "string",
							"name": "_dob",
							"type": "string"
						},
						{
							"internalType": "string",
							"name": "_Gender",
							"type": "string"
						}
					],
					"name": "createAccount",
					"outputs": [
						{
							"internalType": "uint256",
							"name": "",
							"type": "uint256"
						}
					],
					"stateMutability": "nonpayable",
					"type": "function"
				},
				{
					"inputs": [
						{
							"internalType": "uint256",
							"name": "uid",
							"type": "uint256"
						},
						{
							"internalType": "uint256",
							"name": "amount",
							"type": "uint256"
						}
					],
					"name": "deposit",
					"outputs": [],
					"stateMutability": "payable",
					"type": "function"
				},
				{
					"inputs": [],
					"name": "getBalance",
					"outputs": [
						{
							"internalType": "uint256",
							"name": "",
							"type": "uint256"
						}
					],
					"stateMutability": "view",
					"type": "function"
				},
				{
					"inputs": [],
					"name": "owner",
					"outputs": [
						{
							"internalType": "address",
							"name": "",
							"type": "address"
						}
					],
					"stateMutability": "view",
					"type": "function"
				},
				{
					"inputs": [
						{
							"internalType": "uint256",
							"name": "uid",
							"type": "uint256"
						},
						{
							"internalType": "uint256",
							"name": "amount",
							"type": "uint256"
						}
					],
					"name": "withdraw",
					"outputs": [],
					"stateMutability": "nonpayable",
					"type": "function"
				}
			],
			"devdoc": {
				"kind": "dev",
				"methods": {},
				"version": 1
			},
			"evm": {
				"assembly": "    /* \"contracts/ClassWork/SimpleBank.sol\":62:1370  contract simpleBank{... */\n  mstore(0x40, 0x80)\n    /* \"contracts/ClassWork/SimpleBank.sol\":96:103  7845620 */\n  0x77b6f4\n    /* \"contracts/ClassWork/SimpleBank.sol\":86:103  uint AcNo=7845620 */\n  0x00\n  sstore\n    /* \"contracts/ClassWork/SimpleBank.sol\":341:385  constructor(){... */\n  callvalue\n  dup1\n  iszero\n  tag_1\n  jumpi\n  0x00\n  dup1\n  revert\ntag_1:\n  pop\n    /* \"contracts/ClassWork/SimpleBank.sol\":368:378  msg.sender */\n  caller\n    /* \"contracts/ClassWork/SimpleBank.sol\":360:365  owner */\n  0x03\n  0x00\n    /* \"contracts/ClassWork/SimpleBank.sol\":360:378  owner = msg.sender */\n  0x0100\n  exp\n  dup2\n  sload\n  dup2\n  0xffffffffffffffffffffffffffffffffffffffff\n  mul\n  not\n  and\n  swap1\n  dup4\n  0xffffffffffffffffffffffffffffffffffffffff\n  and\n  mul\n  or\n  swap1\n  sstore\n  pop\n    /* \"contracts/ClassWork/SimpleBank.sol\":62:1370  contract simpleBank{... */\n  dataSize(sub_0)\n  dup1\n  dataOffset(sub_0)\n  0x00\n  codecopy\n  0x00\n  return\nstop\n\nsub_0: assembly {\n        /* \"contracts/ClassWork/SimpleBank.sol\":62:1370  contract simpleBank{... */\n      mstore(0x40, 0x80)\n      jumpi(tag_1, lt(calldatasize, 0x04))\n      shr(0xe0, calldataload(0x00))\n      dup1\n      0x441a3e70\n      gt\n      tag_9\n      jumpi\n      dup1\n      0x441a3e70\n      eq\n      tag_5\n      jumpi\n      dup1\n      0x8da5cb5b\n      eq\n      tag_6\n      jumpi\n      dup1\n      0xbc53c0c4\n      eq\n      tag_7\n      jumpi\n      dup1\n      0xe2bbb158\n      eq\n      tag_8\n      jumpi\n      jump(tag_1)\n    tag_9:\n      dup1\n      0x12065fe0\n      eq\n      tag_2\n      jumpi\n      dup1\n      0x1e98fd1c\n      eq\n      tag_3\n      jumpi\n      dup1\n      0x27e235e3\n      eq\n      tag_4\n      jumpi\n    tag_1:\n      0x00\n      dup1\n      revert\n        /* \"contracts/ClassWork/SimpleBank.sol\":1276:1363  function getBalance() public view returns(uint){... */\n    tag_2:\n      callvalue\n      dup1\n      iszero\n      tag_10\n      jumpi\n      0x00\n      dup1\n      revert\n    tag_10:\n      pop\n      tag_11\n      tag_12\n      jump\t// in\n    tag_11:\n      mload(0x40)\n      tag_13\n      swap2\n      swap1\n      tag_14\n      jump\t// in\n    tag_13:\n      mload(0x40)\n      dup1\n      swap2\n      sub\n      swap1\n      return\n        /* \"contracts/ClassWork/SimpleBank.sol\":226:259  mapping (uint=>user) public Users */\n    tag_3:\n      callvalue\n      dup1\n      iszero\n      tag_15\n      jumpi\n      0x00\n      dup1\n      revert\n    tag_15:\n      pop\n      tag_16\n      0x04\n      dup1\n      calldatasize\n      sub\n      dup2\n      add\n      swap1\n      tag_17\n      swap2\n      swap1\n      tag_18\n      jump\t// in\n    tag_17:\n      tag_19\n      jump\t// in\n    tag_16:\n      mload(0x40)\n      tag_20\n      swap6\n      swap5\n      swap4\n      swap3\n      swap2\n      swap1\n      tag_21\n      jump\t// in\n    tag_20:\n      mload(0x40)\n      dup1\n      swap2\n      sub\n      swap1\n      return\n        /* \"contracts/ClassWork/SimpleBank.sol\":263:304  mapping (address => uint) public balances */\n    tag_4:\n      callvalue\n      dup1\n      iszero\n      tag_22\n      jumpi\n      0x00\n      dup1\n      revert\n    tag_22:\n      pop\n      tag_23\n      0x04\n      dup1\n      calldatasize\n      sub\n      dup2\n      add\n      swap1\n      tag_24\n      swap2\n      swap1\n      tag_25\n      jump\t// in\n    tag_24:\n      tag_26\n      jump\t// in\n    tag_23:\n      mload(0x40)\n      tag_27\n      swap2\n      swap1\n      tag_14\n      jump\t// in\n    tag_27:\n      mload(0x40)\n      dup1\n      swap2\n      sub\n      swap1\n      return\n        /* \"contracts/ClassWork/SimpleBank.sol\":962:1265  function withdraw(uint uid,uint amount) public {... */\n    tag_5:\n      callvalue\n      dup1\n      iszero\n      tag_28\n      jumpi\n      0x00\n      dup1\n      revert\n    tag_28:\n      pop\n      tag_29\n      0x04\n      dup1\n      calldatasize\n      sub\n      dup2\n      add\n      swap1\n      tag_30\n      swap2\n      swap1\n      tag_31\n      jump\t// in\n    tag_30:\n      tag_32\n      jump\t// in\n    tag_29:\n      stop\n        /* \"contracts/ClassWork/SimpleBank.sol\":310:330  address public owner */\n    tag_6:\n      callvalue\n      dup1\n      iszero\n      tag_33\n      jumpi\n      0x00\n      dup1\n      revert\n    tag_33:\n      pop\n      tag_34\n      tag_35\n      jump\t// in\n    tag_34:\n      mload(0x40)\n      tag_36\n      swap2\n      swap1\n      tag_37\n      jump\t// in\n    tag_36:\n      mload(0x40)\n      dup1\n      swap2\n      sub\n      swap1\n      return\n        /* \"contracts/ClassWork/SimpleBank.sol\":390:696  function createAccount(string memory _Uname, string memory _dob,string memory _Gender) public returns(uint) {... */\n    tag_7:\n      callvalue\n      dup1\n      iszero\n      tag_38\n      jumpi\n      0x00\n      dup1\n      revert\n    tag_38:\n      pop\n      tag_39\n      0x04\n      dup1\n      calldatasize\n      sub\n      dup2\n      add\n      swap1\n      tag_40\n      swap2\n      swap1\n      tag_41\n      jump\t// in\n    tag_40:\n      tag_42\n      jump\t// in\n    tag_39:\n      mload(0x40)\n      tag_43\n      swap2\n      swap1\n      tag_14\n      jump\t// in\n    tag_43:\n      mload(0x40)\n      dup1\n      swap2\n      sub\n      swap1\n      return\n        /* \"contracts/ClassWork/SimpleBank.sol\":705:952  function deposit(uint uid,uint amount) public payable{... */\n    tag_8:\n      tag_44\n      0x04\n      dup1\n      calldatasize\n      sub\n      dup2\n      add\n      swap1\n      tag_45\n      swap2\n      swap1\n      tag_31\n      jump\t// in\n    tag_45:\n      tag_46\n      jump\t// in\n    tag_44:\n      stop\n        /* \"contracts/ClassWork/SimpleBank.sol\":1276:1363  function getBalance() public view returns(uint){... */\n    tag_12:\n        /* \"contracts/ClassWork/SimpleBank.sol\":1318:1322  uint */\n      0x00\n        /* \"contracts/ClassWork/SimpleBank.sol\":1336:1344  balances */\n      0x02\n        /* \"contracts/ClassWork/SimpleBank.sol\":1336:1356  balances[msg.sender] */\n      0x00\n        /* \"contracts/ClassWork/SimpleBank.sol\":1345:1355  msg.sender */\n      caller\n        /* \"contracts/ClassWork/SimpleBank.sol\":1336:1356  balances[msg.sender] */\n      0xffffffffffffffffffffffffffffffffffffffff\n      and\n      0xffffffffffffffffffffffffffffffffffffffff\n      and\n      dup2\n      mstore\n      0x20\n      add\n      swap1\n      dup2\n      mstore\n      0x20\n      add\n      0x00\n      keccak256\n      sload\n        /* \"contracts/ClassWork/SimpleBank.sol\":1329:1356  return balances[msg.sender] */\n      swap1\n      pop\n        /* \"contracts/ClassWork/SimpleBank.sol\":1276:1363  function getBalance() public view returns(uint){... */\n      swap1\n      jump\t// out\n        /* \"contracts/ClassWork/SimpleBank.sol\":226:259  mapping (uint=>user) public Users */\n    tag_19:\n      mstore(0x20, 0x01)\n      dup1\n      0x00\n      mstore\n      keccak256(0x00, 0x40)\n      0x00\n      swap2\n      pop\n      swap1\n      pop\n      dup1\n      0x00\n      add\n      dup1\n      sload\n      tag_48\n      swap1\n      tag_49\n      jump\t// in\n    tag_48:\n      dup1\n      0x1f\n      add\n      0x20\n      dup1\n      swap2\n      div\n      mul\n      0x20\n      add\n      mload(0x40)\n      swap1\n      dup2\n      add\n      0x40\n      mstore\n      dup1\n      swap3\n      swap2\n      swap1\n      dup2\n      dup2\n      mstore\n      0x20\n      add\n      dup3\n      dup1\n      sload\n      tag_50\n      swap1\n      tag_49\n      jump\t// in\n    tag_50:\n      dup1\n      iszero\n      tag_51\n      jumpi\n      dup1\n      0x1f\n      lt\n      tag_52\n      jumpi\n      0x0100\n      dup1\n      dup4\n      sload\n      div\n      mul\n      dup4\n      mstore\n      swap2\n      0x20\n      add\n      swap2\n      jump(tag_51)\n    tag_52:\n      dup3\n      add\n      swap2\n      swap1\n      0x00\n      mstore\n      keccak256(0x00, 0x20)\n      swap1\n    tag_53:\n      dup2\n      sload\n      dup2\n      mstore\n      swap1\n      0x01\n      add\n      swap1\n      0x20\n      add\n      dup1\n      dup4\n      gt\n      tag_53\n      jumpi\n      dup3\n      swap1\n      sub\n      0x1f\n      and\n      dup3\n      add\n      swap2\n    tag_51:\n      pop\n      pop\n      pop\n      pop\n      pop\n      swap1\n      dup1\n      0x01\n      add\n      dup1\n      sload\n      tag_54\n      swap1\n      tag_49\n      jump\t// in\n    tag_54:\n      dup1\n      0x1f\n      add\n      0x20\n      dup1\n      swap2\n      div\n      mul\n      0x20\n      add\n      mload(0x40)\n      swap1\n      dup2\n      add\n      0x40\n      mstore\n      dup1\n      swap3\n      swap2\n      swap1\n      dup2\n      dup2\n      mstore\n      0x20\n      add\n      dup3\n      dup1\n      sload\n      tag_55\n      swap1\n      tag_49\n      jump\t// in\n    tag_55:\n      dup1\n      iszero\n      tag_56\n      jumpi\n      dup1\n      0x1f\n      lt\n      tag_57\n      jumpi\n      0x0100\n      dup1\n      dup4\n      sload\n      div\n      mul\n      dup4\n      mstore\n      swap2\n      0x20\n      add\n      swap2\n      jump(tag_56)\n    tag_57:\n      dup3\n      add\n      swap2\n      swap1\n      0x00\n      mstore\n      keccak256(0x00, 0x20)\n      swap1\n    tag_58:\n      dup2\n      sload\n      dup2\n      mstore\n      swap1\n      0x01\n      add\n      swap1\n      0x20\n      add\n      dup1\n      dup4\n      gt\n      tag_58\n      jumpi\n      dup3\n      swap1\n      sub\n      0x1f\n      and\n      dup3\n      add\n      swap2\n    tag_56:\n      pop\n      pop\n      pop\n      pop\n      pop\n      swap1\n      dup1\n      0x02\n      add\n      dup1\n      sload\n      tag_59\n      swap1\n      tag_49\n      jump\t// in\n    tag_59:\n      dup1\n      0x1f\n      add\n      0x20\n      dup1\n      swap2\n      div\n      mul\n      0x20\n      add\n      mload(0x40)\n      swap1\n      dup2\n      add\n      0x40\n      mstore\n      dup1\n      swap3\n      swap2\n      swap1\n      dup2\n      dup2\n      mstore\n      0x20\n      add\n      dup3\n      dup1\n      sload\n      tag_60\n      swap1\n      tag_49\n      jump\t// in\n    tag_60:\n      dup1\n      iszero\n      tag_61\n      jumpi\n      dup1\n      0x1f\n      lt\n      tag_62\n      jumpi\n      0x0100\n      dup1\n      dup4\n      sload\n      div\n      mul\n      dup4\n      mstore\n      swap2\n      0x20\n      add\n      swap2\n      jump(tag_61)\n    tag_62:\n      dup3\n      add\n      swap2\n      swap1\n      0x00\n      mstore\n      keccak256(0x00, 0x20)\n      swap1\n    tag_63:\n      dup2\n      sload\n      dup2\n      mstore\n      swap1\n      0x01\n      add\n      swap1\n      0x20\n      add\n      dup1\n      dup4\n      gt\n      tag_63\n      jumpi\n      dup3\n      swap1\n      sub\n      0x1f\n      and\n      dup3\n      add\n      swap2\n    tag_61:\n      pop\n      pop\n      pop\n      pop\n      pop\n      swap1\n      dup1\n      0x03\n      add\n      sload\n      swap1\n      dup1\n      0x04\n      add\n      sload\n      swap1\n      pop\n      dup6\n      jump\t// out\n        /* \"contracts/ClassWork/SimpleBank.sol\":263:304  mapping (address => uint) public balances */\n    tag_26:\n      mstore(0x20, 0x02)\n      dup1\n      0x00\n      mstore\n      keccak256(0x00, 0x40)\n      0x00\n      swap2\n      pop\n      swap1\n      pop\n      sload\n      dup2\n      jump\t// out\n        /* \"contracts/ClassWork/SimpleBank.sol\":962:1265  function withdraw(uint uid,uint amount) public {... */\n    tag_32:\n        /* \"contracts/ClassWork/SimpleBank.sol\":1032:1033  0 */\n      0x00\n        /* \"contracts/ClassWork/SimpleBank.sol\":1023:1029  amount */\n      dup2\n        /* \"contracts/ClassWork/SimpleBank.sol\":1023:1033  amount > 0 */\n      gt\n        /* \"contracts/ClassWork/SimpleBank.sol\":1015:1080  require(amount > 0, \"Withdrawal amount should be greater than 0\") */\n      tag_65\n      jumpi\n      mload(0x40)\n      0x08c379a000000000000000000000000000000000000000000000000000000000\n      dup2\n      mstore\n      0x04\n      add\n      tag_66\n      swap1\n      tag_67\n      jump\t// in\n    tag_66:\n      mload(0x40)\n      dup1\n      swap2\n      sub\n      swap1\n      revert\n    tag_65:\n        /* \"contracts/ClassWork/SimpleBank.sol\":1118:1124  amount */\n      dup1\n        /* \"contracts/ClassWork/SimpleBank.sol\":1094:1102  balances */\n      0x02\n        /* \"contracts/ClassWork/SimpleBank.sol\":1094:1114  balances[msg.sender] */\n      0x00\n        /* \"contracts/ClassWork/SimpleBank.sol\":1103:1113  msg.sender */\n      caller\n        /* \"contracts/ClassWork/SimpleBank.sol\":1094:1114  balances[msg.sender] */\n      0xffffffffffffffffffffffffffffffffffffffff\n      and\n      0xffffffffffffffffffffffffffffffffffffffff\n      and\n      dup2\n      mstore\n      0x20\n      add\n      swap1\n      dup2\n      mstore\n      0x20\n      add\n      0x00\n      keccak256\n      sload\n        /* \"contracts/ClassWork/SimpleBank.sol\":1094:1124  balances[msg.sender] >= amount */\n      lt\n      iszero\n        /* \"contracts/ClassWork/SimpleBank.sol\":1086:1149  require(balances[msg.sender] >= amount, \"Insufficient Balance\") */\n      tag_68\n      jumpi\n      mload(0x40)\n      0x08c379a000000000000000000000000000000000000000000000000000000000\n      dup2\n      mstore\n      0x04\n      add\n      tag_69\n      swap1\n      tag_70\n      jump\t// in\n    tag_69:\n      mload(0x40)\n      dup1\n      swap2\n      sub\n      swap1\n      revert\n    tag_68:\n        /* \"contracts/ClassWork/SimpleBank.sol\":1179:1185  amount */\n      dup1\n        /* \"contracts/ClassWork/SimpleBank.sol\":1155:1163  balances */\n      0x02\n        /* \"contracts/ClassWork/SimpleBank.sol\":1155:1175  balances[msg.sender] */\n      0x00\n        /* \"contracts/ClassWork/SimpleBank.sol\":1164:1174  msg.sender */\n      caller\n        /* \"contracts/ClassWork/SimpleBank.sol\":1155:1175  balances[msg.sender] */\n      0xffffffffffffffffffffffffffffffffffffffff\n      and\n      0xffffffffffffffffffffffffffffffffffffffff\n      and\n      dup2\n      mstore\n      0x20\n      add\n      swap1\n      dup2\n      mstore\n      0x20\n      add\n      0x00\n      keccak256\n      0x00\n        /* \"contracts/ClassWork/SimpleBank.sol\":1155:1185  balances[msg.sender] -= amount */\n      dup3\n      dup3\n      sload\n      tag_71\n      swap2\n      swap1\n      tag_72\n      jump\t// in\n    tag_71:\n      swap3\n      pop\n      pop\n      dup2\n      swap1\n      sstore\n      pop\n        /* \"contracts/ClassWork/SimpleBank.sol\":1209:1215  amount */\n      dup1\n        /* \"contracts/ClassWork/SimpleBank.sol\":1189:1194  Users */\n      0x01\n        /* \"contracts/ClassWork/SimpleBank.sol\":1189:1199  Users[uid] */\n      0x00\n        /* \"contracts/ClassWork/SimpleBank.sol\":1195:1198  uid */\n      dup5\n        /* \"contracts/ClassWork/SimpleBank.sol\":1189:1199  Users[uid] */\n      dup2\n      mstore\n      0x20\n      add\n      swap1\n      dup2\n      mstore\n      0x20\n      add\n      0x00\n      keccak256\n        /* \"contracts/ClassWork/SimpleBank.sol\":1189:1207  Users[uid].balance */\n      0x03\n      add\n      0x00\n        /* \"contracts/ClassWork/SimpleBank.sol\":1189:1215  Users[uid].balance-=amount */\n      dup3\n      dup3\n      sload\n      tag_73\n      swap2\n      swap1\n      tag_72\n      jump\t// in\n    tag_73:\n      swap3\n      pop\n      pop\n      dup2\n      swap1\n      sstore\n      pop\n        /* \"contracts/ClassWork/SimpleBank.sol\":1230:1240  msg.sender */\n      caller\n        /* \"contracts/ClassWork/SimpleBank.sol\":1222:1250  payable(msg.sender).transfer */\n      0xffffffffffffffffffffffffffffffffffffffff\n      and\n        /* \"contracts/ClassWork/SimpleBank.sol\":1222:1258  payable(msg.sender).transfer(amount) */\n      0x08fc\n        /* \"contracts/ClassWork/SimpleBank.sol\":1251:1257  amount */\n      dup3\n        /* \"contracts/ClassWork/SimpleBank.sol\":1222:1258  payable(msg.sender).transfer(amount) */\n      swap1\n      dup2\n      iszero\n      mul\n      swap1\n      mload(0x40)\n      0x00\n      mload(0x40)\n      dup1\n      dup4\n      sub\n      dup2\n      dup6\n      dup9\n      dup9\n      call\n      swap4\n      pop\n      pop\n      pop\n      pop\n      iszero\n      dup1\n      iszero\n      tag_75\n      jumpi\n      returndatasize\n      0x00\n      dup1\n      returndatacopy\n      revert(0x00, returndatasize)\n    tag_75:\n      pop\n        /* \"contracts/ClassWork/SimpleBank.sol\":962:1265  function withdraw(uint uid,uint amount) public {... */\n      pop\n      pop\n      jump\t// out\n        /* \"contracts/ClassWork/SimpleBank.sol\":310:330  address public owner */\n    tag_35:\n      0x03\n      0x00\n      swap1\n      sload\n      swap1\n      0x0100\n      exp\n      swap1\n      div\n      0xffffffffffffffffffffffffffffffffffffffff\n      and\n      dup2\n      jump\t// out\n        /* \"contracts/ClassWork/SimpleBank.sol\":390:696  function createAccount(string memory _Uname, string memory _dob,string memory _Gender) public returns(uint) {... */\n    tag_42:\n        /* \"contracts/ClassWork/SimpleBank.sol\":492:496  uint */\n      0x00\n        /* \"contracts/ClassWork/SimpleBank.sol\":505:518  uint _balance */\n      dup1\n        /* \"contracts/ClassWork/SimpleBank.sol\":525:544  user memory newuser */\n      0x00\n        /* \"contracts/ClassWork/SimpleBank.sol\":545:581  user(_Uname,_dob,_Gender,_balance,0) */\n      mload(0x40)\n      dup1\n      0xa0\n      add\n      0x40\n      mstore\n      dup1\n        /* \"contracts/ClassWork/SimpleBank.sol\":550:556  _Uname */\n      dup8\n        /* \"contracts/ClassWork/SimpleBank.sol\":545:581  user(_Uname,_dob,_Gender,_balance,0) */\n      dup2\n      mstore\n      0x20\n      add\n        /* \"contracts/ClassWork/SimpleBank.sol\":557:561  _dob */\n      dup7\n        /* \"contracts/ClassWork/SimpleBank.sol\":545:581  user(_Uname,_dob,_Gender,_balance,0) */\n      dup2\n      mstore\n      0x20\n      add\n        /* \"contracts/ClassWork/SimpleBank.sol\":562:569  _Gender */\n      dup6\n        /* \"contracts/ClassWork/SimpleBank.sol\":545:581  user(_Uname,_dob,_Gender,_balance,0) */\n      dup2\n      mstore\n      0x20\n      add\n        /* \"contracts/ClassWork/SimpleBank.sol\":570:578  _balance */\n      dup4\n        /* \"contracts/ClassWork/SimpleBank.sol\":545:581  user(_Uname,_dob,_Gender,_balance,0) */\n      dup2\n      mstore\n      0x20\n      add\n        /* \"contracts/ClassWork/SimpleBank.sol\":579:580  0 */\n      0x00\n        /* \"contracts/ClassWork/SimpleBank.sol\":545:581  user(_Uname,_dob,_Gender,_balance,0) */\n      dup2\n      mstore\n      pop\n        /* \"contracts/ClassWork/SimpleBank.sol\":525:581  user memory newuser=user(_Uname,_dob,_Gender,_balance,0) */\n      swap1\n      pop\n        /* \"contracts/ClassWork/SimpleBank.sol\":594:595  1 */\n      0x01\n        /* \"contracts/ClassWork/SimpleBank.sol\":588:592  AcNo */\n      0x00\n      dup1\n        /* \"contracts/ClassWork/SimpleBank.sol\":588:595  AcNo+=1 */\n      dup3\n      dup3\n      sload\n      tag_77\n      swap2\n      swap1\n      tag_78\n      jump\t// in\n    tag_77:\n      swap3\n      pop\n      pop\n      dup2\n      swap1\n      sstore\n      pop\n        /* \"contracts/ClassWork/SimpleBank.sol\":614:621  newuser */\n      dup1\n        /* \"contracts/ClassWork/SimpleBank.sol\":602:607  Users */\n      0x01\n        /* \"contracts/ClassWork/SimpleBank.sol\":602:613  Users[AcNo] */\n      0x00\n        /* \"contracts/ClassWork/SimpleBank.sol\":608:612  AcNo */\n      dup1\n      sload\n        /* \"contracts/ClassWork/SimpleBank.sol\":602:613  Users[AcNo] */\n      dup2\n      mstore\n      0x20\n      add\n      swap1\n      dup2\n      mstore\n      0x20\n      add\n      0x00\n      keccak256\n        /* \"contracts/ClassWork/SimpleBank.sol\":602:621  Users[AcNo]=newuser */\n      0x00\n      dup3\n      add\n      mload\n      dup2\n      0x00\n      add\n      swap1\n      dup2\n      tag_79\n      swap2\n      swap1\n      tag_80\n      jump\t// in\n    tag_79:\n      pop\n      0x20\n      dup3\n      add\n      mload\n      dup2\n      0x01\n      add\n      swap1\n      dup2\n      tag_81\n      swap2\n      swap1\n      tag_80\n      jump\t// in\n    tag_81:\n      pop\n      0x40\n      dup3\n      add\n      mload\n      dup2\n      0x02\n      add\n      swap1\n      dup2\n      tag_82\n      swap2\n      swap1\n      tag_80\n      jump\t// in\n    tag_82:\n      pop\n      0x60\n      dup3\n      add\n      mload\n      dup2\n      0x03\n      add\n      sstore\n      0x80\n      dup3\n      add\n      mload\n      dup2\n      0x04\n      add\n      sstore\n      swap1\n      pop\n      pop\n        /* \"contracts/ClassWork/SimpleBank.sol\":650:654  AcNo */\n      sload(0x00)\n        /* \"contracts/ClassWork/SimpleBank.sol\":628:633  Users */\n      0x01\n        /* \"contracts/ClassWork/SimpleBank.sol\":628:639  Users[AcNo] */\n      0x00\n        /* \"contracts/ClassWork/SimpleBank.sol\":634:638  AcNo */\n      dup1\n      sload\n        /* \"contracts/ClassWork/SimpleBank.sol\":628:639  Users[AcNo] */\n      dup2\n      mstore\n      0x20\n      add\n      swap1\n      dup2\n      mstore\n      0x20\n      add\n      0x00\n      keccak256\n        /* \"contracts/ClassWork/SimpleBank.sol\":628:649  Users[AcNo].AccountNo */\n      0x04\n      add\n        /* \"contracts/ClassWork/SimpleBank.sol\":628:654  Users[AcNo].AccountNo=AcNo */\n      dup2\n      swap1\n      sstore\n      pop\n        /* \"contracts/ClassWork/SimpleBank.sol\":661:669  uint uid */\n      0x00\n        /* \"contracts/ClassWork/SimpleBank.sol\":670:674  AcNo */\n      dup1\n      sload\n        /* \"contracts/ClassWork/SimpleBank.sol\":661:674  uint uid=AcNo */\n      swap1\n      pop\n        /* \"contracts/ClassWork/SimpleBank.sol\":688:691  uid */\n      dup1\n        /* \"contracts/ClassWork/SimpleBank.sol\":681:691  return uid */\n      swap4\n      pop\n      pop\n      pop\n      pop\n        /* \"contracts/ClassWork/SimpleBank.sol\":390:696  function createAccount(string memory _Uname, string memory _dob,string memory _Gender) public returns(uint) {... */\n      swap4\n      swap3\n      pop\n      pop\n      pop\n      jump\t// out\n        /* \"contracts/ClassWork/SimpleBank.sol\":705:952  function deposit(uint uid,uint amount) public payable{... */\n    tag_46:\n        /* \"contracts/ClassWork/SimpleBank.sol\":782:783  0 */\n      0x00\n        /* \"contracts/ClassWork/SimpleBank.sol\":770:779  msg.value */\n      callvalue\n        /* \"contracts/ClassWork/SimpleBank.sol\":770:783  msg.value > 0 */\n      gt\n        /* \"contracts/ClassWork/SimpleBank.sol\":762:826  require(msg.value > 0, \"Deposit amount should be geater than 0\") */\n      tag_84\n      jumpi\n      mload(0x40)\n      0x08c379a000000000000000000000000000000000000000000000000000000000\n      dup2\n      mstore\n      0x04\n      add\n      tag_85\n      swap1\n      tag_86\n      jump\t// in\n    tag_85:\n      mload(0x40)\n      dup1\n      swap2\n      sub\n      swap1\n      revert\n    tag_84:\n        /* \"contracts/ClassWork/SimpleBank.sol\":850:856  amount */\n      dup1\n        /* \"contracts/ClassWork/SimpleBank.sol\":838:847  msg.value */\n      callvalue\n        /* \"contracts/ClassWork/SimpleBank.sol\":838:856  msg.value== amount */\n      eq\n        /* \"contracts/ClassWork/SimpleBank.sol\":830:880  require(msg.value== amount,\"invalid Transanction\") */\n      tag_87\n      jumpi\n      mload(0x40)\n      0x08c379a000000000000000000000000000000000000000000000000000000000\n      dup2\n      mstore\n      0x04\n      add\n      tag_88\n      swap1\n      tag_89\n      jump\t// in\n    tag_88:\n      mload(0x40)\n      dup1\n      swap2\n      sub\n      swap1\n      revert\n    tag_87:\n        /* \"contracts/ClassWork/SimpleBank.sol\":908:917  msg.value */\n      callvalue\n        /* \"contracts/ClassWork/SimpleBank.sol\":884:892  balances */\n      0x02\n        /* \"contracts/ClassWork/SimpleBank.sol\":884:904  balances[msg.sender] */\n      0x00\n        /* \"contracts/ClassWork/SimpleBank.sol\":893:903  msg.sender */\n      caller\n        /* \"contracts/ClassWork/SimpleBank.sol\":884:904  balances[msg.sender] */\n      0xffffffffffffffffffffffffffffffffffffffff\n      and\n      0xffffffffffffffffffffffffffffffffffffffff\n      and\n      dup2\n      mstore\n      0x20\n      add\n      swap1\n      dup2\n      mstore\n      0x20\n      add\n      0x00\n      keccak256\n      0x00\n        /* \"contracts/ClassWork/SimpleBank.sol\":884:917  balances[msg.sender] += msg.value */\n      dup3\n      dup3\n      sload\n      tag_90\n      swap2\n      swap1\n      tag_78\n      jump\t// in\n    tag_90:\n      swap3\n      pop\n      pop\n      dup2\n      swap1\n      sstore\n      pop\n        /* \"contracts/ClassWork/SimpleBank.sol\":941:947  amount */\n      dup1\n        /* \"contracts/ClassWork/SimpleBank.sol\":921:926  Users */\n      0x01\n        /* \"contracts/ClassWork/SimpleBank.sol\":921:931  Users[uid] */\n      0x00\n        /* \"contracts/ClassWork/SimpleBank.sol\":927:930  uid */\n      dup5\n        /* \"contracts/ClassWork/SimpleBank.sol\":921:931  Users[uid] */\n      dup2\n      mstore\n      0x20\n      add\n      swap1\n      dup2\n      mstore\n      0x20\n      add\n      0x00\n      keccak256\n        /* \"contracts/ClassWork/SimpleBank.sol\":921:939  Users[uid].balance */\n      0x03\n      add\n      0x00\n        /* \"contracts/ClassWork/SimpleBank.sol\":921:947  Users[uid].balance+=amount */\n      dup3\n      dup3\n      sload\n      tag_91\n      swap2\n      swap1\n      tag_78\n      jump\t// in\n    tag_91:\n      swap3\n      pop\n      pop\n      dup2\n      swap1\n      sstore\n      pop\n        /* \"contracts/ClassWork/SimpleBank.sol\":705:952  function deposit(uint uid,uint amount) public payable{... */\n      pop\n      pop\n      jump\t// out\n        /* \"#utility.yul\":7:84   */\n    tag_92:\n        /* \"#utility.yul\":44:51   */\n      0x00\n        /* \"#utility.yul\":73:78   */\n      dup2\n        /* \"#utility.yul\":62:78   */\n      swap1\n      pop\n        /* \"#utility.yul\":7:84   */\n      swap2\n      swap1\n      pop\n      jump\t// out\n        /* \"#utility.yul\":90:208   */\n    tag_93:\n        /* \"#utility.yul\":177:201   */\n      tag_146\n        /* \"#utility.yul\":195:200   */\n      dup2\n        /* \"#utility.yul\":177:201   */\n      tag_92\n      jump\t// in\n    tag_146:\n        /* \"#utility.yul\":172:175   */\n      dup3\n        /* \"#utility.yul\":165:202   */\n      mstore\n        /* \"#utility.yul\":90:208   */\n      pop\n      pop\n      jump\t// out\n        /* \"#utility.yul\":214:436   */\n    tag_14:\n        /* \"#utility.yul\":307:311   */\n      0x00\n        /* \"#utility.yul\":345:347   */\n      0x20\n        /* \"#utility.yul\":334:343   */\n      dup3\n        /* \"#utility.yul\":330:348   */\n      add\n        /* \"#utility.yul\":322:348   */\n      swap1\n      pop\n        /* \"#utility.yul\":358:429   */\n      tag_148\n        /* \"#utility.yul\":426:427   */\n      0x00\n        /* \"#utility.yul\":415:424   */\n      dup4\n        /* \"#utility.yul\":411:428   */\n      add\n        /* \"#utility.yul\":402:408   */\n      dup5\n        /* \"#utility.yul\":358:429   */\n      tag_93\n      jump\t// in\n    tag_148:\n        /* \"#utility.yul\":214:436   */\n      swap3\n      swap2\n      pop\n      pop\n      jump\t// out\n        /* \"#utility.yul\":442:517   */\n    tag_94:\n        /* \"#utility.yul\":475:481   */\n      0x00\n        /* \"#utility.yul\":508:510   */\n      0x40\n        /* \"#utility.yul\":502:511   */\n      mload\n        /* \"#utility.yul\":492:511   */\n      swap1\n      pop\n        /* \"#utility.yul\":442:517   */\n      swap1\n      jump\t// out\n        /* \"#utility.yul\":523:640   */\n    tag_95:\n        /* \"#utility.yul\":632:633   */\n      0x00\n        /* \"#utility.yul\":629:630   */\n      dup1\n        /* \"#utility.yul\":622:634   */\n      revert\n        /* \"#utility.yul\":646:763   */\n    tag_96:\n        /* \"#utility.yul\":755:756   */\n      0x00\n        /* \"#utility.yul\":752:753   */\n      dup1\n        /* \"#utility.yul\":745:757   */\n      revert\n        /* \"#utility.yul\":769:891   */\n    tag_97:\n        /* \"#utility.yul\":842:866   */\n      tag_153\n        /* \"#utility.yul\":860:865   */\n      dup2\n        /* \"#utility.yul\":842:866   */\n      tag_92\n      jump\t// in\n    tag_153:\n        /* \"#utility.yul\":835:840   */\n      dup2\n        /* \"#utility.yul\":832:867   */\n      eq\n        /* \"#utility.yul\":822:885   */\n      tag_154\n      jumpi\n        /* \"#utility.yul\":881:882   */\n      0x00\n        /* \"#utility.yul\":878:879   */\n      dup1\n        /* \"#utility.yul\":871:883   */\n      revert\n        /* \"#utility.yul\":822:885   */\n    tag_154:\n        /* \"#utility.yul\":769:891   */\n      pop\n      jump\t// out\n        /* \"#utility.yul\":897:1036   */\n    tag_98:\n        /* \"#utility.yul\":943:948   */\n      0x00\n        /* \"#utility.yul\":981:987   */\n      dup2\n        /* \"#utility.yul\":968:988   */\n      calldataload\n        /* \"#utility.yul\":959:988   */\n      swap1\n      pop\n        /* \"#utility.yul\":997:1030   */\n      tag_156\n        /* \"#utility.yul\":1024:1029   */\n      dup2\n        /* \"#utility.yul\":997:1030   */\n      tag_97\n      jump\t// in\n    tag_156:\n        /* \"#utility.yul\":897:1036   */\n      swap3\n      swap2\n      pop\n      pop\n      jump\t// out\n        /* \"#utility.yul\":1042:1371   */\n    tag_18:\n        /* \"#utility.yul\":1101:1107   */\n      0x00\n        /* \"#utility.yul\":1150:1152   */\n      0x20\n        /* \"#utility.yul\":1138:1147   */\n      dup3\n        /* \"#utility.yul\":1129:1136   */\n      dup5\n        /* \"#utility.yul\":1125:1148   */\n      sub\n        /* \"#utility.yul\":1121:1153   */\n      slt\n        /* \"#utility.yul\":1118:1237   */\n      iszero\n      tag_158\n      jumpi\n        /* \"#utility.yul\":1156:1235   */\n      tag_159\n      tag_95\n      jump\t// in\n    tag_159:\n        /* \"#utility.yul\":1118:1237   */\n    tag_158:\n        /* \"#utility.yul\":1276:1277   */\n      0x00\n        /* \"#utility.yul\":1301:1354   */\n      tag_160\n        /* \"#utility.yul\":1346:1353   */\n      dup5\n        /* \"#utility.yul\":1337:1343   */\n      dup3\n        /* \"#utility.yul\":1326:1335   */\n      dup6\n        /* \"#utility.yul\":1322:1344   */\n      add\n        /* \"#utility.yul\":1301:1354   */\n      tag_98\n      jump\t// in\n    tag_160:\n        /* \"#utility.yul\":1291:1354   */\n      swap2\n      pop\n        /* \"#utility.yul\":1247:1364   */\n      pop\n        /* \"#utility.yul\":1042:1371   */\n      swap3\n      swap2\n      pop\n      pop\n      jump\t// out\n        /* \"#utility.yul\":1377:1476   */\n    tag_99:\n        /* \"#utility.yul\":1429:1435   */\n      0x00\n        /* \"#utility.yul\":1463:1468   */\n      dup2\n        /* \"#utility.yul\":1457:1469   */\n      mload\n        /* \"#utility.yul\":1447:1469   */\n      swap1\n      pop\n        /* \"#utility.yul\":1377:1476   */\n      swap2\n      swap1\n      pop\n      jump\t// out\n        /* \"#utility.yul\":1482:1651   */\n    tag_100:\n        /* \"#utility.yul\":1566:1577   */\n      0x00\n        /* \"#utility.yul\":1600:1606   */\n      dup3\n        /* \"#utility.yul\":1595:1598   */\n      dup3\n        /* \"#utility.yul\":1588:1607   */\n      mstore\n        /* \"#utility.yul\":1640:1644   */\n      0x20\n        /* \"#utility.yul\":1635:1638   */\n      dup3\n        /* \"#utility.yul\":1631:1645   */\n      add\n        /* \"#utility.yul\":1616:1645   */\n      swap1\n      pop\n        /* \"#utility.yul\":1482:1651   */\n      swap3\n      swap2\n      pop\n      pop\n      jump\t// out\n        /* \"#utility.yul\":1657:1903   */\n    tag_101:\n        /* \"#utility.yul\":1738:1739   */\n      0x00\n        /* \"#utility.yul\":1748:1861   */\n    tag_164:\n        /* \"#utility.yul\":1762:1768   */\n      dup4\n        /* \"#utility.yul\":1759:1760   */\n      dup2\n        /* \"#utility.yul\":1756:1769   */\n      lt\n        /* \"#utility.yul\":1748:1861   */\n      iszero\n      tag_166\n      jumpi\n        /* \"#utility.yul\":1847:1848   */\n      dup1\n        /* \"#utility.yul\":1842:1845   */\n      dup3\n        /* \"#utility.yul\":1838:1849   */\n      add\n        /* \"#utility.yul\":1832:1850   */\n      mload\n        /* \"#utility.yul\":1828:1829   */\n      dup2\n        /* \"#utility.yul\":1823:1826   */\n      dup5\n        /* \"#utility.yul\":1819:1830   */\n      add\n        /* \"#utility.yul\":1812:1851   */\n      mstore\n        /* \"#utility.yul\":1784:1786   */\n      0x20\n        /* \"#utility.yul\":1781:1782   */\n      dup2\n        /* \"#utility.yul\":1777:1787   */\n      add\n        /* \"#utility.yul\":1772:1787   */\n      swap1\n      pop\n        /* \"#utility.yul\":1748:1861   */\n      jump(tag_164)\n    tag_166:\n        /* \"#utility.yul\":1895:1896   */\n      0x00\n        /* \"#utility.yul\":1886:1892   */\n      dup5\n        /* \"#utility.yul\":1881:1884   */\n      dup5\n        /* \"#utility.yul\":1877:1893   */\n      add\n        /* \"#utility.yul\":1870:1897   */\n      mstore\n        /* \"#utility.yul\":1719:1903   */\n      pop\n        /* \"#utility.yul\":1657:1903   */\n      pop\n      pop\n      pop\n      jump\t// out\n        /* \"#utility.yul\":1909:2011   */\n    tag_102:\n        /* \"#utility.yul\":1950:1956   */\n      0x00\n        /* \"#utility.yul\":2001:2003   */\n      0x1f\n        /* \"#utility.yul\":1997:2004   */\n      not\n        /* \"#utility.yul\":1992:1994   */\n      0x1f\n        /* \"#utility.yul\":1985:1990   */\n      dup4\n        /* \"#utility.yul\":1981:1995   */\n      add\n        /* \"#utility.yul\":1977:2005   */\n      and\n        /* \"#utility.yul\":1967:2005   */\n      swap1\n      pop\n        /* \"#utility.yul\":1909:2011   */\n      swap2\n      swap1\n      pop\n      jump\t// out\n        /* \"#utility.yul\":2017:2394   */\n    tag_103:\n        /* \"#utility.yul\":2105:2108   */\n      0x00\n        /* \"#utility.yul\":2133:2172   */\n      tag_169\n        /* \"#utility.yul\":2166:2171   */\n      dup3\n        /* \"#utility.yul\":2133:2172   */\n      tag_99\n      jump\t// in\n    tag_169:\n        /* \"#utility.yul\":2188:2259   */\n      tag_170\n        /* \"#utility.yul\":2252:2258   */\n      dup2\n        /* \"#utility.yul\":2247:2250   */\n      dup6\n        /* \"#utility.yul\":2188:2259   */\n      tag_100\n      jump\t// in\n    tag_170:\n        /* \"#utility.yul\":2181:2259   */\n      swap4\n      pop\n        /* \"#utility.yul\":2268:2333   */\n      tag_171\n        /* \"#utility.yul\":2326:2332   */\n      dup2\n        /* \"#utility.yul\":2321:2324   */\n      dup6\n        /* \"#utility.yul\":2314:2318   */\n      0x20\n        /* \"#utility.yul\":2307:2312   */\n      dup7\n        /* \"#utility.yul\":2303:2319   */\n      add\n        /* \"#utility.yul\":2268:2333   */\n      tag_101\n      jump\t// in\n    tag_171:\n        /* \"#utility.yul\":2358:2387   */\n      tag_172\n        /* \"#utility.yul\":2380:2386   */\n      dup2\n        /* \"#utility.yul\":2358:2387   */\n      tag_102\n      jump\t// in\n    tag_172:\n        /* \"#utility.yul\":2353:2356   */\n      dup5\n        /* \"#utility.yul\":2349:2388   */\n      add\n        /* \"#utility.yul\":2342:2388   */\n      swap2\n      pop\n        /* \"#utility.yul\":2109:2394   */\n      pop\n        /* \"#utility.yul\":2017:2394   */\n      swap3\n      swap2\n      pop\n      pop\n      jump\t// out\n        /* \"#utility.yul\":2400:3337   */\n    tag_21:\n        /* \"#utility.yul\":2665:2669   */\n      0x00\n        /* \"#utility.yul\":2703:2706   */\n      0xa0\n        /* \"#utility.yul\":2692:2701   */\n      dup3\n        /* \"#utility.yul\":2688:2707   */\n      add\n        /* \"#utility.yul\":2680:2707   */\n      swap1\n      pop\n        /* \"#utility.yul\":2753:2762   */\n      dup2\n        /* \"#utility.yul\":2747:2751   */\n      dup2\n        /* \"#utility.yul\":2743:2763   */\n      sub\n        /* \"#utility.yul\":2739:2740   */\n      0x00\n        /* \"#utility.yul\":2728:2737   */\n      dup4\n        /* \"#utility.yul\":2724:2741   */\n      add\n        /* \"#utility.yul\":2717:2764   */\n      mstore\n        /* \"#utility.yul\":2781:2859   */\n      tag_174\n        /* \"#utility.yul\":2854:2858   */\n      dup2\n        /* \"#utility.yul\":2845:2851   */\n      dup9\n        /* \"#utility.yul\":2781:2859   */\n      tag_103\n      jump\t// in\n    tag_174:\n        /* \"#utility.yul\":2773:2859   */\n      swap1\n      pop\n        /* \"#utility.yul\":2906:2915   */\n      dup2\n        /* \"#utility.yul\":2900:2904   */\n      dup2\n        /* \"#utility.yul\":2896:2916   */\n      sub\n        /* \"#utility.yul\":2891:2893   */\n      0x20\n        /* \"#utility.yul\":2880:2889   */\n      dup4\n        /* \"#utility.yul\":2876:2894   */\n      add\n        /* \"#utility.yul\":2869:2917   */\n      mstore\n        /* \"#utility.yul\":2934:3012   */\n      tag_175\n        /* \"#utility.yul\":3007:3011   */\n      dup2\n        /* \"#utility.yul\":2998:3004   */\n      dup8\n        /* \"#utility.yul\":2934:3012   */\n      tag_103\n      jump\t// in\n    tag_175:\n        /* \"#utility.yul\":2926:3012   */\n      swap1\n      pop\n        /* \"#utility.yul\":3059:3068   */\n      dup2\n        /* \"#utility.yul\":3053:3057   */\n      dup2\n        /* \"#utility.yul\":3049:3069   */\n      sub\n        /* \"#utility.yul\":3044:3046   */\n      0x40\n        /* \"#utility.yul\":3033:3042   */\n      dup4\n        /* \"#utility.yul\":3029:3047   */\n      add\n        /* \"#utility.yul\":3022:3070   */\n      mstore\n        /* \"#utility.yul\":3087:3165   */\n      tag_176\n        /* \"#utility.yul\":3160:3164   */\n      dup2\n        /* \"#utility.yul\":3151:3157   */\n      dup7\n        /* \"#utility.yul\":3087:3165   */\n      tag_103\n      jump\t// in\n    tag_176:\n        /* \"#utility.yul\":3079:3165   */\n      swap1\n      pop\n        /* \"#utility.yul\":3175:3247   */\n      tag_177\n        /* \"#utility.yul\":3243:3245   */\n      0x60\n        /* \"#utility.yul\":3232:3241   */\n      dup4\n        /* \"#utility.yul\":3228:3246   */\n      add\n        /* \"#utility.yul\":3219:3225   */\n      dup6\n        /* \"#utility.yul\":3175:3247   */\n      tag_93\n      jump\t// in\n    tag_177:\n        /* \"#utility.yul\":3257:3330   */\n      tag_178\n        /* \"#utility.yul\":3325:3328   */\n      0x80\n        /* \"#utility.yul\":3314:3323   */\n      dup4\n        /* \"#utility.yul\":3310:3329   */\n      add\n        /* \"#utility.yul\":3301:3307   */\n      dup5\n        /* \"#utility.yul\":3257:3330   */\n      tag_93\n      jump\t// in\n    tag_178:\n        /* \"#utility.yul\":2400:3337   */\n      swap7\n      swap6\n      pop\n      pop\n      pop\n      pop\n      pop\n      pop\n      jump\t// out\n        /* \"#utility.yul\":3343:3469   */\n    tag_104:\n        /* \"#utility.yul\":3380:3387   */\n      0x00\n        /* \"#utility.yul\":3420:3462   */\n      0xffffffffffffffffffffffffffffffffffffffff\n        /* \"#utility.yul\":3413:3418   */\n      dup3\n        /* \"#utility.yul\":3409:3463   */\n      and\n        /* \"#utility.yul\":3398:3463   */\n      swap1\n      pop\n        /* \"#utility.yul\":3343:3469   */\n      swap2\n      swap1\n      pop\n      jump\t// out\n        /* \"#utility.yul\":3475:3571   */\n    tag_105:\n        /* \"#utility.yul\":3512:3519   */\n      0x00\n        /* \"#utility.yul\":3541:3565   */\n      tag_181\n        /* \"#utility.yul\":3559:3564   */\n      dup3\n        /* \"#utility.yul\":3541:3565   */\n      tag_104\n      jump\t// in\n    tag_181:\n        /* \"#utility.yul\":3530:3565   */\n      swap1\n      pop\n        /* \"#utility.yul\":3475:3571   */\n      swap2\n      swap1\n      pop\n      jump\t// out\n        /* \"#utility.yul\":3577:3699   */\n    tag_106:\n        /* \"#utility.yul\":3650:3674   */\n      tag_183\n        /* \"#utility.yul\":3668:3673   */\n      dup2\n        /* \"#utility.yul\":3650:3674   */\n      tag_105\n      jump\t// in\n    tag_183:\n        /* \"#utility.yul\":3643:3648   */\n      dup2\n        /* \"#utility.yul\":3640:3675   */\n      eq\n        /* \"#utility.yul\":3630:3693   */\n      tag_184\n      jumpi\n        /* \"#utility.yul\":3689:3690   */\n      0x00\n        /* \"#utility.yul\":3686:3687   */\n      dup1\n        /* \"#utility.yul\":3679:3691   */\n      revert\n        /* \"#utility.yul\":3630:3693   */\n    tag_184:\n        /* \"#utility.yul\":3577:3699   */\n      pop\n      jump\t// out\n        /* \"#utility.yul\":3705:3844   */\n    tag_107:\n        /* \"#utility.yul\":3751:3756   */\n      0x00\n        /* \"#utility.yul\":3789:3795   */\n      dup2\n        /* \"#utility.yul\":3776:3796   */\n      calldataload\n        /* \"#utility.yul\":3767:3796   */\n      swap1\n      pop\n        /* \"#utility.yul\":3805:3838   */\n      tag_186\n        /* \"#utility.yul\":3832:3837   */\n      dup2\n        /* \"#utility.yul\":3805:3838   */\n      tag_106\n      jump\t// in\n    tag_186:\n        /* \"#utility.yul\":3705:3844   */\n      swap3\n      swap2\n      pop\n      pop\n      jump\t// out\n        /* \"#utility.yul\":3850:4179   */\n    tag_25:\n        /* \"#utility.yul\":3909:3915   */\n      0x00\n        /* \"#utility.yul\":3958:3960   */\n      0x20\n        /* \"#utility.yul\":3946:3955   */\n      dup3\n        /* \"#utility.yul\":3937:3944   */\n      dup5\n        /* \"#utility.yul\":3933:3956   */\n      sub\n        /* \"#utility.yul\":3929:3961   */\n      slt\n        /* \"#utility.yul\":3926:4045   */\n      iszero\n      tag_188\n      jumpi\n        /* \"#utility.yul\":3964:4043   */\n      tag_189\n      tag_95\n      jump\t// in\n    tag_189:\n        /* \"#utility.yul\":3926:4045   */\n    tag_188:\n        /* \"#utility.yul\":4084:4085   */\n      0x00\n        /* \"#utility.yul\":4109:4162   */\n      tag_190\n        /* \"#utility.yul\":4154:4161   */\n      dup5\n        /* \"#utility.yul\":4145:4151   */\n      dup3\n        /* \"#utility.yul\":4134:4143   */\n      dup6\n        /* \"#utility.yul\":4130:4152   */\n      add\n        /* \"#utility.yul\":4109:4162   */\n      tag_107\n      jump\t// in\n    tag_190:\n        /* \"#utility.yul\":4099:4162   */\n      swap2\n      pop\n        /* \"#utility.yul\":4055:4172   */\n      pop\n        /* \"#utility.yul\":3850:4179   */\n      swap3\n      swap2\n      pop\n      pop\n      jump\t// out\n        /* \"#utility.yul\":4185:4659   */\n    tag_31:\n        /* \"#utility.yul\":4253:4259   */\n      0x00\n        /* \"#utility.yul\":4261:4267   */\n      dup1\n        /* \"#utility.yul\":4310:4312   */\n      0x40\n        /* \"#utility.yul\":4298:4307   */\n      dup4\n        /* \"#utility.yul\":4289:4296   */\n      dup6\n        /* \"#utility.yul\":4285:4308   */\n      sub\n        /* \"#utility.yul\":4281:4313   */\n      slt\n        /* \"#utility.yul\":4278:4397   */\n      iszero\n      tag_192\n      jumpi\n        /* \"#utility.yul\":4316:4395   */\n      tag_193\n      tag_95\n      jump\t// in\n    tag_193:\n        /* \"#utility.yul\":4278:4397   */\n    tag_192:\n        /* \"#utility.yul\":4436:4437   */\n      0x00\n        /* \"#utility.yul\":4461:4514   */\n      tag_194\n        /* \"#utility.yul\":4506:4513   */\n      dup6\n        /* \"#utility.yul\":4497:4503   */\n      dup3\n        /* \"#utility.yul\":4486:4495   */\n      dup7\n        /* \"#utility.yul\":4482:4504   */\n      add\n        /* \"#utility.yul\":4461:4514   */\n      tag_98\n      jump\t// in\n    tag_194:\n        /* \"#utility.yul\":4451:4514   */\n      swap3\n      pop\n        /* \"#utility.yul\":4407:4524   */\n      pop\n        /* \"#utility.yul\":4563:4565   */\n      0x20\n        /* \"#utility.yul\":4589:4642   */\n      tag_195\n        /* \"#utility.yul\":4634:4641   */\n      dup6\n        /* \"#utility.yul\":4625:4631   */\n      dup3\n        /* \"#utility.yul\":4614:4623   */\n      dup7\n        /* \"#utility.yul\":4610:4632   */\n      add\n        /* \"#utility.yul\":4589:4642   */\n      tag_98\n      jump\t// in\n    tag_195:\n        /* \"#utility.yul\":4579:4642   */\n      swap2\n      pop\n        /* \"#utility.yul\":4534:4652   */\n      pop\n        /* \"#utility.yul\":4185:4659   */\n      swap3\n      pop\n      swap3\n      swap1\n      pop\n      jump\t// out\n        /* \"#utility.yul\":4665:4783   */\n    tag_108:\n        /* \"#utility.yul\":4752:4776   */\n      tag_197\n        /* \"#utility.yul\":4770:4775   */\n      dup2\n        /* \"#utility.yul\":4752:4776   */\n      tag_105\n      jump\t// in\n    tag_197:\n        /* \"#utility.yul\":4747:4750   */\n      dup3\n        /* \"#utility.yul\":4740:4777   */\n      mstore\n        /* \"#utility.yul\":4665:4783   */\n      pop\n      pop\n      jump\t// out\n        /* \"#utility.yul\":4789:5011   */\n    tag_37:\n        /* \"#utility.yul\":4882:4886   */\n      0x00\n        /* \"#utility.yul\":4920:4922   */\n      0x20\n        /* \"#utility.yul\":4909:4918   */\n      dup3\n        /* \"#utility.yul\":4905:4923   */\n      add\n        /* \"#utility.yul\":4897:4923   */\n      swap1\n      pop\n        /* \"#utility.yul\":4933:5004   */\n      tag_199\n        /* \"#utility.yul\":5001:5002   */\n      0x00\n        /* \"#utility.yul\":4990:4999   */\n      dup4\n        /* \"#utility.yul\":4986:5003   */\n      add\n        /* \"#utility.yul\":4977:4983   */\n      dup5\n        /* \"#utility.yul\":4933:5004   */\n      tag_108\n      jump\t// in\n    tag_199:\n        /* \"#utility.yul\":4789:5011   */\n      swap3\n      swap2\n      pop\n      pop\n      jump\t// out\n        /* \"#utility.yul\":5017:5134   */\n    tag_109:\n        /* \"#utility.yul\":5126:5127   */\n      0x00\n        /* \"#utility.yul\":5123:5124   */\n      dup1\n        /* \"#utility.yul\":5116:5128   */\n      revert\n        /* \"#utility.yul\":5140:5257   */\n    tag_110:\n        /* \"#utility.yul\":5249:5250   */\n      0x00\n        /* \"#utility.yul\":5246:5247   */\n      dup1\n        /* \"#utility.yul\":5239:5251   */\n      revert\n        /* \"#utility.yul\":5263:5443   */\n    tag_111:\n        /* \"#utility.yul\":5311:5388   */\n      0x4e487b7100000000000000000000000000000000000000000000000000000000\n        /* \"#utility.yul\":5308:5309   */\n      0x00\n        /* \"#utility.yul\":5301:5389   */\n      mstore\n        /* \"#utility.yul\":5408:5412   */\n      0x41\n        /* \"#utility.yul\":5405:5406   */\n      0x04\n        /* \"#utility.yul\":5398:5413   */\n      mstore\n        /* \"#utility.yul\":5432:5436   */\n      0x24\n        /* \"#utility.yul\":5429:5430   */\n      0x00\n        /* \"#utility.yul\":5422:5437   */\n      revert\n        /* \"#utility.yul\":5449:5730   */\n    tag_112:\n        /* \"#utility.yul\":5532:5559   */\n      tag_204\n        /* \"#utility.yul\":5554:5558   */\n      dup3\n        /* \"#utility.yul\":5532:5559   */\n      tag_102\n      jump\t// in\n    tag_204:\n        /* \"#utility.yul\":5524:5530   */\n      dup2\n        /* \"#utility.yul\":5520:5560   */\n      add\n        /* \"#utility.yul\":5662:5668   */\n      dup2\n        /* \"#utility.yul\":5650:5660   */\n      dup2\n        /* \"#utility.yul\":5647:5669   */\n      lt\n        /* \"#utility.yul\":5626:5644   */\n      0xffffffffffffffff\n        /* \"#utility.yul\":5614:5624   */\n      dup3\n        /* \"#utility.yul\":5611:5645   */\n      gt\n        /* \"#utility.yul\":5608:5670   */\n      or\n        /* \"#utility.yul\":5605:5693   */\n      iszero\n      tag_205\n      jumpi\n        /* \"#utility.yul\":5673:5691   */\n      tag_206\n      tag_111\n      jump\t// in\n    tag_206:\n        /* \"#utility.yul\":5605:5693   */\n    tag_205:\n        /* \"#utility.yul\":5713:5723   */\n      dup1\n        /* \"#utility.yul\":5709:5711   */\n      0x40\n        /* \"#utility.yul\":5702:5724   */\n      mstore\n        /* \"#utility.yul\":5492:5730   */\n      pop\n        /* \"#utility.yul\":5449:5730   */\n      pop\n      pop\n      jump\t// out\n        /* \"#utility.yul\":5736:5865   */\n    tag_113:\n        /* \"#utility.yul\":5770:5776   */\n      0x00\n        /* \"#utility.yul\":5797:5817   */\n      tag_208\n      tag_94\n      jump\t// in\n    tag_208:\n        /* \"#utility.yul\":5787:5817   */\n      swap1\n      pop\n        /* \"#utility.yul\":5826:5859   */\n      tag_209\n        /* \"#utility.yul\":5854:5858   */\n      dup3\n        /* \"#utility.yul\":5846:5852   */\n      dup3\n        /* \"#utility.yul\":5826:5859   */\n      tag_112\n      jump\t// in\n    tag_209:\n        /* \"#utility.yul\":5736:5865   */\n      swap2\n      swap1\n      pop\n      jump\t// out\n        /* \"#utility.yul\":5871:6179   */\n    tag_114:\n        /* \"#utility.yul\":5933:5937   */\n      0x00\n        /* \"#utility.yul\":6023:6041   */\n      0xffffffffffffffff\n        /* \"#utility.yul\":6015:6021   */\n      dup3\n        /* \"#utility.yul\":6012:6042   */\n      gt\n        /* \"#utility.yul\":6009:6065   */\n      iszero\n      tag_211\n      jumpi\n        /* \"#utility.yul\":6045:6063   */\n      tag_212\n      tag_111\n      jump\t// in\n    tag_212:\n        /* \"#utility.yul\":6009:6065   */\n    tag_211:\n        /* \"#utility.yul\":6083:6112   */\n      tag_213\n        /* \"#utility.yul\":6105:6111   */\n      dup3\n        /* \"#utility.yul\":6083:6112   */\n      tag_102\n      jump\t// in\n    tag_213:\n        /* \"#utility.yul\":6075:6112   */\n      swap1\n      pop\n        /* \"#utility.yul\":6167:6171   */\n      0x20\n        /* \"#utility.yul\":6161:6165   */\n      dup2\n        /* \"#utility.yul\":6157:6172   */\n      add\n        /* \"#utility.yul\":6149:6172   */\n      swap1\n      pop\n        /* \"#utility.yul\":5871:6179   */\n      swap2\n      swap1\n      pop\n      jump\t// out\n        /* \"#utility.yul\":6185:6331   */\n    tag_115:\n        /* \"#utility.yul\":6282:6288   */\n      dup3\n        /* \"#utility.yul\":6277:6280   */\n      dup2\n        /* \"#utility.yul\":6272:6275   */\n      dup4\n        /* \"#utility.yul\":6259:6289   */\n      calldatacopy\n        /* \"#utility.yul\":6323:6324   */\n      0x00\n        /* \"#utility.yul\":6314:6320   */\n      dup4\n        /* \"#utility.yul\":6309:6312   */\n      dup4\n        /* \"#utility.yul\":6305:6321   */\n      add\n        /* \"#utility.yul\":6298:6325   */\n      mstore\n        /* \"#utility.yul\":6185:6331   */\n      pop\n      pop\n      pop\n      jump\t// out\n        /* \"#utility.yul\":6337:6762   */\n    tag_116:\n        /* \"#utility.yul\":6415:6420   */\n      0x00\n        /* \"#utility.yul\":6440:6506   */\n      tag_216\n        /* \"#utility.yul\":6456:6505   */\n      tag_217\n        /* \"#utility.yul\":6498:6504   */\n      dup5\n        /* \"#utility.yul\":6456:6505   */\n      tag_114\n      jump\t// in\n    tag_217:\n        /* \"#utility.yul\":6440:6506   */\n      tag_113\n      jump\t// in\n    tag_216:\n        /* \"#utility.yul\":6431:6506   */\n      swap1\n      pop\n        /* \"#utility.yul\":6529:6535   */\n      dup3\n        /* \"#utility.yul\":6522:6527   */\n      dup2\n        /* \"#utility.yul\":6515:6536   */\n      mstore\n        /* \"#utility.yul\":6567:6571   */\n      0x20\n        /* \"#utility.yul\":6560:6565   */\n      dup2\n        /* \"#utility.yul\":6556:6572   */\n      add\n        /* \"#utility.yul\":6605:6608   */\n      dup5\n        /* \"#utility.yul\":6596:6602   */\n      dup5\n        /* \"#utility.yul\":6591:6594   */\n      dup5\n        /* \"#utility.yul\":6587:6603   */\n      add\n        /* \"#utility.yul\":6584:6609   */\n      gt\n        /* \"#utility.yul\":6581:6693   */\n      iszero\n      tag_218\n      jumpi\n        /* \"#utility.yul\":6612:6691   */\n      tag_219\n      tag_110\n      jump\t// in\n    tag_219:\n        /* \"#utility.yul\":6581:6693   */\n    tag_218:\n        /* \"#utility.yul\":6702:6756   */\n      tag_220\n        /* \"#utility.yul\":6749:6755   */\n      dup5\n        /* \"#utility.yul\":6744:6747   */\n      dup3\n        /* \"#utility.yul\":6739:6742   */\n      dup6\n        /* \"#utility.yul\":6702:6756   */\n      tag_115\n      jump\t// in\n    tag_220:\n        /* \"#utility.yul\":6421:6762   */\n      pop\n        /* \"#utility.yul\":6337:6762   */\n      swap4\n      swap3\n      pop\n      pop\n      pop\n      jump\t// out\n        /* \"#utility.yul\":6782:7122   */\n    tag_117:\n        /* \"#utility.yul\":6838:6843   */\n      0x00\n        /* \"#utility.yul\":6887:6890   */\n      dup3\n        /* \"#utility.yul\":6880:6884   */\n      0x1f\n        /* \"#utility.yul\":6872:6878   */\n      dup4\n        /* \"#utility.yul\":6868:6885   */\n      add\n        /* \"#utility.yul\":6864:6891   */\n      slt\n        /* \"#utility.yul\":6854:6976   */\n      tag_222\n      jumpi\n        /* \"#utility.yul\":6895:6974   */\n      tag_223\n      tag_109\n      jump\t// in\n    tag_223:\n        /* \"#utility.yul\":6854:6976   */\n    tag_222:\n        /* \"#utility.yul\":7012:7018   */\n      dup2\n        /* \"#utility.yul\":6999:7019   */\n      calldataload\n        /* \"#utility.yul\":7037:7116   */\n      tag_224\n        /* \"#utility.yul\":7112:7115   */\n      dup5\n        /* \"#utility.yul\":7104:7110   */\n      dup3\n        /* \"#utility.yul\":7097:7101   */\n      0x20\n        /* \"#utility.yul\":7089:7095   */\n      dup7\n        /* \"#utility.yul\":7085:7102   */\n      add\n        /* \"#utility.yul\":7037:7116   */\n      tag_116\n      jump\t// in\n    tag_224:\n        /* \"#utility.yul\":7028:7116   */\n      swap2\n      pop\n        /* \"#utility.yul\":6844:7122   */\n      pop\n        /* \"#utility.yul\":6782:7122   */\n      swap3\n      swap2\n      pop\n      pop\n      jump\t// out\n        /* \"#utility.yul\":7128:8287   */\n    tag_41:\n        /* \"#utility.yul\":7235:7241   */\n      0x00\n        /* \"#utility.yul\":7243:7249   */\n      dup1\n        /* \"#utility.yul\":7251:7257   */\n      0x00\n        /* \"#utility.yul\":7300:7302   */\n      0x60\n        /* \"#utility.yul\":7288:7297   */\n      dup5\n        /* \"#utility.yul\":7279:7286   */\n      dup7\n        /* \"#utility.yul\":7275:7298   */\n      sub\n        /* \"#utility.yul\":7271:7303   */\n      slt\n        /* \"#utility.yul\":7268:7387   */\n      iszero\n      tag_226\n      jumpi\n        /* \"#utility.yul\":7306:7385   */\n      tag_227\n      tag_95\n      jump\t// in\n    tag_227:\n        /* \"#utility.yul\":7268:7387   */\n    tag_226:\n        /* \"#utility.yul\":7454:7455   */\n      0x00\n        /* \"#utility.yul\":7443:7452   */\n      dup5\n        /* \"#utility.yul\":7439:7456   */\n      add\n        /* \"#utility.yul\":7426:7457   */\n      calldataload\n        /* \"#utility.yul\":7484:7502   */\n      0xffffffffffffffff\n        /* \"#utility.yul\":7476:7482   */\n      dup2\n        /* \"#utility.yul\":7473:7503   */\n      gt\n        /* \"#utility.yul\":7470:7587   */\n      iszero\n      tag_228\n      jumpi\n        /* \"#utility.yul\":7506:7585   */\n      tag_229\n      tag_96\n      jump\t// in\n    tag_229:\n        /* \"#utility.yul\":7470:7587   */\n    tag_228:\n        /* \"#utility.yul\":7611:7674   */\n      tag_230\n        /* \"#utility.yul\":7666:7673   */\n      dup7\n        /* \"#utility.yul\":7657:7663   */\n      dup3\n        /* \"#utility.yul\":7646:7655   */\n      dup8\n        /* \"#utility.yul\":7642:7664   */\n      add\n        /* \"#utility.yul\":7611:7674   */\n      tag_117\n      jump\t// in\n    tag_230:\n        /* \"#utility.yul\":7601:7674   */\n      swap4\n      pop\n        /* \"#utility.yul\":7397:7684   */\n      pop\n        /* \"#utility.yul\":7751:7753   */\n      0x20\n        /* \"#utility.yul\":7740:7749   */\n      dup5\n        /* \"#utility.yul\":7736:7754   */\n      add\n        /* \"#utility.yul\":7723:7755   */\n      calldataload\n        /* \"#utility.yul\":7782:7800   */\n      0xffffffffffffffff\n        /* \"#utility.yul\":7774:7780   */\n      dup2\n        /* \"#utility.yul\":7771:7801   */\n      gt\n        /* \"#utility.yul\":7768:7885   */\n      iszero\n      tag_231\n      jumpi\n        /* \"#utility.yul\":7804:7883   */\n      tag_232\n      tag_96\n      jump\t// in\n    tag_232:\n        /* \"#utility.yul\":7768:7885   */\n    tag_231:\n        /* \"#utility.yul\":7909:7972   */\n      tag_233\n        /* \"#utility.yul\":7964:7971   */\n      dup7\n        /* \"#utility.yul\":7955:7961   */\n      dup3\n        /* \"#utility.yul\":7944:7953   */\n      dup8\n        /* \"#utility.yul\":7940:7962   */\n      add\n        /* \"#utility.yul\":7909:7972   */\n      tag_117\n      jump\t// in\n    tag_233:\n        /* \"#utility.yul\":7899:7972   */\n      swap3\n      pop\n        /* \"#utility.yul\":7694:7982   */\n      pop\n        /* \"#utility.yul\":8049:8051   */\n      0x40\n        /* \"#utility.yul\":8038:8047   */\n      dup5\n        /* \"#utility.yul\":8034:8052   */\n      add\n        /* \"#utility.yul\":8021:8053   */\n      calldataload\n        /* \"#utility.yul\":8080:8098   */\n      0xffffffffffffffff\n        /* \"#utility.yul\":8072:8078   */\n      dup2\n        /* \"#utility.yul\":8069:8099   */\n      gt\n        /* \"#utility.yul\":8066:8183   */\n      iszero\n      tag_234\n      jumpi\n        /* \"#utility.yul\":8102:8181   */\n      tag_235\n      tag_96\n      jump\t// in\n    tag_235:\n        /* \"#utility.yul\":8066:8183   */\n    tag_234:\n        /* \"#utility.yul\":8207:8270   */\n      tag_236\n        /* \"#utility.yul\":8262:8269   */\n      dup7\n        /* \"#utility.yul\":8253:8259   */\n      dup3\n        /* \"#utility.yul\":8242:8251   */\n      dup8\n        /* \"#utility.yul\":8238:8260   */\n      add\n        /* \"#utility.yul\":8207:8270   */\n      tag_117\n      jump\t// in\n    tag_236:\n        /* \"#utility.yul\":8197:8270   */\n      swap2\n      pop\n        /* \"#utility.yul\":7992:8280   */\n      pop\n        /* \"#utility.yul\":7128:8287   */\n      swap3\n      pop\n      swap3\n      pop\n      swap3\n      jump\t// out\n        /* \"#utility.yul\":8293:8473   */\n    tag_118:\n        /* \"#utility.yul\":8341:8418   */\n      0x4e487b7100000000000000000000000000000000000000000000000000000000\n        /* \"#utility.yul\":8338:8339   */\n      0x00\n        /* \"#utility.yul\":8331:8419   */\n      mstore\n        /* \"#utility.yul\":8438:8442   */\n      0x22\n        /* \"#utility.yul\":8435:8436   */\n      0x04\n        /* \"#utility.yul\":8428:8443   */\n      mstore\n        /* \"#utility.yul\":8462:8466   */\n      0x24\n        /* \"#utility.yul\":8459:8460   */\n      0x00\n        /* \"#utility.yul\":8452:8467   */\n      revert\n        /* \"#utility.yul\":8479:8799   */\n    tag_49:\n        /* \"#utility.yul\":8523:8529   */\n      0x00\n        /* \"#utility.yul\":8560:8561   */\n      0x02\n        /* \"#utility.yul\":8554:8558   */\n      dup3\n        /* \"#utility.yul\":8550:8562   */\n      div\n        /* \"#utility.yul\":8540:8562   */\n      swap1\n      pop\n        /* \"#utility.yul\":8607:8608   */\n      0x01\n        /* \"#utility.yul\":8601:8605   */\n      dup3\n        /* \"#utility.yul\":8597:8609   */\n      and\n        /* \"#utility.yul\":8628:8646   */\n      dup1\n        /* \"#utility.yul\":8618:8699   */\n      tag_239\n      jumpi\n        /* \"#utility.yul\":8684:8688   */\n      0x7f\n        /* \"#utility.yul\":8676:8682   */\n      dup3\n        /* \"#utility.yul\":8672:8689   */\n      and\n        /* \"#utility.yul\":8662:8689   */\n      swap2\n      pop\n        /* \"#utility.yul\":8618:8699   */\n    tag_239:\n        /* \"#utility.yul\":8746:8748   */\n      0x20\n        /* \"#utility.yul\":8738:8744   */\n      dup3\n        /* \"#utility.yul\":8735:8749   */\n      lt\n        /* \"#utility.yul\":8715:8733   */\n      dup2\n        /* \"#utility.yul\":8712:8750   */\n      sub\n        /* \"#utility.yul\":8709:8793   */\n      tag_240\n      jumpi\n        /* \"#utility.yul\":8765:8783   */\n      tag_241\n      tag_118\n      jump\t// in\n    tag_241:\n        /* \"#utility.yul\":8709:8793   */\n    tag_240:\n        /* \"#utility.yul\":8530:8799   */\n      pop\n        /* \"#utility.yul\":8479:8799   */\n      swap2\n      swap1\n      pop\n      jump\t// out\n        /* \"#utility.yul\":8805:9034   */\n    tag_119:\n        /* \"#utility.yul\":8945:8979   */\n      0x5769746864726177616c20616d6f756e742073686f756c642062652067726561\n        /* \"#utility.yul\":8941:8942   */\n      0x00\n        /* \"#utility.yul\":8933:8939   */\n      dup3\n        /* \"#utility.yul\":8929:8943   */\n      add\n        /* \"#utility.yul\":8922:8980   */\n      mstore\n        /* \"#utility.yul\":9014:9026   */\n      0x746572207468616e203000000000000000000000000000000000000000000000\n        /* \"#utility.yul\":9009:9011   */\n      0x20\n        /* \"#utility.yul\":9001:9007   */\n      dup3\n        /* \"#utility.yul\":8997:9012   */\n      add\n        /* \"#utility.yul\":8990:9027   */\n      mstore\n        /* \"#utility.yul\":8805:9034   */\n      pop\n      jump\t// out\n        /* \"#utility.yul\":9040:9406   */\n    tag_120:\n        /* \"#utility.yul\":9182:9185   */\n      0x00\n        /* \"#utility.yul\":9203:9270   */\n      tag_244\n        /* \"#utility.yul\":9267:9269   */\n      0x2a\n        /* \"#utility.yul\":9262:9265   */\n      dup4\n        /* \"#utility.yul\":9203:9270   */\n      tag_100\n      jump\t// in\n    tag_244:\n        /* \"#utility.yul\":9196:9270   */\n      swap2\n      pop\n        /* \"#utility.yul\":9279:9372   */\n      tag_245\n        /* \"#utility.yul\":9368:9371   */\n      dup3\n        /* \"#utility.yul\":9279:9372   */\n      tag_119\n      jump\t// in\n    tag_245:\n        /* \"#utility.yul\":9397:9399   */\n      0x40\n        /* \"#utility.yul\":9392:9395   */\n      dup3\n        /* \"#utility.yul\":9388:9400   */\n      add\n        /* \"#utility.yul\":9381:9400   */\n      swap1\n      pop\n        /* \"#utility.yul\":9040:9406   */\n      swap2\n      swap1\n      pop\n      jump\t// out\n        /* \"#utility.yul\":9412:9831   */\n    tag_67:\n        /* \"#utility.yul\":9578:9582   */\n      0x00\n        /* \"#utility.yul\":9616:9618   */\n      0x20\n        /* \"#utility.yul\":9605:9614   */\n      dup3\n        /* \"#utility.yul\":9601:9619   */\n      add\n        /* \"#utility.yul\":9593:9619   */\n      swap1\n      pop\n        /* \"#utility.yul\":9665:9674   */\n      dup2\n        /* \"#utility.yul\":9659:9663   */\n      dup2\n        /* \"#utility.yul\":9655:9675   */\n      sub\n        /* \"#utility.yul\":9651:9652   */\n      0x00\n        /* \"#utility.yul\":9640:9649   */\n      dup4\n        /* \"#utility.yul\":9636:9653   */\n      add\n        /* \"#utility.yul\":9629:9676   */\n      mstore\n        /* \"#utility.yul\":9693:9824   */\n      tag_247\n        /* \"#utility.yul\":9819:9823   */\n      dup2\n        /* \"#utility.yul\":9693:9824   */\n      tag_120\n      jump\t// in\n    tag_247:\n        /* \"#utility.yul\":9685:9824   */\n      swap1\n      pop\n        /* \"#utility.yul\":9412:9831   */\n      swap2\n      swap1\n      pop\n      jump\t// out\n        /* \"#utility.yul\":9837:10007   */\n    tag_121:\n        /* \"#utility.yul\":9977:9999   */\n      0x496e73756666696369656e742042616c616e6365000000000000000000000000\n        /* \"#utility.yul\":9973:9974   */\n      0x00\n        /* \"#utility.yul\":9965:9971   */\n      dup3\n        /* \"#utility.yul\":9961:9975   */\n      add\n        /* \"#utility.yul\":9954:10000   */\n      mstore\n        /* \"#utility.yul\":9837:10007   */\n      pop\n      jump\t// out\n        /* \"#utility.yul\":10013:10379   */\n    tag_122:\n        /* \"#utility.yul\":10155:10158   */\n      0x00\n        /* \"#utility.yul\":10176:10243   */\n      tag_250\n        /* \"#utility.yul\":10240:10242   */\n      0x14\n        /* \"#utility.yul\":10235:10238   */\n      dup4\n        /* \"#utility.yul\":10176:10243   */\n      tag_100\n      jump\t// in\n    tag_250:\n        /* \"#utility.yul\":10169:10243   */\n      swap2\n      pop\n        /* \"#utility.yul\":10252:10345   */\n      tag_251\n        /* \"#utility.yul\":10341:10344   */\n      dup3\n        /* \"#utility.yul\":10252:10345   */\n      tag_121\n      jump\t// in\n    tag_251:\n        /* \"#utility.yul\":10370:10372   */\n      0x20\n        /* \"#utility.yul\":10365:10368   */\n      dup3\n        /* \"#utility.yul\":10361:10373   */\n      add\n        /* \"#utility.yul\":10354:10373   */\n      swap1\n      pop\n        /* \"#utility.yul\":10013:10379   */\n      swap2\n      swap1\n      pop\n      jump\t// out\n        /* \"#utility.yul\":10385:10804   */\n    tag_70:\n        /* \"#utility.yul\":10551:10555   */\n      0x00\n        /* \"#utility.yul\":10589:10591   */\n      0x20\n        /* \"#utility.yul\":10578:10587   */\n      dup3\n        /* \"#utility.yul\":10574:10592   */\n      add\n        /* \"#utility.yul\":10566:10592   */\n      swap1\n      pop\n        /* \"#utility.yul\":10638:10647   */\n      dup2\n        /* \"#utility.yul\":10632:10636   */\n      dup2\n        /* \"#utility.yul\":10628:10648   */\n      sub\n        /* \"#utility.yul\":10624:10625   */\n      0x00\n        /* \"#utility.yul\":10613:10622   */\n      dup4\n        /* \"#utility.yul\":10609:10626   */\n      add\n        /* \"#utility.yul\":10602:10649   */\n      mstore\n        /* \"#utility.yul\":10666:10797   */\n      tag_253\n        /* \"#utility.yul\":10792:10796   */\n      dup2\n        /* \"#utility.yul\":10666:10797   */\n      tag_122\n      jump\t// in\n    tag_253:\n        /* \"#utility.yul\":10658:10797   */\n      swap1\n      pop\n        /* \"#utility.yul\":10385:10804   */\n      swap2\n      swap1\n      pop\n      jump\t// out\n        /* \"#utility.yul\":10810:10990   */\n    tag_123:\n        /* \"#utility.yul\":10858:10935   */\n      0x4e487b7100000000000000000000000000000000000000000000000000000000\n        /* \"#utility.yul\":10855:10856   */\n      0x00\n        /* \"#utility.yul\":10848:10936   */\n      mstore\n        /* \"#utility.yul\":10955:10959   */\n      0x11\n        /* \"#utility.yul\":10952:10953   */\n      0x04\n        /* \"#utility.yul\":10945:10960   */\n      mstore\n        /* \"#utility.yul\":10979:10983   */\n      0x24\n        /* \"#utility.yul\":10976:10977   */\n      0x00\n        /* \"#utility.yul\":10969:10984   */\n      revert\n        /* \"#utility.yul\":10996:11190   */\n    tag_72:\n        /* \"#utility.yul\":11036:11040   */\n      0x00\n        /* \"#utility.yul\":11056:11076   */\n      tag_256\n        /* \"#utility.yul\":11074:11075   */\n      dup3\n        /* \"#utility.yul\":11056:11076   */\n      tag_92\n      jump\t// in\n    tag_256:\n        /* \"#utility.yul\":11051:11076   */\n      swap2\n      pop\n        /* \"#utility.yul\":11090:11110   */\n      tag_257\n        /* \"#utility.yul\":11108:11109   */\n      dup4\n        /* \"#utility.yul\":11090:11110   */\n      tag_92\n      jump\t// in\n    tag_257:\n        /* \"#utility.yul\":11085:11110   */\n      swap3\n      pop\n        /* \"#utility.yul\":11134:11135   */\n      dup3\n        /* \"#utility.yul\":11131:11132   */\n      dup3\n        /* \"#utility.yul\":11127:11136   */\n      sub\n        /* \"#utility.yul\":11119:11136   */\n      swap1\n      pop\n        /* \"#utility.yul\":11158:11159   */\n      dup2\n        /* \"#utility.yul\":11152:11156   */\n      dup2\n        /* \"#utility.yul\":11149:11160   */\n      gt\n        /* \"#utility.yul\":11146:11183   */\n      iszero\n      tag_258\n      jumpi\n        /* \"#utility.yul\":11163:11181   */\n      tag_259\n      tag_123\n      jump\t// in\n    tag_259:\n        /* \"#utility.yul\":11146:11183   */\n    tag_258:\n        /* \"#utility.yul\":10996:11190   */\n      swap3\n      swap2\n      pop\n      pop\n      jump\t// out\n        /* \"#utility.yul\":11196:11387   */\n    tag_78:\n        /* \"#utility.yul\":11236:11239   */\n      0x00\n        /* \"#utility.yul\":11255:11275   */\n      tag_261\n        /* \"#utility.yul\":11273:11274   */\n      dup3\n        /* \"#utility.yul\":11255:11275   */\n      tag_92\n      jump\t// in\n    tag_261:\n        /* \"#utility.yul\":11250:11275   */\n      swap2\n      pop\n        /* \"#utility.yul\":11289:11309   */\n      tag_262\n        /* \"#utility.yul\":11307:11308   */\n      dup4\n        /* \"#utility.yul\":11289:11309   */\n      tag_92\n      jump\t// in\n    tag_262:\n        /* \"#utility.yul\":11284:11309   */\n      swap3\n      pop\n        /* \"#utility.yul\":11332:11333   */\n      dup3\n        /* \"#utility.yul\":11329:11330   */\n      dup3\n        /* \"#utility.yul\":11325:11334   */\n      add\n        /* \"#utility.yul\":11318:11334   */\n      swap1\n      pop\n        /* \"#utility.yul\":11353:11356   */\n      dup1\n        /* \"#utility.yul\":11350:11351   */\n      dup3\n        /* \"#utility.yul\":11347:11357   */\n      gt\n        /* \"#utility.yul\":11344:11380   */\n      iszero\n      tag_263\n      jumpi\n        /* \"#utility.yul\":11360:11378   */\n      tag_264\n      tag_123\n      jump\t// in\n    tag_264:\n        /* \"#utility.yul\":11344:11380   */\n    tag_263:\n        /* \"#utility.yul\":11196:11387   */\n      swap3\n      swap2\n      pop\n      pop\n      jump\t// out\n        /* \"#utility.yul\":11393:11534   */\n    tag_124:\n        /* \"#utility.yul\":11442:11446   */\n      0x00\n        /* \"#utility.yul\":11465:11468   */\n      dup2\n        /* \"#utility.yul\":11457:11468   */\n      swap1\n      pop\n        /* \"#utility.yul\":11488:11491   */\n      dup2\n        /* \"#utility.yul\":11485:11486   */\n      0x00\n        /* \"#utility.yul\":11478:11492   */\n      mstore\n        /* \"#utility.yul\":11522:11526   */\n      0x20\n        /* \"#utility.yul\":11519:11520   */\n      0x00\n        /* \"#utility.yul\":11509:11527   */\n      keccak256\n        /* \"#utility.yul\":11501:11527   */\n      swap1\n      pop\n        /* \"#utility.yul\":11393:11534   */\n      swap2\n      swap1\n      pop\n      jump\t// out\n        /* \"#utility.yul\":11540:11633   */\n    tag_125:\n        /* \"#utility.yul\":11577:11583   */\n      0x00\n        /* \"#utility.yul\":11624:11626   */\n      0x20\n        /* \"#utility.yul\":11619:11621   */\n      0x1f\n        /* \"#utility.yul\":11612:11617   */\n      dup4\n        /* \"#utility.yul\":11608:11622   */\n      add\n        /* \"#utility.yul\":11604:11627   */\n      div\n        /* \"#utility.yul\":11594:11627   */\n      swap1\n      pop\n        /* \"#utility.yul\":11540:11633   */\n      swap2\n      swap1\n      pop\n      jump\t// out\n        /* \"#utility.yul\":11639:11746   */\n    tag_126:\n        /* \"#utility.yul\":11683:11691   */\n      0x00\n        /* \"#utility.yul\":11733:11738   */\n      dup3\n        /* \"#utility.yul\":11727:11731   */\n      dup3\n        /* \"#utility.yul\":11723:11739   */\n      shl\n        /* \"#utility.yul\":11702:11739   */\n      swap1\n      pop\n        /* \"#utility.yul\":11639:11746   */\n      swap3\n      swap2\n      pop\n      pop\n      jump\t// out\n        /* \"#utility.yul\":11752:12145   */\n    tag_127:\n        /* \"#utility.yul\":11821:11827   */\n      0x00\n        /* \"#utility.yul\":11871:11872   */\n      0x08\n        /* \"#utility.yul\":11859:11869   */\n      dup4\n        /* \"#utility.yul\":11855:11873   */\n      mul\n        /* \"#utility.yul\":11894:11991   */\n      tag_269\n        /* \"#utility.yul\":11924:11990   */\n      0xffffffffffffffffffffffffffffffffffffffffffffffffffffffffffffffff\n        /* \"#utility.yul\":11913:11922   */\n      dup3\n        /* \"#utility.yul\":11894:11991   */\n      tag_126\n      jump\t// in\n    tag_269:\n        /* \"#utility.yul\":12012:12051   */\n      tag_270\n        /* \"#utility.yul\":12042:12050   */\n      dup7\n        /* \"#utility.yul\":12031:12040   */\n      dup4\n        /* \"#utility.yul\":12012:12051   */\n      tag_126\n      jump\t// in\n    tag_270:\n        /* \"#utility.yul\":12000:12051   */\n      swap6\n      pop\n        /* \"#utility.yul\":12084:12088   */\n      dup1\n        /* \"#utility.yul\":12080:12089   */\n      not\n        /* \"#utility.yul\":12073:12078   */\n      dup5\n        /* \"#utility.yul\":12069:12090   */\n      and\n        /* \"#utility.yul\":12060:12090   */\n      swap4\n      pop\n        /* \"#utility.yul\":12133:12137   */\n      dup1\n        /* \"#utility.yul\":12123:12131   */\n      dup7\n        /* \"#utility.yul\":12119:12138   */\n      and\n        /* \"#utility.yul\":12112:12117   */\n      dup5\n        /* \"#utility.yul\":12109:12139   */\n      or\n        /* \"#utility.yul\":12099:12139   */\n      swap3\n      pop\n        /* \"#utility.yul\":11828:12145   */\n      pop\n      pop\n        /* \"#utility.yul\":11752:12145   */\n      swap4\n      swap3\n      pop\n      pop\n      pop\n      jump\t// out\n        /* \"#utility.yul\":12151:12211   */\n    tag_128:\n        /* \"#utility.yul\":12179:12182   */\n      0x00\n        /* \"#utility.yul\":12200:12205   */\n      dup2\n        /* \"#utility.yul\":12193:12205   */\n      swap1\n      pop\n        /* \"#utility.yul\":12151:12211   */\n      swap2\n      swap1\n      pop\n      jump\t// out\n        /* \"#utility.yul\":12217:12359   */\n    tag_129:\n        /* \"#utility.yul\":12267:12276   */\n      0x00\n        /* \"#utility.yul\":12300:12353   */\n      tag_273\n        /* \"#utility.yul\":12318:12352   */\n      tag_274\n        /* \"#utility.yul\":12327:12351   */\n      tag_275\n        /* \"#utility.yul\":12345:12350   */\n      dup5\n        /* \"#utility.yul\":12327:12351   */\n      tag_92\n      jump\t// in\n    tag_275:\n        /* \"#utility.yul\":12318:12352   */\n      tag_128\n      jump\t// in\n    tag_274:\n        /* \"#utility.yul\":12300:12353   */\n      tag_92\n      jump\t// in\n    tag_273:\n        /* \"#utility.yul\":12287:12353   */\n      swap1\n      pop\n        /* \"#utility.yul\":12217:12359   */\n      swap2\n      swap1\n      pop\n      jump\t// out\n        /* \"#utility.yul\":12365:12440   */\n    tag_130:\n        /* \"#utility.yul\":12408:12411   */\n      0x00\n        /* \"#utility.yul\":12429:12434   */\n      dup2\n        /* \"#utility.yul\":12422:12434   */\n      swap1\n      pop\n        /* \"#utility.yul\":12365:12440   */\n      swap2\n      swap1\n      pop\n      jump\t// out\n        /* \"#utility.yul\":12446:12715   */\n    tag_131:\n        /* \"#utility.yul\":12556:12595   */\n      tag_278\n        /* \"#utility.yul\":12587:12594   */\n      dup4\n        /* \"#utility.yul\":12556:12595   */\n      tag_129\n      jump\t// in\n    tag_278:\n        /* \"#utility.yul\":12617:12708   */\n      tag_279\n        /* \"#utility.yul\":12666:12707   */\n      tag_280\n        /* \"#utility.yul\":12690:12706   */\n      dup3\n        /* \"#utility.yul\":12666:12707   */\n      tag_130\n      jump\t// in\n    tag_280:\n        /* \"#utility.yul\":12658:12664   */\n      dup5\n        /* \"#utility.yul\":12651:12655   */\n      dup5\n        /* \"#utility.yul\":12645:12656   */\n      sload\n        /* \"#utility.yul\":12617:12708   */\n      tag_127\n      jump\t// in\n    tag_279:\n        /* \"#utility.yul\":12611:12615   */\n      dup3\n        /* \"#utility.yul\":12604:12709   */\n      sstore\n        /* \"#utility.yul\":12522:12715   */\n      pop\n        /* \"#utility.yul\":12446:12715   */\n      pop\n      pop\n      pop\n      jump\t// out\n        /* \"#utility.yul\":12721:12794   */\n    tag_132:\n        /* \"#utility.yul\":12766:12769   */\n      0x00\n        /* \"#utility.yul\":12721:12794   */\n      swap1\n      jump\t// out\n        /* \"#utility.yul\":12800:12989   */\n    tag_133:\n        /* \"#utility.yul\":12877:12909   */\n      tag_283\n      tag_132\n      jump\t// in\n    tag_283:\n        /* \"#utility.yul\":12918:12983   */\n      tag_284\n        /* \"#utility.yul\":12976:12982   */\n      dup2\n        /* \"#utility.yul\":12968:12974   */\n      dup5\n        /* \"#utility.yul\":12962:12966   */\n      dup5\n        /* \"#utility.yul\":12918:12983   */\n      tag_131\n      jump\t// in\n    tag_284:\n        /* \"#utility.yul\":12853:12989   */\n      pop\n        /* \"#utility.yul\":12800:12989   */\n      pop\n      pop\n      jump\t// out\n        /* \"#utility.yul\":12995:13181   */\n    tag_134:\n        /* \"#utility.yul\":13055:13175   */\n    tag_286:\n        /* \"#utility.yul\":13072:13075   */\n      dup2\n        /* \"#utility.yul\":13065:13070   */\n      dup2\n        /* \"#utility.yul\":13062:13076   */\n      lt\n        /* \"#utility.yul\":13055:13175   */\n      iszero\n      tag_288\n      jumpi\n        /* \"#utility.yul\":13126:13165   */\n      tag_289\n        /* \"#utility.yul\":13163:13164   */\n      0x00\n        /* \"#utility.yul\":13156:13161   */\n      dup3\n        /* \"#utility.yul\":13126:13165   */\n      tag_133\n      jump\t// in\n    tag_289:\n        /* \"#utility.yul\":13099:13100   */\n      0x01\n        /* \"#utility.yul\":13092:13097   */\n      dup2\n        /* \"#utility.yul\":13088:13101   */\n      add\n        /* \"#utility.yul\":13079:13101   */\n      swap1\n      pop\n        /* \"#utility.yul\":13055:13175   */\n      jump(tag_286)\n    tag_288:\n        /* \"#utility.yul\":12995:13181   */\n      pop\n      pop\n      jump\t// out\n        /* \"#utility.yul\":13187:13730   */\n    tag_135:\n        /* \"#utility.yul\":13288:13290   */\n      0x1f\n        /* \"#utility.yul\":13283:13286   */\n      dup3\n        /* \"#utility.yul\":13280:13291   */\n      gt\n        /* \"#utility.yul\":13277:13723   */\n      iszero\n      tag_291\n      jumpi\n        /* \"#utility.yul\":13322:13360   */\n      tag_292\n        /* \"#utility.yul\":13354:13359   */\n      dup2\n        /* \"#utility.yul\":13322:13360   */\n      tag_124\n      jump\t// in\n    tag_292:\n        /* \"#utility.yul\":13406:13435   */\n      tag_293\n        /* \"#utility.yul\":13424:13434   */\n      dup5\n        /* \"#utility.yul\":13406:13435   */\n      tag_125\n      jump\t// in\n    tag_293:\n        /* \"#utility.yul\":13396:13404   */\n      dup2\n        /* \"#utility.yul\":13392:13436   */\n      add\n        /* \"#utility.yul\":13589:13591   */\n      0x20\n        /* \"#utility.yul\":13577:13587   */\n      dup6\n        /* \"#utility.yul\":13574:13592   */\n      lt\n        /* \"#utility.yul\":13571:13620   */\n      iszero\n      tag_294\n      jumpi\n        /* \"#utility.yul\":13610:13618   */\n      dup2\n        /* \"#utility.yul\":13595:13618   */\n      swap1\n      pop\n        /* \"#utility.yul\":13571:13620   */\n    tag_294:\n        /* \"#utility.yul\":13633:13713   */\n      tag_295\n        /* \"#utility.yul\":13689:13711   */\n      tag_296\n        /* \"#utility.yul\":13707:13710   */\n      dup6\n        /* \"#utility.yul\":13689:13711   */\n      tag_125\n      jump\t// in\n    tag_296:\n        /* \"#utility.yul\":13679:13687   */\n      dup4\n        /* \"#utility.yul\":13675:13712   */\n      add\n        /* \"#utility.yul\":13662:13673   */\n      dup3\n        /* \"#utility.yul\":13633:13713   */\n      tag_134\n      jump\t// in\n    tag_295:\n        /* \"#utility.yul\":13292:13723   */\n      pop\n      pop\n        /* \"#utility.yul\":13277:13723   */\n    tag_291:\n        /* \"#utility.yul\":13187:13730   */\n      pop\n      pop\n      pop\n      jump\t// out\n        /* \"#utility.yul\":13736:13853   */\n    tag_136:\n        /* \"#utility.yul\":13790:13798   */\n      0x00\n        /* \"#utility.yul\":13840:13845   */\n      dup3\n        /* \"#utility.yul\":13834:13838   */\n      dup3\n        /* \"#utility.yul\":13830:13846   */\n      shr\n        /* \"#utility.yul\":13809:13846   */\n      swap1\n      pop\n        /* \"#utility.yul\":13736:13853   */\n      swap3\n      swap2\n      pop\n      pop\n      jump\t// out\n        /* \"#utility.yul\":13859:14028   */\n    tag_137:\n        /* \"#utility.yul\":13903:13909   */\n      0x00\n        /* \"#utility.yul\":13936:13987   */\n      tag_299\n        /* \"#utility.yul\":13984:13985   */\n      0x00\n        /* \"#utility.yul\":13980:13986   */\n      not\n        /* \"#utility.yul\":13972:13977   */\n      dup5\n        /* \"#utility.yul\":13969:13970   */\n      0x08\n        /* \"#utility.yul\":13965:13978   */\n      mul\n        /* \"#utility.yul\":13936:13987   */\n      tag_136\n      jump\t// in\n    tag_299:\n        /* \"#utility.yul\":13932:13988   */\n      not\n        /* \"#utility.yul\":14017:14021   */\n      dup1\n        /* \"#utility.yul\":14011:14015   */\n      dup4\n        /* \"#utility.yul\":14007:14022   */\n      and\n        /* \"#utility.yul\":13997:14022   */\n      swap2\n      pop\n        /* \"#utility.yul\":13910:14028   */\n      pop\n        /* \"#utility.yul\":13859:14028   */\n      swap3\n      swap2\n      pop\n      pop\n      jump\t// out\n        /* \"#utility.yul\":14033:14328   */\n    tag_138:\n        /* \"#utility.yul\":14109:14113   */\n      0x00\n        /* \"#utility.yul\":14255:14284   */\n      tag_301\n        /* \"#utility.yul\":14280:14283   */\n      dup4\n        /* \"#utility.yul\":14274:14278   */\n      dup4\n        /* \"#utility.yul\":14255:14284   */\n      tag_137\n      jump\t// in\n    tag_301:\n        /* \"#utility.yul\":14247:14284   */\n      swap2\n      pop\n        /* \"#utility.yul\":14317:14320   */\n      dup3\n        /* \"#utility.yul\":14314:14315   */\n      0x02\n        /* \"#utility.yul\":14310:14321   */\n      mul\n        /* \"#utility.yul\":14304:14308   */\n      dup3\n        /* \"#utility.yul\":14301:14322   */\n      or\n        /* \"#utility.yul\":14293:14322   */\n      swap1\n      pop\n        /* \"#utility.yul\":14033:14328   */\n      swap3\n      swap2\n      pop\n      pop\n      jump\t// out\n        /* \"#utility.yul\":14333:15728   */\n    tag_80:\n        /* \"#utility.yul\":14450:14487   */\n      tag_303\n        /* \"#utility.yul\":14483:14486   */\n      dup3\n        /* \"#utility.yul\":14450:14487   */\n      tag_99\n      jump\t// in\n    tag_303:\n        /* \"#utility.yul\":14552:14570   */\n      0xffffffffffffffff\n        /* \"#utility.yul\":14544:14550   */\n      dup2\n        /* \"#utility.yul\":14541:14571   */\n      gt\n        /* \"#utility.yul\":14538:14594   */\n      iszero\n      tag_304\n      jumpi\n        /* \"#utility.yul\":14574:14592   */\n      tag_305\n      tag_111\n      jump\t// in\n    tag_305:\n        /* \"#utility.yul\":14538:14594   */\n    tag_304:\n        /* \"#utility.yul\":14618:14656   */\n      tag_306\n        /* \"#utility.yul\":14650:14654   */\n      dup3\n        /* \"#utility.yul\":14644:14655   */\n      sload\n        /* \"#utility.yul\":14618:14656   */\n      tag_49\n      jump\t// in\n    tag_306:\n        /* \"#utility.yul\":14703:14770   */\n      tag_307\n        /* \"#utility.yul\":14763:14769   */\n      dup3\n        /* \"#utility.yul\":14755:14761   */\n      dup3\n        /* \"#utility.yul\":14749:14753   */\n      dup6\n        /* \"#utility.yul\":14703:14770   */\n      tag_135\n      jump\t// in\n    tag_307:\n        /* \"#utility.yul\":14797:14798   */\n      0x00\n        /* \"#utility.yul\":14821:14825   */\n      0x20\n        /* \"#utility.yul\":14808:14825   */\n      swap1\n      pop\n        /* \"#utility.yul\":14853:14855   */\n      0x1f\n        /* \"#utility.yul\":14845:14851   */\n      dup4\n        /* \"#utility.yul\":14842:14856   */\n      gt\n        /* \"#utility.yul\":14870:14871   */\n      0x01\n        /* \"#utility.yul\":14865:15483   */\n      dup2\n      eq\n      tag_309\n      jumpi\n        /* \"#utility.yul\":15527:15528   */\n      0x00\n        /* \"#utility.yul\":15544:15550   */\n      dup5\n        /* \"#utility.yul\":15541:15618   */\n      iszero\n      tag_310\n      jumpi\n        /* \"#utility.yul\":15593:15602   */\n      dup3\n        /* \"#utility.yul\":15588:15591   */\n      dup8\n        /* \"#utility.yul\":15584:15603   */\n      add\n        /* \"#utility.yul\":15578:15604   */\n      mload\n        /* \"#utility.yul\":15569:15604   */\n      swap1\n      pop\n        /* \"#utility.yul\":15541:15618   */\n    tag_310:\n        /* \"#utility.yul\":15644:15711   */\n      tag_311\n        /* \"#utility.yul\":15704:15710   */\n      dup6\n        /* \"#utility.yul\":15697:15702   */\n      dup3\n        /* \"#utility.yul\":15644:15711   */\n      tag_138\n      jump\t// in\n    tag_311:\n        /* \"#utility.yul\":15638:15642   */\n      dup7\n        /* \"#utility.yul\":15631:15712   */\n      sstore\n        /* \"#utility.yul\":15500:15722   */\n      pop\n        /* \"#utility.yul\":14835:15722   */\n      jump(tag_308)\n        /* \"#utility.yul\":14865:15483   */\n    tag_309:\n        /* \"#utility.yul\":14917:14921   */\n      0x1f\n        /* \"#utility.yul\":14913:14922   */\n      not\n        /* \"#utility.yul\":14905:14911   */\n      dup5\n        /* \"#utility.yul\":14901:14923   */\n      and\n        /* \"#utility.yul\":14951:14988   */\n      tag_312\n        /* \"#utility.yul\":14983:14987   */\n      dup7\n        /* \"#utility.yul\":14951:14988   */\n      tag_124\n      jump\t// in\n    tag_312:\n        /* \"#utility.yul\":15010:15011   */\n      0x00\n        /* \"#utility.yul\":15024:15232   */\n    tag_313:\n        /* \"#utility.yul\":15038:15045   */\n      dup3\n        /* \"#utility.yul\":15035:15036   */\n      dup2\n        /* \"#utility.yul\":15032:15046   */\n      lt\n        /* \"#utility.yul\":15024:15232   */\n      iszero\n      tag_315\n      jumpi\n        /* \"#utility.yul\":15117:15126   */\n      dup5\n        /* \"#utility.yul\":15112:15115   */\n      dup10\n        /* \"#utility.yul\":15108:15127   */\n      add\n        /* \"#utility.yul\":15102:15128   */\n      mload\n        /* \"#utility.yul\":15094:15100   */\n      dup3\n        /* \"#utility.yul\":15087:15129   */\n      sstore\n        /* \"#utility.yul\":15168:15169   */\n      0x01\n        /* \"#utility.yul\":15160:15166   */\n      dup3\n        /* \"#utility.yul\":15156:15170   */\n      add\n        /* \"#utility.yul\":15146:15170   */\n      swap2\n      pop\n        /* \"#utility.yul\":15215:15217   */\n      0x20\n        /* \"#utility.yul\":15204:15213   */\n      dup6\n        /* \"#utility.yul\":15200:15218   */\n      add\n        /* \"#utility.yul\":15187:15218   */\n      swap5\n      pop\n        /* \"#utility.yul\":15061:15065   */\n      0x20\n        /* \"#utility.yul\":15058:15059   */\n      dup2\n        /* \"#utility.yul\":15054:15066   */\n      add\n        /* \"#utility.yul\":15049:15066   */\n      swap1\n      pop\n        /* \"#utility.yul\":15024:15232   */\n      jump(tag_313)\n    tag_315:\n        /* \"#utility.yul\":15260:15266   */\n      dup7\n        /* \"#utility.yul\":15251:15258   */\n      dup4\n        /* \"#utility.yul\":15248:15267   */\n      lt\n        /* \"#utility.yul\":15245:15424   */\n      iszero\n      tag_316\n      jumpi\n        /* \"#utility.yul\":15318:15327   */\n      dup5\n        /* \"#utility.yul\":15313:15316   */\n      dup10\n        /* \"#utility.yul\":15309:15328   */\n      add\n        /* \"#utility.yul\":15303:15329   */\n      mload\n        /* \"#utility.yul\":15361:15409   */\n      tag_317\n        /* \"#utility.yul\":15403:15407   */\n      0x1f\n        /* \"#utility.yul\":15395:15401   */\n      dup10\n        /* \"#utility.yul\":15391:15408   */\n      and\n        /* \"#utility.yul\":15380:15389   */\n      dup3\n        /* \"#utility.yul\":15361:15409   */\n      tag_137\n      jump\t// in\n    tag_317:\n        /* \"#utility.yul\":15353:15359   */\n      dup4\n        /* \"#utility.yul\":15346:15410   */\n      sstore\n        /* \"#utility.yul\":15268:15424   */\n      pop\n        /* \"#utility.yul\":15245:15424   */\n    tag_316:\n        /* \"#utility.yul\":15470:15471   */\n      0x01\n        /* \"#utility.yul\":15466:15467   */\n      0x02\n        /* \"#utility.yul\":15458:15464   */\n      dup9\n        /* \"#utility.yul\":15454:15468   */\n      mul\n        /* \"#utility.yul\":15450:15472   */\n      add\n        /* \"#utility.yul\":15444:15448   */\n      dup9\n        /* \"#utility.yul\":15437:15473   */\n      sstore\n        /* \"#utility.yul\":14872:15483   */\n      pop\n      pop\n      pop\n        /* \"#utility.yul\":14835:15722   */\n    tag_308:\n      pop\n        /* \"#utility.yul\":14425:15728   */\n      pop\n      pop\n      pop\n        /* \"#utility.yul\":14333:15728   */\n      pop\n      pop\n      jump\t// out\n        /* \"#utility.yul\":15734:15959   */\n    tag_139:\n        /* \"#utility.yul\":15874:15908   */\n      0x4465706f73697420616d6f756e742073686f756c642062652067656174657220\n        /* \"#utility.yul\":15870:15871   */\n      0x00\n        /* \"#utility.yul\":15862:15868   */\n      dup3\n        /* \"#utility.yul\":15858:15872   */\n      add\n        /* \"#utility.yul\":15851:15909   */\n      mstore\n        /* \"#utility.yul\":15943:15951   */\n      0x7468616e20300000000000000000000000000000000000000000000000000000\n        /* \"#utility.yul\":15938:15940   */\n      0x20\n        /* \"#utility.yul\":15930:15936   */\n      dup3\n        /* \"#utility.yul\":15926:15941   */\n      add\n        /* \"#utility.yul\":15919:15952   */\n      mstore\n        /* \"#utility.yul\":15734:15959   */\n      pop\n      jump\t// out\n        /* \"#utility.yul\":15965:16331   */\n    tag_140:\n        /* \"#utility.yul\":16107:16110   */\n      0x00\n        /* \"#utility.yul\":16128:16195   */\n      tag_320\n        /* \"#utility.yul\":16192:16194   */\n      0x26\n        /* \"#utility.yul\":16187:16190   */\n      dup4\n        /* \"#utility.yul\":16128:16195   */\n      tag_100\n      jump\t// in\n    tag_320:\n        /* \"#utility.yul\":16121:16195   */\n      swap2\n      pop\n        /* \"#utility.yul\":16204:16297   */\n      tag_321\n        /* \"#utility.yul\":16293:16296   */\n      dup3\n        /* \"#utility.yul\":16204:16297   */\n      tag_139\n      jump\t// in\n    tag_321:\n        /* \"#utility.yul\":16322:16324   */\n      0x40\n        /* \"#utility.yul\":16317:16320   */\n      dup3\n        /* \"#utility.yul\":16313:16325   */\n      add\n        /* \"#utility.yul\":16306:16325   */\n      swap1\n      pop\n        /* \"#utility.yul\":15965:16331   */\n      swap2\n      swap1\n      pop\n      jump\t// out\n        /* \"#utility.yul\":16337:16756   */\n    tag_86:\n        /* \"#utility.yul\":16503:16507   */\n      0x00\n        /* \"#utility.yul\":16541:16543   */\n      0x20\n        /* \"#utility.yul\":16530:16539   */\n      dup3\n        /* \"#utility.yul\":16526:16544   */\n      add\n        /* \"#utility.yul\":16518:16544   */\n      swap1\n      pop\n        /* \"#utility.yul\":16590:16599   */\n      dup2\n        /* \"#utility.yul\":16584:16588   */\n      dup2\n        /* \"#utility.yul\":16580:16600   */\n      sub\n        /* \"#utility.yul\":16576:16577   */\n      0x00\n        /* \"#utility.yul\":16565:16574   */\n      dup4\n        /* \"#utility.yul\":16561:16578   */\n      add\n        /* \"#utility.yul\":16554:16601   */\n      mstore\n        /* \"#utility.yul\":16618:16749   */\n      tag_323\n        /* \"#utility.yul\":16744:16748   */\n      dup2\n        /* \"#utility.yul\":16618:16749   */\n      tag_140\n      jump\t// in\n    tag_323:\n        /* \"#utility.yul\":16610:16749   */\n      swap1\n      pop\n        /* \"#utility.yul\":16337:16756   */\n      swap2\n      swap1\n      pop\n      jump\t// out\n        /* \"#utility.yul\":16762:16932   */\n    tag_141:\n        /* \"#utility.yul\":16902:16924   */\n      0x696e76616c6964205472616e73616e6374696f6e000000000000000000000000\n        /* \"#utility.yul\":16898:16899   */\n      0x00\n        /* \"#utility.yul\":16890:16896   */\n      dup3\n        /* \"#utility.yul\":16886:16900   */\n      add\n        /* \"#utility.yul\":16879:16925   */\n      mstore\n        /* \"#utility.yul\":16762:16932   */\n      pop\n      jump\t// out\n        /* \"#utility.yul\":16938:17304   */\n    tag_142:\n        /* \"#utility.yul\":17080:17083   */\n      0x00\n        /* \"#utility.yul\":17101:17168   */\n      tag_326\n        /* \"#utility.yul\":17165:17167   */\n      0x14\n        /* \"#utility.yul\":17160:17163   */\n      dup4\n        /* \"#utility.yul\":17101:17168   */\n      tag_100\n      jump\t// in\n    tag_326:\n        /* \"#utility.yul\":17094:17168   */\n      swap2\n      pop\n        /* \"#utility.yul\":17177:17270   */\n      tag_327\n        /* \"#utility.yul\":17266:17269   */\n      dup3\n        /* \"#utility.yul\":17177:17270   */\n      tag_141\n      jump\t// in\n    tag_327:\n        /* \"#utility.yul\":17295:17297   */\n      0x20\n        /* \"#utility.yul\":17290:17293   */\n      dup3\n        /* \"#utility.yul\":17286:17298   */\n      add\n        /* \"#utility.yul\":17279:17298   */\n      swap1\n      pop\n        /* \"#utility.yul\":16938:17304   */\n      swap2\n      swap1\n      pop\n      jump\t// out\n        /* \"#utility.yul\":17310:17729   */\n    tag_89:\n        /* \"#utility.yul\":17476:17480   */\n      0x00\n        /* \"#utility.yul\":17514:17516   */\n      0x20\n        /* \"#utility.yul\":17503:17512   */\n      dup3\n        /* \"#utility.yul\":17499:17517   */\n      add\n        /* \"#utility.yul\":17491:17517   */\n      swap1\n      pop\n        /* \"#utility.yul\":17563:17572   */\n      dup2\n        /* \"#utility.yul\":17557:17561   */\n      dup2\n        /* \"#utility.yul\":17553:17573   */\n      sub\n        /* \"#utility.yul\":17549:17550   */\n      0x00\n        /* \"#utility.yul\":17538:17547   */\n      dup4\n        /* \"#utility.yul\":17534:17551   */\n      add\n        /* \"#utility.yul\":17527:17574   */\n      mstore\n        /* \"#utility.yul\":17591:17722   */\n      tag_329\n        /* \"#utility.yul\":17717:17721   */\n      dup2\n        /* \"#utility.yul\":17591:17722   */\n      tag_142\n      jump\t// in\n    tag_329:\n        /* \"#utility.yul\":17583:17722   */\n      swap1\n      pop\n        /* \"#utility.yul\":17310:17729   */\n      swap2\n      swap1\n      pop\n      jump\t// out\n\n    auxdata: 0xa264697066735822122077e6ecc8b3c9179ba55dcb8de2cc5020942b5e2bbf6fd6c795cd4fd7e17d73e364736f6c63430008180033\n}\n",
				"bytecode": {
					"linkReferences": {},
					"object": "60806040526277b6f45f55348015610015575f80fd5b503360035f6101000a81548173ffffffffffffffffffffffffffffffffffffffff021916908373ffffffffffffffffffffffffffffffffffffffff16021790555061112c806100635f395ff3fe60806040526004361061006f575f3560e01c8063441a3e701161004d578063441a3e70146101195780638da5cb5b14610141578063bc53c0c41461016b578063e2bbb158146101a75761006f565b806312065fe0146100735780631e98fd1c1461009d57806327e235e3146100dd575b5f80fd5b34801561007e575f80fd5b506100876101c3565b6040516100949190610784565b60405180910390f35b3480156100a8575f80fd5b506100c360048036038101906100be91906107d8565b610207565b6040516100d495949392919061088d565b60405180910390f35b3480156100e8575f80fd5b5061010360048036038101906100fe919061094d565b6103cb565b6040516101109190610784565b60405180910390f35b348015610124575f80fd5b5061013f600480360381019061013a9190610978565b6103e0565b005b34801561014c575f80fd5b50610155610567565b60405161016291906109c5565b60405180910390f35b348015610176575f80fd5b50610191600480360381019061018c9190610b0a565b61058c565b60405161019e9190610784565b60405180910390f35b6101c160048036038101906101bc9190610978565b610667565b005b5f60025f3373ffffffffffffffffffffffffffffffffffffffff1673ffffffffffffffffffffffffffffffffffffffff1681526020019081526020015f2054905090565b6001602052805f5260405f205f91509050805f01805461022690610bdb565b80601f016020809104026020016040519081016040528092919081815260200182805461025290610bdb565b801561029d5780601f106102745761010080835404028352916020019161029d565b820191905f5260205f20905b81548152906001019060200180831161028057829003601f168201915b5050505050908060010180546102b290610bdb565b80601f01602080910402602001604051908101604052809291908181526020018280546102de90610bdb565b80156103295780601f1061030057610100808354040283529160200191610329565b820191905f5260205f20905b81548152906001019060200180831161030c57829003601f168201915b50505050509080600201805461033e90610bdb565b80601f016020809104026020016040519081016040528092919081815260200182805461036a90610bdb565b80156103b55780601f1061038c576101008083540402835291602001916103b5565b820191905f5260205f20905b81548152906001019060200180831161039857829003601f168201915b5050505050908060030154908060040154905085565b6002602052805f5260405f205f915090505481565b5f8111610422576040517f08c379a000000000000000000000000000000000000000000000000000000000815260040161041990610c7b565b60405180910390fd5b8060025f3373ffffffffffffffffffffffffffffffffffffffff1673ffffffffffffffffffffffffffffffffffffffff1681526020019081526020015f205410156104a2576040517f08c379a000000000000000000000000000000000000000000000000000000000815260040161049990610ce3565b60405180910390fd5b8060025f3373ffffffffffffffffffffffffffffffffffffffff1673ffffffffffffffffffffffffffffffffffffffff1681526020019081526020015f205f8282546104ee9190610d2e565b925050819055508060015f8481526020019081526020015f206003015f8282546105189190610d2e565b925050819055503373ffffffffffffffffffffffffffffffffffffffff166108fc8290811502906040515f60405180830381858888f19350505050158015610562573d5f803e3d5ffd5b505050565b60035f9054906101000a900473ffffffffffffffffffffffffffffffffffffffff1681565b5f805f6040518060a001604052808781526020018681526020018581526020018381526020015f815250905060015f808282546105c99190610d61565b925050819055508060015f805481526020019081526020015f205f820151815f0190816105f69190610f31565b50602082015181600101908161060c9190610f31565b5060408201518160020190816106229190610f31565b5060608201518160030155608082015181600401559050505f5460015f805481526020019081526020015f20600401819055505f805490508093505050509392505050565b5f34116106a9576040517f08c379a00000000000000000000000000000000000000000000000000000000081526004016106a090611070565b60405180910390fd5b8034146106eb576040517f08c379a00000000000000000000000000000000000000000000000000000000081526004016106e2906110d8565b60405180910390fd5b3460025f3373ffffffffffffffffffffffffffffffffffffffff1673ffffffffffffffffffffffffffffffffffffffff1681526020019081526020015f205f8282546107379190610d61565b925050819055508060015f8481526020019081526020015f206003015f8282546107619190610d61565b925050819055505050565b5f819050919050565b61077e8161076c565b82525050565b5f6020820190506107975f830184610775565b92915050565b5f604051905090565b5f80fd5b5f80fd5b6107b78161076c565b81146107c1575f80fd5b50565b5f813590506107d2816107ae565b92915050565b5f602082840312156107ed576107ec6107a6565b5b5f6107fa848285016107c4565b91505092915050565b5f81519050919050565b5f82825260208201905092915050565b5f5b8381101561083a57808201518184015260208101905061081f565b5f8484015250505050565b5f601f19601f8301169050919050565b5f61085f82610803565b610869818561080d565b935061087981856020860161081d565b61088281610845565b840191505092915050565b5f60a0820190508181035f8301526108a58188610855565b905081810360208301526108b98187610855565b905081810360408301526108cd8186610855565b90506108dc6060830185610775565b6108e96080830184610775565b9695505050505050565b5f73ffffffffffffffffffffffffffffffffffffffff82169050919050565b5f61091c826108f3565b9050919050565b61092c81610912565b8114610936575f80fd5b50565b5f8135905061094781610923565b92915050565b5f60208284031215610962576109616107a6565b5b5f61096f84828501610939565b91505092915050565b5f806040838503121561098e5761098d6107a6565b5b5f61099b858286016107c4565b92505060206109ac858286016107c4565b9150509250929050565b6109bf81610912565b82525050565b5f6020820190506109d85f8301846109b6565b92915050565b5f80fd5b5f80fd5b7f4e487b71000000000000000000000000000000000000000000000000000000005f52604160045260245ffd5b610a1c82610845565b810181811067ffffffffffffffff82111715610a3b57610a3a6109e6565b5b80604052505050565b5f610a4d61079d565b9050610a598282610a13565b919050565b5f67ffffffffffffffff821115610a7857610a776109e6565b5b610a8182610845565b9050602081019050919050565b828183375f83830152505050565b5f610aae610aa984610a5e565b610a44565b905082815260208101848484011115610aca57610ac96109e2565b5b610ad5848285610a8e565b509392505050565b5f82601f830112610af157610af06109de565b5b8135610b01848260208601610a9c565b91505092915050565b5f805f60608486031215610b2157610b206107a6565b5b5f84013567ffffffffffffffff811115610b3e57610b3d6107aa565b5b610b4a86828701610add565b935050602084013567ffffffffffffffff811115610b6b57610b6a6107aa565b5b610b7786828701610add565b925050604084013567ffffffffffffffff811115610b9857610b976107aa565b5b610ba486828701610add565b9150509250925092565b7f4e487b71000000000000000000000000000000000000000000000000000000005f52602260045260245ffd5b5f6002820490506001821680610bf257607f821691505b602082108103610c0557610c04610bae565b5b50919050565b7f5769746864726177616c20616d6f756e742073686f756c6420626520677265615f8201527f746572207468616e203000000000000000000000000000000000000000000000602082015250565b5f610c65602a8361080d565b9150610c7082610c0b565b604082019050919050565b5f6020820190508181035f830152610c9281610c59565b9050919050565b7f496e73756666696369656e742042616c616e63650000000000000000000000005f82015250565b5f610ccd60148361080d565b9150610cd882610c99565b602082019050919050565b5f6020820190508181035f830152610cfa81610cc1565b9050919050565b7f4e487b71000000000000000000000000000000000000000000000000000000005f52601160045260245ffd5b5f610d388261076c565b9150610d438361076c565b9250828203905081811115610d5b57610d5a610d01565b5b92915050565b5f610d6b8261076c565b9150610d768361076c565b9250828201905080821115610d8e57610d8d610d01565b5b92915050565b5f819050815f5260205f209050919050565b5f6020601f8301049050919050565b5f82821b905092915050565b5f60088302610df07fffffffffffffffffffffffffffffffffffffffffffffffffffffffffffffffff82610db5565b610dfa8683610db5565b95508019841693508086168417925050509392505050565b5f819050919050565b5f610e35610e30610e2b8461076c565b610e12565b61076c565b9050919050565b5f819050919050565b610e4e83610e1b565b610e62610e5a82610e3c565b848454610dc1565b825550505050565b5f90565b610e76610e6a565b610e81818484610e45565b505050565b5b81811015610ea457610e995f82610e6e565b600181019050610e87565b5050565b601f821115610ee957610eba81610d94565b610ec384610da6565b81016020851015610ed2578190505b610ee6610ede85610da6565b830182610e86565b50505b505050565b5f82821c905092915050565b5f610f095f1984600802610eee565b1980831691505092915050565b5f610f218383610efa565b9150826002028217905092915050565b610f3a82610803565b67ffffffffffffffff811115610f5357610f526109e6565b5b610f5d8254610bdb565b610f68828285610ea8565b5f60209050601f831160018114610f99575f8415610f87578287015190505b610f918582610f16565b865550610ff8565b601f198416610fa786610d94565b5f5b82811015610fce57848901518255600182019150602085019450602081019050610fa9565b86831015610feb5784890151610fe7601f891682610efa565b8355505b6001600288020188555050505b505050505050565b7f4465706f73697420616d6f756e742073686f756c6420626520676561746572205f8201527f7468616e20300000000000000000000000000000000000000000000000000000602082015250565b5f61105a60268361080d565b915061106582611000565b604082019050919050565b5f6020820190508181035f8301526110878161104e565b9050919050565b7f696e76616c6964205472616e73616e6374696f6e0000000000000000000000005f82015250565b5f6110c260148361080d565b91506110cd8261108e565b602082019050919050565b5f6020820190508181035f8301526110ef816110b6565b905091905056fea264697066735822122077e6ecc8b3c9179ba55dcb8de2cc5020942b5e2bbf6fd6c795cd4fd7e17d73e364736f6c63430008180033",
					"opcodes": "PUSH1 0x80 PUSH1 0x40 MSTORE PUSH3 0x77B6F4 PUSH0 SSTORE CALLVALUE DUP1 ISZERO PUSH2 0x15 JUMPI PUSH0 DUP1 REVERT JUMPDEST POP CALLER PUSH1 0x3 PUSH0 PUSH2 0x100 EXP DUP2 SLOAD DUP2 PUSH20 0xFFFFFFFFFFFFFFFFFFFFFFFFFFFFFFFFFFFFFFFF MUL NOT AND SWAP1 DUP4 PUSH20 0xFFFFFFFFFFFFFFFFFFFFFFFFFFFFFFFFFFFFFFFF AND MUL OR SWAP1 SSTORE POP PUSH2 0x112C DUP1 PUSH2 0x63 PUSH0 CODECOPY PUSH0 RETURN INVALID PUSH1 0x80 PUSH1 0x40 MSTORE PUSH1 0x4 CALLDATASIZE LT PUSH2 0x6F JUMPI PUSH0 CALLDATALOAD PUSH1 0xE0 SHR DUP1 PUSH4 0x441A3E70 GT PUSH2 0x4D JUMPI DUP1 PUSH4 0x441A3E70 EQ PUSH2 0x119 JUMPI DUP1 PUSH4 0x8DA5CB5B EQ PUSH2 0x141 JUMPI DUP1 PUSH4 0xBC53C0C4 EQ PUSH2 0x16B JUMPI DUP1 PUSH4 0xE2BBB158 EQ PUSH2 0x1A7 JUMPI PUSH2 0x6F JUMP JUMPDEST DUP1 PUSH4 0x12065FE0 EQ PUSH2 0x73 JUMPI DUP1 PUSH4 0x1E98FD1C EQ PUSH2 0x9D JUMPI DUP1 PUSH4 0x27E235E3 EQ PUSH2 0xDD JUMPI JUMPDEST PUSH0 DUP1 REVERT JUMPDEST CALLVALUE DUP1 ISZERO PUSH2 0x7E JUMPI PUSH0 DUP1 REVERT JUMPDEST POP PUSH2 0x87 PUSH2 0x1C3 JUMP JUMPDEST PUSH1 0x40 MLOAD PUSH2 0x94 SWAP2 SWAP1 PUSH2 0x784 JUMP JUMPDEST PUSH1 0x40 MLOAD DUP1 SWAP2 SUB SWAP1 RETURN JUMPDEST CALLVALUE DUP1 ISZERO PUSH2 0xA8 JUMPI PUSH0 DUP1 REVERT JUMPDEST POP PUSH2 0xC3 PUSH1 0x4 DUP1 CALLDATASIZE SUB DUP2 ADD SWAP1 PUSH2 0xBE SWAP2 SWAP1 PUSH2 0x7D8 JUMP JUMPDEST PUSH2 0x207 JUMP JUMPDEST PUSH1 0x40 MLOAD PUSH2 0xD4 SWAP6 SWAP5 SWAP4 SWAP3 SWAP2 SWAP1 PUSH2 0x88D JUMP JUMPDEST PUSH1 0x40 MLOAD DUP1 SWAP2 SUB SWAP1 RETURN JUMPDEST CALLVALUE DUP1 ISZERO PUSH2 0xE8 JUMPI PUSH0 DUP1 REVERT JUMPDEST POP PUSH2 0x103 PUSH1 0x4 DUP1 CALLDATASIZE SUB DUP2 ADD SWAP1 PUSH2 0xFE SWAP2 SWAP1 PUSH2 0x94D JUMP JUMPDEST PUSH2 0x3CB JUMP JUMPDEST PUSH1 0x40 MLOAD PUSH2 0x110 SWAP2 SWAP1 PUSH2 0x784 JUMP JUMPDEST PUSH1 0x40 MLOAD DUP1 SWAP2 SUB SWAP1 RETURN JUMPDEST CALLVALUE DUP1 ISZERO PUSH2 0x124 JUMPI PUSH0 DUP1 REVERT JUMPDEST POP PUSH2 0x13F PUSH1 0x4 DUP1 CALLDATASIZE SUB DUP2 ADD SWAP1 PUSH2 0x13A SWAP2 SWAP1 PUSH2 0x978 JUMP JUMPDEST PUSH2 0x3E0 JUMP JUMPDEST STOP JUMPDEST CALLVALUE DUP1 ISZERO PUSH2 0x14C JUMPI PUSH0 DUP1 REVERT JUMPDEST POP PUSH2 0x155 PUSH2 0x567 JUMP JUMPDEST PUSH1 0x40 MLOAD PUSH2 0x162 SWAP2 SWAP1 PUSH2 0x9C5 JUMP JUMPDEST PUSH1 0x40 MLOAD DUP1 SWAP2 SUB SWAP1 RETURN JUMPDEST CALLVALUE DUP1 ISZERO PUSH2 0x176 JUMPI PUSH0 DUP1 REVERT JUMPDEST POP PUSH2 0x191 PUSH1 0x4 DUP1 CALLDATASIZE SUB DUP2 ADD SWAP1 PUSH2 0x18C SWAP2 SWAP1 PUSH2 0xB0A JUMP JUMPDEST PUSH2 0x58C JUMP JUMPDEST PUSH1 0x40 MLOAD PUSH2 0x19E SWAP2 SWAP1 PUSH2 0x784 JUMP JUMPDEST PUSH1 0x40 MLOAD DUP1 SWAP2 SUB SWAP1 RETURN JUMPDEST PUSH2 0x1C1 PUSH1 0x4 DUP1 CALLDATASIZE SUB DUP2 ADD SWAP1 PUSH2 0x1BC SWAP2 SWAP1 PUSH2 0x978 JUMP JUMPDEST PUSH2 0x667 JUMP JUMPDEST STOP JUMPDEST PUSH0 PUSH1 0x2 PUSH0 CALLER PUSH20 0xFFFFFFFFFFFFFFFFFFFFFFFFFFFFFFFFFFFFFFFF AND PUSH20 0xFFFFFFFFFFFFFFFFFFFFFFFFFFFFFFFFFFFFFFFF AND DUP2 MSTORE PUSH1 0x20 ADD SWAP1 DUP2 MSTORE PUSH1 0x20 ADD PUSH0 KECCAK256 SLOAD SWAP1 POP SWAP1 JUMP JUMPDEST PUSH1 0x1 PUSH1 0x20 MSTORE DUP1 PUSH0 MSTORE PUSH1 0x40 PUSH0 KECCAK256 PUSH0 SWAP2 POP SWAP1 POP DUP1 PUSH0 ADD DUP1 SLOAD PUSH2 0x226 SWAP1 PUSH2 0xBDB JUMP JUMPDEST DUP1 PUSH1 0x1F ADD PUSH1 0x20 DUP1 SWAP2 DIV MUL PUSH1 0x20 ADD PUSH1 0x40 MLOAD SWAP1 DUP2 ADD PUSH1 0x40 MSTORE DUP1 SWAP3 SWAP2 SWAP1 DUP2 DUP2 MSTORE PUSH1 0x20 ADD DUP3 DUP1 SLOAD PUSH2 0x252 SWAP1 PUSH2 0xBDB JUMP JUMPDEST DUP1 ISZERO PUSH2 0x29D JUMPI DUP1 PUSH1 0x1F LT PUSH2 0x274 JUMPI PUSH2 0x100 DUP1 DUP4 SLOAD DIV MUL DUP4 MSTORE SWAP2 PUSH1 0x20 ADD SWAP2 PUSH2 0x29D JUMP JUMPDEST DUP3 ADD SWAP2 SWAP1 PUSH0 MSTORE PUSH1 0x20 PUSH0 KECCAK256 SWAP1 JUMPDEST DUP2 SLOAD DUP2 MSTORE SWAP1 PUSH1 0x1 ADD SWAP1 PUSH1 0x20 ADD DUP1 DUP4 GT PUSH2 0x280 JUMPI DUP3 SWAP1 SUB PUSH1 0x1F AND DUP3 ADD SWAP2 JUMPDEST POP POP POP POP POP SWAP1 DUP1 PUSH1 0x1 ADD DUP1 SLOAD PUSH2 0x2B2 SWAP1 PUSH2 0xBDB JUMP JUMPDEST DUP1 PUSH1 0x1F ADD PUSH1 0x20 DUP1 SWAP2 DIV MUL PUSH1 0x20 ADD PUSH1 0x40 MLOAD SWAP1 DUP2 ADD PUSH1 0x40 MSTORE DUP1 SWAP3 SWAP2 SWAP1 DUP2 DUP2 MSTORE PUSH1 0x20 ADD DUP3 DUP1 SLOAD PUSH2 0x2DE SWAP1 PUSH2 0xBDB JUMP JUMPDEST DUP1 ISZERO PUSH2 0x329 JUMPI DUP1 PUSH1 0x1F LT PUSH2 0x300 JUMPI PUSH2 0x100 DUP1 DUP4 SLOAD DIV MUL DUP4 MSTORE SWAP2 PUSH1 0x20 ADD SWAP2 PUSH2 0x329 JUMP JUMPDEST DUP3 ADD SWAP2 SWAP1 PUSH0 MSTORE PUSH1 0x20 PUSH0 KECCAK256 SWAP1 JUMPDEST DUP2 SLOAD DUP2 MSTORE SWAP1 PUSH1 0x1 ADD SWAP1 PUSH1 0x20 ADD DUP1 DUP4 GT PUSH2 0x30C JUMPI DUP3 SWAP1 SUB PUSH1 0x1F AND DUP3 ADD SWAP2 JUMPDEST POP POP POP POP POP SWAP1 DUP1 PUSH1 0x2 ADD DUP1 SLOAD PUSH2 0x33E SWAP1 PUSH2 0xBDB JUMP JUMPDEST DUP1 PUSH1 0x1F ADD PUSH1 0x20 DUP1 SWAP2 DIV MUL PUSH1 0x20 ADD PUSH1 0x40 MLOAD SWAP1 DUP2 ADD PUSH1 0x40 MSTORE DUP1 SWAP3 SWAP2 SWAP1 DUP2 DUP2 MSTORE PUSH1 0x20 ADD DUP3 DUP1 SLOAD PUSH2 0x36A SWAP1 PUSH2 0xBDB JUMP JUMPDEST DUP1 ISZERO PUSH2 0x3B5 JUMPI DUP1 PUSH1 0x1F LT PUSH2 0x38C JUMPI PUSH2 0x100 DUP1 DUP4 SLOAD DIV MUL DUP4 MSTORE SWAP2 PUSH1 0x20 ADD SWAP2 PUSH2 0x3B5 JUMP JUMPDEST DUP3 ADD SWAP2 SWAP1 PUSH0 MSTORE PUSH1 0x20 PUSH0 KECCAK256 SWAP1 JUMPDEST DUP2 SLOAD DUP2 MSTORE SWAP1 PUSH1 0x1 ADD SWAP1 PUSH1 0x20 ADD DUP1 DUP4 GT PUSH2 0x398 JUMPI DUP3 SWAP1 SUB PUSH1 0x1F AND DUP3 ADD SWAP2 JUMPDEST POP POP POP POP POP SWAP1 DUP1 PUSH1 0x3 ADD SLOAD SWAP1 DUP1 PUSH1 0x4 ADD SLOAD SWAP1 POP DUP6 JUMP JUMPDEST PUSH1 0x2 PUSH1 0x20 MSTORE DUP1 PUSH0 MSTORE PUSH1 0x40 PUSH0 KECCAK256 PUSH0 SWAP2 POP SWAP1 POP SLOAD DUP2 JUMP JUMPDEST PUSH0 DUP2 GT PUSH2 0x422 JUMPI PUSH1 0x40 MLOAD PUSH32 0x8C379A000000000000000000000000000000000000000000000000000000000 DUP2 MSTORE PUSH1 0x4 ADD PUSH2 0x419 SWAP1 PUSH2 0xC7B JUMP JUMPDEST PUSH1 0x40 MLOAD DUP1 SWAP2 SUB SWAP1 REVERT JUMPDEST DUP1 PUSH1 0x2 PUSH0 CALLER PUSH20 0xFFFFFFFFFFFFFFFFFFFFFFFFFFFFFFFFFFFFFFFF AND PUSH20 0xFFFFFFFFFFFFFFFFFFFFFFFFFFFFFFFFFFFFFFFF AND DUP2 MSTORE PUSH1 0x20 ADD SWAP1 DUP2 MSTORE PUSH1 0x20 ADD PUSH0 KECCAK256 SLOAD LT ISZERO PUSH2 0x4A2 JUMPI PUSH1 0x40 MLOAD PUSH32 0x8C379A000000000000000000000000000000000000000000000000000000000 DUP2 MSTORE PUSH1 0x4 ADD PUSH2 0x499 SWAP1 PUSH2 0xCE3 JUMP JUMPDEST PUSH1 0x40 MLOAD DUP1 SWAP2 SUB SWAP1 REVERT JUMPDEST DUP1 PUSH1 0x2 PUSH0 CALLER PUSH20 0xFFFFFFFFFFFFFFFFFFFFFFFFFFFFFFFFFFFFFFFF AND PUSH20 0xFFFFFFFFFFFFFFFFFFFFFFFFFFFFFFFFFFFFFFFF AND DUP2 MSTORE PUSH1 0x20 ADD SWAP1 DUP2 MSTORE PUSH1 0x20 ADD PUSH0 KECCAK256 PUSH0 DUP3 DUP3 SLOAD PUSH2 0x4EE SWAP2 SWAP1 PUSH2 0xD2E JUMP JUMPDEST SWAP3 POP POP DUP2 SWAP1 SSTORE POP DUP1 PUSH1 0x1 PUSH0 DUP5 DUP2 MSTORE PUSH1 0x20 ADD SWAP1 DUP2 MSTORE PUSH1 0x20 ADD PUSH0 KECCAK256 PUSH1 0x3 ADD PUSH0 DUP3 DUP3 SLOAD PUSH2 0x518 SWAP2 SWAP1 PUSH2 0xD2E JUMP JUMPDEST SWAP3 POP POP DUP2 SWAP1 SSTORE POP CALLER PUSH20 0xFFFFFFFFFFFFFFFFFFFFFFFFFFFFFFFFFFFFFFFF AND PUSH2 0x8FC DUP3 SWAP1 DUP2 ISZERO MUL SWAP1 PUSH1 0x40 MLOAD PUSH0 PUSH1 0x40 MLOAD DUP1 DUP4 SUB DUP2 DUP6 DUP9 DUP9 CALL SWAP4 POP POP POP POP ISZERO DUP1 ISZERO PUSH2 0x562 JUMPI RETURNDATASIZE PUSH0 DUP1 RETURNDATACOPY RETURNDATASIZE PUSH0 REVERT JUMPDEST POP POP POP JUMP JUMPDEST PUSH1 0x3 PUSH0 SWAP1 SLOAD SWAP1 PUSH2 0x100 EXP SWAP1 DIV PUSH20 0xFFFFFFFFFFFFFFFFFFFFFFFFFFFFFFFFFFFFFFFF AND DUP2 JUMP JUMPDEST PUSH0 DUP1 PUSH0 PUSH1 0x40 MLOAD DUP1 PUSH1 0xA0 ADD PUSH1 0x40 MSTORE DUP1 DUP8 DUP2 MSTORE PUSH1 0x20 ADD DUP7 DUP2 MSTORE PUSH1 0x20 ADD DUP6 DUP2 MSTORE PUSH1 0x20 ADD DUP4 DUP2 MSTORE PUSH1 0x20 ADD PUSH0 DUP2 MSTORE POP SWAP1 POP PUSH1 0x1 PUSH0 DUP1 DUP3 DUP3 SLOAD PUSH2 0x5C9 SWAP2 SWAP1 PUSH2 0xD61 JUMP JUMPDEST SWAP3 POP POP DUP2 SWAP1 SSTORE POP DUP1 PUSH1 0x1 PUSH0 DUP1 SLOAD DUP2 MSTORE PUSH1 0x20 ADD SWAP1 DUP2 MSTORE PUSH1 0x20 ADD PUSH0 KECCAK256 PUSH0 DUP3 ADD MLOAD DUP2 PUSH0 ADD SWAP1 DUP2 PUSH2 0x5F6 SWAP2 SWAP1 PUSH2 0xF31 JUMP JUMPDEST POP PUSH1 0x20 DUP3 ADD MLOAD DUP2 PUSH1 0x1 ADD SWAP1 DUP2 PUSH2 0x60C SWAP2 SWAP1 PUSH2 0xF31 JUMP JUMPDEST POP PUSH1 0x40 DUP3 ADD MLOAD DUP2 PUSH1 0x2 ADD SWAP1 DUP2 PUSH2 0x622 SWAP2 SWAP1 PUSH2 0xF31 JUMP JUMPDEST POP PUSH1 0x60 DUP3 ADD MLOAD DUP2 PUSH1 0x3 ADD SSTORE PUSH1 0x80 DUP3 ADD MLOAD DUP2 PUSH1 0x4 ADD SSTORE SWAP1 POP POP PUSH0 SLOAD PUSH1 0x1 PUSH0 DUP1 SLOAD DUP2 MSTORE PUSH1 0x20 ADD SWAP1 DUP2 MSTORE PUSH1 0x20 ADD PUSH0 KECCAK256 PUSH1 0x4 ADD DUP2 SWAP1 SSTORE POP PUSH0 DUP1 SLOAD SWAP1 POP DUP1 SWAP4 POP POP POP POP SWAP4 SWAP3 POP POP POP JUMP JUMPDEST PUSH0 CALLVALUE GT PUSH2 0x6A9 JUMPI PUSH1 0x40 MLOAD PUSH32 0x8C379A000000000000000000000000000000000000000000000000000000000 DUP2 MSTORE PUSH1 0x4 ADD PUSH2 0x6A0 SWAP1 PUSH2 0x1070 JUMP JUMPDEST PUSH1 0x40 MLOAD DUP1 SWAP2 SUB SWAP1 REVERT JUMPDEST DUP1 CALLVALUE EQ PUSH2 0x6EB JUMPI PUSH1 0x40 MLOAD PUSH32 0x8C379A000000000000000000000000000000000000000000000000000000000 DUP2 MSTORE PUSH1 0x4 ADD PUSH2 0x6E2 SWAP1 PUSH2 0x10D8 JUMP JUMPDEST PUSH1 0x40 MLOAD DUP1 SWAP2 SUB SWAP1 REVERT JUMPDEST CALLVALUE PUSH1 0x2 PUSH0 CALLER PUSH20 0xFFFFFFFFFFFFFFFFFFFFFFFFFFFFFFFFFFFFFFFF AND PUSH20 0xFFFFFFFFFFFFFFFFFFFFFFFFFFFFFFFFFFFFFFFF AND DUP2 MSTORE PUSH1 0x20 ADD SWAP1 DUP2 MSTORE PUSH1 0x20 ADD PUSH0 KECCAK256 PUSH0 DUP3 DUP3 SLOAD PUSH2 0x737 SWAP2 SWAP1 PUSH2 0xD61 JUMP JUMPDEST SWAP3 POP POP DUP2 SWAP1 SSTORE POP DUP1 PUSH1 0x1 PUSH0 DUP5 DUP2 MSTORE PUSH1 0x20 ADD SWAP1 DUP2 MSTORE PUSH1 0x20 ADD PUSH0 KECCAK256 PUSH1 0x3 ADD PUSH0 DUP3 DUP3 SLOAD PUSH2 0x761 SWAP2 SWAP1 PUSH2 0xD61 JUMP JUMPDEST SWAP3 POP POP DUP2 SWAP1 SSTORE POP POP POP JUMP JUMPDEST PUSH0 DUP2 SWAP1 POP SWAP2 SWAP1 POP JUMP JUMPDEST PUSH2 0x77E DUP2 PUSH2 0x76C JUMP JUMPDEST DUP3 MSTORE POP POP JUMP JUMPDEST PUSH0 PUSH1 0x20 DUP3 ADD SWAP1 POP PUSH2 0x797 PUSH0 DUP4 ADD DUP5 PUSH2 0x775 JUMP JUMPDEST SWAP3 SWAP2 POP POP JUMP JUMPDEST PUSH0 PUSH1 0x40 MLOAD SWAP1 POP SWAP1 JUMP JUMPDEST PUSH0 DUP1 REVERT JUMPDEST PUSH0 DUP1 REVERT JUMPDEST PUSH2 0x7B7 DUP2 PUSH2 0x76C JUMP JUMPDEST DUP2 EQ PUSH2 0x7C1 JUMPI PUSH0 DUP1 REVERT JUMPDEST POP JUMP JUMPDEST PUSH0 DUP2 CALLDATALOAD SWAP1 POP PUSH2 0x7D2 DUP2 PUSH2 0x7AE JUMP JUMPDEST SWAP3 SWAP2 POP POP JUMP JUMPDEST PUSH0 PUSH1 0x20 DUP3 DUP5 SUB SLT ISZERO PUSH2 0x7ED JUMPI PUSH2 0x7EC PUSH2 0x7A6 JUMP JUMPDEST JUMPDEST PUSH0 PUSH2 0x7FA DUP5 DUP3 DUP6 ADD PUSH2 0x7C4 JUMP JUMPDEST SWAP2 POP POP SWAP3 SWAP2 POP POP JUMP JUMPDEST PUSH0 DUP2 MLOAD SWAP1 POP SWAP2 SWAP1 POP JUMP JUMPDEST PUSH0 DUP3 DUP3 MSTORE PUSH1 0x20 DUP3 ADD SWAP1 POP SWAP3 SWAP2 POP POP JUMP JUMPDEST PUSH0 JUMPDEST DUP4 DUP2 LT ISZERO PUSH2 0x83A JUMPI DUP1 DUP3 ADD MLOAD DUP2 DUP5 ADD MSTORE PUSH1 0x20 DUP2 ADD SWAP1 POP PUSH2 0x81F JUMP JUMPDEST PUSH0 DUP5 DUP5 ADD MSTORE POP POP POP POP JUMP JUMPDEST PUSH0 PUSH1 0x1F NOT PUSH1 0x1F DUP4 ADD AND SWAP1 POP SWAP2 SWAP1 POP JUMP JUMPDEST PUSH0 PUSH2 0x85F DUP3 PUSH2 0x803 JUMP JUMPDEST PUSH2 0x869 DUP2 DUP6 PUSH2 0x80D JUMP JUMPDEST SWAP4 POP PUSH2 0x879 DUP2 DUP6 PUSH1 0x20 DUP7 ADD PUSH2 0x81D JUMP JUMPDEST PUSH2 0x882 DUP2 PUSH2 0x845 JUMP JUMPDEST DUP5 ADD SWAP2 POP POP SWAP3 SWAP2 POP POP JUMP JUMPDEST PUSH0 PUSH1 0xA0 DUP3 ADD SWAP1 POP DUP2 DUP2 SUB PUSH0 DUP4 ADD MSTORE PUSH2 0x8A5 DUP2 DUP9 PUSH2 0x855 JUMP JUMPDEST SWAP1 POP DUP2 DUP2 SUB PUSH1 0x20 DUP4 ADD MSTORE PUSH2 0x8B9 DUP2 DUP8 PUSH2 0x855 JUMP JUMPDEST SWAP1 POP DUP2 DUP2 SUB PUSH1 0x40 DUP4 ADD MSTORE PUSH2 0x8CD DUP2 DUP7 PUSH2 0x855 JUMP JUMPDEST SWAP1 POP PUSH2 0x8DC PUSH1 0x60 DUP4 ADD DUP6 PUSH2 0x775 JUMP JUMPDEST PUSH2 0x8E9 PUSH1 0x80 DUP4 ADD DUP5 PUSH2 0x775 JUMP JUMPDEST SWAP7 SWAP6 POP POP POP POP POP POP JUMP JUMPDEST PUSH0 PUSH20 0xFFFFFFFFFFFFFFFFFFFFFFFFFFFFFFFFFFFFFFFF DUP3 AND SWAP1 POP SWAP2 SWAP1 POP JUMP JUMPDEST PUSH0 PUSH2 0x91C DUP3 PUSH2 0x8F3 JUMP JUMPDEST SWAP1 POP SWAP2 SWAP1 POP JUMP JUMPDEST PUSH2 0x92C DUP2 PUSH2 0x912 JUMP JUMPDEST DUP2 EQ PUSH2 0x936 JUMPI PUSH0 DUP1 REVERT JUMPDEST POP JUMP JUMPDEST PUSH0 DUP2 CALLDATALOAD SWAP1 POP PUSH2 0x947 DUP2 PUSH2 0x923 JUMP JUMPDEST SWAP3 SWAP2 POP POP JUMP JUMPDEST PUSH0 PUSH1 0x20 DUP3 DUP5 SUB SLT ISZERO PUSH2 0x962 JUMPI PUSH2 0x961 PUSH2 0x7A6 JUMP JUMPDEST JUMPDEST PUSH0 PUSH2 0x96F DUP5 DUP3 DUP6 ADD PUSH2 0x939 JUMP JUMPDEST SWAP2 POP POP SWAP3 SWAP2 POP POP JUMP JUMPDEST PUSH0 DUP1 PUSH1 0x40 DUP4 DUP6 SUB SLT ISZERO PUSH2 0x98E JUMPI PUSH2 0x98D PUSH2 0x7A6 JUMP JUMPDEST JUMPDEST PUSH0 PUSH2 0x99B DUP6 DUP3 DUP7 ADD PUSH2 0x7C4 JUMP JUMPDEST SWAP3 POP POP PUSH1 0x20 PUSH2 0x9AC DUP6 DUP3 DUP7 ADD PUSH2 0x7C4 JUMP JUMPDEST SWAP2 POP POP SWAP3 POP SWAP3 SWAP1 POP JUMP JUMPDEST PUSH2 0x9BF DUP2 PUSH2 0x912 JUMP JUMPDEST DUP3 MSTORE POP POP JUMP JUMPDEST PUSH0 PUSH1 0x20 DUP3 ADD SWAP1 POP PUSH2 0x9D8 PUSH0 DUP4 ADD DUP5 PUSH2 0x9B6 JUMP JUMPDEST SWAP3 SWAP2 POP POP JUMP JUMPDEST PUSH0 DUP1 REVERT JUMPDEST PUSH0 DUP1 REVERT JUMPDEST PUSH32 0x4E487B7100000000000000000000000000000000000000000000000000000000 PUSH0 MSTORE PUSH1 0x41 PUSH1 0x4 MSTORE PUSH1 0x24 PUSH0 REVERT JUMPDEST PUSH2 0xA1C DUP3 PUSH2 0x845 JUMP JUMPDEST DUP2 ADD DUP2 DUP2 LT PUSH8 0xFFFFFFFFFFFFFFFF DUP3 GT OR ISZERO PUSH2 0xA3B JUMPI PUSH2 0xA3A PUSH2 0x9E6 JUMP JUMPDEST JUMPDEST DUP1 PUSH1 0x40 MSTORE POP POP POP JUMP JUMPDEST PUSH0 PUSH2 0xA4D PUSH2 0x79D JUMP JUMPDEST SWAP1 POP PUSH2 0xA59 DUP3 DUP3 PUSH2 0xA13 JUMP JUMPDEST SWAP2 SWAP1 POP JUMP JUMPDEST PUSH0 PUSH8 0xFFFFFFFFFFFFFFFF DUP3 GT ISZERO PUSH2 0xA78 JUMPI PUSH2 0xA77 PUSH2 0x9E6 JUMP JUMPDEST JUMPDEST PUSH2 0xA81 DUP3 PUSH2 0x845 JUMP JUMPDEST SWAP1 POP PUSH1 0x20 DUP2 ADD SWAP1 POP SWAP2 SWAP1 POP JUMP JUMPDEST DUP3 DUP2 DUP4 CALLDATACOPY PUSH0 DUP4 DUP4 ADD MSTORE POP POP POP JUMP JUMPDEST PUSH0 PUSH2 0xAAE PUSH2 0xAA9 DUP5 PUSH2 0xA5E JUMP JUMPDEST PUSH2 0xA44 JUMP JUMPDEST SWAP1 POP DUP3 DUP2 MSTORE PUSH1 0x20 DUP2 ADD DUP5 DUP5 DUP5 ADD GT ISZERO PUSH2 0xACA JUMPI PUSH2 0xAC9 PUSH2 0x9E2 JUMP JUMPDEST JUMPDEST PUSH2 0xAD5 DUP5 DUP3 DUP6 PUSH2 0xA8E JUMP JUMPDEST POP SWAP4 SWAP3 POP POP POP JUMP JUMPDEST PUSH0 DUP3 PUSH1 0x1F DUP4 ADD SLT PUSH2 0xAF1 JUMPI PUSH2 0xAF0 PUSH2 0x9DE JUMP JUMPDEST JUMPDEST DUP2 CALLDATALOAD PUSH2 0xB01 DUP5 DUP3 PUSH1 0x20 DUP7 ADD PUSH2 0xA9C JUMP JUMPDEST SWAP2 POP POP SWAP3 SWAP2 POP POP JUMP JUMPDEST PUSH0 DUP1 PUSH0 PUSH1 0x60 DUP5 DUP7 SUB SLT ISZERO PUSH2 0xB21 JUMPI PUSH2 0xB20 PUSH2 0x7A6 JUMP JUMPDEST JUMPDEST PUSH0 DUP5 ADD CALLDATALOAD PUSH8 0xFFFFFFFFFFFFFFFF DUP2 GT ISZERO PUSH2 0xB3E JUMPI PUSH2 0xB3D PUSH2 0x7AA JUMP JUMPDEST JUMPDEST PUSH2 0xB4A DUP7 DUP3 DUP8 ADD PUSH2 0xADD JUMP JUMPDEST SWAP4 POP POP PUSH1 0x20 DUP5 ADD CALLDATALOAD PUSH8 0xFFFFFFFFFFFFFFFF DUP2 GT ISZERO PUSH2 0xB6B JUMPI PUSH2 0xB6A PUSH2 0x7AA JUMP JUMPDEST JUMPDEST PUSH2 0xB77 DUP7 DUP3 DUP8 ADD PUSH2 0xADD JUMP JUMPDEST SWAP3 POP POP PUSH1 0x40 DUP5 ADD CALLDATALOAD PUSH8 0xFFFFFFFFFFFFFFFF DUP2 GT ISZERO PUSH2 0xB98 JUMPI PUSH2 0xB97 PUSH2 0x7AA JUMP JUMPDEST JUMPDEST PUSH2 0xBA4 DUP7 DUP3 DUP8 ADD PUSH2 0xADD JUMP JUMPDEST SWAP2 POP POP SWAP3 POP SWAP3 POP SWAP3 JUMP JUMPDEST PUSH32 0x4E487B7100000000000000000000000000000000000000000000000000000000 PUSH0 MSTORE PUSH1 0x22 PUSH1 0x4 MSTORE PUSH1 0x24 PUSH0 REVERT JUMPDEST PUSH0 PUSH1 0x2 DUP3 DIV SWAP1 POP PUSH1 0x1 DUP3 AND DUP1 PUSH2 0xBF2 JUMPI PUSH1 0x7F DUP3 AND SWAP2 POP JUMPDEST PUSH1 0x20 DUP3 LT DUP2 SUB PUSH2 0xC05 JUMPI PUSH2 0xC04 PUSH2 0xBAE JUMP JUMPDEST JUMPDEST POP SWAP2 SWAP1 POP JUMP JUMPDEST PUSH32 0x5769746864726177616C20616D6F756E742073686F756C642062652067726561 PUSH0 DUP3 ADD MSTORE PUSH32 0x746572207468616E203000000000000000000000000000000000000000000000 PUSH1 0x20 DUP3 ADD MSTORE POP JUMP JUMPDEST PUSH0 PUSH2 0xC65 PUSH1 0x2A DUP4 PUSH2 0x80D JUMP JUMPDEST SWAP2 POP PUSH2 0xC70 DUP3 PUSH2 0xC0B JUMP JUMPDEST PUSH1 0x40 DUP3 ADD SWAP1 POP SWAP2 SWAP1 POP JUMP JUMPDEST PUSH0 PUSH1 0x20 DUP3 ADD SWAP1 POP DUP2 DUP2 SUB PUSH0 DUP4 ADD MSTORE PUSH2 0xC92 DUP2 PUSH2 0xC59 JUMP JUMPDEST SWAP1 POP SWAP2 SWAP1 POP JUMP JUMPDEST PUSH32 0x496E73756666696369656E742042616C616E6365000000000000000000000000 PUSH0 DUP3 ADD MSTORE POP JUMP JUMPDEST PUSH0 PUSH2 0xCCD PUSH1 0x14 DUP4 PUSH2 0x80D JUMP JUMPDEST SWAP2 POP PUSH2 0xCD8 DUP3 PUSH2 0xC99 JUMP JUMPDEST PUSH1 0x20 DUP3 ADD SWAP1 POP SWAP2 SWAP1 POP JUMP JUMPDEST PUSH0 PUSH1 0x20 DUP3 ADD SWAP1 POP DUP2 DUP2 SUB PUSH0 DUP4 ADD MSTORE PUSH2 0xCFA DUP2 PUSH2 0xCC1 JUMP JUMPDEST SWAP1 POP SWAP2 SWAP1 POP JUMP JUMPDEST PUSH32 0x4E487B7100000000000000000000000000000000000000000000000000000000 PUSH0 MSTORE PUSH1 0x11 PUSH1 0x4 MSTORE PUSH1 0x24 PUSH0 REVERT JUMPDEST PUSH0 PUSH2 0xD38 DUP3 PUSH2 0x76C JUMP JUMPDEST SWAP2 POP PUSH2 0xD43 DUP4 PUSH2 0x76C JUMP JUMPDEST SWAP3 POP DUP3 DUP3 SUB SWAP1 POP DUP2 DUP2 GT ISZERO PUSH2 0xD5B JUMPI PUSH2 0xD5A PUSH2 0xD01 JUMP JUMPDEST JUMPDEST SWAP3 SWAP2 POP POP JUMP JUMPDEST PUSH0 PUSH2 0xD6B DUP3 PUSH2 0x76C JUMP JUMPDEST SWAP2 POP PUSH2 0xD76 DUP4 PUSH2 0x76C JUMP JUMPDEST SWAP3 POP DUP3 DUP3 ADD SWAP1 POP DUP1 DUP3 GT ISZERO PUSH2 0xD8E JUMPI PUSH2 0xD8D PUSH2 0xD01 JUMP JUMPDEST JUMPDEST SWAP3 SWAP2 POP POP JUMP JUMPDEST PUSH0 DUP2 SWAP1 POP DUP2 PUSH0 MSTORE PUSH1 0x20 PUSH0 KECCAK256 SWAP1 POP SWAP2 SWAP1 POP JUMP JUMPDEST PUSH0 PUSH1 0x20 PUSH1 0x1F DUP4 ADD DIV SWAP1 POP SWAP2 SWAP1 POP JUMP JUMPDEST PUSH0 DUP3 DUP3 SHL SWAP1 POP SWAP3 SWAP2 POP POP JUMP JUMPDEST PUSH0 PUSH1 0x8 DUP4 MUL PUSH2 0xDF0 PUSH32 0xFFFFFFFFFFFFFFFFFFFFFFFFFFFFFFFFFFFFFFFFFFFFFFFFFFFFFFFFFFFFFFFF DUP3 PUSH2 0xDB5 JUMP JUMPDEST PUSH2 0xDFA DUP7 DUP4 PUSH2 0xDB5 JUMP JUMPDEST SWAP6 POP DUP1 NOT DUP5 AND SWAP4 POP DUP1 DUP7 AND DUP5 OR SWAP3 POP POP POP SWAP4 SWAP3 POP POP POP JUMP JUMPDEST PUSH0 DUP2 SWAP1 POP SWAP2 SWAP1 POP JUMP JUMPDEST PUSH0 PUSH2 0xE35 PUSH2 0xE30 PUSH2 0xE2B DUP5 PUSH2 0x76C JUMP JUMPDEST PUSH2 0xE12 JUMP JUMPDEST PUSH2 0x76C JUMP JUMPDEST SWAP1 POP SWAP2 SWAP1 POP JUMP JUMPDEST PUSH0 DUP2 SWAP1 POP SWAP2 SWAP1 POP JUMP JUMPDEST PUSH2 0xE4E DUP4 PUSH2 0xE1B JUMP JUMPDEST PUSH2 0xE62 PUSH2 0xE5A DUP3 PUSH2 0xE3C JUMP JUMPDEST DUP5 DUP5 SLOAD PUSH2 0xDC1 JUMP JUMPDEST DUP3 SSTORE POP POP POP POP JUMP JUMPDEST PUSH0 SWAP1 JUMP JUMPDEST PUSH2 0xE76 PUSH2 0xE6A JUMP JUMPDEST PUSH2 0xE81 DUP2 DUP5 DUP5 PUSH2 0xE45 JUMP JUMPDEST POP POP POP JUMP JUMPDEST JUMPDEST DUP2 DUP2 LT ISZERO PUSH2 0xEA4 JUMPI PUSH2 0xE99 PUSH0 DUP3 PUSH2 0xE6E JUMP JUMPDEST PUSH1 0x1 DUP2 ADD SWAP1 POP PUSH2 0xE87 JUMP JUMPDEST POP POP JUMP JUMPDEST PUSH1 0x1F DUP3 GT ISZERO PUSH2 0xEE9 JUMPI PUSH2 0xEBA DUP2 PUSH2 0xD94 JUMP JUMPDEST PUSH2 0xEC3 DUP5 PUSH2 0xDA6 JUMP JUMPDEST DUP2 ADD PUSH1 0x20 DUP6 LT ISZERO PUSH2 0xED2 JUMPI DUP2 SWAP1 POP JUMPDEST PUSH2 0xEE6 PUSH2 0xEDE DUP6 PUSH2 0xDA6 JUMP JUMPDEST DUP4 ADD DUP3 PUSH2 0xE86 JUMP JUMPDEST POP POP JUMPDEST POP POP POP JUMP JUMPDEST PUSH0 DUP3 DUP3 SHR SWAP1 POP SWAP3 SWAP2 POP POP JUMP JUMPDEST PUSH0 PUSH2 0xF09 PUSH0 NOT DUP5 PUSH1 0x8 MUL PUSH2 0xEEE JUMP JUMPDEST NOT DUP1 DUP4 AND SWAP2 POP POP SWAP3 SWAP2 POP POP JUMP JUMPDEST PUSH0 PUSH2 0xF21 DUP4 DUP4 PUSH2 0xEFA JUMP JUMPDEST SWAP2 POP DUP3 PUSH1 0x2 MUL DUP3 OR SWAP1 POP SWAP3 SWAP2 POP POP JUMP JUMPDEST PUSH2 0xF3A DUP3 PUSH2 0x803 JUMP JUMPDEST PUSH8 0xFFFFFFFFFFFFFFFF DUP2 GT ISZERO PUSH2 0xF53 JUMPI PUSH2 0xF52 PUSH2 0x9E6 JUMP JUMPDEST JUMPDEST PUSH2 0xF5D DUP3 SLOAD PUSH2 0xBDB JUMP JUMPDEST PUSH2 0xF68 DUP3 DUP3 DUP6 PUSH2 0xEA8 JUMP JUMPDEST PUSH0 PUSH1 0x20 SWAP1 POP PUSH1 0x1F DUP4 GT PUSH1 0x1 DUP2 EQ PUSH2 0xF99 JUMPI PUSH0 DUP5 ISZERO PUSH2 0xF87 JUMPI DUP3 DUP8 ADD MLOAD SWAP1 POP JUMPDEST PUSH2 0xF91 DUP6 DUP3 PUSH2 0xF16 JUMP JUMPDEST DUP7 SSTORE POP PUSH2 0xFF8 JUMP JUMPDEST PUSH1 0x1F NOT DUP5 AND PUSH2 0xFA7 DUP7 PUSH2 0xD94 JUMP JUMPDEST PUSH0 JUMPDEST DUP3 DUP2 LT ISZERO PUSH2 0xFCE JUMPI DUP5 DUP10 ADD MLOAD DUP3 SSTORE PUSH1 0x1 DUP3 ADD SWAP2 POP PUSH1 0x20 DUP6 ADD SWAP5 POP PUSH1 0x20 DUP2 ADD SWAP1 POP PUSH2 0xFA9 JUMP JUMPDEST DUP7 DUP4 LT ISZERO PUSH2 0xFEB JUMPI DUP5 DUP10 ADD MLOAD PUSH2 0xFE7 PUSH1 0x1F DUP10 AND DUP3 PUSH2 0xEFA JUMP JUMPDEST DUP4 SSTORE POP JUMPDEST PUSH1 0x1 PUSH1 0x2 DUP9 MUL ADD DUP9 SSTORE POP POP POP JUMPDEST POP POP POP POP POP POP JUMP JUMPDEST PUSH32 0x4465706F73697420616D6F756E742073686F756C642062652067656174657220 PUSH0 DUP3 ADD MSTORE PUSH32 0x7468616E20300000000000000000000000000000000000000000000000000000 PUSH1 0x20 DUP3 ADD MSTORE POP JUMP JUMPDEST PUSH0 PUSH2 0x105A PUSH1 0x26 DUP4 PUSH2 0x80D JUMP JUMPDEST SWAP2 POP PUSH2 0x1065 DUP3 PUSH2 0x1000 JUMP JUMPDEST PUSH1 0x40 DUP3 ADD SWAP1 POP SWAP2 SWAP1 POP JUMP JUMPDEST PUSH0 PUSH1 0x20 DUP3 ADD SWAP1 POP DUP2 DUP2 SUB PUSH0 DUP4 ADD MSTORE PUSH2 0x1087 DUP2 PUSH2 0x104E JUMP JUMPDEST SWAP1 POP SWAP2 SWAP1 POP JUMP JUMPDEST PUSH32 0x696E76616C6964205472616E73616E6374696F6E000000000000000000000000 PUSH0 DUP3 ADD MSTORE POP JUMP JUMPDEST PUSH0 PUSH2 0x10C2 PUSH1 0x14 DUP4 PUSH2 0x80D JUMP JUMPDEST SWAP2 POP PUSH2 0x10CD DUP3 PUSH2 0x108E JUMP JUMPDEST PUSH1 0x20 DUP3 ADD SWAP1 POP SWAP2 SWAP1 POP JUMP JUMPDEST PUSH0 PUSH1 0x20 DUP3 ADD SWAP1 POP DUP2 DUP2 SUB PUSH0 DUP4 ADD MSTORE PUSH2 0x10EF DUP2 PUSH2 0x10B6 JUMP JUMPDEST SWAP1 POP SWAP2 SWAP1 POP JUMP INVALID LOG2 PUSH5 0x6970667358 0x22 SLT KECCAK256 PUSH24 0xE6ECC8B3C9179BA55DCB8DE2CC5020942B5E2BBF6FD6C795 0xCD 0x4F 0xD7 0xE1 PUSH30 0x73E364736F6C634300081800330000000000000000000000000000000000 "
				},
				"gasEstimates": {
					"creation": {
						"codeDepositCost": "879200",
						"executionCost": "47284",
						"totalCost": "926484"
					},
					"external": {
						"Users(uint256)": "infinite",
						"balances(address)": "2847",
						"createAccount(string,string,string)": "infinite",
						"deposit(uint256,uint256)": "infinite",
						"getBalance()": "2520",
						"owner()": "2530",
						"withdraw(uint256,uint256)": "infinite"
					}
				},
				"methodIdentifiers": {
					"Users(uint256)": "1e98fd1c",
					"balances(address)": "27e235e3",
					"createAccount(string,string,string)": "bc53c0c4",
					"deposit(uint256,uint256)": "e2bbb158",
					"getBalance()": "12065fe0",
					"owner()": "8da5cb5b",
					"withdraw(uint256,uint256)": "441a3e70"
				}
			},
			"storageLayout": {
				"storage": [
					{
						"astId": 4,
						"contract": "contracts/ClassWork/SimpleBank.sol:simpleBank",
						"label": "AcNo",
						"offset": 0,
						"slot": "0",
						"type": "t_uint256"
					},
					{
						"astId": 20,
						"contract": "contracts/ClassWork/SimpleBank.sol:simpleBank",
						"label": "Users",
						"offset": 0,
						"slot": "1",
						"type": "t_mapping(t_uint256,t_struct(user)15_storage)"
					},
					{
						"astId": 24,
						"contract": "contracts/ClassWork/SimpleBank.sol:simpleBank",
						"label": "balances",
						"offset": 0,
						"slot": "2",
						"type": "t_mapping(t_address,t_uint256)"
					},
					{
						"astId": 26,
						"contract": "contracts/ClassWork/SimpleBank.sol:simpleBank",
						"label": "owner",
						"offset": 0,
						"slot": "3",
						"type": "t_address"
					}
				],
				"types": {
					"t_address": {
						"encoding": "inplace",
						"label": "address",
						"numberOfBytes": "20"
					},
					"t_mapping(t_address,t_uint256)": {
						"encoding": "mapping",
						"key": "t_address",
						"label": "mapping(address => uint256)",
						"numberOfBytes": "32",
						"value": "t_uint256"
					},
					"t_mapping(t_uint256,t_struct(user)15_storage)": {
						"encoding": "mapping",
						"key": "t_uint256",
						"label": "mapping(uint256 => struct simpleBank.user)",
						"numberOfBytes": "32",
						"value": "t_struct(user)15_storage"
					},
					"t_string_storage": {
						"encoding": "bytes",
						"label": "string",
						"numberOfBytes": "32"
					},
					"t_struct(user)15_storage": {
						"encoding": "inplace",
						"label": "struct simpleBank.user",
						"members": [
							{
								"astId": 6,
								"contract": "contracts/ClassWork/SimpleBank.sol:simpleBank",
								"label": "Uname",
								"offset": 0,
								"slot": "0",
								"type": "t_string_storage"
							},
							{
								"astId": 8,
								"contract": "contracts/ClassWork/SimpleBank.sol:simpleBank",
								"label": "DoB",
								"offset": 0,
								"slot": "1",
								"type": "t_string_storage"
							},
							{
								"astId": 10,
								"contract": "contracts/ClassWork/SimpleBank.sol:simpleBank",
								"label": "Gender",
								"offset": 0,
								"slot": "2",
								"type": "t_string_storage"
							},
							{
								"astId": 12,
								"contract": "contracts/ClassWork/SimpleBank.sol:simpleBank",
								"label": "balance",
								"offset": 0,
								"slot": "3",
								"type": "t_uint256"
							},
							{
								"astId": 14,
								"contract": "contracts/ClassWork/SimpleBank.sol:simpleBank",
								"label": "AccountNo",
								"offset": 0,
								"slot": "4",
								"type": "t_uint256"
							}
						],
						"numberOfBytes": "160"
					},
					"t_uint256": {
						"encoding": "inplace",
						"label": "uint256",
						"numberOfBytes": "32"
					}
				}
			},
			"userdoc": {
				"kind": "user",
				"methods": {},
				"version": 1
			}
		}
	}
}